{
  "_format": "hh-sol-artifact-1",
  "contractName": "FhenixGovernance",
  "sourceName": "contracts/FhenixGovernance.sol",
  "abi": [
    {
      "inputs": [],
      "stateMutability": "nonpayable",
      "type": "constructor"
    },
    {
      "inputs": [
        {
          "internalType": "int32",
          "name": "value",
          "type": "int32"
        }
      ],
      "name": "SecurityZoneOutOfBounds",
      "type": "error"
    },
    {
      "anonymous": false,
      "inputs": [
        {
          "indexed": true,
          "internalType": "address",
          "name": "delegator",
          "type": "address"
        },
        {
          "indexed": true,
          "internalType": "address",
          "name": "delegate",
          "type": "address"
        }
      ],
      "name": "DelegationCreated",
      "type": "event"
    },
    {
      "anonymous": false,
      "inputs": [
        {
          "indexed": true,
          "internalType": "address",
          "name": "delegator",
          "type": "address"
        },
        {
          "indexed": true,
          "internalType": "address",
          "name": "delegate",
          "type": "address"
        }
      ],
      "name": "DelegationRemoved",
      "type": "event"
    },
    {
      "anonymous": false,
      "inputs": [
        {
          "indexed": true,
          "internalType": "bytes32",
          "name": "marketId",
          "type": "bytes32"
        }
      ],
      "name": "EscalatedToCommunity",
      "type": "event"
    },
    {
      "anonymous": false,
      "inputs": [
        {
          "indexed": true,
          "internalType": "bytes32",
          "name": "marketId",
          "type": "bytes32"
        },
        {
          "indexed": true,
          "internalType": "address",
          "name": "initiator",
          "type": "address"
        }
      ],
      "name": "EscalationInitiated",
      "type": "event"
    },
    {
      "anonymous": false,
      "inputs": [
        {
          "indexed": true,
          "internalType": "bytes32",
          "name": "marketId",
          "type": "bytes32"
        }
      ],
      "name": "EscalationResolved",
      "type": "event"
    },
    {
      "anonymous": false,
      "inputs": [
        {
          "indexed": true,
          "internalType": "bytes32",
          "name": "marketId",
          "type": "bytes32"
        },
        {
          "indexed": true,
          "internalType": "address",
          "name": "voter",
          "type": "address"
        }
      ],
      "name": "EscalationVoteCast",
      "type": "event"
    },
    {
      "anonymous": false,
      "inputs": [
        {
          "indexed": false,
          "internalType": "address",
          "name": "guardian1",
          "type": "address"
        },
        {
          "indexed": false,
          "internalType": "address",
          "name": "guardian2",
          "type": "address"
        },
        {
          "indexed": false,
          "internalType": "address",
          "name": "guardian3",
          "type": "address"
        }
      ],
      "name": "GovernanceInitialized",
      "type": "event"
    },
    {
      "anonymous": false,
      "inputs": [
        {
          "indexed": true,
          "internalType": "bytes32",
          "name": "marketId",
          "type": "bytes32"
        }
      ],
      "name": "PanelAssigned",
      "type": "event"
    },
    {
      "anonymous": false,
      "inputs": [
        {
          "indexed": true,
          "internalType": "bytes32",
          "name": "marketId",
          "type": "bytes32"
        }
      ],
      "name": "PanelFinalized",
      "type": "event"
    },
    {
      "anonymous": false,
      "inputs": [
        {
          "indexed": true,
          "internalType": "bytes32",
          "name": "marketId",
          "type": "bytes32"
        },
        {
          "indexed": true,
          "internalType": "address",
          "name": "resolver",
          "type": "address"
        }
      ],
      "name": "PanelVoteSubmitted",
      "type": "event"
    },
    {
      "anonymous": false,
      "inputs": [
        {
          "indexed": true,
          "internalType": "bytes32",
          "name": "proposalId",
          "type": "bytes32"
        },
        {
          "indexed": false,
          "internalType": "address",
          "name": "proposer",
          "type": "address"
        },
        {
          "indexed": false,
          "internalType": "uint8",
          "name": "proposalType",
          "type": "uint8"
        }
      ],
      "name": "ProposalCreated",
      "type": "event"
    },
    {
      "anonymous": false,
      "inputs": [
        {
          "indexed": true,
          "internalType": "bytes32",
          "name": "proposalId",
          "type": "bytes32"
        }
      ],
      "name": "ProposalExecuted",
      "type": "event"
    },
    {
      "anonymous": false,
      "inputs": [
        {
          "indexed": true,
          "internalType": "bytes32",
          "name": "proposalId",
          "type": "bytes32"
        }
      ],
      "name": "ProposalVetoed",
      "type": "event"
    },
    {
      "anonymous": false,
      "inputs": [
        {
          "indexed": true,
          "internalType": "address",
          "name": "resolver",
          "type": "address"
        }
      ],
      "name": "ResolverBlacklisted",
      "type": "event"
    },
    {
      "anonymous": false,
      "inputs": [
        {
          "indexed": true,
          "internalType": "address",
          "name": "resolver",
          "type": "address"
        }
      ],
      "name": "ResolverRegistered",
      "type": "event"
    },
    {
      "anonymous": false,
      "inputs": [
        {
          "indexed": true,
          "internalType": "address",
          "name": "resolver",
          "type": "address"
        }
      ],
      "name": "ResolverSlashed",
      "type": "event"
    },
    {
      "anonymous": false,
      "inputs": [
        {
          "indexed": true,
          "internalType": "address",
          "name": "resolver",
          "type": "address"
        },
        {
          "indexed": false,
          "internalType": "uint8",
          "name": "newTier",
          "type": "uint8"
        }
      ],
      "name": "ResolverTierUpgraded",
      "type": "event"
    },
    {
      "anonymous": false,
      "inputs": [
        {
          "indexed": true,
          "internalType": "address",
          "name": "resolver",
          "type": "address"
        }
      ],
      "name": "ResolverUnstaked",
      "type": "event"
    },
    {
      "anonymous": false,
      "inputs": [
        {
          "indexed": true,
          "internalType": "address",
          "name": "user",
          "type": "address"
        }
      ],
      "name": "RewardClaimed",
      "type": "event"
    },
    {
      "anonymous": false,
      "inputs": [
        {
          "indexed": false,
          "internalType": "uint64",
          "name": "epochId",
          "type": "uint64"
        }
      ],
      "name": "RewardEpochFunded",
      "type": "event"
    },
    {
      "anonymous": false,
      "inputs": [
        {
          "indexed": true,
          "internalType": "bytes32",
          "name": "proposalId",
          "type": "bytes32"
        },
        {
          "indexed": true,
          "internalType": "address",
          "name": "voter",
          "type": "address"
        }
      ],
      "name": "VoteCast",
      "type": "event"
    },
    {
      "anonymous": false,
      "inputs": [
        {
          "indexed": true,
          "internalType": "bytes32",
          "name": "proposalId",
          "type": "bytes32"
        },
        {
          "indexed": false,
          "internalType": "uint8",
          "name": "status",
          "type": "uint8"
        }
      ],
      "name": "VoteFinalized",
      "type": "event"
    },
    {
      "inputs": [],
      "name": "ESCALATION_BOND",
      "outputs": [
        {
          "internalType": "uint128",
          "name": "",
          "type": "uint128"
        }
      ],
      "stateMutability": "view",
      "type": "function"
    },
    {
      "inputs": [],
      "name": "ESCALATION_COMMUNITY",
      "outputs": [
        {
          "internalType": "uint8",
          "name": "",
          "type": "uint8"
        }
      ],
      "stateMutability": "view",
      "type": "function"
    },
    {
      "inputs": [],
      "name": "ESCALATION_INITIATED",
      "outputs": [
        {
          "internalType": "uint8",
          "name": "",
          "type": "uint8"
        }
      ],
      "stateMutability": "view",
      "type": "function"
    },
    {
      "inputs": [],
      "name": "ESCALATION_NONE",
      "outputs": [
        {
          "internalType": "uint8",
          "name": "",
          "type": "uint8"
        }
      ],
      "stateMutability": "view",
      "type": "function"
    },
    {
      "inputs": [],
      "name": "ESCALATION_RESOLVED",
      "outputs": [
        {
          "internalType": "uint8",
          "name": "",
          "type": "uint8"
        }
      ],
      "stateMutability": "view",
      "type": "function"
    },
    {
      "inputs": [],
      "name": "ESCALATION_WINDOW",
      "outputs": [
        {
          "internalType": "uint64",
          "name": "",
          "type": "uint64"
        }
      ],
      "stateMutability": "view",
      "type": "function"
    },
    {
      "inputs": [],
      "name": "GOLD_MARKETS_REQUIRED",
      "outputs": [
        {
          "internalType": "uint64",
          "name": "",
          "type": "uint64"
        }
      ],
      "stateMutability": "view",
      "type": "function"
    },
    {
      "inputs": [],
      "name": "GOLD_REPUTATION_MIN",
      "outputs": [
        {
          "internalType": "uint128",
          "name": "",
          "type": "uint128"
        }
      ],
      "stateMutability": "view",
      "type": "function"
    },
    {
      "inputs": [],
      "name": "MAX_STRIKES",
      "outputs": [
        {
          "internalType": "uint8",
          "name": "",
          "type": "uint8"
        }
      ],
      "stateMutability": "view",
      "type": "function"
    },
    {
      "inputs": [],
      "name": "MIN_PROPOSAL_STAKE",
      "outputs": [
        {
          "internalType": "uint128",
          "name": "",
          "type": "uint128"
        }
      ],
      "stateMutability": "view",
      "type": "function"
    },
    {
      "inputs": [],
      "name": "MIN_VOTE_AMOUNT",
      "outputs": [
        {
          "internalType": "uint128",
          "name": "",
          "type": "uint128"
        }
      ],
      "stateMutability": "view",
      "type": "function"
    },
    {
      "inputs": [],
      "name": "PANEL_MAJORITY",
      "outputs": [
        {
          "internalType": "uint8",
          "name": "",
          "type": "uint8"
        }
      ],
      "stateMutability": "view",
      "type": "function"
    },
    {
      "inputs": [],
      "name": "PANEL_SIZE",
      "outputs": [
        {
          "internalType": "uint8",
          "name": "",
          "type": "uint8"
        }
      ],
      "stateMutability": "view",
      "type": "function"
    },
    {
      "inputs": [],
      "name": "PROPOSAL_EMERGENCY_PAUSE",
      "outputs": [
        {
          "internalType": "uint8",
          "name": "",
          "type": "uint8"
        }
      ],
      "stateMutability": "view",
      "type": "function"
    },
    {
      "inputs": [],
      "name": "PROPOSAL_FEE_CHANGE",
      "outputs": [
        {
          "internalType": "uint8",
          "name": "",
          "type": "uint8"
        }
      ],
      "stateMutability": "view",
      "type": "function"
    },
    {
      "inputs": [],
      "name": "PROPOSAL_PARAMETER",
      "outputs": [
        {
          "internalType": "uint8",
          "name": "",
          "type": "uint8"
        }
      ],
      "stateMutability": "view",
      "type": "function"
    },
    {
      "inputs": [],
      "name": "PROPOSAL_RESOLVER_ELECTION",
      "outputs": [
        {
          "internalType": "uint8",
          "name": "",
          "type": "uint8"
        }
      ],
      "stateMutability": "view",
      "type": "function"
    },
    {
      "inputs": [],
      "name": "PROPOSAL_RESOLVE_DISPUTE",
      "outputs": [
        {
          "internalType": "uint8",
          "name": "",
          "type": "uint8"
        }
      ],
      "stateMutability": "view",
      "type": "function"
    },
    {
      "inputs": [],
      "name": "PROPOSAL_TREASURY",
      "outputs": [
        {
          "internalType": "uint8",
          "name": "",
          "type": "uint8"
        }
      ],
      "stateMutability": "view",
      "type": "function"
    },
    {
      "inputs": [],
      "name": "QUORUM_EMERGENCY",
      "outputs": [
        {
          "internalType": "uint128",
          "name": "",
          "type": "uint128"
        }
      ],
      "stateMutability": "view",
      "type": "function"
    },
    {
      "inputs": [],
      "name": "QUORUM_FEE",
      "outputs": [
        {
          "internalType": "uint128",
          "name": "",
          "type": "uint128"
        }
      ],
      "stateMutability": "view",
      "type": "function"
    },
    {
      "inputs": [],
      "name": "QUORUM_PARAMETER",
      "outputs": [
        {
          "internalType": "uint128",
          "name": "",
          "type": "uint128"
        }
      ],
      "stateMutability": "view",
      "type": "function"
    },
    {
      "inputs": [],
      "name": "QUORUM_RESOLVE",
      "outputs": [
        {
          "internalType": "uint128",
          "name": "",
          "type": "uint128"
        }
      ],
      "stateMutability": "view",
      "type": "function"
    },
    {
      "inputs": [],
      "name": "QUORUM_RESOLVER",
      "outputs": [
        {
          "internalType": "uint128",
          "name": "",
          "type": "uint128"
        }
      ],
      "stateMutability": "view",
      "type": "function"
    },
    {
      "inputs": [],
      "name": "QUORUM_TREASURY",
      "outputs": [
        {
          "internalType": "uint128",
          "name": "",
          "type": "uint128"
        }
      ],
      "stateMutability": "view",
      "type": "function"
    },
    {
      "inputs": [],
      "name": "RESOLVER_STAKE_BRONZE",
      "outputs": [
        {
          "internalType": "uint128",
          "name": "",
          "type": "uint128"
        }
      ],
      "stateMutability": "view",
      "type": "function"
    },
    {
      "inputs": [],
      "name": "SILVER_MARKETS_REQUIRED",
      "outputs": [
        {
          "internalType": "uint64",
          "name": "",
          "type": "uint64"
        }
      ],
      "stateMutability": "view",
      "type": "function"
    },
    {
      "inputs": [],
      "name": "SILVER_REPUTATION_MIN",
      "outputs": [
        {
          "internalType": "uint128",
          "name": "",
          "type": "uint128"
        }
      ],
      "stateMutability": "view",
      "type": "function"
    },
    {
      "inputs": [],
      "name": "SLASH_PERCENT_MAJOR",
      "outputs": [
        {
          "internalType": "uint128",
          "name": "",
          "type": "uint128"
        }
      ],
      "stateMutability": "view",
      "type": "function"
    },
    {
      "inputs": [],
      "name": "SLASH_PERCENT_MINOR",
      "outputs": [
        {
          "internalType": "uint128",
          "name": "",
          "type": "uint128"
        }
      ],
      "stateMutability": "view",
      "type": "function"
    },
    {
      "inputs": [],
      "name": "STATUS_ACTIVE",
      "outputs": [
        {
          "internalType": "uint8",
          "name": "",
          "type": "uint8"
        }
      ],
      "stateMutability": "view",
      "type": "function"
    },
    {
      "inputs": [],
      "name": "STATUS_EXECUTED",
      "outputs": [
        {
          "internalType": "uint8",
          "name": "",
          "type": "uint8"
        }
      ],
      "stateMutability": "view",
      "type": "function"
    },
    {
      "inputs": [],
      "name": "STATUS_PASSED",
      "outputs": [
        {
          "internalType": "uint8",
          "name": "",
          "type": "uint8"
        }
      ],
      "stateMutability": "view",
      "type": "function"
    },
    {
      "inputs": [],
      "name": "STATUS_REJECTED",
      "outputs": [
        {
          "internalType": "uint8",
          "name": "",
          "type": "uint8"
        }
      ],
      "stateMutability": "view",
      "type": "function"
    },
    {
      "inputs": [],
      "name": "STATUS_VETOED",
      "outputs": [
        {
          "internalType": "uint8",
          "name": "",
          "type": "uint8"
        }
      ],
      "stateMutability": "view",
      "type": "function"
    },
    {
      "inputs": [],
      "name": "TIER_BRONZE",
      "outputs": [
        {
          "internalType": "uint8",
          "name": "",
          "type": "uint8"
        }
      ],
      "stateMutability": "view",
      "type": "function"
    },
    {
      "inputs": [],
      "name": "TIER_COMMITTEE",
      "outputs": [
        {
          "internalType": "uint8",
          "name": "",
          "type": "uint8"
        }
      ],
      "stateMutability": "view",
      "type": "function"
    },
    {
      "inputs": [],
      "name": "TIER_GOLD",
      "outputs": [
        {
          "internalType": "uint8",
          "name": "",
          "type": "uint8"
        }
      ],
      "stateMutability": "view",
      "type": "function"
    },
    {
      "inputs": [],
      "name": "TIER_SILVER",
      "outputs": [
        {
          "internalType": "uint8",
          "name": "",
          "type": "uint8"
        }
      ],
      "stateMutability": "view",
      "type": "function"
    },
    {
      "inputs": [],
      "name": "TIMELOCK_LONG",
      "outputs": [
        {
          "internalType": "uint64",
          "name": "",
          "type": "uint64"
        }
      ],
      "stateMutability": "view",
      "type": "function"
    },
    {
      "inputs": [],
      "name": "TIMELOCK_STANDARD",
      "outputs": [
        {
          "internalType": "uint64",
          "name": "",
          "type": "uint64"
        }
      ],
      "stateMutability": "view",
      "type": "function"
    },
    {
      "inputs": [],
      "name": "VOTING_PERIOD",
      "outputs": [
        {
          "internalType": "uint64",
          "name": "",
          "type": "uint64"
        }
      ],
      "stateMutability": "view",
      "type": "function"
    },
    {
      "inputs": [
        {
          "internalType": "bytes32",
          "name": "",
          "type": "bytes32"
        }
      ],
      "name": "approvedResolvers",
      "outputs": [
        {
          "internalType": "bool",
          "name": "",
          "type": "bool"
        }
      ],
      "stateMutability": "view",
      "type": "function"
    },
    {
      "inputs": [
        {
          "internalType": "bytes32",
          "name": "marketId",
          "type": "bytes32"
        },
        {
          "internalType": "address",
          "name": "r1",
          "type": "address"
        },
        {
          "internalType": "address",
          "name": "r2",
          "type": "address"
        },
        {
          "internalType": "address",
          "name": "r3",
          "type": "address"
        }
      ],
      "name": "assignResolverPanel",
      "outputs": [],
      "stateMutability": "nonpayable",
      "type": "function"
    },
    {
      "inputs": [
        {
          "internalType": "address",
          "name": "resolver",
          "type": "address"
        }
      ],
      "name": "blacklistResolver",
      "outputs": [],
      "stateMutability": "nonpayable",
      "type": "function"
    },
    {
      "inputs": [
        {
          "internalType": "address",
          "name": "",
          "type": "address"
        }
      ],
      "name": "blacklistedResolvers",
      "outputs": [
        {
          "internalType": "bool",
          "name": "",
          "type": "bool"
        }
      ],
      "stateMutability": "view",
      "type": "function"
    },
    {
      "inputs": [
        {
          "internalType": "uint64",
          "name": "epochId",
          "type": "uint64"
        }
      ],
      "name": "claimReward",
      "outputs": [],
      "stateMutability": "nonpayable",
      "type": "function"
    },
    {
      "inputs": [
        {
          "internalType": "bytes32",
          "name": "",
          "type": "bytes32"
        }
      ],
      "name": "committeeDecision",
      "outputs": [
        {
          "internalType": "uint8",
          "name": "",
          "type": "uint8"
        }
      ],
      "stateMutability": "view",
      "type": "function"
    },
    {
      "inputs": [
        {
          "internalType": "bytes32",
          "name": "",
          "type": "bytes32"
        }
      ],
      "name": "committeeFinalized",
      "outputs": [
        {
          "internalType": "bool",
          "name": "",
          "type": "bool"
        }
      ],
      "stateMutability": "view",
      "type": "function"
    },
    {
      "inputs": [
        {
          "internalType": "uint256",
          "name": "",
          "type": "uint256"
        }
      ],
      "name": "committeeMembers",
      "outputs": [
        {
          "internalType": "address",
          "name": "",
          "type": "address"
        }
      ],
      "stateMutability": "view",
      "type": "function"
    },
    {
      "inputs": [
        {
          "internalType": "bytes32",
          "name": "",
          "type": "bytes32"
        }
      ],
      "name": "committeeOutcomeVotes",
      "outputs": [
        {
          "internalType": "uint8",
          "name": "",
          "type": "uint8"
        }
      ],
      "stateMutability": "view",
      "type": "function"
    },
    {
      "inputs": [],
      "name": "committeeSize",
      "outputs": [
        {
          "internalType": "uint8",
          "name": "",
          "type": "uint8"
        }
      ],
      "stateMutability": "view",
      "type": "function"
    },
    {
      "inputs": [
        {
          "internalType": "bytes32",
          "name": "marketId",
          "type": "bytes32"
        },
        {
          "internalType": "uint8",
          "name": "outcome",
          "type": "uint8"
        }
      ],
      "name": "committeeVoteResolve",
      "outputs": [],
      "stateMutability": "nonpayable",
      "type": "function"
    },
    {
      "inputs": [
        {
          "internalType": "bytes32",
          "name": "",
          "type": "bytes32"
        }
      ],
      "name": "committeeVoted",
      "outputs": [
        {
          "internalType": "bool",
          "name": "",
          "type": "bool"
        }
      ],
      "stateMutability": "view",
      "type": "function"
    },
    {
      "inputs": [
        {
          "internalType": "uint8",
          "name": "proposalType",
          "type": "uint8"
        },
        {
          "internalType": "bytes32",
          "name": "target",
          "type": "bytes32"
        },
        {
          "internalType": "uint128",
          "name": "payload1",
          "type": "uint128"
        },
        {
          "internalType": "bytes32",
          "name": "payload2",
          "type": "bytes32"
        }
      ],
      "name": "createProposal",
      "outputs": [
        {
          "internalType": "bytes32",
          "name": "",
          "type": "bytes32"
        }
      ],
      "stateMutability": "payable",
      "type": "function"
    },
    {
      "inputs": [],
      "name": "currentEpochId",
      "outputs": [
        {
          "internalType": "uint64",
          "name": "",
          "type": "uint64"
        }
      ],
      "stateMutability": "view",
      "type": "function"
    },
    {
      "inputs": [
        {
          "internalType": "bytes32",
          "name": "",
          "type": "bytes32"
        }
      ],
      "name": "decryptionRequested",
      "outputs": [
        {
          "internalType": "bool",
          "name": "",
          "type": "bool"
        }
      ],
      "stateMutability": "view",
      "type": "function"
    },
    {
      "inputs": [
        {
          "internalType": "address",
          "name": "delegate",
          "type": "address"
        }
      ],
      "name": "delegateVotes",
      "outputs": [],
      "stateMutability": "payable",
      "type": "function"
    },
    {
      "inputs": [],
      "name": "deployer",
      "outputs": [
        {
          "internalType": "address",
          "name": "",
          "type": "address"
        }
      ],
      "stateMutability": "view",
      "type": "function"
    },
    {
      "inputs": [],
      "name": "depositProtocolFees",
      "outputs": [],
      "stateMutability": "payable",
      "type": "function"
    },
    {
      "inputs": [
        {
          "internalType": "bytes32",
          "name": "marketId",
          "type": "bytes32"
        }
      ],
      "name": "escalateToCommunity",
      "outputs": [],
      "stateMutability": "nonpayable",
      "type": "function"
    },
    {
      "inputs": [
        {
          "internalType": "bytes32",
          "name": "",
          "type": "bytes32"
        }
      ],
      "name": "escalations",
      "outputs": [
        {
          "internalType": "bytes32",
          "name": "marketId",
          "type": "bytes32"
        },
        {
          "internalType": "address",
          "name": "initiator",
          "type": "address"
        },
        {
          "internalType": "uint8",
          "name": "proposedOutcome",
          "type": "uint8"
        },
        {
          "internalType": "uint8",
          "name": "status",
          "type": "uint8"
        },
        {
          "internalType": "uint64",
          "name": "initiatedAt",
          "type": "uint64"
        },
        {
          "internalType": "uint128",
          "name": "bondAmount",
          "type": "uint128"
        },
        {
          "internalType": "uint128",
          "name": "votesFor",
          "type": "uint128"
        },
        {
          "internalType": "uint128",
          "name": "votesAgainst",
          "type": "uint128"
        },
        {
          "internalType": "uint64",
          "name": "communityDeadline",
          "type": "uint64"
        }
      ],
      "stateMutability": "view",
      "type": "function"
    },
    {
      "inputs": [
        {
          "internalType": "bytes32",
          "name": "proposalId",
          "type": "bytes32"
        }
      ],
      "name": "executeGovernance",
      "outputs": [],
      "stateMutability": "nonpayable",
      "type": "function"
    },
    {
      "inputs": [
        {
          "internalType": "bytes32",
          "name": "marketId",
          "type": "bytes32"
        }
      ],
      "name": "finalizeCommitteeVote",
      "outputs": [],
      "stateMutability": "nonpayable",
      "type": "function"
    },
    {
      "inputs": [
        {
          "internalType": "bytes32",
          "name": "marketId",
          "type": "bytes32"
        }
      ],
      "name": "finalizeEscalation",
      "outputs": [],
      "stateMutability": "nonpayable",
      "type": "function"
    },
    {
      "inputs": [
        {
          "internalType": "bytes32",
          "name": "proposalId",
          "type": "bytes32"
        }
      ],
      "name": "finalizeVote",
      "outputs": [],
      "stateMutability": "nonpayable",
      "type": "function"
    },
    {
      "inputs": [
        {
          "internalType": "uint128",
          "name": "lpReward",
          "type": "uint128"
        },
        {
          "internalType": "uint128",
          "name": "traderReward",
          "type": "uint128"
        }
      ],
      "name": "fundRewardEpoch",
      "outputs": [],
      "stateMutability": "payable",
      "type": "function"
    },
    {
      "inputs": [
        {
          "internalType": "bytes32",
          "name": "marketId",
          "type": "bytes32"
        }
      ],
      "name": "getPanel",
      "outputs": [
        {
          "components": [
            {
              "internalType": "bytes32",
              "name": "marketId",
              "type": "bytes32"
            },
            {
              "internalType": "address",
              "name": "resolver1",
              "type": "address"
            },
            {
              "internalType": "address",
              "name": "resolver2",
              "type": "address"
            },
            {
              "internalType": "address",
              "name": "resolver3",
              "type": "address"
            },
            {
              "internalType": "uint8",
              "name": "votesSubmitted",
              "type": "uint8"
            },
            {
              "internalType": "uint8[5]",
              "name": "outcomeVotes",
              "type": "uint8[5]"
            },
            {
              "internalType": "bool",
              "name": "finalized",
              "type": "bool"
            },
            {
              "internalType": "uint8",
              "name": "winningOutcome",
              "type": "uint8"
            },
            {
              "internalType": "uint64",
              "name": "assignedAt",
              "type": "uint64"
            }
          ],
          "internalType": "struct FhenixGovernance.MultiResolverPanel",
          "name": "",
          "type": "tuple"
        }
      ],
      "stateMutability": "view",
      "type": "function"
    },
    {
      "inputs": [
        {
          "internalType": "bytes32",
          "name": "proposalId",
          "type": "bytes32"
        }
      ],
      "name": "getProposal",
      "outputs": [
        {
          "components": [
            {
              "internalType": "bytes32",
              "name": "id",
              "type": "bytes32"
            },
            {
              "internalType": "address",
              "name": "proposer",
              "type": "address"
            },
            {
              "internalType": "uint8",
              "name": "proposalType",
              "type": "uint8"
            },
            {
              "internalType": "bytes32",
              "name": "target",
              "type": "bytes32"
            },
            {
              "internalType": "uint128",
              "name": "payload1",
              "type": "uint128"
            },
            {
              "internalType": "bytes32",
              "name": "payload2",
              "type": "bytes32"
            },
            {
              "internalType": "uint128",
              "name": "votesFor",
              "type": "uint128"
            },
            {
              "internalType": "uint128",
              "name": "votesAgainst",
              "type": "uint128"
            },
            {
              "internalType": "uint128",
              "name": "quorumRequired",
              "type": "uint128"
            },
            {
              "internalType": "uint64",
              "name": "createdAt",
              "type": "uint64"
            },
            {
              "internalType": "uint64",
              "name": "votingDeadline",
              "type": "uint64"
            },
            {
              "internalType": "uint64",
              "name": "timelockUntil",
              "type": "uint64"
            },
            {
              "internalType": "uint8",
              "name": "status",
              "type": "uint8"
            }
          ],
          "internalType": "struct FhenixGovernance.Proposal",
          "name": "",
          "type": "tuple"
        }
      ],
      "stateMutability": "view",
      "type": "function"
    },
    {
      "inputs": [
        {
          "internalType": "address",
          "name": "resolver",
          "type": "address"
        }
      ],
      "name": "getResolverProfile",
      "outputs": [
        {
          "components": [
            {
              "internalType": "address",
              "name": "resolver",
              "type": "address"
            },
            {
              "internalType": "uint128",
              "name": "stakeAmount",
              "type": "uint128"
            },
            {
              "internalType": "uint8",
              "name": "tier",
              "type": "uint8"
            },
            {
              "internalType": "uint64",
              "name": "marketsResolved",
              "type": "uint64"
            },
            {
              "internalType": "uint64",
              "name": "disputesReceived",
              "type": "uint64"
            },
            {
              "internalType": "uint64",
              "name": "disputesLost",
              "type": "uint64"
            },
            {
              "internalType": "uint8",
              "name": "strikes",
              "type": "uint8"
            },
            {
              "internalType": "uint128",
              "name": "reputationScore",
              "type": "uint128"
            },
            {
              "internalType": "uint64",
              "name": "registeredAt",
              "type": "uint64"
            },
            {
              "internalType": "uint64",
              "name": "lastActiveAt",
              "type": "uint64"
            },
            {
              "internalType": "bool",
              "name": "isActive",
              "type": "bool"
            }
          ],
          "internalType": "struct FhenixGovernance.ResolverProfile",
          "name": "",
          "type": "tuple"
        }
      ],
      "stateMutability": "view",
      "type": "function"
    },
    {
      "inputs": [
        {
          "internalType": "bytes32",
          "name": "",
          "type": "bytes32"
        }
      ],
      "name": "governanceParams",
      "outputs": [
        {
          "internalType": "uint128",
          "name": "",
          "type": "uint128"
        }
      ],
      "stateMutability": "view",
      "type": "function"
    },
    {
      "inputs": [],
      "name": "governancePaused",
      "outputs": [
        {
          "internalType": "bool",
          "name": "",
          "type": "bool"
        }
      ],
      "stateMutability": "view",
      "type": "function"
    },
    {
      "inputs": [
        {
          "internalType": "bytes32",
          "name": "marketId",
          "type": "bytes32"
        },
        {
          "internalType": "uint8",
          "name": "winningOutcome",
          "type": "uint8"
        }
      ],
      "name": "governanceResolve",
      "outputs": [],
      "stateMutability": "nonpayable",
      "type": "function"
    },
    {
      "inputs": [
        {
          "internalType": "bytes32",
          "name": "",
          "type": "bytes32"
        }
      ],
      "name": "governanceResolvedOutcomes",
      "outputs": [
        {
          "internalType": "uint8",
          "name": "",
          "type": "uint8"
        }
      ],
      "stateMutability": "view",
      "type": "function"
    },
    {
      "inputs": [],
      "name": "guardians",
      "outputs": [
        {
          "internalType": "address",
          "name": "guardian1",
          "type": "address"
        },
        {
          "internalType": "address",
          "name": "guardian2",
          "type": "address"
        },
        {
          "internalType": "address",
          "name": "guardian3",
          "type": "address"
        },
        {
          "internalType": "uint8",
          "name": "threshold",
          "type": "uint8"
        }
      ],
      "stateMutability": "view",
      "type": "function"
    },
    {
      "inputs": [
        {
          "internalType": "address",
          "name": "guardian1",
          "type": "address"
        },
        {
          "internalType": "address",
          "name": "guardian2",
          "type": "address"
        },
        {
          "internalType": "address",
          "name": "guardian3",
          "type": "address"
        },
        {
          "internalType": "address",
          "name": "_marketsContract",
          "type": "address"
        }
      ],
      "name": "initGovernance",
      "outputs": [],
      "stateMutability": "nonpayable",
      "type": "function"
    },
    {
      "inputs": [],
      "name": "initialized",
      "outputs": [
        {
          "internalType": "bool",
          "name": "",
          "type": "bool"
        }
      ],
      "stateMutability": "view",
      "type": "function"
    },
    {
      "inputs": [
        {
          "internalType": "bytes32",
          "name": "marketId",
          "type": "bytes32"
        },
        {
          "internalType": "uint8",
          "name": "proposedOutcome",
          "type": "uint8"
        }
      ],
      "name": "initiateEscalation",
      "outputs": [],
      "stateMutability": "payable",
      "type": "function"
    },
    {
      "inputs": [],
      "name": "marketsContract",
      "outputs": [
        {
          "internalType": "contract IFhenixMarkets",
          "name": "",
          "type": "address"
        }
      ],
      "stateMutability": "view",
      "type": "function"
    },
    {
      "inputs": [
        {
          "internalType": "bytes32",
          "name": "marketId",
          "type": "bytes32"
        },
        {
          "internalType": "uint8",
          "name": "outcome",
          "type": "uint8"
        }
      ],
      "name": "panelVote",
      "outputs": [],
      "stateMutability": "nonpayable",
      "type": "function"
    },
    {
      "inputs": [
        {
          "internalType": "bytes32",
          "name": "",
          "type": "bytes32"
        }
      ],
      "name": "panelVoted",
      "outputs": [
        {
          "internalType": "bool",
          "name": "",
          "type": "bool"
        }
      ],
      "stateMutability": "view",
      "type": "function"
    },
    {
      "inputs": [],
      "name": "proposalCount",
      "outputs": [
        {
          "internalType": "uint256",
          "name": "",
          "type": "uint256"
        }
      ],
      "stateMutability": "view",
      "type": "function"
    },
    {
      "inputs": [
        {
          "internalType": "bytes32",
          "name": "",
          "type": "bytes32"
        }
      ],
      "name": "proposals",
      "outputs": [
        {
          "internalType": "bytes32",
          "name": "id",
          "type": "bytes32"
        },
        {
          "internalType": "address",
          "name": "proposer",
          "type": "address"
        },
        {
          "internalType": "uint8",
          "name": "proposalType",
          "type": "uint8"
        },
        {
          "internalType": "bytes32",
          "name": "target",
          "type": "bytes32"
        },
        {
          "internalType": "uint128",
          "name": "payload1",
          "type": "uint128"
        },
        {
          "internalType": "bytes32",
          "name": "payload2",
          "type": "bytes32"
        },
        {
          "internalType": "uint128",
          "name": "votesFor",
          "type": "uint128"
        },
        {
          "internalType": "uint128",
          "name": "votesAgainst",
          "type": "uint128"
        },
        {
          "internalType": "uint128",
          "name": "quorumRequired",
          "type": "uint128"
        },
        {
          "internalType": "uint64",
          "name": "createdAt",
          "type": "uint64"
        },
        {
          "internalType": "uint64",
          "name": "votingDeadline",
          "type": "uint64"
        },
        {
          "internalType": "uint64",
          "name": "timelockUntil",
          "type": "uint64"
        },
        {
          "internalType": "uint8",
          "name": "status",
          "type": "uint8"
        }
      ],
      "stateMutability": "view",
      "type": "function"
    },
    {
      "inputs": [
        {
          "internalType": "address",
          "name": "user",
          "type": "address"
        },
        {
          "internalType": "uint64",
          "name": "epochId",
          "type": "uint64"
        },
        {
          "internalType": "uint128",
          "name": "lpContribution",
          "type": "uint128"
        },
        {
          "internalType": "uint128",
          "name": "tradeVolume",
          "type": "uint128"
        }
      ],
      "name": "recordContribution",
      "outputs": [],
      "stateMutability": "nonpayable",
      "type": "function"
    },
    {
      "inputs": [],
      "name": "registerResolver",
      "outputs": [],
      "stateMutability": "payable",
      "type": "function"
    },
    {
      "inputs": [
        {
          "internalType": "bytes32",
          "name": "proposalId",
          "type": "bytes32"
        }
      ],
      "name": "requestVoteDecryption",
      "outputs": [],
      "stateMutability": "nonpayable",
      "type": "function"
    },
    {
      "inputs": [
        {
          "internalType": "bytes32",
          "name": "",
          "type": "bytes32"
        }
      ],
      "name": "resolverPanels",
      "outputs": [
        {
          "internalType": "bytes32",
          "name": "marketId",
          "type": "bytes32"
        },
        {
          "internalType": "address",
          "name": "resolver1",
          "type": "address"
        },
        {
          "internalType": "address",
          "name": "resolver2",
          "type": "address"
        },
        {
          "internalType": "address",
          "name": "resolver3",
          "type": "address"
        },
        {
          "internalType": "uint8",
          "name": "votesSubmitted",
          "type": "uint8"
        },
        {
          "internalType": "bool",
          "name": "finalized",
          "type": "bool"
        },
        {
          "internalType": "uint8",
          "name": "winningOutcome",
          "type": "uint8"
        },
        {
          "internalType": "uint64",
          "name": "assignedAt",
          "type": "uint64"
        }
      ],
      "stateMutability": "view",
      "type": "function"
    },
    {
      "inputs": [
        {
          "internalType": "address",
          "name": "",
          "type": "address"
        }
      ],
      "name": "resolverRegistry",
      "outputs": [
        {
          "internalType": "address",
          "name": "resolver",
          "type": "address"
        },
        {
          "internalType": "uint128",
          "name": "stakeAmount",
          "type": "uint128"
        },
        {
          "internalType": "uint8",
          "name": "tier",
          "type": "uint8"
        },
        {
          "internalType": "uint64",
          "name": "marketsResolved",
          "type": "uint64"
        },
        {
          "internalType": "uint64",
          "name": "disputesReceived",
          "type": "uint64"
        },
        {
          "internalType": "uint64",
          "name": "disputesLost",
          "type": "uint64"
        },
        {
          "internalType": "uint8",
          "name": "strikes",
          "type": "uint8"
        },
        {
          "internalType": "uint128",
          "name": "reputationScore",
          "type": "uint128"
        },
        {
          "internalType": "uint64",
          "name": "registeredAt",
          "type": "uint64"
        },
        {
          "internalType": "uint64",
          "name": "lastActiveAt",
          "type": "uint64"
        },
        {
          "internalType": "bool",
          "name": "isActive",
          "type": "bool"
        }
      ],
      "stateMutability": "view",
      "type": "function"
    },
    {
      "inputs": [
        {
          "internalType": "uint64",
          "name": "",
          "type": "uint64"
        }
      ],
      "name": "rewardEpochs",
      "outputs": [
        {
          "internalType": "uint64",
          "name": "epochId",
          "type": "uint64"
        },
        {
          "internalType": "uint128",
          "name": "totalLPReward",
          "type": "uint128"
        },
        {
          "internalType": "uint128",
          "name": "totalTraderReward",
          "type": "uint128"
        },
        {
          "internalType": "uint128",
          "name": "totalLPContributions",
          "type": "uint128"
        },
        {
          "internalType": "uint128",
          "name": "totalTradeVolume",
          "type": "uint128"
        },
        {
          "internalType": "uint64",
          "name": "startedAt",
          "type": "uint64"
        },
        {
          "internalType": "bool",
          "name": "distributed",
          "type": "bool"
        }
      ],
      "stateMutability": "view",
      "type": "function"
    },
    {
      "inputs": [
        {
          "internalType": "address[5]",
          "name": "members",
          "type": "address[5]"
        },
        {
          "internalType": "uint8",
          "name": "size",
          "type": "uint8"
        }
      ],
      "name": "setCommitteeMembers",
      "outputs": [],
      "stateMutability": "nonpayable",
      "type": "function"
    },
    {
      "inputs": [
        {
          "internalType": "address",
          "name": "resolver",
          "type": "address"
        }
      ],
      "name": "slashResolver",
      "outputs": [],
      "stateMutability": "nonpayable",
      "type": "function"
    },
    {
      "inputs": [],
      "name": "treasuryBalance",
      "outputs": [
        {
          "internalType": "uint128",
          "name": "",
          "type": "uint128"
        }
      ],
      "stateMutability": "view",
      "type": "function"
    },
    {
      "inputs": [
        {
          "internalType": "address",
          "name": "delegate",
          "type": "address"
        }
      ],
      "name": "undelegateVotes",
      "outputs": [],
      "stateMutability": "nonpayable",
      "type": "function"
    },
    {
      "inputs": [
        {
          "internalType": "bytes32",
          "name": "proposalId",
          "type": "bytes32"
        }
      ],
      "name": "unlockAfterVote",
      "outputs": [],
      "stateMutability": "nonpayable",
      "type": "function"
    },
    {
      "inputs": [],
      "name": "unstakeResolver",
      "outputs": [],
      "stateMutability": "nonpayable",
      "type": "function"
    },
    {
      "inputs": [
        {
          "internalType": "address",
          "name": "resolver",
          "type": "address"
        },
        {
          "internalType": "bool",
          "name": "resolved",
          "type": "bool"
        },
        {
          "internalType": "bool",
          "name": "disputed",
          "type": "bool"
        },
        {
          "internalType": "bool",
          "name": "disputeLost",
          "type": "bool"
        }
      ],
      "name": "updateResolverStats",
      "outputs": [],
      "stateMutability": "nonpayable",
      "type": "function"
    },
    {
      "inputs": [
        {
          "internalType": "address",
          "name": "resolver",
          "type": "address"
        }
      ],
      "name": "upgradeResolverTier",
      "outputs": [],
      "stateMutability": "nonpayable",
      "type": "function"
    },
    {
      "inputs": [
        {
          "internalType": "bytes32",
          "name": "proposalId",
          "type": "bytes32"
        }
      ],
      "name": "vetoProposal",
      "outputs": [],
      "stateMutability": "nonpayable",
      "type": "function"
    },
    {
      "inputs": [
        {
          "internalType": "bytes32",
          "name": "proposalId",
          "type": "bytes32"
        }
      ],
      "name": "voteAgainst",
      "outputs": [],
      "stateMutability": "payable",
      "type": "function"
    },
    {
      "inputs": [
        {
          "internalType": "bytes32",
          "name": "marketId",
          "type": "bytes32"
        },
        {
          "internalType": "bool",
          "name": "support",
          "type": "bool"
        }
      ],
      "name": "voteEscalation",
      "outputs": [],
      "stateMutability": "payable",
      "type": "function"
    },
    {
      "inputs": [
        {
          "internalType": "bytes32",
          "name": "proposalId",
          "type": "bytes32"
        }
      ],
      "name": "voteFor",
      "outputs": [],
      "stateMutability": "payable",
      "type": "function"
    },
    {
      "inputs": [
        {
          "internalType": "bytes32",
          "name": "marketId",
          "type": "bytes32"
        }
      ],
      "name": "withdrawEscalationBond",
      "outputs": [],
      "stateMutability": "nonpayable",
      "type": "function"
    },
    {
      "inputs": [
        {
          "internalType": "uint128",
          "name": "amount",
          "type": "uint128"
        },
        {
          "internalType": "address",
          "name": "recipient",
          "type": "address"
        }
      ],
      "name": "withdrawTreasury",
      "outputs": [],
      "stateMutability": "nonpayable",
      "type": "function"
    },
    {
      "stateMutability": "payable",
      "type": "receive"
    }
  ],
  "bytecode": "0x608080604052346026575f80546001600160a01b0319163317905561564f908161002b8239f35b5f80fdfe608080604052600436101561001c575b50361561001a575f80fd5b005b5f905f3560e01c908163038a3538146149f1575080630f5c4969146146f1578063123302ba146146d0578063158ef93e146146ac578063193bad5d146143b75780631b53df86146109fa578063206c4b661461434c57806321e91f8e14614331578063248bd4711461430f578063250948e2146142f4578063286c379b14614197578063313dab2014614171578063318dfff11461405e57806332ed5b1214613f905780633338519d1461104e5780633515498614613dfb57806337d31acc14613b9e5780633a6c6604146111bf5780633c0847f514611053578063403eab2b14613a4d578063406ee60f1461386957806340e53596146135d957806342a7c614146135b7578063430694cf146133a55780634389cc22146118775780634ad86ffc146131765780634cf3ad6a146130d75780634f23b358146110535780635394c87914610a6257806353dd2687146109fa5780635542fa80146111bf5780635614e1f1146109fa5780635a81d4ba1461308f5780635cb06d451461105357806360d3d0d814613073578063665207b614612f48578063673a033714612f1b5780636759647a14612ce557806367fed20e14612b955780636984a46d14612b665780636b7b8c6314612b2e5780636e6a626314610a5d57806373b9c8671461297257806374105d82146104b1578063748d22f2146128ad578063751b18cb1461287e578063761edb48146127f5578063797af2bd146127b85780637a4bc51a146127825780637b7e52f8146125885780637ceb6efd146111ba5780637e406a381461242a578063815fdf471461201b57806384060a2914611f97578063843ff9a514611f7557806388ea26e814611d8d5780638b75d75a14611ad55780638b952a3614611a365780638be615a7146111bf5780638c5fcdda146118f65780638c72aa13146118c9578063941ff2e51461189c5780639a46e412146111bf5780639cf4364b1461187c5780639d142a0b14611877578063a138d18a14611740578063a42bd5581461156f578063a45c3847146113e0578063a574511c146111c4578063abbf52dc146111bf578063acb34f70146111ba578063adf758f61461119d578063b1610d7e1461117f578063b5785f9c14611058578063b8f07dea146109fa578063baab957414611053578063bb4320741461104e578063bb601d0014611032578063bc89d95814610f9e578063c4e9ff4a14610f82578063c593a10814610ecd578063c699c38414610d16578063c98327d614610ced578063d028b71014610afb578063d373d36914610adf578063d5f3948814610ab8578063d957dff7146104b1578063da35c66414610a9a578063dcb6375514610a67578063ddc6739e14610a62578063de4b6803146109fa578063de65e34114610a5d578063e066016714610a2e578063e37a7efd146109ff578063e3d3f843146109fa578063e6cee0ae146108cb578063e8ea4c76146105f0578063eacdc5ff146105c9578063f51ceca014610501578063fbf49bfd146104e5578063fc123004146104b6578063ff808c29146104b15763ffa12de40361000f57346104ae57806003193601126104ae5760206040516202a3008152f35b80fd5b614b93565b50346104ae5760203660031901126104ae5760ff60406020926004358152601e84522054166040519015158152f35b50346104ae57806003193601126104ae57602060405160198152f35b50346104ae5760403660031901126104ae5761051b614b5c565b610523614a10565b825490916001600160a01b039161053d9083163314614d1f565b602654916001600160801b039182841691838216908382116105925761058f968896879661056e8897968897614e9f565b16906001600160801b03191617602655165af1610589614eb8565b50614ef6565b80f35b60405162461bcd60e51b815260206004820152600f60248201526e457863656564732062616c616e636560881b6044820152606490fd5b50346104ae57806003193601126104ae5760206001600160401b0360225416604051908152f35b50346104ae576020806003193601126108c7576004359061061760ff845460a01c16614bd0565b8183526002908181526040842091600783018054600160ff8260401c1603610895576001600160401b03811642106108635760ff60401b191668030000000000000000179055600183015460a01c60ff168181036106c4575090601f916001600160801b0360038501541693015485525260408320906001600160801b03198254161790555b7f7b1bcf1ccf901a11589afff5504d59fd0a53780eed2a952adade0348985139e08280a280f35b600481036106fe575090601f916001600160801b0360038501541693015485525260408320906001600160801b031982541617905561069d565b6005810361072a5750509060036001600160801b0391015416151560ff8019835416911617905561069d565b6006810361074f5750601e92015484525260408220600160ff1982541617905561069d565b6001810361077d575090601d9160ff600385015416930154855252604083209060ff1982541617905561069d565b600391501461078e575b505061069d565b6001600160801b03600481600385015416930154906026549080821680861161082b57856107bb91614e9f565b6001600160801b03199092169116176026556001600160a01b03169081156107f857508380806107f19481945af1610589614eb8565b5f80610787565b6064906040519062461bcd60e51b82526004820152600c60248201526b5a65726f206164647265737360a01b6044820152fd5b60405162461bcd60e51b815260048101869052601060248201526f4578636565647320747265617375727960801b6044820152606490fd5b60405162461bcd60e51b815260048101859052600a602482015269151a5b595b1bd8dad95960b21b6044820152606490fd5b60405162461bcd60e51b815260048101859052600a602482015269139bdd081c185cdcd95960b21b6044820152606490fd5b5080fd5b50346104ae5760203660031901126104ae576004356108f060ff835460a01c16614bd0565b80825260286020526040822060018101908154610915600260ff8360a81c1614614d91565b6003820154906001600160401b038260801c164211156109c65760ff60a81b1916600360a81b1792839055600282015460801c6001600160801b0391909116101561099d57548352601d60205260ff604084209160a01c1660ff198254161790557fd5c0d4e027576e5ed8df7edbb928604bc839767a154929d2ef30bac370810aba8280a280f35b50507fd5c0d4e027576e5ed8df7edbb928604bc839767a154929d2ef30bac370810aba8280a280f35b60405162461bcd60e51b815260206004820152600c60248201526b5374696c6c20766f74696e6760a01b6044820152606490fd5b614a68565b50346104ae5760203660031901126104ae5760ff60406020926004358152601a84522054166040519015158152f35b50346104ae5760203660031901126104ae5760ff60406020926004358152601784522054166040519015158152f35b614b72565b614b0f565b50346104ae5760203660031901126104ae576001600160801b0360406020926004358152601f8452205416604051908152f35b50346104ae57806003193601126104ae576020600354604051908152f35b50346104ae57806003193601126104ae57546040516001600160a01b039091168152602090f35b50346104ae57806003193601126104ae57602060405160058152f35b50346104ae5760803660031901126104ae57610b15614a52565b610b1d614a93565b6044358015158103610ce957606435928315158403610ce95784546001600160a01b039190610b4f9083163314614d1f565b168452600f6020526040842091610b6c60ff6004850154166150ac565b610c75575b610be9575b61058f91610ba0575b60030180546001600160c01b03164260c01b6001600160c01b031916179055565b610be460028201610bbd6001600160401b03825460401c166150e5565b67ffffffffffffffff60401b82549160401b169067ffffffffffffffff60401b1916179055565b610b7f565b6002810180546001600160401b03610c028183166150e5565b16906001600160401b03191617905560038101918254926001600160801b039384811660c881115f14610c6a5760c7190194808611610c565761058f955b16906001600160801b0319161790559150610b76565b634e487b7160e01b5f52601160045260245ffd5b5061058f9486610c40565b610cba60018301610c926001600160401b03825460881c166150e5565b815467ffffffffffffffff60881b191660889190911b67ffffffffffffffff60881b16179055565b6003820180546001600160801b03606481831601818111610c565716906001600160801b031916179055610b71565b5f80fd5b50346104ae57806003193601126104ae576001546040516001600160a01b039091168152602090f35b50346104ae5760403660031901126104ae57600435610d33614a83565b90610d3d33615327565b15610e985760ff9081831691600183101580610e8d575b610d5d90614d5b565b818552602090601a8252610d778160408820541615614fa7565b6040518281018481523360601b6001600160601b0319166020820152818103601481018352601f19979290610daf9060340182614cfe565b51902080885260178452610dc98360408a20541615614e48565b8752601783526040808820805460ff19908116600117909155905180850186815260f89390931b6001600160f81b03191660208401529096610e1690826021850103908101835282614cfe565b519020808752601883526040872080548784610e33818416614fe7565b169116179055865260188252607f610e55826040892054169260165416615151565b60011c161115610e63578480f35b6019918552601a8152604085206001858254161790555260408320918254161790555f8080808480f35b506004831115610d54565b60405162461bcd60e51b815260206004820152600d60248201526c4e6f7420636f6d6d697474656560981b6044820152606490fd5b50346104ae5760c03660031901126104ae573660a4116104ae5760a43560ff8116809103610ce95781546001600160a01b0390610f0d9082163314614d1f565b6005808311610f5557839160045b828410610f3257858560ff19601654161760165580f35b8035938285168503610f51576020600192019481601101550192610f1b565b8680fd5b60405162461bcd60e51b81526020600482015260056024820152644d6178203560d81b6044820152606490fd5b50346104ae57806003193601126104ae57602060405160328152f35b50346104ae5760203660031901126104ae576040610100916004358152601b602052206001600160401b0381549160ff60018060a01b03918260018201541692806002830154166005600384015493015494604051978852602088015260408701528116606086015260a01c16608084015260ff8116151560a084015260ff8160081c1660c084015260101c1660e0820152f35b50346104ae57806003193601126104ae576020604051600a8152f35b614aa2565b614ada565b50346104ae576020806003193601126108c75760043590818352601a815260ff6110888160408620541615614fa7565b83928460015b60048482161115611113575082607f6110aa8260165416615151565b60011c169116106110e0578452601a82526019604085209260ff1993600185825416179055526040842092169082541617905580f35b60405162461bcd60e51b815260048101849052600b60248201526a4e6f206d616a6f7269747960a81b6044820152606490fd5b60405185810184815260f883901b6001600160f81b03191660208201529061114881602184015b03601f198101835282614cfe565b519020875260188552836040882054168483168111611171575b5061116c90614fe7565b61108e565b9150945061116c8590611162565b50346104ae57806003193601126104ae57602060405162093a808152f35b50346104ae57806003193601126104ae576020604051612ee08152f35b614bae565b614abf565b50346104ae576020806003193601126108c7576111df614a52565b6111ef60ff845460a01c16614bd0565b6001600160a01b0316808352600f82526040832060048101549192916112179060ff166150ac565b600181019081549060ff8260801c16600181145f146112f957509050815490600a6001600160401b038360881c16101590816112de575b50156112995760ff60801b1916600160811b1781557f54dd2317a6e32c1f79afc545cf4f4daff78f09889e50c9627af83c526cd2ae16919060ff905b5460801c16604051908152a280f35b60405162461bcd60e51b815260048101849052601760248201527f4e6f7420656c696769626c6520666f722053696c7665720000000000000000006044820152606490fd5b612ee0915060036001600160801b039101541610155f61124e565b6002036113b05760326001600160401b038360881c1610159081611395575b50156113585760ff60801b1916600360801b1781557f54dd2317a6e32c1f79afc545cf4f4daff78f09889e50c9627af83c526cd2ae16919060ff9061128a565b60405162461bcd60e51b8152600481018490526015602482015274139bdd08195b1a59da589b1948199bdc8811dbdb19605a1b6044820152606490fd5b613a98915060036001600160801b039101541610155f611318565b60405162461bcd60e51b815260048101859052600860248201526726b0bc103a34b2b960c11b6044820152606490fd5b5034610ce95760209081600319360112610ce95760043561140760ff5f5460a01c16614bd0565b805f5260028352611437600660405f2061142b60ff600783015460401c16156150ac565b015460c01c4211615117565b805f526027835260ff60405f20541661153657805f526027835260405f20600160ff198254161790556006835260405f205473ea30c4b8b44078bbf8a6ef5b9f1ec1626c7848d991823b15610ce957604051630828982760e01b80825260048201939093523360248201525f8160448183885af1801561152b57611517575b5083946007918552526040832054823b156115125760405191825260048201523360248201529082908290604490829084905af18015611507576114f75750f35b61150090614c9a565b6104ae5780f35b6040513d84823e3d90fd5b505050fd5b611522919450614c9a565b5f9260076114b6565b6040513d5f823e3d90fd5b60405162461bcd60e51b8152600481018490526011602482015270105b1c9958591e481c995c5d595cdd1959607a1b6044820152606490fd5b34610ce9576080366003190112610ce957611588614a52565b611590614a10565b90611599614a26565b6115a1614a3c565b5f546001600160a01b03939092906115bc3386861614614d1f565b60ff8460a01c1661170557841692831515806116fa575b806116ef575b156116ba576040519260808401958487106001600160401b038811176116a6576002606082807f4a6ddf93c527399b46fddcb30aee5fa9e0ebdff88835732f27b9acf755b012c59b839b6040528a8a5216968760208a0152169687604082015201526001600160601b0360a01b918683600a541617600a558483600b541617600b55600160a11b866affffffffffffffffffffff60a81b600c54161717600c5516906001541617600155600160a01b9060ff60a01b1916175f5560405192835260208301526040820152a1005b634e487b7160e01b5f52604160045260245ffd5b60405162461bcd60e51b815260206004820152600d60248201526c2d32b9379033bab0b93234b0b760991b6044820152606490fd5b5084821615156115d9565b5084861615156115d3565b60405162461bcd60e51b8152602060048201526013602482015272105b1c9958591e481a5b9a5d1a585b1a5e9959606a1b6044820152606490fd5b34610ce9576020366003190112610ce9576004355f5461176560ff8260a01c16614bd0565b815f52602860205260405f20600181018054600160ff8260a81c1603611842576117ff936117af90336001600160a01b0391821614908115611831575b8115611825575b5061506f565b60ff60a81b1916600160a91b17905560036117d2426001600160401b03166150fd565b9101805467ffffffffffffffff60801b191660809290921b67ffffffffffffffff60801b16919091179055565b7fe0d9c289d3dfc546543e395b5019f15adb316000bfba80b7cdb64dbc85b3a59c5f80a2005b905082163314876117a9565b905061183c33615163565b906117a2565b60405162461bcd60e51b815260206004820152600d60248201526c139bdd081a5b9a5d1a585d1959609a1b6044820152606490fd5b614af5565b34610ce9575f366003190112610ce957602060ff60165416604051908152f35b34610ce9576020366003190112610ce9576004355f526018602052602060ff60405f205416604051908152f35b34610ce9576020366003190112610ce9576004355f52601d602052602060ff60405f205416604051908152f35b6020366003190112610ce95761190a614a52565b61191a60ff5f5460a01c16614bd0565b6001600160a01b0381169081151580611a2c575b156119f45761193e341515614e11565b6001600160801b03908134169060405161197e8161113a60208201943386906028926001600160601b0319809260601b16835260601b1660148201520190565b5190205f52600d60205260405f208054908361199c84828516614e84565b166001600160801b0319809316179055835f52600e60205260405f20926119c7845493828516614e84565b169116179055337ffaf6077d874fc7f1716637c6f4ac4914ce0cfbf27767bb442ed23dd08dad40445f80a3005b60405162461bcd60e51b815260206004820152601060248201526f496e76616c69642064656c656761746560801b6044820152606490fd5b503382141561192e565b34610ce9576020366003190112610ce957611a4f614a52565b5f546001600160a01b039190821633148015611ac1575b611a6f9061506f565b16805f52600f602052600460405f200160ff19908181541690556010602052600160405f20918254161790557f8d755620a3983e6fcaff02384351c3cf493670d9a6f00169bf4bc2d09f7475be5f80a2005b50611a6f611ace33615163565b9050611a66565b34610ce957602080600319360112610ce95760043590611afb60ff5f5460a01c16614bd0565b815f526002815260405f20906007820191611b1d60ff845460401c16156150ac565b60068101611b30815460c01c4211615117565b845f526027835260ff60405f20541615611d4857845f5260068352611b5860405f2054615287565b91865f5260078552611b6d60405f2054615287565b84919491611d40575b5015611cef576001600160801b038281166001600160801b0319608086901b16811760058701559290919082908190611bb0908790614e84565b925416911610159283611ce3575b5050505f14611cb657825460ff600168010000000000000000938460ff60401b198516178755015460a01c16600581145f14611c305750505060ff5f805160206155fa833981519152926001600160401b0342166001600160401b03198254161781555b5460401c16604051908152a2005b600303611c7257505060ff5f805160206155fa833981519152926001600160401b03611c5d8142166150fd565b166001600160401b0319825416178155611c22565b90926001600160401b03936202a3008542160192858411610c56575f805160206155fa8339815191529560ff94169068ffffffffffffffffff191617178155611c22565b5060ff5f805160206155fa833981519152926802000000000000000060ff60401b19825416178155611c22565b16109050858080611bbe565b60405162461bcd60e51b815260048101869052602360248201527f44656372797074696f6e2070656e64696e672c2074727920616761696e206c616044820152623a32b960e91b6064820152608490fd5b905088611b76565b60405162461bcd60e51b815260048101849052601860248201527f44656372797074696f6e206e6f742072657175657374656400000000000000006044820152606490fd5b34610ce9576020366003190112610ce957610160611da9614a52565b5f610140604051611db981614c46565b8281528260208201528260408201528260608201528260808201528260a08201528260c08201528260e08201528261010082015282610120820152015260018060a01b038091165f52600f60205261014060405f209160ff600460405192611e2084614c46565b855416948584526001600160401b0360018201546001600160801b0381166020870152848160801c16604087015260881c1660608501528260028201546001600160401b03811660808701526001600160401b038160401c1660a087015260801c1660c085015260038101546001600160801b03811660e08601526001600160401b038160801c1661010086015260c01c6101208501520154161515828201526040519283526001600160801b03602082015116602084015260ff60408201511660408401526001600160401b0360608201511660608401526001600160401b0360808201511660808401526001600160401b0360a08201511660a084015260ff60c08201511660c08401526001600160801b0360e08201511660e08401526001600160401b03610100820151166101008401526001600160401b036101208201511661012084015201511515610140820152f35b34610ce9575f366003190112610ce957602060405167016345785d8a00008152f35b34610ce9575f366003190112610ce957335f52600f602052611ff45f8080806001600160801b0360408220600481016001815492611fd760ff85166150ac565b019081549260ff1916905582198216905516335af1610589614eb8565b337f4db43c6bd5697f90f162476577384e8e775d3c164c8cfaca155e43969f44187b5f80a2005b6080366003190112610ce95760043560ff811690818103610ce957602435612041614b46565b61205160ff5f5460a01c16614bd0565b61206060ff6020541615614f34565b60018410158061241f575b156123eb57612083662386f26fc10000341015614c0e565b60405160208101903360601b825260ff60f81b8560f81b1660348201528360358201526001600160801b03198360801b166055820152426065820152606581526120cc81614cad565b5190205f818152600260205260409020600101549093906001600160a01b03166123bd576120f9906151a1565b6001600160401b0362093a808142160111610c56576001600160801b0380926040519461212586614c7e565b868652336020870152876040870152606086015216608084015260643560a08401525f60c08401525f60e0840152166101008201526001600160401b0342166101208201526001600160401b0362093a8081421601166101408201525f6101608201525f610180820152815f526002602052600760405f20825181556121e86001820160018060a01b036020860151166001600160601b0360a01b82541617815560ff60408601511681549060ff60a01b9060a01b169060ff60a01b1916179055565b606083015160028201556080808401516003830180546001600160801b039283166001600160801b03199182161790915560a0860151600485015560c08087015160e088015190841690851b90921691909117600585015561010086015161012087015161014088015190921b6001600160c01b0319169216921b67ffffffffffffffff60801b169190911717600682015501906001600160401b036101608201511660ff60401b610180845493015160401b169168ffffffffffffffffff1916171790556122b5615506565b6122be8161522b565b815f52600660205260405f20556122d3615506565b6122dc8161522b565b815f52600760205260405f20556001600160801b033416335f52600860205260405f2080546001600160801b0361231584828416614e84565b6001600160801b0319909216911617905560408051602081018481523360601b6001600160601b03191692820192909252612353816054810161113a565b5190205f52600960205260405f20906001600160801b03198254161790556003545f198114610c56577fc4b64ebdae706e07f37a5858b10df15949d7d4ca87db72ef3459de00499926c16040602094600185940160035581519033825286820152a2604051908152f35b60405162461bcd60e51b815260206004820152600660248201526545786973747360d01b6044820152606490fd5b60405162461bcd60e51b815260206004820152600c60248201526b496e76616c6964207479706560a01b6044820152606490fd5b50600684111561206b565b34610ce957602080600319360112610ce9576040516004358183018181523360601b6001600160601b031916602082015290929161246b816034840161113a565b51902091825f52602a82526001600160801b03908160405f205416905f526028835260405f20600181015460018060a01b038116331480612579575b612511575b5050169182156124e2575f8061001a94602a82958395845252604082206001600160801b03198154169055335af1610589614eb8565b60405162461bcd60e51b8152600481018390526007602482015266139bc8189bdb9960ca1b6044820152606490fd5b60ff60039160a81c16036125455760020161253181549284841690614e84565b916001600160801b031916905584806124ac565b60405162461bcd60e51b815260048101859052600c60248201526b139bdd081c995cdbdb1d995960a21b6044820152606490fd5b508360028301541615156124a7565b6040366003190112610ce95761259c614b5c565b6001600160801b0360243581811690818103610ce9576125d183916125cb60018060a01b035f54163314614d1f565b85614e84565b16341061274e57602254906001600160401b0391826125f18183166150e5565b1680916001600160401b031916176022556040519360e08501858110858211176116a6577fb00e9a0f78c6d14cd765a1117e8dc25aa671fcd00e523df2124f52d7a080a06996602096612728938793604052858252808983019316835260408201968752600260608301925f84526126f260808201995f8b5260a0830196884216885260c084019a5f8c525f5260218e528860405f2094511677ffffffffffffffffffffffffffffffff00000000000000008554925160401b16916001600160401b0360c01b1617178355848060018501925116966001600160801b0319978884541617835551166001600160801b0382549181199060801b169116179055565b975197018054935167ffffffffffffffff60801b1993909416919097161716911660801b67ffffffffffffffff60801b16178355565b51815460ff60c01b191690151560c01b60ff60c01b1617905560225460405191168152a1005b60405162461bcd60e51b815260206004820152600c60248201526b125b9cdd59999a58da595b9d60a21b6044820152606490fd5b34610ce9576020366003190112610ce9576004356005811015610ce957601101546040516001600160a01b039091168152602090f35b34610ce9576020366003190112610ce9576001600160a01b036127d9614a52565b165f526010602052602060ff60405f2054166040519015158152f35b34610ce9576020366003190112610ce95760e06001600160401b0380612819614b30565b165f52602160205260ff60405f208054926001600160801b0360026001840154930154928160405196848116885260401c166020870152818116604087015260801c6060860152821660808501528160801c1660a084015260c01c16151560c0820152f35b34610ce9576020366003190112610ce9576004355f526027602052602060ff60405f2054166040519015158152f35b34610ce9576020366003190112610ce9576101606001600160a01b03806128d2614a52565b165f52600f60205260405f2090815416906001810154906001600160801b036001600160401b039060ff6002840154838260046003880154970154169660405198895284811660208a0152838160801c1660408a015260881c1660608801528381166080880152838160401c1660a088015260801c1660c0860152821660e08501528160801c1661010084015260c01c6101208301521515610140820152f35b34610ce9576020366003190112610ce95761298b614a52565b5f546001600160a01b039190821633148015612b1a575b6129ab9061506f565b16805f52600f60205260405f2060048101906129ca60ff8354166150ac565b60ff600282016129fc6129e283835460801c16614fe7565b825460ff60801b191660809190911b60ff60801b16178255565b5460801c1660028110612b12576019925b600183019160038354946001600160801b039485612a3d606482612a34818c169c8d615025565b1604809a614e9f565b166001600160801b031997881617905501805491908483166103e8811115612b06576103e7190192858411610c565786866003955b1691161790551015612abc575b50612a8f60265493828516614e84565b169116176026557f5470b8ece6d890d8e43d24f952e3f09db58f48c15c5f2039537b8b1f322d23cd5f80a2005b60ff1990818154169055845f526010602052600160405f2091825416179055837f8d755620a3983e6fcaff02384351c3cf493670d9a6f00169bf4bc2d09f7475be5f80a284612a7f565b5060039286865f612a72565b600a92612a0d565b506129ab612b2733615163565b90506129a2565b5f366003190112610ce9576026546001600160801b03612b52348216838316614e84565b6001600160801b0319909216911617602655005b34610ce9576020366003190112610ce9576004355f52601c602052602060ff60405f2054166040519015158152f35b34610ce9576080366003190112610ce957612bae614a52565b6024356001600160401b038116808203610ce957612bca614b46565b91606435926001600160801b03948585168503610ce95761113a612c38600294612bfe60018060a01b035f54163314614d1f565b60405160609490941b6001600160601b0319166020850190815260c09190911b6001600160c01b031916603485015292918290603c820190565b51902092835f52602360205260405f209384549487612c5985828916614e84565b166001600160801b03198097161790555f52602460205260405f2080548588612c8489828516614e84565b1691161790555f526021602052612ccb60405f2091612cab6001840191825460801c614e84565b81546001600160801b031660809190911b6001600160801b031916179055565b0192612cdb845493828516614e84565b1691161790555f80f35b34610ce957602080600319360112610ce957612cff614b30565b6040513360601b6001600160601b03191681840190815260c083901b6001600160c01b031916601482015291929190612d3b81601c840161113a565b51902091825f526025825260ff60405f205416612ee4576001600160401b038091165f526021825260405f20805491821615612eb457612dd790845f52602384526001600160801b03928360405f205416602486528460405f2054165f92600185015492878460801c9283151580612eab575b612e8b575b509150508060025f960154169283151580612e82575b612e60575b50505050614e84565b16918215612e2f575f80612e089460258295839584525260408220600160ff19825416179055335af1610589614eb8565b337fea61a2a22523394f29506de20cc9db2e881f096477982d51012058ec9032714a5f80a2005b60405162461bcd60e51b8152600481018390526009602482015268139bc81c995dd85c9960ba1b6044820152606490fd5b612e7894955090612e7392911690615025565b615043565b9086808581612dce565b50821515612dc9565b612ea194965090612e73929160401c1690615025565b9188808781612db3565b50821515612dae565b60405162461bcd60e51b815260048101849052600860248201526709cde40cae0dec6d60c31b6044820152606490fd5b60405162461bcd60e51b815260048101839052600f60248201526e105b1c9958591e4818db185a5b5959608a1b6044820152606490fd5b34610ce9576020366003190112610ce9576004355f526019602052602060ff60405f205416604051908152f35b34610ce9576020366003190112610ce957600a5460043590336001600160a01b0391821614908115613064575b8115613056575b501561302257805f526002602052600760405f2001805460ff8160401c168015908115613017575b5015612fe45760ff60401b1916680400000000000000001790557f0c8bf601915d1f39ef591226bc69b3becc23fcb3616673c419062aa44beb42da5f80a2005b60405162461bcd60e51b815260206004820152600b60248201526a43616e6e6f74207665746f60a81b6044820152606490fd5b600191501484612fa4565b60405162461bcd60e51b815260206004820152600c60248201526b2737ba1033bab0b93234b0b760a11b6044820152606490fd5b9050600c5416331482612f7c565b809150600b5416331490612f75565b34610ce9575f366003190112610ce9576020604051613a988152f35b34610ce9575f366003190112610ce957608060018060a01b0360ff81600a54169180600b541690600c549160405194855260208501528116604084015260a01c166060820152f35b34610ce9576020366003190112610ce9576004355f52602860205261012060405f2080549060018101546001600160401b039160028101548360036001600160801b039301549360405196875260018060a01b038116602088015260ff8160a01c16604088015260ff8160a81c16606088015260b01c16608086015281811660a086015260801c60c0850152811660e084015260801c16610100820152f35b34610ce9576040366003190112610ce957600435613192614a83565b815f52601b60205260405f20906005820160ff6131b28183541615614fa7565b6001840154336001600160a01b0391821614908115613394575b8115613384575b501561335057806131f4600292851660018110159081613344575b50614f69565b60408051602081018881523360601b6001600160601b03191692820192909252613221816054810161113a565b519020805f52601c60205261323c8260405f20541615614e48565b5f52601c6020526132f284600460405f209760ff199860018a82541617905561328b6003820161327187825460a01c16614fe7565b815460ff60a01b191660a09190911b60ff60a01b16179055565b016132c56132998383614ff8565b8192915490876132af81848460031b1c16614fe7565b16919060ff809160031b9316831b921b19161790565b905533897fc1a68409b147b9ff15e83543c7963d151c009b8065d5e84b69728ce3389acb035f80a3614ff8565b90549060031b1c16101561330257005b805461ff001993166001179290921660089190911b61ff00161790557f013aa7c30259518765cad3f3d03676a3c0b543b5dd889be5c75f1ef81171b2475f80a2005b600491501115886131ee565b60405162461bcd60e51b815260206004820152600c60248201526b139bdd081bdb881c185b995b60a21b6044820152606490fd5b90506003850154163314866131d3565b8091506002860154163314906131cc565b34610ce9576020366003190112610ce9575f6101806040516133c681614c7e565b8281528260208201528260408201528260608201528260808201528260a08201528260c08201528260e08201528261010082015282610120820152826101408201528261016082015201526004355f5260026020526101a060405f2060ff61018060405161343381614c7e565b82600785549586845282600182015460018060a01b038116602087015260a01c166040850152600281015460608501526001600160801b036003820154166080850152600481015460a085015260058101546001600160801b03811660c086015260801c60e085015260068101546001600160801b0381166101008601526001600160401b038160801c1661012086015260c01c61014085015201546001600160401b03811661016084015260401c168282015260405193845260018060a01b036020820151166020850152826040820151166040850152606081015160608501526001600160801b03608082015116608085015260a081015160a08501526001600160801b0360c08201511660c08501526001600160801b0360e08201511660e08501526001600160801b03610100820151166101008501526001600160401b03610120820151166101208501526001600160401b03610140820151166101408501526001600160401b0361016082015116610160850152015116610180820152f35b34610ce9575f366003190112610ce9576020604051670de0b6b3a76400008152f35b602080600319360112610ce9576004356135f960ff5f5460a01c16614bd0565b61360760ff83541615614f34565b5f818152600283526040812060018101549193916001600160a01b0316156138385760068161364360ff600761365095015460401c16156150ac565b015460c01c421115614dd5565b66038d7ea4c680003410613809576040518181018381523360601b6001600160601b031916602082015290613688816034840161113a565b519020805f52600482526136a360ff60405f20541615614e48565b805f526004825260405f20600160ff1982541617905561370a6001600160801b0380341690335f526008855260405f208054916136e284828516614e84565b166001600160801b0319809316179055835f52600985528160405f209182541617905561559a565b906137148261522b565b73ea30c4b8b44078bbf8a6ef5b9f1ec1626c7848d9803b15610ce957604051631974142760e21b815260048101849052336024820152905f908290604490829084905af1801561152b576137f6575b50845260058252806040852055835f146137c85761378d6006918486528284526040862054615377565b916137978361522b565b8385525260408320555b7faa1c368ec955231333de5b5e0f09d0b2c72d83a2361a709edd03fb3636bd69d7339280a3005b6137de600791845f5282845260405f2054615377565b916137e88361522b565b835f525260405f20556137a1565b613801919550614c9a565b5f9385613763565b6064906040519062461bcd60e51b8252600482015260086024820152674d696e20766f746560c01b6044820152fd5b60405162461bcd60e51b8152600481018390526009602482015268139bdd08199bdd5b9960ba1b6044820152606490fd5b34610ce9576020366003190112610ce9575f61010060405161388a81614c62565b8281528260208201528260408201528260608201528260808201526040516138b181614cad565b60a036823760a08201528260c08201528260e082015201526004355f52601b60205260405f20604051906138e482614c62565b805482526001600160401b03600560019260018060a01b03600182015416602086015260018060a01b03600282015416604086015260ff600382015460018060a01b038116606088015260a01c16608086015260405160ff60048301548181168352818160081c166020840152818160101c166040840152818160181c16606084015260201c16608082015261397981614cad565b60a0860152015460ff8116151560c085015260ff8160081c1660e085015260101c16610100830152604051908251825260018060a01b03602084015116602083015260018060a01b03604084015116604083015260018060a01b03606084015116606083015260ff608084015116608083015260a083015160a083015f905b60058210613a36576101a0856001600160401b036101008960c0810151151561014085015260ff60e082015116610160850152015116610180820152f35b825160ff16815260209283019291840191016139f8565b34610ce957602080600319360112610ce957600435805f526002825260405f2060ff600782015460401c161590811591613b8d575b5015613b59576040518281019182523360601b6001600160601b0319166020830152613ab1816034840161113a565b51902090815f52600981526001600160801b038060405f205416928315613b23575f61001a94819482948394845260098252600860408520926001600160801b031993848154169055338652526040842091825491613b1285828516614e9f565b169116179055335af1610589614eb8565b60405162461bcd60e51b815260048101849052600e60248201526d139bdd1a1a5b99c81b1bd8dad95960921b6044820152606490fd5b60405162461bcd60e51b815260048101839052600c60248201526b5374696c6c2061637469766560a01b6044820152606490fd5b60069150015460c01c421183613a82565b6040366003190112610ce957600435613bb5614a83565b613bc560ff5f5460a01c16614bd0565b662386f26fc100003410613dcb5760ff16600181101580613dc0575b613bea90614f69565b815f52602860205260ff600160405f20015460a81c16613d87576001600160401b036001600160801b039160405192613c2284614c62565b8484526020840190338252604085019283526060850194600186526080810192854216845260a0820190833416825260c08301945f865260e08401985f8a526101008501975f89528b5f52602860205260405f20955186556001860193600160a01b600190039051166001600160601b0360a01b8554161784555160ff16613cc090849081549060ff60a01b9060a01b169060ff60a01b1916179055565b518254915168ffffffffffffffffff60a81b1990921660a89190911b60ff60a81b161760b09190911b67ffffffffffffffff60b01b161790555192516001600160801b039383169390931692821660801b6001600160801b0319908116939093176002820155945160039095018054935167ffffffffffffffff60801b951660801b94909416941691161767ffffffffffffffff60801b191691909117905533907f7404806e336c5d4c6550cd2195bb0429b2ca22dad17554554704a37e8a2d73475f80a3005b60405162461bcd60e51b8152602060048201526011602482015270105b1c9958591e48195cd8d85b185d1959607a1b6044820152606490fd5b506004811115613be1565b60405162461bcd60e51b8152602060048201526008602482015267135a5b88189bdb9960c21b6044820152606490fd5b602080600319360112610ce957600435613e1b60ff5f5460a01c16614bd0565b613e2960ff83541615614f34565b5f818152600283526040812060018101549193916001600160a01b0316156138385760068161364360ff6007613e6595015460401c16156150ac565b66038d7ea4c680003410613809576040518181018381523360601b6001600160601b031916602082015290613e9d816034840161113a565b519020805f5260048252613eb860ff60405f20541615614e48565b805f526004825260405f20600160ff19825416179055613ef76001600160801b0380341690335f526008855260405f208054916136e284828516614e84565b90613f018261522b565b73ea30c4b8b44078bbf8a6ef5b9f1ec1626c7848d9803b15610ce957604051631974142760e21b815260048101849052336024820152905f908290604490829084905af1801561152b57613f74575b5060069161378d918652600584528060408720558486528284526040862054615377565b61378d91955091613f86600693614c9a565b5f95915091613f50565b34610ce9576020366003190112610ce9576004355f5260026020526101a060405f2060ff81549160018101549060028101546001600160801b038060038401541660048401546005850154916006860154948860076001600160401b03980154986040519b8c5260018060a01b03811660208d015260a01c1660408b015260608a0152608089015260a088015281811660c088015260801c60e08701528116610100860152818160801c1661012086015260c01c610140850152811661016084015260401c16610180820152f35b34610ce957602080600319360112610ce957614078614a52565b604051828101906140ab8161113a853386906028926001600160601b0319809260601b16835260601b1660148201520190565b51902090815f52600d83526001600160801b038060405f20541692831561413c575f614115948194829483948452600d8952600e60408520926001600160801b03199384815416905560018060a01b0316998a8652526040842091825491613b1285828516614e9f565b337fd34d27e61da1c0024d36fb461da2b2cc55f26de3975c87a55e96d835f66746295f80a3005b60405162461bcd60e51b815260048101869052600d60248201526c2737903232b632b3b0ba34b7b760991b6044820152606490fd5b34610ce9575f366003190112610ce95760206001600160801b0360265416604051908152f35b6040366003190112610ce9576004356141ae614a93565b6141be60ff5f5460a01c16614bd0565b815f52602860205260405f20906141e1600260ff600185015460a81c1614614d91565b600382016141fe6001600160401b03825460801c16421115614dd5565b614209341515614e11565b60408051602081018681523360601b6001600160601b03191692820192909252614236816054810161113a565b519020805f52602960205261425260ff60405f20541615614e48565b5f52602960205260405f20600160ff198254161790556001600160801b039182341692602a60205260405f20916001600160801b03199285848254161790555f146142d757505050612cab60026142af930191825460801c614e84565b33907f22a5a5d460cd4ce1243126db20b92ed4dcc3af7df8ebe099103571036e0986625f80a3005b909193506142e9845493828516614e84565b1691161790556142af565b34610ce9575f366003190112610ce957602060405160068152f35b34610ce9575f366003190112610ce95760206040516703782dace9d900008152f35b34610ce9575f366003190112610ce9576020604051600a8152f35b34610ce9576040366003190112610ce95760ff614367614a83565b61437b60018060a01b035f54163314614d1f565b166001811015806143ac575b61439090614d5b565b6004355f52601d60205260405f209060ff198254161790555f80f35b506004811115614387565b34610ce9576080366003190112610ce9576004356143d3614a10565b906143dc614a26565b6143e4614a3c565b5f546001600160a01b039485916143fe9083163314614d1f565b1691825f52602094600f865260ff9182600460405f200154161561467757811692835f52600f875282600460405f200154161561464257811695865f52600f815282600460405f200154161561460e576040516001600160401b03949060a08101868111828210176116a6576040525f81528281015f9052604081015f9052606081015f9052608081015f9052604051986144988a614c62565b888a52838a0197885260408a0192835260608a019081528560808b015f815260a08c0193845260c08c01995f8b5260e08d01978d5f8a52610100019a42168b528c5f52601b885260405f20809e5190558d6001978260018301945116936001600160601b0360a01b9485825416179055826002830191511684825416179055600301945116908454161783555116614545919081549060ff60a01b9060a01b169060ff60a01b1916179055565b51905f925f905b600582106145e0575050505090614580600588614596959460048201550195511515869060ff801983541691151516179055565b51845461ff001916911660081b61ff0016178355565b5169ffffffffffffffff000082549160101b169069ffffffffffffffff000019161790557f317c20f4fd3ae996fa6263bc4cea1a7f7fd8c56d78322f8b5d9ffe999cd88d2e5f80a2005b9091816146038596858a85985116919060ff809160031b9316831b921b19161790565b95019392019061454c565b6064906040519062461bcd60e51b82526004820152600d60248201526c5233206e6f742061637469766560981b6044820152fd5b60405162461bcd60e51b815260048101889052600d60248201526c5232206e6f742061637469766560981b6044820152606490fd5b60405162461bcd60e51b815260048101889052600d60248201526c5231206e6f742061637469766560981b6044820152606490fd5b34610ce9575f366003190112610ce957602060ff5f5460a01c166040519015158152f35b34610ce9575f366003190112610ce957602060ff8154166040519015158152f35b5f366003190112610ce95761470c60ff5f5460a01c16614bd0565b61471f66b1a2bc2ec50000341015614c0e565b335f52601060205260ff60405f2054166149be57335f52600f60205260ff600460405f200154166149845761495d6001600160401b0342166040519061476482614c46565b3382526001600160801b0334166020830152600160408301525f60608301525f60808301525f60a08301525f60c083015261271060e0830152806101008301526101208201526001610140820152335f52600f602052600461014060405f209260018060a01b038151166001600160601b0360a01b8554161784556149466001850161485d6001600160801b03602085015116916001600160801b0319928382541617815561483060ff604087015116829081549060ff60801b9060801b169060ff60801b1916179055565b6060850151815467ffffffffffffffff60881b191660889190911b67ffffffffffffffff60881b16179055565b6148da600287016001600160401b036080860151166001600160401b03198254161781556148bb6001600160401b0360a087015116829067ffffffffffffffff60401b82549160401b169067ffffffffffffffff60401b1916179055565b60c0850151815460ff60801b191660809190911b60ff60801b16179055565b60e083015160038701805461010086015167ffffffffffffffff60801b60809190911b166001600160801b03909316931667ffffffffffffffff60801b19169290921717815561012083015181546001600160c01b031660c09190911b6001600160c01b031916179055565b0151151591019060ff801983541691151516179055565b337f98001b7b95ed55614b92b5d7d45b27a8501ff2f5e45752f656d1a6725adeba455f80a2005b60405162461bcd60e51b8152602060048201526012602482015271105b1c9958591e481c9959da5cdd195c995960721b6044820152606490fd5b60405162461bcd60e51b815260206004820152600b60248201526a109b1858dadb1a5cdd195960aa1b6044820152606490fd5b34610ce9575f366003190112610ce9578066038d7ea4c6800060209252f35b602435906001600160a01b0382168203610ce957565b604435906001600160a01b0382168203610ce957565b606435906001600160a01b0382168203610ce957565b600435906001600160a01b0382168203610ce957565b34610ce9575f366003190112610ce957602060405160038152f35b6024359060ff82168203610ce957565b602435908115158203610ce957565b34610ce9575f366003190112610ce95760206040516203f4808152f35b34610ce9575f366003190112610ce957602060405160028152f35b34610ce9575f366003190112610ce957602060405160018152f35b34610ce9575f366003190112610ce95760206040515f8152f35b34610ce9575f366003190112610ce957602060405166b1a2bc2ec500008152f35b600435906001600160401b0382168203610ce957565b604435906001600160801b0382168203610ce957565b600435906001600160801b0382168203610ce957565b34610ce9575f366003190112610ce9576020604051662386f26fc100008152f35b34610ce9575f366003190112610ce957602060405160048152f35b34610ce9575f366003190112610ce95760206040516706f05b59d3b200008152f35b15614bd757565b60405162461bcd60e51b815260206004820152600f60248201526e139bdd081a5b9a5d1a585b1a5e9959608a1b6044820152606490fd5b15614c1557565b60405162461bcd60e51b81526020600482015260096024820152684d696e207374616b6560b81b6044820152606490fd5b61016081019081106001600160401b038211176116a657604052565b61012081019081106001600160401b038211176116a657604052565b6101a081019081106001600160401b038211176116a657604052565b6001600160401b0381116116a657604052565b60a081019081106001600160401b038211176116a657604052565b602081019081106001600160401b038211176116a657604052565b608081019081106001600160401b038211176116a657604052565b90601f801991011681019081106001600160401b038211176116a657604052565b15614d2657565b60405162461bcd60e51b815260206004820152600d60248201526c27b7363c903232b83637bcb2b960991b6044820152606490fd5b15614d6257565b60405162461bcd60e51b8152602060048201526007602482015266125b9d985b1a5960ca1b6044820152606490fd5b15614d9857565b60405162461bcd60e51b81526020600482015260156024820152744e6f7420696e20636f6d6d756e69747920766f746560581b6044820152606490fd5b15614ddc57565b60405162461bcd60e51b815260206004820152600d60248201526c159bdd1a5b99c818db1bdcd959609a1b6044820152606490fd5b15614e1857565b60405162461bcd60e51b81526020600482015260086024820152674e6f2076616c756560c01b6044820152606490fd5b15614e4f57565b60405162461bcd60e51b815260206004820152600d60248201526c105b1c9958591e481d9bdd1959609a1b6044820152606490fd5b9190916001600160801b0380809416911601918211610c5657565b6001600160801b039182169082160391908211610c5657565b3d15614ef1573d906001600160401b0382116116a65760405191614ee6601f8201601f191660200184614cfe565b82523d5f602084013e565b606090565b15614efd57565b60405162461bcd60e51b815260206004820152600f60248201526e151c985b9cd9995c8819985a5b1959608a1b6044820152606490fd5b15614f3b57565b60405162461bcd60e51b815260206004820152600660248201526514185d5cd95960d21b6044820152606490fd5b15614f7057565b60405162461bcd60e51b815260206004820152600f60248201526e496e76616c6964206f7574636f6d6560881b6044820152606490fd5b15614fae57565b60405162461bcd60e51b8152602060048201526011602482015270105b1c9958591e48199a5b985b1a5e9959607a1b6044820152606490fd5b60ff1660ff8114610c565760010190565b919091600583101561501157601f908360051c01921690565b634e487b7160e01b5f52603260045260245ffd5b9190916001600160801b0380809416911602918216918203610c5657565b906001600160801b0380911691821561505b57160490565b634e487b7160e01b5f52601260045260245ffd5b1561507657565b60405162461bcd60e51b815260206004820152600e60248201526d139bdd08185d5d1a1bdc9a5e995960921b6044820152606490fd5b156150b357565b60405162461bcd60e51b815260206004820152600a6024820152694e6f742061637469766560b01b6044820152606490fd5b6001600160401b03809116908114610c565760010190565b906203f4806001600160401b0380931601918211610c5657565b1561511e57565b60405162461bcd60e51b815260206004820152600b60248201526a2b37ba34b7339037b832b760a91b6044820152606490fd5b60ff60019116019060ff8211610c5657565b600a546001600160a01b039182169082168114918215615193575b821561518957505090565b600c541614919050565b600b5481168214925061517e565b60ff166001811461521e5760028114615211576003811461520457600481146151f757600581146151eb576006146151df57670de0b6b3a764000090565b6706f05b59d3b2000090565b5066b1a2bc2ec5000090565b506703782dace9d9000090565b50670de0b6b3a764000090565b506706f05b59d3b2000090565b5067016345785d8a000090565b73ea30c4b8b44078bbf8a6ef5b9f1ec1626c7848d9803b15610ce957604051631974142760e21b815260048101929092523060248301525f908290604490829084905af1801561152b5761527c5750565b61528590614c9a565b565b90604080519263458693c960e01b84526004840152808360248173ea30c4b8b44078bbf8a6ef5b9f1ec1626c7848d95afa92831561531d575f915f946152d7575b50506001600160801b03169190565b8194508092503d8311615316575b6152ef8183614cfe565b81010312610ce95760208251920151918215158303610ce9576001600160801b035f6152c8565b503d6152e5565b50513d5f823e3d90fd5b5f60ff9160ff60165416915b828482161061534457505050505f90565b60058110156150115760118101546001600160a01b0383811691161461536e576001018316615333565b50505050600190565b801561548f575b811561547f575b604091825191606083018381106001600160401b038211176116a657845260028352833660208501376153b7836155cc565b526153c1826155d9565b5260206154098351926153d384614cc8565b5f845261541b85519485938493631888debd60e01b8552600660048601526008602486015260806044860152608485019061549d565b8381036003190160648501529061549d565b03815f73ea30c4b8b44078bbf8a6ef5b9f1ec1626c7848d95af191821561547657505f91615447575090565b90506020813d60201161546e575b8161546260209383614cfe565b81010312610ce9575190565b3d9150615455565b513d5f823e3d90fd5b9050615489615506565b90615385565b50615498615506565b61537e565b9081518082526020808093019301915f5b8281106154bc575050505090565b8351855293810193928101926001016154ae565b90916154f56155039360068452601a602085015260806040850152608084019061549d565b91606081840391015261549d565b90565b61556f602060405161551781614cc8565b5f81526040519061552782614ce3565b60038252606036848401375f61553c836155cc565b526006615548836155d9565b525f615553836155e9565b52604051631888debd60e01b81529384928392600484016154d0565b03815f73ea30c4b8b44078bbf8a6ef5b9f1ec1626c7848d95af190811561152b575f91615447575090565b602061556f916040516155ac81614cc8565b5f8152604051916155bc83614ce3565b600383526060368585013761553c835b8051156150115760200190565b8051600110156150115760400190565b805160021015615011576060019056fe879e083a73f2b483a12d85d717cb83bb77cd04c1b94908ffc732d72fa87996e5a2646970667358221220f3da93df1cae4ca5d97ec460ff406f77187f908032fdecc4b3490548f68a9f6564736f6c63430008190033",
  "linkReferences": {},
  "deployedLinkReferences": {}
}