{
  "_format": "hh-sol-artifact-1",
  "contractName": "FhenixGovernance",
  "sourceName": "contracts/FhenixGovernance.sol",
  "abi": [
    {
      "inputs": [],
      "stateMutability": "nonpayable",
      "type": "constructor"
    },
    {
      "inputs": [
        {
          "internalType": "int32",
          "name": "value",
          "type": "int32"
        }
      ],
      "name": "SecurityZoneOutOfBounds",
      "type": "error"
    },
    {
      "anonymous": false,
      "inputs": [
        {
          "indexed": true,
          "internalType": "address",
          "name": "delegator",
          "type": "address"
        },
        {
          "indexed": true,
          "internalType": "address",
          "name": "delegate",
          "type": "address"
        }
      ],
      "name": "DelegationCreated",
      "type": "event"
    },
    {
      "anonymous": false,
      "inputs": [
        {
          "indexed": true,
          "internalType": "address",
          "name": "delegator",
          "type": "address"
        },
        {
          "indexed": true,
          "internalType": "address",
          "name": "delegate",
          "type": "address"
        }
      ],
      "name": "DelegationRemoved",
      "type": "event"
    },
    {
      "anonymous": false,
      "inputs": [
        {
          "indexed": true,
          "internalType": "bytes32",
          "name": "marketId",
          "type": "bytes32"
        }
      ],
      "name": "EscalatedToCommunity",
      "type": "event"
    },
    {
      "anonymous": false,
      "inputs": [
        {
          "indexed": true,
          "internalType": "bytes32",
          "name": "marketId",
          "type": "bytes32"
        },
        {
          "indexed": true,
          "internalType": "address",
          "name": "initiator",
          "type": "address"
        }
      ],
      "name": "EscalationInitiated",
      "type": "event"
    },
    {
      "anonymous": false,
      "inputs": [
        {
          "indexed": true,
          "internalType": "bytes32",
          "name": "marketId",
          "type": "bytes32"
        }
      ],
      "name": "EscalationResolved",
      "type": "event"
    },
    {
      "anonymous": false,
      "inputs": [
        {
          "indexed": true,
          "internalType": "bytes32",
          "name": "marketId",
          "type": "bytes32"
        },
        {
          "indexed": true,
          "internalType": "address",
          "name": "voter",
          "type": "address"
        }
      ],
      "name": "EscalationVoteCast",
      "type": "event"
    },
    {
      "anonymous": false,
      "inputs": [
        {
          "indexed": false,
          "internalType": "address",
          "name": "guardian1",
          "type": "address"
        },
        {
          "indexed": false,
          "internalType": "address",
          "name": "guardian2",
          "type": "address"
        },
        {
          "indexed": false,
          "internalType": "address",
          "name": "guardian3",
          "type": "address"
        }
      ],
      "name": "GovernanceInitialized",
      "type": "event"
    },
    {
      "anonymous": false,
      "inputs": [
        {
          "indexed": true,
          "internalType": "bytes32",
          "name": "marketId",
          "type": "bytes32"
        }
      ],
      "name": "PanelAssigned",
      "type": "event"
    },
    {
      "anonymous": false,
      "inputs": [
        {
          "indexed": true,
          "internalType": "bytes32",
          "name": "marketId",
          "type": "bytes32"
        }
      ],
      "name": "PanelFinalized",
      "type": "event"
    },
    {
      "anonymous": false,
      "inputs": [
        {
          "indexed": true,
          "internalType": "bytes32",
          "name": "marketId",
          "type": "bytes32"
        },
        {
          "indexed": true,
          "internalType": "address",
          "name": "resolver",
          "type": "address"
        }
      ],
      "name": "PanelVoteSubmitted",
      "type": "event"
    },
    {
      "anonymous": false,
      "inputs": [
        {
          "indexed": true,
          "internalType": "bytes32",
          "name": "proposalId",
          "type": "bytes32"
        },
        {
          "indexed": false,
          "internalType": "address",
          "name": "proposer",
          "type": "address"
        },
        {
          "indexed": false,
          "internalType": "uint8",
          "name": "proposalType",
          "type": "uint8"
        }
      ],
      "name": "ProposalCreated",
      "type": "event"
    },
    {
      "anonymous": false,
      "inputs": [
        {
          "indexed": true,
          "internalType": "bytes32",
          "name": "proposalId",
          "type": "bytes32"
        }
      ],
      "name": "ProposalDecryptionRequested",
      "type": "event"
    },
    {
      "anonymous": false,
      "inputs": [
        {
          "indexed": true,
          "internalType": "bytes32",
          "name": "proposalId",
          "type": "bytes32"
        }
      ],
      "name": "ProposalExecuted",
      "type": "event"
    },
    {
      "anonymous": false,
      "inputs": [
        {
          "indexed": true,
          "internalType": "bytes32",
          "name": "proposalId",
          "type": "bytes32"
        }
      ],
      "name": "ProposalVetoed",
      "type": "event"
    },
    {
      "anonymous": false,
      "inputs": [
        {
          "indexed": true,
          "internalType": "address",
          "name": "resolver",
          "type": "address"
        }
      ],
      "name": "ResolverBlacklisted",
      "type": "event"
    },
    {
      "anonymous": false,
      "inputs": [
        {
          "indexed": true,
          "internalType": "address",
          "name": "resolver",
          "type": "address"
        }
      ],
      "name": "ResolverRegistered",
      "type": "event"
    },
    {
      "anonymous": false,
      "inputs": [
        {
          "indexed": true,
          "internalType": "address",
          "name": "resolver",
          "type": "address"
        }
      ],
      "name": "ResolverSlashed",
      "type": "event"
    },
    {
      "anonymous": false,
      "inputs": [
        {
          "indexed": true,
          "internalType": "address",
          "name": "resolver",
          "type": "address"
        },
        {
          "indexed": false,
          "internalType": "uint8",
          "name": "newTier",
          "type": "uint8"
        }
      ],
      "name": "ResolverTierUpgraded",
      "type": "event"
    },
    {
      "anonymous": false,
      "inputs": [
        {
          "indexed": true,
          "internalType": "address",
          "name": "resolver",
          "type": "address"
        }
      ],
      "name": "ResolverUnstaked",
      "type": "event"
    },
    {
      "anonymous": false,
      "inputs": [
        {
          "indexed": true,
          "internalType": "address",
          "name": "user",
          "type": "address"
        }
      ],
      "name": "RewardClaimed",
      "type": "event"
    },
    {
      "anonymous": false,
      "inputs": [
        {
          "indexed": false,
          "internalType": "uint64",
          "name": "epochId",
          "type": "uint64"
        }
      ],
      "name": "RewardEpochFunded",
      "type": "event"
    },
    {
      "anonymous": false,
      "inputs": [
        {
          "indexed": true,
          "internalType": "bytes32",
          "name": "proposalId",
          "type": "bytes32"
        },
        {
          "indexed": true,
          "internalType": "address",
          "name": "voter",
          "type": "address"
        }
      ],
      "name": "VoteCast",
      "type": "event"
    },
    {
      "anonymous": false,
      "inputs": [
        {
          "indexed": true,
          "internalType": "bytes32",
          "name": "proposalId",
          "type": "bytes32"
        },
        {
          "indexed": false,
          "internalType": "uint8",
          "name": "status",
          "type": "uint8"
        }
      ],
      "name": "VoteFinalized",
      "type": "event"
    },
    {
      "inputs": [],
      "name": "ESCALATION_BOND",
      "outputs": [
        {
          "internalType": "uint128",
          "name": "",
          "type": "uint128"
        }
      ],
      "stateMutability": "view",
      "type": "function"
    },
    {
      "inputs": [],
      "name": "ESCALATION_COMMUNITY",
      "outputs": [
        {
          "internalType": "uint8",
          "name": "",
          "type": "uint8"
        }
      ],
      "stateMutability": "view",
      "type": "function"
    },
    {
      "inputs": [],
      "name": "ESCALATION_INITIATED",
      "outputs": [
        {
          "internalType": "uint8",
          "name": "",
          "type": "uint8"
        }
      ],
      "stateMutability": "view",
      "type": "function"
    },
    {
      "inputs": [],
      "name": "ESCALATION_NONE",
      "outputs": [
        {
          "internalType": "uint8",
          "name": "",
          "type": "uint8"
        }
      ],
      "stateMutability": "view",
      "type": "function"
    },
    {
      "inputs": [],
      "name": "ESCALATION_RESOLVED",
      "outputs": [
        {
          "internalType": "uint8",
          "name": "",
          "type": "uint8"
        }
      ],
      "stateMutability": "view",
      "type": "function"
    },
    {
      "inputs": [],
      "name": "ESCALATION_WINDOW",
      "outputs": [
        {
          "internalType": "uint64",
          "name": "",
          "type": "uint64"
        }
      ],
      "stateMutability": "view",
      "type": "function"
    },
    {
      "inputs": [],
      "name": "GOLD_MARKETS_REQUIRED",
      "outputs": [
        {
          "internalType": "uint64",
          "name": "",
          "type": "uint64"
        }
      ],
      "stateMutability": "view",
      "type": "function"
    },
    {
      "inputs": [],
      "name": "GOLD_REPUTATION_MIN",
      "outputs": [
        {
          "internalType": "uint128",
          "name": "",
          "type": "uint128"
        }
      ],
      "stateMutability": "view",
      "type": "function"
    },
    {
      "inputs": [],
      "name": "MAX_STRIKES",
      "outputs": [
        {
          "internalType": "uint8",
          "name": "",
          "type": "uint8"
        }
      ],
      "stateMutability": "view",
      "type": "function"
    },
    {
      "inputs": [],
      "name": "MIN_PROPOSAL_STAKE",
      "outputs": [
        {
          "internalType": "uint128",
          "name": "",
          "type": "uint128"
        }
      ],
      "stateMutability": "view",
      "type": "function"
    },
    {
      "inputs": [],
      "name": "MIN_VOTE_AMOUNT",
      "outputs": [
        {
          "internalType": "uint128",
          "name": "",
          "type": "uint128"
        }
      ],
      "stateMutability": "view",
      "type": "function"
    },
    {
      "inputs": [],
      "name": "PANEL_MAJORITY",
      "outputs": [
        {
          "internalType": "uint8",
          "name": "",
          "type": "uint8"
        }
      ],
      "stateMutability": "view",
      "type": "function"
    },
    {
      "inputs": [],
      "name": "PANEL_SIZE",
      "outputs": [
        {
          "internalType": "uint8",
          "name": "",
          "type": "uint8"
        }
      ],
      "stateMutability": "view",
      "type": "function"
    },
    {
      "inputs": [],
      "name": "PROPOSAL_EMERGENCY_PAUSE",
      "outputs": [
        {
          "internalType": "uint8",
          "name": "",
          "type": "uint8"
        }
      ],
      "stateMutability": "view",
      "type": "function"
    },
    {
      "inputs": [],
      "name": "PROPOSAL_FEE_CHANGE",
      "outputs": [
        {
          "internalType": "uint8",
          "name": "",
          "type": "uint8"
        }
      ],
      "stateMutability": "view",
      "type": "function"
    },
    {
      "inputs": [],
      "name": "PROPOSAL_PARAMETER",
      "outputs": [
        {
          "internalType": "uint8",
          "name": "",
          "type": "uint8"
        }
      ],
      "stateMutability": "view",
      "type": "function"
    },
    {
      "inputs": [],
      "name": "PROPOSAL_RESOLVER_ELECTION",
      "outputs": [
        {
          "internalType": "uint8",
          "name": "",
          "type": "uint8"
        }
      ],
      "stateMutability": "view",
      "type": "function"
    },
    {
      "inputs": [],
      "name": "PROPOSAL_RESOLVE_DISPUTE",
      "outputs": [
        {
          "internalType": "uint8",
          "name": "",
          "type": "uint8"
        }
      ],
      "stateMutability": "view",
      "type": "function"
    },
    {
      "inputs": [],
      "name": "PROPOSAL_TREASURY",
      "outputs": [
        {
          "internalType": "uint8",
          "name": "",
          "type": "uint8"
        }
      ],
      "stateMutability": "view",
      "type": "function"
    },
    {
      "inputs": [],
      "name": "QUORUM_EMERGENCY",
      "outputs": [
        {
          "internalType": "uint128",
          "name": "",
          "type": "uint128"
        }
      ],
      "stateMutability": "view",
      "type": "function"
    },
    {
      "inputs": [],
      "name": "QUORUM_FEE",
      "outputs": [
        {
          "internalType": "uint128",
          "name": "",
          "type": "uint128"
        }
      ],
      "stateMutability": "view",
      "type": "function"
    },
    {
      "inputs": [],
      "name": "QUORUM_PARAMETER",
      "outputs": [
        {
          "internalType": "uint128",
          "name": "",
          "type": "uint128"
        }
      ],
      "stateMutability": "view",
      "type": "function"
    },
    {
      "inputs": [],
      "name": "QUORUM_RESOLVE",
      "outputs": [
        {
          "internalType": "uint128",
          "name": "",
          "type": "uint128"
        }
      ],
      "stateMutability": "view",
      "type": "function"
    },
    {
      "inputs": [],
      "name": "QUORUM_RESOLVER",
      "outputs": [
        {
          "internalType": "uint128",
          "name": "",
          "type": "uint128"
        }
      ],
      "stateMutability": "view",
      "type": "function"
    },
    {
      "inputs": [],
      "name": "QUORUM_TREASURY",
      "outputs": [
        {
          "internalType": "uint128",
          "name": "",
          "type": "uint128"
        }
      ],
      "stateMutability": "view",
      "type": "function"
    },
    {
      "inputs": [],
      "name": "RESOLVER_STAKE_BRONZE",
      "outputs": [
        {
          "internalType": "uint128",
          "name": "",
          "type": "uint128"
        }
      ],
      "stateMutability": "view",
      "type": "function"
    },
    {
      "inputs": [],
      "name": "SILVER_MARKETS_REQUIRED",
      "outputs": [
        {
          "internalType": "uint64",
          "name": "",
          "type": "uint64"
        }
      ],
      "stateMutability": "view",
      "type": "function"
    },
    {
      "inputs": [],
      "name": "SILVER_REPUTATION_MIN",
      "outputs": [
        {
          "internalType": "uint128",
          "name": "",
          "type": "uint128"
        }
      ],
      "stateMutability": "view",
      "type": "function"
    },
    {
      "inputs": [],
      "name": "SLASH_PERCENT_MAJOR",
      "outputs": [
        {
          "internalType": "uint128",
          "name": "",
          "type": "uint128"
        }
      ],
      "stateMutability": "view",
      "type": "function"
    },
    {
      "inputs": [],
      "name": "SLASH_PERCENT_MINOR",
      "outputs": [
        {
          "internalType": "uint128",
          "name": "",
          "type": "uint128"
        }
      ],
      "stateMutability": "view",
      "type": "function"
    },
    {
      "inputs": [],
      "name": "STATUS_ACTIVE",
      "outputs": [
        {
          "internalType": "uint8",
          "name": "",
          "type": "uint8"
        }
      ],
      "stateMutability": "view",
      "type": "function"
    },
    {
      "inputs": [],
      "name": "STATUS_EXECUTED",
      "outputs": [
        {
          "internalType": "uint8",
          "name": "",
          "type": "uint8"
        }
      ],
      "stateMutability": "view",
      "type": "function"
    },
    {
      "inputs": [],
      "name": "STATUS_PASSED",
      "outputs": [
        {
          "internalType": "uint8",
          "name": "",
          "type": "uint8"
        }
      ],
      "stateMutability": "view",
      "type": "function"
    },
    {
      "inputs": [],
      "name": "STATUS_REJECTED",
      "outputs": [
        {
          "internalType": "uint8",
          "name": "",
          "type": "uint8"
        }
      ],
      "stateMutability": "view",
      "type": "function"
    },
    {
      "inputs": [],
      "name": "STATUS_VETOED",
      "outputs": [
        {
          "internalType": "uint8",
          "name": "",
          "type": "uint8"
        }
      ],
      "stateMutability": "view",
      "type": "function"
    },
    {
      "inputs": [],
      "name": "TIER_BRONZE",
      "outputs": [
        {
          "internalType": "uint8",
          "name": "",
          "type": "uint8"
        }
      ],
      "stateMutability": "view",
      "type": "function"
    },
    {
      "inputs": [],
      "name": "TIER_COMMITTEE",
      "outputs": [
        {
          "internalType": "uint8",
          "name": "",
          "type": "uint8"
        }
      ],
      "stateMutability": "view",
      "type": "function"
    },
    {
      "inputs": [],
      "name": "TIER_GOLD",
      "outputs": [
        {
          "internalType": "uint8",
          "name": "",
          "type": "uint8"
        }
      ],
      "stateMutability": "view",
      "type": "function"
    },
    {
      "inputs": [],
      "name": "TIER_SILVER",
      "outputs": [
        {
          "internalType": "uint8",
          "name": "",
          "type": "uint8"
        }
      ],
      "stateMutability": "view",
      "type": "function"
    },
    {
      "inputs": [],
      "name": "TIMELOCK_LONG",
      "outputs": [
        {
          "internalType": "uint64",
          "name": "",
          "type": "uint64"
        }
      ],
      "stateMutability": "view",
      "type": "function"
    },
    {
      "inputs": [],
      "name": "TIMELOCK_STANDARD",
      "outputs": [
        {
          "internalType": "uint64",
          "name": "",
          "type": "uint64"
        }
      ],
      "stateMutability": "view",
      "type": "function"
    },
    {
      "inputs": [],
      "name": "VOTING_PERIOD",
      "outputs": [
        {
          "internalType": "uint64",
          "name": "",
          "type": "uint64"
        }
      ],
      "stateMutability": "view",
      "type": "function"
    },
    {
      "inputs": [
        {
          "internalType": "bytes32",
          "name": "",
          "type": "bytes32"
        }
      ],
      "name": "approvedResolvers",
      "outputs": [
        {
          "internalType": "bool",
          "name": "",
          "type": "bool"
        }
      ],
      "stateMutability": "view",
      "type": "function"
    },
    {
      "inputs": [
        {
          "internalType": "bytes32",
          "name": "marketId",
          "type": "bytes32"
        },
        {
          "internalType": "address",
          "name": "r1",
          "type": "address"
        },
        {
          "internalType": "address",
          "name": "r2",
          "type": "address"
        },
        {
          "internalType": "address",
          "name": "r3",
          "type": "address"
        }
      ],
      "name": "assignResolverPanel",
      "outputs": [],
      "stateMutability": "nonpayable",
      "type": "function"
    },
    {
      "inputs": [
        {
          "internalType": "address",
          "name": "resolver",
          "type": "address"
        }
      ],
      "name": "blacklistResolver",
      "outputs": [],
      "stateMutability": "nonpayable",
      "type": "function"
    },
    {
      "inputs": [
        {
          "internalType": "address",
          "name": "",
          "type": "address"
        }
      ],
      "name": "blacklistedResolvers",
      "outputs": [
        {
          "internalType": "bool",
          "name": "",
          "type": "bool"
        }
      ],
      "stateMutability": "view",
      "type": "function"
    },
    {
      "inputs": [
        {
          "internalType": "uint64",
          "name": "epochId",
          "type": "uint64"
        }
      ],
      "name": "claimReward",
      "outputs": [],
      "stateMutability": "nonpayable",
      "type": "function"
    },
    {
      "inputs": [
        {
          "internalType": "bytes32",
          "name": "",
          "type": "bytes32"
        }
      ],
      "name": "committeeDecision",
      "outputs": [
        {
          "internalType": "uint8",
          "name": "",
          "type": "uint8"
        }
      ],
      "stateMutability": "view",
      "type": "function"
    },
    {
      "inputs": [
        {
          "internalType": "bytes32",
          "name": "",
          "type": "bytes32"
        }
      ],
      "name": "committeeFinalized",
      "outputs": [
        {
          "internalType": "bool",
          "name": "",
          "type": "bool"
        }
      ],
      "stateMutability": "view",
      "type": "function"
    },
    {
      "inputs": [
        {
          "internalType": "uint256",
          "name": "",
          "type": "uint256"
        }
      ],
      "name": "committeeMembers",
      "outputs": [
        {
          "internalType": "address",
          "name": "",
          "type": "address"
        }
      ],
      "stateMutability": "view",
      "type": "function"
    },
    {
      "inputs": [
        {
          "internalType": "bytes32",
          "name": "",
          "type": "bytes32"
        }
      ],
      "name": "committeeOutcomeVotes",
      "outputs": [
        {
          "internalType": "uint8",
          "name": "",
          "type": "uint8"
        }
      ],
      "stateMutability": "view",
      "type": "function"
    },
    {
      "inputs": [],
      "name": "committeeSize",
      "outputs": [
        {
          "internalType": "uint8",
          "name": "",
          "type": "uint8"
        }
      ],
      "stateMutability": "view",
      "type": "function"
    },
    {
      "inputs": [
        {
          "internalType": "bytes32",
          "name": "marketId",
          "type": "bytes32"
        },
        {
          "internalType": "uint8",
          "name": "outcome",
          "type": "uint8"
        }
      ],
      "name": "committeeVoteResolve",
      "outputs": [],
      "stateMutability": "nonpayable",
      "type": "function"
    },
    {
      "inputs": [
        {
          "internalType": "bytes32",
          "name": "",
          "type": "bytes32"
        }
      ],
      "name": "committeeVoted",
      "outputs": [
        {
          "internalType": "bool",
          "name": "",
          "type": "bool"
        }
      ],
      "stateMutability": "view",
      "type": "function"
    },
    {
      "inputs": [
        {
          "internalType": "uint8",
          "name": "proposalType",
          "type": "uint8"
        },
        {
          "internalType": "bytes32",
          "name": "target",
          "type": "bytes32"
        },
        {
          "internalType": "uint128",
          "name": "payload1",
          "type": "uint128"
        },
        {
          "internalType": "bytes32",
          "name": "payload2",
          "type": "bytes32"
        }
      ],
      "name": "createProposal",
      "outputs": [
        {
          "internalType": "bytes32",
          "name": "",
          "type": "bytes32"
        }
      ],
      "stateMutability": "payable",
      "type": "function"
    },
    {
      "inputs": [],
      "name": "currentEpochId",
      "outputs": [
        {
          "internalType": "uint64",
          "name": "",
          "type": "uint64"
        }
      ],
      "stateMutability": "view",
      "type": "function"
    },
    {
      "inputs": [
        {
          "internalType": "bytes32",
          "name": "",
          "type": "bytes32"
        }
      ],
      "name": "decryptionRequested",
      "outputs": [
        {
          "internalType": "bool",
          "name": "",
          "type": "bool"
        }
      ],
      "stateMutability": "view",
      "type": "function"
    },
    {
      "inputs": [
        {
          "internalType": "address",
          "name": "delegate",
          "type": "address"
        }
      ],
      "name": "delegateVotes",
      "outputs": [],
      "stateMutability": "payable",
      "type": "function"
    },
    {
      "inputs": [],
      "name": "deployer",
      "outputs": [
        {
          "internalType": "address",
          "name": "",
          "type": "address"
        }
      ],
      "stateMutability": "view",
      "type": "function"
    },
    {
      "inputs": [],
      "name": "depositProtocolFees",
      "outputs": [],
      "stateMutability": "payable",
      "type": "function"
    },
    {
      "inputs": [
        {
          "internalType": "bytes32",
          "name": "marketId",
          "type": "bytes32"
        }
      ],
      "name": "escalateToCommunity",
      "outputs": [],
      "stateMutability": "nonpayable",
      "type": "function"
    },
    {
      "inputs": [
        {
          "internalType": "bytes32",
          "name": "",
          "type": "bytes32"
        }
      ],
      "name": "escalations",
      "outputs": [
        {
          "internalType": "bytes32",
          "name": "marketId",
          "type": "bytes32"
        },
        {
          "internalType": "address",
          "name": "initiator",
          "type": "address"
        },
        {
          "internalType": "uint8",
          "name": "proposedOutcome",
          "type": "uint8"
        },
        {
          "internalType": "uint8",
          "name": "status",
          "type": "uint8"
        },
        {
          "internalType": "uint64",
          "name": "initiatedAt",
          "type": "uint64"
        },
        {
          "internalType": "uint128",
          "name": "bondAmount",
          "type": "uint128"
        },
        {
          "internalType": "uint128",
          "name": "votesFor",
          "type": "uint128"
        },
        {
          "internalType": "uint128",
          "name": "votesAgainst",
          "type": "uint128"
        },
        {
          "internalType": "uint64",
          "name": "communityDeadline",
          "type": "uint64"
        }
      ],
      "stateMutability": "view",
      "type": "function"
    },
    {
      "inputs": [
        {
          "internalType": "bytes32",
          "name": "proposalId",
          "type": "bytes32"
        }
      ],
      "name": "executeGovernance",
      "outputs": [],
      "stateMutability": "nonpayable",
      "type": "function"
    },
    {
      "inputs": [
        {
          "internalType": "bytes32",
          "name": "marketId",
          "type": "bytes32"
        }
      ],
      "name": "finalizeCommitteeVote",
      "outputs": [],
      "stateMutability": "nonpayable",
      "type": "function"
    },
    {
      "inputs": [
        {
          "internalType": "bytes32",
          "name": "marketId",
          "type": "bytes32"
        }
      ],
      "name": "finalizeEscalation",
      "outputs": [],
      "stateMutability": "nonpayable",
      "type": "function"
    },
    {
      "inputs": [
        {
          "internalType": "bytes32",
          "name": "proposalId",
          "type": "bytes32"
        }
      ],
      "name": "finalizeVote",
      "outputs": [],
      "stateMutability": "nonpayable",
      "type": "function"
    },
    {
      "inputs": [
        {
          "internalType": "uint128",
          "name": "lpReward",
          "type": "uint128"
        },
        {
          "internalType": "uint128",
          "name": "traderReward",
          "type": "uint128"
        }
      ],
      "name": "fundRewardEpoch",
      "outputs": [],
      "stateMutability": "payable",
      "type": "function"
    },
    {
      "inputs": [
        {
          "internalType": "bytes32",
          "name": "marketId",
          "type": "bytes32"
        }
      ],
      "name": "getPanel",
      "outputs": [
        {
          "components": [
            {
              "internalType": "bytes32",
              "name": "marketId",
              "type": "bytes32"
            },
            {
              "internalType": "address",
              "name": "resolver1",
              "type": "address"
            },
            {
              "internalType": "address",
              "name": "resolver2",
              "type": "address"
            },
            {
              "internalType": "address",
              "name": "resolver3",
              "type": "address"
            },
            {
              "internalType": "uint8",
              "name": "votesSubmitted",
              "type": "uint8"
            },
            {
              "internalType": "uint8[5]",
              "name": "outcomeVotes",
              "type": "uint8[5]"
            },
            {
              "internalType": "bool",
              "name": "finalized",
              "type": "bool"
            },
            {
              "internalType": "uint8",
              "name": "winningOutcome",
              "type": "uint8"
            },
            {
              "internalType": "uint64",
              "name": "assignedAt",
              "type": "uint64"
            }
          ],
          "internalType": "struct FhenixGovernance.MultiResolverPanel",
          "name": "",
          "type": "tuple"
        }
      ],
      "stateMutability": "view",
      "type": "function"
    },
    {
      "inputs": [
        {
          "internalType": "bytes32",
          "name": "proposalId",
          "type": "bytes32"
        }
      ],
      "name": "getProposal",
      "outputs": [
        {
          "components": [
            {
              "internalType": "bytes32",
              "name": "id",
              "type": "bytes32"
            },
            {
              "internalType": "address",
              "name": "proposer",
              "type": "address"
            },
            {
              "internalType": "uint8",
              "name": "proposalType",
              "type": "uint8"
            },
            {
              "internalType": "bytes32",
              "name": "target",
              "type": "bytes32"
            },
            {
              "internalType": "uint128",
              "name": "payload1",
              "type": "uint128"
            },
            {
              "internalType": "bytes32",
              "name": "payload2",
              "type": "bytes32"
            },
            {
              "internalType": "uint128",
              "name": "votesFor",
              "type": "uint128"
            },
            {
              "internalType": "uint128",
              "name": "votesAgainst",
              "type": "uint128"
            },
            {
              "internalType": "uint128",
              "name": "quorumRequired",
              "type": "uint128"
            },
            {
              "internalType": "uint64",
              "name": "createdAt",
              "type": "uint64"
            },
            {
              "internalType": "uint64",
              "name": "votingDeadline",
              "type": "uint64"
            },
            {
              "internalType": "uint64",
              "name": "timelockUntil",
              "type": "uint64"
            },
            {
              "internalType": "uint8",
              "name": "status",
              "type": "uint8"
            }
          ],
          "internalType": "struct FhenixGovernance.Proposal",
          "name": "",
          "type": "tuple"
        }
      ],
      "stateMutability": "view",
      "type": "function"
    },
    {
      "inputs": [
        {
          "internalType": "address",
          "name": "resolver",
          "type": "address"
        }
      ],
      "name": "getResolverProfile",
      "outputs": [
        {
          "components": [
            {
              "internalType": "address",
              "name": "resolver",
              "type": "address"
            },
            {
              "internalType": "uint128",
              "name": "stakeAmount",
              "type": "uint128"
            },
            {
              "internalType": "uint8",
              "name": "tier",
              "type": "uint8"
            },
            {
              "internalType": "uint64",
              "name": "marketsResolved",
              "type": "uint64"
            },
            {
              "internalType": "uint64",
              "name": "disputesReceived",
              "type": "uint64"
            },
            {
              "internalType": "uint64",
              "name": "disputesLost",
              "type": "uint64"
            },
            {
              "internalType": "uint8",
              "name": "strikes",
              "type": "uint8"
            },
            {
              "internalType": "uint128",
              "name": "reputationScore",
              "type": "uint128"
            },
            {
              "internalType": "uint64",
              "name": "registeredAt",
              "type": "uint64"
            },
            {
              "internalType": "uint64",
              "name": "lastActiveAt",
              "type": "uint64"
            },
            {
              "internalType": "bool",
              "name": "isActive",
              "type": "bool"
            }
          ],
          "internalType": "struct FhenixGovernance.ResolverProfile",
          "name": "",
          "type": "tuple"
        }
      ],
      "stateMutability": "view",
      "type": "function"
    },
    {
      "inputs": [
        {
          "internalType": "bytes32",
          "name": "",
          "type": "bytes32"
        }
      ],
      "name": "governanceParams",
      "outputs": [
        {
          "internalType": "uint128",
          "name": "",
          "type": "uint128"
        }
      ],
      "stateMutability": "view",
      "type": "function"
    },
    {
      "inputs": [],
      "name": "governancePaused",
      "outputs": [
        {
          "internalType": "bool",
          "name": "",
          "type": "bool"
        }
      ],
      "stateMutability": "view",
      "type": "function"
    },
    {
      "inputs": [
        {
          "internalType": "bytes32",
          "name": "marketId",
          "type": "bytes32"
        },
        {
          "internalType": "uint8",
          "name": "winningOutcome",
          "type": "uint8"
        }
      ],
      "name": "governanceResolve",
      "outputs": [],
      "stateMutability": "nonpayable",
      "type": "function"
    },
    {
      "inputs": [
        {
          "internalType": "bytes32",
          "name": "",
          "type": "bytes32"
        }
      ],
      "name": "governanceResolvedOutcomes",
      "outputs": [
        {
          "internalType": "uint8",
          "name": "",
          "type": "uint8"
        }
      ],
      "stateMutability": "view",
      "type": "function"
    },
    {
      "inputs": [],
      "name": "guardians",
      "outputs": [
        {
          "internalType": "address",
          "name": "guardian1",
          "type": "address"
        },
        {
          "internalType": "address",
          "name": "guardian2",
          "type": "address"
        },
        {
          "internalType": "address",
          "name": "guardian3",
          "type": "address"
        },
        {
          "internalType": "uint8",
          "name": "threshold",
          "type": "uint8"
        }
      ],
      "stateMutability": "view",
      "type": "function"
    },
    {
      "inputs": [
        {
          "internalType": "address",
          "name": "guardian1",
          "type": "address"
        },
        {
          "internalType": "address",
          "name": "guardian2",
          "type": "address"
        },
        {
          "internalType": "address",
          "name": "guardian3",
          "type": "address"
        },
        {
          "internalType": "address",
          "name": "_marketsContract",
          "type": "address"
        }
      ],
      "name": "initGovernance",
      "outputs": [],
      "stateMutability": "nonpayable",
      "type": "function"
    },
    {
      "inputs": [],
      "name": "initialized",
      "outputs": [
        {
          "internalType": "bool",
          "name": "",
          "type": "bool"
        }
      ],
      "stateMutability": "view",
      "type": "function"
    },
    {
      "inputs": [
        {
          "internalType": "bytes32",
          "name": "marketId",
          "type": "bytes32"
        },
        {
          "internalType": "uint8",
          "name": "proposedOutcome",
          "type": "uint8"
        }
      ],
      "name": "initiateEscalation",
      "outputs": [],
      "stateMutability": "payable",
      "type": "function"
    },
    {
      "inputs": [],
      "name": "marketsContract",
      "outputs": [
        {
          "internalType": "contract IFhenixMarkets",
          "name": "",
          "type": "address"
        }
      ],
      "stateMutability": "view",
      "type": "function"
    },
    {
      "inputs": [
        {
          "internalType": "bytes32",
          "name": "marketId",
          "type": "bytes32"
        },
        {
          "internalType": "uint8",
          "name": "outcome",
          "type": "uint8"
        }
      ],
      "name": "panelVote",
      "outputs": [],
      "stateMutability": "nonpayable",
      "type": "function"
    },
    {
      "inputs": [
        {
          "internalType": "bytes32",
          "name": "",
          "type": "bytes32"
        }
      ],
      "name": "panelVoted",
      "outputs": [
        {
          "internalType": "bool",
          "name": "",
          "type": "bool"
        }
      ],
      "stateMutability": "view",
      "type": "function"
    },
    {
      "inputs": [],
      "name": "proposalCount",
      "outputs": [
        {
          "internalType": "uint256",
          "name": "",
          "type": "uint256"
        }
      ],
      "stateMutability": "view",
      "type": "function"
    },
    {
      "inputs": [
        {
          "internalType": "bytes32",
          "name": "",
          "type": "bytes32"
        }
      ],
      "name": "proposals",
      "outputs": [
        {
          "internalType": "bytes32",
          "name": "id",
          "type": "bytes32"
        },
        {
          "internalType": "address",
          "name": "proposer",
          "type": "address"
        },
        {
          "internalType": "uint8",
          "name": "proposalType",
          "type": "uint8"
        },
        {
          "internalType": "bytes32",
          "name": "target",
          "type": "bytes32"
        },
        {
          "internalType": "uint128",
          "name": "payload1",
          "type": "uint128"
        },
        {
          "internalType": "bytes32",
          "name": "payload2",
          "type": "bytes32"
        },
        {
          "internalType": "uint128",
          "name": "votesFor",
          "type": "uint128"
        },
        {
          "internalType": "uint128",
          "name": "votesAgainst",
          "type": "uint128"
        },
        {
          "internalType": "uint128",
          "name": "quorumRequired",
          "type": "uint128"
        },
        {
          "internalType": "uint64",
          "name": "createdAt",
          "type": "uint64"
        },
        {
          "internalType": "uint64",
          "name": "votingDeadline",
          "type": "uint64"
        },
        {
          "internalType": "uint64",
          "name": "timelockUntil",
          "type": "uint64"
        },
        {
          "internalType": "uint8",
          "name": "status",
          "type": "uint8"
        }
      ],
      "stateMutability": "view",
      "type": "function"
    },
    {
      "inputs": [
        {
          "internalType": "address",
          "name": "user",
          "type": "address"
        },
        {
          "internalType": "uint64",
          "name": "epochId",
          "type": "uint64"
        },
        {
          "internalType": "uint128",
          "name": "lpContribution",
          "type": "uint128"
        },
        {
          "internalType": "uint128",
          "name": "tradeVolume",
          "type": "uint128"
        }
      ],
      "name": "recordContribution",
      "outputs": [],
      "stateMutability": "nonpayable",
      "type": "function"
    },
    {
      "inputs": [],
      "name": "registerResolver",
      "outputs": [],
      "stateMutability": "payable",
      "type": "function"
    },
    {
      "inputs": [
        {
          "internalType": "bytes32",
          "name": "proposalId",
          "type": "bytes32"
        }
      ],
      "name": "requestVoteDecryption",
      "outputs": [],
      "stateMutability": "nonpayable",
      "type": "function"
    },
    {
      "inputs": [
        {
          "internalType": "bytes32",
          "name": "",
          "type": "bytes32"
        }
      ],
      "name": "resolverPanels",
      "outputs": [
        {
          "internalType": "bytes32",
          "name": "marketId",
          "type": "bytes32"
        },
        {
          "internalType": "address",
          "name": "resolver1",
          "type": "address"
        },
        {
          "internalType": "address",
          "name": "resolver2",
          "type": "address"
        },
        {
          "internalType": "address",
          "name": "resolver3",
          "type": "address"
        },
        {
          "internalType": "uint8",
          "name": "votesSubmitted",
          "type": "uint8"
        },
        {
          "internalType": "bool",
          "name": "finalized",
          "type": "bool"
        },
        {
          "internalType": "uint8",
          "name": "winningOutcome",
          "type": "uint8"
        },
        {
          "internalType": "uint64",
          "name": "assignedAt",
          "type": "uint64"
        }
      ],
      "stateMutability": "view",
      "type": "function"
    },
    {
      "inputs": [
        {
          "internalType": "address",
          "name": "",
          "type": "address"
        }
      ],
      "name": "resolverRegistry",
      "outputs": [
        {
          "internalType": "address",
          "name": "resolver",
          "type": "address"
        },
        {
          "internalType": "uint128",
          "name": "stakeAmount",
          "type": "uint128"
        },
        {
          "internalType": "uint8",
          "name": "tier",
          "type": "uint8"
        },
        {
          "internalType": "uint64",
          "name": "marketsResolved",
          "type": "uint64"
        },
        {
          "internalType": "uint64",
          "name": "disputesReceived",
          "type": "uint64"
        },
        {
          "internalType": "uint64",
          "name": "disputesLost",
          "type": "uint64"
        },
        {
          "internalType": "uint8",
          "name": "strikes",
          "type": "uint8"
        },
        {
          "internalType": "uint128",
          "name": "reputationScore",
          "type": "uint128"
        },
        {
          "internalType": "uint64",
          "name": "registeredAt",
          "type": "uint64"
        },
        {
          "internalType": "uint64",
          "name": "lastActiveAt",
          "type": "uint64"
        },
        {
          "internalType": "bool",
          "name": "isActive",
          "type": "bool"
        }
      ],
      "stateMutability": "view",
      "type": "function"
    },
    {
      "inputs": [
        {
          "internalType": "bytes32",
          "name": "proposalId",
          "type": "bytes32"
        },
        {
          "internalType": "bool",
          "name": "isFor",
          "type": "bool"
        },
        {
          "internalType": "uint128",
          "name": "plaintext",
          "type": "uint128"
        },
        {
          "internalType": "bytes",
          "name": "signature",
          "type": "bytes"
        }
      ],
      "name": "revealProposalTally",
      "outputs": [],
      "stateMutability": "nonpayable",
      "type": "function"
    },
    {
      "inputs": [
        {
          "internalType": "uint64",
          "name": "",
          "type": "uint64"
        }
      ],
      "name": "rewardEpochs",
      "outputs": [
        {
          "internalType": "uint64",
          "name": "epochId",
          "type": "uint64"
        },
        {
          "internalType": "uint128",
          "name": "totalLPReward",
          "type": "uint128"
        },
        {
          "internalType": "uint128",
          "name": "totalTraderReward",
          "type": "uint128"
        },
        {
          "internalType": "uint128",
          "name": "totalLPContributions",
          "type": "uint128"
        },
        {
          "internalType": "uint128",
          "name": "totalTradeVolume",
          "type": "uint128"
        },
        {
          "internalType": "uint64",
          "name": "startedAt",
          "type": "uint64"
        },
        {
          "internalType": "bool",
          "name": "distributed",
          "type": "bool"
        }
      ],
      "stateMutability": "view",
      "type": "function"
    },
    {
      "inputs": [
        {
          "internalType": "address[5]",
          "name": "members",
          "type": "address[5]"
        },
        {
          "internalType": "uint8",
          "name": "size",
          "type": "uint8"
        }
      ],
      "name": "setCommitteeMembers",
      "outputs": [],
      "stateMutability": "nonpayable",
      "type": "function"
    },
    {
      "inputs": [
        {
          "internalType": "address",
          "name": "resolver",
          "type": "address"
        }
      ],
      "name": "slashResolver",
      "outputs": [],
      "stateMutability": "nonpayable",
      "type": "function"
    },
    {
      "inputs": [],
      "name": "treasuryBalance",
      "outputs": [
        {
          "internalType": "uint128",
          "name": "",
          "type": "uint128"
        }
      ],
      "stateMutability": "view",
      "type": "function"
    },
    {
      "inputs": [
        {
          "internalType": "address",
          "name": "delegate",
          "type": "address"
        }
      ],
      "name": "undelegateVotes",
      "outputs": [],
      "stateMutability": "nonpayable",
      "type": "function"
    },
    {
      "inputs": [
        {
          "internalType": "bytes32",
          "name": "proposalId",
          "type": "bytes32"
        }
      ],
      "name": "unlockAfterVote",
      "outputs": [],
      "stateMutability": "nonpayable",
      "type": "function"
    },
    {
      "inputs": [],
      "name": "unstakeResolver",
      "outputs": [],
      "stateMutability": "nonpayable",
      "type": "function"
    },
    {
      "inputs": [
        {
          "internalType": "address",
          "name": "resolver",
          "type": "address"
        },
        {
          "internalType": "bool",
          "name": "resolved",
          "type": "bool"
        },
        {
          "internalType": "bool",
          "name": "disputed",
          "type": "bool"
        },
        {
          "internalType": "bool",
          "name": "disputeLost",
          "type": "bool"
        }
      ],
      "name": "updateResolverStats",
      "outputs": [],
      "stateMutability": "nonpayable",
      "type": "function"
    },
    {
      "inputs": [
        {
          "internalType": "address",
          "name": "resolver",
          "type": "address"
        }
      ],
      "name": "upgradeResolverTier",
      "outputs": [],
      "stateMutability": "nonpayable",
      "type": "function"
    },
    {
      "inputs": [
        {
          "internalType": "bytes32",
          "name": "proposalId",
          "type": "bytes32"
        }
      ],
      "name": "vetoProposal",
      "outputs": [],
      "stateMutability": "nonpayable",
      "type": "function"
    },
    {
      "inputs": [
        {
          "internalType": "bytes32",
          "name": "proposalId",
          "type": "bytes32"
        }
      ],
      "name": "voteAgainst",
      "outputs": [],
      "stateMutability": "payable",
      "type": "function"
    },
    {
      "inputs": [
        {
          "internalType": "bytes32",
          "name": "marketId",
          "type": "bytes32"
        },
        {
          "internalType": "bool",
          "name": "support",
          "type": "bool"
        }
      ],
      "name": "voteEscalation",
      "outputs": [],
      "stateMutability": "payable",
      "type": "function"
    },
    {
      "inputs": [
        {
          "internalType": "bytes32",
          "name": "proposalId",
          "type": "bytes32"
        }
      ],
      "name": "voteFor",
      "outputs": [],
      "stateMutability": "payable",
      "type": "function"
    },
    {
      "inputs": [
        {
          "internalType": "bytes32",
          "name": "marketId",
          "type": "bytes32"
        }
      ],
      "name": "withdrawEscalationBond",
      "outputs": [],
      "stateMutability": "nonpayable",
      "type": "function"
    },
    {
      "inputs": [
        {
          "internalType": "uint128",
          "name": "amount",
          "type": "uint128"
        },
        {
          "internalType": "address",
          "name": "recipient",
          "type": "address"
        }
      ],
      "name": "withdrawTreasury",
      "outputs": [],
      "stateMutability": "nonpayable",
      "type": "function"
    },
    {
      "stateMutability": "payable",
      "type": "receive"
    }
  ],
  "bytecode": "0x608080604052346026575f80546001600160a01b031916331790556155ab908161002b8239f35b5f80fdfe608080604052600436101561001c575b50361561001a575f80fd5b005b5f3560e01c908163038a353814614633575080630f5c4969146143c1578063123302ba146143a0578063158ef93e1461437c578063193bad5d146140ad5780631b53df86146109e2578063206c4b661461404257806321e91f8e14610f97578063248bd47114614020578063250948e214614005578063286c379b14613eb7578063313dab2014613e8f578063318dfff114613d9857806332ed5b1214613ccc5780633338519d14610fb25780633515498614613b5257806337d31acc146139315780633a6c6604146111105780633c0847f514610fb7578063403eab2b146137f2578063406ee60f1461360f57806340e535961461338d57806342a7c6141461336b578063430694cf146131655780634389cc22146116de5780634ad86ffc14612f6b5780634cf3ad6a14612ece5780634f23b35814610fb757806350addf4214612e2b5780635394c87914610a4a57806353dd2687146109e25780635542fa80146111105780635614e1f1146109e25780635a81d4ba14612de35780635cb06d4514610fb757806360d3d0d814612dc7578063665207b614612ca1578063673a033714612c745780636759647a14612a6257806367fed20e146129525780636984a46d146129235780636b7b8c63146128eb5780636e6a626314610a4557806373b9c8671461275757806374105d82146104c1578063748d22f214612694578063751b18cb14612665578063761edb48146125dd578063797af2bd146125a05780637a4bc51a1461256a5780637b7e52f8146123b55780637ceb6efd1461110b5780637e406a3814612262578063815fdf4714611e4e57806384060a2914611dc2578063843ff9a514611da057806388ea26e814611bc45780638b75d75a1461190e5780638b952a36146118825780638be615a7146111105780638c5fcdda1461175d5780638c72aa1314611730578063941ff2e5146117035780639a46e412146111105780639cf4364b146116e35780639d142a0b146116de578063a138d18a146115cd578063a42bd55814611404578063a45c384714611302578063a574511c14611115578063abbf52dc14611110578063acb34f701461110b578063adf758f6146110ef578063b1610d7e146110d2578063b5785f9c14610fbc578063b8f07dea146109e2578063baab957414610fb7578063bb43207414610fb2578063bb601d0014610f97578063bc89d95814610f04578063c4e9ff4a14610ee9578063c593a10814610e3b578063c699c38414610caf578063c98327d614610c87578063d028b71014610ae0578063d373d36914610ac5578063d5f3948814610a9e578063d957dff7146104c1578063da35c66414610a81578063dcb6375514610a4f578063ddc6739e14610a4a578063de4b6803146109e2578063de65e34114610a45578063e066016714610a16578063e37a7efd146109e7578063e3d3f843146109e2578063e6cee0ae146108dc578063e8ea4c76146105fe578063eacdc5ff146105d6578063f51ceca014610510578063fbf49bfd146104f5578063fc123004146104c6578063ff808c29146104c15763ffa12de4146104a0575f61000f565b346104bd575f3660031901126104bd5760206040516202a3008152f35b5f80fd5b6147d5565b346104bd5760203660031901126104bd576004355f52601e602052602060ff60405f2054166040519015158152f35b346104bd575f3660031901126104bd57602060405160198152f35b346104bd5760403660031901126104bd57610529614767565b610531614652565b5f5490916001600160a01b039161054b9083163314614a1e565b602654916001600160801b0391828416918184169083821161059f5761001a965f96879661057c8897968897614c34565b6001600160801b0319909216911617602655165af1610599614c68565b50614c97565b60405162461bcd60e51b815260206004820152600f60248201526e457863656564732062616c616e636560881b6044820152606490fd5b346104bd575f3660031901126104bd576022546040516001600160401b039091168152602090f35b346104bd576020806003193601126104bd576004359061062460ff5f5460a01c16614812565b815f5260029081815260405f2091600783018054600160ff8260401c16036108aa576001600160401b03811642106108785760ff60401b1916600360401b179055600183015460a01c60ff168181036106d2575060038301549201545f908152601f9091526040902080546001600160801b0319166001600160801b03929092169190911790555b7f7b1bcf1ccf901a11589afff5504d59fd0a53780eed2a952adade0348985139e05f80a2005b60048103610713575060038301549201545f908152601f9091526040902080546001600160801b0319166001600160801b03929092169190911790556106ac565b6005810361073e57505090600360018060801b0391015416151560ff801983541691161790556106ac565b600681036107635750601e9201545f525260405f20600160ff198254161790556106ac565b60018103610791575090601d9160ff6003850154169301545f525260405f209060ff198254161790556106ac565b60039150146107a2575b50506106ac565b60038201546004909201546026546001600160801b039384169380821680861161084057856107d091614c34565b6001600160801b03199092169116176026556001600160a01b031690811561080d57505f80806108069481945af1610599614c68565b818061079b565b6064906040519062461bcd60e51b82526004820152600c60248201526b5a65726f206164647265737360a01b6044820152fd5b60405162461bcd60e51b815260048101869052601060248201526f4578636565647320747265617375727960801b6044820152606490fd5b60405162461bcd60e51b815260048101859052600a602482015269151a5b595b1bd8dad95960b21b6044820152606490fd5b60405162461bcd60e51b815260048101859052600a602482015269139bdd081c185cdcd95960b21b6044820152606490fd5b346104bd5760203660031901126104bd5760043561090060ff5f5460a01c16614812565b805f52602860205260405f2060018101908154610925600260ff8360a81c1614614ac3565b600382015490608082901c6001600160401b03164211156109ae5760ff60a81b1916600360a81b1792839055600282015460801c6001600160801b03909116101561099957545f52601d60205260ff60405f209160a01c1660ff198254161790555f805160206154f68339815191525f80a2005b50505f805160206154f68339815191525f80a2005b60405162461bcd60e51b815260206004820152600c60248201526b5374696c6c20766f74696e6760a01b6044820152606490fd5b6146aa565b346104bd5760203660031901126104bd576004355f52601a602052602060ff60405f2054166040519015158152f35b346104bd5760203660031901126104bd576004355f526017602052602060ff60405f2054166040519015158152f35b6147b4565b61477d565b346104bd5760203660031901126104bd576004355f52601f602052602060018060801b0360405f205416604051908152f35b346104bd575f3660031901126104bd576020600354604051908152f35b346104bd575f3660031901126104bd575f546040516001600160a01b039091168152602090f35b346104bd575f3660031901126104bd57602060405160058152f35b346104bd5760803660031901126104bd57610af9614694565b610b016146d5565b60443580151581036104bd576064359283151584036104bd575f546001600160a01b039190610b339083163314614a1e565b165f52600f60205260405f2091610b5060ff600485015416614eae565b610c30575b610ba1575b61001a91610b76575b426001600160401b0316906003016149fb565b600281018054610b9c9190610b969060401c6001600160401b0316614ee7565b906149a9565b610b63565b6002810180546001600160401b03610bba818316614ee7565b6001600160401b031990921691161790556003810180546001600160801b0393919084811660c8811115610c255760c7190194808611610c115761001a955b6001600160801b031990921691161790559150610b5a565b634e487b7160e01b5f52601160045260245ffd5b5061001a945f610bf9565b600182018054610c569190610c509060881c6001600160401b0316614ee7565b90614980565b6003820180546001600160801b03808216606401818111610c11576001600160801b03199092169116179055610b55565b346104bd575f3660031901126104bd576001546040516001600160a01b039091168152602090f35b346104bd5760403660031901126104bd57600435610ccb6146c5565b90610cd53361520f565b15610e065760ff9081831691600183101580610dfb575b610cf590614a8d565b815f52602090601a8252610d0f8160405f20541615614d48565b6040519482860186610d22338784614b7a565b0396610d36601f1998898101835282614940565b519020805f5260178452610d508360405f20541615614b98565b5f526017835260405f209560ff1996600188825416179055610d8a6040519182610d7e878201958987614f53565b03908101835282614940565b519020805f526018835260405f2080548784610da7818416614d88565b1691161790555f5260188252607f610dc98260405f2054169260165416614f71565b60011c161115610dd557005b6019915f52601a815260405f206001858254161790555260405f20918254161790555f80f35b506004831115610cec565b60405162461bcd60e51b815260206004820152600d60248201526c4e6f7420636f6d6d697474656560981b6044820152606490fd5b346104bd5760c03660031901126104bd573660a4116104bd5760a43560ff81168091036104bd575f546001600160a01b0390610e7a9082163314614a1e565b6005808311610ebc575f9160045b828410610e9d576016805460ff191686179055005b80359382851685036104bd576020600192019481601101550192610e88565b60405162461bcd60e51b81526020600482015260056024820152644d6178203560d81b6044820152606490fd5b346104bd575f3660031901126104bd57602060405160328152f35b346104bd5760203660031901126104bd576004355f52601b60205261010060405f2080549060ff60018060a01b03918260018201541692806002830154166005600384015493015494604051968752602087015260408601528116606085015260a01c16608083015260ff8116151560a083015260ff8160081c1660c083015260018060401b039060101c1660e0820152f35b346104bd575f3660031901126104bd576020604051600a8152f35b6146e4565b61471c565b346104bd576020806003193601126104bd5760043590815f52601a815260ff610feb8160405f20541615614d48565b5f925f60015b60048482161115611077575082607f61100d8260165416614f71565b60011c16911610611044575f52601a8252601960405f209260ff19936001858254161790555260405f209216908254161790555f80f35b60405162461bcd60e51b815260048101849052600b60248201526a4e6f206d616a6f7269747960a81b6044820152606490fd5b6040518581019061109b8161108d858886614f53565b03601f198101835282614940565b5190205f52601885528360405f20541684831681116110c4575b506110bf90614d88565b610ff1565b915094506110bf85906110b5565b346104bd575f3660031901126104bd57602060405162093a808152f35b346104bd575f3660031901126104bd576020604051612ee08152f35b6147f0565b614701565b346104bd576020806003193601126104bd5761112f614694565b61113f60ff5f5460a01c16614812565b60018060a01b031690815f52600f815260405f2061116360ff600483015416614eae565b600181019081549060ff8260801c16600181145f1461122c575082549150600a608883901c6001600160401b031610159081611210575b50156111d15760ff60801b1916600160811b1781555f80516020615556833981519152919060ff905b5460801c16604051908152a2005b60405162461bcd60e51b81526004810184905260176024820152762737ba1032b634b3b4b13632903337b91029b4b63b32b960491b6044820152606490fd5b60030154612ee06001600160801b03909116101590508561119a565b6002036112d2576032608883901c6001600160401b0316101590816112b6575b50156112795760ff60801b1916600360801b1781555f80516020615556833981519152919060ff906111c3565b60405162461bcd60e51b8152600481018490526015602482015274139bdd08195b1a59da589b1948199bdc8811dbdb19605a1b6044820152606490fd5b60030154613a986001600160801b03909116101590508561124c565b60405162461bcd60e51b815260048101859052600860248201526726b0bc103a34b2b960c11b6044820152606490fd5b346104bd576020806003193601126104bd576004359061132860ff5f5460a01c16614812565b815f5260028152611358600660405f2061134c60ff600783015460401c1615614eae565b015460c01c4211614f19565b815f526027815260ff60405f2054166113cc57600790825f526027815260405f20600160ff198254161790556006815261139560405f20546151cd565b825f52526113a660405f20546151cd565b7fae6a45bc2979ca9a98333b5297b8f02a6e59147df47c65936c8a34dedd5e25945f80a2005b6064906040519062461bcd60e51b825260048201526011602482015270105b1c9958591e481c995c5d595cdd1959607a1b6044820152fd5b346104bd5760803660031901126104bd5761141d614694565b611425614652565b9061142e614668565b61143661467e565b5f546001600160a01b03939092906114513386861614614a1e565b60ff8460a01c166115925784169283151580611587575b8061157c575b156115475760405160808101959093906001600160401b03871185881017611533576002606082807f4a6ddf93c527399b46fddcb30aee5fa9e0ebdff88835732f27b9acf755b012c59b839b6040528a8a5216968760208a01521696876040820152015260018060a01b0319918683600a541617600a558483600b541617600b55600160a11b8660018060a81b0319600c54161717600c5516906001541617600155600160a01b9060ff60a01b1916175f5560405192835260208301526040820152a1005b634e487b7160e01b5f52604160045260245ffd5b60405162461bcd60e51b815260206004820152600d60248201526c2d32b9379033bab0b93234b0b760991b6044820152606490fd5b50848216151561146e565b508486161515611468565b60405162461bcd60e51b8152602060048201526013602482015272105b1c9958591e481a5b9a5d1a585b1a5e9959606a1b6044820152606490fd5b346104bd5760203660031901126104bd576004355f546115f260ff8260a01c16614812565b815f52602860205260405f20600181018054600160ff8260a81c16036116a9576116669361163c90336001600160a01b0391821614908115611698575b811561168c575b50614e71565b60ff60a81b1916600160a91b179055600361165f426001600160401b0316614eff565b91016149d2565b7fe0d9c289d3dfc546543e395b5019f15adb316000bfba80b7cdb64dbc85b3a59c5f80a2005b90508216331487611636565b90506116a33361500d565b9061162f565b60405162461bcd60e51b815260206004820152600d60248201526c139bdd081a5b9a5d1a585d1959609a1b6044820152606490fd5b614737565b346104bd575f3660031901126104bd57602060ff60165416604051908152f35b346104bd5760203660031901126104bd576004355f526018602052602060ff60405f205416604051908152f35b346104bd5760203660031901126104bd576004355f52601d602052602060ff60405f205416604051908152f35b60203660031901126104bd57611771614694565b61178160ff5f5460a01c16614812565b6001600160a01b0381169081151580611878575b15611840576117a5341515614b43565b6040516001600160801b03913483169160208101916117cb90829061108d903386614c10565b5190205f52600d60205260405f20805490836117e984828516614bd4565b1660018060801b0319809316179055835f52600e60205260405f2092611813845493828516614bd4565b169116179055337ffaf6077d874fc7f1716637c6f4ac4914ce0cfbf27767bb442ed23dd08dad40445f80a3005b60405162461bcd60e51b815260206004820152601060248201526f496e76616c69642064656c656761746560801b6044820152606490fd5b5033821415611795565b346104bd5760203660031901126104bd5761189b614694565b5f546001600160a01b0391908216331480156118fa575b6118bb90614e71565b16805f52600f602052600460405f200160ff19908181541690556010602052600160405f20918254161790555f805160206155368339815191525f80a2005b506118bb6119073361500d565b90506118b2565b346104bd576020806003193601126104bd576004359061193460ff5f5460a01c16614812565b815f526002815260405f2090600782019161195660ff845460401c1615614eae565b60068101611969815460c01c4211614f19565b845f526027835260ff60405f20541615611b8457845f526006835261199160405f205461513b565b91865f52600785526119a660405f205461513b565b84919491611b7c575b5015611b2b576005840180546001600160801b0319166001600160801b0380851691821783559093909291839182916119f49188916119ef908390614bed565b614bd4565b925416911610159283611b1f575b5050505f14611af657825460ff60401b198116600160401b90811785556001929092015460a01c60ff1660058103611a7157505082546001600160401b031916426001600160401b0316178355505f805160206155168339815191529160ff905b5460401c16604051908152a2005b600303611ab557505f805160206155168339815191529260ff91506001600160401b03611a9f428216614eff565b82546001600160401b0319169116178155611a63565b6001600160401b03934285166202a30001929091858411610c11575f805160206155168339815191529560ff94169060018060481b03191617178155611a63565b50815460ff60401b1916600160411b1782555f805160206155168339815191529160ff90611a63565b16109050858080611a02565b60405162461bcd60e51b815260048101869052602360248201527f44656372797074696f6e2070656e64696e672c2074727920616761696e206c616044820152623a32b960e91b6064820152608490fd5b9050886119af565b60405162461bcd60e51b8152600481018490526018602482015277111958dc9e5c1d1a5bdb881b9bdd081c995c5d595cdd195960421b6044820152606490fd5b346104bd5760203660031901126104bd57610160611be0614694565b5f610140604051611bf081614888565b8281528260208201528260408201528260608201528260808201528260a08201528260c08201528260e08201528261010082015282610120820152015260018060a01b038091165f52600f60205261014060405f209160ff600460405192611c5784614888565b85541694858452600181015460018060801b0381166020860152838160801c16604086015260018060401b039060881c16606085015282600282015460018060401b038116608087015260018060401b038160401c1660a087015260801c1660c0850152600381015460018060801b03811660e086015260018060401b038160801c1661010086015260c01c61012085015201541615158282015260405192835260018060801b03602082015116602084015260ff604082015116604084015260018060401b03606082015116606084015260018060401b03608082015116608084015260018060401b0360a08201511660a084015260ff60c08201511660c084015260018060801b0360e08201511660e084015260018060401b036101008201511661010084015260018060401b036101208201511661012084015201511515610140820152f35b346104bd575f3660031901126104bd57602060405167016345785d8a00008152f35b346104bd575f3660031901126104bd57335f52600f602052611e275f80808060408120600481016001815492611dfa60ff8516614eae565b01805460ff199093169091556001600160801b0319821690556001600160801b0316335af1610599614c68565b337f4db43c6bd5697f90f162476577384e8e775d3c164c8cfaca155e43969f44187b5f80a2005b60803660031901126104bd5760043560ff8116908181036104bd57602435611e74614751565b611e8460ff5f5460a01c16614812565b611e9360ff6020541615614cd5565b600184101580612257575b1561222357611eb6662386f26fc10000341015614850565b60405160208101903360601b825260ff60f81b8560f81b16603482015283603582015260018060801b03198360801b16605582015242606582015260658152611efe816148ef565b5190205f818152600260205260409020600101549093906001600160a01b03166121f557611f2b9061504b565b906001600160401b0342811662093a800111610c115760405192611f4e846148c0565b848452336020808601918252604080870189815260608801949094526001600160801b03948516608088015260643560a08801525f60c0880181905260e0880181905295909416610100870152426001600160401b03908116610120880181905262093a8001166101408701526101608601859052610180860185905286855260029052919092208351815590516001820180546001600160a01b0319166001600160a01b039290921691909117815591516007926120109160ff1690614a5a565b6060830151600282015560808301516003820180546001600160801b03199081166001600160801b039384161790915560a0850151600484015560c085015160058401805490921690831617815560e085015161206e921690614bed565b6101008301516006820180546001600160801b0319166001600160801b03929092169190911781556101208401516120c991906120b4906001600160401b0316826149d2565b6101408501516001600160401b0316906149fb565b019060018060401b036101608201511682549161018060ff60401b91015160401b169160018060481b031916171790556121016153e9565b61210a816150ee565b815f52600660205260405f205561211f6153e9565b612128816150ee565b5f82815260076020908152604080832093909355338252600890522080546001600160801b0334811692919061216084828416614bd4565b6001600160801b0319909216911617905560405160208101906121888161108d338786614b7a565b5190205f90815260096020526040902080546001600160801b03191690911790556003545f198114610c11577fc4b64ebdae706e07f37a5858b10df15949d7d4ca87db72ef3459de00499926c16040602094600185940160035581519033825286820152a2604051908152f35b60405162461bcd60e51b815260206004820152600660248201526545786973747360d01b6044820152606490fd5b60405162461bcd60e51b815260206004820152600c60248201526b496e76616c6964207479706560a01b6044820152606490fd5b506006841115611e9e565b346104bd576020806003193601126104bd57600435906040518181019061228e8161108d338786614b7a565b5190205f818152602a8352604080822054948252602884529020600181015491936001600160801b03929083169190336001600160a01b03821614806123a6575b61233d575b50501691821561230e575f908152602a9091526040812080546001600160801b031916905561001a91819081908190335af1610599614c68565b60405162461bcd60e51b8152600481018390526007602482015266139bc8189bdb9960ca1b6044820152606490fd5b60ff60039160a81c16036123725760020161235d81549284841690614bd4565b6001600160801b0319909216905584806122d4565b60405162461bcd60e51b815260048101859052600c60248201526b139bdd081c995cdbdb1d995960a21b6044820152606490fd5b508360028301541615156122cf565b60403660031901126104bd576123c9614767565b6001600160801b03602435818116908181036104bd576123fe83916123f860018060a01b035f54163314614a1e565b85614bd4565b163410612536576022546001600160401b0391908261241e818316614ee7565b166001600160401b03199190911681176022556040519360e0850185811085821117611533577fb00e9a0f78c6d14cd765a1117e8dc25aa671fcd00e523df2124f52d7a080a06996602096612510938793604052858252808983019316835260408201968752600260608301925f84526124fd60808201995f8b5260a0830196884216885260c084019a5f8c525f5260218e528860405f20945116845491600160401b600160c01b03905160401b169160018060c01b031916171783558480600185019251169660018060801b03199788845416178355511690614bed565b01965116908654161785555116836149d2565b51815460ff60c01b191690151560c01b60ff60c01b1617905560225460405191168152a1005b60405162461bcd60e51b815260206004820152600c60248201526b125b9cdd59999a58da595b9d60a21b6044820152606490fd5b346104bd5760203660031901126104bd5760043560058110156104bd57601101546040516001600160a01b039091168152602090f35b346104bd5760203660031901126104bd576001600160a01b036125c1614694565b165f526010602052602060ff60405f2054166040519015158152f35b346104bd5760203660031901126104bd5760e06001600160401b038061260161479e565b165f52602160205260ff60405f2080549260018060801b0360026001840154930154928160405196848116885260401c166020870152818116604087015260801c6060860152821660808501528160801c1660a084015260c01c16151560c0820152f35b346104bd5760203660031901126104bd576004355f526027602052602060ff60405f2054166040519015158152f35b346104bd5760203660031901126104bd576101606001600160a01b03806126b9614694565b165f52600f60205260405f20908154169060018101549060018060801b0360018060401b039060ff6002840154838260046003880154970154169660405198895284811660208a0152838160801c1660408a015260881c1660608801528381166080880152838160401c1660a088015260801c1660c0860152821660e08501528160801c1661010084015260c01c6101208301521515610140820152f35b346104bd5760203660031901126104bd57612770614694565b5f546001600160a01b0391908216331480156128d7575b61279090614e71565b16805f52600f60205260405f2060048101906127af60ff835416614eae565b60ff600282016127cd6127c783835460801c16614d88565b82614963565b5460801c16600281106128cf576019925b6001830191600383549460018060801b03948561280d606482612804818c169c8d614e29565b1604809a614c34565b166001600160801b031997881617905501805491908483166103e88111156128c3576103e7190192858411610c115786866003955b169116179055101561288c575b5061285f60265493828516614bd4565b169116176026557f5470b8ece6d890d8e43d24f952e3f09db58f48c15c5f2039537b8b1f322d23cd5f80a2005b60ff1990818154169055845f526010602052600160405f2091825416179055835f805160206155368339815191525f80a28461284f565b5060039286865f612842565b600a926127de565b506127906128e43361500d565b9050612787565b5f3660031901126104bd576026546001600160801b0361290f348216838316614bd4565b6001600160801b0319909216911617602655005b346104bd5760203660031901126104bd576004355f52601c602052602060ff60405f2054166040519015158152f35b346104bd5760803660031901126104bd5761296b614694565b6024356001600160401b0381168082036104bd57612987614751565b6001600160801b039360643593919085851685036104bd5761108d6129cd6002946129bc60018060a01b035f54163314614a1e565b604051928391602083019586614dfc565b51902092835f52602360205260405f2093845494876129ee85828916614bd4565b166001600160801b03199687161790555f90815260246020526040902080548588612a1b89828516614bd4565b1691161790555f526021602052612a4860405f2091612a426001840191825460801c614bd4565b90614bed565b0192612a58845493828516614bd4565b1691161790555f80f35b346104bd576020806003193601126104bd57612a7c61479e565b9060405181810190612a938161108d863386614dfc565b51902091825f526025825260ff60405f205416612c3d576001600160401b039081165f9081526021835260409020805491821615612c0d57612b3090845f526023845260018060801b03928360405f205416602486528460405f2054165f92600185015492878460801c9283151580612c04575b612be4575b509150508060025f960154169283151580612bdb575b612bb9575b50505050614bd4565b16918215612b88575f80612b619460258295839584525260408220600160ff19825416179055335af1610599614c68565b337fea61a2a22523394f29506de20cc9db2e881f096477982d51012058ec9032714a5f80a2005b60405162461bcd60e51b8152600481018390526009602482015268139bc81c995dd85c9960ba1b6044820152606490fd5b612bd194955090612bcc92911690614e29565b614e45565b9086808581612b27565b50821515612b22565b612bfa94965090612bcc929160401c1690614e29565b9188808781612b0c565b50821515612b07565b60405162461bcd60e51b815260048101849052600860248201526709cde40cae0dec6d60c31b6044820152606490fd5b60405162461bcd60e51b815260048101839052600f60248201526e105b1c9958591e4818db185a5b5959608a1b6044820152606490fd5b346104bd5760203660031901126104bd576004355f526019602052602060ff60405f205416604051908152f35b346104bd5760203660031901126104bd57600a5460043590336001600160a01b0391821614908115612db8575b8115612daa575b5015612d7657805f526002602052600760405f2001805460ff8160401c168015908115612d6b575b5015612d385760ff60401b1916600160421b1790557f0c8bf601915d1f39ef591226bc69b3becc23fcb3616673c419062aa44beb42da5f80a2005b60405162461bcd60e51b815260206004820152600b60248201526a43616e6e6f74207665746f60a81b6044820152606490fd5b600191501484612cfd565b60405162461bcd60e51b815260206004820152600c60248201526b2737ba1033bab0b93234b0b760a11b6044820152606490fd5b9050600c5416331482612cd5565b809150600b5416331490612cce565b346104bd575f3660031901126104bd576020604051613a988152f35b346104bd575f3660031901126104bd57608060018060a01b0360ff81600a54169180600b541690600c549160405194855260208501528116604084015260a01c166060820152f35b346104bd5760803660031901126104bd57600435612e476146d5565b612e4f614751565b606435926001600160401b03928385116104bd57366023860112156104bd5784600401359384116104bd57602485019460248536920101116104bd5715612eb25761001a93612eac915f52600660205260405f2054933691614dc6565b91614f83565b61001a93612eac915f52600760205260405f2054933691614dc6565b346104bd5760203660031901126104bd576004355f52602860205261012060405f20805490600181015460018060401b0391600281015483600360018060801b039301549360405196875260018060a01b038116602088015260ff8160a01c16604088015260ff8160a81c16606088015260b01c16608086015281811660a086015260801c60c0850152811660e084015260801c16610100820152f35b346104bd5760403660031901126104bd57600435612f876146c5565b815f52601b60205260405f20906005820160ff612fa78183541615614d48565b6001840154336001600160a01b0391821614908115613154575b8115613144575b50156131105780612fe9600292851660018110159081613104575b50614d0a565b60405160208101906130008161108d338b86614b7a565b519020805f52601c60205261301b8260405f20541615614b98565b5f52601c6020526130bd84600460405f209760ff199860018a8254161790556130566003820161305087825460a01c16614d88565b90614a5a565b016130906130648383614d99565b81929154908761307a81848460031b1c16614d88565b16919060ff809160031b9316831b921b19161790565b905533897fc1a68409b147b9ff15e83543c7963d151c009b8065d5e84b69728ce3389acb035f80a3614d99565b90549060031b1c1610156130cd57005b60016130de93825416178155614a77565b7f013aa7c30259518765cad3f3d03676a3c0b543b5dd889be5c75f1ef81171b2475f80a2005b60049150111588612fe3565b60405162461bcd60e51b815260206004820152600c60248201526b139bdd081bdb881c185b995b60a21b6044820152606490fd5b9050600385015416331486612fc8565b809150600286015416331490612fc1565b346104bd5760203660031901126104bd575f610180604051613186816148c0565b8281528260208201528260408201528260608201528260808201528260a08201528260c08201528260e08201528261010082015282610120820152826101408201528261016082015201526004355f5260026020526101a060405f2060ff6101806040516131f3816148c0565b82600785549586845282600182015460018060a01b038116602087015260a01c1660408501526002810154606085015260018060801b036003820154166080850152600481015460a0850152600581015460018060801b03811660c086015260801c60e0850152600681015460018060801b03811661010086015260018060401b038160801c1661012086015260c01c610140850152015460018060401b03811661016084015260401c168282015260405193845260018060a01b0360208201511660208501528260408201511660408501526060810151606085015260018060801b03608082015116608085015260a081015160a085015260018060801b0360c08201511660c085015260018060801b0360e08201511660e085015260018060801b036101008201511661010085015260018060401b036101208201511661012085015260018060401b036101408201511661014085015260018060401b0361016082015116610160850152015116610180820152f35b346104bd575f3660031901126104bd576020604051670de0b6b3a76400008152f35b6020806003193601126104bd576004356133ad60ff5f5460a01c16614812565b6133bb60ff83541615614cd5565b5f818152600283526040812060018101549193916001600160a01b0316156135de576006816133f760ff600761340495015460401c1615614eae565b015460c01c421115614b07565b66038d7ea4c6800034106135af57604051818101906134288161108d338786614b7a565b519020805f526004825261344360ff60405f20541615614b98565b5f818152600483526040808220805460ff1916600117905533825260088452902080546134af91346001600160801b0390811692919061348584848316614bd4565b166001600160801b03199283161790555f8481526009865260409020805490911682179055615476565b906134b9826150ee565b5f805160206154d6833981519152803b156104bd575f6040518092631974142760e21b82528183816134ef338a600484016150d5565b03925af180156135a457613591575b50845260058252806040852055835f1461356357613528600691848652828452604086205461525f565b91613532836150ee565b8385525260408320555b7faa1c368ec955231333de5b5e0f09d0b2c72d83a2361a709edd03fb3636bd69d7339280a3005b613579600791845f5282845260405f205461525f565b91613583836150ee565b835f525260405f205561353c565b61359c9195506148dc565b5f93856134fe565b6040513d5f823e3d90fd5b6064906040519062461bcd60e51b8252600482015260086024820152674d696e20766f746560c01b6044820152fd5b60405162461bcd60e51b8152600481018390526009602482015268139bdd08199bdd5b9960ba1b6044820152606490fd5b346104bd5760203660031901126104bd575f610100604051613630816148a4565b828152826020820152826040820152826060820152826080820152604051613657816148ef565b60a036823760a08201528260c08201528260e082015201526004355f52601b60205260405f20604051613689816148a4565b81548152600560019260018060a01b03600182015416602084015260018060a01b03600282015416604084015260ff600382015460018060a01b038116606086015260a01c16608084015260405160ff60048301548181168352818160081c166020840152818160101c166040840152818160181c16606084015260201c166080820152613716816148ef565b60a0840152015460ff8116151560c083015260ff8160081c1660e083015260018060401b039060101c16610100820152604051908051825260018060a01b03602082015116602083015260018060a01b03604082015116604083015260018060a01b03606082015116606083015260ff608082015116608083015260a081015160a083015f905b600582106137db5760c0840151151561014086015260e084015160ff166101608601526101008401516001600160401b03166101808601526101a085f35b825160ff168152602092830192918601910161379d565b346104bd576020806003193601126104bd57600435805f526002825260405f2060ff600782015460401c161590811591613920575b50156138ec576040516138438161108d85820194339086614b7a565b5190205f8181526009835260409020546001600160801b03908116929183156138b6575f61001a948194829483948452600982526008604085209260018060801b0319938481541690553386525260408420918254916138a585828516614c34565b169116179055335af1610599614c68565b60405162461bcd60e51b815260048101849052600e60248201526d139bdd1a1a5b99c81b1bd8dad95960921b6044820152606490fd5b60405162461bcd60e51b815260048101839052600c60248201526b5374696c6c2061637469766560a01b6044820152606490fd5b60069150015460c01c421183613827565b60403660031901126104bd576004356139486146c5565b61395860ff5f5460a01c16614812565b662386f26fc100003410613b225760ff16600181101580613b17575b61397d90614d0a565b815f52602860205260ff600160405f20015460a81c16613ade57604051906001600160401b03906001600160801b036139b5846148a4565b8484526020840190338252604085019283526060850194600186526080810192854216845260a0820190833416825260c08301945f865260e08401985f8a526101008501975f89528b5f52602860205260405f20955186556001860193600160a01b60019003905116600160a01b60019003198554161784555160ff16613a3c9084614a5a565b5182549151600160a81b600160f01b031990921660a89190911b60ff60a81b161760b09190911b600160b01b600160f01b0316179055516002820180546001600160801b031990811692851692909217815593519093613a9e91841690614bed565b600301945116908454161783555116613ab6916149d2565b33907f7404806e336c5d4c6550cd2195bb0429b2ca22dad17554554704a37e8a2d73475f80a3005b60405162461bcd60e51b8152602060048201526011602482015270105b1c9958591e48195cd8d85b185d1959607a1b6044820152606490fd5b506004811115613974565b60405162461bcd60e51b8152602060048201526008602482015267135a5b88189bdb9960c21b6044820152606490fd5b6020806003193601126104bd57600435613b7260ff5f5460a01c16614812565b613b8060ff83541615614cd5565b5f818152600283526040812060018101549193916001600160a01b0316156135de576006816133f760ff6007613bbc95015460401c1615614eae565b66038d7ea4c6800034106135af5760405181810190613be08161108d338786614b7a565b519020805f5260048252613bfb60ff60405f20541615614b98565b5f818152600483526040808220805460ff191660011790553382526008845290208054613c3d91346001600160801b0390811692919061348584848316614bd4565b90613c47826150ee565b5f805160206154d6833981519152803b156104bd575f6040518092631974142760e21b8252818381613c7d338a600484016150d5565b03925af180156135a457613cb0575b5060069161352891865260058452806040872055848652828452604086205461525f565b61352891955091613cc26006936148dc565b5f95915091613c8c565b346104bd5760203660031901126104bd576004355f5260026020526101a060405f2060ff815491600181015490600281015460018060801b0380600384015416600484015460058501549160068601549488600760018060401b03980154986040519b8c5260018060a01b03811660208d015260a01c1660408b015260608a0152608089015260a088015281811660c088015260801c60e08701528116610100860152818160801c1661012086015260c01c610140850152811661016084015260401c16610180820152f35b346104bd576020806003193601126104bd57613db2614694565b60405182810190613dc88161108d853386614c10565b5190205f818152600d845260409020546001600160801b0390811692918315613e5a575f613e33948194829483948452600d8952600e604085209260018060801b03199384815416905560018060a01b0316998a86525260408420918254916138a585828516614c34565b337fd34d27e61da1c0024d36fb461da2b2cc55f26de3975c87a55e96d835f66746295f80a3005b60405162461bcd60e51b815260048101869052600d60248201526c2737903232b632b3b0ba34b7b760991b6044820152606490fd5b346104bd575f3660031901126104bd576026546040516001600160801b039091168152602090f35b60403660031901126104bd57600435613ece6146d5565b613ede60ff5f5460a01c16614812565b815f52602860205260405f2090613f01600260ff600185015460a81c1614614ac3565b600382018054613f1f9060801c6001600160401b0316421115614b07565b613f2a341515614b43565b6040516020810190613f418161108d338986614b7a565b519020805f526029602052613f5d60ff60405f20541615614b98565b5f908152602960209081526040808320805460ff19166001179055602a909152902080546001600160801b0319908116346001600160801b039081169182179093559390919015613fe857505050612a426002613fc0930191825460801c614bd4565b33907f22a5a5d460cd4ce1243126db20b92ed4dcc3af7df8ebe099103571036e0986625f80a3005b90919350613ffa845493828516614bd4565b169116179055613fc0565b346104bd575f3660031901126104bd57602060405160068152f35b346104bd575f3660031901126104bd5760206040516703782dace9d900008152f35b346104bd5760403660031901126104bd5760ff61405d6146c5565b61407160018060a01b035f54163314614a1e565b166001811015806140a2575b61408690614a8d565b6004355f52601d60205260405f209060ff198254161790555f80f35b50600481111561407d565b346104bd5760803660031901126104bd576004356140c9614652565b906140d2614668565b6140da61467e565b5f546001600160a01b039485916140f49083163314614a1e565b1691825f52602094600f865260ff9182600460405f200154161561434757811692835f52600f875282600460405f200154161561431257811695865f52600f815282600460405f20015416156142de576040516001600160401b03949060a0810186811182821017611533576040525f81528281015f9052604081015f9052606081015f9052608081015f90526040519861418e8a6148a4565b888a52838a0197885260408a0192835260608a019081528560808b015f815260a08c0193845260c08c01995f8b5260e08d01978d5f8a52610100019a42168b528c5f52601b885260405f20809e5190558d600197826001830194511693600160a01b6001900319948582541617905582600283019151168482541617905560030194511690845416178355511661422491614a5a565b51905f925f905b600582106142b057505050509061425f600588614267959460048201550195511515869060ff801983541691151516179055565b511683614a77565b51815462010000600160501b03191660109190911b62010000600160501b03161790557f317c20f4fd3ae996fa6263bc4cea1a7f7fd8c56d78322f8b5d9ffe999cd88d2e5f80a2005b9091816142d38596858a85985116919060ff809160031b9316831b921b19161790565b95019392019061422b565b6064906040519062461bcd60e51b82526004820152600d60248201526c5233206e6f742061637469766560981b6044820152fd5b60405162461bcd60e51b815260048101889052600d60248201526c5232206e6f742061637469766560981b6044820152606490fd5b60405162461bcd60e51b815260048101889052600d60248201526c5231206e6f742061637469766560981b6044820152606490fd5b346104bd575f3660031901126104bd57602060ff5f5460a01c166040519015158152f35b346104bd575f3660031901126104bd57602060ff8154166040519015158152f35b5f3660031901126104bd576143dc60ff5f5460a01c16614812565b6143ef66b1a2bc2ec50000341015614850565b335f52601060205260ff60405f20541661460057335f52600f60205260ff600460405f200154166145c65760405161459f90426001600160401b031661443482614888565b33825260018060801b0334166020830152600160408301525f60608301525f60808301525f60a08301525f60c083015261271060e0830152806101008301526101208201526001610140820152335f52600f602052600461014060405f209260018060a01b0381511660018060a01b0319855416178455614588600185016144f860018060801b036020850151169160018060801b031992838254161781556144e460ff60408701511682614963565b60608501516001600160401b031690614980565b60808301516002870180546001600160401b0319166001600160401b0392831617815560a085015161453d9261452f9116826149a9565b60ff60c08601511690614963565b60e08301516003870180549092166001600160801b0391909116178155610100830151614573906001600160401b0316826149d2565b6101208301516001600160401b0316906149fb565b0151151591019060ff801983541691151516179055565b337f98001b7b95ed55614b92b5d7d45b27a8501ff2f5e45752f656d1a6725adeba455f80a2005b60405162461bcd60e51b8152602060048201526012602482015271105b1c9958591e481c9959da5cdd195c995960721b6044820152606490fd5b60405162461bcd60e51b815260206004820152600b60248201526a109b1858dadb1a5cdd195960aa1b6044820152606490fd5b346104bd575f3660031901126104bd578066038d7ea4c6800060209252f35b602435906001600160a01b03821682036104bd57565b604435906001600160a01b03821682036104bd57565b606435906001600160a01b03821682036104bd57565b600435906001600160a01b03821682036104bd57565b346104bd575f3660031901126104bd57602060405160038152f35b6024359060ff821682036104bd57565b6024359081151582036104bd57565b346104bd575f3660031901126104bd5760206040516203f4808152f35b346104bd575f3660031901126104bd57602060405160028152f35b346104bd575f3660031901126104bd57602060405160018152f35b346104bd575f3660031901126104bd5760206040515f8152f35b604435906001600160801b03821682036104bd57565b600435906001600160801b03821682036104bd57565b346104bd575f3660031901126104bd57602060405166b1a2bc2ec500008152f35b600435906001600160401b03821682036104bd57565b346104bd575f3660031901126104bd576020604051662386f26fc100008152f35b346104bd575f3660031901126104bd57602060405160048152f35b346104bd575f3660031901126104bd5760206040516706f05b59d3b200008152f35b1561481957565b60405162461bcd60e51b815260206004820152600f60248201526e139bdd081a5b9a5d1a585b1a5e9959608a1b6044820152606490fd5b1561485757565b60405162461bcd60e51b81526020600482015260096024820152684d696e207374616b6560b81b6044820152606490fd5b61016081019081106001600160401b0382111761153357604052565b61012081019081106001600160401b0382111761153357604052565b6101a081019081106001600160401b0382111761153357604052565b6001600160401b03811161153357604052565b60a081019081106001600160401b0382111761153357604052565b602081019081106001600160401b0382111761153357604052565b608081019081106001600160401b0382111761153357604052565b601f909101601f19168101906001600160401b0382119082101761153357604052565b805460ff60801b191660809290921b60ff60801b16919091179055565b8054600160881b600160c81b03191660889290921b600160881b600160c81b0316919091179055565b8054600160401b600160801b03191660409290921b600160401b600160801b0316919091179055565b8054600160801b600160c01b03191660809290921b600160801b600160c01b0316919091179055565b80546001600160c01b031660c09290921b6001600160c01b031916919091179055565b15614a2557565b60405162461bcd60e51b815260206004820152600d60248201526c27b7363c903232b83637bcb2b960991b6044820152606490fd5b805460ff60a01b191660a09290921b60ff60a01b16919091179055565b9061ff0082549160081b169061ff001916179055565b15614a9457565b60405162461bcd60e51b8152602060048201526007602482015266125b9d985b1a5960ca1b6044820152606490fd5b15614aca57565b60405162461bcd60e51b81526020600482015260156024820152744e6f7420696e20636f6d6d756e69747920766f746560581b6044820152606490fd5b15614b0e57565b60405162461bcd60e51b815260206004820152600d60248201526c159bdd1a5b99c818db1bdcd959609a1b6044820152606490fd5b15614b4a57565b60405162461bcd60e51b81526020600482015260086024820152674e6f2076616c756560c01b6044820152606490fd5b90815260609190911b6001600160601b031916602082015260340190565b15614b9f57565b60405162461bcd60e51b815260206004820152600d60248201526c105b1c9958591e481d9bdd1959609a1b6044820152606490fd5b6001600160801b039182169082160191908211610c1157565b80546001600160801b031660809290921b6001600160801b031916919091179055565b6001600160601b0319606092831b811682529290911b909116601482015260280190565b6001600160801b039182169082160391908211610c1157565b6001600160401b03811161153357601f01601f191660200190565b3d15614c92573d90614c7982614c4d565b91614c876040519384614940565b82523d5f602084013e565b606090565b15614c9e57565b60405162461bcd60e51b815260206004820152600f60248201526e151c985b9cd9995c8819985a5b1959608a1b6044820152606490fd5b15614cdc57565b60405162461bcd60e51b815260206004820152600660248201526514185d5cd95960d21b6044820152606490fd5b15614d1157565b60405162461bcd60e51b815260206004820152600f60248201526e496e76616c6964206f7574636f6d6560881b6044820152606490fd5b15614d4f57565b60405162461bcd60e51b8152602060048201526011602482015270105b1c9958591e48199a5b985b1a5e9959607a1b6044820152606490fd5b60ff1660ff8114610c115760010190565b9190916005831015614db257601f908360051c01921690565b634e487b7160e01b5f52603260045260245ffd5b929192614dd282614c4d565b91614de06040519384614940565b8294818452818301116104bd578281602093845f960137010152565b60609190911b6001600160601b031916815260c09190911b6001600160c01b0319166014820152601c0190565b6001600160801b039182169082160290811691908203610c1157565b6001600160801b0391821691908215614e5d57160490565b634e487b7160e01b5f52601260045260245ffd5b15614e7857565b60405162461bcd60e51b815260206004820152600e60248201526d139bdd08185d5d1a1bdc9a5e995960921b6044820152606490fd5b15614eb557565b60405162461bcd60e51b815260206004820152600a6024820152694e6f742061637469766560b01b6044820152606490fd5b6001600160401b03908116908114610c115760010190565b6001600160401b039081166203f4800191908211610c1157565b15614f2057565b60405162461bcd60e51b815260206004820152600b60248201526a2b37ba34b7339037b832b760a91b6044820152606490fd5b90815260f89190911b6001600160f81b031916602082015260210190565b60ff60019116019060ff8211610c1157565b90915f805160206154d6833981519152803b156104bd576020935f6084819560405197889687958693631868370160e01b8552600485015260018060801b03166024840152606060448401528051918291826064860152018484015e8181018301849052601f01601f191681010301925af180156135a4576150025750565b61500b906148dc565b565b600a546001600160a01b03918216908216811491821561503d575b821561503357505090565b600c541614919050565b600b54811682149250615028565b60ff16600181146150c857600281146150bb57600381146150ae57600481146150a157600581146150955760061461508957670de0b6b3a764000090565b6706f05b59d3b2000090565b5066b1a2bc2ec5000090565b506703782dace9d9000090565b50670de0b6b3a764000090565b506706f05b59d3b2000090565b5067016345785d8a000090565b9081526001600160a01b03909116602082015260400190565b5f805160206154d6833981519152803b156104bd57604051631974142760e21b8152915f91839182908490829061512a903090600484016150d5565b03925af180156135a4576150025750565b90604080519263458693c960e01b8452600484015280836024815f805160206154d68339815191525afa9283156151c3575f915f94615184575b50506001600160801b03169190565b8194508092503d83116151bc575b61519c8183614940565b810103126104bd57602082519201519182151583036104bd575f80615175565b503d615192565b50513d5f823e3d90fd5b5f805160206154d683398151915290813b156104bd575f91602483926040519485938492631a778f2d60e11b845260048401525af180156135a4576150025750565b5f60ff9160ff60165416915b828482161061522c57505050505f90565b6005811015614db25760118101546001600160a01b0383811691161461525657600101831661521b565b50505050600190565b8015615372575b8115615362575b6040805190929091606083016001600160401b0381118482101761153357845260028352833660208501376152a1836154a8565b526152ab826154b5565b5260206152f38351926152bd8461490a565b5f845261530585519485938493631888debd60e01b85526006600486015260086024860152608060448601526084850190615380565b83810360031901606485015290615380565b03815f5f805160206154d68339815191525af191821561535957505f9161532a575090565b90506020813d602011615351575b8161534560209383614940565b810103126104bd575190565b3d9150615338565b513d5f823e3d90fd5b905061536c6153e9565b9061526d565b5061537b6153e9565b615266565b9081518082526020808093019301915f5b82811061539f575050505090565b835185529381019392810192600101615391565b90916153d86153e69360068452601a6020850152608060408501526080840190615380565b916060818403910152615380565b90565b61545260206040516153fa8161490a565b5f81526040519061540a82614925565b60038252606036848401375f61541f836154a8565b52600661542b836154b5565b525f615436836154c5565b52604051631888debd60e01b81529384928392600484016153b3565b03815f5f805160206154d68339815191525af19081156135a4575f9161532a575090565b6020615452916040516154888161490a565b5f81526040519161549883614925565b600383526060368585013761541f835b805115614db25760200190565b805160011015614db25760400190565b805160021015614db2576060019056fe000000000000000000000000ea30c4b8b44078bbf8a6ef5b9f1ec1626c7848d9d5c0d4e027576e5ed8df7edbb928604bc839767a154929d2ef30bac370810aba879e083a73f2b483a12d85d717cb83bb77cd04c1b94908ffc732d72fa87996e58d755620a3983e6fcaff02384351c3cf493670d9a6f00169bf4bc2d09f7475be54dd2317a6e32c1f79afc545cf4f4daff78f09889e50c9627af83c526cd2ae16a2646970667358221220e0a74f324459b66957dcf42bb17339e79e941a4b52c05ff62a7734c40b3093af64736f6c63430008190033",
  "linkReferences": {},
  "deployedLinkReferences": {}
}