{
  "_format": "hh-sol-artifact-1",
  "contractName": "FhenixGovernance",
  "sourceName": "contracts/FhenixGovernance.sol",
  "abi": [
    {
      "inputs": [],
      "stateMutability": "nonpayable",
      "type": "constructor"
    },
    {
      "inputs": [
        {
          "internalType": "int32",
          "name": "value",
          "type": "int32"
        }
      ],
      "name": "SecurityZoneOutOfBounds",
      "type": "error"
    },
    {
      "anonymous": false,
      "inputs": [
        {
          "indexed": true,
          "internalType": "address",
          "name": "delegator",
          "type": "address"
        },
        {
          "indexed": true,
          "internalType": "address",
          "name": "delegate",
          "type": "address"
        }
      ],
      "name": "DelegationCreated",
      "type": "event"
    },
    {
      "anonymous": false,
      "inputs": [
        {
          "indexed": true,
          "internalType": "address",
          "name": "delegator",
          "type": "address"
        },
        {
          "indexed": true,
          "internalType": "address",
          "name": "delegate",
          "type": "address"
        }
      ],
      "name": "DelegationRemoved",
      "type": "event"
    },
    {
      "anonymous": false,
      "inputs": [
        {
          "indexed": true,
          "internalType": "bytes32",
          "name": "marketId",
          "type": "bytes32"
        }
      ],
      "name": "EscalatedToCommunity",
      "type": "event"
    },
    {
      "anonymous": false,
      "inputs": [
        {
          "indexed": true,
          "internalType": "bytes32",
          "name": "marketId",
          "type": "bytes32"
        },
        {
          "indexed": true,
          "internalType": "address",
          "name": "initiator",
          "type": "address"
        }
      ],
      "name": "EscalationInitiated",
      "type": "event"
    },
    {
      "anonymous": false,
      "inputs": [
        {
          "indexed": true,
          "internalType": "bytes32",
          "name": "marketId",
          "type": "bytes32"
        }
      ],
      "name": "EscalationResolved",
      "type": "event"
    },
    {
      "anonymous": false,
      "inputs": [
        {
          "indexed": true,
          "internalType": "bytes32",
          "name": "marketId",
          "type": "bytes32"
        },
        {
          "indexed": true,
          "internalType": "address",
          "name": "voter",
          "type": "address"
        }
      ],
      "name": "EscalationVoteCast",
      "type": "event"
    },
    {
      "anonymous": false,
      "inputs": [
        {
          "indexed": false,
          "internalType": "address",
          "name": "guardian1",
          "type": "address"
        },
        {
          "indexed": false,
          "internalType": "address",
          "name": "guardian2",
          "type": "address"
        },
        {
          "indexed": false,
          "internalType": "address",
          "name": "guardian3",
          "type": "address"
        }
      ],
      "name": "GovernanceInitialized",
      "type": "event"
    },
    {
      "anonymous": false,
      "inputs": [
        {
          "indexed": true,
          "internalType": "bytes32",
          "name": "marketId",
          "type": "bytes32"
        }
      ],
      "name": "PanelAssigned",
      "type": "event"
    },
    {
      "anonymous": false,
      "inputs": [
        {
          "indexed": true,
          "internalType": "bytes32",
          "name": "marketId",
          "type": "bytes32"
        }
      ],
      "name": "PanelFinalized",
      "type": "event"
    },
    {
      "anonymous": false,
      "inputs": [
        {
          "indexed": true,
          "internalType": "bytes32",
          "name": "marketId",
          "type": "bytes32"
        },
        {
          "indexed": true,
          "internalType": "address",
          "name": "resolver",
          "type": "address"
        }
      ],
      "name": "PanelVoteSubmitted",
      "type": "event"
    },
    {
      "anonymous": false,
      "inputs": [
        {
          "indexed": true,
          "internalType": "bytes32",
          "name": "proposalId",
          "type": "bytes32"
        },
        {
          "indexed": false,
          "internalType": "address",
          "name": "proposer",
          "type": "address"
        },
        {
          "indexed": false,
          "internalType": "uint8",
          "name": "proposalType",
          "type": "uint8"
        }
      ],
      "name": "ProposalCreated",
      "type": "event"
    },
    {
      "anonymous": false,
      "inputs": [
        {
          "indexed": true,
          "internalType": "bytes32",
          "name": "proposalId",
          "type": "bytes32"
        }
      ],
      "name": "ProposalExecuted",
      "type": "event"
    },
    {
      "anonymous": false,
      "inputs": [
        {
          "indexed": true,
          "internalType": "bytes32",
          "name": "proposalId",
          "type": "bytes32"
        }
      ],
      "name": "ProposalVetoed",
      "type": "event"
    },
    {
      "anonymous": false,
      "inputs": [
        {
          "indexed": true,
          "internalType": "address",
          "name": "resolver",
          "type": "address"
        }
      ],
      "name": "ResolverBlacklisted",
      "type": "event"
    },
    {
      "anonymous": false,
      "inputs": [
        {
          "indexed": true,
          "internalType": "address",
          "name": "resolver",
          "type": "address"
        }
      ],
      "name": "ResolverRegistered",
      "type": "event"
    },
    {
      "anonymous": false,
      "inputs": [
        {
          "indexed": true,
          "internalType": "address",
          "name": "resolver",
          "type": "address"
        }
      ],
      "name": "ResolverSlashed",
      "type": "event"
    },
    {
      "anonymous": false,
      "inputs": [
        {
          "indexed": true,
          "internalType": "address",
          "name": "resolver",
          "type": "address"
        },
        {
          "indexed": false,
          "internalType": "uint8",
          "name": "newTier",
          "type": "uint8"
        }
      ],
      "name": "ResolverTierUpgraded",
      "type": "event"
    },
    {
      "anonymous": false,
      "inputs": [
        {
          "indexed": true,
          "internalType": "address",
          "name": "resolver",
          "type": "address"
        }
      ],
      "name": "ResolverUnstaked",
      "type": "event"
    },
    {
      "anonymous": false,
      "inputs": [
        {
          "indexed": true,
          "internalType": "address",
          "name": "user",
          "type": "address"
        }
      ],
      "name": "RewardClaimed",
      "type": "event"
    },
    {
      "anonymous": false,
      "inputs": [
        {
          "indexed": false,
          "internalType": "uint64",
          "name": "epochId",
          "type": "uint64"
        }
      ],
      "name": "RewardEpochFunded",
      "type": "event"
    },
    {
      "anonymous": false,
      "inputs": [
        {
          "indexed": true,
          "internalType": "bytes32",
          "name": "proposalId",
          "type": "bytes32"
        },
        {
          "indexed": true,
          "internalType": "address",
          "name": "voter",
          "type": "address"
        }
      ],
      "name": "VoteCast",
      "type": "event"
    },
    {
      "anonymous": false,
      "inputs": [
        {
          "indexed": true,
          "internalType": "bytes32",
          "name": "proposalId",
          "type": "bytes32"
        },
        {
          "indexed": false,
          "internalType": "uint8",
          "name": "status",
          "type": "uint8"
        }
      ],
      "name": "VoteFinalized",
      "type": "event"
    },
    {
      "inputs": [],
      "name": "ESCALATION_BOND",
      "outputs": [
        {
          "internalType": "uint128",
          "name": "",
          "type": "uint128"
        }
      ],
      "stateMutability": "view",
      "type": "function"
    },
    {
      "inputs": [],
      "name": "ESCALATION_COMMUNITY",
      "outputs": [
        {
          "internalType": "uint8",
          "name": "",
          "type": "uint8"
        }
      ],
      "stateMutability": "view",
      "type": "function"
    },
    {
      "inputs": [],
      "name": "ESCALATION_INITIATED",
      "outputs": [
        {
          "internalType": "uint8",
          "name": "",
          "type": "uint8"
        }
      ],
      "stateMutability": "view",
      "type": "function"
    },
    {
      "inputs": [],
      "name": "ESCALATION_NONE",
      "outputs": [
        {
          "internalType": "uint8",
          "name": "",
          "type": "uint8"
        }
      ],
      "stateMutability": "view",
      "type": "function"
    },
    {
      "inputs": [],
      "name": "ESCALATION_RESOLVED",
      "outputs": [
        {
          "internalType": "uint8",
          "name": "",
          "type": "uint8"
        }
      ],
      "stateMutability": "view",
      "type": "function"
    },
    {
      "inputs": [],
      "name": "ESCALATION_WINDOW",
      "outputs": [
        {
          "internalType": "uint64",
          "name": "",
          "type": "uint64"
        }
      ],
      "stateMutability": "view",
      "type": "function"
    },
    {
      "inputs": [],
      "name": "GOLD_MARKETS_REQUIRED",
      "outputs": [
        {
          "internalType": "uint64",
          "name": "",
          "type": "uint64"
        }
      ],
      "stateMutability": "view",
      "type": "function"
    },
    {
      "inputs": [],
      "name": "GOLD_REPUTATION_MIN",
      "outputs": [
        {
          "internalType": "uint128",
          "name": "",
          "type": "uint128"
        }
      ],
      "stateMutability": "view",
      "type": "function"
    },
    {
      "inputs": [],
      "name": "MAX_STRIKES",
      "outputs": [
        {
          "internalType": "uint8",
          "name": "",
          "type": "uint8"
        }
      ],
      "stateMutability": "view",
      "type": "function"
    },
    {
      "inputs": [],
      "name": "MIN_PROPOSAL_STAKE",
      "outputs": [
        {
          "internalType": "uint128",
          "name": "",
          "type": "uint128"
        }
      ],
      "stateMutability": "view",
      "type": "function"
    },
    {
      "inputs": [],
      "name": "MIN_VOTE_AMOUNT",
      "outputs": [
        {
          "internalType": "uint128",
          "name": "",
          "type": "uint128"
        }
      ],
      "stateMutability": "view",
      "type": "function"
    },
    {
      "inputs": [],
      "name": "PANEL_MAJORITY",
      "outputs": [
        {
          "internalType": "uint8",
          "name": "",
          "type": "uint8"
        }
      ],
      "stateMutability": "view",
      "type": "function"
    },
    {
      "inputs": [],
      "name": "PANEL_SIZE",
      "outputs": [
        {
          "internalType": "uint8",
          "name": "",
          "type": "uint8"
        }
      ],
      "stateMutability": "view",
      "type": "function"
    },
    {
      "inputs": [],
      "name": "PROPOSAL_EMERGENCY_PAUSE",
      "outputs": [
        {
          "internalType": "uint8",
          "name": "",
          "type": "uint8"
        }
      ],
      "stateMutability": "view",
      "type": "function"
    },
    {
      "inputs": [],
      "name": "PROPOSAL_FEE_CHANGE",
      "outputs": [
        {
          "internalType": "uint8",
          "name": "",
          "type": "uint8"
        }
      ],
      "stateMutability": "view",
      "type": "function"
    },
    {
      "inputs": [],
      "name": "PROPOSAL_PARAMETER",
      "outputs": [
        {
          "internalType": "uint8",
          "name": "",
          "type": "uint8"
        }
      ],
      "stateMutability": "view",
      "type": "function"
    },
    {
      "inputs": [],
      "name": "PROPOSAL_RESOLVER_ELECTION",
      "outputs": [
        {
          "internalType": "uint8",
          "name": "",
          "type": "uint8"
        }
      ],
      "stateMutability": "view",
      "type": "function"
    },
    {
      "inputs": [],
      "name": "PROPOSAL_RESOLVE_DISPUTE",
      "outputs": [
        {
          "internalType": "uint8",
          "name": "",
          "type": "uint8"
        }
      ],
      "stateMutability": "view",
      "type": "function"
    },
    {
      "inputs": [],
      "name": "PROPOSAL_TREASURY",
      "outputs": [
        {
          "internalType": "uint8",
          "name": "",
          "type": "uint8"
        }
      ],
      "stateMutability": "view",
      "type": "function"
    },
    {
      "inputs": [],
      "name": "QUORUM_EMERGENCY",
      "outputs": [
        {
          "internalType": "uint128",
          "name": "",
          "type": "uint128"
        }
      ],
      "stateMutability": "view",
      "type": "function"
    },
    {
      "inputs": [],
      "name": "QUORUM_FEE",
      "outputs": [
        {
          "internalType": "uint128",
          "name": "",
          "type": "uint128"
        }
      ],
      "stateMutability": "view",
      "type": "function"
    },
    {
      "inputs": [],
      "name": "QUORUM_PARAMETER",
      "outputs": [
        {
          "internalType": "uint128",
          "name": "",
          "type": "uint128"
        }
      ],
      "stateMutability": "view",
      "type": "function"
    },
    {
      "inputs": [],
      "name": "QUORUM_RESOLVE",
      "outputs": [
        {
          "internalType": "uint128",
          "name": "",
          "type": "uint128"
        }
      ],
      "stateMutability": "view",
      "type": "function"
    },
    {
      "inputs": [],
      "name": "QUORUM_RESOLVER",
      "outputs": [
        {
          "internalType": "uint128",
          "name": "",
          "type": "uint128"
        }
      ],
      "stateMutability": "view",
      "type": "function"
    },
    {
      "inputs": [],
      "name": "QUORUM_TREASURY",
      "outputs": [
        {
          "internalType": "uint128",
          "name": "",
          "type": "uint128"
        }
      ],
      "stateMutability": "view",
      "type": "function"
    },
    {
      "inputs": [],
      "name": "RESOLVER_STAKE_BRONZE",
      "outputs": [
        {
          "internalType": "uint128",
          "name": "",
          "type": "uint128"
        }
      ],
      "stateMutability": "view",
      "type": "function"
    },
    {
      "inputs": [],
      "name": "SILVER_MARKETS_REQUIRED",
      "outputs": [
        {
          "internalType": "uint64",
          "name": "",
          "type": "uint64"
        }
      ],
      "stateMutability": "view",
      "type": "function"
    },
    {
      "inputs": [],
      "name": "SILVER_REPUTATION_MIN",
      "outputs": [
        {
          "internalType": "uint128",
          "name": "",
          "type": "uint128"
        }
      ],
      "stateMutability": "view",
      "type": "function"
    },
    {
      "inputs": [],
      "name": "SLASH_PERCENT_MAJOR",
      "outputs": [
        {
          "internalType": "uint128",
          "name": "",
          "type": "uint128"
        }
      ],
      "stateMutability": "view",
      "type": "function"
    },
    {
      "inputs": [],
      "name": "SLASH_PERCENT_MINOR",
      "outputs": [
        {
          "internalType": "uint128",
          "name": "",
          "type": "uint128"
        }
      ],
      "stateMutability": "view",
      "type": "function"
    },
    {
      "inputs": [],
      "name": "STATUS_ACTIVE",
      "outputs": [
        {
          "internalType": "uint8",
          "name": "",
          "type": "uint8"
        }
      ],
      "stateMutability": "view",
      "type": "function"
    },
    {
      "inputs": [],
      "name": "STATUS_EXECUTED",
      "outputs": [
        {
          "internalType": "uint8",
          "name": "",
          "type": "uint8"
        }
      ],
      "stateMutability": "view",
      "type": "function"
    },
    {
      "inputs": [],
      "name": "STATUS_PASSED",
      "outputs": [
        {
          "internalType": "uint8",
          "name": "",
          "type": "uint8"
        }
      ],
      "stateMutability": "view",
      "type": "function"
    },
    {
      "inputs": [],
      "name": "STATUS_REJECTED",
      "outputs": [
        {
          "internalType": "uint8",
          "name": "",
          "type": "uint8"
        }
      ],
      "stateMutability": "view",
      "type": "function"
    },
    {
      "inputs": [],
      "name": "STATUS_VETOED",
      "outputs": [
        {
          "internalType": "uint8",
          "name": "",
          "type": "uint8"
        }
      ],
      "stateMutability": "view",
      "type": "function"
    },
    {
      "inputs": [],
      "name": "TIER_BRONZE",
      "outputs": [
        {
          "internalType": "uint8",
          "name": "",
          "type": "uint8"
        }
      ],
      "stateMutability": "view",
      "type": "function"
    },
    {
      "inputs": [],
      "name": "TIER_COMMITTEE",
      "outputs": [
        {
          "internalType": "uint8",
          "name": "",
          "type": "uint8"
        }
      ],
      "stateMutability": "view",
      "type": "function"
    },
    {
      "inputs": [],
      "name": "TIER_GOLD",
      "outputs": [
        {
          "internalType": "uint8",
          "name": "",
          "type": "uint8"
        }
      ],
      "stateMutability": "view",
      "type": "function"
    },
    {
      "inputs": [],
      "name": "TIER_SILVER",
      "outputs": [
        {
          "internalType": "uint8",
          "name": "",
          "type": "uint8"
        }
      ],
      "stateMutability": "view",
      "type": "function"
    },
    {
      "inputs": [],
      "name": "TIMELOCK_LONG",
      "outputs": [
        {
          "internalType": "uint64",
          "name": "",
          "type": "uint64"
        }
      ],
      "stateMutability": "view",
      "type": "function"
    },
    {
      "inputs": [],
      "name": "TIMELOCK_STANDARD",
      "outputs": [
        {
          "internalType": "uint64",
          "name": "",
          "type": "uint64"
        }
      ],
      "stateMutability": "view",
      "type": "function"
    },
    {
      "inputs": [],
      "name": "VOTING_PERIOD",
      "outputs": [
        {
          "internalType": "uint64",
          "name": "",
          "type": "uint64"
        }
      ],
      "stateMutability": "view",
      "type": "function"
    },
    {
      "inputs": [
        {
          "internalType": "bytes32",
          "name": "",
          "type": "bytes32"
        }
      ],
      "name": "approvedResolvers",
      "outputs": [
        {
          "internalType": "bool",
          "name": "",
          "type": "bool"
        }
      ],
      "stateMutability": "view",
      "type": "function"
    },
    {
      "inputs": [
        {
          "internalType": "bytes32",
          "name": "marketId",
          "type": "bytes32"
        },
        {
          "internalType": "address",
          "name": "r1",
          "type": "address"
        },
        {
          "internalType": "address",
          "name": "r2",
          "type": "address"
        },
        {
          "internalType": "address",
          "name": "r3",
          "type": "address"
        }
      ],
      "name": "assignResolverPanel",
      "outputs": [],
      "stateMutability": "nonpayable",
      "type": "function"
    },
    {
      "inputs": [
        {
          "internalType": "address",
          "name": "resolver",
          "type": "address"
        }
      ],
      "name": "blacklistResolver",
      "outputs": [],
      "stateMutability": "nonpayable",
      "type": "function"
    },
    {
      "inputs": [
        {
          "internalType": "address",
          "name": "",
          "type": "address"
        }
      ],
      "name": "blacklistedResolvers",
      "outputs": [
        {
          "internalType": "bool",
          "name": "",
          "type": "bool"
        }
      ],
      "stateMutability": "view",
      "type": "function"
    },
    {
      "inputs": [
        {
          "internalType": "uint64",
          "name": "epochId",
          "type": "uint64"
        }
      ],
      "name": "claimReward",
      "outputs": [],
      "stateMutability": "nonpayable",
      "type": "function"
    },
    {
      "inputs": [
        {
          "internalType": "bytes32",
          "name": "",
          "type": "bytes32"
        }
      ],
      "name": "committeeDecision",
      "outputs": [
        {
          "internalType": "uint8",
          "name": "",
          "type": "uint8"
        }
      ],
      "stateMutability": "view",
      "type": "function"
    },
    {
      "inputs": [
        {
          "internalType": "bytes32",
          "name": "",
          "type": "bytes32"
        }
      ],
      "name": "committeeFinalized",
      "outputs": [
        {
          "internalType": "bool",
          "name": "",
          "type": "bool"
        }
      ],
      "stateMutability": "view",
      "type": "function"
    },
    {
      "inputs": [
        {
          "internalType": "uint256",
          "name": "",
          "type": "uint256"
        }
      ],
      "name": "committeeMembers",
      "outputs": [
        {
          "internalType": "address",
          "name": "",
          "type": "address"
        }
      ],
      "stateMutability": "view",
      "type": "function"
    },
    {
      "inputs": [
        {
          "internalType": "bytes32",
          "name": "",
          "type": "bytes32"
        }
      ],
      "name": "committeeOutcomeVotes",
      "outputs": [
        {
          "internalType": "uint8",
          "name": "",
          "type": "uint8"
        }
      ],
      "stateMutability": "view",
      "type": "function"
    },
    {
      "inputs": [],
      "name": "committeeSize",
      "outputs": [
        {
          "internalType": "uint8",
          "name": "",
          "type": "uint8"
        }
      ],
      "stateMutability": "view",
      "type": "function"
    },
    {
      "inputs": [
        {
          "internalType": "bytes32",
          "name": "marketId",
          "type": "bytes32"
        },
        {
          "internalType": "uint8",
          "name": "outcome",
          "type": "uint8"
        }
      ],
      "name": "committeeVoteResolve",
      "outputs": [],
      "stateMutability": "nonpayable",
      "type": "function"
    },
    {
      "inputs": [
        {
          "internalType": "bytes32",
          "name": "",
          "type": "bytes32"
        }
      ],
      "name": "committeeVoted",
      "outputs": [
        {
          "internalType": "bool",
          "name": "",
          "type": "bool"
        }
      ],
      "stateMutability": "view",
      "type": "function"
    },
    {
      "inputs": [
        {
          "internalType": "uint8",
          "name": "proposalType",
          "type": "uint8"
        },
        {
          "internalType": "bytes32",
          "name": "target",
          "type": "bytes32"
        },
        {
          "internalType": "uint128",
          "name": "payload1",
          "type": "uint128"
        },
        {
          "internalType": "bytes32",
          "name": "payload2",
          "type": "bytes32"
        }
      ],
      "name": "createProposal",
      "outputs": [
        {
          "internalType": "bytes32",
          "name": "",
          "type": "bytes32"
        }
      ],
      "stateMutability": "payable",
      "type": "function"
    },
    {
      "inputs": [],
      "name": "currentEpochId",
      "outputs": [
        {
          "internalType": "uint64",
          "name": "",
          "type": "uint64"
        }
      ],
      "stateMutability": "view",
      "type": "function"
    },
    {
      "inputs": [
        {
          "internalType": "bytes32",
          "name": "",
          "type": "bytes32"
        }
      ],
      "name": "decryptionRequested",
      "outputs": [
        {
          "internalType": "bool",
          "name": "",
          "type": "bool"
        }
      ],
      "stateMutability": "view",
      "type": "function"
    },
    {
      "inputs": [
        {
          "internalType": "address",
          "name": "delegate",
          "type": "address"
        }
      ],
      "name": "delegateVotes",
      "outputs": [],
      "stateMutability": "payable",
      "type": "function"
    },
    {
      "inputs": [],
      "name": "deployer",
      "outputs": [
        {
          "internalType": "address",
          "name": "",
          "type": "address"
        }
      ],
      "stateMutability": "view",
      "type": "function"
    },
    {
      "inputs": [],
      "name": "depositProtocolFees",
      "outputs": [],
      "stateMutability": "payable",
      "type": "function"
    },
    {
      "inputs": [
        {
          "internalType": "bytes32",
          "name": "marketId",
          "type": "bytes32"
        }
      ],
      "name": "escalateToCommunity",
      "outputs": [],
      "stateMutability": "nonpayable",
      "type": "function"
    },
    {
      "inputs": [
        {
          "internalType": "bytes32",
          "name": "",
          "type": "bytes32"
        }
      ],
      "name": "escalations",
      "outputs": [
        {
          "internalType": "bytes32",
          "name": "marketId",
          "type": "bytes32"
        },
        {
          "internalType": "address",
          "name": "initiator",
          "type": "address"
        },
        {
          "internalType": "uint8",
          "name": "proposedOutcome",
          "type": "uint8"
        },
        {
          "internalType": "uint8",
          "name": "status",
          "type": "uint8"
        },
        {
          "internalType": "uint64",
          "name": "initiatedAt",
          "type": "uint64"
        },
        {
          "internalType": "uint128",
          "name": "bondAmount",
          "type": "uint128"
        },
        {
          "internalType": "uint128",
          "name": "votesFor",
          "type": "uint128"
        },
        {
          "internalType": "uint128",
          "name": "votesAgainst",
          "type": "uint128"
        },
        {
          "internalType": "uint64",
          "name": "communityDeadline",
          "type": "uint64"
        }
      ],
      "stateMutability": "view",
      "type": "function"
    },
    {
      "inputs": [
        {
          "internalType": "bytes32",
          "name": "proposalId",
          "type": "bytes32"
        }
      ],
      "name": "executeGovernance",
      "outputs": [],
      "stateMutability": "nonpayable",
      "type": "function"
    },
    {
      "inputs": [
        {
          "internalType": "bytes32",
          "name": "marketId",
          "type": "bytes32"
        }
      ],
      "name": "finalizeCommitteeVote",
      "outputs": [],
      "stateMutability": "nonpayable",
      "type": "function"
    },
    {
      "inputs": [
        {
          "internalType": "bytes32",
          "name": "marketId",
          "type": "bytes32"
        }
      ],
      "name": "finalizeEscalation",
      "outputs": [],
      "stateMutability": "nonpayable",
      "type": "function"
    },
    {
      "inputs": [
        {
          "internalType": "bytes32",
          "name": "proposalId",
          "type": "bytes32"
        }
      ],
      "name": "finalizeVote",
      "outputs": [],
      "stateMutability": "nonpayable",
      "type": "function"
    },
    {
      "inputs": [
        {
          "internalType": "uint128",
          "name": "lpReward",
          "type": "uint128"
        },
        {
          "internalType": "uint128",
          "name": "traderReward",
          "type": "uint128"
        }
      ],
      "name": "fundRewardEpoch",
      "outputs": [],
      "stateMutability": "payable",
      "type": "function"
    },
    {
      "inputs": [
        {
          "internalType": "bytes32",
          "name": "marketId",
          "type": "bytes32"
        }
      ],
      "name": "getPanel",
      "outputs": [
        {
          "components": [
            {
              "internalType": "bytes32",
              "name": "marketId",
              "type": "bytes32"
            },
            {
              "internalType": "address",
              "name": "resolver1",
              "type": "address"
            },
            {
              "internalType": "address",
              "name": "resolver2",
              "type": "address"
            },
            {
              "internalType": "address",
              "name": "resolver3",
              "type": "address"
            },
            {
              "internalType": "uint8",
              "name": "votesSubmitted",
              "type": "uint8"
            },
            {
              "internalType": "uint8[5]",
              "name": "outcomeVotes",
              "type": "uint8[5]"
            },
            {
              "internalType": "bool",
              "name": "finalized",
              "type": "bool"
            },
            {
              "internalType": "uint8",
              "name": "winningOutcome",
              "type": "uint8"
            },
            {
              "internalType": "uint64",
              "name": "assignedAt",
              "type": "uint64"
            }
          ],
          "internalType": "struct FhenixGovernance.MultiResolverPanel",
          "name": "",
          "type": "tuple"
        }
      ],
      "stateMutability": "view",
      "type": "function"
    },
    {
      "inputs": [
        {
          "internalType": "bytes32",
          "name": "proposalId",
          "type": "bytes32"
        }
      ],
      "name": "getProposal",
      "outputs": [
        {
          "components": [
            {
              "internalType": "bytes32",
              "name": "id",
              "type": "bytes32"
            },
            {
              "internalType": "address",
              "name": "proposer",
              "type": "address"
            },
            {
              "internalType": "uint8",
              "name": "proposalType",
              "type": "uint8"
            },
            {
              "internalType": "bytes32",
              "name": "target",
              "type": "bytes32"
            },
            {
              "internalType": "uint128",
              "name": "payload1",
              "type": "uint128"
            },
            {
              "internalType": "bytes32",
              "name": "payload2",
              "type": "bytes32"
            },
            {
              "internalType": "uint128",
              "name": "votesFor",
              "type": "uint128"
            },
            {
              "internalType": "uint128",
              "name": "votesAgainst",
              "type": "uint128"
            },
            {
              "internalType": "uint128",
              "name": "quorumRequired",
              "type": "uint128"
            },
            {
              "internalType": "uint64",
              "name": "createdAt",
              "type": "uint64"
            },
            {
              "internalType": "uint64",
              "name": "votingDeadline",
              "type": "uint64"
            },
            {
              "internalType": "uint64",
              "name": "timelockUntil",
              "type": "uint64"
            },
            {
              "internalType": "uint8",
              "name": "status",
              "type": "uint8"
            }
          ],
          "internalType": "struct FhenixGovernance.Proposal",
          "name": "",
          "type": "tuple"
        }
      ],
      "stateMutability": "view",
      "type": "function"
    },
    {
      "inputs": [
        {
          "internalType": "address",
          "name": "resolver",
          "type": "address"
        }
      ],
      "name": "getResolverProfile",
      "outputs": [
        {
          "components": [
            {
              "internalType": "address",
              "name": "resolver",
              "type": "address"
            },
            {
              "internalType": "uint128",
              "name": "stakeAmount",
              "type": "uint128"
            },
            {
              "internalType": "uint8",
              "name": "tier",
              "type": "uint8"
            },
            {
              "internalType": "uint64",
              "name": "marketsResolved",
              "type": "uint64"
            },
            {
              "internalType": "uint64",
              "name": "disputesReceived",
              "type": "uint64"
            },
            {
              "internalType": "uint64",
              "name": "disputesLost",
              "type": "uint64"
            },
            {
              "internalType": "uint8",
              "name": "strikes",
              "type": "uint8"
            },
            {
              "internalType": "uint128",
              "name": "reputationScore",
              "type": "uint128"
            },
            {
              "internalType": "uint64",
              "name": "registeredAt",
              "type": "uint64"
            },
            {
              "internalType": "uint64",
              "name": "lastActiveAt",
              "type": "uint64"
            },
            {
              "internalType": "bool",
              "name": "isActive",
              "type": "bool"
            }
          ],
          "internalType": "struct FhenixGovernance.ResolverProfile",
          "name": "",
          "type": "tuple"
        }
      ],
      "stateMutability": "view",
      "type": "function"
    },
    {
      "inputs": [
        {
          "internalType": "bytes32",
          "name": "",
          "type": "bytes32"
        }
      ],
      "name": "governanceParams",
      "outputs": [
        {
          "internalType": "uint128",
          "name": "",
          "type": "uint128"
        }
      ],
      "stateMutability": "view",
      "type": "function"
    },
    {
      "inputs": [],
      "name": "governancePaused",
      "outputs": [
        {
          "internalType": "bool",
          "name": "",
          "type": "bool"
        }
      ],
      "stateMutability": "view",
      "type": "function"
    },
    {
      "inputs": [
        {
          "internalType": "bytes32",
          "name": "marketId",
          "type": "bytes32"
        },
        {
          "internalType": "uint8",
          "name": "winningOutcome",
          "type": "uint8"
        }
      ],
      "name": "governanceResolve",
      "outputs": [],
      "stateMutability": "nonpayable",
      "type": "function"
    },
    {
      "inputs": [
        {
          "internalType": "bytes32",
          "name": "",
          "type": "bytes32"
        }
      ],
      "name": "governanceResolvedOutcomes",
      "outputs": [
        {
          "internalType": "uint8",
          "name": "",
          "type": "uint8"
        }
      ],
      "stateMutability": "view",
      "type": "function"
    },
    {
      "inputs": [],
      "name": "guardians",
      "outputs": [
        {
          "internalType": "address",
          "name": "guardian1",
          "type": "address"
        },
        {
          "internalType": "address",
          "name": "guardian2",
          "type": "address"
        },
        {
          "internalType": "address",
          "name": "guardian3",
          "type": "address"
        },
        {
          "internalType": "uint8",
          "name": "threshold",
          "type": "uint8"
        }
      ],
      "stateMutability": "view",
      "type": "function"
    },
    {
      "inputs": [
        {
          "internalType": "address",
          "name": "guardian1",
          "type": "address"
        },
        {
          "internalType": "address",
          "name": "guardian2",
          "type": "address"
        },
        {
          "internalType": "address",
          "name": "guardian3",
          "type": "address"
        },
        {
          "internalType": "address",
          "name": "_marketsContract",
          "type": "address"
        }
      ],
      "name": "initGovernance",
      "outputs": [],
      "stateMutability": "nonpayable",
      "type": "function"
    },
    {
      "inputs": [],
      "name": "initialized",
      "outputs": [
        {
          "internalType": "bool",
          "name": "",
          "type": "bool"
        }
      ],
      "stateMutability": "view",
      "type": "function"
    },
    {
      "inputs": [
        {
          "internalType": "bytes32",
          "name": "marketId",
          "type": "bytes32"
        },
        {
          "internalType": "uint8",
          "name": "proposedOutcome",
          "type": "uint8"
        }
      ],
      "name": "initiateEscalation",
      "outputs": [],
      "stateMutability": "payable",
      "type": "function"
    },
    {
      "inputs": [],
      "name": "marketsContract",
      "outputs": [
        {
          "internalType": "contract IFhenixMarkets",
          "name": "",
          "type": "address"
        }
      ],
      "stateMutability": "view",
      "type": "function"
    },
    {
      "inputs": [
        {
          "internalType": "bytes32",
          "name": "marketId",
          "type": "bytes32"
        },
        {
          "internalType": "uint8",
          "name": "outcome",
          "type": "uint8"
        }
      ],
      "name": "panelVote",
      "outputs": [],
      "stateMutability": "nonpayable",
      "type": "function"
    },
    {
      "inputs": [
        {
          "internalType": "bytes32",
          "name": "",
          "type": "bytes32"
        }
      ],
      "name": "panelVoted",
      "outputs": [
        {
          "internalType": "bool",
          "name": "",
          "type": "bool"
        }
      ],
      "stateMutability": "view",
      "type": "function"
    },
    {
      "inputs": [],
      "name": "proposalCount",
      "outputs": [
        {
          "internalType": "uint256",
          "name": "",
          "type": "uint256"
        }
      ],
      "stateMutability": "view",
      "type": "function"
    },
    {
      "inputs": [
        {
          "internalType": "bytes32",
          "name": "",
          "type": "bytes32"
        }
      ],
      "name": "proposals",
      "outputs": [
        {
          "internalType": "bytes32",
          "name": "id",
          "type": "bytes32"
        },
        {
          "internalType": "address",
          "name": "proposer",
          "type": "address"
        },
        {
          "internalType": "uint8",
          "name": "proposalType",
          "type": "uint8"
        },
        {
          "internalType": "bytes32",
          "name": "target",
          "type": "bytes32"
        },
        {
          "internalType": "uint128",
          "name": "payload1",
          "type": "uint128"
        },
        {
          "internalType": "bytes32",
          "name": "payload2",
          "type": "bytes32"
        },
        {
          "internalType": "uint128",
          "name": "votesFor",
          "type": "uint128"
        },
        {
          "internalType": "uint128",
          "name": "votesAgainst",
          "type": "uint128"
        },
        {
          "internalType": "uint128",
          "name": "quorumRequired",
          "type": "uint128"
        },
        {
          "internalType": "uint64",
          "name": "createdAt",
          "type": "uint64"
        },
        {
          "internalType": "uint64",
          "name": "votingDeadline",
          "type": "uint64"
        },
        {
          "internalType": "uint64",
          "name": "timelockUntil",
          "type": "uint64"
        },
        {
          "internalType": "uint8",
          "name": "status",
          "type": "uint8"
        }
      ],
      "stateMutability": "view",
      "type": "function"
    },
    {
      "inputs": [
        {
          "internalType": "address",
          "name": "user",
          "type": "address"
        },
        {
          "internalType": "uint64",
          "name": "epochId",
          "type": "uint64"
        },
        {
          "internalType": "uint128",
          "name": "lpContribution",
          "type": "uint128"
        },
        {
          "internalType": "uint128",
          "name": "tradeVolume",
          "type": "uint128"
        }
      ],
      "name": "recordContribution",
      "outputs": [],
      "stateMutability": "nonpayable",
      "type": "function"
    },
    {
      "inputs": [],
      "name": "registerResolver",
      "outputs": [],
      "stateMutability": "payable",
      "type": "function"
    },
    {
      "inputs": [
        {
          "internalType": "bytes32",
          "name": "proposalId",
          "type": "bytes32"
        }
      ],
      "name": "requestVoteDecryption",
      "outputs": [],
      "stateMutability": "nonpayable",
      "type": "function"
    },
    {
      "inputs": [
        {
          "internalType": "bytes32",
          "name": "",
          "type": "bytes32"
        }
      ],
      "name": "resolverPanels",
      "outputs": [
        {
          "internalType": "bytes32",
          "name": "marketId",
          "type": "bytes32"
        },
        {
          "internalType": "address",
          "name": "resolver1",
          "type": "address"
        },
        {
          "internalType": "address",
          "name": "resolver2",
          "type": "address"
        },
        {
          "internalType": "address",
          "name": "resolver3",
          "type": "address"
        },
        {
          "internalType": "uint8",
          "name": "votesSubmitted",
          "type": "uint8"
        },
        {
          "internalType": "bool",
          "name": "finalized",
          "type": "bool"
        },
        {
          "internalType": "uint8",
          "name": "winningOutcome",
          "type": "uint8"
        },
        {
          "internalType": "uint64",
          "name": "assignedAt",
          "type": "uint64"
        }
      ],
      "stateMutability": "view",
      "type": "function"
    },
    {
      "inputs": [
        {
          "internalType": "address",
          "name": "",
          "type": "address"
        }
      ],
      "name": "resolverRegistry",
      "outputs": [
        {
          "internalType": "address",
          "name": "resolver",
          "type": "address"
        },
        {
          "internalType": "uint128",
          "name": "stakeAmount",
          "type": "uint128"
        },
        {
          "internalType": "uint8",
          "name": "tier",
          "type": "uint8"
        },
        {
          "internalType": "uint64",
          "name": "marketsResolved",
          "type": "uint64"
        },
        {
          "internalType": "uint64",
          "name": "disputesReceived",
          "type": "uint64"
        },
        {
          "internalType": "uint64",
          "name": "disputesLost",
          "type": "uint64"
        },
        {
          "internalType": "uint8",
          "name": "strikes",
          "type": "uint8"
        },
        {
          "internalType": "uint128",
          "name": "reputationScore",
          "type": "uint128"
        },
        {
          "internalType": "uint64",
          "name": "registeredAt",
          "type": "uint64"
        },
        {
          "internalType": "uint64",
          "name": "lastActiveAt",
          "type": "uint64"
        },
        {
          "internalType": "bool",
          "name": "isActive",
          "type": "bool"
        }
      ],
      "stateMutability": "view",
      "type": "function"
    },
    {
      "inputs": [
        {
          "internalType": "uint64",
          "name": "",
          "type": "uint64"
        }
      ],
      "name": "rewardEpochs",
      "outputs": [
        {
          "internalType": "uint64",
          "name": "epochId",
          "type": "uint64"
        },
        {
          "internalType": "uint128",
          "name": "totalLPReward",
          "type": "uint128"
        },
        {
          "internalType": "uint128",
          "name": "totalTraderReward",
          "type": "uint128"
        },
        {
          "internalType": "uint128",
          "name": "totalLPContributions",
          "type": "uint128"
        },
        {
          "internalType": "uint128",
          "name": "totalTradeVolume",
          "type": "uint128"
        },
        {
          "internalType": "uint64",
          "name": "startedAt",
          "type": "uint64"
        },
        {
          "internalType": "bool",
          "name": "distributed",
          "type": "bool"
        }
      ],
      "stateMutability": "view",
      "type": "function"
    },
    {
      "inputs": [
        {
          "internalType": "address[5]",
          "name": "members",
          "type": "address[5]"
        },
        {
          "internalType": "uint8",
          "name": "size",
          "type": "uint8"
        }
      ],
      "name": "setCommitteeMembers",
      "outputs": [],
      "stateMutability": "nonpayable",
      "type": "function"
    },
    {
      "inputs": [
        {
          "internalType": "address",
          "name": "resolver",
          "type": "address"
        }
      ],
      "name": "slashResolver",
      "outputs": [],
      "stateMutability": "nonpayable",
      "type": "function"
    },
    {
      "inputs": [],
      "name": "treasuryBalance",
      "outputs": [
        {
          "internalType": "uint128",
          "name": "",
          "type": "uint128"
        }
      ],
      "stateMutability": "view",
      "type": "function"
    },
    {
      "inputs": [
        {
          "internalType": "address",
          "name": "delegate",
          "type": "address"
        }
      ],
      "name": "undelegateVotes",
      "outputs": [],
      "stateMutability": "nonpayable",
      "type": "function"
    },
    {
      "inputs": [
        {
          "internalType": "bytes32",
          "name": "proposalId",
          "type": "bytes32"
        }
      ],
      "name": "unlockAfterVote",
      "outputs": [],
      "stateMutability": "nonpayable",
      "type": "function"
    },
    {
      "inputs": [],
      "name": "unstakeResolver",
      "outputs": [],
      "stateMutability": "nonpayable",
      "type": "function"
    },
    {
      "inputs": [
        {
          "internalType": "address",
          "name": "resolver",
          "type": "address"
        },
        {
          "internalType": "bool",
          "name": "resolved",
          "type": "bool"
        },
        {
          "internalType": "bool",
          "name": "disputed",
          "type": "bool"
        },
        {
          "internalType": "bool",
          "name": "disputeLost",
          "type": "bool"
        }
      ],
      "name": "updateResolverStats",
      "outputs": [],
      "stateMutability": "nonpayable",
      "type": "function"
    },
    {
      "inputs": [
        {
          "internalType": "address",
          "name": "resolver",
          "type": "address"
        }
      ],
      "name": "upgradeResolverTier",
      "outputs": [],
      "stateMutability": "nonpayable",
      "type": "function"
    },
    {
      "inputs": [
        {
          "internalType": "bytes32",
          "name": "proposalId",
          "type": "bytes32"
        }
      ],
      "name": "vetoProposal",
      "outputs": [],
      "stateMutability": "nonpayable",
      "type": "function"
    },
    {
      "inputs": [
        {
          "internalType": "bytes32",
          "name": "proposalId",
          "type": "bytes32"
        }
      ],
      "name": "voteAgainst",
      "outputs": [],
      "stateMutability": "payable",
      "type": "function"
    },
    {
      "inputs": [
        {
          "internalType": "bytes32",
          "name": "marketId",
          "type": "bytes32"
        },
        {
          "internalType": "bool",
          "name": "support",
          "type": "bool"
        }
      ],
      "name": "voteEscalation",
      "outputs": [],
      "stateMutability": "payable",
      "type": "function"
    },
    {
      "inputs": [
        {
          "internalType": "bytes32",
          "name": "proposalId",
          "type": "bytes32"
        }
      ],
      "name": "voteFor",
      "outputs": [],
      "stateMutability": "payable",
      "type": "function"
    },
    {
      "inputs": [
        {
          "internalType": "bytes32",
          "name": "marketId",
          "type": "bytes32"
        }
      ],
      "name": "withdrawEscalationBond",
      "outputs": [],
      "stateMutability": "nonpayable",
      "type": "function"
    },
    {
      "inputs": [
        {
          "internalType": "uint128",
          "name": "amount",
          "type": "uint128"
        },
        {
          "internalType": "address",
          "name": "recipient",
          "type": "address"
        }
      ],
      "name": "withdrawTreasury",
      "outputs": [],
      "stateMutability": "nonpayable",
      "type": "function"
    },
    {
      "stateMutability": "payable",
      "type": "receive"
    }
  ],
  "bytecode": "0x608080604052346026575f80546001600160a01b031916331790556154b9908161002b8239f35b5f80fdfe608080604052600436101561001c575b50361561001a575f80fd5b005b5f905f3560e01c908163038a353814614644575080630f5c4969146143d2578063123302ba146143b1578063158ef93e1461438d578063193bad5d146140be5780631b53df86146109db578063206c4b661461405357806321e91f8e14614038578063248bd47114614016578063250948e214613ffb578063286c379b14613ead578063313dab2014613e85578063318dfff114613d8e57806332ed5b1214613cc25780633338519d14610fc55780633515498614613b4857806337d31acc146139275780633a6c6604146111255780633c0847f514610fca578063403eab2b146137e8578063406ee60f1461360557806340e535961461338e57806342a7c6141461336c578063430694cf146131665780634389cc22146117825780634ad86ffc14612f6c5780634cf3ad6a14612ecf5780634f23b35814610fca5780635394c87914610a4357806353dd2687146109db5780635542fa80146111255780635614e1f1146109db5780635a81d4ba14612e875780635cb06d4514610fca57806360d3d0d814612e6b578063665207b614612d45578063673a033714612d185780636759647a14612b0657806367fed20e146129f65780636984a46d146129c75780636b7b8c631461298f5780636e6a626314610a3e57806373b9c867146127fb57806374105d82146104b1578063748d22f214612738578063751b18cb14612709578063761edb4814612681578063797af2bd146126445780637a4bc51a1461260e5780637b7e52f8146124595780637ceb6efd146111205780637e406a3814612306578063815fdf4714611ef257806384060a2914611e66578063843ff9a514611e4457806388ea26e814611c685780638b75d75a146119b25780638b952a36146119265780638be615a7146111255780638c5fcdda146118015780638c72aa13146117d4578063941ff2e5146117a75780639a46e412146111255780639cf4364b146117875780639d142a0b14611782578063a138d18a14611671578063a42bd558146114a8578063a45c38471461131d578063a574511c1461112a578063abbf52dc14611125578063acb34f7014611120578063adf758f614611103578063b1610d7e146110e5578063b5785f9c14610fcf578063b8f07dea146109db578063baab957414610fca578063bb43207414610fc5578063bb601d0014610fa9578063bc89d95814610f15578063c4e9ff4a14610ef9578063c593a10814610e44578063c699c38414610cb1578063c98327d614610c88578063d028b71014610adc578063d373d36914610ac0578063d5f3948814610a99578063d957dff7146104b1578063da35c66414610a7b578063dcb6375514610a48578063ddc6739e14610a43578063de4b6803146109db578063de65e34114610a3e578063e066016714610a0f578063e37a7efd146109e0578063e3d3f843146109db578063e6cee0ae146108d2578063e8ea4c76146105f4578063eacdc5ff146105cb578063f51ceca014610501578063fbf49bfd146104e5578063fc123004146104b6578063ff808c29146104b15763ffa12de40361000f57346104ae57806003193601126104ae5760206040516202a3008152f35b80fd5b6147e6565b50346104ae5760203660031901126104ae5760ff60406020926004358152601e84522054166040519015158152f35b50346104ae57806003193601126104ae57602060405160198152f35b50346104ae5760403660031901126104ae5761051b6147af565b610523614663565b825490916001600160a01b039161053d9083163314614a2f565b602654916001600160801b0391828416918184169083821161059457610591968896879661056e8897968897614c45565b6001600160801b0319909216911617602655165af161058b614c5e565b50614c9c565b80f35b60405162461bcd60e51b815260206004820152600f60248201526e457863656564732062616c616e636560881b6044820152606490fd5b50346104ae57806003193601126104ae576022546040516001600160401b039091168152602090f35b50346104ae576020806003193601126108ce576004359061061b60ff845460a01c16614823565b8183526002908181526040842091600783018054600160ff8260401c160361089c576001600160401b038116421061086a5760ff60401b1916600360401b179055600183015460a01c60ff168181036106c7575060038301549201548452601f90526040832080546001600160801b0319166001600160801b03929092169190911790555b7f7b1bcf1ccf901a11589afff5504d59fd0a53780eed2a952adade0348985139e08280a280f35b60048103610705575060038301549201548452601f90526040832080546001600160801b0319166001600160801b03929092169190911790556106a0565b6005810361073057505090600360018060801b0391015416151560ff801983541691161790556106a0565b600681036107555750601e92015484525260408220600160ff198254161790556106a0565b60018103610783575090601d9160ff600385015416930154855252604083209060ff198254161790556106a0565b6003915014610794575b50506106a0565b60038201546004909201546026546001600160801b039384169380821680861161083257856107c291614c45565b6001600160801b03199092169116176026556001600160a01b03169081156107ff57508380806107f89481945af161058b614c5e565b5f8061078d565b6064906040519062461bcd60e51b82526004820152600c60248201526b5a65726f206164647265737360a01b6044820152fd5b60405162461bcd60e51b815260048101869052601060248201526f4578636565647320747265617375727960801b6044820152606490fd5b60405162461bcd60e51b815260048101859052600a602482015269151a5b595b1bd8dad95960b21b6044820152606490fd5b60405162461bcd60e51b815260048101859052600a602482015269139bdd081c185cdcd95960b21b6044820152606490fd5b5080fd5b50346104ae5760203660031901126104ae576004356108f760ff835460a01c16614823565b8082526028602052604082206001810190815461091c600260ff8360a81c1614614ad4565b600382015490608082901c6001600160401b03164211156109a75760ff60a81b1916600360a81b1792839055600282015460801c6001600160801b03909116101561099157548352601d60205260ff604084209160a01c1660ff198254161790555f805160206154048339815191528280a280f35b50505f805160206154048339815191528280a280f35b60405162461bcd60e51b815260206004820152600c60248201526b5374696c6c20766f74696e6760a01b6044820152606490fd5b6146bb565b50346104ae5760203660031901126104ae5760ff60406020926004358152601a84522054166040519015158152f35b50346104ae5760203660031901126104ae5760ff60406020926004358152601784522054166040519015158152f35b6147c5565b614762565b50346104ae5760203660031901126104ae576020906004358152601f8252604060018060801b0391205416604051908152f35b50346104ae57806003193601126104ae576020600354604051908152f35b50346104ae57806003193601126104ae57546040516001600160a01b039091168152602090f35b50346104ae57806003193601126104ae57602060405160058152f35b50346104ae5760803660031901126104ae57610af66146a5565b610afe6146e6565b6044358015158103610c8457606435928315158403610c845784546001600160a01b039190610b309083163314614a2f565b168452600f6020526040842091610b4d60ff600485015416614e7d565b610c2d575b610b9e575b61059191610b73575b426001600160401b031690600301614a0c565b600281018054610b999190610b939060401c6001600160401b0316614eb6565b906149ba565b610b60565b6002810180546001600160401b03610bb7818316614eb6565b6001600160401b031990921691161790556003810180546001600160801b0393919084811660c8811115610c225760c7190194808611610c0e57610591955b6001600160801b031990921691161790559150610b57565b634e487b7160e01b5f52601160045260245ffd5b506105919486610bf6565b600182018054610c539190610c4d9060881c6001600160401b0316614eb6565b90614991565b6003820180546001600160801b03808216606401818111610c0e576001600160801b03199092169116179055610b52565b5f80fd5b50346104ae57806003193601126104ae576001546040516001600160a01b039091168152602090f35b50346104ae5760403660031901126104ae57600435610cce6146d6565b90610cd83361511d565b15610e0f5760ff9081831691600183101580610e04575b610cf890614a9e565b818552602090601a8252610d128160408820541615614d4d565b6040519482860186610d25338784614b8b565b0396610d39601f1998898101835282614951565b51902080885260178452610d538360408a20541615614ba9565b875260178352604087209560ff1996600188825416179055610d8d6040519182610d81878201958987614f3b565b03908101835282614951565b519020808752601883526040872080548784610daa818416614d8d565b169116179055865260188252607f610dcc826040892054169260165416614f59565b60011c161115610dda578480f35b6019918552601a8152604085206001858254161790555260408320918254161790555f8080808480f35b506004831115610cef565b60405162461bcd60e51b815260206004820152600d60248201526c4e6f7420636f6d6d697474656560981b6044820152606490fd5b50346104ae5760c03660031901126104ae573660a4116104ae5760a43560ff8116809103610c845781546001600160a01b0390610e849082163314614a2f565b6005808311610ecc57839160045b828410610ea957858560ff19601654161760165580f35b8035938285168503610ec8576020600192019481601101550192610e92565b8680fd5b60405162461bcd60e51b81526020600482015260056024820152644d6178203560d81b6044820152606490fd5b50346104ae57806003193601126104ae57602060405160328152f35b50346104ae5760203660031901126104ae576040610100916004358152601b6020522080549060ff60018060a01b03918260018201541692806002830154166005600384015493015494604051968752602087015260408601528116606085015260a01c16608083015260ff8116151560a083015260ff8160081c1660c083015260018060401b039060101c1660e0820152f35b50346104ae57806003193601126104ae576020604051600a8152f35b6146f5565b61472d565b50346104ae576020806003193601126108ce5760043590818352601a815260ff610fff8160408620541615614d4d565b83928460015b6004848216111561108a575082607f6110218260165416614f59565b60011c16911610611057578452601a82526019604085209260ff1993600185825416179055526040842092169082541617905580f35b60405162461bcd60e51b815260048101849052600b60248201526a4e6f206d616a6f7269747960a81b6044820152606490fd5b604051858101906110ae816110a0858886614f3b565b03601f198101835282614951565b5190208752601885528360408820541684831681116110d7575b506110d290614d8d565b611005565b915094506110d285906110c8565b50346104ae57806003193601126104ae57602060405162093a808152f35b50346104ae57806003193601126104ae576020604051612ee08152f35b614801565b614712565b50346104ae576020806003193601126108ce576111456146a5565b61115560ff845460a01c16614823565b6001600160a01b0316808352600f825260408320600481015491929161117d9060ff16614e7d565b600181019081549060ff8260801c16600181145f14611247575082549150600a608883901c6001600160401b03161015908161122b575b50156111ec5760ff60801b1916600160811b1781555f80516020615464833981519152919060ff905b5460801c16604051908152a280f35b60405162461bcd60e51b81526004810184905260176024820152762737ba1032b634b3b4b13632903337b91029b4b63b32b960491b6044820152606490fd5b60030154612ee06001600160801b03909116101590505f6111b4565b6002036112ed576032608883901c6001600160401b0316101590816112d1575b50156112945760ff60801b1916600360801b1781555f80516020615464833981519152919060ff906111dd565b60405162461bcd60e51b8152600481018490526015602482015274139bdd08195b1a59da589b1948199bdc8811dbdb19605a1b6044820152606490fd5b60030154613a986001600160801b03909116101590505f611267565b60405162461bcd60e51b815260048101859052600860248201526726b0bc103a34b2b960c11b6044820152606490fd5b5034610c845760209081600319360112610c845760043561134460ff5f5460a01c16614823565b805f5260028352611374600660405f2061136860ff600783015460401c1615614e7d565b015460c01c4211614ee8565b805f526027835260ff60405f20541661146f57805f526027835260405f20600160ff198254161790556006835260405f20545f805160206153e483398151915291823b15610c84576040515f81806113dc630828982760e01b96878352339060048401614f22565b038183885af1801561146457611450575b5083946007918552526040832054823b1561144b5761141f928492836040518096819582948352339060048401614f22565b03925af18015611440576114305750f35b611439906148ed565b6104ae5780f35b6040513d84823e3d90fd5b505050fd5b61145b9194506148ed565b5f9260076113ed565b6040513d5f823e3d90fd5b60405162461bcd60e51b8152600481018490526011602482015270105b1c9958591e481c995c5d595cdd1959607a1b6044820152606490fd5b34610c84576080366003190112610c84576114c16146a5565b6114c9614663565b906114d2614679565b6114da61468f565b5f546001600160a01b03939092906114f53386861614614a2f565b60ff8460a01c16611636578416928315158061162b575b80611620575b156115eb5760405160808101959093906001600160401b038711858810176115d7576002606082807f4a6ddf93c527399b46fddcb30aee5fa9e0ebdff88835732f27b9acf755b012c59b839b6040528a8a5216968760208a01521696876040820152015260018060a01b0319918683600a541617600a558483600b541617600b55600160a11b8660018060a81b0319600c54161717600c5516906001541617600155600160a01b9060ff60a01b1916175f5560405192835260208301526040820152a1005b634e487b7160e01b5f52604160045260245ffd5b60405162461bcd60e51b815260206004820152600d60248201526c2d32b9379033bab0b93234b0b760991b6044820152606490fd5b508482161515611512565b50848616151561150c565b60405162461bcd60e51b8152602060048201526013602482015272105b1c9958591e481a5b9a5d1a585b1a5e9959606a1b6044820152606490fd5b34610c84576020366003190112610c84576004355f5461169660ff8260a01c16614823565b815f52602860205260405f20600181018054600160ff8260a81c160361174d5761170a936116e090336001600160a01b039182161490811561173c575b8115611730575b50614e40565b60ff60a81b1916600160a91b1790556003611703426001600160401b0316614ece565b91016149e3565b7fe0d9c289d3dfc546543e395b5019f15adb316000bfba80b7cdb64dbc85b3a59c5f80a2005b905082163314876116da565b905061174733614f6b565b906116d3565b60405162461bcd60e51b815260206004820152600d60248201526c139bdd081a5b9a5d1a585d1959609a1b6044820152606490fd5b614748565b34610c84575f366003190112610c8457602060ff60165416604051908152f35b34610c84576020366003190112610c84576004355f526018602052602060ff60405f205416604051908152f35b34610c84576020366003190112610c84576004355f52601d602052602060ff60405f205416604051908152f35b6020366003190112610c84576118156146a5565b61182560ff5f5460a01c16614823565b6001600160a01b038116908115158061191c575b156118e457611849341515614b54565b6040516001600160801b039134831691602081019161186f9082906110a0903386614c21565b5190205f52600d60205260405f208054908361188d84828516614be5565b1660018060801b0319809316179055835f52600e60205260405f20926118b7845493828516614be5565b169116179055337ffaf6077d874fc7f1716637c6f4ac4914ce0cfbf27767bb442ed23dd08dad40445f80a3005b60405162461bcd60e51b815260206004820152601060248201526f496e76616c69642064656c656761746560801b6044820152606490fd5b5033821415611839565b34610c84576020366003190112610c845761193f6146a5565b5f546001600160a01b03919082163314801561199e575b61195f90614e40565b16805f52600f602052600460405f200160ff19908181541690556010602052600160405f20918254161790555f805160206154448339815191525f80a2005b5061195f6119ab33614f6b565b9050611956565b34610c8457602080600319360112610c8457600435906119d860ff5f5460a01c16614823565b815f526002815260405f209060078201916119fa60ff845460401c1615614e7d565b60068101611a0d815460c01c4211614ee8565b845f526027835260ff60405f20541615611c2857845f5260068352611a3560405f205461508b565b91865f5260078552611a4a60405f205461508b565b84919491611c20575b5015611bcf576005840180546001600160801b0319166001600160801b038085169182178355909390929183918291611a98918891611a93908390614bfe565b614be5565b925416911610159283611bc3575b5050505f14611b9a57825460ff60401b198116600160401b90811785556001929092015460a01c60ff1660058103611b1557505082546001600160401b031916426001600160401b0316178355505f805160206154248339815191529160ff905b5460401c16604051908152a2005b600303611b5957505f805160206154248339815191529260ff91506001600160401b03611b43428216614ece565b82546001600160401b0319169116178155611b07565b6001600160401b03934285166202a30001929091858411610c0e575f805160206154248339815191529560ff94169060018060481b03191617178155611b07565b50815460ff60401b1916600160411b1782555f805160206154248339815191529160ff90611b07565b16109050858080611aa6565b60405162461bcd60e51b815260048101869052602360248201527f44656372797074696f6e2070656e64696e672c2074727920616761696e206c616044820152623a32b960e91b6064820152608490fd5b905088611a53565b60405162461bcd60e51b8152600481018490526018602482015277111958dc9e5c1d1a5bdb881b9bdd081c995c5d595cdd195960421b6044820152606490fd5b34610c84576020366003190112610c8457610160611c846146a5565b5f610140604051611c9481614899565b8281528260208201528260408201528260608201528260808201528260a08201528260c08201528260e08201528261010082015282610120820152015260018060a01b038091165f52600f60205261014060405f209160ff600460405192611cfb84614899565b85541694858452600181015460018060801b0381166020860152838160801c16604086015260018060401b039060881c16606085015282600282015460018060401b038116608087015260018060401b038160401c1660a087015260801c1660c0850152600381015460018060801b03811660e086015260018060401b038160801c1661010086015260c01c61012085015201541615158282015260405192835260018060801b03602082015116602084015260ff604082015116604084015260018060401b03606082015116606084015260018060401b03608082015116608084015260018060401b0360a08201511660a084015260ff60c08201511660c084015260018060801b0360e08201511660e084015260018060401b036101008201511661010084015260018060401b036101208201511661012084015201511515610140820152f35b34610c84575f366003190112610c8457602060405167016345785d8a00008152f35b34610c84575f366003190112610c8457335f52600f602052611ecb5f80808060408120600481016001815492611e9e60ff8516614e7d565b01805460ff199093169091556001600160801b0319821690556001600160801b0316335af161058b614c5e565b337f4db43c6bd5697f90f162476577384e8e775d3c164c8cfaca155e43969f44187b5f80a2005b6080366003190112610c845760043560ff811690818103610c8457602435611f18614799565b611f2860ff5f5460a01c16614823565b611f3760ff6020541615614cda565b6001841015806122fb575b156122c757611f5a662386f26fc10000341015614861565b60405160208101903360601b825260ff60f81b8560f81b16603482015283603582015260018060801b03198360801b16605582015242606582015260658152611fa281614900565b5190205f818152600260205260409020600101549093906001600160a01b031661229957611fcf90614fa9565b906001600160401b0342811662093a800111610c0e5760405192611ff2846148d1565b848452336020808601918252604080870189815260608801949094526001600160801b03948516608088015260643560a08801525f60c0880181905260e0880181905295909416610100870152426001600160401b03908116610120880181905262093a8001166101408701526101608601859052610180860185905286855260029052919092208351815590516001820180546001600160a01b0319166001600160a01b039290921691909117815591516007926120b49160ff1690614a6b565b6060830151600282015560808301516003820180546001600160801b03199081166001600160801b039384161790915560a0850151600484015560c085015160058401805490921690831617815560e0850151612112921690614bfe565b6101008301516006820180546001600160801b0319166001600160801b039290921691909117815561012084015161216d9190612158906001600160401b0316826149e3565b6101408501516001600160401b031690614a0c565b019060018060401b036101608201511682549161018060ff60401b91015160401b169160018060481b031916171790556121a56152f7565b6121ae81615033565b815f52600660205260405f20556121c36152f7565b6121cc81615033565b5f82815260076020908152604080832093909355338252600890522080546001600160801b0334811692919061220484828416614be5565b6001600160801b03199092169116179055604051602081019061222c816110a0338786614b8b565b5190205f90815260096020526040902080546001600160801b03191690911790556003545f198114610c0e577fc4b64ebdae706e07f37a5858b10df15949d7d4ca87db72ef3459de00499926c16040602094600185940160035581519033825286820152a2604051908152f35b60405162461bcd60e51b815260206004820152600660248201526545786973747360d01b6044820152606490fd5b60405162461bcd60e51b815260206004820152600c60248201526b496e76616c6964207479706560a01b6044820152606490fd5b506006841115611f42565b34610c8457602080600319360112610c84576004359060405181810190612332816110a0338786614b8b565b5190205f818152602a8352604080822054948252602884529020600181015491936001600160801b03929083169190336001600160a01b038216148061244a575b6123e1575b5050169182156123b2575f908152602a9091526040812080546001600160801b031916905561001a91819081908190335af161058b614c5e565b60405162461bcd60e51b8152600481018390526007602482015266139bc8189bdb9960ca1b6044820152606490fd5b60ff60039160a81c16036124165760020161240181549284841690614be5565b6001600160801b031990921690558480612378565b60405162461bcd60e51b815260048101859052600c60248201526b139bdd081c995cdbdb1d995960a21b6044820152606490fd5b50836002830154161515612373565b6040366003190112610c845761246d6147af565b6001600160801b0360243581811690818103610c84576124a2839161249c60018060a01b035f54163314614a2f565b85614be5565b1634106125da576022546001600160401b039190826124c2818316614eb6565b166001600160401b03199190911681176022556040519360e08501858110858211176115d7577fb00e9a0f78c6d14cd765a1117e8dc25aa671fcd00e523df2124f52d7a080a069966020966125b4938793604052858252808983019316835260408201968752600260608301925f84526125a160808201995f8b5260a0830196884216885260c084019a5f8c525f5260218e528860405f20945116845491600160401b600160c01b03905160401b169160018060c01b031916171783558480600185019251169660018060801b03199788845416178355511690614bfe565b01965116908654161785555116836149e3565b51815460ff60c01b191690151560c01b60ff60c01b1617905560225460405191168152a1005b60405162461bcd60e51b815260206004820152600c60248201526b125b9cdd59999a58da595b9d60a21b6044820152606490fd5b34610c84576020366003190112610c84576004356005811015610c8457601101546040516001600160a01b039091168152602090f35b34610c84576020366003190112610c84576001600160a01b036126656146a5565b165f526010602052602060ff60405f2054166040519015158152f35b34610c84576020366003190112610c845760e06001600160401b03806126a5614783565b165f52602160205260ff60405f2080549260018060801b0360026001840154930154928160405196848116885260401c166020870152818116604087015260801c6060860152821660808501528160801c1660a084015260c01c16151560c0820152f35b34610c84576020366003190112610c84576004355f526027602052602060ff60405f2054166040519015158152f35b34610c84576020366003190112610c84576101606001600160a01b038061275d6146a5565b165f52600f60205260405f20908154169060018101549060018060801b0360018060401b039060ff6002840154838260046003880154970154169660405198895284811660208a0152838160801c1660408a015260881c1660608801528381166080880152838160401c1660a088015260801c1660c0860152821660e08501528160801c1661010084015260c01c6101208301521515610140820152f35b34610c84576020366003190112610c84576128146146a5565b5f546001600160a01b03919082163314801561297b575b61283490614e40565b16805f52600f60205260405f20600481019061285360ff835416614e7d565b60ff6002820161287161286b83835460801c16614d8d565b82614974565b5460801c1660028110612973576019925b6001830191600383549460018060801b0394856128b16064826128a8818c169c8d614df8565b1604809a614c45565b166001600160801b031997881617905501805491908483166103e8811115612967576103e7190192858411610c0e5786866003955b1691161790551015612930575b5061290360265493828516614be5565b169116176026557f5470b8ece6d890d8e43d24f952e3f09db58f48c15c5f2039537b8b1f322d23cd5f80a2005b60ff1990818154169055845f526010602052600160405f2091825416179055835f805160206154448339815191525f80a2846128f3565b5060039286865f6128e6565b600a92612882565b5061283461298833614f6b565b905061282b565b5f366003190112610c84576026546001600160801b036129b3348216838316614be5565b6001600160801b0319909216911617602655005b34610c84576020366003190112610c84576004355f52601c602052602060ff60405f2054166040519015158152f35b34610c84576080366003190112610c8457612a0f6146a5565b6024356001600160401b038116808203610c8457612a2b614799565b6001600160801b03936064359391908585168503610c84576110a0612a71600294612a6060018060a01b035f54163314614a2f565b604051928391602083019586614dcb565b51902092835f52602360205260405f209384549487612a9285828916614be5565b166001600160801b03199687161790555f90815260246020526040902080548588612abf89828516614be5565b1691161790555f526021602052612aec60405f2091612ae66001840191825460801c614be5565b90614bfe565b0192612afc845493828516614be5565b1691161790555f80f35b34610c8457602080600319360112610c8457612b20614783565b9060405181810190612b37816110a0863386614dcb565b51902091825f526025825260ff60405f205416612ce1576001600160401b039081165f9081526021835260409020805491821615612cb157612bd490845f526023845260018060801b03928360405f205416602486528460405f2054165f92600185015492878460801c9283151580612ca8575b612c88575b509150508060025f960154169283151580612c7f575b612c5d575b50505050614be5565b16918215612c2c575f80612c059460258295839584525260408220600160ff19825416179055335af161058b614c5e565b337fea61a2a22523394f29506de20cc9db2e881f096477982d51012058ec9032714a5f80a2005b60405162461bcd60e51b8152600481018390526009602482015268139bc81c995dd85c9960ba1b6044820152606490fd5b612c7594955090612c7092911690614df8565b614e14565b9086808581612bcb565b50821515612bc6565b612c9e94965090612c70929160401c1690614df8565b9188808781612bb0565b50821515612bab565b60405162461bcd60e51b815260048101849052600860248201526709cde40cae0dec6d60c31b6044820152606490fd5b60405162461bcd60e51b815260048101839052600f60248201526e105b1c9958591e4818db185a5b5959608a1b6044820152606490fd5b34610c84576020366003190112610c84576004355f526019602052602060ff60405f205416604051908152f35b34610c84576020366003190112610c8457600a5460043590336001600160a01b0391821614908115612e5c575b8115612e4e575b5015612e1a57805f526002602052600760405f2001805460ff8160401c168015908115612e0f575b5015612ddc5760ff60401b1916600160421b1790557f0c8bf601915d1f39ef591226bc69b3becc23fcb3616673c419062aa44beb42da5f80a2005b60405162461bcd60e51b815260206004820152600b60248201526a43616e6e6f74207665746f60a81b6044820152606490fd5b600191501484612da1565b60405162461bcd60e51b815260206004820152600c60248201526b2737ba1033bab0b93234b0b760a11b6044820152606490fd5b9050600c5416331482612d79565b809150600b5416331490612d72565b34610c84575f366003190112610c84576020604051613a988152f35b34610c84575f366003190112610c8457608060018060a01b0360ff81600a54169180600b541690600c549160405194855260208501528116604084015260a01c166060820152f35b34610c84576020366003190112610c84576004355f52602860205261012060405f20805490600181015460018060401b0391600281015483600360018060801b039301549360405196875260018060a01b038116602088015260ff8160a01c16604088015260ff8160a81c16606088015260b01c16608086015281811660a086015260801c60c0850152811660e084015260801c16610100820152f35b34610c84576040366003190112610c8457600435612f886146d6565b815f52601b60205260405f20906005820160ff612fa88183541615614d4d565b6001840154336001600160a01b0391821614908115613155575b8115613145575b50156131115780612fea600292851660018110159081613105575b50614d0f565b6040516020810190613001816110a0338b86614b8b565b519020805f52601c60205261301c8260405f20541615614ba9565b5f52601c6020526130be84600460405f209760ff199860018a8254161790556130576003820161305187825460a01c16614d8d565b90614a6b565b016130916130658383614d9e565b81929154908761307b81848460031b1c16614d8d565b16919060ff809160031b9316831b921b19161790565b905533897fc1a68409b147b9ff15e83543c7963d151c009b8065d5e84b69728ce3389acb035f80a3614d9e565b90549060031b1c1610156130ce57005b60016130df93825416178155614a88565b7f013aa7c30259518765cad3f3d03676a3c0b543b5dd889be5c75f1ef81171b2475f80a2005b60049150111588612fe4565b60405162461bcd60e51b815260206004820152600c60248201526b139bdd081bdb881c185b995b60a21b6044820152606490fd5b9050600385015416331486612fc9565b809150600286015416331490612fc2565b34610c84576020366003190112610c84575f610180604051613187816148d1565b8281528260208201528260408201528260608201528260808201528260a08201528260c08201528260e08201528261010082015282610120820152826101408201528261016082015201526004355f5260026020526101a060405f2060ff6101806040516131f4816148d1565b82600785549586845282600182015460018060a01b038116602087015260a01c1660408501526002810154606085015260018060801b036003820154166080850152600481015460a0850152600581015460018060801b03811660c086015260801c60e0850152600681015460018060801b03811661010086015260018060401b038160801c1661012086015260c01c610140850152015460018060401b03811661016084015260401c168282015260405193845260018060a01b0360208201511660208501528260408201511660408501526060810151606085015260018060801b03608082015116608085015260a081015160a085015260018060801b0360c08201511660c085015260018060801b0360e08201511660e085015260018060801b036101008201511661010085015260018060401b036101208201511661012085015260018060401b036101408201511661014085015260018060401b0361016082015116610160850152015116610180820152f35b34610c84575f366003190112610c84576020604051670de0b6b3a76400008152f35b602080600319360112610c84576004356133ae60ff5f5460a01c16614823565b6133bc60ff83541615614cda565b5f818152600283526040812060018101549193916001600160a01b0316156135d4576006816133f860ff600761340595015460401c1615614e7d565b015460c01c421115614b18565b66038d7ea4c6800034106135a55760405181810190613429816110a0338786614b8b565b519020805f526004825261344460ff60405f20541615614ba9565b5f818152600483526040808220805460ff1916600117905533825260088452902080546134b091346001600160801b0390811692919061348684848316614be5565b166001600160801b03199283161790555f8481526009865260409020805490911682179055615384565b906134ba82615033565b5f805160206153e4833981519152803b15610c84575f6040518092631974142760e21b82528183816134f0338a60048401614f22565b03925af1801561146457613592575b50845260058252806040852055835f1461356457613529600691848652828452604086205461516d565b9161353383615033565b8385525260408320555b7faa1c368ec955231333de5b5e0f09d0b2c72d83a2361a709edd03fb3636bd69d7339280a3005b61357a600791845f5282845260405f205461516d565b9161358483615033565b835f525260405f205561353d565b61359d9195506148ed565b5f93856134ff565b6064906040519062461bcd60e51b8252600482015260086024820152674d696e20766f746560c01b6044820152fd5b60405162461bcd60e51b8152600481018390526009602482015268139bdd08199bdd5b9960ba1b6044820152606490fd5b34610c84576020366003190112610c84575f610100604051613626816148b5565b82815282602082015282604082015282606082015282608082015260405161364d81614900565b60a036823760a08201528260c08201528260e082015201526004355f52601b60205260405f2060405161367f816148b5565b81548152600560019260018060a01b03600182015416602084015260018060a01b03600282015416604084015260ff600382015460018060a01b038116606086015260a01c16608084015260405160ff60048301548181168352818160081c166020840152818160101c166040840152818160181c16606084015260201c16608082015261370c81614900565b60a0840152015460ff8116151560c083015260ff8160081c1660e083015260018060401b039060101c16610100820152604051908051825260018060a01b03602082015116602083015260018060a01b03604082015116604083015260018060a01b03606082015116606083015260ff608082015116608083015260a081015160a083015f905b600582106137d15760c0840151151561014086015260e084015160ff166101608601526101008401516001600160401b03166101808601526101a085f35b825160ff1681526020928301929186019101613793565b34610c8457602080600319360112610c8457600435805f526002825260405f2060ff600782015460401c161590811591613916575b50156138e257604051613839816110a085820194339086614b8b565b5190205f8181526009835260409020546001600160801b03908116929183156138ac575f61001a948194829483948452600982526008604085209260018060801b03199384815416905533865252604084209182549161389b85828516614c45565b169116179055335af161058b614c5e565b60405162461bcd60e51b815260048101849052600e60248201526d139bdd1a1a5b99c81b1bd8dad95960921b6044820152606490fd5b60405162461bcd60e51b815260048101839052600c60248201526b5374696c6c2061637469766560a01b6044820152606490fd5b60069150015460c01c42118361381d565b6040366003190112610c845760043561393e6146d6565b61394e60ff5f5460a01c16614823565b662386f26fc100003410613b185760ff16600181101580613b0d575b61397390614d0f565b815f52602860205260ff600160405f20015460a81c16613ad457604051906001600160401b03906001600160801b036139ab846148b5565b8484526020840190338252604085019283526060850194600186526080810192854216845260a0820190833416825260c08301945f865260e08401985f8a526101008501975f89528b5f52602860205260405f20955186556001860193600160a01b60019003905116600160a01b60019003198554161784555160ff16613a329084614a6b565b5182549151600160a81b600160f01b031990921660a89190911b60ff60a81b161760b09190911b600160b01b600160f01b0316179055516002820180546001600160801b031990811692851692909217815593519093613a9491841690614bfe565b600301945116908454161783555116613aac916149e3565b33907f7404806e336c5d4c6550cd2195bb0429b2ca22dad17554554704a37e8a2d73475f80a3005b60405162461bcd60e51b8152602060048201526011602482015270105b1c9958591e48195cd8d85b185d1959607a1b6044820152606490fd5b50600481111561396a565b60405162461bcd60e51b8152602060048201526008602482015267135a5b88189bdb9960c21b6044820152606490fd5b602080600319360112610c8457600435613b6860ff5f5460a01c16614823565b613b7660ff83541615614cda565b5f818152600283526040812060018101549193916001600160a01b0316156135d4576006816133f860ff6007613bb295015460401c1615614e7d565b66038d7ea4c6800034106135a55760405181810190613bd6816110a0338786614b8b565b519020805f5260048252613bf160ff60405f20541615614ba9565b5f818152600483526040808220805460ff191660011790553382526008845290208054613c3391346001600160801b0390811692919061348684848316614be5565b90613c3d82615033565b5f805160206153e4833981519152803b15610c84575f6040518092631974142760e21b8252818381613c73338a60048401614f22565b03925af1801561146457613ca6575b5060069161352991865260058452806040872055848652828452604086205461516d565b61352991955091613cb86006936148ed565b5f95915091613c82565b34610c84576020366003190112610c84576004355f5260026020526101a060405f2060ff815491600181015490600281015460018060801b0380600384015416600484015460058501549160068601549488600760018060401b03980154986040519b8c5260018060a01b03811660208d015260a01c1660408b015260608a0152608089015260a088015281811660c088015260801c60e08701528116610100860152818160801c1661012086015260c01c610140850152811661016084015260401c16610180820152f35b34610c8457602080600319360112610c8457613da86146a5565b60405182810190613dbe816110a0853386614c21565b5190205f818152600d845260409020546001600160801b0390811692918315613e50575f613e29948194829483948452600d8952600e604085209260018060801b03199384815416905560018060a01b0316998a865252604084209182549161389b85828516614c45565b337fd34d27e61da1c0024d36fb461da2b2cc55f26de3975c87a55e96d835f66746295f80a3005b60405162461bcd60e51b815260048101869052600d60248201526c2737903232b632b3b0ba34b7b760991b6044820152606490fd5b34610c84575f366003190112610c84576026546040516001600160801b039091168152602090f35b6040366003190112610c8457600435613ec46146e6565b613ed460ff5f5460a01c16614823565b815f52602860205260405f2090613ef7600260ff600185015460a81c1614614ad4565b600382018054613f159060801c6001600160401b0316421115614b18565b613f20341515614b54565b6040516020810190613f37816110a0338986614b8b565b519020805f526029602052613f5360ff60405f20541615614ba9565b5f908152602960209081526040808320805460ff19166001179055602a909152902080546001600160801b0319908116346001600160801b039081169182179093559390919015613fde57505050612ae66002613fb6930191825460801c614be5565b33907f22a5a5d460cd4ce1243126db20b92ed4dcc3af7df8ebe099103571036e0986625f80a3005b90919350613ff0845493828516614be5565b169116179055613fb6565b34610c84575f366003190112610c8457602060405160068152f35b34610c84575f366003190112610c845760206040516703782dace9d900008152f35b34610c84575f366003190112610c84576020604051600a8152f35b34610c84576040366003190112610c845760ff61406e6146d6565b61408260018060a01b035f54163314614a2f565b166001811015806140b3575b61409790614a9e565b6004355f52601d60205260405f209060ff198254161790555f80f35b50600481111561408e565b34610c84576080366003190112610c84576004356140da614663565b906140e3614679565b6140eb61468f565b5f546001600160a01b039485916141059083163314614a2f565b1691825f52602094600f865260ff9182600460405f200154161561435857811692835f52600f875282600460405f200154161561432357811695865f52600f815282600460405f20015416156142ef576040516001600160401b03949060a08101868111828210176115d7576040525f81528281015f9052604081015f9052606081015f9052608081015f90526040519861419f8a6148b5565b888a52838a0197885260408a0192835260608a019081528560808b015f815260a08c0193845260c08c01995f8b5260e08d01978d5f8a52610100019a42168b528c5f52601b885260405f20809e5190558d600197826001830194511693600160a01b6001900319948582541617905582600283019151168482541617905560030194511690845416178355511661423591614a6b565b51905f925f905b600582106142c1575050505090614270600588614278959460048201550195511515869060ff801983541691151516179055565b511683614a88565b51815462010000600160501b03191660109190911b62010000600160501b03161790557f317c20f4fd3ae996fa6263bc4cea1a7f7fd8c56d78322f8b5d9ffe999cd88d2e5f80a2005b9091816142e48596858a85985116919060ff809160031b9316831b921b19161790565b95019392019061423c565b6064906040519062461bcd60e51b82526004820152600d60248201526c5233206e6f742061637469766560981b6044820152fd5b60405162461bcd60e51b815260048101889052600d60248201526c5232206e6f742061637469766560981b6044820152606490fd5b60405162461bcd60e51b815260048101889052600d60248201526c5231206e6f742061637469766560981b6044820152606490fd5b34610c84575f366003190112610c8457602060ff5f5460a01c166040519015158152f35b34610c84575f366003190112610c8457602060ff8154166040519015158152f35b5f366003190112610c84576143ed60ff5f5460a01c16614823565b61440066b1a2bc2ec50000341015614861565b335f52601060205260ff60405f20541661461157335f52600f60205260ff600460405f200154166145d7576040516145b090426001600160401b031661444582614899565b33825260018060801b0334166020830152600160408301525f60608301525f60808301525f60a08301525f60c083015261271060e0830152806101008301526101208201526001610140820152335f52600f602052600461014060405f209260018060a01b0381511660018060a01b03198554161784556145996001850161450960018060801b036020850151169160018060801b031992838254161781556144f560ff60408701511682614974565b60608501516001600160401b031690614991565b60808301516002870180546001600160401b0319166001600160401b0392831617815560a085015161454e926145409116826149ba565b60ff60c08601511690614974565b60e08301516003870180549092166001600160801b0391909116178155610100830151614584906001600160401b0316826149e3565b6101208301516001600160401b031690614a0c565b0151151591019060ff801983541691151516179055565b337f98001b7b95ed55614b92b5d7d45b27a8501ff2f5e45752f656d1a6725adeba455f80a2005b60405162461bcd60e51b8152602060048201526012602482015271105b1c9958591e481c9959da5cdd195c995960721b6044820152606490fd5b60405162461bcd60e51b815260206004820152600b60248201526a109b1858dadb1a5cdd195960aa1b6044820152606490fd5b34610c84575f366003190112610c84578066038d7ea4c6800060209252f35b602435906001600160a01b0382168203610c8457565b604435906001600160a01b0382168203610c8457565b606435906001600160a01b0382168203610c8457565b600435906001600160a01b0382168203610c8457565b34610c84575f366003190112610c8457602060405160038152f35b6024359060ff82168203610c8457565b602435908115158203610c8457565b34610c84575f366003190112610c845760206040516203f4808152f35b34610c84575f366003190112610c8457602060405160028152f35b34610c84575f366003190112610c8457602060405160018152f35b34610c84575f366003190112610c845760206040515f8152f35b34610c84575f366003190112610c8457602060405166b1a2bc2ec500008152f35b600435906001600160401b0382168203610c8457565b604435906001600160801b0382168203610c8457565b600435906001600160801b0382168203610c8457565b34610c84575f366003190112610c84576020604051662386f26fc100008152f35b34610c84575f366003190112610c8457602060405160048152f35b34610c84575f366003190112610c845760206040516706f05b59d3b200008152f35b1561482a57565b60405162461bcd60e51b815260206004820152600f60248201526e139bdd081a5b9a5d1a585b1a5e9959608a1b6044820152606490fd5b1561486857565b60405162461bcd60e51b81526020600482015260096024820152684d696e207374616b6560b81b6044820152606490fd5b61016081019081106001600160401b038211176115d757604052565b61012081019081106001600160401b038211176115d757604052565b6101a081019081106001600160401b038211176115d757604052565b6001600160401b0381116115d757604052565b60a081019081106001600160401b038211176115d757604052565b602081019081106001600160401b038211176115d757604052565b608081019081106001600160401b038211176115d757604052565b601f909101601f19168101906001600160401b038211908210176115d757604052565b805460ff60801b191660809290921b60ff60801b16919091179055565b8054600160881b600160c81b03191660889290921b600160881b600160c81b0316919091179055565b8054600160401b600160801b03191660409290921b600160401b600160801b0316919091179055565b8054600160801b600160c01b03191660809290921b600160801b600160c01b0316919091179055565b80546001600160c01b031660c09290921b6001600160c01b031916919091179055565b15614a3657565b60405162461bcd60e51b815260206004820152600d60248201526c27b7363c903232b83637bcb2b960991b6044820152606490fd5b805460ff60a01b191660a09290921b60ff60a01b16919091179055565b9061ff0082549160081b169061ff001916179055565b15614aa557565b60405162461bcd60e51b8152602060048201526007602482015266125b9d985b1a5960ca1b6044820152606490fd5b15614adb57565b60405162461bcd60e51b81526020600482015260156024820152744e6f7420696e20636f6d6d756e69747920766f746560581b6044820152606490fd5b15614b1f57565b60405162461bcd60e51b815260206004820152600d60248201526c159bdd1a5b99c818db1bdcd959609a1b6044820152606490fd5b15614b5b57565b60405162461bcd60e51b81526020600482015260086024820152674e6f2076616c756560c01b6044820152606490fd5b90815260609190911b6001600160601b031916602082015260340190565b15614bb057565b60405162461bcd60e51b815260206004820152600d60248201526c105b1c9958591e481d9bdd1959609a1b6044820152606490fd5b6001600160801b039182169082160191908211610c0e57565b80546001600160801b031660809290921b6001600160801b031916919091179055565b6001600160601b0319606092831b811682529290911b909116601482015260280190565b6001600160801b039182169082160391908211610c0e57565b3d15614c97573d906001600160401b0382116115d75760405191614c8c601f8201601f191660200184614951565b82523d5f602084013e565b606090565b15614ca357565b60405162461bcd60e51b815260206004820152600f60248201526e151c985b9cd9995c8819985a5b1959608a1b6044820152606490fd5b15614ce157565b60405162461bcd60e51b815260206004820152600660248201526514185d5cd95960d21b6044820152606490fd5b15614d1657565b60405162461bcd60e51b815260206004820152600f60248201526e496e76616c6964206f7574636f6d6560881b6044820152606490fd5b15614d5457565b60405162461bcd60e51b8152602060048201526011602482015270105b1c9958591e48199a5b985b1a5e9959607a1b6044820152606490fd5b60ff1660ff8114610c0e5760010190565b9190916005831015614db757601f908360051c01921690565b634e487b7160e01b5f52603260045260245ffd5b60609190911b6001600160601b031916815260c09190911b6001600160c01b0319166014820152601c0190565b6001600160801b039182169082160290811691908203610c0e57565b6001600160801b0391821691908215614e2c57160490565b634e487b7160e01b5f52601260045260245ffd5b15614e4757565b60405162461bcd60e51b815260206004820152600e60248201526d139bdd08185d5d1a1bdc9a5e995960921b6044820152606490fd5b15614e8457565b60405162461bcd60e51b815260206004820152600a6024820152694e6f742061637469766560b01b6044820152606490fd5b6001600160401b03908116908114610c0e5760010190565b6001600160401b039081166203f4800191908211610c0e57565b15614eef57565b60405162461bcd60e51b815260206004820152600b60248201526a2b37ba34b7339037b832b760a91b6044820152606490fd5b9081526001600160a01b03909116602082015260400190565b90815260f89190911b6001600160f81b031916602082015260210190565b60ff60019116019060ff8211610c0e57565b600a546001600160a01b039182169082168114918215614f9b575b8215614f9157505090565b600c541614919050565b600b54811682149250614f86565b60ff16600181146150265760028114615019576003811461500c5760048114614fff5760058114614ff357600614614fe757670de0b6b3a764000090565b6706f05b59d3b2000090565b5066b1a2bc2ec5000090565b506703782dace9d9000090565b50670de0b6b3a764000090565b506706f05b59d3b2000090565b5067016345785d8a000090565b5f805160206153e4833981519152803b15610c8457604051631974142760e21b8152915f91839182908490829061506f90309060048401614f22565b03925af18015611464576150805750565b615089906148ed565b565b90604080519263458693c960e01b8452600484015280836024815f805160206153e48339815191525afa928315615113575f915f946150d4575b50506001600160801b03169190565b8194508092503d831161510c575b6150ec8183614951565b81010312610c845760208251920151918215158303610c84575f806150c5565b503d6150e2565b50513d5f823e3d90fd5b5f60ff9160ff60165416915b828482161061513a57505050505f90565b6005811015614db75760118101546001600160a01b03838116911614615164576001018316615129565b50505050600190565b8015615280575b8115615270575b6040805190929091606083016001600160401b038111848210176115d757845260028352833660208501376151af836153b6565b526151b9826153c3565b5260206152018351926151cb8461491b565b5f845261521385519485938493631888debd60e01b8552600660048601526008602486015260806044860152608485019061528e565b8381036003190160648501529061528e565b03815f5f805160206153e48339815191525af191821561526757505f91615238575090565b90506020813d60201161525f575b8161525360209383614951565b81010312610c84575190565b3d9150615246565b513d5f823e3d90fd5b905061527a6152f7565b9061517b565b506152896152f7565b615174565b9081518082526020808093019301915f5b8281106152ad575050505090565b83518552938101939281019260010161529f565b90916152e66152f49360068452601a602085015260806040850152608084019061528e565b91606081840391015261528e565b90565b61536060206040516153088161491b565b5f81526040519061531882614936565b60038252606036848401375f61532d836153b6565b526006615339836153c3565b525f615344836153d3565b52604051631888debd60e01b81529384928392600484016152c1565b03815f5f805160206153e48339815191525af1908115611464575f91615238575090565b6020615360916040516153968161491b565b5f8152604051916153a683614936565b600383526060368585013761532d835b805115614db75760200190565b805160011015614db75760400190565b805160021015614db7576060019056fe000000000000000000000000ea30c4b8b44078bbf8a6ef5b9f1ec1626c7848d9d5c0d4e027576e5ed8df7edbb928604bc839767a154929d2ef30bac370810aba879e083a73f2b483a12d85d717cb83bb77cd04c1b94908ffc732d72fa87996e58d755620a3983e6fcaff02384351c3cf493670d9a6f00169bf4bc2d09f7475be54dd2317a6e32c1f79afc545cf4f4daff78f09889e50c9627af83c526cd2ae16a2646970667358221220acc3a21724136a7695cdfbd0be193383967cc7f11c2db08b31f2e8efd44df4cd64736f6c63430008190033",
  "linkReferences": {},
  "deployedLinkReferences": {}
}