{
  "_format": "hh-sol-artifact-1",
  "contractName": "FhenixMarkets",
  "sourceName": "contracts/FhenixMarkets.sol",
  "abi": [
    {
      "inputs": [],
      "stateMutability": "nonpayable",
      "type": "constructor"
    },
    {
      "inputs": [],
      "name": "ReentrancyGuardReentrantCall",
      "type": "error"
    },
    {
      "inputs": [
        {
          "internalType": "int32",
          "name": "value",
          "type": "int32"
        }
      ],
      "name": "SecurityZoneOutOfBounds",
      "type": "error"
    },
    {
      "anonymous": false,
      "inputs": [
        {
          "indexed": true,
          "internalType": "bytes32",
          "name": "marketId",
          "type": "bytes32"
        },
        {
          "indexed": true,
          "internalType": "address",
          "name": "provider",
          "type": "address"
        }
      ],
      "name": "LiquidityAdded",
      "type": "event"
    },
    {
      "anonymous": false,
      "inputs": [
        {
          "indexed": true,
          "internalType": "bytes32",
          "name": "marketId",
          "type": "bytes32"
        },
        {
          "indexed": true,
          "internalType": "address",
          "name": "provider",
          "type": "address"
        }
      ],
      "name": "LiquidityWithdrawn",
      "type": "event"
    },
    {
      "anonymous": false,
      "inputs": [
        {
          "indexed": true,
          "internalType": "bytes32",
          "name": "marketId",
          "type": "bytes32"
        }
      ],
      "name": "MarketCancelled",
      "type": "event"
    },
    {
      "anonymous": false,
      "inputs": [
        {
          "indexed": true,
          "internalType": "bytes32",
          "name": "marketId",
          "type": "bytes32"
        }
      ],
      "name": "MarketClosed",
      "type": "event"
    },
    {
      "anonymous": false,
      "inputs": [
        {
          "indexed": true,
          "internalType": "bytes32",
          "name": "marketId",
          "type": "bytes32"
        },
        {
          "indexed": true,
          "internalType": "address",
          "name": "creator",
          "type": "address"
        },
        {
          "indexed": false,
          "internalType": "bytes32",
          "name": "questionHash",
          "type": "bytes32"
        },
        {
          "indexed": false,
          "internalType": "uint8",
          "name": "numOutcomes",
          "type": "uint8"
        },
        {
          "indexed": false,
          "internalType": "uint64",
          "name": "deadline",
          "type": "uint64"
        }
      ],
      "name": "MarketCreated",
      "type": "event"
    },
    {
      "anonymous": false,
      "inputs": [
        {
          "indexed": false,
          "internalType": "address",
          "name": "signer1",
          "type": "address"
        },
        {
          "indexed": false,
          "internalType": "address",
          "name": "signer2",
          "type": "address"
        },
        {
          "indexed": false,
          "internalType": "address",
          "name": "signer3",
          "type": "address"
        },
        {
          "indexed": false,
          "internalType": "uint8",
          "name": "threshold",
          "type": "uint8"
        }
      ],
      "name": "MultisigInitialized",
      "type": "event"
    },
    {
      "anonymous": false,
      "inputs": [
        {
          "indexed": true,
          "internalType": "bytes32",
          "name": "marketId",
          "type": "bytes32"
        },
        {
          "indexed": true,
          "internalType": "address",
          "name": "claimer",
          "type": "address"
        }
      ],
      "name": "RefundClaimed",
      "type": "event"
    },
    {
      "anonymous": false,
      "inputs": [
        {
          "indexed": true,
          "internalType": "bytes32",
          "name": "marketId",
          "type": "bytes32"
        },
        {
          "indexed": false,
          "internalType": "uint8",
          "name": "winningOutcome",
          "type": "uint8"
        }
      ],
      "name": "ResolutionConfirmed",
      "type": "event"
    },
    {
      "anonymous": false,
      "inputs": [
        {
          "indexed": true,
          "internalType": "bytes32",
          "name": "marketId",
          "type": "bytes32"
        },
        {
          "indexed": false,
          "internalType": "address",
          "name": "disputer",
          "type": "address"
        },
        {
          "indexed": false,
          "internalType": "uint8",
          "name": "proposedOutcome",
          "type": "uint8"
        }
      ],
      "name": "ResolutionDisputed",
      "type": "event"
    },
    {
      "anonymous": false,
      "inputs": [
        {
          "indexed": true,
          "internalType": "bytes32",
          "name": "marketId",
          "type": "bytes32"
        },
        {
          "indexed": true,
          "internalType": "address",
          "name": "buyer",
          "type": "address"
        }
      ],
      "name": "SharesBought",
      "type": "event"
    },
    {
      "anonymous": false,
      "inputs": [
        {
          "indexed": true,
          "internalType": "bytes32",
          "name": "marketId",
          "type": "bytes32"
        },
        {
          "indexed": true,
          "internalType": "address",
          "name": "redeemer",
          "type": "address"
        }
      ],
      "name": "SharesRedeemed",
      "type": "event"
    },
    {
      "anonymous": false,
      "inputs": [
        {
          "indexed": true,
          "internalType": "bytes32",
          "name": "marketId",
          "type": "bytes32"
        },
        {
          "indexed": true,
          "internalType": "address",
          "name": "seller",
          "type": "address"
        }
      ],
      "name": "SharesSold",
      "type": "event"
    },
    {
      "anonymous": false,
      "inputs": [
        {
          "indexed": true,
          "internalType": "bytes32",
          "name": "proposalId",
          "type": "bytes32"
        },
        {
          "indexed": false,
          "internalType": "address",
          "name": "signer",
          "type": "address"
        }
      ],
      "name": "TreasuryProposalApproved",
      "type": "event"
    },
    {
      "anonymous": false,
      "inputs": [
        {
          "indexed": true,
          "internalType": "bytes32",
          "name": "proposalId",
          "type": "bytes32"
        },
        {
          "indexed": false,
          "internalType": "address",
          "name": "recipient",
          "type": "address"
        },
        {
          "indexed": false,
          "internalType": "uint128",
          "name": "amount",
          "type": "uint128"
        }
      ],
      "name": "TreasuryProposalCreated",
      "type": "event"
    },
    {
      "anonymous": false,
      "inputs": [
        {
          "indexed": true,
          "internalType": "bytes32",
          "name": "proposalId",
          "type": "bytes32"
        },
        {
          "indexed": false,
          "internalType": "address",
          "name": "recipient",
          "type": "address"
        },
        {
          "indexed": false,
          "internalType": "uint128",
          "name": "amount",
          "type": "uint128"
        }
      ],
      "name": "TreasuryProposalExecuted",
      "type": "event"
    },
    {
      "anonymous": false,
      "inputs": [
        {
          "indexed": true,
          "internalType": "uint256",
          "name": "requestId",
          "type": "uint256"
        },
        {
          "indexed": false,
          "internalType": "bool",
          "name": "successful",
          "type": "bool"
        }
      ],
      "name": "UnshieldExecuted",
      "type": "event"
    },
    {
      "anonymous": false,
      "inputs": [
        {
          "indexed": true,
          "internalType": "uint256",
          "name": "requestId",
          "type": "uint256"
        },
        {
          "indexed": true,
          "internalType": "address",
          "name": "user",
          "type": "address"
        },
        {
          "indexed": false,
          "internalType": "bytes32",
          "name": "marketId",
          "type": "bytes32"
        },
        {
          "indexed": false,
          "internalType": "uint8",
          "name": "outcome",
          "type": "uint8"
        },
        {
          "indexed": false,
          "internalType": "uint128",
          "name": "amount",
          "type": "uint128"
        }
      ],
      "name": "UnshieldRequested",
      "type": "event"
    },
    {
      "anonymous": false,
      "inputs": [
        {
          "indexed": true,
          "internalType": "bytes32",
          "name": "marketId",
          "type": "bytes32"
        },
        {
          "indexed": true,
          "internalType": "address",
          "name": "voter",
          "type": "address"
        }
      ],
      "name": "VoteSubmitted",
      "type": "event"
    },
    {
      "anonymous": false,
      "inputs": [
        {
          "indexed": true,
          "internalType": "bytes32",
          "name": "marketId",
          "type": "bytes32"
        },
        {
          "indexed": false,
          "internalType": "uint8",
          "name": "winningOutcome",
          "type": "uint8"
        }
      ],
      "name": "VotesFinalized",
      "type": "event"
    },
    {
      "inputs": [],
      "name": "CREATOR_FEE_BPS",
      "outputs": [
        {
          "internalType": "uint128",
          "name": "",
          "type": "uint128"
        }
      ],
      "stateMutability": "view",
      "type": "function"
    },
    {
      "inputs": [],
      "name": "DISPUTE_BOND_MULTIPLIER",
      "outputs": [
        {
          "internalType": "uint128",
          "name": "",
          "type": "uint128"
        }
      ],
      "stateMutability": "view",
      "type": "function"
    },
    {
      "inputs": [],
      "name": "DISPUTE_WINDOW",
      "outputs": [
        {
          "internalType": "uint64",
          "name": "",
          "type": "uint64"
        }
      ],
      "stateMutability": "view",
      "type": "function"
    },
    {
      "inputs": [],
      "name": "FEE_DENOMINATOR",
      "outputs": [
        {
          "internalType": "uint128",
          "name": "",
          "type": "uint128"
        }
      ],
      "stateMutability": "view",
      "type": "function"
    },
    {
      "inputs": [],
      "name": "LP_FEE_BPS",
      "outputs": [
        {
          "internalType": "uint128",
          "name": "",
          "type": "uint128"
        }
      ],
      "stateMutability": "view",
      "type": "function"
    },
    {
      "inputs": [],
      "name": "MARKET_STATUS_ACTIVE",
      "outputs": [
        {
          "internalType": "uint8",
          "name": "",
          "type": "uint8"
        }
      ],
      "stateMutability": "view",
      "type": "function"
    },
    {
      "inputs": [],
      "name": "MARKET_STATUS_CANCELLED",
      "outputs": [
        {
          "internalType": "uint8",
          "name": "",
          "type": "uint8"
        }
      ],
      "stateMutability": "view",
      "type": "function"
    },
    {
      "inputs": [],
      "name": "MARKET_STATUS_CLOSED",
      "outputs": [
        {
          "internalType": "uint8",
          "name": "",
          "type": "uint8"
        }
      ],
      "stateMutability": "view",
      "type": "function"
    },
    {
      "inputs": [],
      "name": "MARKET_STATUS_RESOLVED",
      "outputs": [
        {
          "internalType": "uint8",
          "name": "",
          "type": "uint8"
        }
      ],
      "stateMutability": "view",
      "type": "function"
    },
    {
      "inputs": [],
      "name": "MIN_LIQUIDITY",
      "outputs": [
        {
          "internalType": "uint128",
          "name": "",
          "type": "uint128"
        }
      ],
      "stateMutability": "view",
      "type": "function"
    },
    {
      "inputs": [],
      "name": "MIN_TRADE_AMOUNT",
      "outputs": [
        {
          "internalType": "uint128",
          "name": "",
          "type": "uint128"
        }
      ],
      "stateMutability": "view",
      "type": "function"
    },
    {
      "inputs": [],
      "name": "MIN_VOTERS",
      "outputs": [
        {
          "internalType": "uint8",
          "name": "",
          "type": "uint8"
        }
      ],
      "stateMutability": "view",
      "type": "function"
    },
    {
      "inputs": [],
      "name": "MIN_VOTE_BOND",
      "outputs": [
        {
          "internalType": "uint128",
          "name": "",
          "type": "uint128"
        }
      ],
      "stateMutability": "view",
      "type": "function"
    },
    {
      "inputs": [],
      "name": "PROTOCOL_FEE_BPS",
      "outputs": [
        {
          "internalType": "uint128",
          "name": "",
          "type": "uint128"
        }
      ],
      "stateMutability": "view",
      "type": "function"
    },
    {
      "inputs": [],
      "name": "STATUS_DISPUTED",
      "outputs": [
        {
          "internalType": "uint8",
          "name": "",
          "type": "uint8"
        }
      ],
      "stateMutability": "view",
      "type": "function"
    },
    {
      "inputs": [],
      "name": "STATUS_PENDING_FINALIZATION",
      "outputs": [
        {
          "internalType": "uint8",
          "name": "",
          "type": "uint8"
        }
      ],
      "stateMutability": "view",
      "type": "function"
    },
    {
      "inputs": [],
      "name": "STATUS_PENDING_RESOLUTION",
      "outputs": [
        {
          "internalType": "uint8",
          "name": "",
          "type": "uint8"
        }
      ],
      "stateMutability": "view",
      "type": "function"
    },
    {
      "inputs": [],
      "name": "VOTER_REWARD_PERCENT",
      "outputs": [
        {
          "internalType": "uint128",
          "name": "",
          "type": "uint128"
        }
      ],
      "stateMutability": "view",
      "type": "function"
    },
    {
      "inputs": [],
      "name": "VOTE_WINDOW",
      "outputs": [
        {
          "internalType": "uint64",
          "name": "",
          "type": "uint64"
        }
      ],
      "stateMutability": "view",
      "type": "function"
    },
    {
      "inputs": [],
      "name": "WINNER_CLAIM_PRIORITY",
      "outputs": [
        {
          "internalType": "uint64",
          "name": "",
          "type": "uint64"
        }
      ],
      "stateMutability": "view",
      "type": "function"
    },
    {
      "inputs": [
        {
          "internalType": "bytes32",
          "name": "marketId",
          "type": "bytes32"
        }
      ],
      "name": "addLiquidity",
      "outputs": [],
      "stateMutability": "payable",
      "type": "function"
    },
    {
      "inputs": [
        {
          "internalType": "bytes32",
          "name": "",
          "type": "bytes32"
        }
      ],
      "name": "ammPools",
      "outputs": [
        {
          "internalType": "uint128",
          "name": "reserve1",
          "type": "uint128"
        },
        {
          "internalType": "uint128",
          "name": "reserve2",
          "type": "uint128"
        },
        {
          "internalType": "uint128",
          "name": "reserve3",
          "type": "uint128"
        },
        {
          "internalType": "uint128",
          "name": "reserve4",
          "type": "uint128"
        },
        {
          "internalType": "uint128",
          "name": "totalLiquidity",
          "type": "uint128"
        },
        {
          "internalType": "uint128",
          "name": "totalLPShares",
          "type": "uint128"
        },
        {
          "internalType": "uint128",
          "name": "totalVolume",
          "type": "uint128"
        }
      ],
      "stateMutability": "view",
      "type": "function"
    },
    {
      "inputs": [
        {
          "internalType": "bytes32",
          "name": "proposalId",
          "type": "bytes32"
        }
      ],
      "name": "approveTreasuryProposal",
      "outputs": [],
      "stateMutability": "nonpayable",
      "type": "function"
    },
    {
      "inputs": [
        {
          "internalType": "bytes32",
          "name": "marketId",
          "type": "bytes32"
        },
        {
          "internalType": "uint8",
          "name": "outcome",
          "type": "uint8"
        },
        {
          "internalType": "uint128",
          "name": "minSharesOut",
          "type": "uint128"
        }
      ],
      "name": "buyShares",
      "outputs": [],
      "stateMutability": "payable",
      "type": "function"
    },
    {
      "inputs": [
        {
          "internalType": "bytes32",
          "name": "marketId",
          "type": "bytes32"
        }
      ],
      "name": "cancelMarket",
      "outputs": [],
      "stateMutability": "nonpayable",
      "type": "function"
    },
    {
      "inputs": [
        {
          "internalType": "bytes32",
          "name": "marketId",
          "type": "bytes32"
        }
      ],
      "name": "claimDisputeBond",
      "outputs": [],
      "stateMutability": "nonpayable",
      "type": "function"
    },
    {
      "inputs": [
        {
          "internalType": "bytes32",
          "name": "marketId",
          "type": "bytes32"
        },
        {
          "internalType": "uint128",
          "name": "lpSharesToRefund",
          "type": "uint128"
        }
      ],
      "name": "claimLPRefund",
      "outputs": [],
      "stateMutability": "nonpayable",
      "type": "function"
    },
    {
      "inputs": [
        {
          "internalType": "bytes32",
          "name": "marketId",
          "type": "bytes32"
        },
        {
          "internalType": "uint8",
          "name": "outcome",
          "type": "uint8"
        },
        {
          "internalType": "uint128",
          "name": "sharesToRefund",
          "type": "uint128"
        }
      ],
      "name": "claimRefund",
      "outputs": [],
      "stateMutability": "nonpayable",
      "type": "function"
    },
    {
      "inputs": [
        {
          "internalType": "bytes32",
          "name": "marketId",
          "type": "bytes32"
        }
      ],
      "name": "claimVoterBond",
      "outputs": [],
      "stateMutability": "nonpayable",
      "type": "function"
    },
    {
      "inputs": [],
      "name": "claimVoterReward",
      "outputs": [],
      "stateMutability": "nonpayable",
      "type": "function"
    },
    {
      "inputs": [
        {
          "internalType": "bytes32",
          "name": "marketId",
          "type": "bytes32"
        }
      ],
      "name": "closeMarket",
      "outputs": [],
      "stateMutability": "nonpayable",
      "type": "function"
    },
    {
      "inputs": [
        {
          "internalType": "bytes32",
          "name": "marketId",
          "type": "bytes32"
        }
      ],
      "name": "confirmResolution",
      "outputs": [],
      "stateMutability": "nonpayable",
      "type": "function"
    },
    {
      "inputs": [
        {
          "internalType": "bytes32",
          "name": "questionHash",
          "type": "bytes32"
        },
        {
          "internalType": "uint8",
          "name": "category",
          "type": "uint8"
        },
        {
          "internalType": "uint8",
          "name": "numOutcomes",
          "type": "uint8"
        },
        {
          "internalType": "uint64",
          "name": "deadline",
          "type": "uint64"
        },
        {
          "internalType": "uint64",
          "name": "resolutionDeadline",
          "type": "uint64"
        },
        {
          "internalType": "address",
          "name": "resolver",
          "type": "address"
        }
      ],
      "name": "createMarket",
      "outputs": [
        {
          "internalType": "bytes32",
          "name": "",
          "type": "bytes32"
        }
      ],
      "stateMutability": "payable",
      "type": "function"
    },
    {
      "inputs": [],
      "name": "deployer",
      "outputs": [
        {
          "internalType": "address",
          "name": "",
          "type": "address"
        }
      ],
      "stateMutability": "view",
      "type": "function"
    },
    {
      "inputs": [
        {
          "internalType": "bytes32",
          "name": "marketId",
          "type": "bytes32"
        },
        {
          "internalType": "uint8",
          "name": "proposedOutcome",
          "type": "uint8"
        }
      ],
      "name": "disputeResolution",
      "outputs": [],
      "stateMutability": "payable",
      "type": "function"
    },
    {
      "inputs": [
        {
          "internalType": "bytes32",
          "name": "proposalId",
          "type": "bytes32"
        }
      ],
      "name": "executeTreasuryProposal",
      "outputs": [],
      "stateMutability": "nonpayable",
      "type": "function"
    },
    {
      "inputs": [
        {
          "internalType": "uint256",
          "name": "reqId",
          "type": "uint256"
        }
      ],
      "name": "executeUnshield",
      "outputs": [],
      "stateMutability": "nonpayable",
      "type": "function"
    },
    {
      "inputs": [
        {
          "internalType": "bytes32",
          "name": "marketId",
          "type": "bytes32"
        }
      ],
      "name": "finalizeVotes",
      "outputs": [],
      "stateMutability": "nonpayable",
      "type": "function"
    },
    {
      "inputs": [
        {
          "internalType": "bytes32",
          "name": "marketId",
          "type": "bytes32"
        }
      ],
      "name": "getEncLPBalance",
      "outputs": [
        {
          "internalType": "euint128",
          "name": "",
          "type": "bytes32"
        }
      ],
      "stateMutability": "view",
      "type": "function"
    },
    {
      "inputs": [
        {
          "internalType": "bytes32",
          "name": "marketId",
          "type": "bytes32"
        },
        {
          "internalType": "uint8",
          "name": "outcome",
          "type": "uint8"
        }
      ],
      "name": "getEncShareBalance",
      "outputs": [
        {
          "internalType": "euint128",
          "name": "",
          "type": "bytes32"
        }
      ],
      "stateMutability": "view",
      "type": "function"
    },
    {
      "inputs": [
        {
          "internalType": "bytes32",
          "name": "marketId",
          "type": "bytes32"
        }
      ],
      "name": "getMarket",
      "outputs": [
        {
          "components": [
            {
              "internalType": "bytes32",
              "name": "id",
              "type": "bytes32"
            },
            {
              "internalType": "address",
              "name": "creator",
              "type": "address"
            },
            {
              "internalType": "address",
              "name": "resolver",
              "type": "address"
            },
            {
              "internalType": "bytes32",
              "name": "questionHash",
              "type": "bytes32"
            },
            {
              "internalType": "uint8",
              "name": "category",
              "type": "uint8"
            },
            {
              "internalType": "uint8",
              "name": "numOutcomes",
              "type": "uint8"
            },
            {
              "internalType": "uint64",
              "name": "deadline",
              "type": "uint64"
            },
            {
              "internalType": "uint64",
              "name": "resolutionDeadline",
              "type": "uint64"
            },
            {
              "internalType": "uint8",
              "name": "status",
              "type": "uint8"
            },
            {
              "internalType": "uint64",
              "name": "createdAt",
              "type": "uint64"
            }
          ],
          "internalType": "struct FhenixMarkets.Market",
          "name": "",
          "type": "tuple"
        }
      ],
      "stateMutability": "view",
      "type": "function"
    },
    {
      "inputs": [
        {
          "internalType": "bytes32",
          "name": "marketId",
          "type": "bytes32"
        }
      ],
      "name": "getPool",
      "outputs": [
        {
          "components": [
            {
              "internalType": "uint128",
              "name": "reserve1",
              "type": "uint128"
            },
            {
              "internalType": "uint128",
              "name": "reserve2",
              "type": "uint128"
            },
            {
              "internalType": "uint128",
              "name": "reserve3",
              "type": "uint128"
            },
            {
              "internalType": "uint128",
              "name": "reserve4",
              "type": "uint128"
            },
            {
              "internalType": "uint128",
              "name": "totalLiquidity",
              "type": "uint128"
            },
            {
              "internalType": "uint128",
              "name": "totalLPShares",
              "type": "uint128"
            },
            {
              "internalType": "uint128",
              "name": "totalVolume",
              "type": "uint128"
            }
          ],
          "internalType": "struct FhenixMarkets.AMMPool",
          "name": "",
          "type": "tuple"
        }
      ],
      "stateMutability": "view",
      "type": "function"
    },
    {
      "inputs": [
        {
          "internalType": "bytes32",
          "name": "marketId",
          "type": "bytes32"
        }
      ],
      "name": "getPrices",
      "outputs": [
        {
          "internalType": "uint128",
          "name": "price1",
          "type": "uint128"
        },
        {
          "internalType": "uint128",
          "name": "price2",
          "type": "uint128"
        },
        {
          "internalType": "uint128",
          "name": "price3",
          "type": "uint128"
        },
        {
          "internalType": "uint128",
          "name": "price4",
          "type": "uint128"
        }
      ],
      "stateMutability": "view",
      "type": "function"
    },
    {
      "inputs": [
        {
          "internalType": "bytes32",
          "name": "marketId",
          "type": "bytes32"
        }
      ],
      "name": "getVoteTally",
      "outputs": [
        {
          "components": [
            {
              "internalType": "uint128",
              "name": "outcome1Bonds",
              "type": "uint128"
            },
            {
              "internalType": "uint128",
              "name": "outcome2Bonds",
              "type": "uint128"
            },
            {
              "internalType": "uint128",
              "name": "outcome3Bonds",
              "type": "uint128"
            },
            {
              "internalType": "uint128",
              "name": "outcome4Bonds",
              "type": "uint128"
            },
            {
              "internalType": "uint8",
              "name": "totalVoters",
              "type": "uint8"
            },
            {
              "internalType": "uint128",
              "name": "totalBonded",
              "type": "uint128"
            },
            {
              "internalType": "uint64",
              "name": "votingDeadline",
              "type": "uint64"
            },
            {
              "internalType": "uint64",
              "name": "disputeDeadline",
              "type": "uint64"
            },
            {
              "internalType": "bool",
              "name": "finalized",
              "type": "bool"
            },
            {
              "internalType": "uint8",
              "name": "winningOutcome",
              "type": "uint8"
            }
          ],
          "internalType": "struct FhenixMarkets.VoteTally",
          "name": "",
          "type": "tuple"
        }
      ],
      "stateMutability": "view",
      "type": "function"
    },
    {
      "inputs": [
        {
          "internalType": "address",
          "name": "signer1",
          "type": "address"
        },
        {
          "internalType": "address",
          "name": "signer2",
          "type": "address"
        },
        {
          "internalType": "address",
          "name": "signer3",
          "type": "address"
        }
      ],
      "name": "initMultisig",
      "outputs": [],
      "stateMutability": "nonpayable",
      "type": "function"
    },
    {
      "inputs": [],
      "name": "marketCount",
      "outputs": [
        {
          "internalType": "uint256",
          "name": "",
          "type": "uint256"
        }
      ],
      "stateMutability": "view",
      "type": "function"
    },
    {
      "inputs": [
        {
          "internalType": "bytes32",
          "name": "",
          "type": "bytes32"
        }
      ],
      "name": "marketCredits",
      "outputs": [
        {
          "internalType": "uint128",
          "name": "",
          "type": "uint128"
        }
      ],
      "stateMutability": "view",
      "type": "function"
    },
    {
      "inputs": [
        {
          "internalType": "bytes32",
          "name": "",
          "type": "bytes32"
        }
      ],
      "name": "marketFees",
      "outputs": [
        {
          "internalType": "uint128",
          "name": "protocolFees",
          "type": "uint128"
        },
        {
          "internalType": "uint128",
          "name": "creatorFees",
          "type": "uint128"
        }
      ],
      "stateMutability": "view",
      "type": "function"
    },
    {
      "inputs": [
        {
          "internalType": "bytes32",
          "name": "",
          "type": "bytes32"
        }
      ],
      "name": "markets",
      "outputs": [
        {
          "internalType": "bytes32",
          "name": "id",
          "type": "bytes32"
        },
        {
          "internalType": "address",
          "name": "creator",
          "type": "address"
        },
        {
          "internalType": "address",
          "name": "resolver",
          "type": "address"
        },
        {
          "internalType": "bytes32",
          "name": "questionHash",
          "type": "bytes32"
        },
        {
          "internalType": "uint8",
          "name": "category",
          "type": "uint8"
        },
        {
          "internalType": "uint8",
          "name": "numOutcomes",
          "type": "uint8"
        },
        {
          "internalType": "uint64",
          "name": "deadline",
          "type": "uint64"
        },
        {
          "internalType": "uint64",
          "name": "resolutionDeadline",
          "type": "uint64"
        },
        {
          "internalType": "uint8",
          "name": "status",
          "type": "uint8"
        },
        {
          "internalType": "uint64",
          "name": "createdAt",
          "type": "uint64"
        }
      ],
      "stateMutability": "view",
      "type": "function"
    },
    {
      "inputs": [],
      "name": "multisig",
      "outputs": [
        {
          "internalType": "address",
          "name": "signer1",
          "type": "address"
        },
        {
          "internalType": "address",
          "name": "signer2",
          "type": "address"
        },
        {
          "internalType": "address",
          "name": "signer3",
          "type": "address"
        },
        {
          "internalType": "uint8",
          "name": "threshold",
          "type": "uint8"
        },
        {
          "internalType": "bool",
          "name": "initialized",
          "type": "bool"
        }
      ],
      "stateMutability": "view",
      "type": "function"
    },
    {
      "inputs": [
        {
          "internalType": "bytes32",
          "name": "",
          "type": "bytes32"
        }
      ],
      "name": "multisigApprovals",
      "outputs": [
        {
          "internalType": "bool",
          "name": "",
          "type": "bool"
        }
      ],
      "stateMutability": "view",
      "type": "function"
    },
    {
      "inputs": [],
      "name": "nextUnshieldId",
      "outputs": [
        {
          "internalType": "uint256",
          "name": "",
          "type": "uint256"
        }
      ],
      "stateMutability": "view",
      "type": "function"
    },
    {
      "inputs": [
        {
          "internalType": "address",
          "name": "recipient",
          "type": "address"
        },
        {
          "internalType": "uint128",
          "name": "amount",
          "type": "uint128"
        }
      ],
      "name": "proposeTreasuryWithdrawal",
      "outputs": [
        {
          "internalType": "bytes32",
          "name": "",
          "type": "bytes32"
        }
      ],
      "stateMutability": "nonpayable",
      "type": "function"
    },
    {
      "inputs": [
        {
          "internalType": "bytes32",
          "name": "",
          "type": "bytes32"
        }
      ],
      "name": "publicLPBalances",
      "outputs": [
        {
          "internalType": "uint128",
          "name": "",
          "type": "uint128"
        }
      ],
      "stateMutability": "view",
      "type": "function"
    },
    {
      "inputs": [
        {
          "internalType": "bytes32",
          "name": "",
          "type": "bytes32"
        }
      ],
      "name": "publicShareBalances",
      "outputs": [
        {
          "internalType": "uint128",
          "name": "",
          "type": "uint128"
        }
      ],
      "stateMutability": "view",
      "type": "function"
    },
    {
      "inputs": [
        {
          "internalType": "bytes32",
          "name": "marketId",
          "type": "bytes32"
        },
        {
          "internalType": "uint128",
          "name": "sharesToRedeem",
          "type": "uint128"
        }
      ],
      "name": "redeemShares",
      "outputs": [],
      "stateMutability": "nonpayable",
      "type": "function"
    },
    {
      "inputs": [
        {
          "internalType": "bytes32",
          "name": "marketId",
          "type": "bytes32"
        },
        {
          "internalType": "uint128",
          "name": "amount",
          "type": "uint128"
        }
      ],
      "name": "requestUnshieldLP",
      "outputs": [
        {
          "internalType": "uint256",
          "name": "",
          "type": "uint256"
        }
      ],
      "stateMutability": "nonpayable",
      "type": "function"
    },
    {
      "inputs": [
        {
          "internalType": "bytes32",
          "name": "marketId",
          "type": "bytes32"
        },
        {
          "internalType": "uint8",
          "name": "outcome",
          "type": "uint8"
        },
        {
          "internalType": "uint128",
          "name": "amount",
          "type": "uint128"
        }
      ],
      "name": "requestUnshieldShares",
      "outputs": [
        {
          "internalType": "uint256",
          "name": "",
          "type": "uint256"
        }
      ],
      "stateMutability": "nonpayable",
      "type": "function"
    },
    {
      "inputs": [
        {
          "internalType": "bytes32",
          "name": "marketId",
          "type": "bytes32"
        },
        {
          "internalType": "uint8",
          "name": "outcome",
          "type": "uint8"
        },
        {
          "internalType": "uint128",
          "name": "sharesToSell",
          "type": "uint128"
        },
        {
          "internalType": "uint128",
          "name": "minTokensOut",
          "type": "uint128"
        }
      ],
      "name": "sellShares",
      "outputs": [],
      "stateMutability": "nonpayable",
      "type": "function"
    },
    {
      "inputs": [
        {
          "internalType": "bytes32",
          "name": "",
          "type": "bytes32"
        }
      ],
      "name": "treasuryProposals",
      "outputs": [
        {
          "internalType": "bytes32",
          "name": "id",
          "type": "bytes32"
        },
        {
          "internalType": "address",
          "name": "proposer",
          "type": "address"
        },
        {
          "internalType": "address",
          "name": "recipient",
          "type": "address"
        },
        {
          "internalType": "uint128",
          "name": "amount",
          "type": "uint128"
        },
        {
          "internalType": "uint8",
          "name": "approvals",
          "type": "uint8"
        },
        {
          "internalType": "bool",
          "name": "executed",
          "type": "bool"
        },
        {
          "internalType": "uint64",
          "name": "createdAt",
          "type": "uint64"
        }
      ],
      "stateMutability": "view",
      "type": "function"
    },
    {
      "inputs": [
        {
          "internalType": "uint256",
          "name": "",
          "type": "uint256"
        }
      ],
      "name": "unshieldRequests",
      "outputs": [
        {
          "internalType": "bytes32",
          "name": "marketId",
          "type": "bytes32"
        },
        {
          "internalType": "address",
          "name": "user",
          "type": "address"
        },
        {
          "internalType": "uint8",
          "name": "outcome",
          "type": "uint8"
        },
        {
          "internalType": "uint128",
          "name": "amount",
          "type": "uint128"
        },
        {
          "internalType": "bool",
          "name": "executed",
          "type": "bool"
        }
      ],
      "stateMutability": "view",
      "type": "function"
    },
    {
      "inputs": [
        {
          "internalType": "bytes32",
          "name": "marketId",
          "type": "bytes32"
        },
        {
          "internalType": "uint8",
          "name": "outcome",
          "type": "uint8"
        }
      ],
      "name": "voteOutcome",
      "outputs": [],
      "stateMutability": "payable",
      "type": "function"
    },
    {
      "inputs": [
        {
          "internalType": "bytes32",
          "name": "",
          "type": "bytes32"
        }
      ],
      "name": "voteTallies",
      "outputs": [
        {
          "internalType": "uint128",
          "name": "outcome1Bonds",
          "type": "uint128"
        },
        {
          "internalType": "uint128",
          "name": "outcome2Bonds",
          "type": "uint128"
        },
        {
          "internalType": "uint128",
          "name": "outcome3Bonds",
          "type": "uint128"
        },
        {
          "internalType": "uint128",
          "name": "outcome4Bonds",
          "type": "uint128"
        },
        {
          "internalType": "uint8",
          "name": "totalVoters",
          "type": "uint8"
        },
        {
          "internalType": "uint128",
          "name": "totalBonded",
          "type": "uint128"
        },
        {
          "internalType": "uint64",
          "name": "votingDeadline",
          "type": "uint64"
        },
        {
          "internalType": "uint64",
          "name": "disputeDeadline",
          "type": "uint64"
        },
        {
          "internalType": "bool",
          "name": "finalized",
          "type": "bool"
        },
        {
          "internalType": "uint8",
          "name": "winningOutcome",
          "type": "uint8"
        }
      ],
      "stateMutability": "view",
      "type": "function"
    },
    {
      "inputs": [
        {
          "internalType": "bytes32",
          "name": "marketId",
          "type": "bytes32"
        }
      ],
      "name": "withdrawCreatorFees",
      "outputs": [],
      "stateMutability": "nonpayable",
      "type": "function"
    },
    {
      "inputs": [
        {
          "internalType": "bytes32",
          "name": "marketId",
          "type": "bytes32"
        },
        {
          "internalType": "uint128",
          "name": "lpSharesToWithdraw",
          "type": "uint128"
        }
      ],
      "name": "withdrawLiquidity",
      "outputs": [],
      "stateMutability": "nonpayable",
      "type": "function"
    },
    {
      "inputs": [
        {
          "internalType": "uint128",
          "name": "amount",
          "type": "uint128"
        }
      ],
      "name": "withdrawProtocolFees",
      "outputs": [],
      "stateMutability": "nonpayable",
      "type": "function"
    },
    {
      "stateMutability": "payable",
      "type": "receive"
    }
  ],
  "bytecode": "0x60808060405234604a5760017f9b779b17422d0df92223018b32b4d1fa46e071723d6817e2486d003becc55f00555f80546001600160a01b0319163317905561607e908161004f8239f35b5f80fdfe6080604052600436101561001a575b3615610018575f80fd5b005b5f803560e01c806301f559fe14614d6a578063027d0d1d14614bd5578063031d973e146149bd578063054c8a7b1461477a578063065981c01461469257806307c19e581461465f5780630ebc6780146140795780630f564be214613f0d5780631672c39d14613c955780631dfe3bbf14613a1e57806320f5177414610d4e57806321b77d63146116095780632b2b7b9314611852578063304c15d71461399257806331b7d413146139765780633d4d56fe1461378557806341c14c1c1461365d578063428dea311461363c57806343661c9f1461353f5780634432662f1461350c57806344a6e323146132cb578063469a78d214610d4e5780634783c35b146132785780634a51b3081461325d5780634aa7f2dc1461324257806356a1f3e21461309e57806359fe5a9214612e0657806368eb5ace14612d8f5780636c61fa5d14612d2657806370160b4d14612c7d57806372622cb914612c605780637564912b14612bb757806378f5b52414612a47578063852e3a061461273a578063891b591b1461270b5780639088de95146124f357806395ce4962146124c05780639b4df39d146124a55780639d223d471461242f5780639de28fe014611be35780639de6327814611bc85780639e46a77714611bad5780639ed6b52514611b925780639f4c4deb14611b77578063a207d02e14611b5c578063a525821014611b41578063a567298d14611b07578063b06136e114611acc578063bdb8328914611997578063be37822814611857578063c3c95c7b1461185c578063cc3cbd2a14611857578063d1791ae014611852578063d5f394881461182b578063d5fc68601461160e578063d73792a914611609578063dbe0f24414611578578063dd8c9f8c146111cf578063e3d7840d1461119c578063e86e951514610f90578063ec97908214610f73578063f5573ddd14610d53578063f585dc5714610d4e578063f6c0092714610c56578063f732df14146109ff5763fc5b42cc146102fb575061000e565b61030436614e8a565b828452600260205260408420600101549092919061032c906001600160a01b03161515614f27565b818452600260205260046040852001936103808554610353600160ff8360901c1614615208565b61036b6001600160401b038260101c16421115615702565b600160ff8516101590816109eb575b50615782565b6103e86001600160801b033416106109b6576127106001600160801b036103a8813416615382565b1604916127106001600160801b036103c1813416615382565b1604926104446103e3856103de846001600160801b033416615098565b615098565b948685526004602052610424604086209182546001600160801b0361040a878284166156e7565b6001600160801b031990921691161780845560801c6156e7565b81546001600160801b031660809190911b6001600160801b031916179055565b6001600160801b0361045b600e54928284166156e7565b16906001600160801b03191617600e55838252600360205260ff60408320965460081c16916040519461048d86615116565b608036873787546001600160801b0381168752608081901c602088015296600385106109b0576001600160801b0360018a0154165b6040880152600485106109aa57600189015460801c5b60608801526104f260ff6104eb86615afd565b1688615ad8565b519889670de0b6b3a7640000810204670de0b6b3a7640000148a15171561099657670de0b6b3a76400008a0295845b8160ff821610156105a457888a60ff6105398a615afd565b1660ff841603610551575b505060010160ff16610521565b6001916105938461058d6105999460ff839f6105836001600160801b039161057c84809d1686615ad8565b5190615293565b9616931690615ad8565b51615286565b9061527c565b98915050888a610544565b5085600361074b938a808f958f6105ed6001600160801b038f6105e26107389b6105dd670de0b6b3a764000085940491848a1690615286565b615b0f565b169b168b10156157fc565b6105f88a1515615632565b60ff87166001036107c957506106626106426004938b6001600160801b0361062a8954926105dd838616848616615286565b16906001600160801b0319161780885560801c6156e7565b85546001600160801b031660809190911b6001600160801b031916178555565b8481101561079b575b1015610781575b60028201906001600160801b0361068d8354928284166156e7565b16906001600160801b0319161790550180546001600160801b036106b58134168284166156e7565b16906001600160801b03191617905584865260066020526040862080546001600160801b036106e88134168284166156e7565b16906001600160801b031916179055610701818661589c565b865260126020526040862080546001600160801b03610722878284166156e7565b16906001600160801b03191617905533856158ca565b9182855260106020526040852054615932565b9083526010602052604083205533907fec5205380e845af9d5882d14b944f8bae155a20d9206a436abf70a61108568df8380a380f35b6107966001830161042483825460801c6156e7565b610672565b6001840180546001600160801b036107b5868284166156e7565b16906001600160801b03191617905561066b565b60ff871660020361087f57506004915061082e6001600160801b0361080f8b6105dd8854846107fa8a8284166156e7565b169085191617808a558489169060801c615286565b86546001600160801b0316911660801b6001600160801b031916178555565b84811015610851575b10610672576107966001830161042483825460801c6156e7565b6001840180546001600160801b0361086b868284166156e7565b16906001600160801b031916179055610837565b60ff8716860361090257506108a76106428386546001600160801b0361062a838284166156e7565b6001840190600482546001600160801b036108ca8d6105dd838916848616615286565b16906001600160801b031916179182845510156108ea575b505050610672565b6108fa926104249160801c6156e7565b808a806108e2565b61064283826001600160801b0361062a8a978261091f97166156e7565b1015610968575b610796600183016001600160801b036109498a6105dd838716855460801c615286565b82546001600160801b0316911660801b6001600160801b031916179055565b6001820180546001600160801b03610982848284166156e7565b16906001600160801b031916179055610926565b634e487b7160e01b84526011600452602484fd5b826104d8565b826104c2565b60405162461bcd60e51b815260206004820152600d60248201526c42656c6f77206d696e696d756d60981b6044820152606490fd5b60ff915060081c1660ff841611155f61037a565b5034610c52576040366003190112610c5257610b60600435610a1f614e74565b815f526020936002855260018060a01b0391610a4583600160405f200154161515614f27565b610b926001600160801b038092168094610a60821515615833565b610a6a3388615905565b93610a7483615f6c565b94805f5260118b52610ac7610ab58c6011610aa6610a968b60405f2054615b1c565b9a610a9f615fdd565b908c615c19565b91855f525260405f2054615dbd565b825f5260118d528060405f2055615e60565b5f5260118a52610ada60405f2054615ebf565b60028a610ae8601554615496565b9a8b948560155560ff60405193610afe856150e8565b8d855280850192338452601660408701925f8452606088019b8c52608088019a5f8c525f525260405f2095518655600186019351166001600160601b0360a01b845416178355511681549060ff60a01b9060a01b169060ff60a01b1916179055565b019251166001600160801b031983541617825551151581549060ff60801b90151560801b169060ff60801b1916179055565b610b9b81615e60565b845f52601786528060405f205573ea30c4b8b44078bbf8a6ef5b9f1ec1626c7848d9803b15610c5257604051630828982760e01b815260048101929092523360248301525f908290604490829084905af18015610c4757610c36575b50604051928352848301526040820152817f6da0e4bc5a9d31d638134dd7b03484ea40e7d453a35a29c0fdd72cd319d0fe5b60603393a3604051908152f35b610c409150615103565b5f80610bf7565b6040513d5f823e3d90fd5b5f80fd5b34610c52576020366003190112610c5257604051610c73816150cd565b5f8152602081015f9052604081015f9052606081015f90526080908181015f905260a081015f905260c0015f90526004355f52600360205260405f2090604051610cbc816150cd565b8254916001600160801b0392839182808316968786526020860193831c84528160018201548160408901818316815260608a0192871c83528160028601549881898d01978d828d168a5260a0019b8b1c8c5260030154169b60c0019b8c526040519d8e52511660208d0152511660408b015251166060890152511690860152511660a0840152511660c082015260e090f35b614ed4565b34610c5257610d6136614e8a565b91805f52610dc96020936002855260018060a01b0390610d8b82600160405f200154161515614f27565b610ea260ff8616958693600185101580610f54575b610da990615782565b6001600160801b03809416958692610dc2841515615833565b33896158ca565b93610dd383615f6c565b94805f5260108b52610e07610df58c6010610aa6610a968b60405f2054615b1c565b825f5260108d528060405f2055615e60565b5f5260108a52610e1a60405f2054615ebf565b600288610b608c60ff610e2e601554615496565b9d8e978860155560405195610e42876150e8565b865260168487019433865260408801938452606088019b8c52608088019a5f8c525f525260405f2095518655600186019351166001600160601b0360a01b845416178355511681549060ff60a01b9060a01b169060ff60a01b1916179055565b610eab81615e60565b845f52601786528060405f205573ea30c4b8b44078bbf8a6ef5b9f1ec1626c7848d9803b15610c5257604051630828982760e01b815260048101929092523360248301525f908290604490829084905af18015610c4757610f455750604051928352848301526040820152817f6da0e4bc5a9d31d638134dd7b03484ea40e7d453a35a29c0fdd72cd319d0fe5b60603393a3604051908152f35b610f4e90615103565b85610bf7565b505f87815260028a52604090206004015460081c60ff16851115610da0565b34610c52575f366003190112610c52576020600154604051908152f35b34610c52576060366003190112610c5257610fa9614ebe565b6024356001600160a01b038181169291839003610c525760443590808216809203610c5257610fdc815f541633146157c0565b601a549260ff8460a81c166111575716908115158061114e575b80611145575b15611112578382141580611108575b806110fe575b156110c5577ff5b31633ffe7ba0e7371bfeec0d902cc200a5ecbb09cd7554475c5459dbfe1249360809360018560405161104a816150e8565b868152846020820152856040820152600260608201520152816001600160601b0360a01b858160185416176018556019541617601955600160a81b9060ff60a81b199084600160a11b916affffffffffffffffffffff60a81b1617171617601a556040519283526020830152604082015260026060820152a1005b60405162461bcd60e51b81526020600482015260116024820152704475706c6963617465207369676e65727360781b6044820152606490fd5b5080821415611011565b508084141561100b565b60405162461bcd60e51b815260206004820152600b60248201526a2d32b9379039b4b3b732b960a91b6044820152606490fd5b50801515610ffc565b50831515610ff6565b60405162461bcd60e51b815260206004820152601c60248201527f4d756c746973696720616c726561647920696e697469616c697a6564000000006044820152606490fd5b34610c52576020366003190112610c52576004355f52600660205260206001600160801b0360405f205416604051908152f35b34610c52576040366003190112610c52576111e8614ebe565b6111f0614e74565b6018546001600160a01b0392919083163314801561156b575b801561155e575b61121990614fa0565b60ff601a5460a81c1615611519578282169182156114e3576001600160801b039384831690811515806114d5575b1561149f576040516020968782013360601b81526001600160601b03198660601b1660348401526001600160801b031992838860801b1660488201524260588201526058815261129681615116565b51902096875f52601b895283600160405f20015416611471578861138b60ff7f10a0fbf014675a969752e045d74f8c85dd79c6a693685b1177833061d50b639d98968b9a98968b9660036113a697604051906112f1826150cd565b8a825288820133815260408301918252606083019c8d52608083019660018852601b60a085019b5f8d5260c086019e8f6001600160401b03421690525f525260405f20935184558060018501925116916001600160601b0360a01b9283825416179055600284019251169082541617905501985116908854161787555116859081549060ff60801b9060801b169060ff60801b1916179055565b51835460ff60881b191690151560881b60ff60881b16178355565b51815467ffffffffffffffff60901b191660909190911b67ffffffffffffffff60901b161790556040518681018581523360601b6001600160601b03191660208201529061140181603484015b03601f198101835282615167565b5190205f908152601c8752604090819020805460ff1916600117905580516001600160a01b039290921682526001600160801b03929092166020820152a2807f2ff0cda1d4b877c99bc53902ce7b326e79084be3e3c28139b9e724e97236a18c83604051338152a2604051908152f35b60405162461bcd60e51b8152600481018a9052600660248201526545786973747360d01b6044820152606490fd5b60405162461bcd60e51b815260206004820152600e60248201526d125b9d985b1a5908185b5bdd5b9d60921b6044820152606490fd5b5085600e5416821115611247565b60405162461bcd60e51b815260206004820152600e60248201526d16995c9bc81c9958da5c1a595b9d60921b6044820152606490fd5b60405162461bcd60e51b815260206004820152601860248201527f4d756c7469736967206e6f7420696e697469616c697a656400000000000000006044820152606490fd5b50601a5483163314611210565b5082601954163314611209565b34610c52575f366003190112610c5257335f52600f6020526001600160801b0360405f20541680156115d7575f80808061001894338252600f602052604082206001600160801b03198154169055335af16115d1615188565b506151c6565b60405162461bcd60e51b815260206004820152600a6024820152694e6f207265776172647360b01b6044820152606490fd5b614ef0565b34610c5257602080600319360112610c52576004355f818152601683526040902060018101805493916001600160a01b0380861692909190611651841515614fe2565b6002820192835461166860ff8260801c161561501a565b875f526017875260405f2054956040519663458693c960e01b8852600488015260408760248173ea30c4b8b44078bbf8a6ef5b9f1ec1626c7848d95afa968715610c47575f905f986117e9575b50151596156117af5760ff60801b198216600160801b17865597987f2600d5f0b13e194512590412065842308f0468388ab454f9c240ae8cf45c5d41989087611706575b8a8a8a8a604051908152a2005b60a01c60ff1690816117665750505090611731916001600160801b0380955416935491541690615905565b5f526014845260405f209161174a8354928284166156e7565b16906001600160801b0319161790555b848080808080806116f9565b91949550915061178092506001600160801b0394546158ca565b5f526013845260405f209161179b81845493168284166156e7565b16906001600160801b03191617905561175a565b60405162461bcd60e51b815260048101899052601260248201527144656372797074696f6e2070656e64696e6760701b6044820152606490fd5b9750506040873d604011611823575b8161180560409383615167565b81010312610c5257878751970151968715158803610c52578b6116b5565b3d91506117f8565b34610c52575f366003190112610c52575f546040516001600160a01b039091168152602090f35b611b92565b614f0c565b34610c52576020366003190112610c5257611875615738565b506004355f52600260205261014060405f206001600160401b0361012060405161189e816150b1565b82600485549586845260018060a01b03600182015416602085015260018060a01b03600282015416604085015260038101546060850152015460ff8116608084015260ff8160081c1660a0840152818160101c1660c0840152818160501c1660e084015260ff8160901c1661010084015260981c168282015260405193845260018060a01b03602082015116602085015260018060a01b0360408201511660408501526060810151606085015260ff608082015116608085015260ff60a08201511660a08501528260c08201511660c08501528260e08201511660e085015260ff61010082015116610100850152015116610120820152f35b34610c52576020366003190112610c52576004355f818152600260205260409020600101546001600160a01b03906119d29082161515614f27565b815f52600260205260405f2090806001830154163314908115611abf575b5015611a8957600401805460ff8160901c1660018114908115611a7e575b5015611a495760ff60901b1916600160921b1790557f22ad0fb1e02d1db96e8800dac4e4b23821afaf9e1ca54d2093e7bc7fb8732b5a5f80a2005b60405162461bcd60e51b815260206004820152600d60248201526c10d85b9b9bdd0818d85b98d95b609a1b6044820152606490fd5b600591501484611a0e565b60405162461bcd60e51b815260206004820152600e60248201526d139bdd08185d5d1a1bdc9a5e995960921b6044820152606490fd5b90505f54163314836119f0565b34610c52576040366003190112610c5257611af1611ae8614e64565b336004356158ca565b5f526010602052602060405f2054604051908152f35b34610c52576020366003190112610c52576004355f5260046020526040805f20548151906001600160801b038116825260801c6020820152f35b34610c52575f366003190112610c5257602060405160648152f35b34610c52575f366003190112610c5257602060405160078152f35b34610c52575f366003190112610c5257602060405160058152f35b34610c52575f366003190112610c5257602060405160038152f35b34610c52575f366003190112610c5257602060405160018152f35b34610c52575f366003190112610c5257602060405160068152f35b34610c52576080366003190112610c5257611bfc614e64565b6001600160801b036044351660443503610c52576064356001600160801b0381168103610c5257611c2b61586d565b6004355f90815260026020526040902060010154611c53906001600160a01b03161515614f27565b6004355f526002602052600460405f20015490611c78600160ff8460901c1614615208565b611c906001600160401b038360101c16421115615702565b600160ff8416101580612417575b611ca790615782565b611cbd6001600160801b03604435161515615632565b6004355f52600360205260405f2091604051611cd881615116565b608036823783546001600160801b038116825260801c60208201526003600883901c60ff1610612411576001600160801b036001850154165b60408201526004600883901c60ff161061240b57600184015460801c5b6060820152611d4860ff611d4187615afd565b1682615ad8565b515f91816001600160801b03600288015416808211612403575b505f5b6080811061226d575b505050506127106001600160801b03611d88818416615382565b1604906127106001600160801b03611da1818416615382565b16049360646001600160801b03831602806001600160801b0381160361225957611fd597611f285f9897611f238a99976001600160801b039760038c9b9a8c9b611e0e8c611e0261271082611f879e16046103de8b6103de8b868c16615098565b9c168d8d1610156157fc565b6004358d526004602052611e5160408e206104248982546001600160801b03611e398b8284166156e7565b16906001600160801b0319161780845560801c6156e7565b600e548c611e61878284166156e7565b16908d191617600e55600160ff8a16148d146120555760ff600491611eca61064285546001600160801b03611ea7818b1682611ea16044358287166156e7565b16615098565b16906001600160801b031916178087556001600160801b0389169060801c615098565b84828260081c16101561202c575b60081c161015612010575b60028101548b611ef7818616828416615098565b16908c1916176002820155019089611f1581845493168284166156e7565b16908a1916179055866156e7565b6156e7565b60043586526006602052604086209085611f46835492828416615098565b1690861916179055611f5a8160043561589c565b8552601260205260408520805485611f76604435828416615098565b1690861916179055336004356158ca565b8084526013602052611fa5836044351684604087205416101561540e565b8352601360205260408320805483611fc1604435828416615098565b169084191617905516335af16115d1615188565b336004357f156358d3313311b9cdea40c0032b0ede9785d6af7566ee589e1ec8723d86f8725f80a360015f8051602061602983398151915255005b612027600182016104248d8616825460801c615098565b611ee3565b6001840180548f612041818a16828416615098565b16906001600160801b031916179055611ed8565b600260ff8a16148d1461210b5760ff6004916120a161064285546001600160801b03612085818b16828416615098565b16906001600160801b031916178087556044359060801c6156e7565b6120b46106428f8816865460801c615098565b84828260081c1610156120e2575b60081c1610611ee357612027600182016104248d8616825460801c615098565b6001840180548f6120f7818a16828416615098565b16906001600160801b0319161790556120c2565b8260ff8a16148d146121c05761216361214383548e61212e818916828416615098565b16908f1916178085558e87169060801c615098565b83546001600160801b031660809190911b6001600160801b031916178355565b60018201600460ff82548f612183818a1682611ea16044358287166156e7565b16906001600160801b031916179384845560081c1610156121a6575b5050611ee3565b6104246121b9928e87169060801c615098565b5f8061219f565b60ff83916121e261064285546001600160801b03611ea7818b16828416615098565b60081c161015612237575b61202760018201612227612207604435835460801c6156e7565b82546001600160801b031660809190911b6001600160801b031916178255565b6104248d8616825460801c615098565b6001810180548c61224c818716828416615098565b16908d19161790556121ed565b634e487b7160e01b5f52601160045260245ffd5b919561228084869a959a99939799615286565b976001890189116122595786670de0b6b3a7640000810204670de0b6b3a7640000148715171561225957670de0b6b3a76400008702955f5b60ff811660ff8460081c168110156123f15760ff6122d589615afd565b1681036122e9575b5060010160ff166122b8565b909760018c0160011c6122fc838d615ad8565b51111561233a576123328c6105938d61232c866001612322819861057c60ff9b87615ad8565b9501871c92615ad8565b51615b0f565b9891506122dd565b50509096929891979395505f999499195b5f199080196123e15750805b81811480156123d8575b156123b95750805b6044356001600160801b03161061239857505060010160011c935b83851461239357600101611d65565b611d6e565b90959450906001808201901c808301116122595760010160011c0192612384565b6123d3906123ce866001870160011c92615b0f565b615286565b612369565b50848110612361565b670de0b6b3a76400009004612357565b5050909692989197939599949961234b565b925088611d62565b5f611d2e565b5f611d11565b50611ca760ff8360081c1660ff851611159050611c9e565b34610c52576020366003190112610c52576001600160801b03600435818116808203610c52575f80808093866100189660018060a01b03845416916124758333146157c0565b61248b600e54928284166103de81881115615059565b16906001600160801b03191617600e555af16115d1615188565b34610c52575f366003190112610c5257602060405160148152f35b34610c52576020366003190112610c52576004355f52601360205260206001600160801b0360405f205416604051908152f35b34610c52576040366003190112610c525760043561250f614e74565b61251761586d565b815f5260206002815261253a60018060a01b03600160405f200154161515614f27565b825f526002815261255a600360ff600460405f20015460901c16146155f7565b825f526005815260ff600360405f20015460481c1691600183106126da575f806126a194819482948860136001600160801b039384841661259c811515615632565b8388526003825261267a61266560408a20986125eb6125bb828961589c565b9a8b8d52601287526125e68b60028f60408391205416936125dd85151561534a565b0154168b61539d565b6153bb565b968988169a6125fb8c151561566c565b818d52600687526126148b60408f2054168d11156156a6565b818d526006875260408d208b61262e82549b828d16615098565b166001600160801b0319809b161790558c526012865260408c208054898c6126588d828516615098565b16911617905533906158ca565b91828a528484528760408b205416101561540e565b8752526040852092612690845493828516615098565b169116179055335af16115d1615188565b33907f88346dcdee99ace62532c80966a072daf536d79410106b9059222549ea3df6d15f80a360015f8051602061602983398151915255005b60405162461bcd60e51b81526004810183905260096024820152682737903bb4b73732b960b91b6044820152606490fd5b34610c52576020366003190112610c52576004355f52601c602052602060ff60405f2054166040519015158152f35b6040366003190112610c5257600435612751614e64565b815f5260206002815261277460018060a01b03600160405f200154161515614f27565b825f5260028152600460405f20015460ff916127a1838360901c1660058114908115612a3c575b506154b5565b845f526005815260405f209060028201936001600160401b039586865460881c164211612a0757816127e391169482600187101591826129f7575b5050615782565b6001600160801b03918234169366038d7ea4c6800085106129c757612808338a615905565b95865f52600783528460405f205460081c16612992576040519860608a019081118a82101761297e576128de996128d898612892926040528382526007868301968a885260408401925f84525f5252612877888860405f209451169760ff19988986541617855551168361525a565b51815460ff60881b191690151560881b60ff60881b16179055565b6001810361290657508054846128aa878284166156e7565b16906001600160801b0319161790555b8554916128c88184166154a4565b1691161780855560081c166156e7565b9061525a565b33907ff256f79267f8b24554957b1869434b0308258b011f7bebd8a5519a8ba62e10515f80a3005b6002810361292657508061042486612921935460801c6156e7565b6128ba565b600381036129555750600101805484612941878284166156e7565b16906001600160801b0319161790556128ba565b600414612963575b506128ba565b6001612978910161042486825460801c6156e7565b8861295d565b634e487b7160e01b5f52604160045260245ffd5b60405162461bcd60e51b815260048101849052600d60248201526c105b1c9958591e481d9bdd1959609a1b6044820152606490fd5b60405162461bcd60e51b8152600481018390526008602482015267135a5b88189bdb9960c21b6044820152606490fd5b60081c168611159050828a6127dc565b60405162461bcd60e51b815260048101849052600d60248201526c159bdd1a5b99c818db1bdcd959609a1b6044820152606490fd5b60079150148761279b565b34610c52576020366003190112610c5257612a60615738565b506004355f52600560205261014060405f2060ff610120604051612a83816150b1565b8260038554956001600160801b03871684528660801c602085015260018101546001600160801b038116604086015260801c60608501526001600160401b03600282015484811660808701526001600160801b038160081c1660a087015260881c1660c085015201546001600160401b03811660e0840152818160401c16151561010084015260481c16828201526001600160801b03604051941684526001600160801b0360208201511660208501526001600160801b0360408201511660408501526001600160801b0360608201511660608501528260808201511660808501526001600160801b0360a08201511660a08501526001600160401b0360c08201511660c08501526001600160401b0360e08201511660e08501526101008101511515610100850152015116610120820152f35b34610c52576020366003190112610c52576004355f52600260205261014060405f2080549060018060a01b039081600182015416916002820154169060046003820154910154916001600160401b039360405195865260208601526040850152606084015260ff8116608084015260ff8160081c1660a0840152818160101c1660c0840152818160501c1660e084015260ff8160901c1661010084015260981c16610120820152f35b34610c52575f366003190112610c52576020601554604051908152f35b34610c52576020366003190112610c52576004355f52600560205261014060405f2060ff81549160036001600160801b03916001810154926002820154906001600160401b0393849301549460405197828116895260801c6020890152818116604089015260801c606088015285821660808801528160081c1660a087015260881c1660c0850152811660e0840152818160401c16151561010084015260481c16610120820152f35b34610c52576020366003190112610c52576004355f52601660205260a060405f2060ff815491816002600183015492015491604051948552600180871b0381166020860152851c1660408401526001600160801b038116606084015260801c1615156080820152f35b34610c52576020366003190112610c52576004355f52600360205260e060405f208054906001600160801b03906001810154918060036002840154930154169260405194828116865260801c6020860152818116604086015260801c60608501528116608084015260801c60a083015260c0820152f35b602080600319360112610c52576004355f818152600283526040902060010154612e3a906001600160a01b03161515614f27565b805f5260028252600460405f200154612e5b600160ff8360901c1614615208565b612e736001600160401b038260101c16421115615702565b6001600160801b039283341693612e8e61271086101561545a565b835f526003825260405f20946002860180548060801c80155f14613082575082955b8487161561304c579160119697986004612f7b93612f46612f26888a612f0d60ff612f079b60081c169588549b8c916125e685841696612efd87612ef48a8461539d565b941680946153bb565b9460801c9061539d565b936156e7565b166001600160801b0319809a161780875560801c6156e7565b84546001600160801b031660809190911b6001600160801b031916178455565b600381101561301c575b1015612fea575b506104248882548588612f6c898285166156e7565b1691161780845560801c6156e7565b865f526006845260405f2092612f958454938285166156e7565b169116179055612fb9612fa83386615905565b93845f5283835260405f2054615932565b925f525260405f205533907f65bd878891ea37abce70f965ba375cfda3a5bceabfacdf0d2c8f2aee66d598e65f80a3005b60016130169101610424815460801c613010613006828a61539d565b8a875416906153bb565b906156e7565b89612f57565b600183018054878a613041818416613010613037828f61539d565b848c5416906153bb565b169116179055612f50565b60405162461bcd60e51b815260048101879052600e60248201526d5a65726f204c502073686172657360901b6044820152606490fd5b61308f613098918561539d565b858316906153bb565b95612eb0565b34610c5257602080600319360112610c52576004355f8181526002835260409020600101546130d7906001600160a01b03161515614f27565b805f526002825261310160ff600460405f20015460901c1660038114908115613237575b50615585565b61310b3382615905565b5f526007825260405f208054926001600160801b0392838560081c16906131338215156155c1565b61314360ff8760881c16156154f1565b5f526005825260405f2060ff829681600384015460481c1691829116148061322e575b613191575b845460ff60881b1916600160881b1785556100185f8080808b8b16335af16115d1615188565b91949092956004875260148260405f205416029482861695860361225957610018975f9788976131c48998978998615a7f565b908682166131dc575b5050505094509581955061316b565b829395506131fd916125e6600f9460646131f6940461539d565b80936156e7565b93338752526040852090846132168354928284166156e7565b16906001600160801b031916179055888080806131cd565b50801515613166565b6004915014846130fb565b34610c52575f366003190112610c5257602060405160028152f35b34610c52575f366003190112610c5257602060405160048152f35b34610c52575f366003190112610c525760a0600180821b0360ff816018541691806019541690601a54916040519485526020850152811660408401528181851c16606084015260a81c1615156080820152f35b34610c52576040366003190112610c52576004356132e7614e74565b6132ef61586d565b815f526020906002825261331360018060a01b03600160405f200154161515614f27565b825f5260028252613333600360ff600460405f20015460901c16146155f7565b825f5260058252600361335660405f206001600160401b03928391015416615241565b164211156134d5576001600160801b03908181169283151561337790615632565b845f526003815260405f2060020190815494848616613396908561539d565b9560801c95866133a5916153bb565b808616966133b488151561566c565b885f5260068452858760405f2054168911156133cf906156a6565b6133d891615098565b84546001600160801b031660809190911b6001600160801b0319161784558354938661340683828816615098565b166001600160801b0319809616179055875f526006835260405f209084878354928184169061343491615098565b169116179055336134459088615905565b90815f52601483528560405f205416101561345f9061552f565b5f526014905260405f20928354928184169061347a91615098565b169116179055335a5f809381938293f1613492615188565b5061349c906151c6565b33907fc7ddda68b458058660231a324ab142da47b73920572f869d97a99c09c1c50bcd5f80a360015f8051602061602983398151915255005b60405162461bcd60e51b815260048101839052600f60248201526e5072696f726974792077696e646f7760881b6044820152606490fd5b34610c52576020366003190112610c525761352933600435615905565b5f526011602052602060405f2054604051908152f35b34610c5257602080600319360112610c525760043590815f526002815260018060a01b0361357781600160405f200154161515614f27565b825f526009825260405f2054163303613609575f80808460088295610018978452600281526135be60ff600460408720015460901c16600381149081156135fe5750615585565b8284528181526001600160801b03604085205416926135de8415156155c1565b8452526040822080546001600160801b0319169055335af16115d1615188565b60049150148a6130fb565b6064906040519062461bcd60e51b82526004820152600c60248201526b2737ba103234b9b83aba32b960a11b6044820152fd5b34610c52575f366003190112610c5257602060405166038d7ea4c680008152f35b34610c5257602080600319360112610c525760043590815f526002815260018060a01b0361369581600160405f200154161515614f27565b825f526002825260405f209060018201541633036137525760ff60046136cc92015460901c16600381149081156132375750615585565b815f52600c81526136e460ff60405f205416156154f1565b815f526004815260405f205460801c918215613723575f8061001894600c8295839584525260408220600160ff19825416179055335af16115d1615188565b60405162461bcd60e51b81526004810183905260076024820152664e6f206665657360c81b6044820152606490fd5b60405162461bcd60e51b815260048101839052600b60248201526a2737ba1031b932b0ba37b960a91b6044820152606490fd5b34610c52576040366003190112610c52576004356137a1614e74565b6137a961586d565b815f5260209060028252600160a01b6001900360405f20600101541615156137d090614f27565b825f526002825260405f206004015460901c60ff166004146137f1906152a6565b6001600160801b03908181169283151561380a90615318565b6138143386615905565b90815f52600d815260405f205460ff161561382e906154f1565b855f526003815260405f206002019182549585871661384d908661539d565b9660801c968761385c916153bb565b885f52600684528660405f2054169786888316998a111561387c906153d3565b61388591615098565b85546001600160801b031660809190911b6001600160801b031916178555845494876138b383828916615098565b166001600160801b0319809716179055885f526006845260405f20908588835492818416906138e191615098565b169116179055815f52601483528560405f20541610156139009061552f565b5f526014905260405f20928354928184169061391b91615098565b169116179055335a5f809381938293f1613933615188565b5061393d906151c6565b33907fb3a981a51a138d30ed018f025a13f99d6eac339dcc88dec2adeb4c191eadb1ed5f80a360015f8051602061602983398151915255005b34610c52575f366003190112610c525760206040516103e88152f35b34610c52576020366003190112610c52576004355f52601b60205260e060405f206001600160401b0381549160018060a01b03906003826001830154169260028301541691015491604051948552602085015260408401526001600160801b038116606084015260ff8160801c16608084015260ff8160881c16151560a084015260901c1660c0820152f35b34610c5257602080600319360112610c52576004355f818152600283526040902060010154613a57906001600160a01b03161515614f27565b805f5260028252600460405f2001918254613a8360ff8260901c1660058114908115613c8a57506154b5565b825f526005825260405f209360028501546001600160401b03808260881c16421115613c5157600387019160ff835460401c16613c185760ff6003911610613bdf57867f0eec3220d7d0587998474d45a1647927fdd5d83c8a8d0f5b45154fb195408282969754946001600160801b038087169160019760801c838111613bd2575b5060081c60ff16600381101580613bc1575b613baf575b600411159283613b9b575b505050613b92575b815460ff60481b1916604885901b60ff60481b161782556801000000000000000090825490613b5f814216615241565b68ffffffffffffffffff19909216911617179055805460ff60901b1916600360911b17905560405160ff919091168152a2005b60049350613b2f565b6001015460801c9116109050888080613b27565b60018401546003985082169250613b1c565b508160018501541682841610613b17565b60029850925060ff613b05565b60405162461bcd60e51b81526004810186905260116024820152704e6f7420656e6f75676820766f7465727360781b6044820152606490fd5b60405162461bcd60e51b8152600481018790526011602482015270105b1c9958591e48199a5b985b1a5e9959607a1b6044820152606490fd5b60405162461bcd60e51b8152600481018690526011602482015270159bdd1a5b99c81b9bdd0818db1bdcd959607a1b6044820152606490fd5b60079150148661279b565b6040366003190112610c5257600435613cac614e64565b815f5260209060028252613cd060018060a01b03600160405f200154161515614f27565b825f5260028252600460405f2001805491613cf3600660ff8560901c1614614f66565b845f526005845260405f2090600382019081546001600160401b03918282164211613ed85790613d3460ff8093169760018910159081613ec8575b506152e2565b60481c168514613e945760028301936001600160801b03600381875460081c160290808216918203612259573416908110613e6057937fd8a95b382b85b954ed8355497403c1e4b82061ec736bdcfb48a875aae997e147979593613e2c613e045f9560019560409b998e895260088c528c8920906001600160801b031982541617905560098b528b8820336001600160601b0360a01b825416179055600a8b528b88208a60ff19825416179055600760901b60ff60901b1982541617905560ff60401b1984541684554216615241565b865467ffffffffffffffff60881b191660889190911b67ffffffffffffffff60881b16178655565b805460ff60481b191690558281550155805470ffffffffffffffffffffffffffffffffff19169055825133815291820152a2005b60405162461bcd60e51b815260048101899052600c60248201526b426f6e6420746f6f206c6f7760a01b6044820152606490fd5b60405162461bcd60e51b815260048101879052600c60248201526b53616d65206f7574636f6d6560a01b6044820152606490fd5b84915060081c168811158b613d2e565b60405162461bcd60e51b815260048101899052600d60248201526c15da5b991bddc818db1bdcd959609a1b6044820152606490fd5b34610c5257602080600319360112610c525760043590600360018060a01b0380601854163314801561406c575b801561405f575b613f4a90614fa0565b835f52601b8352613f6660405f20916001830154161515614fe2565b01613f7860ff825460881c161561501a565b6040518281018481523360601b6001600160601b031916602082015290613fa281603484016113f3565b519020805f52601c835260ff60405f205416614027577f2ff0cda1d4b877c99bc53902ce7b326e79084be3e3c28139b9e724e97236a18c929161401e915f52601c835260405f20600160ff1982541617905561400460ff825460801c166154a4565b815460ff60801b191660809190911b60ff60801b16179055565b604051338152a2005b60405162461bcd60e51b815260048101849052601060248201526f105b1c9958591e48185c1c1c9bdd995960821b6044820152606490fd5b50601a5481163314613f41565b5080601954163314613f3a565b60c0366003190112610c525761408d614e64565b6044359060ff82168203610c52576001600160401b036064351660643503610c52576001600160401b036084351660843503610c525760a4356001600160a01b0381168103610c5257600260ff8416101580614651575b1561461d576140f761271034101561545a565b426001600160401b036064351611156145e3576001600160401b03606435166001600160401b0360843516111561459e5760405160208101903360601b825260043560348201526001600160401b0360c01b8060643560c01b16605483015260843560c01b16605c82015242606482015260648152614175816150e8565b5190205f818152600260205260409020600101549092906001600160a01b03166145695760ff90604051926141a9846150b1565b84845233602085015260018060a01b03166040840152600435606084015216608082015260ff831660a082015260c08101906001600160401b0360643516825260e081016001600160401b036084351681526101008201600181526101208301916001600160401b0342168352855f526002602052600460405f20855181556001810160018060a01b03602088015116906001600160601b0360a01b9182825416179055600282019060018060a01b036040890151169082541617905560608601516003820155019460ff60808601511669ffffffffffffffff000061ff0060a0895498015160081b16925160101b16926001600160401b0360501b905160501b169360ff60901b905160901b16946001600160401b0360981b905160981b16956001600160401b0360981b199160ff60901b1916906cffffffffffffffffffffffffff60981b1617161717171717905561431060ff83166001600160801b0334166153bb565b600360ff84161061455b576001600160801b03815b600460ff861610614553578183915b8160405195614342876150cd565b81811687521660208601521660408401521660608201526001600160801b03341660808201526001600160801b03341660a08201525f60c0820152815f5260036020526001600160801b0360c0600360405f208385511684198254161781556143c68460208701511682906001600160801b0382549181199060801b169116179055565b6143fc60018201856040880151168619825416178155856060880151166001600160801b0382549181199060801b169116179055565b614432600282018560808801511686198254161781558560a0880151166001600160801b0382549181199060801b169116179055565b01920151166001600160801b031982541617905560405191604083018381106001600160401b0382111761297e5760409081525f808552602085810182815285835260048252929091209451915160801b6001600160801b0319166001600160801b0392909216919091179093556006835260405f2080546001600160801b031916346001600160801b03161790556144cb3383615905565b805f52601184526144e96001600160801b03341660405f2054615932565b905f526011845260405f2055614500600154615496565b60015560ff60405191600435835216838201526001600160401b03606435166040820152817f496672ee0fba5b2363cb91dfafa003bc43723be84cc68714fdbb7e0628aa3ac260603393a3604051908152f35b815f91614334565b6001600160801b035f614325565b60405162461bcd60e51b815260206004820152600d60248201526c4d61726b65742065786973747360981b6044820152606490fd5b60405162461bcd60e51b815260206004820152601960248201527f5265736f6c7574696f6e20616674657220646561646c696e65000000000000006044820152606490fd5b60405162461bcd60e51b8152602060048201526012602482015271446561646c696e6520696e2066757475726560701b6044820152606490fd5b60405162461bcd60e51b815260206004820152600c60248201526b322d34206f7574636f6d657360a01b6044820152606490fd5b50600460ff841611156140e4565b34610c52576020366003190112610c52576004355f52601460205260206001600160801b0360405f205416604051908152f35b34610c52575f61393d8180806146a736614e8a565b6146b297929761586d565b878352602090600282526146d660018060a01b036001604087200154161515614f27565b8884526002825261471160046040862001546146fa600460ff8360901c16146152a6565b60ff851660018110159182614769575b50506152e2565b8860136001600160801b039384841661472b811515615318565b8388526003825261267a61266560408a209861474a6125bb828961589c565b96808c52600686528960408d2054169a6126148b8a169c8d11156153d3565b60081c60ff16101590508b8061470a565b34610c52576020366003190112610c52575f805f915f6004355f52600360205260405f2091600260205260405f208354906001600160801b0394858316801580155f146149b457614964576ec097ce7bc90715b34b9f100000000004925b60801c8015806149a75761496457600460ff916ec097ce7bc90715b34b9f100000000004935b015460081c16600381101591828093614998575b1561498f57876001820154168015614964576004906ec097ce7bc90715b34b9f100000000004925b101590818061497f575b15614978576001015460801c8015614964576ec097ce7bc90715b34b9f1000000000045b61487a816123ce856123ce898b615286565b92836148a7575b5060808a8a8a818f818d8160405197168752166020860152166040840152166060820152f35b9397509398509398509350670de0b6b3a764000097888102908082048a1490151715612259576148d885889261527c565b1696888102908082048a1490151715612259576148f685889261527c565b16941561495d57878102908082048914901517156122595761491984879261527c565b165b911561494e57868102968188041490151715612259578380614940819460809961527c565b165b93928297898080614881565b5060809550838092505f614942565b505f61491b565b634e487b7160e01b5f52601260045260245ffd5b505f614868565b50600181015460801c1515614844565b60045f9261483a565b50876001820154161515614812565b505060ff60045f936147fe565b50505f926147d8565b34610c5257602080600319360112610c525760043590815f52600281526149f460018060a01b03600160405f200154161515614f27565b815f5260028152600460405f200190815491614a18600160ff8560901c1614615208565b6001600160401b0392838160101c16421115614b9c5760ff60901b1916600560901b179055614a48428316615241565b9160405190614a56826150b1565b5f808352838301818152604080850183815260608601848152608080880186815260a089018781529a881660c08a0190815260e08a018881526101008b018981526101208c018a81528f8b526005909d5296909820995196516001600160801b039788166001600160801b031991851b8216178b559451935190921b90931691851691909117600188015593979195939092859260028601945160ff1660ff198654161785555116614b08908461525a565b51825467ffffffffffffffff60881b1916911660881b67ffffffffffffffff60881b1617905560030193511683549151151560401b60ff60401b169168ffffffffffffffffff1916171782555160ff16614b76919060ff60481b82549160481b169060ff60481b1916179055565b7f685acf17bc506d0cfe7016cdc38205cbb6f983cc284d783ec999a280bb5825195f80a2005b60405162461bcd60e51b81526004810184905260116024820152704e6f74207061737420646561646c696e6560781b6044820152606490fd5b34610c52576020366003190112610c5257601854600435906001600160a01b0390811633148015614d5d575b8015614d50575b614c1190614fa0565b815f52601b60205260405f2090614c2f816001840154161515614fe2565b6003820190815490614c4760ff8360881c161561501a565b60ff601a5460a01c1660ff8360801c1610614d145760027fff1129099b647fda11e043d9f7ef9f0f595b4cf9018c239df7406f6a6f75ef94946001600160801b039384811690614c9d86600e5416831115615059565b60ff60881b1916600160881b178655600e54908590614cbe90838316615098565b16906001600160801b03191617600e5501614ce95f80808086865416888a5416905af16115d1615188565b54925460408051929094166001600160a01b03168252919091166001600160801b03166020820152a2005b60405162461bcd60e51b81526020600482015260146024820152734e6f7420656e6f75676820617070726f76616c7360601b6044820152606490fd5b50601a5481163314614c08565b5080601954163314614c01565b34610c5257602080600319360112610c525760043590815f5260028152614da160018060a01b03600160405f200154161515614f27565b815f5260028152600460405f2001805490614dc4600660ff8460901c1614614f66565b835f5260058352600360405f2001916001600160401b03835416421115614e295760ff60901b1916600360901b1790555460405160489190911c60ff1681527f792b55102c78d70a54105158e6e4807fb2dc4c0f6076c5d2bc6fe70fd1c066749190a2005b60405162461bcd60e51b81526004810185905260136024820152722234b9b83aba32903bb4b73237bb9037b832b760691b6044820152606490fd5b6024359060ff82168203610c5257565b602435906001600160801b0382168203610c5257565b6060906003190112610c52576004359060243560ff81168103610c5257906044356001600160801b0381168103610c525790565b600435906001600160a01b0382168203610c5257565b34610c52575f366003190112610c5257602060405161a8c08152f35b34610c52575f366003190112610c525760206040516127108152f35b34610c52575f366003190112610c5257602060405160328152f35b15614f2e57565b60405162461bcd60e51b815260206004820152601060248201526f13585c9ad95d081b9bdd08199bdd5b9960821b6044820152606490fd5b15614f6d57565b60405162461bcd60e51b815260206004820152600b60248201526a4e6f742070656e64696e6760a81b6044820152606490fd5b15614fa757565b60405162461bcd60e51b81526020600482015260136024820152722737ba1036bab63a34b9b4b39039b4b3b732b960691b6044820152606490fd5b15614fe957565b60405162461bcd60e51b8152602060048201526009602482015268139bdd08199bdd5b9960ba1b6044820152606490fd5b1561502157565b60405162461bcd60e51b815260206004820152601060248201526f105b1c9958591e48195e1958dd5d195960821b6044820152606490fd5b1561506057565b60405162461bcd60e51b815260206004820152601060248201526f4578636565647320747265617375727960801b6044820152606490fd5b6001600160801b03918216908216039190821161225957565b61014081019081106001600160401b0382111761297e57604052565b60e081019081106001600160401b0382111761297e57604052565b60a081019081106001600160401b0382111761297e57604052565b6001600160401b03811161297e57604052565b608081019081106001600160401b0382111761297e57604052565b606081019081106001600160401b0382111761297e57604052565b602081019081106001600160401b0382111761297e57604052565b90601f801991011681019081106001600160401b0382111761297e57604052565b3d156151c1573d906001600160401b03821161297e57604051916151b6601f8201601f191660200184615167565b82523d5f602084013e565b606090565b156151cd57565b60405162461bcd60e51b8152602060048201526013602482015272115512081d1c985b9cd9995c8819985a5b1959606a1b6044820152606490fd5b1561520f57565b60405162461bcd60e51b815260206004820152600a6024820152694e6f742061637469766560b01b6044820152606490fd5b9061a8c06001600160401b038093160191821161225957565b90610100600160881b0382549160081b1690610100600160881b031916179055565b8115614964570490565b9190820180921161225957565b8181029291811591840414171561225957565b156152ad57565b60405162461bcd60e51b815260206004820152600d60248201526c139bdd0818d85b98d95b1b1959609a1b6044820152606490fd5b156152e957565b60405162461bcd60e51b8152602060048201526007602482015266125b9d985b1a5960ca1b6044820152606490fd5b1561531f57565b606460405162461bcd60e51b81526020600482015260046024820152635a65726f60e01b6044820152fd5b1561535157565b60405162461bcd60e51b81526020600482015260096024820152684e6f2073686172657360b81b6044820152606490fd5b9060326001600160801b038093160291821691820361225957565b9190916001600160801b038080941691160291821691820361225957565b906001600160801b0380911691821561496457160490565b156153da57565b60405162461bcd60e51b815260206004820152600c60248201526b125b9cdd59999a58da595b9d60a21b6044820152606490fd5b1561541557565b60405162461bcd60e51b815260206004820152601e60248201527f496e73756666696369656e7420756e736869656c6465642073686172657300006044820152606490fd5b1561546157565b60405162461bcd60e51b815260206004820152600d60248201526c4d696e206c697175696469747960981b6044820152606490fd5b5f1981146122595760010190565b60ff1660ff81146122595760010190565b156154bc57565b60405162461bcd60e51b815260206004820152600d60248201526c4e6f7420696e20766f74696e6760981b6044820152606490fd5b156154f857565b60405162461bcd60e51b815260206004820152600f60248201526e105b1c9958591e4818db185a5b5959608a1b6044820152606490fd5b1561553657565b60405162461bcd60e51b815260206004820152602160248201527f496e73756666696369656e7420756e736869656c646564204c502073686172656044820152607360f81b6064820152608490fd5b1561558c57565b60405162461bcd60e51b815260206004820152600d60248201526c139bdd08199a5b985b1a5e9959609a1b6044820152606490fd5b156155c857565b60405162461bcd60e51b8152602060048201526007602482015266139bc8189bdb9960ca1b6044820152606490fd5b156155fe57565b60405162461bcd60e51b815260206004820152600c60248201526b139bdd081c995cdbdb1d995960a21b6044820152606490fd5b1561563957565b60405162461bcd60e51b815260206004820152600b60248201526a5a65726f2073686172657360a81b6044820152606490fd5b1561567357565b60405162461bcd60e51b815260206004820152600b60248201526a16995c9bc81c185e5bdd5d60aa1b6044820152606490fd5b156156ad57565b60405162461bcd60e51b8152602060048201526012602482015271496e73756666696369656e742066756e647360701b6044820152606490fd5b9190916001600160801b038080941691160191821161225957565b1561570957565b60405162461bcd60e51b8152602060048201526007602482015266115e1c1a5c995960ca1b6044820152606490fd5b60405190615745826150b1565b5f610120838281528260208201528260408201528260608201528260808201528260a08201528260c08201528260e0820152826101008201520152565b1561578957565b60405162461bcd60e51b815260206004820152600f60248201526e496e76616c6964206f7574636f6d6560881b6044820152606490fd5b156157c757565b60405162461bcd60e51b815260206004820152600d60248201526c27b7363c903232b83637bcb2b960991b6044820152606490fd5b1561580357565b60405162461bcd60e51b8152602060048201526008602482015267536c69707061676560c01b6044820152606490fd5b1561583a57565b60405162461bcd60e51b815260206004820152600b60248201526a16995c9bc8185b5bdd5b9d60aa1b6044820152606490fd5b5f80516020616029833981519152600281541461588a5760029055565b604051633ee5aeb560e01b8152600490fd5b90604051906020820192835260ff60f81b9060f81b166040820152602181526158c481615131565b51902090565b9160405191602083019384526001600160601b03199060601b16604083015260ff60f81b9060f81b166054820152603581526158c481615131565b604080516020810192835260609390931b6001600160601b03191690830152906158c481605481016113f3565b906001600160801b036159459116615f6c565b8115919082615a7257809192615a62575b15615a54575b6040519161596983615131565b60028352604036602085013761597e8361600b565b5261598882616018565b5260206159d26040519261599b8461514c565b5f84526159e46040519485938493631888debd60e01b85526006600486015260086024860152608060448601526084850190615f06565b83810360031901606485015290615f06565b03815f73ea30c4b8b44078bbf8a6ef5b9f1ec1626c7848d95af1908115610c47575f91615a22575b50615a1681615e60565b615a1f81615ebf565b90565b90506020813d602011615a4c575b81615a3d60209383615167565b81010312610c5257515f615a0c565b3d9150615a30565b50615a5d615fdd565b61595c565b9150615a6c615fdd565b91615956565b809250615a169150615e60565b9060ff1660018114615aca5760028114615ac25760038114615ab157600414615aa757505f90565b6001015460801c90565b50600101546001600160801b031690565b505460801c90565b50546001600160801b031690565b906004811015615ae95760051b0190565b634e487b7160e01b5f52603260045260245ffd5b60ff5f199116019060ff821161225957565b9190820391821161225957565b908115615c09575b8015615bfb575b60405191615b3883615131565b600283526040366020850137615b4d8361600b565b52615b5782616018565b5260206159d260405192615b6a8461514c565b5f8452615ba16040519485938493631888debd60e01b85526006600486015260126024860152608060448601526084850190615f06565b03815f73ea30c4b8b44078bbf8a6ef5b9f1ec1626c7848d95af1908115610c47575f91615bcc575090565b90506020813d602011615bf3575b81615be760209383615167565b81010312610c52575190565b3d9150615bda565b50615c04615fdd565b615b2b565b9050615c13615fdd565b90615b24565b91908215615cd3575b8015615cc5575b8115615cb5575b60405192615c3d84615116565b600384526060366020860137615c528461600b565b52615c5c83616018565b52815160021015615ae957606082015260206159d260405192615c7e8461514c565b5f8452615ba16040519485938493631888debd60e01b85526006600486015260046024860152608060448601526084850190615f06565b9050615cbf615fdd565b90615c30565b50615cce615fdd565b615c29565b9150604051615ce18161514c565b5f815260405190615cf182615116565b6003825260603660208401375f615d078361600b565b525f615d1283616018565b52815160021015615ae9576159d26020915f6060850152615d5c6040519485938493631888debd60e01b85525f6004860152601a6024860152608060448601526084850190615f06565b03815f73ea30c4b8b44078bbf8a6ef5b9f1ec1626c7848d95af1908115610c47575f91615d8b575b5091615c22565b90506020813d602011615db5575b81615da660209383615167565b81010312610c5257515f615d84565b3d9150615d99565b908115615e50575b8015615e42575b60405191615dd983615131565b600283526040366020850137615dee8361600b565b52615df882616018565b5260206159d260405192615e0b8461514c565b5f8452615ba16040519485938493631888debd60e01b85526006600486015260076024860152608060448601526084850190615f06565b50615e4b615fdd565b615dcc565b9050615e5a615fdd565b90615dc5565b73ea30c4b8b44078bbf8a6ef5b9f1ec1626c7848d9803b15610c5257604051631974142760e21b815260048101929092523060248301525f908290818381604481015b03925af18015610c4757615eb45750565b615ebd90615103565b565b73ea30c4b8b44078bbf8a6ef5b9f1ec1626c7848d9803b15610c5257604051631974142760e21b815260048101929092523360248301525f90829081838160448101615ea3565b9081518082526020808093019301915f5b828110615f25575050505090565b835185529381019392810192600101615f17565b9091615f5e615a1f9360068452601a6020850152608060408501526080840190615f06565b916060818403910152615f06565b604051615f788161514c565b5f815260405191615f8883615116565b600383526060366020850137615f9d8361600b565b526006615fa983616018565b52815160021015615ae9575f6060830152604051631888debd60e01b81529160209183918291615ba1919060048401615f39565b604051615fe98161514c565b5f815260405190615ff982615116565b6003825260603660208401375f615f9d835b805115615ae95760200190565b805160011015615ae9576040019056fe9b779b17422d0df92223018b32b4d1fa46e071723d6817e2486d003becc55f00a26469706673582212207c3588ffd2123cfddef0f70026ea4d9aeaf618f20c09dab01afa7039b2bdd3f664736f6c63430008190033",
  "linkReferences": {},
  "deployedLinkReferences": {}
}