{
  "_format": "hh-sol-artifact-1",
  "contractName": "FhenixMarkets",
  "sourceName": "contracts/FhenixMarkets.sol",
  "abi": [
    {
      "inputs": [],
      "stateMutability": "nonpayable",
      "type": "constructor"
    },
    {
      "inputs": [],
      "name": "ReentrancyGuardReentrantCall",
      "type": "error"
    },
    {
      "inputs": [
        {
          "internalType": "int32",
          "name": "value",
          "type": "int32"
        }
      ],
      "name": "SecurityZoneOutOfBounds",
      "type": "error"
    },
    {
      "anonymous": false,
      "inputs": [
        {
          "indexed": true,
          "internalType": "bytes32",
          "name": "marketId",
          "type": "bytes32"
        },
        {
          "indexed": true,
          "internalType": "address",
          "name": "provider",
          "type": "address"
        }
      ],
      "name": "LiquidityAdded",
      "type": "event"
    },
    {
      "anonymous": false,
      "inputs": [
        {
          "indexed": true,
          "internalType": "bytes32",
          "name": "marketId",
          "type": "bytes32"
        },
        {
          "indexed": true,
          "internalType": "address",
          "name": "provider",
          "type": "address"
        }
      ],
      "name": "LiquidityWithdrawn",
      "type": "event"
    },
    {
      "anonymous": false,
      "inputs": [
        {
          "indexed": true,
          "internalType": "bytes32",
          "name": "marketId",
          "type": "bytes32"
        }
      ],
      "name": "MarketCancelled",
      "type": "event"
    },
    {
      "anonymous": false,
      "inputs": [
        {
          "indexed": true,
          "internalType": "bytes32",
          "name": "marketId",
          "type": "bytes32"
        }
      ],
      "name": "MarketClosed",
      "type": "event"
    },
    {
      "anonymous": false,
      "inputs": [
        {
          "indexed": true,
          "internalType": "bytes32",
          "name": "marketId",
          "type": "bytes32"
        },
        {
          "indexed": true,
          "internalType": "address",
          "name": "creator",
          "type": "address"
        },
        {
          "indexed": false,
          "internalType": "bytes32",
          "name": "questionHash",
          "type": "bytes32"
        },
        {
          "indexed": false,
          "internalType": "uint8",
          "name": "numOutcomes",
          "type": "uint8"
        },
        {
          "indexed": false,
          "internalType": "uint64",
          "name": "deadline",
          "type": "uint64"
        }
      ],
      "name": "MarketCreated",
      "type": "event"
    },
    {
      "anonymous": false,
      "inputs": [
        {
          "indexed": false,
          "internalType": "address",
          "name": "signer1",
          "type": "address"
        },
        {
          "indexed": false,
          "internalType": "address",
          "name": "signer2",
          "type": "address"
        },
        {
          "indexed": false,
          "internalType": "address",
          "name": "signer3",
          "type": "address"
        },
        {
          "indexed": false,
          "internalType": "uint8",
          "name": "threshold",
          "type": "uint8"
        }
      ],
      "name": "MultisigInitialized",
      "type": "event"
    },
    {
      "anonymous": false,
      "inputs": [
        {
          "indexed": true,
          "internalType": "bytes32",
          "name": "marketId",
          "type": "bytes32"
        },
        {
          "indexed": true,
          "internalType": "address",
          "name": "claimer",
          "type": "address"
        }
      ],
      "name": "RefundClaimed",
      "type": "event"
    },
    {
      "anonymous": false,
      "inputs": [
        {
          "indexed": true,
          "internalType": "bytes32",
          "name": "marketId",
          "type": "bytes32"
        },
        {
          "indexed": false,
          "internalType": "uint8",
          "name": "winningOutcome",
          "type": "uint8"
        }
      ],
      "name": "ResolutionConfirmed",
      "type": "event"
    },
    {
      "anonymous": false,
      "inputs": [
        {
          "indexed": true,
          "internalType": "bytes32",
          "name": "marketId",
          "type": "bytes32"
        },
        {
          "indexed": false,
          "internalType": "address",
          "name": "disputer",
          "type": "address"
        },
        {
          "indexed": false,
          "internalType": "uint8",
          "name": "proposedOutcome",
          "type": "uint8"
        }
      ],
      "name": "ResolutionDisputed",
      "type": "event"
    },
    {
      "anonymous": false,
      "inputs": [
        {
          "indexed": true,
          "internalType": "bytes32",
          "name": "marketId",
          "type": "bytes32"
        },
        {
          "indexed": true,
          "internalType": "address",
          "name": "buyer",
          "type": "address"
        }
      ],
      "name": "SharesBought",
      "type": "event"
    },
    {
      "anonymous": false,
      "inputs": [
        {
          "indexed": true,
          "internalType": "bytes32",
          "name": "marketId",
          "type": "bytes32"
        },
        {
          "indexed": true,
          "internalType": "address",
          "name": "redeemer",
          "type": "address"
        }
      ],
      "name": "SharesRedeemed",
      "type": "event"
    },
    {
      "anonymous": false,
      "inputs": [
        {
          "indexed": true,
          "internalType": "bytes32",
          "name": "marketId",
          "type": "bytes32"
        },
        {
          "indexed": true,
          "internalType": "address",
          "name": "seller",
          "type": "address"
        }
      ],
      "name": "SharesSold",
      "type": "event"
    },
    {
      "anonymous": false,
      "inputs": [
        {
          "indexed": true,
          "internalType": "bytes32",
          "name": "proposalId",
          "type": "bytes32"
        },
        {
          "indexed": false,
          "internalType": "address",
          "name": "signer",
          "type": "address"
        }
      ],
      "name": "TreasuryProposalApproved",
      "type": "event"
    },
    {
      "anonymous": false,
      "inputs": [
        {
          "indexed": true,
          "internalType": "bytes32",
          "name": "proposalId",
          "type": "bytes32"
        },
        {
          "indexed": false,
          "internalType": "address",
          "name": "recipient",
          "type": "address"
        },
        {
          "indexed": false,
          "internalType": "uint128",
          "name": "amount",
          "type": "uint128"
        }
      ],
      "name": "TreasuryProposalCreated",
      "type": "event"
    },
    {
      "anonymous": false,
      "inputs": [
        {
          "indexed": true,
          "internalType": "bytes32",
          "name": "proposalId",
          "type": "bytes32"
        },
        {
          "indexed": false,
          "internalType": "address",
          "name": "recipient",
          "type": "address"
        },
        {
          "indexed": false,
          "internalType": "uint128",
          "name": "amount",
          "type": "uint128"
        }
      ],
      "name": "TreasuryProposalExecuted",
      "type": "event"
    },
    {
      "anonymous": false,
      "inputs": [
        {
          "indexed": true,
          "internalType": "uint256",
          "name": "requestId",
          "type": "uint256"
        },
        {
          "indexed": false,
          "internalType": "bool",
          "name": "successful",
          "type": "bool"
        }
      ],
      "name": "UnshieldExecuted",
      "type": "event"
    },
    {
      "anonymous": false,
      "inputs": [
        {
          "indexed": true,
          "internalType": "uint256",
          "name": "requestId",
          "type": "uint256"
        },
        {
          "indexed": true,
          "internalType": "address",
          "name": "user",
          "type": "address"
        },
        {
          "indexed": false,
          "internalType": "bytes32",
          "name": "marketId",
          "type": "bytes32"
        },
        {
          "indexed": false,
          "internalType": "uint8",
          "name": "outcome",
          "type": "uint8"
        },
        {
          "indexed": false,
          "internalType": "uint128",
          "name": "amount",
          "type": "uint128"
        }
      ],
      "name": "UnshieldRequested",
      "type": "event"
    },
    {
      "anonymous": false,
      "inputs": [
        {
          "indexed": true,
          "internalType": "bytes32",
          "name": "marketId",
          "type": "bytes32"
        },
        {
          "indexed": true,
          "internalType": "address",
          "name": "voter",
          "type": "address"
        }
      ],
      "name": "VoteSubmitted",
      "type": "event"
    },
    {
      "anonymous": false,
      "inputs": [
        {
          "indexed": true,
          "internalType": "bytes32",
          "name": "marketId",
          "type": "bytes32"
        },
        {
          "indexed": false,
          "internalType": "uint8",
          "name": "winningOutcome",
          "type": "uint8"
        }
      ],
      "name": "VotesFinalized",
      "type": "event"
    },
    {
      "inputs": [],
      "name": "CREATOR_FEE_BPS",
      "outputs": [
        {
          "internalType": "uint128",
          "name": "",
          "type": "uint128"
        }
      ],
      "stateMutability": "view",
      "type": "function"
    },
    {
      "inputs": [],
      "name": "DISPUTE_BOND_MULTIPLIER",
      "outputs": [
        {
          "internalType": "uint128",
          "name": "",
          "type": "uint128"
        }
      ],
      "stateMutability": "view",
      "type": "function"
    },
    {
      "inputs": [],
      "name": "DISPUTE_WINDOW",
      "outputs": [
        {
          "internalType": "uint64",
          "name": "",
          "type": "uint64"
        }
      ],
      "stateMutability": "view",
      "type": "function"
    },
    {
      "inputs": [],
      "name": "FEE_DENOMINATOR",
      "outputs": [
        {
          "internalType": "uint128",
          "name": "",
          "type": "uint128"
        }
      ],
      "stateMutability": "view",
      "type": "function"
    },
    {
      "inputs": [],
      "name": "LP_FEE_BPS",
      "outputs": [
        {
          "internalType": "uint128",
          "name": "",
          "type": "uint128"
        }
      ],
      "stateMutability": "view",
      "type": "function"
    },
    {
      "inputs": [],
      "name": "MARKET_STATUS_ACTIVE",
      "outputs": [
        {
          "internalType": "uint8",
          "name": "",
          "type": "uint8"
        }
      ],
      "stateMutability": "view",
      "type": "function"
    },
    {
      "inputs": [],
      "name": "MARKET_STATUS_CANCELLED",
      "outputs": [
        {
          "internalType": "uint8",
          "name": "",
          "type": "uint8"
        }
      ],
      "stateMutability": "view",
      "type": "function"
    },
    {
      "inputs": [],
      "name": "MARKET_STATUS_CLOSED",
      "outputs": [
        {
          "internalType": "uint8",
          "name": "",
          "type": "uint8"
        }
      ],
      "stateMutability": "view",
      "type": "function"
    },
    {
      "inputs": [],
      "name": "MARKET_STATUS_RESOLVED",
      "outputs": [
        {
          "internalType": "uint8",
          "name": "",
          "type": "uint8"
        }
      ],
      "stateMutability": "view",
      "type": "function"
    },
    {
      "inputs": [],
      "name": "MIN_LIQUIDITY",
      "outputs": [
        {
          "internalType": "uint128",
          "name": "",
          "type": "uint128"
        }
      ],
      "stateMutability": "view",
      "type": "function"
    },
    {
      "inputs": [],
      "name": "MIN_TRADE_AMOUNT",
      "outputs": [
        {
          "internalType": "uint128",
          "name": "",
          "type": "uint128"
        }
      ],
      "stateMutability": "view",
      "type": "function"
    },
    {
      "inputs": [],
      "name": "MIN_VOTERS",
      "outputs": [
        {
          "internalType": "uint8",
          "name": "",
          "type": "uint8"
        }
      ],
      "stateMutability": "view",
      "type": "function"
    },
    {
      "inputs": [],
      "name": "MIN_VOTE_BOND",
      "outputs": [
        {
          "internalType": "uint128",
          "name": "",
          "type": "uint128"
        }
      ],
      "stateMutability": "view",
      "type": "function"
    },
    {
      "inputs": [],
      "name": "PROTOCOL_FEE_BPS",
      "outputs": [
        {
          "internalType": "uint128",
          "name": "",
          "type": "uint128"
        }
      ],
      "stateMutability": "view",
      "type": "function"
    },
    {
      "inputs": [],
      "name": "STATUS_DISPUTED",
      "outputs": [
        {
          "internalType": "uint8",
          "name": "",
          "type": "uint8"
        }
      ],
      "stateMutability": "view",
      "type": "function"
    },
    {
      "inputs": [],
      "name": "STATUS_PENDING_FINALIZATION",
      "outputs": [
        {
          "internalType": "uint8",
          "name": "",
          "type": "uint8"
        }
      ],
      "stateMutability": "view",
      "type": "function"
    },
    {
      "inputs": [],
      "name": "STATUS_PENDING_RESOLUTION",
      "outputs": [
        {
          "internalType": "uint8",
          "name": "",
          "type": "uint8"
        }
      ],
      "stateMutability": "view",
      "type": "function"
    },
    {
      "inputs": [],
      "name": "VOTER_REWARD_PERCENT",
      "outputs": [
        {
          "internalType": "uint128",
          "name": "",
          "type": "uint128"
        }
      ],
      "stateMutability": "view",
      "type": "function"
    },
    {
      "inputs": [],
      "name": "VOTE_WINDOW",
      "outputs": [
        {
          "internalType": "uint64",
          "name": "",
          "type": "uint64"
        }
      ],
      "stateMutability": "view",
      "type": "function"
    },
    {
      "inputs": [],
      "name": "WINNER_CLAIM_PRIORITY",
      "outputs": [
        {
          "internalType": "uint64",
          "name": "",
          "type": "uint64"
        }
      ],
      "stateMutability": "view",
      "type": "function"
    },
    {
      "inputs": [
        {
          "internalType": "bytes32",
          "name": "marketId",
          "type": "bytes32"
        }
      ],
      "name": "addLiquidity",
      "outputs": [],
      "stateMutability": "payable",
      "type": "function"
    },
    {
      "inputs": [
        {
          "internalType": "bytes32",
          "name": "",
          "type": "bytes32"
        }
      ],
      "name": "ammPools",
      "outputs": [
        {
          "internalType": "uint128",
          "name": "reserve1",
          "type": "uint128"
        },
        {
          "internalType": "uint128",
          "name": "reserve2",
          "type": "uint128"
        },
        {
          "internalType": "uint128",
          "name": "reserve3",
          "type": "uint128"
        },
        {
          "internalType": "uint128",
          "name": "reserve4",
          "type": "uint128"
        },
        {
          "internalType": "uint128",
          "name": "totalLiquidity",
          "type": "uint128"
        },
        {
          "internalType": "uint128",
          "name": "totalLPShares",
          "type": "uint128"
        },
        {
          "internalType": "uint128",
          "name": "totalVolume",
          "type": "uint128"
        }
      ],
      "stateMutability": "view",
      "type": "function"
    },
    {
      "inputs": [
        {
          "internalType": "bytes32",
          "name": "proposalId",
          "type": "bytes32"
        }
      ],
      "name": "approveTreasuryProposal",
      "outputs": [],
      "stateMutability": "nonpayable",
      "type": "function"
    },
    {
      "inputs": [
        {
          "internalType": "bytes32",
          "name": "marketId",
          "type": "bytes32"
        },
        {
          "internalType": "uint8",
          "name": "outcome",
          "type": "uint8"
        },
        {
          "internalType": "uint128",
          "name": "minSharesOut",
          "type": "uint128"
        }
      ],
      "name": "buyShares",
      "outputs": [],
      "stateMutability": "payable",
      "type": "function"
    },
    {
      "inputs": [
        {
          "internalType": "bytes32",
          "name": "marketId",
          "type": "bytes32"
        }
      ],
      "name": "cancelMarket",
      "outputs": [],
      "stateMutability": "nonpayable",
      "type": "function"
    },
    {
      "inputs": [
        {
          "internalType": "bytes32",
          "name": "marketId",
          "type": "bytes32"
        }
      ],
      "name": "claimDisputeBond",
      "outputs": [],
      "stateMutability": "nonpayable",
      "type": "function"
    },
    {
      "inputs": [
        {
          "internalType": "bytes32",
          "name": "marketId",
          "type": "bytes32"
        },
        {
          "internalType": "uint128",
          "name": "lpSharesToRefund",
          "type": "uint128"
        }
      ],
      "name": "claimLPRefund",
      "outputs": [],
      "stateMutability": "nonpayable",
      "type": "function"
    },
    {
      "inputs": [
        {
          "internalType": "bytes32",
          "name": "marketId",
          "type": "bytes32"
        },
        {
          "internalType": "uint8",
          "name": "outcome",
          "type": "uint8"
        },
        {
          "internalType": "uint128",
          "name": "sharesToRefund",
          "type": "uint128"
        }
      ],
      "name": "claimRefund",
      "outputs": [],
      "stateMutability": "nonpayable",
      "type": "function"
    },
    {
      "inputs": [
        {
          "internalType": "bytes32",
          "name": "marketId",
          "type": "bytes32"
        }
      ],
      "name": "claimVoterBond",
      "outputs": [],
      "stateMutability": "nonpayable",
      "type": "function"
    },
    {
      "inputs": [],
      "name": "claimVoterReward",
      "outputs": [],
      "stateMutability": "nonpayable",
      "type": "function"
    },
    {
      "inputs": [
        {
          "internalType": "bytes32",
          "name": "marketId",
          "type": "bytes32"
        }
      ],
      "name": "closeMarket",
      "outputs": [],
      "stateMutability": "nonpayable",
      "type": "function"
    },
    {
      "inputs": [
        {
          "internalType": "bytes32",
          "name": "marketId",
          "type": "bytes32"
        }
      ],
      "name": "confirmResolution",
      "outputs": [],
      "stateMutability": "nonpayable",
      "type": "function"
    },
    {
      "inputs": [
        {
          "internalType": "bytes32",
          "name": "questionHash",
          "type": "bytes32"
        },
        {
          "internalType": "uint8",
          "name": "category",
          "type": "uint8"
        },
        {
          "internalType": "uint8",
          "name": "numOutcomes",
          "type": "uint8"
        },
        {
          "internalType": "uint64",
          "name": "deadline",
          "type": "uint64"
        },
        {
          "internalType": "uint64",
          "name": "resolutionDeadline",
          "type": "uint64"
        },
        {
          "internalType": "address",
          "name": "resolver",
          "type": "address"
        }
      ],
      "name": "createMarket",
      "outputs": [
        {
          "internalType": "bytes32",
          "name": "",
          "type": "bytes32"
        }
      ],
      "stateMutability": "payable",
      "type": "function"
    },
    {
      "inputs": [],
      "name": "deployer",
      "outputs": [
        {
          "internalType": "address",
          "name": "",
          "type": "address"
        }
      ],
      "stateMutability": "view",
      "type": "function"
    },
    {
      "inputs": [
        {
          "internalType": "bytes32",
          "name": "marketId",
          "type": "bytes32"
        },
        {
          "internalType": "uint8",
          "name": "proposedOutcome",
          "type": "uint8"
        }
      ],
      "name": "disputeResolution",
      "outputs": [],
      "stateMutability": "payable",
      "type": "function"
    },
    {
      "inputs": [
        {
          "internalType": "bytes32",
          "name": "proposalId",
          "type": "bytes32"
        }
      ],
      "name": "executeTreasuryProposal",
      "outputs": [],
      "stateMutability": "nonpayable",
      "type": "function"
    },
    {
      "inputs": [
        {
          "internalType": "uint256",
          "name": "reqId",
          "type": "uint256"
        }
      ],
      "name": "executeUnshield",
      "outputs": [],
      "stateMutability": "nonpayable",
      "type": "function"
    },
    {
      "inputs": [
        {
          "internalType": "bytes32",
          "name": "marketId",
          "type": "bytes32"
        }
      ],
      "name": "finalizeVotes",
      "outputs": [],
      "stateMutability": "nonpayable",
      "type": "function"
    },
    {
      "inputs": [
        {
          "internalType": "bytes32",
          "name": "marketId",
          "type": "bytes32"
        }
      ],
      "name": "getEncLPBalance",
      "outputs": [
        {
          "internalType": "euint128",
          "name": "",
          "type": "bytes32"
        }
      ],
      "stateMutability": "view",
      "type": "function"
    },
    {
      "inputs": [
        {
          "internalType": "bytes32",
          "name": "marketId",
          "type": "bytes32"
        },
        {
          "internalType": "uint8",
          "name": "outcome",
          "type": "uint8"
        }
      ],
      "name": "getEncShareBalance",
      "outputs": [
        {
          "internalType": "euint128",
          "name": "",
          "type": "bytes32"
        }
      ],
      "stateMutability": "view",
      "type": "function"
    },
    {
      "inputs": [
        {
          "internalType": "bytes32",
          "name": "marketId",
          "type": "bytes32"
        }
      ],
      "name": "getMarket",
      "outputs": [
        {
          "components": [
            {
              "internalType": "bytes32",
              "name": "id",
              "type": "bytes32"
            },
            {
              "internalType": "address",
              "name": "creator",
              "type": "address"
            },
            {
              "internalType": "address",
              "name": "resolver",
              "type": "address"
            },
            {
              "internalType": "bytes32",
              "name": "questionHash",
              "type": "bytes32"
            },
            {
              "internalType": "uint8",
              "name": "category",
              "type": "uint8"
            },
            {
              "internalType": "uint8",
              "name": "numOutcomes",
              "type": "uint8"
            },
            {
              "internalType": "uint64",
              "name": "deadline",
              "type": "uint64"
            },
            {
              "internalType": "uint64",
              "name": "resolutionDeadline",
              "type": "uint64"
            },
            {
              "internalType": "uint8",
              "name": "status",
              "type": "uint8"
            },
            {
              "internalType": "uint64",
              "name": "createdAt",
              "type": "uint64"
            }
          ],
          "internalType": "struct FhenixMarkets.Market",
          "name": "",
          "type": "tuple"
        }
      ],
      "stateMutability": "view",
      "type": "function"
    },
    {
      "inputs": [
        {
          "internalType": "bytes32",
          "name": "marketId",
          "type": "bytes32"
        }
      ],
      "name": "getPool",
      "outputs": [
        {
          "components": [
            {
              "internalType": "uint128",
              "name": "reserve1",
              "type": "uint128"
            },
            {
              "internalType": "uint128",
              "name": "reserve2",
              "type": "uint128"
            },
            {
              "internalType": "uint128",
              "name": "reserve3",
              "type": "uint128"
            },
            {
              "internalType": "uint128",
              "name": "reserve4",
              "type": "uint128"
            },
            {
              "internalType": "uint128",
              "name": "totalLiquidity",
              "type": "uint128"
            },
            {
              "internalType": "uint128",
              "name": "totalLPShares",
              "type": "uint128"
            },
            {
              "internalType": "uint128",
              "name": "totalVolume",
              "type": "uint128"
            }
          ],
          "internalType": "struct FhenixMarkets.AMMPool",
          "name": "",
          "type": "tuple"
        }
      ],
      "stateMutability": "view",
      "type": "function"
    },
    {
      "inputs": [
        {
          "internalType": "bytes32",
          "name": "marketId",
          "type": "bytes32"
        }
      ],
      "name": "getPrices",
      "outputs": [
        {
          "internalType": "uint128",
          "name": "price1",
          "type": "uint128"
        },
        {
          "internalType": "uint128",
          "name": "price2",
          "type": "uint128"
        },
        {
          "internalType": "uint128",
          "name": "price3",
          "type": "uint128"
        },
        {
          "internalType": "uint128",
          "name": "price4",
          "type": "uint128"
        }
      ],
      "stateMutability": "view",
      "type": "function"
    },
    {
      "inputs": [
        {
          "internalType": "bytes32",
          "name": "marketId",
          "type": "bytes32"
        }
      ],
      "name": "getVoteTally",
      "outputs": [
        {
          "components": [
            {
              "internalType": "uint128",
              "name": "outcome1Bonds",
              "type": "uint128"
            },
            {
              "internalType": "uint128",
              "name": "outcome2Bonds",
              "type": "uint128"
            },
            {
              "internalType": "uint128",
              "name": "outcome3Bonds",
              "type": "uint128"
            },
            {
              "internalType": "uint128",
              "name": "outcome4Bonds",
              "type": "uint128"
            },
            {
              "internalType": "uint8",
              "name": "totalVoters",
              "type": "uint8"
            },
            {
              "internalType": "uint128",
              "name": "totalBonded",
              "type": "uint128"
            },
            {
              "internalType": "uint64",
              "name": "votingDeadline",
              "type": "uint64"
            },
            {
              "internalType": "uint64",
              "name": "disputeDeadline",
              "type": "uint64"
            },
            {
              "internalType": "bool",
              "name": "finalized",
              "type": "bool"
            },
            {
              "internalType": "uint8",
              "name": "winningOutcome",
              "type": "uint8"
            }
          ],
          "internalType": "struct FhenixMarkets.VoteTally",
          "name": "",
          "type": "tuple"
        }
      ],
      "stateMutability": "view",
      "type": "function"
    },
    {
      "inputs": [
        {
          "internalType": "address",
          "name": "signer1",
          "type": "address"
        },
        {
          "internalType": "address",
          "name": "signer2",
          "type": "address"
        },
        {
          "internalType": "address",
          "name": "signer3",
          "type": "address"
        }
      ],
      "name": "initMultisig",
      "outputs": [],
      "stateMutability": "nonpayable",
      "type": "function"
    },
    {
      "inputs": [],
      "name": "marketCount",
      "outputs": [
        {
          "internalType": "uint256",
          "name": "",
          "type": "uint256"
        }
      ],
      "stateMutability": "view",
      "type": "function"
    },
    {
      "inputs": [
        {
          "internalType": "bytes32",
          "name": "",
          "type": "bytes32"
        }
      ],
      "name": "marketCredits",
      "outputs": [
        {
          "internalType": "uint128",
          "name": "",
          "type": "uint128"
        }
      ],
      "stateMutability": "view",
      "type": "function"
    },
    {
      "inputs": [
        {
          "internalType": "bytes32",
          "name": "",
          "type": "bytes32"
        }
      ],
      "name": "marketFees",
      "outputs": [
        {
          "internalType": "uint128",
          "name": "protocolFees",
          "type": "uint128"
        },
        {
          "internalType": "uint128",
          "name": "creatorFees",
          "type": "uint128"
        }
      ],
      "stateMutability": "view",
      "type": "function"
    },
    {
      "inputs": [
        {
          "internalType": "bytes32",
          "name": "",
          "type": "bytes32"
        }
      ],
      "name": "markets",
      "outputs": [
        {
          "internalType": "bytes32",
          "name": "id",
          "type": "bytes32"
        },
        {
          "internalType": "address",
          "name": "creator",
          "type": "address"
        },
        {
          "internalType": "address",
          "name": "resolver",
          "type": "address"
        },
        {
          "internalType": "bytes32",
          "name": "questionHash",
          "type": "bytes32"
        },
        {
          "internalType": "uint8",
          "name": "category",
          "type": "uint8"
        },
        {
          "internalType": "uint8",
          "name": "numOutcomes",
          "type": "uint8"
        },
        {
          "internalType": "uint64",
          "name": "deadline",
          "type": "uint64"
        },
        {
          "internalType": "uint64",
          "name": "resolutionDeadline",
          "type": "uint64"
        },
        {
          "internalType": "uint8",
          "name": "status",
          "type": "uint8"
        },
        {
          "internalType": "uint64",
          "name": "createdAt",
          "type": "uint64"
        }
      ],
      "stateMutability": "view",
      "type": "function"
    },
    {
      "inputs": [],
      "name": "multisig",
      "outputs": [
        {
          "internalType": "address",
          "name": "signer1",
          "type": "address"
        },
        {
          "internalType": "address",
          "name": "signer2",
          "type": "address"
        },
        {
          "internalType": "address",
          "name": "signer3",
          "type": "address"
        },
        {
          "internalType": "uint8",
          "name": "threshold",
          "type": "uint8"
        },
        {
          "internalType": "bool",
          "name": "initialized",
          "type": "bool"
        }
      ],
      "stateMutability": "view",
      "type": "function"
    },
    {
      "inputs": [
        {
          "internalType": "bytes32",
          "name": "",
          "type": "bytes32"
        }
      ],
      "name": "multisigApprovals",
      "outputs": [
        {
          "internalType": "bool",
          "name": "",
          "type": "bool"
        }
      ],
      "stateMutability": "view",
      "type": "function"
    },
    {
      "inputs": [],
      "name": "nextUnshieldId",
      "outputs": [
        {
          "internalType": "uint256",
          "name": "",
          "type": "uint256"
        }
      ],
      "stateMutability": "view",
      "type": "function"
    },
    {
      "inputs": [
        {
          "internalType": "address",
          "name": "recipient",
          "type": "address"
        },
        {
          "internalType": "uint128",
          "name": "amount",
          "type": "uint128"
        }
      ],
      "name": "proposeTreasuryWithdrawal",
      "outputs": [
        {
          "internalType": "bytes32",
          "name": "",
          "type": "bytes32"
        }
      ],
      "stateMutability": "nonpayable",
      "type": "function"
    },
    {
      "inputs": [
        {
          "internalType": "bytes32",
          "name": "",
          "type": "bytes32"
        }
      ],
      "name": "publicLPBalances",
      "outputs": [
        {
          "internalType": "uint128",
          "name": "",
          "type": "uint128"
        }
      ],
      "stateMutability": "view",
      "type": "function"
    },
    {
      "inputs": [
        {
          "internalType": "bytes32",
          "name": "",
          "type": "bytes32"
        }
      ],
      "name": "publicShareBalances",
      "outputs": [
        {
          "internalType": "uint128",
          "name": "",
          "type": "uint128"
        }
      ],
      "stateMutability": "view",
      "type": "function"
    },
    {
      "inputs": [
        {
          "internalType": "bytes32",
          "name": "marketId",
          "type": "bytes32"
        },
        {
          "internalType": "uint128",
          "name": "sharesToRedeem",
          "type": "uint128"
        }
      ],
      "name": "redeemShares",
      "outputs": [],
      "stateMutability": "nonpayable",
      "type": "function"
    },
    {
      "inputs": [
        {
          "internalType": "bytes32",
          "name": "marketId",
          "type": "bytes32"
        },
        {
          "internalType": "uint128",
          "name": "amount",
          "type": "uint128"
        }
      ],
      "name": "requestUnshieldLP",
      "outputs": [
        {
          "internalType": "uint256",
          "name": "",
          "type": "uint256"
        }
      ],
      "stateMutability": "nonpayable",
      "type": "function"
    },
    {
      "inputs": [
        {
          "internalType": "bytes32",
          "name": "marketId",
          "type": "bytes32"
        },
        {
          "internalType": "uint8",
          "name": "outcome",
          "type": "uint8"
        },
        {
          "internalType": "uint128",
          "name": "amount",
          "type": "uint128"
        }
      ],
      "name": "requestUnshieldShares",
      "outputs": [
        {
          "internalType": "uint256",
          "name": "",
          "type": "uint256"
        }
      ],
      "stateMutability": "nonpayable",
      "type": "function"
    },
    {
      "inputs": [
        {
          "internalType": "bytes32",
          "name": "marketId",
          "type": "bytes32"
        },
        {
          "internalType": "uint8",
          "name": "outcome",
          "type": "uint8"
        },
        {
          "internalType": "uint128",
          "name": "sharesToSell",
          "type": "uint128"
        },
        {
          "internalType": "uint128",
          "name": "minTokensOut",
          "type": "uint128"
        }
      ],
      "name": "sellShares",
      "outputs": [],
      "stateMutability": "nonpayable",
      "type": "function"
    },
    {
      "inputs": [
        {
          "internalType": "bytes32",
          "name": "",
          "type": "bytes32"
        }
      ],
      "name": "treasuryProposals",
      "outputs": [
        {
          "internalType": "bytes32",
          "name": "id",
          "type": "bytes32"
        },
        {
          "internalType": "address",
          "name": "proposer",
          "type": "address"
        },
        {
          "internalType": "address",
          "name": "recipient",
          "type": "address"
        },
        {
          "internalType": "uint128",
          "name": "amount",
          "type": "uint128"
        },
        {
          "internalType": "uint8",
          "name": "approvals",
          "type": "uint8"
        },
        {
          "internalType": "bool",
          "name": "executed",
          "type": "bool"
        },
        {
          "internalType": "uint64",
          "name": "createdAt",
          "type": "uint64"
        }
      ],
      "stateMutability": "view",
      "type": "function"
    },
    {
      "inputs": [
        {
          "internalType": "uint256",
          "name": "",
          "type": "uint256"
        }
      ],
      "name": "unshieldRequests",
      "outputs": [
        {
          "internalType": "bytes32",
          "name": "marketId",
          "type": "bytes32"
        },
        {
          "internalType": "address",
          "name": "user",
          "type": "address"
        },
        {
          "internalType": "uint8",
          "name": "outcome",
          "type": "uint8"
        },
        {
          "internalType": "uint128",
          "name": "amount",
          "type": "uint128"
        },
        {
          "internalType": "bool",
          "name": "executed",
          "type": "bool"
        }
      ],
      "stateMutability": "view",
      "type": "function"
    },
    {
      "inputs": [
        {
          "internalType": "bytes32",
          "name": "marketId",
          "type": "bytes32"
        },
        {
          "internalType": "uint8",
          "name": "outcome",
          "type": "uint8"
        }
      ],
      "name": "voteOutcome",
      "outputs": [],
      "stateMutability": "payable",
      "type": "function"
    },
    {
      "inputs": [
        {
          "internalType": "bytes32",
          "name": "",
          "type": "bytes32"
        }
      ],
      "name": "voteTallies",
      "outputs": [
        {
          "internalType": "uint128",
          "name": "outcome1Bonds",
          "type": "uint128"
        },
        {
          "internalType": "uint128",
          "name": "outcome2Bonds",
          "type": "uint128"
        },
        {
          "internalType": "uint128",
          "name": "outcome3Bonds",
          "type": "uint128"
        },
        {
          "internalType": "uint128",
          "name": "outcome4Bonds",
          "type": "uint128"
        },
        {
          "internalType": "uint8",
          "name": "totalVoters",
          "type": "uint8"
        },
        {
          "internalType": "uint128",
          "name": "totalBonded",
          "type": "uint128"
        },
        {
          "internalType": "uint64",
          "name": "votingDeadline",
          "type": "uint64"
        },
        {
          "internalType": "uint64",
          "name": "disputeDeadline",
          "type": "uint64"
        },
        {
          "internalType": "bool",
          "name": "finalized",
          "type": "bool"
        },
        {
          "internalType": "uint8",
          "name": "winningOutcome",
          "type": "uint8"
        }
      ],
      "stateMutability": "view",
      "type": "function"
    },
    {
      "inputs": [
        {
          "internalType": "bytes32",
          "name": "marketId",
          "type": "bytes32"
        }
      ],
      "name": "withdrawCreatorFees",
      "outputs": [],
      "stateMutability": "nonpayable",
      "type": "function"
    },
    {
      "inputs": [
        {
          "internalType": "bytes32",
          "name": "marketId",
          "type": "bytes32"
        },
        {
          "internalType": "uint128",
          "name": "lpSharesToWithdraw",
          "type": "uint128"
        }
      ],
      "name": "withdrawLiquidity",
      "outputs": [],
      "stateMutability": "nonpayable",
      "type": "function"
    },
    {
      "inputs": [
        {
          "internalType": "uint128",
          "name": "amount",
          "type": "uint128"
        }
      ],
      "name": "withdrawProtocolFees",
      "outputs": [],
      "stateMutability": "nonpayable",
      "type": "function"
    },
    {
      "stateMutability": "payable",
      "type": "receive"
    }
  ],
  "bytecode": "0x60808060405234604a5760017f9b779b17422d0df92223018b32b4d1fa46e071723d6817e2486d003becc55f00555f80546001600160a01b03191633179055615d91908161004f8239f35b5f80fdfe6080604052600436101561001a575b3615610018575f80fd5b005b5f803560e01c806301f559fe14614ad7578063027d0d1d14614951578063031d973e14614767578063054c8a7b14614528578063065981c01461435f57806307c19e581461432d5780630ebc678014613e1c5780630f564be214613ceb5780631672c39d14613ad45780631dfe3bbf1461392b57806320f5177414610d0257806321b77d631461150b5780632b2b7b9314611756578063304c15d7146138a057806331b7d413146138845780633d4d56fe1461369657806341c14c1c14613580578063428dea311461355f57806343661c9f1461346a5780634432662f1461343757806344a6e323146131e6578063469a78d214610d025780634783c35b146131935780634a51b308146131785780634aa7f2dc1461315d57806356a1f3e214612fc357806359fe5a9214612d5457806368eb5ace14612cde5780636c61fa5d14612c7657806370160b4d14612bcf57806372622cb914612bb25780637564912b14612b0a57806378f5b524146129a5578063852e3a06146126b0578063891b591b146126815780639088de951461249557806395ce4962146124635780639b4df39d146124485780639d223d47146123d05780639de28fe014611aef5780639de6327814611ad45780639e46a77714611ab95780639ed6b52514611a9e5780639f4c4deb14611a83578063a207d02e14611a68578063a525821014611a4d578063a567298d14611a14578063b06136e1146119d9578063bdb83289146118bc578063be3782281461175b578063c3c95c7b14611760578063cc3cbd2a1461175b578063d1791ae014611756578063d5f394881461172f578063d5fc686014611510578063d73792a91461150b578063dbe0f24414611479578063dd8c9f8c1461113c578063e3d7840d1461110a578063e86e951514610f09578063ec97908214610eec578063f5573ddd14610d07578063f585dc5714610d02578063f6c0092714610c09578063f732df14146109d75763fc5b42cc146102fb575061000e565b61030436614bb4565b91908184526002602052604084209360018060a01b03600186015416156109d45761036d600486015461033f600160ff8360901c1614614f35565b610358601082901c6001600160401b03164211156153b4565b600160ff8516101590816109c0575b50615434565b6103e8346001600160801b03161061098b576127106001600160801b0361039534821661511b565b1604916127106001600160801b036103ae34821661511b565b16049261041b6103d0856103cb84346001600160801b0316614da0565b614da0565b86855260046020526040852080549196909161041591906001600160801b036103fb8782841661539b565b6001600160801b031990921691161780845560801c61539b565b90614f87565b600e54906001600160801b03906104349082841661539b565b169060018060801b03191617600e55838252600360205260ff60046040842097015460081c16916040519461046886614e1e565b608036873787546001600160801b0381168752608081901c602088015296600385106109855760018901546001600160801b03165b60408801526004851061097f57600189015460801c5b60608801526104cd60ff6104c6866157d0565b16886157ab565b519889670de0b6b3a7640000810204670de0b6b3a7640000148a15171561096b57670de0b6b3a76400008a0295845b8160ff8216101561057d57888a60ff6105148a6157d0565b1660ff84160361052c575b505060010160ff166104fc565b60019161056c846105666105729460ff839f6105569061054f83809c16856157ab565b519061502c565b95888060801b03169316906157ab565b5161501f565b90615015565b98915050888a61051f565b50856003610724938a808f958f6105d28e6105bf6107119a6105ba670de0b6b3a764000060018060801b0394049160018060801b0389169061501f565b6157e2565b169a6001600160801b03168b10156154ae565b6105dd8a1515615327565b60ff87166001036107a4575083546004926106319161062b91906001600160801b036106118e6105ba83861684861661501f565b6001600160801b031990921691161780885560801c61539b565b85614f87565b84811015610774575b101561075a575b60028201805490916001600160801b039061065e9082841661539b565b6001600160801b031990921691161790550180546001600160801b0361068834821683831661539b565b6001600160801b0319909216911617905584865260066020526040862080546001600160801b036106bd34821683831661539b565b6001600160801b031990921691161790556106d88186615584565b865260126020526040862080546001600160801b036106f98782841661539b565b6001600160801b0319909216911617905533856155b2565b918285526010602052604085205461560c565b9083526010602052604083205533907fec5205380e845af9d5882d14b944f8bae155a20d9206a436abf70a61108568df8380a380f35b61076f6001830161041583825460801c61539b565b610641565b6001840180546001600160801b0361078e8682841661539b565b6001600160801b0319909216911617905561063a565b60ff87166002036108595750835460049250610806906001600160801b036107ce8682841661539b565b6001600160801b03199092169116178086556001600160801b03906107ff908c906105ba908885169060801c61501f565b1685614f87565b84811015610829575b106106415761076f6001830161041583825460801c61539b565b6001840180546001600160801b036108438682841661539b565b6001600160801b0319909216911617905561080f565b60ff871686036108e4575083546108849061062b9084906001600160801b036106118382841661539b565b6001840180549091906004906001600160801b036108aa8d6105ba88841684861661501f565b6001600160801b03199092169116178084559110156108cc575b505050610641565b6108dc926104159160801c61539b565b808a806108c4565b85926109039161062b91906001600160801b036106118382841661539b565b101561093b575b60018201805461076f91906001600160801b0390610934908b906105ba908785169060801c61501f565b1690614f87565b6001820180546001600160801b036109558482841661539b565b6001600160801b0319909216911617905561090a565b634e487b7160e01b84526011600452602484fd5b826104b3565b8261049d565b60405162461bcd60e51b815260206004820152600d60248201526c42656c6f77206d696e696d756d60981b6044820152606490fd5b60ff915060081c1660ff841611155f610367565b80fd5b5034610c05576040366003190112610c05576004356109f4614b9e565b90805f526020926002845260018060a01b039081600160405f2001541615610c0557610b24936001600160801b0390811692610b5c908490610a37821515615502565b610a4133886155f3565b93610a4b83615c1f565b94805f5260118b52610a9e610a8c8c6011610a7d610a6d8b60405f20546157ef565b9a610a76615c90565b908c6158e5565b91855f525260405f2054615a82565b825f5260118d528060405f2055615b25565b5f5260118a52610ab160405f2054615b7d565b60028a610abf6015546151e1565b9a8b948560155560ff60405193610ad585614df0565b8d8552338186019081525f6040808801828152606089019c8d52608089018381529b83526016909452902095518655516001860180546001600160a01b031916919094161783555116906154e5565b9351930180546001600160801b0319169190931617825551151590805460ff60801b191691151560801b60ff60801b16919091179055565b610b6581615b25565b845f52601786528060405f20555f80516020615cfc833981519152803b15610c0557604051630828982760e01b8152915f918391829084908290610bae9033906004840161553c565b03925af18015610bfa57610be9575b50604051928352848301526040820152815f80516020615d1c83398151915260603393a3604051908152f35b610bf39150614e0b565b5f80610bbd565b6040513d5f823e3d90fd5b5f80fd5b34610c05576020366003190112610c0557604051610c2681614dd5565b5f8152602081015f9052604081015f9052606081015f90526080908181015f905260a081015f905260c0015f90526004355f52600360205260405f2090604051610c6f81614dd5565b825491600160801b6001900392839182808316968786526020860193831c84528160018201548160408901818316815260608a0192871c83528160028601549881898d01978d828d168a5260a0019b8b1c8c5260030154169b60c0019b8c526040519d8e52511660208d0152511660408b015251166060890152511690860152511660a0840152511660c082015260e090f35b614bfe565b34610c0557610d1536614bb4565b91805f526020926002845260405f209260018060a01b03918260018601541615610c055760ff82169460018610159081610ed7575b5015610c05576001600160801b03908116928592610e3c918591610d7a90610d73841515615502565b33896155b2565b93610d8483615c1f565b94805f5260108b52610db8610da68c6010610a7d610a6d8b60405f20546157ef565b825f5260108d528060405f2055615b25565b5f5260108a52610dcb60405f2054615b7d565b600288610b248c60ff610ddf6015546151e1565b9d8e978860155560405195610df387614df0565b865260168487019433865260408801938452606088019b8c52608088019a5f8c525f525260405f20955186556001860193511660018060a01b03198454161783555116906154e5565b610e4581615b25565b845f52601786528060405f20555f80516020615cfc833981519152803b15610c0557604051630828982760e01b8152915f918391829084908290610e8e9033906004840161553c565b03925af18015610bfa57610ec85750604051928352848301526040820152815f80516020615d1c83398151915260603393a3604051908152f35b610ed190614e0b565b85610bbd565b60ff91506004015460081c1685111587610d4a565b34610c05575f366003190112610c05576020600154604051908152f35b34610c05576060366003190112610c0557610f22614be8565b6024356001600160a01b038181169291839003610c055760443590808216809203610c0557610f55815f54163314615472565b601a549260ff8460a81c166110c6571690811515806110bd575b806110b4575b15611081578382141580611077575b8061106d575b15611034577ff5b31633ffe7ba0e7371bfeec0d902cc200a5ecbb09cd7554475c5459dbfe12493608093600185604051610fc381614df0565b8681528460208201528560408201526002606082015201528160018060a01b0319858160185416176018556019541617601955600160a81b9060ff60a81b199084600160a11b9160018060a81b03191617171617601a556040519283526020830152604082015260026060820152a1005b60405162461bcd60e51b81526020600482015260116024820152704475706c6963617465207369676e65727360781b6044820152606490fd5b5080821415610f8a565b5080841415610f84565b60405162461bcd60e51b815260206004820152600b60248201526a2d32b9379039b4b3b732b960a91b6044820152606490fd5b50801515610f75565b50831515610f6f565b60405162461bcd60e51b815260206004820152601c60248201527b135d5b1d1a5cda59c8185b1c9958591e481a5b9a5d1a585b1a5e995960221b6044820152606490fd5b34610c05576020366003190112610c05576004355f526006602052602060018060801b0360405f205416604051908152f35b34610c05576040366003190112610c0557611155614be8565b61115d614b9e565b6018546001600160a01b0392919083163314801561146c575b801561145f575b61118690614c8b565b60ff601a5460a81c161561141f578282169182156113e9576001600160801b039382851690811515806113db575b156113a5576040516020968782013360601b815260018060601b03198660601b16603484015260018060801b031992838860801b1660488201524260588201526058815261120181614e1e565b51902096875f52601b895283600160405f2001541661137757886112dc60ff7f10a0fbf014675a969752e045d74f8c85dd79c6a693685b1177833061d50b639d98968b9a98968b9660036112e5976040519061125c82614dd5565b8a825288820133815260408301918252606083019c8d52608083019660018852601b60a085019b5f8d5260c086019e8f60018060401b03421690525f525260405f209351845580600185019251169160018060a01b031992838254161790556002840192511690825416179055019851169088541617875551168561521e565b51151583614d83565b518154600160901b600160d01b03191660909190911b600160901b600160d01b03161790556040518681019061132e816113203389866151ef565b03601f198101835282614e6f565b5190205f52601c865260405f20600160ff1982541617905561135560405192839283614f12565b0390a2805f80516020615cdc83398151915283604051338152a2604051908152f35b60405162461bcd60e51b8152600481018a9052600660248201526545786973747360d01b6044820152606490fd5b60405162461bcd60e51b815260206004820152600e60248201526d125b9d985b1a5908185b5bdd5b9d60921b6044820152606490fd5b5085600e54168211156111b4565b60405162461bcd60e51b815260206004820152600e60248201526d16995c9bc81c9958da5c1a595b9d60921b6044820152606490fd5b60405162461bcd60e51b8152602060048201526018602482015277135d5b1d1a5cda59c81b9bdd081a5b9a5d1a585b1a5e995960421b6044820152606490fd5b50601a548316331461117d565b5082601954163314611176565b34610c05575f366003190112610c0557335f908152600f60205260409020546001600160801b031680156114d9575f80808061001894338252600f6020526040822060018060801b03198154169055335af16114d3614e92565b50614ed0565b60405162461bcd60e51b815260206004820152600a6024820152694e6f207265776172647360b01b6044820152606490fd5b614c1a565b34610c0557602080600319360112610c05576004355f818152601683526040902060018101805493916001600160a01b0380861692909190611553841515614ccd565b6002820192835461156a60ff8260801c1615614d05565b875f526017875260405f2054956040519663458693c960e01b885260048801526040876024815f80516020615cfc8339815191525afa968715610bfa575f905f986116ed575b50151596156116b35760ff60801b198216600160801b17865597987f2600d5f0b13e194512590412065842308f0468388ab454f9c240ae8cf45c5d41989087611601575b8a8a8a8a604051908152a2005b60a01c60ff1690816116665750509354925491546001600160801b0394509284169261162f929116906155f3565b5f526014845260405f209161164883549282841661539b565b6001600160801b031990921691161790555b848080808080806115f4565b94546001600160801b03965091946116829450909250906155b2565b5f526013845260405f209161169d818454931682841661539b565b6001600160801b0319909216911617905561165a565b60405162461bcd60e51b815260048101899052601260248201527144656372797074696f6e2070656e64696e6760701b6044820152606490fd5b9750506040873d604011611727575b8161170960409383614e6f565b81010312610c0557878751970151968715158803610c05578b6115b0565b3d91506116fc565b34610c05575f366003190112610c05575f546040516001600160a01b039091168152602090f35b611a9e565b614c36565b34610c05576020366003190112610c05576117796153ea565b506004355f52600260205261014060405f2060405161179781614db9565b600482549283835260018060a01b03600182015416602084015260018060a01b03600282015416604084015260038101546060840152015460ff8116608083015260ff8160081c1660a083015260018060401b038160101c1660c083015260018060401b038160501c1660e083015260ff8160901c1661010083015260018060401b039060981c1661012082015260405191825260018060a01b03602082015116602083015260018060a01b0360408201511660408301526060810151606083015260ff608082015116608083015260ff60a08201511660a083015260018060401b0360c08201511660c083015260018060401b0360e08201511660e083015260ff6101008201511661010083015261012060018060401b0391015116610120820152f35b34610c05576020366003190112610c05576004355f81815260026020526040902060018101546001600160a01b039081168015610c055733149081156119cc575b501561199657600401805460ff8160901c166001811490811561198b575b50156119565760ff60901b1916600160921b1790557f22ad0fb1e02d1db96e8800dac4e4b23821afaf9e1ca54d2093e7bc7fb8732b5a5f80a2005b60405162461bcd60e51b815260206004820152600d60248201526c10d85b9b9bdd0818d85b98d95b609a1b6044820152606490fd5b60059150148461191b565b60405162461bcd60e51b815260206004820152600e60248201526d139bdd08185d5d1a1bdc9a5e995960921b6044820152606490fd5b90505f54163314836118fd565b34610c05576040366003190112610c05576119fe6119f5614b8e565b336004356155b2565b5f526010602052602060405f2054604051908152f35b34610c05576020366003190112610c05576004355f5260046020526040805f205481519060018060801b038116825260801c6020820152f35b34610c05575f366003190112610c0557602060405160648152f35b34610c05575f366003190112610c0557602060405160078152f35b34610c05575f366003190112610c0557602060405160058152f35b34610c05575f366003190112610c0557602060405160038152f35b34610c05575f366003190112610c0557602060405160018152f35b34610c05575f366003190112610c0557602060405160068152f35b34610c05576080366003190112610c0557611b08614b8e565b6044356001600160801b0381169003610c0557606435906001600160801b0382168203610c0557611b37615555565b6004355f90815260026020526040902060018101546001600160a01b031615610c05576004015490611b71600160ff8460901c1614614f35565b611b8a601083901c6001600160401b03164211156153b4565b600160ff82161015806123b8575b611ba190615434565b611bb76044356001600160801b03161515615327565b6004355f52600360205260405f2060405192611bd284614e1e565b608036853781546001600160801b038116855260801c60208501526003600882901c60ff16106123b25760018201546001600160801b03165b60408501526004600882901c60ff16106123ac57600182015460801c5b6060850152611c4260ff611c3b856157d0565b16856157ab565b5160028301545f95919081906001600160801b03168082116123a4575b505f905b60808210612212575b5061271092506001600160801b039150611c89905086821661511b565b1604906127106001600160801b03611ca287821661511b565b160491606460018060801b03871602958660018060801b038116036121fe576003611e4995611e4494611d0d611cf7612710611ece9c60018060801b0316046103cb8a6103cb8a60018060801b038b16614da0565b9b6001600160801b03908116908d1610156154ae565b6004355f526004602052611d3d60405f2061041589825460018060801b036103fb8b60018060801b03841661539b565b600e546001600160801b03611d548782841661539b565b6001600160801b0319909216911617600e5560ff8916600103611fcc57815460049160ff91611dc99061062b906001600160801b03611da48a821682611d9e60443582871661539b565b16614da0565b6001600160801b03199092169116178087556001600160801b0389169060801c614da0565b84828260081c161015611f9a575b60081c161015611f78575b60028101546001600160801b03611dfd858216828416614da0565b6001600160801b0319909216911617600282015501805490916001600160801b0390611e2d90821683831661539b565b6001600160801b031990921691161790558661539b565b61539b565b6004355f908152600660205260409020805490916001600160801b0390611e7290828416614da0565b6001600160801b03199092169116179055611e8f81600435615584565b5f90815260126020526040902080546001600160801b03611eb4604435828416614da0565b6001600160801b03199092169116179055336004356155b2565b5f90815260136020526040902080546001600160801b0380821693929190604435168410610c0557611f3d935f938493849384936001600160801b0390611f189060443590614da0565b6001600160801b031990921691161790556001600160801b0316335af16114d3614e92565b336004357f156358d3313311b9cdea40c0032b0ede9785d6af7566ee589e1ec8723d86f8725f80a360015f80516020615d3c83398151915255005b611f956001820161041560018060801b038616825460801c614da0565b611de2565b6001840180546001600160801b03611fb6898216828416614da0565b6001600160801b03199092169116179055611dd7565b60ff891660020361209e57815460049160ff9161201b9061062b906001600160801b03611ffd8a8216828416614da0565b6001600160801b03199092169116178087556044359060801c61539b565b83546120389061062b906001600160801b0389169060801c614da0565b84828260081c16101561206c575b60081c1610611de257611f956001820161041560018060801b038616825460801c614da0565b6001840180546001600160801b03612088898216828416614da0565b6001600160801b03199092169116179055612046565b60ff891683036121635781546120f3906120ed906001600160801b036120c8888216828416614da0565b6001600160801b03199092169116178085556001600160801b0387169060801c614da0565b83614f87565b60018201805460049060ff906001600160801b0361211c89821682611d9e60443582871661539b565b6001600160801b03199092169116178084559360081c161015612141575b5050611de2565b61215c91610415906001600160801b0387169060801c614da0565b8a8061213a565b8154839160ff916121889061062b906001600160801b03611da48a8216828416614da0565b60081c1610156121cc575b611f95600182016121b36121ad604435835460801c61539b565b82614f87565b8054610415906001600160801b0387169060801c614da0565b6001810180546001600160801b036121e8868216828416614da0565b6001600160801b03199092169116179055612193565b634e487b7160e01b5f52601160045260245ffd5b909194979295612222828961501f565b9860018a018a116121fe5786670de0b6b3a7640000810204670de0b6b3a764000014871517156121fe57670de0b6b3a76400008702955f5b60ff811660ff8360081c168110156123925760ff612277866157d0565b16810361228b575b5060010160ff1661225a565b909760018d0160011c61229e838d6157ab565b5111156122dc576122d48d61056c8d6122ce8660016122c4819861054f60ff9b876157ab565b9501871c926157ab565b516157e2565b98915061227f565b505095509592975f9991979499195b5f199080196123825750805b8181148015612379575b1561235a5750805b6044356001600160801b03161061233957505060010160011c965b8188146123345760010190611c63565b611c6c565b90989250906001808201901c808301116121fe5760010160011c0190612324565b6123749061236f876001870160011c926157e2565b61501f565b612309565b50858110612301565b670de0b6b3a764000090046122f7565b505095999197949998909693986122eb565b905088611c5f565b5f611c28565b5f611c0b565b50611ba160ff8360081c1660ff831611159050611b98565b34610c05576020366003190112610c05576001600160801b03600435818116808203610c05575f80808093866100189660018060a01b0384541691612416833314615472565b61242c600e54928284166103cb81881115614d44565b6001600160801b0319909216911617600e555af16114d3614e92565b34610c05575f366003190112610c0557602060405160148152f35b34610c05576020366003190112610c05576004355f526013602052602060018060801b0360405f205416604051908152f35b34610c05576040366003190112610c05576004356124b1614b9e565b6124b9615555565b5f82815260026020908152604090912060018101546001600160a01b031615610c055760ff6004600392015460901c1603610c05576005815260ff600360405f20015460481c169160018310612650576001600160801b039080821690612521821515615327565b855f526003845260405f209361256961253a8789615584565b95865f52601283526125648660028160405f2054169361255b8515156150e3565b01541685615136565b615152565b9084821696612579881515615361565b885f526006825260405f209081549787891692838b11610c0557886125a36013976125dc96614da0565b166001600160801b03199a8b161790555f9081526012845260409020805489896125cf89828516614da0565b169116179055338a6155b2565b5f525260405f2094855495848716938410610c0557612617965f9687966126068897968897614da0565b169116179055335af16114d3614e92565b33907f88346dcdee99ace62532c80966a072daf536d79410106b9059222549ea3df6d15f80a360015f80516020615d3c83398151915255005b60405162461bcd60e51b81526004810183905260096024820152682737903bb4b73732b960b91b6044820152606490fd5b34610c05576020366003190112610c05576004355f52601c602052602060ff60405f2054166040519015158152f35b6040366003190112610c05576004356126c7614b8e565b5f82815260026020908152604090912060018101546001600160a01b031615610c05576004015460ff9161270c838360901c166005811490811561299a575b5061523b565b845f526005815260405f2090600282019360018060401b039586865460881c164211612965578161274d9116948260018710159182612955575b5050615434565b6001600160801b033481169390929066038d7ea4c68000851061292557612774338a6155f3565b95865f52600783528460405f205460081c166128f0576040519860608a019081118a8210176128dc5761283a99612834986127ec926040528382526007868301968a885260408401925f84525f52526127e3888860405f209451169760ff199889865416178555511683614faa565b51151590614d83565b6001810361286257508054846128048782841661539b565b6001600160801b031990921691161790555b85549161282481841661520d565b1691161780855560081c1661539b565b90614faa565b33907ff256f79267f8b24554957b1869434b0308258b011f7bebd8a5519a8ba62e10515f80a3005b600281036128825750806104158661287d935460801c61539b565b612816565b600381036128b3575060010180548461289d8782841661539b565b6001600160801b03199092169116179055612816565b6004146128c1575b50612816565b60016128d6910161041586825460801c61539b565b886128bb565b634e487b7160e01b5f52604160045260245ffd5b60405162461bcd60e51b815260048101849052600d60248201526c105b1c9958591e481d9bdd1959609a1b6044820152606490fd5b60405162461bcd60e51b8152600481018390526008602482015267135a5b88189bdb9960c21b6044820152606490fd5b60081c168611159050828a612746565b60405162461bcd60e51b815260048101849052600d60248201526c159bdd1a5b99c818db1bdcd959609a1b6044820152606490fd5b600791501487612706565b34610c05576020366003190112610c05576129be6153ea565b506004355f52600560205261014060405f2060ff6101206040516129e181614db9565b82600385549560018060801b03871684528660801c6020850152600181015460018060801b038116604086015260801c60608501526002810154838116608086015260018060801b038160081c1660a086015260018060401b039060881c1660c0850152015460018060401b03811660e0840152818160401c16151561010084015260481c16828201526040519360018060801b0316845260018060801b03602082015116602085015260018060801b03604082015116604085015260018060801b03606082015116606085015282608082015116608085015260018060801b0360a08201511660a085015260018060401b0360c08201511660c085015260018060401b0360e08201511660e08501526101008101511515610100850152015116610120820152f35b34610c05576020366003190112610c05576004355f52600260205261014060405f2080549060018060a01b0390816001820154169160028201541690600460038201549101549160018060401b039360405195865260208601526040850152606084015260ff8116608084015260ff8160081c1660a0840152818160101c1660c0840152818160501c1660e084015260ff8160901c1661010084015260981c16610120820152f35b34610c05575f366003190112610c05576020601554604051908152f35b34610c05576020366003190112610c05576004355f52600560205261014060405f2060ff815491600360018060801b039160018101549260028201549060018060401b0393849301549460405197828116895260801c6020890152818116604089015260801c606088015285821660808801528160081c1660a087015260881c1660c0850152811660e0840152818160401c16151561010084015260481c16610120820152f35b34610c05576020366003190112610c05576004355f52601660205260a060405f2060ff815491816002600183015492015491604051948552600180871b0381166020860152851c16604084015260018060801b038116606084015260801c1615156080820152f35b34610c05576020366003190112610c05576004355f52600360205260e060405f2080549060018060801b03906001810154918060036002840154930154169260405194828116865260801c6020860152818116604086015260801c60608501528116608084015260801c60a083015260c0820152f35b602080600319360112610c05576004355f818152600283526040902060018101546001600160a01b031615610c055760040154612d99600160ff8360901c1614614f35565b612db2601082901c6001600160401b03164211156153b4565b6001600160801b033481169390612dcd6127108610156151a5565b835f526003825260405f20946002860180548060801c80155f14612fa7575082955b84871615612f71579160119697986004612ea093612e6b612e65888a612e4c60ff612e469b60081c169588549b8c9161256485841696612e3c87612e338a84615136565b94168094615152565b9460801c90615136565b9361539b565b166001600160801b0319998a161780875560801c61539b565b84614f87565b6003811015612f41575b1015612f0f575b506104158882548588612e918982851661539b565b1691161780845560801c61539b565b865f526006845260405f2092612eba84549382851661539b565b169116179055612ede612ecd33866155f3565b93845f5283835260405f205461560c565b925f525260405f205533907f65bd878891ea37abce70f965ba375cfda3a5bceabfacdf0d2c8f2aee66d598e65f80a3005b6001612f3b9101610415815460801c612f35612f2b828a615136565b8a87541690615152565b9061539b565b89612e7c565b600183018054878a612f66818416612f35612f5c828f615136565b848c541690615152565b169116179055612e75565b60405162461bcd60e51b815260048101879052600e60248201526d5a65726f204c502073686172657360901b6044820152606490fd5b612fb4612fbd9185615136565b85831690615152565b95612def565b34610c0557602080600319360112610c05576004355f818152600283526040902060018101546001600160a01b031615610c055760ff600461301792015460901c1660038114908115613152575b506152b5565b61302133826155f3565b5f90815260078352604090208054926001600160801b0392600885901c84169061304c8215156152f1565b61305c60ff8760881c1615615277565b5f526005825260405f2060ff829681600384015460481c16918291161480613149575b6130aa575b845460ff60881b1916600160881b1785556100185f8080808b8b16335af16114d3614e92565b91949092956004875260148260405f20541602948286169586036121fe57610018975f9788976130dd8998978998615752565b908682166130f5575b50505050945095819550613084565b8293955061311691612564600f94606461310f9404615136565b809361539b565b933387525260408520908461312f83549282841661539b565b6001600160801b03199092169116179055888080806130e6565b5080151561307f565b600491501484613011565b34610c05575f366003190112610c0557602060405160028152f35b34610c05575f366003190112610c0557602060405160048152f35b34610c05575f366003190112610c055760a0600180821b0360ff816018541691806019541690601a54916040519485526020850152811660408401528181851c16606084015260a81c1615156080820152f35b34610c05576040366003190112610c0557600435613202614b9e565b61320a615555565b815f526020906002825260405f2060018060a01b0360018201541615610c055760ff6004600392015460901c1603613403575f8381526005835260409020600301546001600160401b0390613260908216614f6e565b164211156133cc576001600160801b0381811661327e811515615327565b845f5260038452600260405f2001928354946132aa61329f85881684615136565b9660801c8097615152565b848116966132b9881515615361565b885f52600683528560405f205416881161339257906132e46132de8560149594614da0565b88614f87565b865496866132f483828b16614da0565b1660018060801b0319809916179055885f526006825260405f2090878761331f845493828516614da0565b16911617905561332f33896155f3565b5f525260405f2094855495848716938410610c0557613359965f9687966126068897968897614da0565b33907fc7ddda68b458058660231a324ab142da47b73920572f869d97a99c09c1c50bcd5f80a360015f80516020615d3c83398151915255005b60405162461bcd60e51b8152600481018490526012602482015271496e73756666696369656e742066756e647360701b6044820152606490fd5b60405162461bcd60e51b815260048101839052600f60248201526e5072696f726974792077696e646f7760881b6044820152606490fd5b60405162461bcd60e51b815260048101839052600c60248201526b139bdd081c995cdbdb1d995960a21b6044820152606490fd5b34610c05576020366003190112610c0557613454336004356155f3565b5f526011602052602060405f2054604051908152f35b34610c0557602080600319360112610c055760043590815f526002815260018060a01b0380600160405f2001541615610c05576009825260405f205416330361352c575f80808460088295610018978452600281526134e160ff600460408720015460901c166003811490811561352157506152b5565b82845281815260408420546001600160801b0316926135018415156152f1565b8452526040822080546001600160801b0319169055335af16114d3614e92565b60049150148a613011565b6064906040519062461bcd60e51b82526004820152600c60248201526b2737ba103234b9b83aba32b960a11b6044820152fd5b34610c05575f366003190112610c0557602060405166038d7ea4c680008152f35b34610c0557602080600319360112610c05576004355f818152600283526040902060018101549192916001600160a01b03168015610c055733036136635760ff60046135dd92015460901c166003811490811561315257506152b5565b815f52600c81526135f560ff60405f20541615615277565b815f526004815260405f205460801c918215613634575f8061001894600c8295839584525260408220600160ff19825416179055335af16114d3614e92565b60405162461bcd60e51b81526004810183905260076024820152664e6f206665657360c81b6044820152606490fd5b60405162461bcd60e51b815260048101839052600b60248201526a2737ba1031b932b0ba37b960a91b6044820152606490fd5b34610c05576040366003190112610c05576004356136b2614b9e565b6136ba615555565b815f526020906002825260405f2060018060a01b0360018201541615610c0557600460ff816136ef93015460901c161461503f565b6001600160801b03818116929091906137098415156150b1565b61371333866155f3565b90815f52600d815261372c60ff60405f20541615615277565b855f5260038152600260405f20019182549561375861374d87891687615136565b9760801c8098615152565b885f526006845261378361377d878960405f2054169a6103cb8b86169c8d111561516a565b86614f87565b8454948761379383828916614da0565b1660018060801b0319809716179055885f526006845260405f209085886137be845493828516614da0565b169116179055815f52601483528560405f2054161061383557945f9485948594601486956137fc9a8752526040852092612606845493828516614da0565b33907fb3a981a51a138d30ed018f025a13f99d6eac339dcc88dec2adeb4c191eadb1ed5f80a360015f80516020615d3c83398151915255005b60405162461bcd60e51b815260048101839052602160248201527f496e73756666696369656e7420756e736869656c646564204c502073686172656044820152607360f81b6064820152608490fd5b34610c05575f366003190112610c055760206040516103e88152f35b34610c05576020366003190112610c05576004355f52601b60205260e060405f2080549060018060a01b039060038260018301541692600283015416910154916040519384526020840152604083015260018060801b038116606083015260ff8160801c16608083015260ff8160881c16151560a083015260018060401b039060901c1660c0820152f35b34610c05576020366003190112610c05576004355f81815260026020526040902060018101546001600160a01b031615610c0557600401805461397f60ff8260901c1660058114908115613ac9575061523b565b825f52600560205260405f209060028201549260018060401b0393848160881c16421115610c0557600384019060ff825460401c16610c055760ff6003911610610c05577f0eec3220d7d0587998474d45a1647927fdd5d83c8a8d0f5b45154fb1954082829484602095549460018060801b038087169160019760801c838111613abc575b5060081c60ff16600381101580613aab575b613a99575b600411159283613a85575b505050613a7c575b613a388483614ff8565b8154600160401b91613a4b428216614f6e565b6001600160481b0319909216911617179055805460ff60901b1916600360911b17905560405160ff919091168152a2005b60049350613a2e565b6001015460801c9116109050888080613a26565b60018401546003985082169250613a1b565b508160018501541682841610613a16565b60029850925060ff613a04565b600791501485612706565b6040366003190112610c0557600435613aeb614b8e565b815f526020906002825260405f2060018060a01b0360018201541615610c0557600401805491613b23600660ff8560901c1614614c51565b5f8581526005855260409020600381018054919290916001600160401b03918282164211613cb65790613b6760ff8093169760018910159081613ca6575b5061507b565b60481c168514610c055760028301805490949060081c6001600160801b03908116600302808216919082036121fe573416908110613c72575f89815260088952604080822080546001600160801b0319169093179092556009895281812080546001600160a01b03191633179055600a8952818120805460ff191689179055825460ff60901b1916600760901b17909255835460ff60401b191684557fd8a95b382b85b954ed8355497403c1e4b82061ec736bdcfb48a875aae997e147979096909590949093919260019290613c4890613c42904216614f6e565b86614fcf565b805460ff60481b19169055828155015580546001600160881b0319169055825133815291820152a2005b60405162461bcd60e51b815260048101899052600c60248201526b426f6e6420746f6f206c6f7760a01b6044820152606490fd5b84915060081c168811158b613b61565b60405162461bcd60e51b815260048101899052600d60248201526c15da5b991bddc818db1bdcd959609a1b6044820152606490fd5b34610c0557602080600319360112610c055760043590600360018060a01b03806018541633148015613e0f575b8015613e02575b613d2890614c8b565b835f52601b8352613d4460405f20916001830154161515614ccd565b01613d5660ff825460881c1615614d05565b60405182810190613d6c816113203388866151ef565b519020805f52601c835260ff60405f205416613dca575f80516020615cdc8339815191529291613dc1915f52601c835260405f20600160ff19825416179055613dbb60ff825460801c1661520d565b9061521e565b604051338152a2005b60405162461bcd60e51b815260048101849052601060248201526f105b1c9958591e48185c1c1c9bdd995960821b6044820152606490fd5b50601a5481163314613d1f565b5080601954163314613d18565b60c0366003190112610c0557613e30614b8e565b6044359060ff82168203610c05576064356001600160401b0381169003610c05576084356001600160401b0381169003610c055760a4356001600160a01b0381168103610c0557600260ff841610158061431f575b15610c0557613e986127103410156151a5565b426064356001600160401b031611156142e5576001600160401b0360643581166084359091161115610c055760405160208101903360601b8252600435603482015260018060c01b03198060643560c01b16605483015260843560c01b16605c82015242606482015260648152613f0e81614df0565b5190205f818152600260205260409020600101549092906001600160a01b0316610c055760ff9060405192613f4284614db9565b84845233602085015260018060a01b03166040840152600435606084015216608082015260ff831660a082015260c081019060018060401b0360643516825260e0810160018060401b0360843516815261010082016001815261012083019160018060401b0342168352855f526002602052600460405f20855181556001810160018060a01b036020880151169060018060a01b03199182825416179055600282019060018060a01b036040890151169082541617905560608601516003820155019460ff60808601511661ff0060a0885497015160081b169162010000600160501b03905160101b1692600160501b600160901b03905160501b169360ff60901b905160901b1694600160981b600160d81b03905160981b1695600160981b600160d81b03199160ff60901b19169060018060981b03191617161717171717905561409960ff831660018060801b033416615152565b600360ff8416106142df57805b600460ff8516106142d85781905b604051926140c184614dd5565b6001600160801b03908116808552602080860191825292821660408087019190915293821660608601523482166080860181905260a08601525f60c0860181905286815260039384905293909320845181546001600160801b0319169083161781559251919291614133911682614f87565b60408301516001820180546001600160801b0319166001600160801b039283161781556060850151614166921690614f87565b60808301516002820180546001600160801b0319166001600160801b0392831617815560a0850151614199921690614f87565b60c090920151910180546001600160801b0319166001600160801b039290921691909117905560408051929083016001600160401b038111848210176128dc5760409081525f80855260208581018281528583526004825292909120945185546001600160801b0319166001600160801b0391821617865591519094614223929190911690614f87565b6006835260405f2080546001600160801b031916346001600160801b031617905561424e33836155f3565b5f81815260118552604090205461426f90346001600160801b03169061560c565b905f526011845260405f20556142866001546151e1565b60015560ff604051916004358352168382015260018060401b03606435166040820152817f496672ee0fba5b2363cb91dfafa003bc43723be84cc68714fdbb7e0628aa3ac260603393a3604051908152f35b5f906140b4565b5f6140a6565b60405162461bcd60e51b8152602060048201526012602482015271446561646c696e6520696e2066757475726560701b6044820152606490fd5b50600460ff84161115613e85565b34610c05576020366003190112610c05576004355f526014602052602060018060801b0360405f205416604051908152f35b34610c055761436d36614bb4565b90614376615555565b825f526020916002835260405f2060018060a01b0360018201541615610c055760046143c79101546143b0600460ff8360901c161461503f565b60ff841660018110159182614517575b505061507b565b6001600160801b03818116939092906143e18515156150b1565b855f526003815260405f20946144996144276143fd858a615584565b97885f52601285526125648860028160405f2054169361441e8515156150e3565b01541688615136565b93885f52600684528660405f20541697614446888716998a111561516a565b895f526006855260405f2088614460825498828a16614da0565b166001600160801b03199788161790555f90815260128552604090208054868961448c8a828516614da0565b16911617905533896155b2565b90815f52601383528560405f205416106144d257945f9485948594601386956137fc9a8752526040852092612606845493828516614da0565b60405162461bcd60e51b815260048101839052601e60248201527f496e73756666696369656e7420756e736869656c6465642073686172657300006044820152606490fd5b60081c60ff161015905086806143c0565b34610c05576020366003190112610c05575f805f915f6004355f52600360205260405f2091600260205260405f2083549060018060801b0394858316801580155f1461475e5761470e576a0c097ce7bc90715b34b9f160241b04925b60801c8015806147515761470e576a0c097ce7bc90715b34b9f160241b049160ff906004905b015460081c16600381101591828093614742575b156147395787600182015416801561470e576a0c097ce7bc90715b34b9f160241b04916004905b1015908180614729575b15614722576001015460801c801561470e576a0c097ce7bc90715b34b9f160241b045b6146248161236f8561236f898b61501f565b9283614651575b5060808a8a8a818f818d8160405197168752166020860152166040840152166060820152f35b9397509398509398509350670de0b6b3a764000097888102908082048a14901517156121fe57614682858892615015565b1696888102908082048a14901517156121fe576146a0858892615015565b16941561470757878102908082048914901517156121fe576146c3848792615015565b165b91156146f8578681029681880414901517156121fe5783806146ea8194608099615015565b165b9392829789808061462b565b5060809550838092505f6146ec565b505f6146c5565b634e487b7160e01b5f52601260045260245ffd5b505f614612565b50600181015460801c15156145ef565b60045f926145e5565b508760018201541615156145be565b505060ff60045f936145aa565b50505f92614584565b34610c05576020366003190112610c05576004355f81815260026020526040902060018101546001600160a01b031615610c05576004018054906147b3600160ff8460901c1614614f35565b6001600160401b0391601081901c83164211156149185760ff60901b1916600560901b1790556147e4428216614f6e565b604051906147f182614db9565b5f825260208201925f845260408301915f835260608401905f82528260808601915f835260a08701975f89528260c089019216825260e08801985f8a526101008901975f89526101208a01995f8b528c5f52600560205260405f2097600160801b600190039485808094511691600160801b600190031992838d5416178c55511661487c908b614f87565b8260018b0194511690845416178355511661489691614f87565b60028601945160ff1660ff1986541617855551166148b49084614faa565b51166148bf91614fcf565b60030193511683549160ff60401b9051151560401b1691600160481b600190031916171782555160ff166148f291614ff8565b7f685acf17bc506d0cfe7016cdc38205cbb6f983cc284d783ec999a280bb5825195f80a2005b60405162461bcd60e51b81526020600482015260116024820152704e6f74207061737420646561646c696e6560781b6044820152606490fd5b34610c05576020366003190112610c0557601854600435906001600160a01b0390811633148015614aca575b8015614abd575b61498d90614c8b565b815f52601b60205260405f20906149ab816001840154161515614ccd565b60038201908154906149c360ff8360881c1615614d05565b60ff601a5460a01c1660ff8360801c1610614a8157600e547fff1129099b647fda11e043d9f7ef9f0f595b4cf9018c239df7406f6a6f75ef94946001600160801b03936002928186169190614a1c908716831115614d44565b60ff60881b1916600160881b178655600e54908590614a3d90838316614da0565b169060018060801b03191617600e5501614a675f80808086865416888a5416905af16114d3614e92565b541691541690614a7c60405192839283614f12565b0390a2005b60405162461bcd60e51b81526020600482015260146024820152734e6f7420656e6f75676820617070726f76616c7360601b6044820152606490fd5b50601a5481163314614984565b508060195416331461497d565b34610c05576020366003190112610c05576004355f81815260026020526040902060018101546001600160a01b031615610c0557600401805490614b23600660ff8460901c1614614c51565b5f83815260056020526040902060030180549092906001600160401b0316421115610c055760ff60901b1916600360901b1790555460405160489190911c60ff1681527f792b55102c78d70a54105158e6e4807fb2dc4c0f6076c5d2bc6fe70fd1c0667490602090a2005b6024359060ff82168203610c0557565b602435906001600160801b0382168203610c0557565b6060906003190112610c05576004359060243560ff81168103610c0557906044356001600160801b0381168103610c055790565b600435906001600160a01b0382168203610c0557565b34610c05575f366003190112610c0557602060405161a8c08152f35b34610c05575f366003190112610c055760206040516127108152f35b34610c05575f366003190112610c0557602060405160328152f35b15614c5857565b60405162461bcd60e51b815260206004820152600b60248201526a4e6f742070656e64696e6760a81b6044820152606490fd5b15614c9257565b60405162461bcd60e51b81526020600482015260136024820152722737ba1036bab63a34b9b4b39039b4b3b732b960691b6044820152606490fd5b15614cd457565b60405162461bcd60e51b8152602060048201526009602482015268139bdd08199bdd5b9960ba1b6044820152606490fd5b15614d0c57565b60405162461bcd60e51b815260206004820152601060248201526f105b1c9958591e48195e1958dd5d195960821b6044820152606490fd5b15614d4b57565b60405162461bcd60e51b815260206004820152601060248201526f4578636565647320747265617375727960801b6044820152606490fd5b805460ff60881b191691151560881b60ff60881b16919091179055565b6001600160801b0391821690821603919082116121fe57565b61014081019081106001600160401b038211176128dc57604052565b60e081019081106001600160401b038211176128dc57604052565b60a081019081106001600160401b038211176128dc57604052565b6001600160401b0381116128dc57604052565b608081019081106001600160401b038211176128dc57604052565b606081019081106001600160401b038211176128dc57604052565b602081019081106001600160401b038211176128dc57604052565b601f909101601f19168101906001600160401b038211908210176128dc57604052565b3d15614ecb573d906001600160401b0382116128dc5760405191614ec0601f8201601f191660200184614e6f565b82523d5f602084013e565b606090565b15614ed757565b60405162461bcd60e51b8152602060048201526013602482015272115512081d1c985b9cd9995c8819985a5b1959606a1b6044820152606490fd5b6001600160a01b0390911681526001600160801b03909116602082015260400190565b15614f3c57565b60405162461bcd60e51b815260206004820152600a6024820152694e6f742061637469766560b01b6044820152606490fd5b6001600160401b0390811661a8c001919082116121fe57565b80546001600160801b031660809290921b6001600160801b031916919091179055565b8054610100600160881b03191660089290921b610100600160881b0316919091179055565b8054600160881b600160c81b03191660889290921b600160881b600160c81b0316919091179055565b805460ff60481b191660489290921b60ff60481b16919091179055565b811561470e570490565b919082018092116121fe57565b818102929181159184041417156121fe57565b1561504657565b60405162461bcd60e51b815260206004820152600d60248201526c139bdd0818d85b98d95b1b1959609a1b6044820152606490fd5b1561508257565b60405162461bcd60e51b8152602060048201526007602482015266125b9d985b1a5960ca1b6044820152606490fd5b156150b857565b606460405162461bcd60e51b81526020600482015260046024820152635a65726f60e01b6044820152fd5b156150ea57565b60405162461bcd60e51b81526020600482015260096024820152684e6f2073686172657360b81b6044820152606490fd5b6001600160801b03908116603202908116919082036121fe57565b6001600160801b0391821690821602908116919082036121fe57565b6001600160801b039182169190821561470e57160490565b1561517157565b60405162461bcd60e51b815260206004820152600c60248201526b125b9cdd59999a58da595b9d60a21b6044820152606490fd5b156151ac57565b60405162461bcd60e51b815260206004820152600d60248201526c4d696e206c697175696469747960981b6044820152606490fd5b5f1981146121fe5760010190565b90815260609190911b6001600160601b031916602082015260340190565b60ff1660ff81146121fe5760010190565b805460ff60801b191660809290921b60ff60801b16919091179055565b1561524257565b60405162461bcd60e51b815260206004820152600d60248201526c4e6f7420696e20766f74696e6760981b6044820152606490fd5b1561527e57565b60405162461bcd60e51b815260206004820152600f60248201526e105b1c9958591e4818db185a5b5959608a1b6044820152606490fd5b156152bc57565b60405162461bcd60e51b815260206004820152600d60248201526c139bdd08199a5b985b1a5e9959609a1b6044820152606490fd5b156152f857565b60405162461bcd60e51b8152602060048201526007602482015266139bc8189bdb9960ca1b6044820152606490fd5b1561532e57565b60405162461bcd60e51b815260206004820152600b60248201526a5a65726f2073686172657360a81b6044820152606490fd5b1561536857565b60405162461bcd60e51b815260206004820152600b60248201526a16995c9bc81c185e5bdd5d60aa1b6044820152606490fd5b6001600160801b0391821690821601919082116121fe57565b156153bb57565b60405162461bcd60e51b8152602060048201526007602482015266115e1c1a5c995960ca1b6044820152606490fd5b604051906153f782614db9565b5f610120838281528260208201528260408201528260608201528260808201528260a08201528260c08201528260e0820152826101008201520152565b1561543b57565b60405162461bcd60e51b815260206004820152600f60248201526e496e76616c6964206f7574636f6d6560881b6044820152606490fd5b1561547957565b60405162461bcd60e51b815260206004820152600d60248201526c27b7363c903232b83637bcb2b960991b6044820152606490fd5b156154b557565b60405162461bcd60e51b8152602060048201526008602482015267536c69707061676560c01b6044820152606490fd5b805460ff60a01b191660a09290921b60ff60a01b16919091179055565b1561550957565b60405162461bcd60e51b815260206004820152600b60248201526a16995c9bc8185b5bdd5b9d60aa1b6044820152606490fd5b9081526001600160a01b03909116602082015260400190565b5f80516020615d3c83398151915260028154146155725760029055565b604051633ee5aeb560e01b8152600490fd5b90604051906020820192835260ff60f81b9060f81b166040820152602181526155ac81614e39565b51902090565b604080516020810192835260609390931b6001600160601b0319169083015260f89290921b6001600160f81b0319166054820152603581526155ac81614e39565b906155ac611320916040519283916020830195866151ef565b9061561f906001600160801b0316615c1f565b811591908261574557809192615735575b15615727575b6040519161564383614e39565b60028352604036602085013761565883615cbe565b5261566282615ccb565b5260206156ac6040519261567584614e54565b5f84526156be6040519485938493631888debd60e01b85526006600486015260086024860152608060448601526084850190615bb9565b83810360031901606485015290615bb9565b03815f5f80516020615cfc8339815191525af1908115610bfa575f916156f5575b506156e981615b25565b6156f281615b7d565b90565b90506020813d60201161571f575b8161571060209383614e6f565b81010312610c0557515f6156df565b3d9150615703565b50615730615c90565b615636565b915061573f615c90565b91615630565b8092506156e99150615b25565b9060ff166001811461579d576002811461579557600381146157845760041461577a57505f90565b6001015460801c90565b50600101546001600160801b031690565b505460801c90565b50546001600160801b031690565b9060048110156157bc5760051b0190565b634e487b7160e01b5f52603260045260245ffd5b60ff5f199116019060ff82116121fe57565b919082039182116121fe57565b9081156158d5575b80156158c7575b6040519161580b83614e39565b60028352604036602085013761582083615cbe565b5261582a82615ccb565b5260206156ac6040519261583d84614e54565b5f84526158746040519485938493631888debd60e01b85526006600486015260126024860152608060448601526084850190615bb9565b03815f5f80516020615cfc8339815191525af1908115610bfa575f91615898575090565b90506020813d6020116158bf575b816158b360209383614e6f565b81010312610c05575190565b3d91506158a6565b506158d0615c90565b6157fe565b90506158df615c90565b906157f7565b9190821561599f575b8015615991575b8115615981575b6040519261590984614e1e565b60038452606036602086013761591e84615cbe565b5261592883615ccb565b528151600210156157bc57606082015260206156ac6040519261594a84614e54565b5f84526158746040519485938493631888debd60e01b85526006600486015260046024860152608060448601526084850190615bb9565b905061598b615c90565b906158fc565b5061599a615c90565b6158f5565b91506040516159ad81614e54565b5f8152604051906159bd82614e1e565b6003825260603660208401375f6159d383615cbe565b525f6159de83615ccb565b528151600210156157bc576156ac6020915f6060850152615a286040519485938493631888debd60e01b85525f6004860152601a6024860152608060448601526084850190615bb9565b03815f5f80516020615cfc8339815191525af1908115610bfa575f91615a50575b50916158ee565b90506020813d602011615a7a575b81615a6b60209383614e6f565b81010312610c0557515f615a49565b3d9150615a5e565b908115615b15575b8015615b07575b60405191615a9e83614e39565b600283526040366020850137615ab383615cbe565b52615abd82615ccb565b5260206156ac60405192615ad084614e54565b5f84526158746040519485938493631888debd60e01b85526006600486015260076024860152608060448601526084850190615bb9565b50615b10615c90565b615a91565b9050615b1f615c90565b90615a8a565b5f80516020615cfc833981519152803b15610c0557604051631974142760e21b8152915f918391829084908290615b619030906004840161553c565b03925af18015610bfa57615b725750565b615b7b90614e0b565b565b5f80516020615cfc833981519152803b15610c0557604051631974142760e21b8152915f918391829084908290615b619033906004840161553c565b9081518082526020808093019301915f5b828110615bd8575050505090565b835185529381019392810192600101615bca565b9091615c116156f29360068452601a6020850152608060408501526080840190615bb9565b916060818403910152615bb9565b604051615c2b81614e54565b5f815260405191615c3b83614e1e565b600383526060366020850137615c5083615cbe565b526006615c5c83615ccb565b528151600210156157bc575f6060830152604051631888debd60e01b81529160209183918291615874919060048401615bec565b604051615c9c81614e54565b5f815260405190615cac82614e1e565b6003825260603660208401375f615c50835b8051156157bc5760200190565b8051600110156157bc576040019056fe2ff0cda1d4b877c99bc53902ce7b326e79084be3e3c28139b9e724e97236a18c000000000000000000000000ea30c4b8b44078bbf8a6ef5b9f1ec1626c7848d96da0e4bc5a9d31d638134dd7b03484ea40e7d453a35a29c0fdd72cd319d0fe5b9b779b17422d0df92223018b32b4d1fa46e071723d6817e2486d003becc55f00a2646970667358221220b5b5c861912e4029b194de8a2c8d76773976191589eaa82f830c1fa0cb6a0f4664736f6c63430008190033",
  "linkReferences": {},
  "deployedLinkReferences": {}
}