{
  "_format": "hh-sol-artifact-1",
  "contractName": "FhenixMarkets",
  "sourceName": "contracts/FhenixMarkets.sol",
  "abi": [
    {
      "inputs": [],
      "stateMutability": "nonpayable",
      "type": "constructor"
    },
    {
      "inputs": [
        {
          "internalType": "uint8",
          "name": "got",
          "type": "uint8"
        },
        {
          "internalType": "uint8",
          "name": "expected",
          "type": "uint8"
        }
      ],
      "name": "InvalidEncryptedInput",
      "type": "error"
    },
    {
      "inputs": [],
      "name": "ReentrancyGuardReentrantCall",
      "type": "error"
    },
    {
      "inputs": [
        {
          "internalType": "int32",
          "name": "value",
          "type": "int32"
        }
      ],
      "name": "SecurityZoneOutOfBounds",
      "type": "error"
    },
    {
      "anonymous": false,
      "inputs": [
        {
          "indexed": true,
          "internalType": "bytes32",
          "name": "marketId",
          "type": "bytes32"
        },
        {
          "indexed": true,
          "internalType": "address",
          "name": "provider",
          "type": "address"
        }
      ],
      "name": "LiquidityAdded",
      "type": "event"
    },
    {
      "anonymous": false,
      "inputs": [
        {
          "indexed": true,
          "internalType": "bytes32",
          "name": "marketId",
          "type": "bytes32"
        },
        {
          "indexed": true,
          "internalType": "address",
          "name": "provider",
          "type": "address"
        }
      ],
      "name": "LiquidityWithdrawn",
      "type": "event"
    },
    {
      "anonymous": false,
      "inputs": [
        {
          "indexed": true,
          "internalType": "bytes32",
          "name": "marketId",
          "type": "bytes32"
        }
      ],
      "name": "MarketCancelled",
      "type": "event"
    },
    {
      "anonymous": false,
      "inputs": [
        {
          "indexed": true,
          "internalType": "bytes32",
          "name": "marketId",
          "type": "bytes32"
        }
      ],
      "name": "MarketClosed",
      "type": "event"
    },
    {
      "anonymous": false,
      "inputs": [
        {
          "indexed": true,
          "internalType": "bytes32",
          "name": "marketId",
          "type": "bytes32"
        },
        {
          "indexed": true,
          "internalType": "address",
          "name": "creator",
          "type": "address"
        },
        {
          "indexed": false,
          "internalType": "bytes32",
          "name": "questionHash",
          "type": "bytes32"
        },
        {
          "indexed": false,
          "internalType": "uint8",
          "name": "numOutcomes",
          "type": "uint8"
        },
        {
          "indexed": false,
          "internalType": "uint64",
          "name": "deadline",
          "type": "uint64"
        }
      ],
      "name": "MarketCreated",
      "type": "event"
    },
    {
      "anonymous": false,
      "inputs": [
        {
          "indexed": true,
          "internalType": "bytes32",
          "name": "marketId",
          "type": "bytes32"
        },
        {
          "indexed": true,
          "internalType": "address",
          "name": "claimer",
          "type": "address"
        }
      ],
      "name": "RefundClaimed",
      "type": "event"
    },
    {
      "anonymous": false,
      "inputs": [
        {
          "indexed": true,
          "internalType": "bytes32",
          "name": "marketId",
          "type": "bytes32"
        },
        {
          "indexed": false,
          "internalType": "uint8",
          "name": "winningOutcome",
          "type": "uint8"
        }
      ],
      "name": "ResolutionConfirmed",
      "type": "event"
    },
    {
      "anonymous": false,
      "inputs": [
        {
          "indexed": true,
          "internalType": "bytes32",
          "name": "marketId",
          "type": "bytes32"
        },
        {
          "indexed": false,
          "internalType": "address",
          "name": "disputer",
          "type": "address"
        },
        {
          "indexed": false,
          "internalType": "uint8",
          "name": "proposedOutcome",
          "type": "uint8"
        }
      ],
      "name": "ResolutionDisputed",
      "type": "event"
    },
    {
      "anonymous": false,
      "inputs": [
        {
          "indexed": true,
          "internalType": "bytes32",
          "name": "marketId",
          "type": "bytes32"
        },
        {
          "indexed": true,
          "internalType": "address",
          "name": "buyer",
          "type": "address"
        }
      ],
      "name": "SharesBought",
      "type": "event"
    },
    {
      "anonymous": false,
      "inputs": [
        {
          "indexed": true,
          "internalType": "bytes32",
          "name": "marketId",
          "type": "bytes32"
        },
        {
          "indexed": true,
          "internalType": "address",
          "name": "redeemer",
          "type": "address"
        }
      ],
      "name": "SharesRedeemed",
      "type": "event"
    },
    {
      "anonymous": false,
      "inputs": [
        {
          "indexed": true,
          "internalType": "bytes32",
          "name": "marketId",
          "type": "bytes32"
        },
        {
          "indexed": true,
          "internalType": "address",
          "name": "seller",
          "type": "address"
        }
      ],
      "name": "SharesSold",
      "type": "event"
    },
    {
      "anonymous": false,
      "inputs": [
        {
          "indexed": true,
          "internalType": "uint256",
          "name": "requestId",
          "type": "uint256"
        },
        {
          "indexed": false,
          "internalType": "bool",
          "name": "successful",
          "type": "bool"
        }
      ],
      "name": "UnshieldExecuted",
      "type": "event"
    },
    {
      "anonymous": false,
      "inputs": [
        {
          "indexed": true,
          "internalType": "uint256",
          "name": "requestId",
          "type": "uint256"
        },
        {
          "indexed": true,
          "internalType": "address",
          "name": "user",
          "type": "address"
        },
        {
          "indexed": false,
          "internalType": "bytes32",
          "name": "marketId",
          "type": "bytes32"
        },
        {
          "indexed": false,
          "internalType": "uint8",
          "name": "outcome",
          "type": "uint8"
        },
        {
          "indexed": false,
          "internalType": "uint128",
          "name": "amount",
          "type": "uint128"
        }
      ],
      "name": "UnshieldRequested",
      "type": "event"
    },
    {
      "anonymous": false,
      "inputs": [
        {
          "indexed": true,
          "internalType": "bytes32",
          "name": "marketId",
          "type": "bytes32"
        },
        {
          "indexed": true,
          "internalType": "address",
          "name": "voter",
          "type": "address"
        }
      ],
      "name": "VoteSubmitted",
      "type": "event"
    },
    {
      "anonymous": false,
      "inputs": [
        {
          "indexed": true,
          "internalType": "bytes32",
          "name": "marketId",
          "type": "bytes32"
        },
        {
          "indexed": false,
          "internalType": "uint8",
          "name": "winningOutcome",
          "type": "uint8"
        }
      ],
      "name": "VotesFinalized",
      "type": "event"
    },
    {
      "inputs": [],
      "name": "CREATOR_FEE_BPS",
      "outputs": [
        {
          "internalType": "uint128",
          "name": "",
          "type": "uint128"
        }
      ],
      "stateMutability": "view",
      "type": "function"
    },
    {
      "inputs": [],
      "name": "DISPUTE_BOND_MULTIPLIER",
      "outputs": [
        {
          "internalType": "uint128",
          "name": "",
          "type": "uint128"
        }
      ],
      "stateMutability": "view",
      "type": "function"
    },
    {
      "inputs": [],
      "name": "DISPUTE_WINDOW",
      "outputs": [
        {
          "internalType": "uint64",
          "name": "",
          "type": "uint64"
        }
      ],
      "stateMutability": "view",
      "type": "function"
    },
    {
      "inputs": [],
      "name": "FEE_DENOMINATOR",
      "outputs": [
        {
          "internalType": "uint128",
          "name": "",
          "type": "uint128"
        }
      ],
      "stateMutability": "view",
      "type": "function"
    },
    {
      "inputs": [],
      "name": "LP_FEE_BPS",
      "outputs": [
        {
          "internalType": "uint128",
          "name": "",
          "type": "uint128"
        }
      ],
      "stateMutability": "view",
      "type": "function"
    },
    {
      "inputs": [],
      "name": "MARKET_STATUS_ACTIVE",
      "outputs": [
        {
          "internalType": "uint8",
          "name": "",
          "type": "uint8"
        }
      ],
      "stateMutability": "view",
      "type": "function"
    },
    {
      "inputs": [],
      "name": "MARKET_STATUS_CANCELLED",
      "outputs": [
        {
          "internalType": "uint8",
          "name": "",
          "type": "uint8"
        }
      ],
      "stateMutability": "view",
      "type": "function"
    },
    {
      "inputs": [],
      "name": "MARKET_STATUS_CLOSED",
      "outputs": [
        {
          "internalType": "uint8",
          "name": "",
          "type": "uint8"
        }
      ],
      "stateMutability": "view",
      "type": "function"
    },
    {
      "inputs": [],
      "name": "MARKET_STATUS_RESOLVED",
      "outputs": [
        {
          "internalType": "uint8",
          "name": "",
          "type": "uint8"
        }
      ],
      "stateMutability": "view",
      "type": "function"
    },
    {
      "inputs": [],
      "name": "MIN_LIQUIDITY",
      "outputs": [
        {
          "internalType": "uint128",
          "name": "",
          "type": "uint128"
        }
      ],
      "stateMutability": "view",
      "type": "function"
    },
    {
      "inputs": [],
      "name": "MIN_TRADE_AMOUNT",
      "outputs": [
        {
          "internalType": "uint128",
          "name": "",
          "type": "uint128"
        }
      ],
      "stateMutability": "view",
      "type": "function"
    },
    {
      "inputs": [],
      "name": "MIN_VOTERS",
      "outputs": [
        {
          "internalType": "uint8",
          "name": "",
          "type": "uint8"
        }
      ],
      "stateMutability": "view",
      "type": "function"
    },
    {
      "inputs": [],
      "name": "MIN_VOTE_BOND",
      "outputs": [
        {
          "internalType": "uint128",
          "name": "",
          "type": "uint128"
        }
      ],
      "stateMutability": "view",
      "type": "function"
    },
    {
      "inputs": [],
      "name": "PROTOCOL_FEE_BPS",
      "outputs": [
        {
          "internalType": "uint128",
          "name": "",
          "type": "uint128"
        }
      ],
      "stateMutability": "view",
      "type": "function"
    },
    {
      "inputs": [],
      "name": "STATUS_DISPUTED",
      "outputs": [
        {
          "internalType": "uint8",
          "name": "",
          "type": "uint8"
        }
      ],
      "stateMutability": "view",
      "type": "function"
    },
    {
      "inputs": [],
      "name": "STATUS_PENDING_FINALIZATION",
      "outputs": [
        {
          "internalType": "uint8",
          "name": "",
          "type": "uint8"
        }
      ],
      "stateMutability": "view",
      "type": "function"
    },
    {
      "inputs": [],
      "name": "STATUS_PENDING_RESOLUTION",
      "outputs": [
        {
          "internalType": "uint8",
          "name": "",
          "type": "uint8"
        }
      ],
      "stateMutability": "view",
      "type": "function"
    },
    {
      "inputs": [],
      "name": "VOTER_REWARD_PERCENT",
      "outputs": [
        {
          "internalType": "uint128",
          "name": "",
          "type": "uint128"
        }
      ],
      "stateMutability": "view",
      "type": "function"
    },
    {
      "inputs": [],
      "name": "VOTE_WINDOW",
      "outputs": [
        {
          "internalType": "uint64",
          "name": "",
          "type": "uint64"
        }
      ],
      "stateMutability": "view",
      "type": "function"
    },
    {
      "inputs": [],
      "name": "WINNER_CLAIM_PRIORITY",
      "outputs": [
        {
          "internalType": "uint64",
          "name": "",
          "type": "uint64"
        }
      ],
      "stateMutability": "view",
      "type": "function"
    },
    {
      "inputs": [
        {
          "internalType": "bytes32",
          "name": "marketId",
          "type": "bytes32"
        }
      ],
      "name": "addLiquidity",
      "outputs": [],
      "stateMutability": "payable",
      "type": "function"
    },
    {
      "inputs": [
        {
          "internalType": "bytes32",
          "name": "",
          "type": "bytes32"
        }
      ],
      "name": "ammPools",
      "outputs": [
        {
          "internalType": "uint128",
          "name": "reserve1",
          "type": "uint128"
        },
        {
          "internalType": "uint128",
          "name": "reserve2",
          "type": "uint128"
        },
        {
          "internalType": "uint128",
          "name": "reserve3",
          "type": "uint128"
        },
        {
          "internalType": "uint128",
          "name": "reserve4",
          "type": "uint128"
        },
        {
          "internalType": "uint128",
          "name": "totalLiquidity",
          "type": "uint128"
        },
        {
          "internalType": "uint128",
          "name": "totalLPShares",
          "type": "uint128"
        },
        {
          "internalType": "uint128",
          "name": "totalVolume",
          "type": "uint128"
        }
      ],
      "stateMutability": "view",
      "type": "function"
    },
    {
      "inputs": [
        {
          "internalType": "bytes32",
          "name": "marketId",
          "type": "bytes32"
        },
        {
          "internalType": "uint8",
          "name": "outcome",
          "type": "uint8"
        },
        {
          "components": [
            {
              "internalType": "uint256",
              "name": "ctHash",
              "type": "uint256"
            },
            {
              "internalType": "uint8",
              "name": "securityZone",
              "type": "uint8"
            },
            {
              "internalType": "uint8",
              "name": "utype",
              "type": "uint8"
            },
            {
              "internalType": "bytes",
              "name": "signature",
              "type": "bytes"
            }
          ],
          "internalType": "struct InEuint8",
          "name": "encOutcome",
          "type": "tuple"
        },
        {
          "internalType": "uint128",
          "name": "minSharesOut",
          "type": "uint128"
        }
      ],
      "name": "buyShares",
      "outputs": [],
      "stateMutability": "payable",
      "type": "function"
    },
    {
      "inputs": [
        {
          "internalType": "bytes32",
          "name": "marketId",
          "type": "bytes32"
        }
      ],
      "name": "cancelMarket",
      "outputs": [],
      "stateMutability": "nonpayable",
      "type": "function"
    },
    {
      "inputs": [
        {
          "internalType": "bytes32",
          "name": "marketId",
          "type": "bytes32"
        }
      ],
      "name": "claimDisputeBond",
      "outputs": [],
      "stateMutability": "nonpayable",
      "type": "function"
    },
    {
      "inputs": [
        {
          "internalType": "bytes32",
          "name": "marketId",
          "type": "bytes32"
        },
        {
          "internalType": "uint128",
          "name": "lpSharesToRefund",
          "type": "uint128"
        }
      ],
      "name": "claimLPRefund",
      "outputs": [],
      "stateMutability": "nonpayable",
      "type": "function"
    },
    {
      "inputs": [
        {
          "internalType": "bytes32",
          "name": "marketId",
          "type": "bytes32"
        },
        {
          "internalType": "uint8",
          "name": "outcome",
          "type": "uint8"
        },
        {
          "internalType": "uint128",
          "name": "sharesToRefund",
          "type": "uint128"
        }
      ],
      "name": "claimRefund",
      "outputs": [],
      "stateMutability": "nonpayable",
      "type": "function"
    },
    {
      "inputs": [
        {
          "internalType": "bytes32",
          "name": "marketId",
          "type": "bytes32"
        }
      ],
      "name": "claimVoterBond",
      "outputs": [],
      "stateMutability": "nonpayable",
      "type": "function"
    },
    {
      "inputs": [],
      "name": "claimVoterReward",
      "outputs": [],
      "stateMutability": "nonpayable",
      "type": "function"
    },
    {
      "inputs": [
        {
          "internalType": "bytes32",
          "name": "marketId",
          "type": "bytes32"
        }
      ],
      "name": "closeMarket",
      "outputs": [],
      "stateMutability": "nonpayable",
      "type": "function"
    },
    {
      "inputs": [
        {
          "internalType": "bytes32",
          "name": "marketId",
          "type": "bytes32"
        }
      ],
      "name": "confirmResolution",
      "outputs": [],
      "stateMutability": "nonpayable",
      "type": "function"
    },
    {
      "inputs": [
        {
          "internalType": "bytes32",
          "name": "questionHash",
          "type": "bytes32"
        },
        {
          "internalType": "uint8",
          "name": "category",
          "type": "uint8"
        },
        {
          "internalType": "uint8",
          "name": "numOutcomes",
          "type": "uint8"
        },
        {
          "internalType": "uint64",
          "name": "deadline",
          "type": "uint64"
        },
        {
          "internalType": "uint64",
          "name": "resolutionDeadline",
          "type": "uint64"
        },
        {
          "internalType": "address",
          "name": "resolver",
          "type": "address"
        }
      ],
      "name": "createMarket",
      "outputs": [
        {
          "internalType": "bytes32",
          "name": "",
          "type": "bytes32"
        }
      ],
      "stateMutability": "payable",
      "type": "function"
    },
    {
      "inputs": [],
      "name": "deployer",
      "outputs": [
        {
          "internalType": "address",
          "name": "",
          "type": "address"
        }
      ],
      "stateMutability": "view",
      "type": "function"
    },
    {
      "inputs": [
        {
          "internalType": "bytes32",
          "name": "marketId",
          "type": "bytes32"
        },
        {
          "internalType": "uint8",
          "name": "proposedOutcome",
          "type": "uint8"
        }
      ],
      "name": "disputeResolution",
      "outputs": [],
      "stateMutability": "payable",
      "type": "function"
    },
    {
      "inputs": [
        {
          "internalType": "uint256",
          "name": "reqId",
          "type": "uint256"
        }
      ],
      "name": "executeUnshield",
      "outputs": [],
      "stateMutability": "nonpayable",
      "type": "function"
    },
    {
      "inputs": [
        {
          "internalType": "bytes32",
          "name": "marketId",
          "type": "bytes32"
        }
      ],
      "name": "finalizeVotes",
      "outputs": [],
      "stateMutability": "nonpayable",
      "type": "function"
    },
    {
      "inputs": [
        {
          "internalType": "bytes32",
          "name": "marketId",
          "type": "bytes32"
        }
      ],
      "name": "getEncLPBalance",
      "outputs": [
        {
          "internalType": "euint128",
          "name": "",
          "type": "bytes32"
        }
      ],
      "stateMutability": "view",
      "type": "function"
    },
    {
      "inputs": [
        {
          "internalType": "bytes32",
          "name": "marketId",
          "type": "bytes32"
        },
        {
          "internalType": "uint8",
          "name": "outcome",
          "type": "uint8"
        }
      ],
      "name": "getEncShareBalance",
      "outputs": [
        {
          "internalType": "euint128",
          "name": "",
          "type": "bytes32"
        }
      ],
      "stateMutability": "view",
      "type": "function"
    },
    {
      "inputs": [
        {
          "internalType": "bytes32",
          "name": "marketId",
          "type": "bytes32"
        }
      ],
      "name": "getPrices",
      "outputs": [
        {
          "internalType": "uint128",
          "name": "price1",
          "type": "uint128"
        },
        {
          "internalType": "uint128",
          "name": "price2",
          "type": "uint128"
        },
        {
          "internalType": "uint128",
          "name": "price3",
          "type": "uint128"
        },
        {
          "internalType": "uint128",
          "name": "price4",
          "type": "uint128"
        }
      ],
      "stateMutability": "view",
      "type": "function"
    },
    {
      "inputs": [],
      "name": "marketCount",
      "outputs": [
        {
          "internalType": "uint256",
          "name": "",
          "type": "uint256"
        }
      ],
      "stateMutability": "view",
      "type": "function"
    },
    {
      "inputs": [
        {
          "internalType": "bytes32",
          "name": "",
          "type": "bytes32"
        }
      ],
      "name": "marketCredits",
      "outputs": [
        {
          "internalType": "uint128",
          "name": "",
          "type": "uint128"
        }
      ],
      "stateMutability": "view",
      "type": "function"
    },
    {
      "inputs": [
        {
          "internalType": "bytes32",
          "name": "",
          "type": "bytes32"
        }
      ],
      "name": "marketFees",
      "outputs": [
        {
          "internalType": "uint128",
          "name": "protocolFees",
          "type": "uint128"
        },
        {
          "internalType": "uint128",
          "name": "creatorFees",
          "type": "uint128"
        }
      ],
      "stateMutability": "view",
      "type": "function"
    },
    {
      "inputs": [
        {
          "internalType": "bytes32",
          "name": "",
          "type": "bytes32"
        }
      ],
      "name": "markets",
      "outputs": [
        {
          "internalType": "bytes32",
          "name": "id",
          "type": "bytes32"
        },
        {
          "internalType": "address",
          "name": "creator",
          "type": "address"
        },
        {
          "internalType": "address",
          "name": "resolver",
          "type": "address"
        },
        {
          "internalType": "bytes32",
          "name": "questionHash",
          "type": "bytes32"
        },
        {
          "internalType": "uint8",
          "name": "category",
          "type": "uint8"
        },
        {
          "internalType": "uint8",
          "name": "numOutcomes",
          "type": "uint8"
        },
        {
          "internalType": "uint64",
          "name": "deadline",
          "type": "uint64"
        },
        {
          "internalType": "uint64",
          "name": "resolutionDeadline",
          "type": "uint64"
        },
        {
          "internalType": "uint8",
          "name": "status",
          "type": "uint8"
        },
        {
          "internalType": "uint64",
          "name": "createdAt",
          "type": "uint64"
        }
      ],
      "stateMutability": "view",
      "type": "function"
    },
    {
      "inputs": [],
      "name": "nextUnshieldId",
      "outputs": [
        {
          "internalType": "uint256",
          "name": "",
          "type": "uint256"
        }
      ],
      "stateMutability": "view",
      "type": "function"
    },
    {
      "inputs": [
        {
          "internalType": "bytes32",
          "name": "",
          "type": "bytes32"
        }
      ],
      "name": "publicLPBalances",
      "outputs": [
        {
          "internalType": "uint128",
          "name": "",
          "type": "uint128"
        }
      ],
      "stateMutability": "view",
      "type": "function"
    },
    {
      "inputs": [
        {
          "internalType": "bytes32",
          "name": "",
          "type": "bytes32"
        }
      ],
      "name": "publicShareBalances",
      "outputs": [
        {
          "internalType": "uint128",
          "name": "",
          "type": "uint128"
        }
      ],
      "stateMutability": "view",
      "type": "function"
    },
    {
      "inputs": [
        {
          "internalType": "bytes32",
          "name": "marketId",
          "type": "bytes32"
        },
        {
          "internalType": "uint128",
          "name": "sharesToRedeem",
          "type": "uint128"
        }
      ],
      "name": "redeemShares",
      "outputs": [],
      "stateMutability": "nonpayable",
      "type": "function"
    },
    {
      "inputs": [
        {
          "internalType": "bytes32",
          "name": "marketId",
          "type": "bytes32"
        },
        {
          "internalType": "uint128",
          "name": "amount",
          "type": "uint128"
        }
      ],
      "name": "requestUnshieldLP",
      "outputs": [
        {
          "internalType": "uint256",
          "name": "",
          "type": "uint256"
        }
      ],
      "stateMutability": "nonpayable",
      "type": "function"
    },
    {
      "inputs": [
        {
          "internalType": "bytes32",
          "name": "marketId",
          "type": "bytes32"
        },
        {
          "internalType": "uint8",
          "name": "outcome",
          "type": "uint8"
        },
        {
          "internalType": "uint128",
          "name": "amount",
          "type": "uint128"
        }
      ],
      "name": "requestUnshieldShares",
      "outputs": [
        {
          "internalType": "uint256",
          "name": "",
          "type": "uint256"
        }
      ],
      "stateMutability": "nonpayable",
      "type": "function"
    },
    {
      "inputs": [
        {
          "internalType": "bytes32",
          "name": "marketId",
          "type": "bytes32"
        }
      ],
      "name": "requestVoteDecryption",
      "outputs": [],
      "stateMutability": "nonpayable",
      "type": "function"
    },
    {
      "inputs": [
        {
          "internalType": "bytes32",
          "name": "marketId",
          "type": "bytes32"
        }
      ],
      "name": "requestVoterDecryption",
      "outputs": [],
      "stateMutability": "nonpayable",
      "type": "function"
    },
    {
      "inputs": [
        {
          "internalType": "bytes32",
          "name": "marketId",
          "type": "bytes32"
        },
        {
          "internalType": "uint8",
          "name": "outcome",
          "type": "uint8"
        },
        {
          "internalType": "uint128",
          "name": "sharesToSell",
          "type": "uint128"
        },
        {
          "internalType": "uint128",
          "name": "minTokensOut",
          "type": "uint128"
        }
      ],
      "name": "sellShares",
      "outputs": [],
      "stateMutability": "nonpayable",
      "type": "function"
    },
    {
      "inputs": [
        {
          "internalType": "uint256",
          "name": "",
          "type": "uint256"
        }
      ],
      "name": "unshieldRequests",
      "outputs": [
        {
          "internalType": "bytes32",
          "name": "marketId",
          "type": "bytes32"
        },
        {
          "internalType": "address",
          "name": "user",
          "type": "address"
        },
        {
          "internalType": "uint8",
          "name": "outcome",
          "type": "uint8"
        },
        {
          "internalType": "uint128",
          "name": "amount",
          "type": "uint128"
        },
        {
          "internalType": "bool",
          "name": "executed",
          "type": "bool"
        }
      ],
      "stateMutability": "view",
      "type": "function"
    },
    {
      "inputs": [
        {
          "internalType": "bytes32",
          "name": "marketId",
          "type": "bytes32"
        },
        {
          "components": [
            {
              "internalType": "uint256",
              "name": "ctHash",
              "type": "uint256"
            },
            {
              "internalType": "uint8",
              "name": "securityZone",
              "type": "uint8"
            },
            {
              "internalType": "uint8",
              "name": "utype",
              "type": "uint8"
            },
            {
              "internalType": "bytes",
              "name": "signature",
              "type": "bytes"
            }
          ],
          "internalType": "struct InEuint8",
          "name": "encOutcome",
          "type": "tuple"
        }
      ],
      "name": "voteOutcome",
      "outputs": [],
      "stateMutability": "payable",
      "type": "function"
    },
    {
      "inputs": [
        {
          "internalType": "bytes32",
          "name": "",
          "type": "bytes32"
        }
      ],
      "name": "voteTallies",
      "outputs": [
        {
          "internalType": "euint128",
          "name": "encOutcome1Bonds",
          "type": "bytes32"
        },
        {
          "internalType": "euint128",
          "name": "encOutcome2Bonds",
          "type": "bytes32"
        },
        {
          "internalType": "euint128",
          "name": "encOutcome3Bonds",
          "type": "bytes32"
        },
        {
          "internalType": "euint128",
          "name": "encOutcome4Bonds",
          "type": "bytes32"
        },
        {
          "internalType": "uint128",
          "name": "totalVoters",
          "type": "uint128"
        },
        {
          "internalType": "uint128",
          "name": "totalBonded",
          "type": "uint128"
        },
        {
          "internalType": "uint64",
          "name": "votingDeadline",
          "type": "uint64"
        },
        {
          "internalType": "uint64",
          "name": "disputeDeadline",
          "type": "uint64"
        },
        {
          "internalType": "bool",
          "name": "finalized",
          "type": "bool"
        },
        {
          "internalType": "uint8",
          "name": "winningOutcome",
          "type": "uint8"
        },
        {
          "internalType": "bool",
          "name": "decryptionRequested",
          "type": "bool"
        }
      ],
      "stateMutability": "view",
      "type": "function"
    },
    {
      "inputs": [
        {
          "internalType": "bytes32",
          "name": "marketId",
          "type": "bytes32"
        }
      ],
      "name": "withdrawCreatorFees",
      "outputs": [],
      "stateMutability": "nonpayable",
      "type": "function"
    },
    {
      "inputs": [
        {
          "internalType": "bytes32",
          "name": "marketId",
          "type": "bytes32"
        },
        {
          "internalType": "uint128",
          "name": "lpSharesToWithdraw",
          "type": "uint128"
        }
      ],
      "name": "withdrawLiquidity",
      "outputs": [],
      "stateMutability": "nonpayable",
      "type": "function"
    },
    {
      "inputs": [
        {
          "internalType": "uint128",
          "name": "amount",
          "type": "uint128"
        }
      ],
      "name": "withdrawProtocolFees",
      "outputs": [],
      "stateMutability": "nonpayable",
      "type": "function"
    },
    {
      "stateMutability": "payable",
      "type": "receive"
    }
  ],
  "bytecode": "0x60808060405234604a5760017f9b779b17422d0df92223018b32b4d1fa46e071723d6817e2486d003becc55f00555f80546001600160a01b0319163317905561527d908161004f8239f35b5f80fdfe608080604052600436101561001c575b50361561001a575f80fd5b005b5f905f3560e01c90816301f559fe1461431057508063031d973e14614141578063054c8a7b14613f02578063065981c014613dee57806307c19e5814613dbc5780630ebc6780146138c85780631672c39d14613716578063181edf6a146130eb5780631dfe3bbf14612e4857806320f51774146104c557806321b77d63146108765780632b2b7b9314610a1157806331b7d41314612e2c5780633d4d56fe14612c975780633ed46c661461248657806341c14c1c146123e2578063428dea31146123c157806343661c9f146123085780634432662f146122d557806344a6e323146120b4578063469a78d2146104c55780634a51b308146120995780634aa7f2dc1461207e57806356a1f3e214611ec657806359fe5a9214611c9c57806368eb5ace14611c265780636c61fa5d14611bbe57806370160b4d14611b0f57806372622cb914611af25780637564912b14611a4a5780639088de95146118a557806395ce4962146118735780639b4df39d146118585780639d223d47146117d95780639de28fe014610ef05780639de6327814610ed55780639e46a77714610eba5780639ed6b52514610e9f5780639f4c4deb14610e84578063a207d02e14610e69578063a45c384714610bce578063a525821014610bb2578063a567298d14610b78578063b06136e114610b3d578063bdb8328914610a1b578063be37822814610a16578063cc3cbd2a14610a16578063d1791ae014610a11578063d5f39488146109ea578063d5fc68601461087b578063d73792a914610876578063dbe0f24414610819578063e3d7840d146107e6578063ec979082146107c8578063ede7ae2b146106f3578063f5573ddd146104ca578063f585dc57146104c55763f732df140361000f57346104af5760403660031901126104af576004356102be6143dc565b908083526020916002835260018060a01b039384600160408320015416156104af576001600160801b039182169182156104c15761040b8560029697610304338861489e565b9361030e87615127565b948087526011845261036061034e61033d61032d8960408c2054614ad3565b986103366150b5565b908a614bcf565b838a526011875260408a2054614d6c565b828952601186528060408a2055614a4b565b8652601183526103736040872054614e0f565b61037e6015546146ac565b9889928360155560405190610392826144bb565b8a82523386830190815260408084018b8152606085018d8152608086018d8152988d526016909952908b2093518455905160018401805492516001600160a81b0319909316919093161760a09190911b60ff60a01b161790559351930180546001600160801b0319169190931617825551151590614596565b61041481614a4b565b848252601786528060408320555f805160206151e883398151915290813b156104bd5761045c83928392604051948580948193630828982760e01b83523390600484016147e7565b03925af180156104b25790829161049b575b5050604051928352848301526040820152815f8051602061520883398151915260603393a3604051908152f35b6104a4906144a8565b6104af57805f61046e565b80fd5b6040513d84823e3d90fd5b8280fd5b5080fd5b61443c565b50346104af576104d936614408565b919081845260209260028452604085209060018060a01b039081600184015416156106da5760ff841692600184101590816106de575b50156106da576001600160801b039081169384156106d65784600297989360409361053e61063694338b61485d565b6105978c60106105876105776105678c6105578b615127565b9c81898f93528688522054614ad3565b9a6105706150b5565b908c614bcf565b858c5282845260408c2054614d6c565b91848b52528060408a2055614a4b565b865260108b526105aa6040872054614e0f565b6105b56015546146ac565b998a9283601555604051906105c9826144bb565b8b82528d80830191338352601660408501928d845260608601998a5260808601988d8a528d525260408b20935184556001840192511682549160ff60a01b905160a01b169160018060a81b031916171790550192511660018060801b031983541617825551151590614596565b61063f81614a4b565b858252601787528060408320555f805160206151e883398151915290813b156104bd5761068783928392604051948580948193630828982760e01b83523390600484016147e7565b03925af180156104b2576106c2575050604051928352848301526040820152815f8051602061520883398151915260603393a3604051908152f35b6106cc82916144a8565b6104af578061046e565b8780fd5b8680fd5b60ff91506004015460081c168311155f61050f565b50346104af5760203660031901126104af57600435808252600260205260408220600101546001600160a01b0316156104c15761073190339061489e565b815260076020526040812060018101548291906001600160801b038116156107c15760801c60ff166107c5575480156107c5575f805160206151e8833981519152803b156107c157604051630828982760e01b815291839183918290849082906107a0903390600484016147e7565b03925af180156104b2576107b15750f35b6107ba906144a8565b6104af5780f35b5050fd5b50fd5b50346104af57806003193601126104af576020600154604051908152f35b50346104af5760203660031901126104af57602090600435815260068252604060018060801b0391205416604051908152f35b50346104af57806003193601126104af57338152600f60205260408120805482916001600160801b038216918215610871576001600160801b0319169055819081908190335af161086861467d565b50156104af5780f35b505050fd5b614458565b50346104af576020806003193601126104c15760043580835260168252604083206001810180549293916001600160a01b038085169290919083156106d6576002820192835460ff8160801c166109e657601787526108dd60408b2054614fa1565b9690151596156109e25760ff60801b198216600160801b1786557f2600d5f0b13e194512590412065842308f0468388ab454f9c240ae8cf45c5d419887610930575b50505050505050604051908152a280f35b60a01c60ff1690816109955750509354925491546001600160801b0394509284169261095e9291169061489e565b8752601484526040872091610977835492828416614792565b6001600160801b031990921691161790555b5f80808080808061091f565b94546001600160801b03965091946109b194509092509061485d565b87526013845260408720916109cc8184549316828416614792565b6001600160801b03199092169116179055610989565b8a80fd5b8980fd5b50346104af57806003193601126104af57546040516001600160a01b039091168152602090f35b610e9f565b614474565b50346104af5760203660031901126104af5760043580825260026020526040822060018101546001600160a01b039081168015610b39573314908115610b2c575b5015610af657600401805460ff8160901c1660018114908115610aeb575b5015610ab65760ff60901b1916600160921b1790557f22ad0fb1e02d1db96e8800dac4e4b23821afaf9e1ca54d2093e7bc7fb8732b5a8280a280f35b60405162461bcd60e51b815260206004820152600d60248201526c10d85b9b9bdd0818d85b98d95b609a1b6044820152606490fd5b60059150145f610a7a565b60405162461bcd60e51b815260206004820152600e60248201526d139bdd08185d5d1a1bdc9a5e995960921b6044820152606490fd5b905083541633145f610a5c565b8480fd5b50346104af5760403660031901126104af576040602091610b68610b5f6143be565b3360043561485d565b8152601083522054604051908152f35b50346104af5760203660031901126104af576040809160043581526004602052205481519060018060801b038116825260801c6020820152f35b50346104af57806003193601126104af57602060405160648152f35b5034610e5a576020366003190112610e5a576004355f81815260026020526040902060018101549192916001600160a01b031615610e5a5760040191610c2760ff845460901c1660058114908115610e5e575b506146ba565b5f52600560205260405f209160058301805460018060401b038116421115610e5a5760ff8160801c16610e5a5760ff8160901c16610e5a5760ff60901b1916600160901b179055825480610df1575b50918192600182015480610d89575b50600360ff825460081c16101580610d7c575b610d03575b60ff6004915460081c16101580610cf6575b610cb65750f35b600301545f805160206151e8833981519152803b156107c157604051630828982760e01b815291839183918290849082906107a0903390600484016147e7565b5060038101541515610caf565b60028201545f805160206151e8833981519152803b15610b3957604051630828982760e01b81529185918391829084908290610d44903390600484016147e7565b03925af1908115610d71578491610d5d575b5050610c9d565b610d66906144a8565b6107c157825f610d56565b6040513d86823e3d90fd5b5060028201541515610c98565b5f805160206151e8833981519152803b15610b3957604051630828982760e01b81529185918391829084908290610dc5903390600484016147e7565b03925af1908115610d71578491610ddd575b50610c85565b610de6906144a8565b6107c157825f610dd7565b5f805160206151e8833981519152803b15610e5a57604051630828982760e01b8152915f918391829084908290610e2d903390600484016147e7565b03925af18015610e4f5715610c7657610e479192506144a8565b5f905f610c76565b6040513d5f823e3d90fd5b5f80fd5b60079150145f610c21565b34610e5a575f366003190112610e5a57602060405160078152f35b34610e5a575f366003190112610e5a57602060405160058152f35b34610e5a575f366003190112610e5a57602060405160038152f35b34610e5a575f366003190112610e5a57602060405160018152f35b34610e5a575f366003190112610e5a57602060405160068152f35b34610e5a576080366003190112610e5a57610f096143be565b6044356001600160801b0381169003610e5a57610f246143f2565b90610f2d614800565b6004355f90815260026020526040902060018101546001600160a01b031615610e5a576004015490600160ff8360901c1603610e5a57601082901c6001600160401b03164211610e5a57600160ff82161015806117c6575b15610e5a576044356001600160801b031615610e5a57600360205260405f209160405192610fb2846144d6565b608036853780546001600160801b038116855260801c60208501526003600883901c60ff16106117c05760018101546001600160801b03165b60408501526004600883901c60ff16106117ba57600181015460801c5b606085015261102260ff61101b85614ab4565b1685614aa3565b5160028201545f95919081906001600160801b03168082116117b2575b505f905b60808210611613575b5061271092506001600160801b03915061106990508682166145fa565b1604906127106001600160801b036110828782166145fa565b1604916001600160801b038681166064029081168190036115ff576110c7906127106001600160801b0391821604906110c2908690829086908c16614649565b614649565b966001600160801b0390811690881610610e5a576112d09560036112469361124b966004355f52600460205261113960405f2061113389825460018060801b036111198b60018060801b038416614792565b6001600160801b031990921691161780845560801c614792565b9061454a565b600e546001600160801b0361115087828416614792565b6001600160801b0319909216911617600e5560ff89166001036113cd57815460049160ff916111cb906111c5906001600160801b036111a08a82168261119a604435828716614792565b16614649565b6001600160801b03199092169116178087556001600160801b0389169060801c614649565b8561454a565b84828260081c16101561139b575b60081c161015611379575b60028101546001600160801b036111ff858216828416614649565b6001600160801b0319909216911617600282015501805490916001600160801b039061122f908216838316614792565b6001600160801b0319909216911617905586614792565b614792565b6004355f908152600660205260409020805490916001600160801b039061127490828416614649565b6001600160801b031990921691161790556112918160043561482f565b5f90815260126020526040902080546001600160801b036112b6604435828416614649565b6001600160801b031990921691161790553360043561485d565b5f90815260136020526040902080546001600160801b0380821690604435168110610e5a575f938493849384936001600160801b03906113139060443590614649565b6001600160801b031990921691161790556001600160801b0316335af161133861467d565b5015610e5a57336004357f156358d3313311b9cdea40c0032b0ede9785d6af7566ee589e1ec8723d86f8725f80a360015f8051602061522883398151915255005b6113966001820161113360018060801b038616825460801c614649565b6111e4565b6001840180546001600160801b036113b7898216828416614649565b6001600160801b031990921691161790556111d9565b60ff891660020361149f57815460049160ff9161141c906111c5906001600160801b036113fe8a8216828416614649565b6001600160801b03199092169116178087556044359060801c614792565b8354611439906111c5906001600160801b0389169060801c614649565b84828260081c16101561146d575b60081c16106111e4576113966001820161113360018060801b038616825460801c614649565b6001840180546001600160801b03611489898216828416614649565b6001600160801b03199092169116179055611447565b60ff891683036115645781546114f4906114ee906001600160801b036114c9888216828416614649565b6001600160801b03199092169116178085556001600160801b0387169060801c614649565b8361454a565b60018201805460049060ff906001600160801b0361151d8982168261119a604435828716614792565b6001600160801b03199092169116178084559360081c161015611542575b50506111e4565b61155d91611133906001600160801b0387169060801c614649565b8a8061153b565b8154839160ff91611589906111c5906001600160801b036111a08a8216828416614649565b60081c1610156115cd575b611396600182016115b46115ae604435835460801c614792565b8261454a565b8054611133906001600160801b0387169060801c614649565b6001810180546001600160801b036115e9868216828416614649565b6001600160801b03199092169116179055611594565b634e487b7160e01b5f52601160045260245ffd5b90919497929561162382896145da565b9860018a018a116115ff5786670de0b6b3a7640000810204670de0b6b3a764000014871517156115ff57670de0b6b3a76400008702955f5b60ff811660ff8460081c168110156117a05760ff61167886614ab4565b16810361168c575b5060010160ff1661165b565b909760018d0160011c61169f838d614aa3565b5111156116ea576116e28d6116dc8d6116d68660016116cc81986116c560ff9b87614aa3565b51906145e7565b9501871c92614aa3565b51614ac6565b906145d0565b989150611680565b505095509592975f9991979499195b5f199080196117905750805b8181148015611787575b156117685750805b6044356001600160801b03161061174757505060010160011c965b8188146117425760010190611043565b61104c565b90989250906001808201901c808301116115ff5760010160011c0190611732565b6117829061177d876001870160011c92614ac6565b6145da565b611717565b5085811061170f565b670de0b6b3a76400009004611705565b505095999197949998909693986116f9565b90508861103f565b5f611008565b5f610feb565b5060ff8260081c1660ff82161115610f85565b34610e5a576020366003190112610e5a576004356001600160801b0381811691828103610e5a575f546001600160a01b03169033829003610e5a57600e549383851692838211610e5a575f9586956118348796958796614649565b6001600160801b0319909216911617600e555af161185061467d565b5015610e5a57005b34610e5a575f366003190112610e5a57602060405160148152f35b34610e5a576020366003190112610e5a576004355f526013602052602060018060801b0360405f205416604051908152f35b34610e5a576040366003190112610e5a576004356118c16143dc565b6118c9614800565b815f526020906002825260405f2060018060a01b0360018201541615610e5a5760ff6004600392015460901c1603610e5a576005825260ff600560405f20015460881c1660018110610e5a576001600160801b0391808316918215610e5a576003855260405f209461193b828861482f565b95865f52601282528560405f2054168015610e5a576119638760026119689401541686614615565b614631565b90858216928315610e5a57885f526006825260405f2090815498888a1692838711610e5a578961199d6013976119d696614649565b166001600160801b03199b8c161790555f908152601284526040902080548a8a6119c98a828516614649565b169116179055338a61485d565b5f525260405f208054858116948510610e5a575f9687966119fa8897968897614649565b169116179055335af1611a0b61467d565b5015610e5a5733907f88346dcdee99ace62532c80966a072daf536d79410106b9059222549ea3df6d15f80a360015f8051602061522883398151915255005b34610e5a576020366003190112610e5a576004355f52600260205261014060405f2080549060018060a01b0390816001820154169160028201541690600460038201549101549160018060401b039360405195865260208601526040850152606084015260ff8116608084015260ff8160081c1660a0840152818160101c1660c0840152818160501c1660e084015260ff8160901c1661010084015260981c16610120820152f35b34610e5a575f366003190112610e5a576020601554604051908152f35b34610e5a576020366003190112610e5a576004355f52600560205261016060405f2060ff81549160018101546002820154916003810154600560048301549201549360018060401b039360405197885260208801526040870152606086015260018060801b038116608086015260801c60a085015280821660c08501528160401c1660e0840152818160801c161515610100840152818160881c1661012084015260901c161515610140820152f35b34610e5a576020366003190112610e5a576004355f52601660205260a060405f2060ff815491816002600183015492015491604051948552600180871b0381166020860152851c16604084015260018060801b038116606084015260801c1615156080820152f35b34610e5a576020366003190112610e5a576004355f52600360205260e060405f2080549060018060801b03906001810154918060036002840154930154169260405194828116865260801c6020860152818116604086015260801c60608501528116608084015260801c60a083015260c0820152f35b602080600319360112610e5a576004355f818152600283526040902060018101549192916001600160a01b031615610e5a576004015490600160ff8360901c1603610e5a57601082901c6001600160401b03164211610e5a576001600160801b0334811691906127108310610e5a576003825260405f2092600284019485548060801c80155f14611eaa575082965b84881615610e5a576011966004611dd993611da4611d9e888a611d8560ff611d7f9b60081c169588549b8c9161196385841696611d7587611d6c8a84614615565b94168094614631565b9460801c90614615565b93614792565b166001600160801b0319998a161780875560801c614792565b8461454a565b6003811015611e7a575b1015611e48575b506111338882548588611dca89828516614792565b1691161780845560801c614792565b865f526006845260405f2092611df3845493828516614792565b169116179055611e17611e06338661489e565b93845f5283835260405f20546148cb565b925f525260405f205533907f65bd878891ea37abce70f965ba375cfda3a5bceabfacdf0d2c8f2aee66d598e65f80a3005b6001611e749101611133815460801c611e6e611e64828a614615565b8a87541690614631565b90614792565b89611db5565b600183018054878a611e9f818416611e6e611e95828f614615565b848c541690614631565b169116179055611dae565b611eb7611ec09185614615565b85831690614631565b96611d2b565b34610e5a57602080600319360112610e5a576004355f818152600283526040902060018101549192916001600160a01b031615610e5a5760ff6004611f1d92015460901c1660038114908115612073575b506147ab565b611f27338361489e565b5f526007815260405f20906001820190815460018060801b0394858216918215610e5a5760801c60ff16610e5a57805f526005835260405f209082955480151580612060575b611f9d575b5050835460ff60801b1916600160801b17909355505f93849384935083925016335af161185061467d565b611fa690614fa1565b15611f725760ff80600585015460881c16911614611fc5575b80611f72565b5f969295919396526004865260148260405f20541602938285169485036115ff575f968796879660048897015460801c908161200c575b5050505093829650819550611fbf565b8293955061202d91611963600f9460646120269404614615565b8093614792565b9333875252604085209084612046835492828416614792565b6001600160801b0319909216911617905587808080611ffc565b5060ff600584015460881c161515611f6d565b600491501484611f17565b34610e5a575f366003190112610e5a57602060405160028152f35b34610e5a575f366003190112610e5a57602060405160048152f35b34610e5a576040366003190112610e5a576004356120d06143dc565b6120d8614800565b815f526020906002825260405f2060018060a01b0360018201541615610e5a5760ff6004600392015460901c16036122a1575f838152600580845260409182902001546001600160401b039161213191901c821661448f565b1642111561226a576001600160801b0390808216908115610e5a57845f5260038452600260405f200193845461217761216c86831685614615565b9160801c8092614631565b91858316928315610e5a57885f52600682528660405f2054168411610e5a576121ab6121a586601495614649565b8961454a565b875497876121bb83828c16614649565b1660018060801b0319809a16179055885f526006825260405f209088886121e6845493828516614649565b1691161790556121f6338961489e565b5f525260405f208054858116948510610e5a575f96879661221a8897968897614649565b169116179055335af161222b61467d565b5015610e5a5733907fc7ddda68b458058660231a324ab142da47b73920572f869d97a99c09c1c50bcd5f80a360015f8051602061522883398151915255005b60405162461bcd60e51b815260048101839052600f60248201526e5072696f726974792077696e646f7760881b6044820152606490fd5b60405162461bcd60e51b815260048101839052600c60248201526b139bdd081c995cdbdb1d995960a21b6044820152606490fd5b34610e5a576020366003190112610e5a576122f23360043561489e565b5f526011602052602060405f2054604051908152f35b34610e5a576020366003190112610e5a576004355f818152600260205260409020600101546001600160a01b0390811615610e5a57600960205260405f2054163303610e5a57600260205261237560ff600460405f20015460901c16600381149081156123b657506147ab565b5f9081526008602052604090208054906001600160801b038216908115610e5a576001600160801b0319831690555f90819081908190335af161185061467d565b600491501483611f17565b34610e5a575f366003190112610e5a57602060405166038d7ea4c680008152f35b34610e5a576020366003190112610e5a576004355f81815260026020526040902060018101546001600160a01b03168015610e5a573303610e5a5760ff600461243c92015460901c16600381149081156123b657506147ab565b5f52600c60205260ff60405f205416610e5a57600460205260405f205460801c8015610e5a575f80808093600c60205260408220600160ff19825416179055335af161185061467d565b600319608036820112610e5a5761249b6143be565b6001600160401b03916044358310610e5a5760809060443536030112610e5a576124c36143f2565b906124cc614800565b6004355f90815260026020526040902060018101546001600160a01b031615610e5a576004015492600160ff8560901c1603610e5a578360101c164211610e5a57600160ff8216101580612c84575b15610e5a576103e8346001600160801b031610610e5a5761271090816001600160801b0361254a3482166145fa565b1604916001600160801b036125603482166145fa565b1604916125ab61257d846110c284346001600160801b0316614649565b936004355f52600460205261113360405f2091825460018060801b036111198760018060801b038416614792565b600e54906001600160801b03906125c490828416614792565b169060018060801b03191617600e556004355f52600360205260405f2090604051936125ef856144d6565b608036863782546001600160801b0381168652608081901c6020870152956003600882901c60ff1610612c7e5760018401546001600160801b03165b60408701526004600882901c60ff1610612c7857600184015460801c5b606087015261266260ff61265b85614ab4565b1687614aa3565b519687670de0b6b3a7640000810204670de0b6b3a764000014881517156115ff57670de0b6b3a76400008802945f5b60ff8460081c1660ff8216101561270a57878960ff6126af89614ab4565b1660ff8416036126c7575b505060010160ff16612691565b6001916116dc846126f96126ff9460ff6126e9849f6116c583809c1685614aa3565b95888060801b0316931690614aa3565b516145da565b9791505087896126ba565b50869185916001600160801b03612736670de0b6b3a76400008a046127318388168f6145da565b614ac6565b16956001600160801b03168610610e5a578515610e5a576128509360039260ff8516600103612aa6575081546001600160801b031981166001600160801b03918216838316018990038216178084556127989160809190911c8301168361454a565b8260ff8760081c161015612a7e575b600460ff8760081c161015612a5d575b60028201805490916001600160801b03906127d490828416614792565b6001600160801b031990921691161790550180546001600160801b036127fe348216838316614792565b6001600160801b031990921691161790556004355f90815260066020526040902080546001600160801b03612837348216838316614792565b6001600160801b0319909216911617905560043561482f565b5f90815260126020526040902080546001600160801b0361287385828416614792565b6001600160801b031990921691161790556128ad61289e612899366004604435016146f6565b61490e565b926128a884614a4b565b615127565b916128b783614a4b565b6128bf6150b5565b6128c881614a4b565b60015b60ff81169060ff8560081c168211612a22576128ea813360043561485d565b6040516128f6816144f1565b5f815260405193612906856144d6565b60038552606036602087013761291b856151ca565b526002612927856151d7565b52835160021015612a0e575f6060850152604051631888debd60e01b8152936020918591829161295b91906004840161505d565b03815f5f805160206151e88339815191525af1928315610e4f57849388915f916129d3575b5060ff946129b59261299561299a938a614eee565b614bcf565b6129a381614a4b565b825f52601060205260405f2054614f91565b905f52601060205260405f20551660ff81146115ff576001016128cb565b945050506020833d602011612a06575b816129f060209383614527565b81010312610e5a579151839290879060ff612980565b3d91506129e3565b634e487b7160e01b5f52603260045260245ffd5b336004357fec5205380e845af9d5882d14b944f8bae155a20d9206a436abf70a61108568df5f80a360015f8051602061522883398151915255005b612a796001830160018060801b0383825460801c01169061454a565b6127b7565b6001820180546001600160801b038082168401166001600160801b03199091161790556127a7565b60ff8516600203612b4b575081546001600160801b031981166001600160801b039182168301821617808455612aea9160809190911c83821601899003168361454a565b8260ff8760081c161015612b23575b600460ff8760081c16106127b757612a796001830160018060801b0383825460801c01169061454a565b6001820180546001600160801b038082168401166001600160801b0319909116179055612af9565b60ff85168403612bea575081546001600160801b031981166001600160801b039182168301821617808455612b899160809190911c8301168361454a565b6001820180546001600160801b03838116818316018a9003166001600160801b03199091161780825590600460ff60088a901c161015612bcb575b50506127b7565b612be39160801c83016001600160801b03169061454a565b8780612bc4565b6001600160801b031981166001600160801b039182168301821617808455612c1b9160809190911c8301168361454a565b8260ff8760081c161015612c50575b612a796001830160018060801b038960018060801b038516835460801c0103169061454a565b6001820180546001600160801b038082168401166001600160801b0319909116179055612c2a565b5f612648565b5f61262b565b5060ff8360081c1660ff8216111561251b565b34610e5a576040366003190112610e5a57600435612cb36143dc565b612cbb614800565b815f526020906002825260405f2060018060a01b0360018201541615610e5a5760ff60048092015460901c1603610e5a576001600160801b0390808216908115610e5a57612d09338661489e565b805f52600d855260ff60405f205416610e5a57855f5260038552600260405f200194855490612d48612d3d87841686614615565b9260801c8093614631565b92885f52600682528660405f20541693878116948511610e5a57612d77612d7187601496614649565b8a61454a565b88549888612d8783828d16614649565b1660018060801b0319809b16179055895f526006835260405f20908989612db2845493828516614649565b1691161790555f525260405f208054858116948510610e5a575f968796612ddc8897968897614649565b169116179055335af1612ded61467d565b5015610e5a5733907fb3a981a51a138d30ed018f025a13f99d6eac339dcc88dec2adeb4c191eadb1ed5f80a360015f8051602061522883398151915255005b34610e5a575f366003190112610e5a5760206040516103e88152f35b34610e5a576020366003190112610e5a576004355f81815260026020526040902060018101546001600160a01b031615610e5a576004810154612e9c60ff8260901c16600581149081156130e057506146ba565b825f52600560205260405f2091600583015460018060401b038116421115610e5a5760ff8160801c16610e5a5760901c60ff1615610e5a57600483015460036001600160801b0390911610610e5a57612ef58354614fa1565b612f056001869493940154614fa1565b939091156130d8576001600160801b0316925b156130d0576001600160801b0316935b5f945f600360ff8760081c1610156130a7575b600460ff8760081c161015918261307e575b6001600160801b03612f65836112468b81868c614792565b1615610e5a577f0eec3220d7d0587998474d45a1647927fdd5d83c8a8d0f5b45154fb19540828297602097600197926001600160801b0380851690821611613072575b50600360089190911c60ff1610158061305d575b613051575b508261303a575b5050613031575b80612fe084600561300f94016145b3565b6005818101805460ff60801b1916600160801b179055613008426001600160401b031661448f565b910161456d565b600401805460ff60901b1916600360911b17905560405160ff919091168152a2005b60049250612fcf565b6001600160801b0390811691161190508780612fc8565b60039650905089612fc1565b506001600160801b0382811690821611612fbc565b6002985092508b612fa8565b61308b6003850154614fa1565b613096575b50612f4d565b6001600160801b0316915089613090565b6130b46002840154614fa1565b6130bf575b50612f3b565b6001600160801b03169650886130b9565b505f93612f28565b505f92612f18565b600791501485610c21565b600319604036820112610e5a5760043590602435906001600160401b0390818311610e5a576080908336030112610e5a575f83815260026020526040902060018101546001600160a01b031615610e5a5760040161315b60ff825460901c166005811490811561370b57506146ba565b835f52600560205260405f2091806005840154164211610e5a5766038d7ea4c68000346001600160801b031610610e5a57613196338661489e565b5f818152600760205260409020600101549094906001600160801b0316610e5a576128996131c89136906004016146f6565b936131d285614a4b565b604051906060820192828410908411176136f75761323b9260405285825260016020830192818060801b033416845260408101925f84525f52600760205260405f2090518155019160018060801b0390511660018060801b031983541617825551151590614596565b60ff61324f346001600160801b0316615127565b9161325983614a4b565b5460081c16926132676150b5565b9361327185614a4b565b60405161327d816144f1565b5f81526040519061328d826144d6565b60038252606036602084013760016132a4836151ca565b5260026132b0836151d7565b52815160021015612a0e575f6060830152604051631888debd60e01b815291602091839182916132e491906004840161505d565b03815f5f805160206151e88339815191525af1908115610e4f57869185915f916136bd575b509161331c9161299561332c9487614eee565b61332581614a4b565b8554614f91565b845560405161333a816144f1565b5f81526040519061334a826144d6565b6003825260603660208401376002613361836151ca565b52600261336d836151d7565b52815160021015612a0e575f6060830152604051631888debd60e01b815291602091839182916133a191906004840161505d565b03815f5f805160206151e88339815191525af1908115610e4f578487915f93613685575b506129956133d39386614eee565b6133dc81614a4b565b6133eb60018601918254614f91565b9055600381101561357d575b6004111561347b575b5050600401805491506001600160801b038083169081146115ff576001600160801b031990921660019092016001600160801b03908116929092178082556134539261113391349091169060801c614792565b33907ff256f79267f8b24554957b1869434b0308258b011f7bebd8a5519a8ba62e10515f80a3005b60405190613488826144f1565b5f825260405191613498836144d6565b60038352606036602085013760046134af846151ca565b5260026134bb846151d7565b52825160021015612a0e575f6060840152604051631888debd60e01b815292602091849182916134ef91906004840161505d565b03815f5f805160206151e88339815191525af1918215610e4f575f92613543575b50916129956004959261352294614eee565b61352b81614a4b565b61353a60038301918254614f91565b90558380613400565b949150916020853d602011613575575b8161356060209383614527565b81010312610e5a579351909391612995613510565b3d9150613553565b6040519061358a826144f1565b5f82526040519161359a836144d6565b60038352606036602085013760036135b1846151ca565b5260026135bd846151d7565b52825160021015612a0e575f6060840152604051631888debd60e01b815292602091849182916135f191906004840161505d565b03815f5f805160206151e88339815191525af1918215610e4f57869285915f91613649575b50926136289161299560049587614eee565b61363181614a4b565b61364060028701918254614f91565b905590506133f7565b935050506020823d60201161367d575b8161366660209383614527565b81010312610e5a5790518591908490613628613616565b3d9150613659565b925050506020813d6020116136b5575b816136a260209383614527565b81010312610e5a575185846129956133c5565b3d9150613695565b925050506020813d6020116136ef575b816136da60209383614527565b81010312610e5a57518590849061331c613309565b3d91506136cd565b634e487b7160e01b5f52604160045260245ffd5b600791501486610c21565b6040366003190112610e5a5760043561372d6143be565b815f526020906002825260405f2060018060a01b0360018201541615610e5a57600401918254600660ff8260901c1603610e5a576005825260405f20936005850190815460018060401b0395868260401c164211610e5a5760ff1693600185101590816138b7575b5015610e5a5760881c60ff168314610e5a57600486016003815460801c029060018060801b038083169283036115ff573416918210610e5a575f89815260088752604080822080546001600160801b0319169094179093556009875282812080546001600160a01b03191633179055600a8752828120805460ff191687179055835460ff60901b19908116600760901b1790945584547fd8a95b382b85b954ed8355497403c1e4b82061ec736bdcfb48a875aae997e14799939891939161385d42821661448f565b600161ffff60801b0360018c1b0119909216911617855561387c6150b5565b81556138866150b5565b60018201556138936150b5565b600282015560036138a26150b5565b910155558154169055825191338352820152a2005b60ff915060081c1684111589613795565b60c0366003190112610e5a576138dc6143be565b6044359060ff82168203610e5a576064356001600160401b0381169003610e5a576084356001600160401b0381169003610e5a5760a435906001600160a01b0382168203610e5a57600260ff8416101580613dae575b15610e5a576127103410610e5a57426064356001600160401b03161115610e5a576001600160401b0360643581166084359091161115610e5a5760405160208101903360601b8252600435603482015260018060c01b03198060643560c01b16605483015260843560c01b16605c820152426064820152606481526139b6816144bb565b5190205f818152600260205260409020600101549092906001600160a01b0316610e5a57604051916001600160401b036101408401908111908411176136f75760ff91610140840160405284845233602085015260018060a01b03166040840152600435606084015216608082015260ff831660a082015260c081019060018060401b0360643516825260e0810160018060401b0360843516815261010082016001815261012083019160018060401b0342168352855f526002602052600460405f20855181556001810160018060a01b036020880151169060018060a01b03199182825416179055600282019060018060a01b036040890151169082541617905560608601516003820155019460ff60808601511661ff0060a0885497015160081b169162010000600160501b03905160101b1692600160501b600160901b03905160501b169360ff60901b905160901b1694600160981b600160d81b03905160981b1695600160981b600160d81b03199160ff60901b19169060018060981b031916171617171717179055613b5860ff831660018060801b033416614631565b600360ff841610613da857805b600460ff851610613da15781905b6040519260e084016001600160401b038111858210176136f75760409081526001600160801b0391821680865260208087019182529383168683015293821660608601523482166080860181905260a08601525f60c0860181905286815260039384905220845181546001600160801b0319169083161781559251919291613bfc91168261454a565b60408301516001820180546001600160801b0319166001600160801b039283161781556060850151613c2f92169061454a565b60808301516002820180546001600160801b0319166001600160801b0392831617815560a0850151613c6292169061454a565b60c090920151910180546001600160801b0319166001600160801b039290921691909117905560408051929083016001600160401b038111848210176136f75760409081525f80855260208581018281528583526004825292909120945185546001600160801b0319166001600160801b0391821617865591519094613cec92919091169061454a565b6006835260405f2080546001600160801b031916346001600160801b0316179055613d17338361489e565b5f818152601185526040902054613d3890346001600160801b0316906148cb565b905f526011845260405f2055613d4f6001546146ac565b60015560ff604051916004358352168382015260018060401b03606435166040820152817f496672ee0fba5b2363cb91dfafa003bc43723be84cc68714fdbb7e0628aa3ac260603393a3604051908152f35b5f90613b73565b5f613b65565b50600460ff84161115613932565b34610e5a576020366003190112610e5a576004355f526014602052602060018060801b0360405f205416604051908152f35b34610e5a57613dfc36614408565b613e04614800565b5f83815260026020908152604090912060018101546001600160a01b031615610e5a5760040154600460ff8260901c1603610e5a5760ff841660018110159182613ef1575b505015610e5a576001600160801b0391808316918215610e5a576003815260405f2090613e76868861482f565b91825f52601282528560405f2054168015610e5a57611963876002613e9e9401541686614615565b90875f526006815260405f20928354978789169188851695838711610e5a578961199d601397613ecd96614649565b5f525260405f208054858116948510610e5a575f968796612ddc8897968897614649565b60081c60ff16101590508580613e49565b34610e5a576020366003190112610e5a575f805f915f6004355f52600360205260405f2091600260205260405f2083549060018060801b0394858316801580155f14614138576140e8576a0c097ce7bc90715b34b9f160241b04925b60801c80158061412b576140e8576a0c097ce7bc90715b34b9f160241b049160ff906004905b015460081c1660038110159182809361411c575b15614113578760018201541680156140e8576a0c097ce7bc90715b34b9f160241b04916004905b1015908180614103575b156140fc576001015460801c80156140e8576a0c097ce7bc90715b34b9f160241b045b613ffe8161177d8561177d898b6145da565b928361402b575b5060808a8a8a818f818d8160405197168752166020860152166040840152166060820152f35b9397509398509398509350670de0b6b3a764000097888102908082048a14901517156115ff5761405c8588926145d0565b1696888102908082048a14901517156115ff5761407a8588926145d0565b1694156140e157878102908082048914901517156115ff5761409d8487926145d0565b165b91156140d2578681029681880414901517156115ff5783806140c481946080996145d0565b165b93928297898080614005565b5060809550838092505f6140c6565b505f61409f565b634e487b7160e01b5f52601260045260245ffd5b505f613fec565b50600181015460801c1515613fc9565b60045f92613fbf565b50876001820154161515613f98565b505060ff60045f93613f84565b50505f92613f5e565b34610e5a576020366003190112610e5a576004355f81815260026020526040902060018101546001600160a01b031615610e5a576004018054600160ff8260901c1603610e5a576001600160401b0391601082901c8316421115610e5a5760ff60901b19918216600560901b1790556141b86150b5565b6141c06150b5565b6141c86150b5565b6141d06150b5565b946141dc81421661448f565b95604051610160810190808210848311176136f757899684926040528152602081019586526040810194855260608101928352608081015f815260a08201905f82528360c084019b168b5260e08301945f86526101008401975f89526101208501995f8b5261014086019b5f8d525f52600560205260405f20955186555160018601555160028501555160038401556004830191600160801b6001900380925116600160801b600190031984541617835551166142989161454a565b600501975116600160401b600190031988541617875551166142ba908661456d565b5115156142c79085614596565b5160ff166142d590846145b3565b51825490911690151560901b60ff60901b161790557f685acf17bc506d0cfe7016cdc38205cbb6f983cc284d783ec999a280bb5825195f80a2005b34610e5a576020366003190112610e5a576004355f81815260026020526040902060018101549192916001600160a01b031615610e5a57600401805491600660ff8460901c1603610e5a576005602052600560405f20019260018060401b03845460401c16421115610e5a5760ff60901b1916600360901b17909155905460881c60ff1681527f792b55102c78d70a54105158e6e4807fb2dc4c0f6076c5d2bc6fe70fd1c0667490602090a2005b6024359060ff82168203610e5a57565b359060ff82168203610e5a57565b602435906001600160801b0382168203610e5a57565b606435906001600160801b0382168203610e5a57565b6060906003190112610e5a576004359060243560ff81168103610e5a57906044356001600160801b0381168103610e5a5790565b34610e5a575f366003190112610e5a57602060405161a8c08152f35b34610e5a575f366003190112610e5a5760206040516127108152f35b34610e5a575f366003190112610e5a57602060405160328152f35b6001600160401b0390811661a8c001919082116115ff57565b6001600160401b0381116136f757604052565b60a081019081106001600160401b038211176136f757604052565b608081019081106001600160401b038211176136f757604052565b602081019081106001600160401b038211176136f757604052565b606081019081106001600160401b038211176136f757604052565b601f909101601f19168101906001600160401b038211908210176136f757604052565b80546001600160801b031660809290921b6001600160801b031916919091179055565b8054600160401b600160801b03191660409290921b600160401b600160801b0316919091179055565b805460ff60801b191691151560801b60ff60801b16919091179055565b805460ff60881b191660889290921b60ff60881b16919091179055565b81156140e8570490565b919082018092116115ff57565b818102929181159184041417156115ff57565b6001600160801b03908116603202908116919082036115ff57565b6001600160801b0391821690821602908116919082036115ff57565b6001600160801b03918216919082156140e857160490565b6001600160801b0391821690821603919082116115ff57565b6001600160401b0381116136f757601f01601f191660200190565b3d156146a7573d9061468e82614662565b9161469c6040519384614527565b82523d5f602084013e565b606090565b5f1981146115ff5760010190565b156146c157565b60405162461bcd60e51b815260206004820152600d60248201526c4e6f7420696e20766f74696e6760981b6044820152606490fd5b9190608083820312610e5a576040519261470f846144d6565b83813581526020916147228382016143ce565b83830152614732604082016143ce565b60408301526060810135906001600160401b038211610e5a570183601f82011215610e5a5780359261476384614662565b946147716040519687614527565b848652818584010111610e5a5783606094825f940183880137850101520152565b6001600160801b0391821690821601919082116115ff57565b156147b257565b60405162461bcd60e51b815260206004820152600d60248201526c139bdd08199a5b985b1a5e9959609a1b6044820152606490fd5b9081526001600160a01b03909116602082015260400190565b5f80516020615228833981519152600281541461481d5760029055565b604051633ee5aeb560e01b8152600490fd5b90604051906020820192835260ff60f81b9060f81b166040820152602181526148578161450c565b51902090565b604080516020810192835260609390931b6001600160601b0319169083015260f89290921b6001600160f81b0319166054820152603581526148578161450c565b604080516020810192835260609390931b6001600160601b0319169083015260348252906148578161450c565b906148de906001600160801b0316615127565b90801561490457906148ef91614e4b565b6148f881614a4b565b61490181614e0f565b90565b506148f881614a4b565b60409060ff828201511660028103614a2d5750606060ff91835190614932826144d6565b5f825282602093835f86809601525f88820152015260e48151836060878286015116940151885192614963846144d6565b83528183019485528789840160028152606085019283528a51998a9788966313fce3b160e11b88528d6004890152516044880152511660648601525116608484015251608060a484015280519182918260c4860152018484015e5f838284010152336024830152601f801991011681010301815f5f805160206151e88339815191525af1928315614a2457505f926149fa57505090565b90809250813d8311614a1d575b614a118183614527565b81010312610e5a575190565b503d614a07565b513d5f823e3d90fd5b6044908351906367cf307160e01b8252600482015260026024820152fd5b5f805160206151e8833981519152803b15610e5a57604051631974142760e21b8152915f918391829084908290614a87903090600484016147e7565b03925af18015610e4f57614a985750565b614aa1906144a8565b565b906004811015612a0e5760051b0190565b60ff5f199116019060ff82116115ff57565b919082039182116115ff57565b908115614bbf575b8015614bb1575b60405191614aef8361450c565b600283526040366020850137614b04836151ca565b52614b0e826151d7565b526020614b5860405192614b21846144f1565b5f8452614b6a6040519485938493631888debd60e01b8552600660048601526012602486015260806044860152608485019061502a565b8381036003190160648501529061502a565b03815f5f805160206151e88339815191525af1908115610e4f575f91614b8e575090565b90506020813d602011614ba9575b81614a1160209383614527565b3d9150614b9c565b50614bba6150b5565b614ae2565b9050614bc96150b5565b90614adb565b91908215614c89575b8015614c7b575b8115614c6b575b60405192614bf3846144d6565b600384526060366020860137614c08846151ca565b52614c12836151d7565b52815160021015612a0e5760608201526020614b5860405192614c34846144f1565b5f8452614b6a6040519485938493631888debd60e01b8552600660048601526004602486015260806044860152608485019061502a565b9050614c756150b5565b90614be6565b50614c846150b5565b614bdf565b9150604051614c97816144f1565b5f815260405190614ca7826144d6565b6003825260603660208401375f614cbd836151ca565b525f614cc8836151d7565b52815160021015612a0e57614b586020915f6060850152614d126040519485938493631888debd60e01b85525f6004860152601a602486015260806044860152608485019061502a565b03815f5f805160206151e88339815191525af1908115610e4f575f91614d3a575b5091614bd8565b90506020813d602011614d64575b81614d5560209383614527565b81010312610e5a57515f614d33565b3d9150614d48565b908115614dff575b8015614df1575b60405191614d888361450c565b600283526040366020850137614d9d836151ca565b52614da7826151d7565b526020614b5860405192614dba846144f1565b5f8452614b6a6040519485938493631888debd60e01b8552600660048601526007602486015260806044860152608485019061502a565b50614dfa6150b5565b614d7b565b9050614e096150b5565b90614d74565b5f805160206151e8833981519152803b15610e5a57604051631974142760e21b8152915f918391829084908290614a87903390600484016147e7565b908115614ede575b8015614ed0575b60405191614e678361450c565b600283526040366020850137614e7c836151ca565b52614e86826151d7565b526020614b5860405192614e99846144f1565b5f8452614b6a6040519485938493631888debd60e01b8552600660048601526008602486015260806044860152608485019061502a565b50614ed96150b5565b614e5a565b9050614ee86150b5565b90614e53565b908115614f81575b8015614f73575b60405191614f0a8361450c565b600283526040366020850137614f1f836151ca565b52614f29826151d7565b526020614b5860405192614f3c846144f1565b5f8452614b6a6040519485938493631888debd60e01b8552600260048601526018602486015260806044860152608485019061502a565b50614f7c615158565b614efd565b9050614f8b615158565b90614ef6565b801561490457906148ef91614e4b565b90604080519263458693c960e01b8452600484015280836024815f805160206151e88339815191525afa928315615020575f915f94614fe1575b50509190565b8194508092503d8311615019575b614ff98183614527565b81010312610e5a5760208251920151918215158303610e5a575f80614fdb565b503d614fef565b50513d5f823e3d90fd5b9081518082526020808093019301915f5b828110615049575050505090565b83518552938101939281019260010161503b565b90916150826149019360028452601a602085015260806040850152608084019061502a565b91606081840391015261502a565b90916150826149019360068452601a602085015260806040850152608084019061502a565b6040516150c1816144f1565b5f8152604051906150d1826144d6565b6003825260603660208401375f6150e7836151ca565b5260066150f3836151d7565b52815160021015612a0e575f6060830152604051631888debd60e01b81529160209183918291614b6a919060048401615090565b604051615133816144f1565b5f815260405191615143836144d6565b6003835260603660208501376150e7836151ca565b604051615164816144f1565b5f815260405190615174826144d6565b6003825260603660208401375f61518a836151ca565b526002615196836151d7565b52815160021015612a0e575f6060830152604051631888debd60e01b81529160209183918291614b6a91906004840161505d565b805115612a0e5760200190565b805160011015612a0e576040019056fe000000000000000000000000ea30c4b8b44078bbf8a6ef5b9f1ec1626c7848d96da0e4bc5a9d31d638134dd7b03484ea40e7d453a35a29c0fdd72cd319d0fe5b9b779b17422d0df92223018b32b4d1fa46e071723d6817e2486d003becc55f00a26469706673582212200fb99e0acab720049ad85c830a4ec539ed9efc4533115891d3fb80805675b24b64736f6c63430008190033",
  "linkReferences": {},
  "deployedLinkReferences": {}
}