{
  "_format": "hh-sol-artifact-1",
  "contractName": "FhenixMarkets",
  "sourceName": "contracts/FhenixMarkets.sol",
  "abi": [
    {
      "inputs": [],
      "stateMutability": "nonpayable",
      "type": "constructor"
    },
    {
      "inputs": [
        {
          "internalType": "int32",
          "name": "value",
          "type": "int32"
        }
      ],
      "name": "SecurityZoneOutOfBounds",
      "type": "error"
    },
    {
      "anonymous": false,
      "inputs": [
        {
          "indexed": true,
          "internalType": "bytes32",
          "name": "marketId",
          "type": "bytes32"
        },
        {
          "indexed": true,
          "internalType": "address",
          "name": "provider",
          "type": "address"
        }
      ],
      "name": "LiquidityAdded",
      "type": "event"
    },
    {
      "anonymous": false,
      "inputs": [
        {
          "indexed": true,
          "internalType": "bytes32",
          "name": "marketId",
          "type": "bytes32"
        },
        {
          "indexed": true,
          "internalType": "address",
          "name": "provider",
          "type": "address"
        }
      ],
      "name": "LiquidityWithdrawn",
      "type": "event"
    },
    {
      "anonymous": false,
      "inputs": [
        {
          "indexed": true,
          "internalType": "bytes32",
          "name": "marketId",
          "type": "bytes32"
        }
      ],
      "name": "MarketCancelled",
      "type": "event"
    },
    {
      "anonymous": false,
      "inputs": [
        {
          "indexed": true,
          "internalType": "bytes32",
          "name": "marketId",
          "type": "bytes32"
        }
      ],
      "name": "MarketClosed",
      "type": "event"
    },
    {
      "anonymous": false,
      "inputs": [
        {
          "indexed": true,
          "internalType": "bytes32",
          "name": "marketId",
          "type": "bytes32"
        },
        {
          "indexed": true,
          "internalType": "address",
          "name": "creator",
          "type": "address"
        },
        {
          "indexed": false,
          "internalType": "bytes32",
          "name": "questionHash",
          "type": "bytes32"
        },
        {
          "indexed": false,
          "internalType": "uint8",
          "name": "numOutcomes",
          "type": "uint8"
        },
        {
          "indexed": false,
          "internalType": "uint64",
          "name": "deadline",
          "type": "uint64"
        },
        {
          "indexed": false,
          "internalType": "uint128",
          "name": "initialLiquidity",
          "type": "uint128"
        }
      ],
      "name": "MarketCreated",
      "type": "event"
    },
    {
      "anonymous": false,
      "inputs": [
        {
          "indexed": false,
          "internalType": "address",
          "name": "signer1",
          "type": "address"
        },
        {
          "indexed": false,
          "internalType": "address",
          "name": "signer2",
          "type": "address"
        },
        {
          "indexed": false,
          "internalType": "address",
          "name": "signer3",
          "type": "address"
        },
        {
          "indexed": false,
          "internalType": "uint8",
          "name": "threshold",
          "type": "uint8"
        }
      ],
      "name": "MultisigInitialized",
      "type": "event"
    },
    {
      "anonymous": false,
      "inputs": [
        {
          "indexed": true,
          "internalType": "bytes32",
          "name": "marketId",
          "type": "bytes32"
        },
        {
          "indexed": true,
          "internalType": "address",
          "name": "claimer",
          "type": "address"
        }
      ],
      "name": "RefundClaimed",
      "type": "event"
    },
    {
      "anonymous": false,
      "inputs": [
        {
          "indexed": true,
          "internalType": "bytes32",
          "name": "marketId",
          "type": "bytes32"
        },
        {
          "indexed": false,
          "internalType": "uint8",
          "name": "winningOutcome",
          "type": "uint8"
        }
      ],
      "name": "ResolutionConfirmed",
      "type": "event"
    },
    {
      "anonymous": false,
      "inputs": [
        {
          "indexed": true,
          "internalType": "bytes32",
          "name": "marketId",
          "type": "bytes32"
        },
        {
          "indexed": false,
          "internalType": "address",
          "name": "disputer",
          "type": "address"
        },
        {
          "indexed": false,
          "internalType": "uint8",
          "name": "proposedOutcome",
          "type": "uint8"
        }
      ],
      "name": "ResolutionDisputed",
      "type": "event"
    },
    {
      "anonymous": false,
      "inputs": [
        {
          "indexed": true,
          "internalType": "bytes32",
          "name": "marketId",
          "type": "bytes32"
        },
        {
          "indexed": true,
          "internalType": "address",
          "name": "buyer",
          "type": "address"
        }
      ],
      "name": "SharesBought",
      "type": "event"
    },
    {
      "anonymous": false,
      "inputs": [
        {
          "indexed": true,
          "internalType": "bytes32",
          "name": "marketId",
          "type": "bytes32"
        },
        {
          "indexed": true,
          "internalType": "address",
          "name": "redeemer",
          "type": "address"
        }
      ],
      "name": "SharesRedeemed",
      "type": "event"
    },
    {
      "anonymous": false,
      "inputs": [
        {
          "indexed": true,
          "internalType": "bytes32",
          "name": "marketId",
          "type": "bytes32"
        },
        {
          "indexed": true,
          "internalType": "address",
          "name": "seller",
          "type": "address"
        }
      ],
      "name": "SharesSold",
      "type": "event"
    },
    {
      "anonymous": false,
      "inputs": [
        {
          "indexed": true,
          "internalType": "bytes32",
          "name": "proposalId",
          "type": "bytes32"
        },
        {
          "indexed": false,
          "internalType": "address",
          "name": "signer",
          "type": "address"
        }
      ],
      "name": "TreasuryProposalApproved",
      "type": "event"
    },
    {
      "anonymous": false,
      "inputs": [
        {
          "indexed": true,
          "internalType": "bytes32",
          "name": "proposalId",
          "type": "bytes32"
        },
        {
          "indexed": false,
          "internalType": "address",
          "name": "recipient",
          "type": "address"
        },
        {
          "indexed": false,
          "internalType": "uint128",
          "name": "amount",
          "type": "uint128"
        }
      ],
      "name": "TreasuryProposalCreated",
      "type": "event"
    },
    {
      "anonymous": false,
      "inputs": [
        {
          "indexed": true,
          "internalType": "bytes32",
          "name": "proposalId",
          "type": "bytes32"
        },
        {
          "indexed": false,
          "internalType": "address",
          "name": "recipient",
          "type": "address"
        },
        {
          "indexed": false,
          "internalType": "uint128",
          "name": "amount",
          "type": "uint128"
        }
      ],
      "name": "TreasuryProposalExecuted",
      "type": "event"
    },
    {
      "anonymous": false,
      "inputs": [
        {
          "indexed": true,
          "internalType": "bytes32",
          "name": "marketId",
          "type": "bytes32"
        },
        {
          "indexed": true,
          "internalType": "address",
          "name": "voter",
          "type": "address"
        },
        {
          "indexed": false,
          "internalType": "uint128",
          "name": "bondAmount",
          "type": "uint128"
        }
      ],
      "name": "VoteSubmitted",
      "type": "event"
    },
    {
      "anonymous": false,
      "inputs": [
        {
          "indexed": true,
          "internalType": "bytes32",
          "name": "marketId",
          "type": "bytes32"
        },
        {
          "indexed": false,
          "internalType": "uint8",
          "name": "winningOutcome",
          "type": "uint8"
        }
      ],
      "name": "VotesFinalized",
      "type": "event"
    },
    {
      "inputs": [],
      "name": "CREATOR_FEE_BPS",
      "outputs": [
        {
          "internalType": "uint128",
          "name": "",
          "type": "uint128"
        }
      ],
      "stateMutability": "view",
      "type": "function"
    },
    {
      "inputs": [],
      "name": "DISPUTE_BOND_MULTIPLIER",
      "outputs": [
        {
          "internalType": "uint128",
          "name": "",
          "type": "uint128"
        }
      ],
      "stateMutability": "view",
      "type": "function"
    },
    {
      "inputs": [],
      "name": "DISPUTE_WINDOW",
      "outputs": [
        {
          "internalType": "uint64",
          "name": "",
          "type": "uint64"
        }
      ],
      "stateMutability": "view",
      "type": "function"
    },
    {
      "inputs": [],
      "name": "FEE_DENOMINATOR",
      "outputs": [
        {
          "internalType": "uint128",
          "name": "",
          "type": "uint128"
        }
      ],
      "stateMutability": "view",
      "type": "function"
    },
    {
      "inputs": [],
      "name": "LP_FEE_BPS",
      "outputs": [
        {
          "internalType": "uint128",
          "name": "",
          "type": "uint128"
        }
      ],
      "stateMutability": "view",
      "type": "function"
    },
    {
      "inputs": [],
      "name": "MARKET_STATUS_ACTIVE",
      "outputs": [
        {
          "internalType": "uint8",
          "name": "",
          "type": "uint8"
        }
      ],
      "stateMutability": "view",
      "type": "function"
    },
    {
      "inputs": [],
      "name": "MARKET_STATUS_CANCELLED",
      "outputs": [
        {
          "internalType": "uint8",
          "name": "",
          "type": "uint8"
        }
      ],
      "stateMutability": "view",
      "type": "function"
    },
    {
      "inputs": [],
      "name": "MARKET_STATUS_CLOSED",
      "outputs": [
        {
          "internalType": "uint8",
          "name": "",
          "type": "uint8"
        }
      ],
      "stateMutability": "view",
      "type": "function"
    },
    {
      "inputs": [],
      "name": "MARKET_STATUS_RESOLVED",
      "outputs": [
        {
          "internalType": "uint8",
          "name": "",
          "type": "uint8"
        }
      ],
      "stateMutability": "view",
      "type": "function"
    },
    {
      "inputs": [],
      "name": "MIN_LIQUIDITY",
      "outputs": [
        {
          "internalType": "uint128",
          "name": "",
          "type": "uint128"
        }
      ],
      "stateMutability": "view",
      "type": "function"
    },
    {
      "inputs": [],
      "name": "MIN_TRADE_AMOUNT",
      "outputs": [
        {
          "internalType": "uint128",
          "name": "",
          "type": "uint128"
        }
      ],
      "stateMutability": "view",
      "type": "function"
    },
    {
      "inputs": [],
      "name": "MIN_VOTERS",
      "outputs": [
        {
          "internalType": "uint8",
          "name": "",
          "type": "uint8"
        }
      ],
      "stateMutability": "view",
      "type": "function"
    },
    {
      "inputs": [],
      "name": "MIN_VOTE_BOND",
      "outputs": [
        {
          "internalType": "uint128",
          "name": "",
          "type": "uint128"
        }
      ],
      "stateMutability": "view",
      "type": "function"
    },
    {
      "inputs": [],
      "name": "PROTOCOL_FEE_BPS",
      "outputs": [
        {
          "internalType": "uint128",
          "name": "",
          "type": "uint128"
        }
      ],
      "stateMutability": "view",
      "type": "function"
    },
    {
      "inputs": [],
      "name": "STATUS_DISPUTED",
      "outputs": [
        {
          "internalType": "uint8",
          "name": "",
          "type": "uint8"
        }
      ],
      "stateMutability": "view",
      "type": "function"
    },
    {
      "inputs": [],
      "name": "STATUS_PENDING_FINALIZATION",
      "outputs": [
        {
          "internalType": "uint8",
          "name": "",
          "type": "uint8"
        }
      ],
      "stateMutability": "view",
      "type": "function"
    },
    {
      "inputs": [],
      "name": "STATUS_PENDING_RESOLUTION",
      "outputs": [
        {
          "internalType": "uint8",
          "name": "",
          "type": "uint8"
        }
      ],
      "stateMutability": "view",
      "type": "function"
    },
    {
      "inputs": [],
      "name": "VOTER_REWARD_PERCENT",
      "outputs": [
        {
          "internalType": "uint128",
          "name": "",
          "type": "uint128"
        }
      ],
      "stateMutability": "view",
      "type": "function"
    },
    {
      "inputs": [],
      "name": "VOTE_WINDOW",
      "outputs": [
        {
          "internalType": "uint64",
          "name": "",
          "type": "uint64"
        }
      ],
      "stateMutability": "view",
      "type": "function"
    },
    {
      "inputs": [],
      "name": "WINNER_CLAIM_PRIORITY",
      "outputs": [
        {
          "internalType": "uint64",
          "name": "",
          "type": "uint64"
        }
      ],
      "stateMutability": "view",
      "type": "function"
    },
    {
      "inputs": [
        {
          "internalType": "bytes32",
          "name": "marketId",
          "type": "bytes32"
        }
      ],
      "name": "addLiquidity",
      "outputs": [],
      "stateMutability": "payable",
      "type": "function"
    },
    {
      "inputs": [
        {
          "internalType": "bytes32",
          "name": "",
          "type": "bytes32"
        }
      ],
      "name": "ammPools",
      "outputs": [
        {
          "internalType": "uint128",
          "name": "reserve1",
          "type": "uint128"
        },
        {
          "internalType": "uint128",
          "name": "reserve2",
          "type": "uint128"
        },
        {
          "internalType": "uint128",
          "name": "reserve3",
          "type": "uint128"
        },
        {
          "internalType": "uint128",
          "name": "reserve4",
          "type": "uint128"
        },
        {
          "internalType": "uint128",
          "name": "totalLiquidity",
          "type": "uint128"
        },
        {
          "internalType": "uint128",
          "name": "totalLPShares",
          "type": "uint128"
        },
        {
          "internalType": "uint128",
          "name": "totalVolume",
          "type": "uint128"
        }
      ],
      "stateMutability": "view",
      "type": "function"
    },
    {
      "inputs": [
        {
          "internalType": "bytes32",
          "name": "proposalId",
          "type": "bytes32"
        }
      ],
      "name": "approveTreasuryProposal",
      "outputs": [],
      "stateMutability": "nonpayable",
      "type": "function"
    },
    {
      "inputs": [
        {
          "internalType": "bytes32",
          "name": "marketId",
          "type": "bytes32"
        },
        {
          "internalType": "uint8",
          "name": "outcome",
          "type": "uint8"
        },
        {
          "internalType": "uint128",
          "name": "minSharesOut",
          "type": "uint128"
        }
      ],
      "name": "buyShares",
      "outputs": [],
      "stateMutability": "payable",
      "type": "function"
    },
    {
      "inputs": [
        {
          "internalType": "bytes32",
          "name": "marketId",
          "type": "bytes32"
        }
      ],
      "name": "cancelMarket",
      "outputs": [],
      "stateMutability": "nonpayable",
      "type": "function"
    },
    {
      "inputs": [
        {
          "internalType": "bytes32",
          "name": "marketId",
          "type": "bytes32"
        }
      ],
      "name": "claimDisputeBond",
      "outputs": [],
      "stateMutability": "nonpayable",
      "type": "function"
    },
    {
      "inputs": [
        {
          "internalType": "bytes32",
          "name": "marketId",
          "type": "bytes32"
        },
        {
          "internalType": "uint128",
          "name": "lpSharesToRefund",
          "type": "uint128"
        }
      ],
      "name": "claimLPRefund",
      "outputs": [],
      "stateMutability": "nonpayable",
      "type": "function"
    },
    {
      "inputs": [
        {
          "internalType": "bytes32",
          "name": "marketId",
          "type": "bytes32"
        },
        {
          "internalType": "uint8",
          "name": "outcome",
          "type": "uint8"
        },
        {
          "internalType": "uint128",
          "name": "sharesToRefund",
          "type": "uint128"
        }
      ],
      "name": "claimRefund",
      "outputs": [],
      "stateMutability": "nonpayable",
      "type": "function"
    },
    {
      "inputs": [
        {
          "internalType": "bytes32",
          "name": "marketId",
          "type": "bytes32"
        }
      ],
      "name": "claimVoterBond",
      "outputs": [],
      "stateMutability": "nonpayable",
      "type": "function"
    },
    {
      "inputs": [],
      "name": "claimVoterReward",
      "outputs": [],
      "stateMutability": "nonpayable",
      "type": "function"
    },
    {
      "inputs": [
        {
          "internalType": "bytes32",
          "name": "marketId",
          "type": "bytes32"
        }
      ],
      "name": "closeMarket",
      "outputs": [],
      "stateMutability": "nonpayable",
      "type": "function"
    },
    {
      "inputs": [
        {
          "internalType": "bytes32",
          "name": "marketId",
          "type": "bytes32"
        }
      ],
      "name": "confirmResolution",
      "outputs": [],
      "stateMutability": "nonpayable",
      "type": "function"
    },
    {
      "inputs": [
        {
          "internalType": "bytes32",
          "name": "questionHash",
          "type": "bytes32"
        },
        {
          "internalType": "uint8",
          "name": "category",
          "type": "uint8"
        },
        {
          "internalType": "uint8",
          "name": "numOutcomes",
          "type": "uint8"
        },
        {
          "internalType": "uint64",
          "name": "deadline",
          "type": "uint64"
        },
        {
          "internalType": "uint64",
          "name": "resolutionDeadline",
          "type": "uint64"
        },
        {
          "internalType": "address",
          "name": "resolver",
          "type": "address"
        }
      ],
      "name": "createMarket",
      "outputs": [
        {
          "internalType": "bytes32",
          "name": "",
          "type": "bytes32"
        }
      ],
      "stateMutability": "payable",
      "type": "function"
    },
    {
      "inputs": [
        {
          "internalType": "bytes32",
          "name": "",
          "type": "bytes32"
        }
      ],
      "name": "creatorFeesClaimed",
      "outputs": [
        {
          "internalType": "bool",
          "name": "",
          "type": "bool"
        }
      ],
      "stateMutability": "view",
      "type": "function"
    },
    {
      "inputs": [],
      "name": "deployer",
      "outputs": [
        {
          "internalType": "address",
          "name": "",
          "type": "address"
        }
      ],
      "stateMutability": "view",
      "type": "function"
    },
    {
      "inputs": [
        {
          "internalType": "bytes32",
          "name": "",
          "type": "bytes32"
        }
      ],
      "name": "disputeBonds",
      "outputs": [
        {
          "internalType": "uint128",
          "name": "",
          "type": "uint128"
        }
      ],
      "stateMutability": "view",
      "type": "function"
    },
    {
      "inputs": [
        {
          "internalType": "bytes32",
          "name": "",
          "type": "bytes32"
        }
      ],
      "name": "disputeOutcomes",
      "outputs": [
        {
          "internalType": "uint8",
          "name": "",
          "type": "uint8"
        }
      ],
      "stateMutability": "view",
      "type": "function"
    },
    {
      "inputs": [
        {
          "internalType": "bytes32",
          "name": "marketId",
          "type": "bytes32"
        },
        {
          "internalType": "uint8",
          "name": "proposedOutcome",
          "type": "uint8"
        }
      ],
      "name": "disputeResolution",
      "outputs": [],
      "stateMutability": "payable",
      "type": "function"
    },
    {
      "inputs": [
        {
          "internalType": "bytes32",
          "name": "",
          "type": "bytes32"
        }
      ],
      "name": "disputers",
      "outputs": [
        {
          "internalType": "address",
          "name": "",
          "type": "address"
        }
      ],
      "stateMutability": "view",
      "type": "function"
    },
    {
      "inputs": [
        {
          "internalType": "bytes32",
          "name": "proposalId",
          "type": "bytes32"
        }
      ],
      "name": "executeTreasuryProposal",
      "outputs": [],
      "stateMutability": "nonpayable",
      "type": "function"
    },
    {
      "inputs": [
        {
          "internalType": "bytes32",
          "name": "marketId",
          "type": "bytes32"
        }
      ],
      "name": "finalizeVotes",
      "outputs": [],
      "stateMutability": "nonpayable",
      "type": "function"
    },
    {
      "inputs": [
        {
          "internalType": "bytes32",
          "name": "marketId",
          "type": "bytes32"
        }
      ],
      "name": "getMarket",
      "outputs": [
        {
          "components": [
            {
              "internalType": "bytes32",
              "name": "id",
              "type": "bytes32"
            },
            {
              "internalType": "address",
              "name": "creator",
              "type": "address"
            },
            {
              "internalType": "address",
              "name": "resolver",
              "type": "address"
            },
            {
              "internalType": "bytes32",
              "name": "questionHash",
              "type": "bytes32"
            },
            {
              "internalType": "uint8",
              "name": "category",
              "type": "uint8"
            },
            {
              "internalType": "uint8",
              "name": "numOutcomes",
              "type": "uint8"
            },
            {
              "internalType": "uint64",
              "name": "deadline",
              "type": "uint64"
            },
            {
              "internalType": "uint64",
              "name": "resolutionDeadline",
              "type": "uint64"
            },
            {
              "internalType": "uint8",
              "name": "status",
              "type": "uint8"
            },
            {
              "internalType": "uint64",
              "name": "createdAt",
              "type": "uint64"
            }
          ],
          "internalType": "struct FhenixMarkets.Market",
          "name": "",
          "type": "tuple"
        }
      ],
      "stateMutability": "view",
      "type": "function"
    },
    {
      "inputs": [
        {
          "internalType": "bytes32",
          "name": "marketId",
          "type": "bytes32"
        }
      ],
      "name": "getPool",
      "outputs": [
        {
          "components": [
            {
              "internalType": "uint128",
              "name": "reserve1",
              "type": "uint128"
            },
            {
              "internalType": "uint128",
              "name": "reserve2",
              "type": "uint128"
            },
            {
              "internalType": "uint128",
              "name": "reserve3",
              "type": "uint128"
            },
            {
              "internalType": "uint128",
              "name": "reserve4",
              "type": "uint128"
            },
            {
              "internalType": "uint128",
              "name": "totalLiquidity",
              "type": "uint128"
            },
            {
              "internalType": "uint128",
              "name": "totalLPShares",
              "type": "uint128"
            },
            {
              "internalType": "uint128",
              "name": "totalVolume",
              "type": "uint128"
            }
          ],
          "internalType": "struct FhenixMarkets.AMMPool",
          "name": "",
          "type": "tuple"
        }
      ],
      "stateMutability": "view",
      "type": "function"
    },
    {
      "inputs": [
        {
          "internalType": "bytes32",
          "name": "marketId",
          "type": "bytes32"
        }
      ],
      "name": "getPrices",
      "outputs": [
        {
          "internalType": "uint128",
          "name": "price1",
          "type": "uint128"
        },
        {
          "internalType": "uint128",
          "name": "price2",
          "type": "uint128"
        },
        {
          "internalType": "uint128",
          "name": "price3",
          "type": "uint128"
        },
        {
          "internalType": "uint128",
          "name": "price4",
          "type": "uint128"
        }
      ],
      "stateMutability": "view",
      "type": "function"
    },
    {
      "inputs": [
        {
          "internalType": "bytes32",
          "name": "marketId",
          "type": "bytes32"
        }
      ],
      "name": "getVoteTally",
      "outputs": [
        {
          "components": [
            {
              "internalType": "uint128",
              "name": "outcome1Bonds",
              "type": "uint128"
            },
            {
              "internalType": "uint128",
              "name": "outcome2Bonds",
              "type": "uint128"
            },
            {
              "internalType": "uint128",
              "name": "outcome3Bonds",
              "type": "uint128"
            },
            {
              "internalType": "uint128",
              "name": "outcome4Bonds",
              "type": "uint128"
            },
            {
              "internalType": "uint8",
              "name": "totalVoters",
              "type": "uint8"
            },
            {
              "internalType": "uint128",
              "name": "totalBonded",
              "type": "uint128"
            },
            {
              "internalType": "uint64",
              "name": "votingDeadline",
              "type": "uint64"
            },
            {
              "internalType": "uint64",
              "name": "disputeDeadline",
              "type": "uint64"
            },
            {
              "internalType": "bool",
              "name": "finalized",
              "type": "bool"
            },
            {
              "internalType": "uint8",
              "name": "winningOutcome",
              "type": "uint8"
            }
          ],
          "internalType": "struct FhenixMarkets.VoteTally",
          "name": "",
          "type": "tuple"
        }
      ],
      "stateMutability": "view",
      "type": "function"
    },
    {
      "inputs": [
        {
          "internalType": "address",
          "name": "signer1",
          "type": "address"
        },
        {
          "internalType": "address",
          "name": "signer2",
          "type": "address"
        },
        {
          "internalType": "address",
          "name": "signer3",
          "type": "address"
        }
      ],
      "name": "initMultisig",
      "outputs": [],
      "stateMutability": "nonpayable",
      "type": "function"
    },
    {
      "inputs": [
        {
          "internalType": "bytes32",
          "name": "",
          "type": "bytes32"
        }
      ],
      "name": "lpRefundClaimed",
      "outputs": [
        {
          "internalType": "bool",
          "name": "",
          "type": "bool"
        }
      ],
      "stateMutability": "view",
      "type": "function"
    },
    {
      "inputs": [],
      "name": "marketCount",
      "outputs": [
        {
          "internalType": "uint256",
          "name": "",
          "type": "uint256"
        }
      ],
      "stateMutability": "view",
      "type": "function"
    },
    {
      "inputs": [
        {
          "internalType": "bytes32",
          "name": "",
          "type": "bytes32"
        }
      ],
      "name": "marketCredits",
      "outputs": [
        {
          "internalType": "uint128",
          "name": "",
          "type": "uint128"
        }
      ],
      "stateMutability": "view",
      "type": "function"
    },
    {
      "inputs": [
        {
          "internalType": "bytes32",
          "name": "",
          "type": "bytes32"
        }
      ],
      "name": "marketFees",
      "outputs": [
        {
          "internalType": "uint128",
          "name": "protocolFees",
          "type": "uint128"
        },
        {
          "internalType": "uint128",
          "name": "creatorFees",
          "type": "uint128"
        }
      ],
      "stateMutability": "view",
      "type": "function"
    },
    {
      "inputs": [
        {
          "internalType": "bytes32",
          "name": "",
          "type": "bytes32"
        }
      ],
      "name": "markets",
      "outputs": [
        {
          "internalType": "bytes32",
          "name": "id",
          "type": "bytes32"
        },
        {
          "internalType": "address",
          "name": "creator",
          "type": "address"
        },
        {
          "internalType": "address",
          "name": "resolver",
          "type": "address"
        },
        {
          "internalType": "bytes32",
          "name": "questionHash",
          "type": "bytes32"
        },
        {
          "internalType": "uint8",
          "name": "category",
          "type": "uint8"
        },
        {
          "internalType": "uint8",
          "name": "numOutcomes",
          "type": "uint8"
        },
        {
          "internalType": "uint64",
          "name": "deadline",
          "type": "uint64"
        },
        {
          "internalType": "uint64",
          "name": "resolutionDeadline",
          "type": "uint64"
        },
        {
          "internalType": "uint8",
          "name": "status",
          "type": "uint8"
        },
        {
          "internalType": "uint64",
          "name": "createdAt",
          "type": "uint64"
        }
      ],
      "stateMutability": "view",
      "type": "function"
    },
    {
      "inputs": [],
      "name": "multisig",
      "outputs": [
        {
          "internalType": "address",
          "name": "signer1",
          "type": "address"
        },
        {
          "internalType": "address",
          "name": "signer2",
          "type": "address"
        },
        {
          "internalType": "address",
          "name": "signer3",
          "type": "address"
        },
        {
          "internalType": "uint8",
          "name": "threshold",
          "type": "uint8"
        },
        {
          "internalType": "bool",
          "name": "initialized",
          "type": "bool"
        }
      ],
      "stateMutability": "view",
      "type": "function"
    },
    {
      "inputs": [
        {
          "internalType": "bytes32",
          "name": "",
          "type": "bytes32"
        }
      ],
      "name": "multisigApprovals",
      "outputs": [
        {
          "internalType": "bool",
          "name": "",
          "type": "bool"
        }
      ],
      "stateMutability": "view",
      "type": "function"
    },
    {
      "inputs": [
        {
          "internalType": "address",
          "name": "recipient",
          "type": "address"
        },
        {
          "internalType": "uint128",
          "name": "amount",
          "type": "uint128"
        }
      ],
      "name": "proposeTreasuryWithdrawal",
      "outputs": [
        {
          "internalType": "bytes32",
          "name": "",
          "type": "bytes32"
        }
      ],
      "stateMutability": "nonpayable",
      "type": "function"
    },
    {
      "inputs": [],
      "name": "protocolTreasury",
      "outputs": [
        {
          "internalType": "uint128",
          "name": "",
          "type": "uint128"
        }
      ],
      "stateMutability": "view",
      "type": "function"
    },
    {
      "inputs": [
        {
          "internalType": "bytes32",
          "name": "marketId",
          "type": "bytes32"
        },
        {
          "internalType": "uint128",
          "name": "sharesToRedeem",
          "type": "uint128"
        }
      ],
      "name": "redeemShares",
      "outputs": [],
      "stateMutability": "nonpayable",
      "type": "function"
    },
    {
      "inputs": [
        {
          "internalType": "bytes32",
          "name": "marketId",
          "type": "bytes32"
        },
        {
          "internalType": "uint8",
          "name": "outcome",
          "type": "uint8"
        },
        {
          "internalType": "uint128",
          "name": "sharesToSell",
          "type": "uint128"
        },
        {
          "internalType": "uint128",
          "name": "minTokensOut",
          "type": "uint128"
        }
      ],
      "name": "sellShares",
      "outputs": [],
      "stateMutability": "nonpayable",
      "type": "function"
    },
    {
      "inputs": [
        {
          "internalType": "bytes32",
          "name": "",
          "type": "bytes32"
        }
      ],
      "name": "shareRedeemed",
      "outputs": [
        {
          "internalType": "bool",
          "name": "",
          "type": "bool"
        }
      ],
      "stateMutability": "view",
      "type": "function"
    },
    {
      "inputs": [
        {
          "internalType": "bytes32",
          "name": "",
          "type": "bytes32"
        }
      ],
      "name": "totalSharesIssued",
      "outputs": [
        {
          "internalType": "uint128",
          "name": "",
          "type": "uint128"
        }
      ],
      "stateMutability": "view",
      "type": "function"
    },
    {
      "inputs": [
        {
          "internalType": "bytes32",
          "name": "",
          "type": "bytes32"
        }
      ],
      "name": "treasuryProposals",
      "outputs": [
        {
          "internalType": "bytes32",
          "name": "id",
          "type": "bytes32"
        },
        {
          "internalType": "address",
          "name": "proposer",
          "type": "address"
        },
        {
          "internalType": "address",
          "name": "recipient",
          "type": "address"
        },
        {
          "internalType": "uint128",
          "name": "amount",
          "type": "uint128"
        },
        {
          "internalType": "uint8",
          "name": "approvals",
          "type": "uint8"
        },
        {
          "internalType": "bool",
          "name": "executed",
          "type": "bool"
        },
        {
          "internalType": "uint64",
          "name": "createdAt",
          "type": "uint64"
        }
      ],
      "stateMutability": "view",
      "type": "function"
    },
    {
      "inputs": [
        {
          "internalType": "bytes32",
          "name": "marketId",
          "type": "bytes32"
        },
        {
          "internalType": "uint8",
          "name": "outcome",
          "type": "uint8"
        }
      ],
      "name": "voteOutcome",
      "outputs": [],
      "stateMutability": "payable",
      "type": "function"
    },
    {
      "inputs": [
        {
          "internalType": "bytes32",
          "name": "",
          "type": "bytes32"
        }
      ],
      "name": "voteTallies",
      "outputs": [
        {
          "internalType": "uint128",
          "name": "outcome1Bonds",
          "type": "uint128"
        },
        {
          "internalType": "uint128",
          "name": "outcome2Bonds",
          "type": "uint128"
        },
        {
          "internalType": "uint128",
          "name": "outcome3Bonds",
          "type": "uint128"
        },
        {
          "internalType": "uint128",
          "name": "outcome4Bonds",
          "type": "uint128"
        },
        {
          "internalType": "uint8",
          "name": "totalVoters",
          "type": "uint8"
        },
        {
          "internalType": "uint128",
          "name": "totalBonded",
          "type": "uint128"
        },
        {
          "internalType": "uint64",
          "name": "votingDeadline",
          "type": "uint64"
        },
        {
          "internalType": "uint64",
          "name": "disputeDeadline",
          "type": "uint64"
        },
        {
          "internalType": "bool",
          "name": "finalized",
          "type": "bool"
        },
        {
          "internalType": "uint8",
          "name": "winningOutcome",
          "type": "uint8"
        }
      ],
      "stateMutability": "view",
      "type": "function"
    },
    {
      "inputs": [
        {
          "internalType": "address",
          "name": "",
          "type": "address"
        }
      ],
      "name": "voterRewards",
      "outputs": [
        {
          "internalType": "uint128",
          "name": "",
          "type": "uint128"
        }
      ],
      "stateMutability": "view",
      "type": "function"
    },
    {
      "inputs": [
        {
          "internalType": "bytes32",
          "name": "",
          "type": "bytes32"
        }
      ],
      "name": "voters",
      "outputs": [
        {
          "internalType": "uint8",
          "name": "votedOutcome",
          "type": "uint8"
        },
        {
          "internalType": "uint128",
          "name": "bondAmount",
          "type": "uint128"
        },
        {
          "internalType": "bool",
          "name": "claimed",
          "type": "bool"
        }
      ],
      "stateMutability": "view",
      "type": "function"
    },
    {
      "inputs": [
        {
          "internalType": "bytes32",
          "name": "marketId",
          "type": "bytes32"
        }
      ],
      "name": "withdrawCreatorFees",
      "outputs": [],
      "stateMutability": "nonpayable",
      "type": "function"
    },
    {
      "inputs": [
        {
          "internalType": "bytes32",
          "name": "marketId",
          "type": "bytes32"
        },
        {
          "internalType": "uint128",
          "name": "lpSharesToWithdraw",
          "type": "uint128"
        }
      ],
      "name": "withdrawLiquidity",
      "outputs": [],
      "stateMutability": "nonpayable",
      "type": "function"
    },
    {
      "inputs": [
        {
          "internalType": "uint128",
          "name": "amount",
          "type": "uint128"
        }
      ],
      "name": "withdrawProtocolFees",
      "outputs": [],
      "stateMutability": "nonpayable",
      "type": "function"
    },
    {
      "stateMutability": "payable",
      "type": "receive"
    }
  ],
  "bytecode": "0x608080604052346026575f80546001600160a01b03191633179055615534908161002b8239f35b5f80fdfe6080604052600436101561001a575b3615610018575f80fd5b005b5f3560e01c806301f559fe146145f2578063027d0d1d1461445d578063031d973e14614245578063054c8a7b14614002578063065981c014613f245780630ebc67801461393e5780630f564be2146137d2578063116f06c81461379f5780631672c39d146135275780631dfe3bbf146132b057806320f5177414610b2657806321b77d63146112185780632b2b7b9314611244578063304c15d71461322457806331b7d4131461320857806337f91f23146131bc5780633d4d56fe1461304e57806341c14c1c14612f26578063428dea3114612f0557806343661c9f14612e0857806344a6e32314612c58578063469a78d214610b265780634783c35b14612c055780634a51b30814612bea5780634aa7f2dc14612bcf57806356a1f3e214612a2b57806359fe5a92146127935780635bfbc4d0146127645780635f1927401461273557806368eb5ace146126be57806370160b4d146126155780637564912b1461256c57806378f5b524146123fc578063803db96d146123d6578063852e3a06146120d2578063891b591b146120a35780639088de9514611ebf5780639b4df39d14611ea45780639d223d4714611e2e5780639de28fe01461162c5780639de63278146116115780639e46a777146115f65780639ed6b525146115db5780639f4c4deb146115c0578063a207d02e146115a5578063a52582101461158a578063a567298d14611550578063a5810b421461151e578063a8426274146114f1578063bdb83289146113bc578063be3782281461127c578063c3c95c7b14611281578063cc3cbd2a1461127c578063d158dd9d14611249578063d1791ae014611244578063d5f394881461121d578063d73792a914611218578063dbe0f24414611187578063dd8c9f8c14610dde578063e3d7840d14610dab578063e86e951514610b89578063ec97908214610b6c578063f1b19e9214610b2b578063f585dc5714610b26578063f6c0092714610a2e578063fc5b42cc146103325763feefd3ea0361000e573461032e57602036600319011261032e576004355f52600b602052602060ff60405f2054166040519015158152f35b5f80fd5b61033b36614712565b90825f52600260205261035e60018060a01b03600160405f2001541615156147af565b825f526002602052600460405f20016103b18154610384600160ff8360901c1614614a62565b61039c6001600160401b038260101c16421115614eac565b600160ff851610159081610a1a575b50614f2c565b6103e86001600160801b033416106109e55761271091826001600160801b036103db813416614bdc565b1604926001600160801b036103f1813416614bdc565b1604926104746104138561040e846001600160801b033416614920565b614920565b94875f52600460205261045460405f209182546001600160801b0361043a87828416614e91565b6001600160801b031990921691161780845560801c614e91565b81546001600160801b031660809190911b6001600160801b031916179055565b6001600160801b0361048b600e5492828416614e91565b16906001600160801b03191617600e55845f52600360205260ff60405f20925460081c1694604051946104bd86614970565b608036873783546001600160801b0381168752608081901c602088015293600388106109df576001600160801b036001820154165b6040880152600488106109d957600181015460801c5b606088015261052260ff61051b866152f5565b16886152d0565b519788670de0b6b3a7640000810204670de0b6b3a764000014891517156109c557670de0b6b3a76400008902955f5b8260ff821610156105d457888a60ff6105698a6152f5565b1660ff841603610581575b505060010160ff16610551565b6001916105c3846105bd6105c99460ff839f6105b36001600160801b03916105ac84809d16866152d0565b5190614aed565b96169316906152d0565b51614ae0565b90614ad6565b98915050888a610574565b50600361077b938980610768958a958f6001600160801b03808f61061d9361060d670de0b6b3a7640000610612930491848a1690614ae0565b615307565b169b168b1015614fa6565b6106288a1515614ddc565b60ff87166001036107f857506106926106726004938b6001600160801b0361065a89549261060d838616848616614ae0565b16906001600160801b0319161780885560801c614e91565b85546001600160801b031660809190911b6001600160801b031916178555565b848110156107ca575b10156107b0575b60028201906001600160801b036106bd835492828416614e91565b16906001600160801b0319161790550180546001600160801b036106e5813416828416614e91565b16906001600160801b031916179055845f52600660205260405f2080546001600160801b03610718813416828416614e91565b16906001600160801b0319161790556107318186614fdd565b5f52601260205260405f2080546001600160801b0361075287828416614e91565b16906001600160801b031916179055338561500b565b91825f52601060205260405f20546151ac565b905f52601060205260405f205533907fec5205380e845af9d5882d14b944f8bae155a20d9206a436abf70a61108568df5f80a3005b6107c56001830161045483825460801c614e91565b6106a2565b6001840180546001600160801b036107e486828416614e91565b16906001600160801b03191617905561069b565b60ff87166002036108ae57506004915061085d6001600160801b0361083e8b61060d8854846108298a828416614e91565b169085191617808a558489169060801c614ae0565b86546001600160801b0316911660801b6001600160801b031916178555565b84811015610880575b106106a2576107c56001830161045483825460801c614e91565b6001840180546001600160801b0361089a86828416614e91565b16906001600160801b031916179055610866565b60ff8716860361093157506108d66106728386546001600160801b0361065a83828416614e91565b6001840190600482546001600160801b036108f98d61060d838916848616614ae0565b16906001600160801b03191617918284551015610919575b5050506106a2565b610929926104549160801c614e91565b808980610911565b61067283826001600160801b0361065a8a978261094e9716614e91565b1015610997575b6107c5600183016001600160801b036109788a61060d838716855460801c614ae0565b82546001600160801b0316911660801b6001600160801b031916179055565b6001820180546001600160801b036109b184828416614e91565b16906001600160801b031916179055610955565b634e487b7160e01b5f52601160045260245ffd5b5f610508565b5f6104f2565b60405162461bcd60e51b815260206004820152600d60248201526c42656c6f77206d696e696d756d60981b6044820152606490fd5b60ff915060081c1660ff84161115866103ab565b3461032e57602036600319011261032e57604051610a4b81614955565b5f8152602081015f9052604081015f9052606081015f90526080908181015f905260a081015f905260c0015f90526004355f52600360205260405f2090604051610a9481614955565b8254916001600160801b0392839182808316968786526020860193831c84528160018201548160408901818316815260608a0192871c83528160028601549881898d01978d828d168a5260a0019b8b1c8c5260030154169b60c0019b8c526040519d8e52511660208d0152511660408b015251166060890152511690860152511660a0840152511660c082015260e090f35b61475c565b3461032e57602036600319011261032e576001600160a01b03610b4c614746565b165f52600f60205260206001600160801b0360405f205416604051908152f35b3461032e575f36600319011261032e576020600154604051908152f35b3461032e57606036600319011261032e57610ba2614746565b6024356001600160a01b03818116929183900361032e576044359080821680920361032e57610bd5815f54163314614f6a565b6015549260ff8460a81c16610d6657169081151580610d5d575b80610d54575b15610d21578382141580610d17575b80610d0d575b15610cd4576040519360a08501938585106001600160401b03861117610cc057600160807ff5b31633ffe7ba0e7371bfeec0d902cc200a5ecbb09cd7554475c5459dbfe124978197604052868152846020820152856040820152600260608201520152816001600160601b0360a01b85816013541617601355601454161760145582608160a11b9169ffffffffffffffffffff60b01b1617176015556040519283526020830152604082015260026060820152a1005b634e487b7160e01b5f52604160045260245ffd5b60405162461bcd60e51b81526020600482015260116024820152704475706c6963617465207369676e65727360781b6044820152606490fd5b5080821415610c0a565b5080841415610c04565b60405162461bcd60e51b815260206004820152600b60248201526a2d32b9379039b4b3b732b960a91b6044820152606490fd5b50801515610bf5565b50831515610bef565b60405162461bcd60e51b815260206004820152601c60248201527f4d756c746973696720616c726561647920696e697469616c697a6564000000006044820152606490fd5b3461032e57602036600319011261032e576004355f52600660205260206001600160801b0360405f205416604051908152f35b3461032e57604036600319011261032e57610df7614746565b610dff6146fc565b6013546001600160a01b0392919083163314801561117a575b801561116d575b610e2890614828565b60ff60155460a81c1615611128578282169182156110f2576001600160801b039384831690811515806110e4575b156110ae576040516020968782013360601b81526001600160601b03198660601b1660348401526001600160801b031992838860801b16604882015242605882015260588152610ea581614970565b51902096875f526016895283600160405f200154166110805788610f9a60ff7f10a0fbf014675a969752e045d74f8c85dd79c6a693685b1177833061d50b639d98968b9a98968b966003610fb59760405190610f0082614955565b8a825288820133815260408301918252606083019c8d52608083019660018852601660a085019b5f8d5260c086019e8f6001600160401b03421690525f525260405f20935184558060018501925116916001600160601b0360a01b9283825416179055600284019251169082541617905501985116908854161787555116859081549060ff60801b9060801b169060ff60801b1916179055565b51835460ff60881b191690151560881b60ff60881b16178355565b51815467ffffffffffffffff60901b191660909190911b67ffffffffffffffff60901b161790556040518681018581523360601b6001600160601b03191660208201529061101081603484015b03601f1981018352826149c1565b5190205f90815260178752604090819020805460ff1916600117905580516001600160a01b039290921682526001600160801b03929092166020820152a2807f2ff0cda1d4b877c99bc53902ce7b326e79084be3e3c28139b9e724e97236a18c83604051338152a2604051908152f35b60405162461bcd60e51b8152600481018a9052600660248201526545786973747360d01b6044820152606490fd5b60405162461bcd60e51b815260206004820152600e60248201526d125b9d985b1a5908185b5bdd5b9d60921b6044820152606490fd5b5085600e5416821115610e56565b60405162461bcd60e51b815260206004820152600e60248201526d16995c9bc81c9958da5c1a595b9d60921b6044820152606490fd5b60405162461bcd60e51b815260206004820152601860248201527f4d756c7469736967206e6f7420696e697469616c697a656400000000000000006044820152606490fd5b5060155483163314610e1f565b5082601454163314610e18565b3461032e575f36600319011261032e57335f52600f6020526001600160801b0360405f20541680156111e6575f80808061001894338252600f602052604082206001600160801b03198154169055335af16111e06149e2565b50614a20565b60405162461bcd60e51b815260206004820152600a6024820152694e6f207265776172647360b01b6044820152606490fd5b614778565b3461032e575f36600319011261032e575f546040516001600160a01b039091168152602090f35b6115db565b3461032e57602036600319011261032e576004355f52601260205260206001600160801b0360405f205416604051908152f35b614794565b3461032e57602036600319011261032e5761129a614ee2565b506004355f52600260205261014060405f206001600160401b036101206040516112c381614939565b82600485549586845260018060a01b03600182015416602085015260018060a01b03600282015416604085015260038101546060850152015460ff8116608084015260ff8160081c1660a0840152818160101c1660c0840152818160501c1660e084015260ff8160901c1661010084015260981c168282015260405193845260018060a01b03602082015116602085015260018060a01b0360408201511660408501526060810151606085015260ff608082015116608085015260ff60a08201511660a08501528260c08201511660c08501528260e08201511660e085015260ff61010082015116610100850152015116610120820152f35b3461032e57602036600319011261032e576004355f818152600260205260409020600101546001600160a01b03906113f790821615156147af565b815f52600260205260405f20908060018301541633149081156114e4575b50156114ae57600401805460ff8160901c16600181149081156114a3575b501561146e5760ff60901b1916600160921b1790557f22ad0fb1e02d1db96e8800dac4e4b23821afaf9e1ca54d2093e7bc7fb8732b5a5f80a2005b60405162461bcd60e51b815260206004820152600d60248201526c10d85b9b9bdd0818d85b98d95b609a1b6044820152606490fd5b600591501484611433565b60405162461bcd60e51b815260206004820152600e60248201526d139bdd08185d5d1a1bdc9a5e995960921b6044820152606490fd5b90505f5416331483611415565b3461032e57602036600319011261032e576004355f52600a602052602060ff60405f205416604051908152f35b3461032e57602036600319011261032e576004355f526009602052602060018060a01b0360405f205416604051908152f35b3461032e57602036600319011261032e576004355f5260046020526040805f20548151906001600160801b038116825260801c6020820152f35b3461032e575f36600319011261032e57602060405160648152f35b3461032e575f36600319011261032e57602060405160078152f35b3461032e575f36600319011261032e57602060405160058152f35b3461032e575f36600319011261032e57602060405160038152f35b3461032e575f36600319011261032e57602060405160018152f35b3461032e575f36600319011261032e57602060405160068152f35b3461032e57608036600319011261032e576116456146ec565b6001600160801b03604435166044350361032e576064356001600160801b038116810361032e576004355f90815260026020526040902060010154611694906001600160a01b031615156147af565b6004355f526002602052600460405f200154906116b9600160ff8460901c1614614a62565b6116d16001600160401b038360101c16421115614eac565b600160ff8416101580611e16575b6116e890614f2c565b6116fe6001600160801b03604435161515614ddc565b6004355f52600360205260405f209160405161171981614970565b608036823783546001600160801b038116825260801c60208201526003600883901c60ff1610611e10576001600160801b036001850154165b60408201526004600883901c60ff1610611e0a57600184015460801c5b606082015261178960ff611782876152f5565b16826152d0565b515f91816001600160801b03600288015416808211611e02575b505f5b60808110611c6c575b505050506127106001600160801b036117c9818416614bdc565b1604906127106001600160801b036117e2818416614bdc565b16049360646001600160801b03831602806001600160801b038116036109c5576119f9976119695f98976119648a99976001600160801b039760038c9b9a8c9b61184f8c611843612710826119c89e160461040e8b61040e8b868c16614920565b9c168d8d161015614fa6565b6004358d52600460205261189260408e206104548982546001600160801b0361187a8b828416614e91565b16906001600160801b0319161780845560801c614e91565b600e548c6118a287828416614e91565b16908d191617600e55600160ff8a16148d14611a685760ff60049161190b61067285546001600160801b036118e8818b16826118e2604435828716614e91565b16614920565b16906001600160801b031916178087556001600160801b0389169060801c614920565b84828260081c161015611a3f575b60081c161015611a23575b60028101548b611938818616828416614920565b16908c19161760028201550190896119568184549316828416614e91565b16908a191617905586614e91565b614e91565b60043586526006602052604086209085611987835492828416614920565b169086191617905561199b81600435614fdd565b85526012602052604085208054856119b7604435828416614920565b16908619161790553360043561500b565b80845260106020526119e06044356040862054615046565b9084526010602052604084205516335af16111e06149e2565b336004357f156358d3313311b9cdea40c0032b0ede9785d6af7566ee589e1ec8723d86f8725f80a3005b611a3a600182016104548d8616825460801c614920565b611924565b6001840180548f611a54818a16828416614920565b16906001600160801b031916179055611919565b600260ff8a16148d14611b1e5760ff600491611ab461067285546001600160801b03611a98818b16828416614920565b16906001600160801b031916178087556044359060801c614e91565b611ac76106728f8816865460801c614920565b84828260081c161015611af5575b60081c161061192457611a3a600182016104548d8616825460801c614920565b6001840180548f611b0a818a16828416614920565b16906001600160801b031916179055611ad5565b8260ff8a16148d14611bd357611b76611b5683548e611b41818916828416614920565b16908f1916178085558e87169060801c614920565b83546001600160801b031660809190911b6001600160801b031916178355565b60018201600460ff82548f611b96818a16826118e2604435828716614e91565b16906001600160801b031916179384845560081c161015611bb9575b5050611924565b610454611bcc928e87169060801c614920565b5f80611bb2565b60ff8391611bf561067285546001600160801b036118e8818b16828416614920565b60081c161015611c4a575b611a3a60018201611c3a611c1a604435835460801c614e91565b82546001600160801b031660809190911b6001600160801b031916178255565b6104548d8616825460801c614920565b6001810180548c611c5f818716828416614920565b16908d1916179055611c00565b9195611c7f84869a959a99939799614ae0565b976001890189116109c55786670de0b6b3a7640000810204670de0b6b3a764000014871517156109c557670de0b6b3a76400008702955f5b60ff811660ff8460081c16811015611df05760ff611cd4896152f5565b168103611ce8575b5060010160ff16611cb7565b909760018c0160011c611cfb838d6152d0565b511115611d3957611d318c6105c38d611d2b866001611d2181986105ac60ff9b876152d0565b9501871c926152d0565b51615307565b989150611cdc565b50509096929891979395505f999499195b5f19908019611de05750805b8181148015611dd7575b15611db85750805b6044356001600160801b031610611d9757505060010160011c935b838514611d92576001016117a6565b6117af565b90959450906001808201901c808301116109c55760010160011c0192611d83565b611dd290611dcd866001870160011c92615307565b614ae0565b611d68565b50848110611d60565b670de0b6b3a76400009004611d56565b50509096929891979395999499611d4a565b9250886117a3565b5f61176f565b5f611752565b506116e860ff8360081c1660ff8516111590506116df565b3461032e57602036600319011261032e576001600160801b0360043581811680820361032e575f80808093866100189660018060a01b0384541691611e74833314614f6a565b611e8a600e549282841661040e818811156148e1565b16906001600160801b03191617600e555af16111e06149e2565b3461032e575f36600319011261032e57602060405160148152f35b3461032e57604036600319011261032e57600435611edb6146fc565b815f52602060028152611efe60018060a01b03600160405f2001541615156147af565b825f5260028152611f1e600360ff600460405f20015460901c1614614da1565b825f526005815260ff600360405f20015460481c1660018110612072575f808561204a956010839661203661202586986001600160801b03611f638188161515614ddc565b878952600385526040892090611fac611f7c848b614fdd565b92838c5260128852611fa7836002818f60409020541693611f9e851515614ba4565b0154168b614bf7565b614c15565b9181831699611fbc8b1515614e16565b808c5260068852611fd58360408e2054168c1115614e50565b8b526006875260408b2082611fee825495828716614920565b166001600160801b03198095161790558a526012865260408a20918254916120188a828516614920565b169116179055338d61500b565b938487528383526040872054615046565b928552526040832055335af16111e06149e2565b33907f88346dcdee99ace62532c80966a072daf536d79410106b9059222549ea3df6d15f80a3005b60405162461bcd60e51b81526004810183905260096024820152682737903bb4b73732b960b91b6044820152606490fd5b3461032e57602036600319011261032e576004355f526017602052602060ff60405f2054166040519015158152f35b604036600319011261032e576004356120e96146ec565b90805f526020916002835261210e60018060a01b03600160405f2001541615156147af565b815f5260028352600460405f2001549260ff9361213c858260901c16600581149081156123cb575b50614cb5565b835f526005825260405f209260028401906001600160401b039081835460881c164211612396578761217e9116938860018610159182612386575b5050614f2c565b6001600160801b03968734169766038d7ea4c680008910612356576121a3338961517f565b91825f52600787528160405f205460081c166123215760405192606084019484861090861117610cc0577f25936ae91ab461ec8c75137b01c05f1c0ca654203d944e4407687e41f792e9979861229e976122528d96612298986040528281528b81019488865260408201905f82525f5260078d52612237888860405f209451169760ff199889865416178555511683614ab4565b51815460ff60881b191690151560881b60ff60881b16179055565b600181036122a9575080548461226a87828416614e91565b16906001600160801b0319161790555b855491612288818416614ca4565b1691161780855560081c16614e91565b90614ab4565b6040519384523393a3005b600281036122c9575080610454866122c4935460801c614e91565b61227a565b600381036122f857506001018054846122e487828416614e91565b16906001600160801b03191617905561227a565b600414612306575b5061227a565b600161231b910161045486825460801c614e91565b8b612300565b60405162461bcd60e51b815260048101889052600d60248201526c105b1c9958591e481d9bdd1959609a1b6044820152606490fd5b60405162461bcd60e51b8152600481018790526008602482015267135a5b88189bdb9960c21b6044820152606490fd5b60081c168511159050888a612177565b60405162461bcd60e51b815260048101869052600d60248201526c159bdd1a5b99c818db1bdcd959609a1b6044820152606490fd5b600791501487612136565b3461032e575f36600319011261032e5760206001600160801b03600e5416604051908152f35b3461032e57602036600319011261032e57612415614ee2565b506004355f52600560205261014060405f2060ff61012060405161243881614939565b8260038554956001600160801b03871684528660801c602085015260018101546001600160801b038116604086015260801c60608501526001600160401b03600282015484811660808701526001600160801b038160081c1660a087015260881c1660c085015201546001600160401b03811660e0840152818160401c16151561010084015260481c16828201526001600160801b03604051941684526001600160801b0360208201511660208501526001600160801b0360408201511660408501526001600160801b0360608201511660608501528260808201511660808501526001600160801b0360a08201511660a08501526001600160401b0360c08201511660c08501526001600160401b0360e08201511660e08501526101008101511515610100850152015116610120820152f35b3461032e57602036600319011261032e576004355f52600260205261014060405f2080549060018060a01b039081600182015416916002820154169060046003820154910154916001600160401b039360405195865260208601526040850152606084015260ff8116608084015260ff8160081c1660a0840152818160101c1660c0840152818160501c1660e084015260ff8160901c1661010084015260981c16610120820152f35b3461032e57602036600319011261032e576004355f52600560205261014060405f2060ff81549160036001600160801b03916001810154926002820154906001600160401b0393849301549460405197828116895260801c6020890152818116604089015260801c606088015285821660808801528160081c1660a087015260881c1660c0850152811660e0840152818160401c16151561010084015260481c16610120820152f35b3461032e57602036600319011261032e576004355f52600360205260e060405f208054906001600160801b03906001810154918060036002840154930154169260405194828116865260801c6020860152818116604086015260801c60608501528116608084015260801c60a083015260c0820152f35b3461032e57602036600319011261032e576004355f52600d602052602060ff60405f2054166040519015158152f35b3461032e57602036600319011261032e576004355f52600c602052602060ff60405f2054166040519015158152f35b60208060031936011261032e576004355f8181526002835260409020600101546127c7906001600160a01b031615156147af565b805f5260028252600460405f2001546127e8600160ff8360901c1614614a62565b6128006001600160401b038260101c16421115614eac565b6001600160801b03928334169361281b612710861015614c68565b835f526003825260405f20946002860180548060801c80155f14612a0f575082955b848716156129d9579160119697986004612908936128d36128b3888a61289a60ff6128949b60081c169588549b8c91611fa78584169661288a876128818a84614bf7565b94168094614c15565b9460801c90614bf7565b93614e91565b166001600160801b0319809a161780875560801c614e91565b84546001600160801b031660809190911b6001600160801b031916178455565b60038110156129a9575b1015612977575b5061045488825485886128f989828516614e91565b1691161780845560801c614e91565b865f526006845260405f2092612922845493828516614e91565b169116179055612946612935338661517f565b93845f5283835260405f20546151ac565b925f525260405f205533907f65bd878891ea37abce70f965ba375cfda3a5bceabfacdf0d2c8f2aee66d598e65f80a3005b60016129a39101610454815460801c61299d612993828a614bf7565b8a87541690614c15565b90614e91565b896128e4565b600183018054878a6129ce81841661299d6129c4828f614bf7565b848c541690614c15565b1691161790556128dd565b60405162461bcd60e51b815260048101879052600e60248201526d5a65726f204c502073686172657360901b6044820152606490fd5b612a1c612a259185614bf7565b85831690614c15565b9561283d565b3461032e5760208060031936011261032e576004355f818152600283526040902060010154612a64906001600160a01b031615156147af565b805f5260028252612a8e60ff600460405f20015460901c1660038114908115612bc4575b50614d2f565b612a98338261517f565b5f526007825260405f208054926001600160801b0392838560081c1690612ac0821515614d6b565b612ad060ff8760881c1615614cf1565b5f526005825260405f2060ff829681600384015460481c16918291161480612bbb575b612b1e575b845460ff60881b1916600160881b1785556100185f8080808b8b16335af16111e06149e2565b91949092956004875260148260405f20541602948286169586036109c557610018975f978897612b518998978998615277565b90868216612b69575b50505050945095819550612af8565b82939550612b8a91611fa7600f946064612b839404614bf7565b8093614e91565b9333875252604085209084612ba3835492828416614e91565b16906001600160801b03191617905588808080612b5a565b50801515612af3565b600491501484612a88565b3461032e575f36600319011261032e57602060405160028152f35b3461032e575f36600319011261032e57602060405160048152f35b3461032e575f36600319011261032e5760a0600180821b0360ff816013541691806014541690601554916040519485526020850152811660408401528181851c16606084015260a81c1615156080820152f35b3461032e57604036600319011261032e57600435612c746146fc565b815f52602060028152612c9760018060a01b03600160405f2001541615156147af565b825f5260028152612cb7600360ff600460405f20015460901c1614614da1565b825f52600581526003612cda60405f206001600160401b03928391015416614a9b565b16421115612dd2575f808085612daa95601183966001600160801b03612d038185161515614ddc565b8486526003825260026040872001805490612d5d611c1a87612d35612d2a87871683614bf7565b9560801c8096614c15565b948686169a612d458c1515614e16565b8c526006885261040e8760408e2054168c1115614e50565b80549083612d6d84828516614920565b166001600160801b03198093161790558c8852600684526040882092612d97845493828516614920565b169116179055612036612025338c61517f565b33907fc7ddda68b458058660231a324ab142da47b73920572f869d97a99c09c1c50bcd5f80a3005b6064906040519062461bcd60e51b82526004820152600f60248201526e5072696f726974792077696e646f7760881b6044820152fd5b3461032e5760208060031936011261032e5760043590815f526002815260018060a01b03612e4081600160405f2001541615156147af565b825f526009825260405f2054163303612ed2575f8080846008829561001897845260028152612e8760ff600460408720015460901c1660038114908115612ec75750614d2f565b8284528181526001600160801b0360408520541692612ea7841515614d6b565b8452526040822080546001600160801b0319169055335af16111e06149e2565b60049150148a612a88565b6064906040519062461bcd60e51b82526004820152600c60248201526b2737ba103234b9b83aba32b960a11b6044820152fd5b3461032e575f36600319011261032e57602060405166038d7ea4c680008152f35b3461032e5760208060031936011261032e5760043590815f526002815260018060a01b03612f5e81600160405f2001541615156147af565b825f526002825260405f2090600182015416330361301b5760ff6004612f9592015460901c1660038114908115612bc45750614d2f565b815f52600c8152612fad60ff60405f20541615614cf1565b815f526004815260405f205460801c918215612fec575f8061001894600c8295839584525260408220600160ff19825416179055335af16111e06149e2565b60405162461bcd60e51b81526004810183905260076024820152664e6f206665657360c81b6044820152606490fd5b60405162461bcd60e51b815260048101839052600b60248201526a2737ba1031b932b0ba37b960a91b6044820152606490fd5b3461032e57604036600319011261032e576004356131945f8080806130716146fc565b8682526020906002825261309560018060a01b0360016040862001541615156147af565b878352600282526130b4600460ff8160408720015460901c1614614b00565b60116001600160801b03926130cc8484161515614b72565b6120366130d9338c61517f565b93848752600d83526130f260ff60408920541615614cf1565b8b87526003835260026040882001958c87549761311f613114848b1686614bf7565b9960801c809a614c15565b91808b5260068752613145611b56868660408f2054169c61040e8888169e8f1115614c2d565b8154918461315585828616614920565b166001600160801b03198094161790558a526006865260408a209261317e845493828516614920565b1691161790558487528383526040872054615046565b33907fb3a981a51a138d30ed018f025a13f99d6eac339dcc88dec2adeb4c191eadb1ed5f80a3005b3461032e57602036600319011261032e576004355f526007602052606060405f205460ff6040519181811683526001600160801b038160081c16602084015260881c1615156040820152f35b3461032e575f36600319011261032e5760206040516103e88152f35b3461032e57602036600319011261032e576004355f52601660205260e060405f206001600160401b0381549160018060a01b03906003826001830154169260028301541691015491604051948552602085015260408401526001600160801b038116606084015260ff8160801c16608084015260ff8160881c16151560a084015260901c1660c0820152f35b3461032e5760208060031936011261032e576004355f8181526002835260409020600101546132e9906001600160a01b031615156147af565b805f5260028252600460405f200191825461331560ff8260901c166005811490811561351c5750614cb5565b825f526005825260405f209360028501546001600160401b03808260881c164211156134e357600387019160ff835460401c166134aa5760ff600391161061347157867f0eec3220d7d0587998474d45a1647927fdd5d83c8a8d0f5b45154fb195408282969754946001600160801b038087169160019760801c838111613464575b5060081c60ff16600381101580613453575b613441575b60041115928361342d575b505050613424575b815460ff60481b1916604885901b60ff60481b1617825568010000000000000000908254906133f1814216614a9b565b68ffffffffffffffffff19909216911617179055805460ff60901b1916600360911b17905560405160ff919091168152a2005b600493506133c1565b6001015460801c91161090508880806133b9565b600184015460039850821692506133ae565b5081600185015416828416106133a9565b60029850925060ff613397565b60405162461bcd60e51b81526004810186905260116024820152704e6f7420656e6f75676820766f7465727360781b6044820152606490fd5b60405162461bcd60e51b8152600481018790526011602482015270105b1c9958591e48199a5b985b1a5e9959607a1b6044820152606490fd5b60405162461bcd60e51b8152600481018690526011602482015270159bdd1a5b99c81b9bdd0818db1bdcd959607a1b6044820152606490fd5b600791501486612136565b604036600319011261032e5760043561353e6146ec565b815f526020906002825261356260018060a01b03600160405f2001541615156147af565b825f5260028252600460405f2001805491613585600660ff8560901c16146147ee565b845f526005845260405f2090600382019081546001600160401b0391828216421161376a57906135c660ff809316976001891015908161375a575b50614b3c565b60481c1685146137265760028301936001600160801b03600381875460081c1602908082169182036109c55734169081106136f257937fd8a95b382b85b954ed8355497403c1e4b82061ec736bdcfb48a875aae997e1479795936136be6136965f9560019560409b998e895260088c528c8920906001600160801b031982541617905560098b528b8820336001600160601b0360a01b825416179055600a8b528b88208a60ff19825416179055600760901b60ff60901b1982541617905560ff60401b1984541684554216614a9b565b865467ffffffffffffffff60881b191660889190911b67ffffffffffffffff60881b16178655565b805460ff60481b191690558281550155805470ffffffffffffffffffffffffffffffffff19169055825133815291820152a2005b60405162461bcd60e51b815260048101899052600c60248201526b426f6e6420746f6f206c6f7760a01b6044820152606490fd5b60405162461bcd60e51b815260048101879052600c60248201526b53616d65206f7574636f6d6560a01b6044820152606490fd5b84915060081c168811158b6135c0565b60405162461bcd60e51b815260048101899052600d60248201526c15da5b991bddc818db1bdcd959609a1b6044820152606490fd5b3461032e57602036600319011261032e576004355f52600860205260206001600160801b0360405f205416604051908152f35b3461032e5760208060031936011261032e5760043590600360018060a01b03806013541633148015613931575b8015613924575b61380f90614828565b835f526016835261382b60405f2091600183015416151561486a565b0161383d60ff825460881c16156148a2565b6040518281018481523360601b6001600160601b0319166020820152906138678160348401611002565b519020805f526017835260ff60405f2054166138ec577f2ff0cda1d4b877c99bc53902ce7b326e79084be3e3c28139b9e724e97236a18c92916138e3915f526017835260405f20600160ff198254161790556138c960ff825460801c16614ca4565b815460ff60801b191660809190911b60ff60801b16179055565b604051338152a2005b60405162461bcd60e51b815260048101849052601060248201526f105b1c9958591e48185c1c1c9bdd995960821b6044820152606490fd5b5060155481163314613806565b50806014541633146137ff565b60c036600319011261032e576139526146ec565b6044359060ff8216820361032e57606435916001600160401b038316830361032e576084356001600160401b038116810361032e5760a435906001600160a01b038216820361032e57600260ff8416101580613f16575b15613ee2576139bc612710341015614c68565b426001600160401b0386161115613ea8576001600160401b0385166001600160401b0382161115613e6357604051933360601b602086015260043560348601526001600160401b0360c01b808760c01b1660548701528260c01b16605c860152426064860152606485528460a08101106001600160401b0360a087011117610cc05760a085016040528451602086012094855f52600260205260018060a01b03600160405f20015416613e2c575060ff9060405193613a7a85614939565b86855233602086015260018060a01b03166040850152600435606085015216608083015260a082019060ff8416825260c08301906001600160401b03871682526001600160401b0360e0850191168152610100840190600182526101208501926001600160401b0342168452875f52600260205260ff6080600460405f20895181556001810160018060a01b0360208c015116906001600160601b0360a01b9182825416179055600282019060018060a01b0360408d0151169082541617905560608a01516003820155019701511669ffffffffffffffff000061ff008854975160081b16925160101b16926001600160401b0360501b905160501b169360ff60901b905160901b16946001600160401b0360981b905160981b169564ffffffffff60d81b161717171717179055613bbe60ff82166001600160801b033416614c15565b600360ff831610613e1e576001600160801b03815b600460ff851610613e16578183915b8160405195613bf087614955565b81811687521660208601521660408401521660608201526001600160801b03341660808201526001600160801b03341660a08201525f60c0820152825f5260036020526001600160801b0360c0600360405f20838551168419825416178155613c748460208701511682906001600160801b0382549181199060801b169116179055565b613caa60018201856040880151168619825416178155856060880151166001600160801b0382549181199060801b169116179055565b613ce0600282018560808801511686198254161781558560a0880151166001600160801b0382549181199060801b169116179055565b01920151166001600160801b031982541617905560405160408101908082106001600160401b03831117610cc05760409182525f808252602080830182815286835260049091529290209051915160801b6001600160801b0319166001600160801b0392909216919091179055600660205260405f2080546001600160801b031916346001600160801b0316179055613d79338361517f565b805f526011602052613d986001600160801b03341660405f20546151ac565b905f52601160205260405f20556001545f1981146109c55760209360016001600160401b03920160015560ff60405193600435855216858401521660408201526001600160801b0334166060820152817f72ef07c396d0c66925a6b13c2429f12a67405703d2727a6f8f9200f1bc33191260803393a3604051908152f35b815f91613be2565b6001600160801b035f613bd3565b60a060649162461bcd60e51b82820152602060a4820152600d60c48201526c4d61726b65742065786973747360981b60e482015201fd5b60405162461bcd60e51b815260206004820152601960248201527f5265736f6c7574696f6e20616674657220646561646c696e65000000000000006044820152606490fd5b60405162461bcd60e51b8152602060048201526012602482015271446561646c696e6520696e2066757475726560701b6044820152606490fd5b60405162461bcd60e51b815260206004820152600c60248201526b322d34206f7574636f6d657360a01b6044820152606490fd5b50600460ff841611156139a9565b3461032e5760106131945f808080613f3b36614712565b9097829883855261203661202560209260028452613f6960018060a01b03600160408b2001541615156147af565b86885260028452613fa4600460408a200154613f8d600460ff8360901c1614614b00565b60ff831660018110159182613ff1575b5050614b3c565b6001600160801b03613fb98188161515614b72565b878952600385526040892090613fd2611f7c848b614fdd565b91898b52600687528160408c20541699611fd58385169b8c1115614c2d565b60081c60ff16101590508f80613f9d565b3461032e57602036600319011261032e575f805f915f6004355f52600360205260405f2091600260205260405f208354906001600160801b0394858316801580155f1461423c576141ec576ec097ce7bc90715b34b9f100000000004925b60801c80158061422f576141ec57600460ff916ec097ce7bc90715b34b9f100000000004935b015460081c16600381101591828093614220575b15614217578760018201541680156141ec576004906ec097ce7bc90715b34b9f100000000004925b1015908180614207575b15614200576001015460801c80156141ec576ec097ce7bc90715b34b9f1000000000045b61410281611dcd85611dcd898b614ae0565b928361412f575b5060808a8a8a818f818d8160405197168752166020860152166040840152166060820152f35b9397509398509398509350670de0b6b3a764000097888102908082048a14901517156109c557614160858892614ad6565b1696888102908082048a14901517156109c55761417e858892614ad6565b1694156141e557878102908082048914901517156109c5576141a1848792614ad6565b165b91156141d6578681029681880414901517156109c55783806141c88194608099614ad6565b165b93928297898080614109565b5060809550838092505f6141ca565b505f6141a3565b634e487b7160e01b5f52601260045260245ffd5b505f6140f0565b50600181015460801c15156140cc565b60045f926140c2565b5087600182015416151561409a565b505060ff60045f93614086565b50505f92614060565b3461032e5760208060031936011261032e5760043590815f526002815261427c60018060a01b03600160405f2001541615156147af565b815f5260028152600460405f2001908154916142a0600160ff8560901c1614614a62565b6001600160401b0392838160101c164211156144245760ff60901b1916600560901b1790556142d0428316614a9b565b91604051906142de82614939565b5f808352838301818152604080850183815260608601848152608080880186815260a089018781529a881660c08a0190815260e08a018881526101008b018981526101208c018a81528f8b526005909d5296909820995196516001600160801b039788166001600160801b031991851b8216178b559451935190921b90931691851691909117600188015593979195939092859260028601945160ff1660ff1986541617855551166143909084614ab4565b51825467ffffffffffffffff60881b1916911660881b67ffffffffffffffff60881b1617905560030193511683549151151560401b60ff60401b169168ffffffffffffffffff1916171782555160ff166143fe919060ff60481b82549160481b169060ff60481b1916179055565b7f685acf17bc506d0cfe7016cdc38205cbb6f983cc284d783ec999a280bb5825195f80a2005b60405162461bcd60e51b81526004810184905260116024820152704e6f74207061737420646561646c696e6560781b6044820152606490fd5b3461032e57602036600319011261032e57601354600435906001600160a01b03908116331480156145e5575b80156145d8575b61449990614828565b815f52601660205260405f20906144b781600184015416151561486a565b60038201908154906144cf60ff8360881c16156148a2565b60ff60155460a01c1660ff8360801c161061459c5760027fff1129099b647fda11e043d9f7ef9f0f595b4cf9018c239df7406f6a6f75ef94946001600160801b03938481169061452586600e54168311156148e1565b60ff60881b1916600160881b178655600e5490859061454690838316614920565b16906001600160801b03191617600e55016145715f80808086865416888a5416905af16111e06149e2565b54925460408051929094166001600160a01b03168252919091166001600160801b03166020820152a2005b60405162461bcd60e51b81526020600482015260146024820152734e6f7420656e6f75676820617070726f76616c7360601b6044820152606490fd5b5060155481163314614490565b5080601454163314614489565b3461032e5760208060031936011261032e5760043590815f526002815261462960018060a01b03600160405f2001541615156147af565b815f5260028152600460405f200180549061464c600660ff8460901c16146147ee565b835f5260058352600360405f2001916001600160401b038354164211156146b15760ff60901b1916600360901b1790555460405160489190911c60ff1681527f792b55102c78d70a54105158e6e4807fb2dc4c0f6076c5d2bc6fe70fd1c066749190a2005b60405162461bcd60e51b81526004810185905260136024820152722234b9b83aba32903bb4b73237bb9037b832b760691b6044820152606490fd5b6024359060ff8216820361032e57565b602435906001600160801b038216820361032e57565b606090600319011261032e576004359060243560ff8116810361032e57906044356001600160801b038116810361032e5790565b600435906001600160a01b038216820361032e57565b3461032e575f36600319011261032e57602060405161a8c08152f35b3461032e575f36600319011261032e5760206040516127108152f35b3461032e575f36600319011261032e57602060405160328152f35b156147b657565b60405162461bcd60e51b815260206004820152601060248201526f13585c9ad95d081b9bdd08199bdd5b9960821b6044820152606490fd5b156147f557565b60405162461bcd60e51b815260206004820152600b60248201526a4e6f742070656e64696e6760a81b6044820152606490fd5b1561482f57565b60405162461bcd60e51b81526020600482015260136024820152722737ba1036bab63a34b9b4b39039b4b3b732b960691b6044820152606490fd5b1561487157565b60405162461bcd60e51b8152602060048201526009602482015268139bdd08199bdd5b9960ba1b6044820152606490fd5b156148a957565b60405162461bcd60e51b815260206004820152601060248201526f105b1c9958591e48195e1958dd5d195960821b6044820152606490fd5b156148e857565b60405162461bcd60e51b815260206004820152601060248201526f4578636565647320747265617375727960801b6044820152606490fd5b6001600160801b0391821690821603919082116109c557565b61014081019081106001600160401b03821117610cc057604052565b60e081019081106001600160401b03821117610cc057604052565b608081019081106001600160401b03821117610cc057604052565b606081019081106001600160401b03821117610cc057604052565b602081019081106001600160401b03821117610cc057604052565b90601f801991011681019081106001600160401b03821117610cc057604052565b3d15614a1b573d906001600160401b038211610cc05760405191614a10601f8201601f1916602001846149c1565b82523d5f602084013e565b606090565b15614a2757565b60405162461bcd60e51b8152602060048201526013602482015272115512081d1c985b9cd9995c8819985a5b1959606a1b6044820152606490fd5b15614a6957565b60405162461bcd60e51b815260206004820152600a6024820152694e6f742061637469766560b01b6044820152606490fd5b9061a8c06001600160401b03809316019182116109c557565b90610100600160881b0382549160081b1690610100600160881b031916179055565b81156141ec570490565b919082018092116109c557565b818102929181159184041417156109c557565b15614b0757565b60405162461bcd60e51b815260206004820152600d60248201526c139bdd0818d85b98d95b1b1959609a1b6044820152606490fd5b15614b4357565b60405162461bcd60e51b8152602060048201526007602482015266125b9d985b1a5960ca1b6044820152606490fd5b15614b7957565b606460405162461bcd60e51b81526020600482015260046024820152635a65726f60e01b6044820152fd5b15614bab57565b60405162461bcd60e51b81526020600482015260096024820152684e6f2073686172657360b81b6044820152606490fd5b9060326001600160801b03809316029182169182036109c557565b9190916001600160801b03808094169116029182169182036109c557565b906001600160801b038091169182156141ec57160490565b15614c3457565b60405162461bcd60e51b815260206004820152600c60248201526b125b9cdd59999a58da595b9d60a21b6044820152606490fd5b15614c6f57565b60405162461bcd60e51b815260206004820152600d60248201526c4d696e206c697175696469747960981b6044820152606490fd5b60ff1660ff81146109c55760010190565b15614cbc57565b60405162461bcd60e51b815260206004820152600d60248201526c4e6f7420696e20766f74696e6760981b6044820152606490fd5b15614cf857565b60405162461bcd60e51b815260206004820152600f60248201526e105b1c9958591e4818db185a5b5959608a1b6044820152606490fd5b15614d3657565b60405162461bcd60e51b815260206004820152600d60248201526c139bdd08199a5b985b1a5e9959609a1b6044820152606490fd5b15614d7257565b60405162461bcd60e51b8152602060048201526007602482015266139bc8189bdb9960ca1b6044820152606490fd5b15614da857565b60405162461bcd60e51b815260206004820152600c60248201526b139bdd081c995cdbdb1d995960a21b6044820152606490fd5b15614de357565b60405162461bcd60e51b815260206004820152600b60248201526a5a65726f2073686172657360a81b6044820152606490fd5b15614e1d57565b60405162461bcd60e51b815260206004820152600b60248201526a16995c9bc81c185e5bdd5d60aa1b6044820152606490fd5b15614e5757565b60405162461bcd60e51b8152602060048201526012602482015271496e73756666696369656e742066756e647360701b6044820152606490fd5b9190916001600160801b03808094169116019182116109c557565b15614eb357565b60405162461bcd60e51b8152602060048201526007602482015266115e1c1a5c995960ca1b6044820152606490fd5b60405190614eef82614939565b5f610120838281528260208201528260408201528260608201528260808201528260a08201528260c08201528260e0820152826101008201520152565b15614f3357565b60405162461bcd60e51b815260206004820152600f60248201526e496e76616c6964206f7574636f6d6560881b6044820152606490fd5b15614f7157565b60405162461bcd60e51b815260206004820152600d60248201526c27b7363c903232b83637bcb2b960991b6044820152606490fd5b15614fad57565b60405162461bcd60e51b8152602060048201526008602482015267536c69707061676560c01b6044820152606490fd5b90604051906020820192835260ff60f81b9060f81b166040820152602181526150058161498b565b51902090565b9160405191602083019384526001600160601b03199060601b16604083015260ff60f81b9060f81b166054820152603581526150058161498b565b906001600160801b0361505991166153dc565b811561516f575b8015615161575b604051916150748361498b565b600283526040366020850137615089836154d1565b52615093826154de565b5260206150dd604051926150a6846149a6565b5f84526150ef6040519485938493631888debd60e01b85526006600486015260076024860152608060448601526084850190615376565b83810360031901606485015290615376565b03815f73ea30c4b8b44078bbf8a6ef5b9f1ec1626c7848d95af1908115615156575f91615124575b5061512181615314565b90565b90506020813d60201161514e575b8161513f602093836149c1565b8101031261032e57515f615117565b3d9150615132565b6040513d5f823e3d90fd5b5061516a61549f565b615067565b905061517961549f565b90615060565b604080516020810192835260609390931b6001600160601b03191690830152906150058160548101611002565b906001600160801b036151bf91166153dc565b811591908261526a5780919261525a575b1561524c575b604051916151e38361498b565b6002835260403660208501376151f8836154d1565b52615202826154de565b5260206150dd60405192615215846149a6565b5f84526150ef6040519485938493631888debd60e01b85526006600486015260086024860152608060448601526084850190615376565b5061525561549f565b6151d6565b915061526461549f565b916151d0565b8092506151219150615314565b9060ff16600181146152c257600281146152ba57600381146152a95760041461529f57505f90565b6001015460801c90565b50600101546001600160801b031690565b505460801c90565b50546001600160801b031690565b9060048110156152e15760051b0190565b634e487b7160e01b5f52603260045260245ffd5b60ff5f199116019060ff82116109c557565b919082039182116109c557565b73ea30c4b8b44078bbf8a6ef5b9f1ec1626c7848d990813b1561032e575f91604483926040519485938492631974142760e21b845260048401523060248401525af18015615156576153635750565b6001600160401b038111610cc057604052565b9081518082526020808093019301915f5b828110615395575050505090565b835185529381019392810192600101615387565b90916153ce6151219360068452601a6020850152608060408501526080840190615376565b916060818403910152615376565b6020615445916040516153ee816149a6565b5f8152604051916153fe83614970565b6003835260603685850137615412836154d1565b52600661541e836154de565b525f615429836154ee565b52604051631888debd60e01b81529384928392600484016153a9565b03815f73ea30c4b8b44078bbf8a6ef5b9f1ec1626c7848d95af1908115615156575f91615470575090565b90506020813d602011615497575b8161548b602093836149c1565b8101031261032e575190565b3d915061547e565b61544560206040516154b0816149a6565b5f8152604051906154c082614970565b60038252606036848401375f615412835b8051156152e15760200190565b8051600110156152e15760400190565b8051600210156152e1576060019056fea2646970667358221220fea14d0776c349c94c025ed4779212766b3b9dcce4f71433619acd49a7d54f4464736f6c63430008190033",
  "linkReferences": {},
  "deployedLinkReferences": {}
}