{
  "_format": "hh-sol-artifact-1",
  "contractName": "FhenixMarkets",
  "sourceName": "contracts/FhenixMarkets.sol",
  "abi": [
    {
      "inputs": [],
      "stateMutability": "nonpayable",
      "type": "constructor"
    },
    {
      "inputs": [],
      "name": "ReentrancyGuardReentrantCall",
      "type": "error"
    },
    {
      "inputs": [
        {
          "internalType": "int32",
          "name": "value",
          "type": "int32"
        }
      ],
      "name": "SecurityZoneOutOfBounds",
      "type": "error"
    },
    {
      "anonymous": false,
      "inputs": [
        {
          "indexed": true,
          "internalType": "bytes32",
          "name": "marketId",
          "type": "bytes32"
        },
        {
          "indexed": true,
          "internalType": "address",
          "name": "provider",
          "type": "address"
        }
      ],
      "name": "LiquidityAdded",
      "type": "event"
    },
    {
      "anonymous": false,
      "inputs": [
        {
          "indexed": true,
          "internalType": "bytes32",
          "name": "marketId",
          "type": "bytes32"
        },
        {
          "indexed": true,
          "internalType": "address",
          "name": "provider",
          "type": "address"
        }
      ],
      "name": "LiquidityWithdrawn",
      "type": "event"
    },
    {
      "anonymous": false,
      "inputs": [
        {
          "indexed": true,
          "internalType": "bytes32",
          "name": "marketId",
          "type": "bytes32"
        }
      ],
      "name": "MarketCancelled",
      "type": "event"
    },
    {
      "anonymous": false,
      "inputs": [
        {
          "indexed": true,
          "internalType": "bytes32",
          "name": "marketId",
          "type": "bytes32"
        }
      ],
      "name": "MarketClosed",
      "type": "event"
    },
    {
      "anonymous": false,
      "inputs": [
        {
          "indexed": true,
          "internalType": "bytes32",
          "name": "marketId",
          "type": "bytes32"
        },
        {
          "indexed": true,
          "internalType": "address",
          "name": "creator",
          "type": "address"
        },
        {
          "indexed": false,
          "internalType": "bytes32",
          "name": "questionHash",
          "type": "bytes32"
        },
        {
          "indexed": false,
          "internalType": "uint8",
          "name": "numOutcomes",
          "type": "uint8"
        },
        {
          "indexed": false,
          "internalType": "uint64",
          "name": "deadline",
          "type": "uint64"
        }
      ],
      "name": "MarketCreated",
      "type": "event"
    },
    {
      "anonymous": false,
      "inputs": [
        {
          "indexed": false,
          "internalType": "address",
          "name": "signer1",
          "type": "address"
        },
        {
          "indexed": false,
          "internalType": "address",
          "name": "signer2",
          "type": "address"
        },
        {
          "indexed": false,
          "internalType": "address",
          "name": "signer3",
          "type": "address"
        },
        {
          "indexed": false,
          "internalType": "uint8",
          "name": "threshold",
          "type": "uint8"
        }
      ],
      "name": "MultisigInitialized",
      "type": "event"
    },
    {
      "anonymous": false,
      "inputs": [
        {
          "indexed": true,
          "internalType": "bytes32",
          "name": "marketId",
          "type": "bytes32"
        },
        {
          "indexed": true,
          "internalType": "address",
          "name": "claimer",
          "type": "address"
        }
      ],
      "name": "RefundClaimed",
      "type": "event"
    },
    {
      "anonymous": false,
      "inputs": [
        {
          "indexed": true,
          "internalType": "bytes32",
          "name": "marketId",
          "type": "bytes32"
        },
        {
          "indexed": false,
          "internalType": "uint8",
          "name": "winningOutcome",
          "type": "uint8"
        }
      ],
      "name": "ResolutionConfirmed",
      "type": "event"
    },
    {
      "anonymous": false,
      "inputs": [
        {
          "indexed": true,
          "internalType": "bytes32",
          "name": "marketId",
          "type": "bytes32"
        },
        {
          "indexed": false,
          "internalType": "address",
          "name": "disputer",
          "type": "address"
        },
        {
          "indexed": false,
          "internalType": "uint8",
          "name": "proposedOutcome",
          "type": "uint8"
        }
      ],
      "name": "ResolutionDisputed",
      "type": "event"
    },
    {
      "anonymous": false,
      "inputs": [
        {
          "indexed": true,
          "internalType": "bytes32",
          "name": "marketId",
          "type": "bytes32"
        },
        {
          "indexed": true,
          "internalType": "address",
          "name": "buyer",
          "type": "address"
        }
      ],
      "name": "SharesBought",
      "type": "event"
    },
    {
      "anonymous": false,
      "inputs": [
        {
          "indexed": true,
          "internalType": "bytes32",
          "name": "marketId",
          "type": "bytes32"
        },
        {
          "indexed": true,
          "internalType": "address",
          "name": "redeemer",
          "type": "address"
        }
      ],
      "name": "SharesRedeemed",
      "type": "event"
    },
    {
      "anonymous": false,
      "inputs": [
        {
          "indexed": true,
          "internalType": "bytes32",
          "name": "marketId",
          "type": "bytes32"
        },
        {
          "indexed": true,
          "internalType": "address",
          "name": "seller",
          "type": "address"
        }
      ],
      "name": "SharesSold",
      "type": "event"
    },
    {
      "anonymous": false,
      "inputs": [
        {
          "indexed": true,
          "internalType": "bytes32",
          "name": "proposalId",
          "type": "bytes32"
        },
        {
          "indexed": false,
          "internalType": "address",
          "name": "signer",
          "type": "address"
        }
      ],
      "name": "TreasuryProposalApproved",
      "type": "event"
    },
    {
      "anonymous": false,
      "inputs": [
        {
          "indexed": true,
          "internalType": "bytes32",
          "name": "proposalId",
          "type": "bytes32"
        },
        {
          "indexed": false,
          "internalType": "address",
          "name": "recipient",
          "type": "address"
        },
        {
          "indexed": false,
          "internalType": "uint128",
          "name": "amount",
          "type": "uint128"
        }
      ],
      "name": "TreasuryProposalCreated",
      "type": "event"
    },
    {
      "anonymous": false,
      "inputs": [
        {
          "indexed": true,
          "internalType": "bytes32",
          "name": "proposalId",
          "type": "bytes32"
        },
        {
          "indexed": false,
          "internalType": "address",
          "name": "recipient",
          "type": "address"
        },
        {
          "indexed": false,
          "internalType": "uint128",
          "name": "amount",
          "type": "uint128"
        }
      ],
      "name": "TreasuryProposalExecuted",
      "type": "event"
    },
    {
      "anonymous": false,
      "inputs": [
        {
          "indexed": true,
          "internalType": "bytes32",
          "name": "marketId",
          "type": "bytes32"
        },
        {
          "indexed": true,
          "internalType": "address",
          "name": "voter",
          "type": "address"
        }
      ],
      "name": "VoteSubmitted",
      "type": "event"
    },
    {
      "anonymous": false,
      "inputs": [
        {
          "indexed": true,
          "internalType": "bytes32",
          "name": "marketId",
          "type": "bytes32"
        },
        {
          "indexed": false,
          "internalType": "uint8",
          "name": "winningOutcome",
          "type": "uint8"
        }
      ],
      "name": "VotesFinalized",
      "type": "event"
    },
    {
      "inputs": [],
      "name": "CREATOR_FEE_BPS",
      "outputs": [
        {
          "internalType": "uint128",
          "name": "",
          "type": "uint128"
        }
      ],
      "stateMutability": "view",
      "type": "function"
    },
    {
      "inputs": [],
      "name": "DISPUTE_BOND_MULTIPLIER",
      "outputs": [
        {
          "internalType": "uint128",
          "name": "",
          "type": "uint128"
        }
      ],
      "stateMutability": "view",
      "type": "function"
    },
    {
      "inputs": [],
      "name": "DISPUTE_WINDOW",
      "outputs": [
        {
          "internalType": "uint64",
          "name": "",
          "type": "uint64"
        }
      ],
      "stateMutability": "view",
      "type": "function"
    },
    {
      "inputs": [],
      "name": "FEE_DENOMINATOR",
      "outputs": [
        {
          "internalType": "uint128",
          "name": "",
          "type": "uint128"
        }
      ],
      "stateMutability": "view",
      "type": "function"
    },
    {
      "inputs": [],
      "name": "LP_FEE_BPS",
      "outputs": [
        {
          "internalType": "uint128",
          "name": "",
          "type": "uint128"
        }
      ],
      "stateMutability": "view",
      "type": "function"
    },
    {
      "inputs": [],
      "name": "MARKET_STATUS_ACTIVE",
      "outputs": [
        {
          "internalType": "uint8",
          "name": "",
          "type": "uint8"
        }
      ],
      "stateMutability": "view",
      "type": "function"
    },
    {
      "inputs": [],
      "name": "MARKET_STATUS_CANCELLED",
      "outputs": [
        {
          "internalType": "uint8",
          "name": "",
          "type": "uint8"
        }
      ],
      "stateMutability": "view",
      "type": "function"
    },
    {
      "inputs": [],
      "name": "MARKET_STATUS_CLOSED",
      "outputs": [
        {
          "internalType": "uint8",
          "name": "",
          "type": "uint8"
        }
      ],
      "stateMutability": "view",
      "type": "function"
    },
    {
      "inputs": [],
      "name": "MARKET_STATUS_RESOLVED",
      "outputs": [
        {
          "internalType": "uint8",
          "name": "",
          "type": "uint8"
        }
      ],
      "stateMutability": "view",
      "type": "function"
    },
    {
      "inputs": [],
      "name": "MIN_LIQUIDITY",
      "outputs": [
        {
          "internalType": "uint128",
          "name": "",
          "type": "uint128"
        }
      ],
      "stateMutability": "view",
      "type": "function"
    },
    {
      "inputs": [],
      "name": "MIN_TRADE_AMOUNT",
      "outputs": [
        {
          "internalType": "uint128",
          "name": "",
          "type": "uint128"
        }
      ],
      "stateMutability": "view",
      "type": "function"
    },
    {
      "inputs": [],
      "name": "MIN_VOTERS",
      "outputs": [
        {
          "internalType": "uint8",
          "name": "",
          "type": "uint8"
        }
      ],
      "stateMutability": "view",
      "type": "function"
    },
    {
      "inputs": [],
      "name": "MIN_VOTE_BOND",
      "outputs": [
        {
          "internalType": "uint128",
          "name": "",
          "type": "uint128"
        }
      ],
      "stateMutability": "view",
      "type": "function"
    },
    {
      "inputs": [],
      "name": "PROTOCOL_FEE_BPS",
      "outputs": [
        {
          "internalType": "uint128",
          "name": "",
          "type": "uint128"
        }
      ],
      "stateMutability": "view",
      "type": "function"
    },
    {
      "inputs": [],
      "name": "STATUS_DISPUTED",
      "outputs": [
        {
          "internalType": "uint8",
          "name": "",
          "type": "uint8"
        }
      ],
      "stateMutability": "view",
      "type": "function"
    },
    {
      "inputs": [],
      "name": "STATUS_PENDING_FINALIZATION",
      "outputs": [
        {
          "internalType": "uint8",
          "name": "",
          "type": "uint8"
        }
      ],
      "stateMutability": "view",
      "type": "function"
    },
    {
      "inputs": [],
      "name": "STATUS_PENDING_RESOLUTION",
      "outputs": [
        {
          "internalType": "uint8",
          "name": "",
          "type": "uint8"
        }
      ],
      "stateMutability": "view",
      "type": "function"
    },
    {
      "inputs": [],
      "name": "VOTER_REWARD_PERCENT",
      "outputs": [
        {
          "internalType": "uint128",
          "name": "",
          "type": "uint128"
        }
      ],
      "stateMutability": "view",
      "type": "function"
    },
    {
      "inputs": [],
      "name": "VOTE_WINDOW",
      "outputs": [
        {
          "internalType": "uint64",
          "name": "",
          "type": "uint64"
        }
      ],
      "stateMutability": "view",
      "type": "function"
    },
    {
      "inputs": [],
      "name": "WINNER_CLAIM_PRIORITY",
      "outputs": [
        {
          "internalType": "uint64",
          "name": "",
          "type": "uint64"
        }
      ],
      "stateMutability": "view",
      "type": "function"
    },
    {
      "inputs": [
        {
          "internalType": "bytes32",
          "name": "marketId",
          "type": "bytes32"
        }
      ],
      "name": "addLiquidity",
      "outputs": [],
      "stateMutability": "payable",
      "type": "function"
    },
    {
      "inputs": [
        {
          "internalType": "bytes32",
          "name": "",
          "type": "bytes32"
        }
      ],
      "name": "ammPools",
      "outputs": [
        {
          "internalType": "uint128",
          "name": "reserve1",
          "type": "uint128"
        },
        {
          "internalType": "uint128",
          "name": "reserve2",
          "type": "uint128"
        },
        {
          "internalType": "uint128",
          "name": "reserve3",
          "type": "uint128"
        },
        {
          "internalType": "uint128",
          "name": "reserve4",
          "type": "uint128"
        },
        {
          "internalType": "uint128",
          "name": "totalLiquidity",
          "type": "uint128"
        },
        {
          "internalType": "uint128",
          "name": "totalLPShares",
          "type": "uint128"
        },
        {
          "internalType": "uint128",
          "name": "totalVolume",
          "type": "uint128"
        }
      ],
      "stateMutability": "view",
      "type": "function"
    },
    {
      "inputs": [
        {
          "internalType": "bytes32",
          "name": "proposalId",
          "type": "bytes32"
        }
      ],
      "name": "approveTreasuryProposal",
      "outputs": [],
      "stateMutability": "nonpayable",
      "type": "function"
    },
    {
      "inputs": [
        {
          "internalType": "bytes32",
          "name": "marketId",
          "type": "bytes32"
        },
        {
          "internalType": "uint8",
          "name": "outcome",
          "type": "uint8"
        },
        {
          "internalType": "uint128",
          "name": "minSharesOut",
          "type": "uint128"
        }
      ],
      "name": "buyShares",
      "outputs": [],
      "stateMutability": "payable",
      "type": "function"
    },
    {
      "inputs": [
        {
          "internalType": "bytes32",
          "name": "marketId",
          "type": "bytes32"
        }
      ],
      "name": "cancelMarket",
      "outputs": [],
      "stateMutability": "nonpayable",
      "type": "function"
    },
    {
      "inputs": [
        {
          "internalType": "bytes32",
          "name": "marketId",
          "type": "bytes32"
        }
      ],
      "name": "claimDisputeBond",
      "outputs": [],
      "stateMutability": "nonpayable",
      "type": "function"
    },
    {
      "inputs": [
        {
          "internalType": "bytes32",
          "name": "marketId",
          "type": "bytes32"
        },
        {
          "internalType": "uint128",
          "name": "lpSharesToRefund",
          "type": "uint128"
        }
      ],
      "name": "claimLPRefund",
      "outputs": [],
      "stateMutability": "nonpayable",
      "type": "function"
    },
    {
      "inputs": [
        {
          "internalType": "bytes32",
          "name": "marketId",
          "type": "bytes32"
        },
        {
          "internalType": "uint8",
          "name": "outcome",
          "type": "uint8"
        },
        {
          "internalType": "uint128",
          "name": "sharesToRefund",
          "type": "uint128"
        }
      ],
      "name": "claimRefund",
      "outputs": [],
      "stateMutability": "nonpayable",
      "type": "function"
    },
    {
      "inputs": [
        {
          "internalType": "bytes32",
          "name": "marketId",
          "type": "bytes32"
        }
      ],
      "name": "claimVoterBond",
      "outputs": [],
      "stateMutability": "nonpayable",
      "type": "function"
    },
    {
      "inputs": [],
      "name": "claimVoterReward",
      "outputs": [],
      "stateMutability": "nonpayable",
      "type": "function"
    },
    {
      "inputs": [
        {
          "internalType": "bytes32",
          "name": "marketId",
          "type": "bytes32"
        }
      ],
      "name": "closeMarket",
      "outputs": [],
      "stateMutability": "nonpayable",
      "type": "function"
    },
    {
      "inputs": [
        {
          "internalType": "bytes32",
          "name": "marketId",
          "type": "bytes32"
        }
      ],
      "name": "confirmResolution",
      "outputs": [],
      "stateMutability": "nonpayable",
      "type": "function"
    },
    {
      "inputs": [
        {
          "internalType": "bytes32",
          "name": "questionHash",
          "type": "bytes32"
        },
        {
          "internalType": "uint8",
          "name": "category",
          "type": "uint8"
        },
        {
          "internalType": "uint8",
          "name": "numOutcomes",
          "type": "uint8"
        },
        {
          "internalType": "uint64",
          "name": "deadline",
          "type": "uint64"
        },
        {
          "internalType": "uint64",
          "name": "resolutionDeadline",
          "type": "uint64"
        },
        {
          "internalType": "address",
          "name": "resolver",
          "type": "address"
        }
      ],
      "name": "createMarket",
      "outputs": [
        {
          "internalType": "bytes32",
          "name": "",
          "type": "bytes32"
        }
      ],
      "stateMutability": "payable",
      "type": "function"
    },
    {
      "inputs": [],
      "name": "deployer",
      "outputs": [
        {
          "internalType": "address",
          "name": "",
          "type": "address"
        }
      ],
      "stateMutability": "view",
      "type": "function"
    },
    {
      "inputs": [
        {
          "internalType": "bytes32",
          "name": "marketId",
          "type": "bytes32"
        },
        {
          "internalType": "uint8",
          "name": "proposedOutcome",
          "type": "uint8"
        }
      ],
      "name": "disputeResolution",
      "outputs": [],
      "stateMutability": "payable",
      "type": "function"
    },
    {
      "inputs": [
        {
          "internalType": "bytes32",
          "name": "proposalId",
          "type": "bytes32"
        }
      ],
      "name": "executeTreasuryProposal",
      "outputs": [],
      "stateMutability": "nonpayable",
      "type": "function"
    },
    {
      "inputs": [
        {
          "internalType": "bytes32",
          "name": "marketId",
          "type": "bytes32"
        }
      ],
      "name": "finalizeVotes",
      "outputs": [],
      "stateMutability": "nonpayable",
      "type": "function"
    },
    {
      "inputs": [
        {
          "internalType": "bytes32",
          "name": "marketId",
          "type": "bytes32"
        }
      ],
      "name": "getEncLPBalance",
      "outputs": [
        {
          "internalType": "euint128",
          "name": "",
          "type": "bytes32"
        }
      ],
      "stateMutability": "view",
      "type": "function"
    },
    {
      "inputs": [
        {
          "internalType": "bytes32",
          "name": "marketId",
          "type": "bytes32"
        },
        {
          "internalType": "uint8",
          "name": "outcome",
          "type": "uint8"
        }
      ],
      "name": "getEncShareBalance",
      "outputs": [
        {
          "internalType": "euint128",
          "name": "",
          "type": "bytes32"
        }
      ],
      "stateMutability": "view",
      "type": "function"
    },
    {
      "inputs": [
        {
          "internalType": "bytes32",
          "name": "marketId",
          "type": "bytes32"
        }
      ],
      "name": "getMarket",
      "outputs": [
        {
          "components": [
            {
              "internalType": "bytes32",
              "name": "id",
              "type": "bytes32"
            },
            {
              "internalType": "address",
              "name": "creator",
              "type": "address"
            },
            {
              "internalType": "address",
              "name": "resolver",
              "type": "address"
            },
            {
              "internalType": "bytes32",
              "name": "questionHash",
              "type": "bytes32"
            },
            {
              "internalType": "uint8",
              "name": "category",
              "type": "uint8"
            },
            {
              "internalType": "uint8",
              "name": "numOutcomes",
              "type": "uint8"
            },
            {
              "internalType": "uint64",
              "name": "deadline",
              "type": "uint64"
            },
            {
              "internalType": "uint64",
              "name": "resolutionDeadline",
              "type": "uint64"
            },
            {
              "internalType": "uint8",
              "name": "status",
              "type": "uint8"
            },
            {
              "internalType": "uint64",
              "name": "createdAt",
              "type": "uint64"
            }
          ],
          "internalType": "struct FhenixMarkets.Market",
          "name": "",
          "type": "tuple"
        }
      ],
      "stateMutability": "view",
      "type": "function"
    },
    {
      "inputs": [
        {
          "internalType": "bytes32",
          "name": "marketId",
          "type": "bytes32"
        }
      ],
      "name": "getPool",
      "outputs": [
        {
          "components": [
            {
              "internalType": "uint128",
              "name": "reserve1",
              "type": "uint128"
            },
            {
              "internalType": "uint128",
              "name": "reserve2",
              "type": "uint128"
            },
            {
              "internalType": "uint128",
              "name": "reserve3",
              "type": "uint128"
            },
            {
              "internalType": "uint128",
              "name": "reserve4",
              "type": "uint128"
            },
            {
              "internalType": "uint128",
              "name": "totalLiquidity",
              "type": "uint128"
            },
            {
              "internalType": "uint128",
              "name": "totalLPShares",
              "type": "uint128"
            },
            {
              "internalType": "uint128",
              "name": "totalVolume",
              "type": "uint128"
            }
          ],
          "internalType": "struct FhenixMarkets.AMMPool",
          "name": "",
          "type": "tuple"
        }
      ],
      "stateMutability": "view",
      "type": "function"
    },
    {
      "inputs": [
        {
          "internalType": "bytes32",
          "name": "marketId",
          "type": "bytes32"
        }
      ],
      "name": "getPrices",
      "outputs": [
        {
          "internalType": "uint128",
          "name": "price1",
          "type": "uint128"
        },
        {
          "internalType": "uint128",
          "name": "price2",
          "type": "uint128"
        },
        {
          "internalType": "uint128",
          "name": "price3",
          "type": "uint128"
        },
        {
          "internalType": "uint128",
          "name": "price4",
          "type": "uint128"
        }
      ],
      "stateMutability": "view",
      "type": "function"
    },
    {
      "inputs": [
        {
          "internalType": "bytes32",
          "name": "marketId",
          "type": "bytes32"
        }
      ],
      "name": "getVoteTally",
      "outputs": [
        {
          "components": [
            {
              "internalType": "uint128",
              "name": "outcome1Bonds",
              "type": "uint128"
            },
            {
              "internalType": "uint128",
              "name": "outcome2Bonds",
              "type": "uint128"
            },
            {
              "internalType": "uint128",
              "name": "outcome3Bonds",
              "type": "uint128"
            },
            {
              "internalType": "uint128",
              "name": "outcome4Bonds",
              "type": "uint128"
            },
            {
              "internalType": "uint8",
              "name": "totalVoters",
              "type": "uint8"
            },
            {
              "internalType": "uint128",
              "name": "totalBonded",
              "type": "uint128"
            },
            {
              "internalType": "uint64",
              "name": "votingDeadline",
              "type": "uint64"
            },
            {
              "internalType": "uint64",
              "name": "disputeDeadline",
              "type": "uint64"
            },
            {
              "internalType": "bool",
              "name": "finalized",
              "type": "bool"
            },
            {
              "internalType": "uint8",
              "name": "winningOutcome",
              "type": "uint8"
            }
          ],
          "internalType": "struct FhenixMarkets.VoteTally",
          "name": "",
          "type": "tuple"
        }
      ],
      "stateMutability": "view",
      "type": "function"
    },
    {
      "inputs": [
        {
          "internalType": "address",
          "name": "signer1",
          "type": "address"
        },
        {
          "internalType": "address",
          "name": "signer2",
          "type": "address"
        },
        {
          "internalType": "address",
          "name": "signer3",
          "type": "address"
        }
      ],
      "name": "initMultisig",
      "outputs": [],
      "stateMutability": "nonpayable",
      "type": "function"
    },
    {
      "inputs": [],
      "name": "marketCount",
      "outputs": [
        {
          "internalType": "uint256",
          "name": "",
          "type": "uint256"
        }
      ],
      "stateMutability": "view",
      "type": "function"
    },
    {
      "inputs": [
        {
          "internalType": "bytes32",
          "name": "",
          "type": "bytes32"
        }
      ],
      "name": "marketCredits",
      "outputs": [
        {
          "internalType": "uint128",
          "name": "",
          "type": "uint128"
        }
      ],
      "stateMutability": "view",
      "type": "function"
    },
    {
      "inputs": [
        {
          "internalType": "bytes32",
          "name": "",
          "type": "bytes32"
        }
      ],
      "name": "marketFees",
      "outputs": [
        {
          "internalType": "uint128",
          "name": "protocolFees",
          "type": "uint128"
        },
        {
          "internalType": "uint128",
          "name": "creatorFees",
          "type": "uint128"
        }
      ],
      "stateMutability": "view",
      "type": "function"
    },
    {
      "inputs": [
        {
          "internalType": "bytes32",
          "name": "",
          "type": "bytes32"
        }
      ],
      "name": "markets",
      "outputs": [
        {
          "internalType": "bytes32",
          "name": "id",
          "type": "bytes32"
        },
        {
          "internalType": "address",
          "name": "creator",
          "type": "address"
        },
        {
          "internalType": "address",
          "name": "resolver",
          "type": "address"
        },
        {
          "internalType": "bytes32",
          "name": "questionHash",
          "type": "bytes32"
        },
        {
          "internalType": "uint8",
          "name": "category",
          "type": "uint8"
        },
        {
          "internalType": "uint8",
          "name": "numOutcomes",
          "type": "uint8"
        },
        {
          "internalType": "uint64",
          "name": "deadline",
          "type": "uint64"
        },
        {
          "internalType": "uint64",
          "name": "resolutionDeadline",
          "type": "uint64"
        },
        {
          "internalType": "uint8",
          "name": "status",
          "type": "uint8"
        },
        {
          "internalType": "uint64",
          "name": "createdAt",
          "type": "uint64"
        }
      ],
      "stateMutability": "view",
      "type": "function"
    },
    {
      "inputs": [],
      "name": "multisig",
      "outputs": [
        {
          "internalType": "address",
          "name": "signer1",
          "type": "address"
        },
        {
          "internalType": "address",
          "name": "signer2",
          "type": "address"
        },
        {
          "internalType": "address",
          "name": "signer3",
          "type": "address"
        },
        {
          "internalType": "uint8",
          "name": "threshold",
          "type": "uint8"
        },
        {
          "internalType": "bool",
          "name": "initialized",
          "type": "bool"
        }
      ],
      "stateMutability": "view",
      "type": "function"
    },
    {
      "inputs": [
        {
          "internalType": "bytes32",
          "name": "",
          "type": "bytes32"
        }
      ],
      "name": "multisigApprovals",
      "outputs": [
        {
          "internalType": "bool",
          "name": "",
          "type": "bool"
        }
      ],
      "stateMutability": "view",
      "type": "function"
    },
    {
      "inputs": [
        {
          "internalType": "address",
          "name": "recipient",
          "type": "address"
        },
        {
          "internalType": "uint128",
          "name": "amount",
          "type": "uint128"
        }
      ],
      "name": "proposeTreasuryWithdrawal",
      "outputs": [
        {
          "internalType": "bytes32",
          "name": "",
          "type": "bytes32"
        }
      ],
      "stateMutability": "nonpayable",
      "type": "function"
    },
    {
      "inputs": [
        {
          "internalType": "bytes32",
          "name": "marketId",
          "type": "bytes32"
        },
        {
          "internalType": "uint128",
          "name": "sharesToRedeem",
          "type": "uint128"
        }
      ],
      "name": "redeemShares",
      "outputs": [],
      "stateMutability": "nonpayable",
      "type": "function"
    },
    {
      "inputs": [
        {
          "internalType": "bytes32",
          "name": "marketId",
          "type": "bytes32"
        },
        {
          "internalType": "uint8",
          "name": "outcome",
          "type": "uint8"
        },
        {
          "internalType": "uint128",
          "name": "sharesToSell",
          "type": "uint128"
        },
        {
          "internalType": "uint128",
          "name": "minTokensOut",
          "type": "uint128"
        }
      ],
      "name": "sellShares",
      "outputs": [],
      "stateMutability": "nonpayable",
      "type": "function"
    },
    {
      "inputs": [
        {
          "internalType": "bytes32",
          "name": "",
          "type": "bytes32"
        }
      ],
      "name": "treasuryProposals",
      "outputs": [
        {
          "internalType": "bytes32",
          "name": "id",
          "type": "bytes32"
        },
        {
          "internalType": "address",
          "name": "proposer",
          "type": "address"
        },
        {
          "internalType": "address",
          "name": "recipient",
          "type": "address"
        },
        {
          "internalType": "uint128",
          "name": "amount",
          "type": "uint128"
        },
        {
          "internalType": "uint8",
          "name": "approvals",
          "type": "uint8"
        },
        {
          "internalType": "bool",
          "name": "executed",
          "type": "bool"
        },
        {
          "internalType": "uint64",
          "name": "createdAt",
          "type": "uint64"
        }
      ],
      "stateMutability": "view",
      "type": "function"
    },
    {
      "inputs": [
        {
          "internalType": "bytes32",
          "name": "marketId",
          "type": "bytes32"
        },
        {
          "internalType": "uint8",
          "name": "outcome",
          "type": "uint8"
        }
      ],
      "name": "voteOutcome",
      "outputs": [],
      "stateMutability": "payable",
      "type": "function"
    },
    {
      "inputs": [
        {
          "internalType": "bytes32",
          "name": "",
          "type": "bytes32"
        }
      ],
      "name": "voteTallies",
      "outputs": [
        {
          "internalType": "uint128",
          "name": "outcome1Bonds",
          "type": "uint128"
        },
        {
          "internalType": "uint128",
          "name": "outcome2Bonds",
          "type": "uint128"
        },
        {
          "internalType": "uint128",
          "name": "outcome3Bonds",
          "type": "uint128"
        },
        {
          "internalType": "uint128",
          "name": "outcome4Bonds",
          "type": "uint128"
        },
        {
          "internalType": "uint8",
          "name": "totalVoters",
          "type": "uint8"
        },
        {
          "internalType": "uint128",
          "name": "totalBonded",
          "type": "uint128"
        },
        {
          "internalType": "uint64",
          "name": "votingDeadline",
          "type": "uint64"
        },
        {
          "internalType": "uint64",
          "name": "disputeDeadline",
          "type": "uint64"
        },
        {
          "internalType": "bool",
          "name": "finalized",
          "type": "bool"
        },
        {
          "internalType": "uint8",
          "name": "winningOutcome",
          "type": "uint8"
        }
      ],
      "stateMutability": "view",
      "type": "function"
    },
    {
      "inputs": [
        {
          "internalType": "bytes32",
          "name": "marketId",
          "type": "bytes32"
        }
      ],
      "name": "withdrawCreatorFees",
      "outputs": [],
      "stateMutability": "nonpayable",
      "type": "function"
    },
    {
      "inputs": [
        {
          "internalType": "bytes32",
          "name": "marketId",
          "type": "bytes32"
        },
        {
          "internalType": "uint128",
          "name": "lpSharesToWithdraw",
          "type": "uint128"
        }
      ],
      "name": "withdrawLiquidity",
      "outputs": [],
      "stateMutability": "nonpayable",
      "type": "function"
    },
    {
      "inputs": [
        {
          "internalType": "uint128",
          "name": "amount",
          "type": "uint128"
        }
      ],
      "name": "withdrawProtocolFees",
      "outputs": [],
      "stateMutability": "nonpayable",
      "type": "function"
    },
    {
      "stateMutability": "payable",
      "type": "receive"
    }
  ],
  "bytecode": "0x60808060405234604a5760017f9b779b17422d0df92223018b32b4d1fa46e071723d6817e2486d003becc55f00555f80546001600160a01b03191633179055615464908161004f8239f35b5f80fdfe6080604052600436101561001a575b3615610018575f80fd5b005b5f3560e01c806301f559fe1461445f578063027d0d1d146142ca578063031d973e146140b2578063054c8a7b14613e6f578063065981c014613d895780630ebc6780146137b15780630f564be2146136455780631672c39d146133cd5780631dfe3bbf1461315657806320f5177414610aa157806321b77d63146111525780632b2b7b931461117e578063304c15d7146130ca57806331b7d413146130ae5780633d4d56fe14612f2557806341c14c1c14612dfd578063428dea3114612ddc57806343661c9f14612cdf5780634432662f14612cac57806344a6e32314612ae3578063469a78d214610aa15780634783c35b14612a905780634a51b30814612a755780634aa7f2dc14612a5a57806356a1f3e2146128b657806359fe5a921461261c57806368eb5ace146125a557806370160b4d146124fc5780637564912b1461245357806378f5b524146122e3578063852e3a0614611fea578063891b591b14611fbb5780639088de9514611dbc5780639b4df39d14611da15780639d223d4714611d2b5780639de28fe01461150f5780639de63278146114f45780639e46a777146114d95780639ed6b525146114be5780639f4c4deb146114a3578063a207d02e14611488578063a52582101461146d578063a567298d14611433578063b06136e1146113f8578063bdb83289146112c3578063be37822814611183578063c3c95c7b14611188578063cc3cbd2a14611183578063d1791ae01461117e578063d5f3948814611157578063d73792a914611152578063dbe0f244146110c1578063dd8c9f8c14610d18578063e3d7840d14610ce5578063e86e951514610ac3578063ec97908214610aa6578063f585dc5714610aa1578063f6c00927146109a55763fc5b42cc0361000e576102b03661457f565b90825f5260026020526102d360018060a01b03600160405f20015416151561461c565b825f526002602052600460405f200161032681546102f9600160ff8360901c16146148e2565b6103116001600160401b038260101c16421115614d2c565b600160ff851610159081610991575b50614dac565b6103e86001600160801b0334161061095c5761271091826001600160801b03610350813416614a5c565b1604926001600160801b03610366813416614a5c565b1604926103e961038885610383846001600160801b03341661478d565b61478d565b94875f5260046020526103c960405f209182546001600160801b036103af87828416614d11565b6001600160801b031990921691161780845560801c614d11565b81546001600160801b031660809190911b6001600160801b031916179055565b6001600160801b03610400600e5492828416614d11565b16906001600160801b03191617600e55845f52600360205260ff60405f20925460081c169460405194610432866147f0565b608036873783546001600160801b0381168752608081901c60208801529360038810610956576001600160801b036001820154165b60408801526004881061095057600181015460801c5b606088015261049760ff610490866151b7565b1688615192565b519788670de0b6b3a7640000810204670de0b6b3a7640000148915171561093c57670de0b6b3a76400008902955f5b8260ff8216101561054957888a60ff6104de8a6151b7565b1660ff8416036104f6575b505060010160ff166104c6565b6001916105388461053261053e9460ff839f6105286001600160801b039161052184809d1686615192565b519061496d565b9616931690615192565b51614960565b90614956565b98915050888a6104e9565b5060036106f29389806106dd958a958f6001600160801b03808f61059293610582670de0b6b3a7640000610587930491848a1690614960565b6151c9565b169b168b1015614e26565b61059d8a1515614c5c565b60ff871660010361076f57506106076105e76004938b6001600160801b036105cf895492610582838616848616614960565b16906001600160801b0319161780885560801c614d11565b85546001600160801b031660809190911b6001600160801b031916178555565b84811015610741575b1015610727575b60028201906001600160801b03610632835492828416614d11565b16906001600160801b0319161790550180546001600160801b0361065a813416828416614d11565b16906001600160801b031916179055845f52600660205260405f2080546001600160801b0361068d813416828416614d11565b16906001600160801b0319161790556106a68186614e8c565b5f52601260205260405f2080546001600160801b036106c787828416614d11565b16906001600160801b0319161790553385614eba565b91825f526010602052339060405f205461506a565b905f52601060205260405f205533907fec5205380e845af9d5882d14b944f8bae155a20d9206a436abf70a61108568df5f80a3005b61073c600183016103c983825460801c614d11565b610617565b6001840180546001600160801b0361075b86828416614d11565b16906001600160801b031916179055610610565b60ff87166002036108255750600491506107d46001600160801b036107b58b6105828854846107a08a828416614d11565b169085191617808a558489169060801c614960565b86546001600160801b0316911660801b6001600160801b031916178555565b848110156107f7575b106106175761073c600183016103c983825460801c614d11565b6001840180546001600160801b0361081186828416614d11565b16906001600160801b0319161790556107dd565b60ff871686036108a8575061084d6105e78386546001600160801b036105cf83828416614d11565b6001840190600482546001600160801b036108708d610582838916848616614960565b16906001600160801b03191617918284551015610890575b505050610617565b6108a0926103c99160801c614d11565b808980610888565b6105e783826001600160801b036105cf8a97826108c59716614d11565b101561090e575b61073c600183016001600160801b036108ef8a610582838716855460801c614960565b82546001600160801b0316911660801b6001600160801b031916179055565b6001820180546001600160801b0361092884828416614d11565b16906001600160801b0319161790556108cc565b634e487b7160e01b5f52601160045260245ffd5b5f61047d565b5f610467565b60405162461bcd60e51b815260206004820152600d60248201526c42656c6f77206d696e696d756d60981b6044820152606490fd5b60ff915060081c1660ff841611155f610320565b34610a9d576020366003190112610a9d576040516109c2816147c2565b5f8152602081015f9052604081015f9052606081015f90526080908181015f905260a081015f905260c0015f90526004355f52600360205260405f2090604051610a0b816147c2565b8254916001600160801b0392839182808316968786526020860193831c84528160018201548160408901818316815260608a0192871c83528160028601549881898d01978d828d168a5260a0019b8b1c8c5260030154169b60c0019b8c526040519d8e52511660208d0152511660408b015251166060890152511690860152511660a0840152511660c082015260e090f35b5f80fd5b6145c9565b34610a9d575f366003190112610a9d576020600154604051908152f35b34610a9d576060366003190112610a9d57610adc6145b3565b6024356001600160a01b038181169291839003610a9d5760443590808216809203610a9d57610b0f815f54163314614dea565b6015549260ff8460a81c16610ca057169081151580610c97575b80610c8e575b15610c5b578382141580610c51575b80610c47575b15610c0e576040519360a08501938585106001600160401b03861117610bfa57600160807ff5b31633ffe7ba0e7371bfeec0d902cc200a5ecbb09cd7554475c5459dbfe124978197604052868152846020820152856040820152600260608201520152816001600160601b0360a01b85816013541617601355601454161760145582608160a11b9169ffffffffffffffffffff60b01b1617176015556040519283526020830152604082015260026060820152a1005b634e487b7160e01b5f52604160045260245ffd5b60405162461bcd60e51b81526020600482015260116024820152704475706c6963617465207369676e65727360781b6044820152606490fd5b5080821415610b44565b5080841415610b3e565b60405162461bcd60e51b815260206004820152600b60248201526a2d32b9379039b4b3b732b960a91b6044820152606490fd5b50801515610b2f565b50831515610b29565b60405162461bcd60e51b815260206004820152601c60248201527f4d756c746973696720616c726561647920696e697469616c697a6564000000006044820152606490fd5b34610a9d576020366003190112610a9d576004355f52600660205260206001600160801b0360405f205416604051908152f35b34610a9d576040366003190112610a9d57610d316145b3565b610d39614569565b6013546001600160a01b039291908316331480156110b4575b80156110a7575b610d6290614695565b60ff60155460a81c16156110625782821691821561102c576001600160801b0393848316908115158061101e575b15610fe8576040516020968782013360601b81526001600160601b03198660601b1660348401526001600160801b031992838860801b16604882015242605882015260588152610ddf816147f0565b51902096875f526016895283600160405f20015416610fba5788610ed460ff7f10a0fbf014675a969752e045d74f8c85dd79c6a693685b1177833061d50b639d98968b9a98968b966003610eef9760405190610e3a826147c2565b8a825288820133815260408301918252606083019c8d52608083019660018852601660a085019b5f8d5260c086019e8f6001600160401b03421690525f525260405f20935184558060018501925116916001600160601b0360a01b9283825416179055600284019251169082541617905501985116908854161787555116859081549060ff60801b9060801b169060ff60801b1916179055565b51835460ff60881b191690151560881b60ff60881b16178355565b51815467ffffffffffffffff60901b191660909190911b67ffffffffffffffff60901b161790556040518681018581523360601b6001600160601b031916602082015290610f4a81603484015b03601f198101835282614841565b5190205f90815260178752604090819020805460ff1916600117905580516001600160a01b039290921682526001600160801b03929092166020820152a2807f2ff0cda1d4b877c99bc53902ce7b326e79084be3e3c28139b9e724e97236a18c83604051338152a2604051908152f35b60405162461bcd60e51b8152600481018a9052600660248201526545786973747360d01b6044820152606490fd5b60405162461bcd60e51b815260206004820152600e60248201526d125b9d985b1a5908185b5bdd5b9d60921b6044820152606490fd5b5085600e5416821115610d90565b60405162461bcd60e51b815260206004820152600e60248201526d16995c9bc81c9958da5c1a595b9d60921b6044820152606490fd5b60405162461bcd60e51b815260206004820152601860248201527f4d756c7469736967206e6f7420696e697469616c697a656400000000000000006044820152606490fd5b5060155483163314610d59565b5082601454163314610d52565b34610a9d575f366003190112610a9d57335f52600f6020526001600160801b0360405f2054168015611120575f80808061001894338252600f602052604082206001600160801b03198154169055335af161111a614862565b506148a0565b60405162461bcd60e51b815260206004820152600a6024820152694e6f207265776172647360b01b6044820152606490fd5b6145e5565b34610a9d575f366003190112610a9d575f546040516001600160a01b039091168152602090f35b6114be565b614601565b34610a9d576020366003190112610a9d576111a1614d62565b506004355f52600260205261014060405f206001600160401b036101206040516111ca816147a6565b82600485549586845260018060a01b03600182015416602085015260018060a01b03600282015416604085015260038101546060850152015460ff8116608084015260ff8160081c1660a0840152818160101c1660c0840152818160501c1660e084015260ff8160901c1661010084015260981c168282015260405193845260018060a01b03602082015116602085015260018060a01b0360408201511660408501526060810151606085015260ff608082015116608085015260ff60a08201511660a08501528260c08201511660c08501528260e08201511660e085015260ff61010082015116610100850152015116610120820152f35b34610a9d576020366003190112610a9d576004355f818152600260205260409020600101546001600160a01b03906112fe908216151561461c565b815f52600260205260405f20908060018301541633149081156113eb575b50156113b557600401805460ff8160901c16600181149081156113aa575b50156113755760ff60901b1916600160921b1790557f22ad0fb1e02d1db96e8800dac4e4b23821afaf9e1ca54d2093e7bc7fb8732b5a5f80a2005b60405162461bcd60e51b815260206004820152600d60248201526c10d85b9b9bdd0818d85b98d95b609a1b6044820152606490fd5b60059150148461133a565b60405162461bcd60e51b815260206004820152600e60248201526d139bdd08185d5d1a1bdc9a5e995960921b6044820152606490fd5b90505f541633148361131c565b34610a9d576040366003190112610a9d5761141d611414614559565b33600435614eba565b5f526010602052602060405f2054604051908152f35b34610a9d576020366003190112610a9d576004355f5260046020526040805f20548151906001600160801b038116825260801c6020820152f35b34610a9d575f366003190112610a9d57602060405160648152f35b34610a9d575f366003190112610a9d57602060405160078152f35b34610a9d575f366003190112610a9d57602060405160058152f35b34610a9d575f366003190112610a9d57602060405160038152f35b34610a9d575f366003190112610a9d57602060405160018152f35b34610a9d575f366003190112610a9d57602060405160068152f35b34610a9d576080366003190112610a9d57611528614559565b6001600160801b036044351660443503610a9d576064356001600160801b0381168103610a9d57611557614e5d565b6004355f9081526002602052604090206001015461157f906001600160a01b0316151561461c565b6004355f526002602052600460405f200154906115a4600160ff8460901c16146148e2565b6115bc6001600160401b038360101c16421115614d2c565b600160ff8416101580611d13575b6115d390614dac565b6115e96001600160801b03604435161515614c5c565b6004355f52600360205260405f2091604051611604816147f0565b608036823783546001600160801b038116825260801c60208201526003600883901c60ff1610611d0d576001600160801b036001850154165b60408201526004600883901c60ff1610611d0757600184015460801c5b606082015261167460ff61166d876151b7565b1682615192565b515f91816001600160801b03600288015416808211611cff575b505f5b60808110611b69575b505050506127106001600160801b036116b4818416614a5c565b1604906127106001600160801b036116cd818416614a5c565b16049360646001600160801b03831602806001600160801b0381160361093c576118e5976118545f989761184f8a99976001600160801b039760038c9b9a8c9b61173a8c61172e612710826118b39e16046103838b6103838b868c1661478d565b9c168d8d161015614e26565b6004358d52600460205261177d60408e206103c98982546001600160801b036117658b828416614d11565b16906001600160801b0319161780845560801c614d11565b600e548c61178d87828416614d11565b16908d191617600e55600160ff8a16148d146119655760ff6004916117f66105e785546001600160801b036117d3818b16826117cd604435828716614d11565b1661478d565b16906001600160801b031916178087556001600160801b0389169060801c61478d565b84828260081c16101561193c575b60081c161015611920575b60028101548b61182381861682841661478d565b16908c19161760028201550190896118418184549316828416614d11565b16908a191617905586614d11565b614d11565b6004358652600660205260408620908561187283549282841661478d565b169086191617905561188681600435614e8c565b85526012602052604085208054856118a260443582841661478d565b169086191617905533600435614eba565b80845260106020526118cc336044356040872054614ef5565b9084526010602052604084205516335af161111a614862565b336004357f156358d3313311b9cdea40c0032b0ede9785d6af7566ee589e1ec8723d86f8725f80a360015f8051602061540f83398151915255005b611937600182016103c98d8616825460801c61478d565b61180f565b6001840180548f611951818a1682841661478d565b16906001600160801b031916179055611804565b600260ff8a16148d14611a1b5760ff6004916119b16105e785546001600160801b03611995818b1682841661478d565b16906001600160801b031916178087556044359060801c614d11565b6119c46105e78f8816865460801c61478d565b84828260081c1610156119f2575b60081c161061180f57611937600182016103c98d8616825460801c61478d565b6001840180548f611a07818a1682841661478d565b16906001600160801b0319161790556119d2565b8260ff8a16148d14611ad057611a73611a5383548e611a3e81891682841661478d565b16908f1916178085558e87169060801c61478d565b83546001600160801b031660809190911b6001600160801b031916178355565b60018201600460ff82548f611a93818a16826117cd604435828716614d11565b16906001600160801b031916179384845560081c161015611ab6575b505061180f565b6103c9611ac9928e87169060801c61478d565b5f80611aaf565b60ff8391611af26105e785546001600160801b036117d3818b1682841661478d565b60081c161015611b47575b61193760018201611b37611b17604435835460801c614d11565b82546001600160801b031660809190911b6001600160801b031916178255565b6103c98d8616825460801c61478d565b6001810180548c611b5c81871682841661478d565b16908d1916179055611afd565b9195611b7c84869a959a99939799614960565b9760018901891161093c5786670de0b6b3a7640000810204670de0b6b3a7640000148715171561093c57670de0b6b3a76400008702955f5b60ff811660ff8460081c16811015611ced5760ff611bd1896151b7565b168103611be5575b5060010160ff16611bb4565b909760018c0160011c611bf8838d615192565b511115611c3657611c2e8c6105388d611c28866001611c1e819861052160ff9b87615192565b9501871c92615192565b516151c9565b989150611bd9565b50509096929891979395505f999499195b5f19908019611cdd5750805b8181148015611cd4575b15611cb55750805b6044356001600160801b031610611c9457505060010160011c935b838514611c8f57600101611691565b61169a565b90959450906001808201901c8083011161093c5760010160011c0192611c80565b611ccf90611cca866001870160011c926151c9565b614960565b611c65565b50848110611c5d565b670de0b6b3a76400009004611c53565b50509096929891979395999499611c47565b92508861168e565b5f61165a565b5f61163d565b506115d360ff8360081c1660ff8516111590506115ca565b34610a9d576020366003190112610a9d576001600160801b03600435818116808203610a9d575f80808093866100189660018060a01b0384541691611d71833314614dea565b611d87600e54928284166103838188111561474e565b16906001600160801b03191617600e555af161111a614862565b34610a9d575f366003190112610a9d57602060405160148152f35b34610a9d576040366003190112610a9d57600435611dd8614569565b611de0614e5d565b815f52602060028152611e0360018060a01b03600160405f20015416151561461c565b825f5260028152611e23600360ff600460405f20015460901c1614614c21565b825f526005815260ff600360405f20015460481c1660018110611f8a575f8085611f519560108396611f3d611f2a86986001600160801b03611e688188161515614c5c565b878952600385526040892090611eb1611e81848b614e8c565b92838c5260128852611eac836002818f60409020541693611ea3851515614a24565b0154168b614a77565b614a95565b9181831699611ec18b1515614c96565b808c5260068852611eda8360408e2054168c1115614cd0565b8b526006875260408b2082611ef382549582871661478d565b166001600160801b03198095161790558a526012865260408a2091825491611f1d8a82851661478d565b169116179055338d614eba565b9384875283835233906040882054614ef5565b928552526040832055335af161111a614862565b33907f88346dcdee99ace62532c80966a072daf536d79410106b9059222549ea3df6d15f80a360015f8051602061540f83398151915255005b60405162461bcd60e51b81526004810183905260096024820152682737903bb4b73732b960b91b6044820152606490fd5b34610a9d576020366003190112610a9d576004355f526017602052602060ff60405f2054166040519015158152f35b6040366003190112610a9d57600435612001614559565b815f5260206002815261202460018060a01b03600160405f20015416151561461c565b825f5260028152600460405f20015460ff91612051838360901c16600581149081156122d8575b50614b35565b845f526005815260405f209060028201936001600160401b039586865460881c1642116122a357816120939116948260018710159182612293575b5050614dac565b6001600160801b03918234169366038d7ea4c680008510612263576120b8338a61503d565b95865f52600783528460405f205460081c1661222e576040519860608a019081118a821017610bfa5761218e9961218898612142926040528382526007868301968a885260408401925f84525f5252612127888860405f209451169760ff199889865416178555511683614934565b51815460ff60881b191690151560881b60ff60881b16179055565b600181036121b6575080548461215a87828416614d11565b16906001600160801b0319161790555b855491612178818416614b24565b1691161780855560081c16614d11565b90614934565b33907ff256f79267f8b24554957b1869434b0308258b011f7bebd8a5519a8ba62e10515f80a3005b600281036121d65750806103c9866121d1935460801c614d11565b61216a565b6003810361220557506001018054846121f187828416614d11565b16906001600160801b03191617905561216a565b600414612213575b5061216a565b600161222891016103c986825460801c614d11565b8861220d565b60405162461bcd60e51b815260048101849052600d60248201526c105b1c9958591e481d9bdd1959609a1b6044820152606490fd5b60405162461bcd60e51b8152600481018390526008602482015267135a5b88189bdb9960c21b6044820152606490fd5b60081c168611159050828a61208c565b60405162461bcd60e51b815260048101849052600d60248201526c159bdd1a5b99c818db1bdcd959609a1b6044820152606490fd5b60079150148761204b565b34610a9d576020366003190112610a9d576122fc614d62565b506004355f52600560205261014060405f2060ff61012060405161231f816147a6565b8260038554956001600160801b03871684528660801c602085015260018101546001600160801b038116604086015260801c60608501526001600160401b03600282015484811660808701526001600160801b038160081c1660a087015260881c1660c085015201546001600160401b03811660e0840152818160401c16151561010084015260481c16828201526001600160801b03604051941684526001600160801b0360208201511660208501526001600160801b0360408201511660408501526001600160801b0360608201511660608501528260808201511660808501526001600160801b0360a08201511660a08501526001600160401b0360c08201511660c08501526001600160401b0360e08201511660e08501526101008101511515610100850152015116610120820152f35b34610a9d576020366003190112610a9d576004355f52600260205261014060405f2080549060018060a01b039081600182015416916002820154169060046003820154910154916001600160401b039360405195865260208601526040850152606084015260ff8116608084015260ff8160081c1660a0840152818160101c1660c0840152818160501c1660e084015260ff8160901c1661010084015260981c16610120820152f35b34610a9d576020366003190112610a9d576004355f52600560205261014060405f2060ff81549160036001600160801b03916001810154926002820154906001600160401b0393849301549460405197828116895260801c6020890152818116604089015260801c606088015285821660808801528160081c1660a087015260881c1660c0850152811660e0840152818160401c16151561010084015260481c16610120820152f35b34610a9d576020366003190112610a9d576004355f52600360205260e060405f208054906001600160801b03906001810154918060036002840154930154169260405194828116865260801c6020860152818116604086015260801c60608501528116608084015260801c60a083015260c0820152f35b602080600319360112610a9d576004355f818152600283526040902060010154612650906001600160a01b0316151561461c565b805f5260028252600460405f200154612671600160ff8360901c16146148e2565b6126896001600160401b038260101c16421115614d2c565b6001600160801b0392833416936126a4612710861015614ae8565b835f526003825260405f20946002860180548060801c80155f1461289a575082955b848716156128645791601196979860046127919361275c61273c888a61272360ff61271d9b60081c169588549b8c91611eac858416966127138761270a8a84614a77565b94168094614a95565b9460801c90614a77565b93614d11565b166001600160801b0319809a161780875560801c614d11565b84546001600160801b031660809190911b6001600160801b031916178455565b6003811015612834575b1015612802575b506103c9888254858861278289828516614d11565b1691161780845560801c614d11565b865f526006845260405f20926127ab845493828516614d11565b1691161790556127d16127be338661503d565b93845f52838352339060405f205461506a565b925f525260405f205533907f65bd878891ea37abce70f965ba375cfda3a5bceabfacdf0d2c8f2aee66d598e65f80a3005b600161282e91016103c9815460801c61282861281e828a614a77565b8a87541690614a95565b90614d11565b8961276d565b600183018054878a61285981841661282861284f828f614a77565b848c541690614a95565b169116179055612766565b60405162461bcd60e51b815260048101879052600e60248201526d5a65726f204c502073686172657360901b6044820152606490fd5b6128a76128b09185614a77565b85831690614a95565b956126c6565b34610a9d57602080600319360112610a9d576004355f8181526002835260409020600101546128ef906001600160a01b0316151561461c565b805f526002825261291960ff600460405f20015460901c1660038114908115612a4f575b50614baf565b612923338261503d565b5f526007825260405f208054926001600160801b0392838560081c169061294b821515614beb565b61295b60ff8760881c1615614b71565b5f526005825260405f2060ff829681600384015460481c16918291161480612a46575b6129a9575b845460ff60881b1916600160881b1785556100185f8080808b8b16335af161111a614862565b91949092956004875260148260405f205416029482861695860361093c57610018975f9788976129dc8998978998615139565b908682166129f4575b50505050945095819550612983565b82939550612a1591611eac600f946064612a0e9404614a77565b8093614d11565b9333875252604085209084612a2e835492828416614d11565b16906001600160801b031916179055888080806129e5565b5080151561297e565b600491501484612913565b34610a9d575f366003190112610a9d57602060405160028152f35b34610a9d575f366003190112610a9d57602060405160048152f35b34610a9d575f366003190112610a9d5760a0600180821b0360ff816013541691806014541690601554916040519485526020850152811660408401528181851c16606084015260a81c1615156080820152f35b34610a9d576040366003190112610a9d57600435612aff614569565b612b07614e5d565b815f52602060028152612b2a60018060a01b03600160405f20015416151561461c565b825f5260028152612b4a600360ff600460405f20015460901c1614614c21565b825f52600581526003612b6d60405f206001600160401b0392839101541661491b565b16421115612c76575f808085612c3d95601183966001600160801b03612b968185161515614c5c565b8486526003825260026040872001805490612bf0611b1787612bc8612bbd87871683614a77565b9560801c8096614a95565b948686169a612bd88c1515614c96565b8c52600688526103838760408e2054168c1115614cd0565b80549083612c008482851661478d565b166001600160801b03198093161790558c8852600684526040882092612c2a84549382851661478d565b169116179055611f3d611f2a338c61503d565b33907fc7ddda68b458058660231a324ab142da47b73920572f869d97a99c09c1c50bcd5f80a360015f8051602061540f83398151915255005b6064906040519062461bcd60e51b82526004820152600f60248201526e5072696f726974792077696e646f7760881b6044820152fd5b34610a9d576020366003190112610a9d57612cc93360043561503d565b5f526011602052602060405f2054604051908152f35b34610a9d57602080600319360112610a9d5760043590815f526002815260018060a01b03612d1781600160405f20015416151561461c565b825f526009825260405f2054163303612da9575f8080846008829561001897845260028152612d5e60ff600460408720015460901c1660038114908115612d9e5750614baf565b8284528181526001600160801b0360408520541692612d7e841515614beb565b8452526040822080546001600160801b0319169055335af161111a614862565b60049150148a612913565b6064906040519062461bcd60e51b82526004820152600c60248201526b2737ba103234b9b83aba32b960a11b6044820152fd5b34610a9d575f366003190112610a9d57602060405166038d7ea4c680008152f35b34610a9d57602080600319360112610a9d5760043590815f526002815260018060a01b03612e3581600160405f20015416151561461c565b825f526002825260405f20906001820154163303612ef25760ff6004612e6c92015460901c1660038114908115612a4f5750614baf565b815f52600c8152612e8460ff60405f20541615614b71565b815f526004815260405f205460801c918215612ec3575f8061001894600c8295839584525260408220600160ff19825416179055335af161111a614862565b60405162461bcd60e51b81526004810183905260076024820152664e6f206665657360c81b6044820152606490fd5b60405162461bcd60e51b815260048101839052600b60248201526a2737ba1031b932b0ba37b960a91b6044820152606490fd5b34610a9d576040366003190112610a9d576004356130755f808080612f48614569565b612f50614e5d565b86825260209060028252612f7460018060a01b03600160408620015416151561461c565b87835260028252612f93600460ff8160408720015460901c1614614980565b60116001600160801b0392612fab84841615156149f2565b611f3d612fb8338c61503d565b93848752600d8352612fd160ff60408920541615614b71565b8b87526003835260026040882001958c875497612ffe612ff3848b1686614a77565b9960801c809a614a95565b91808b5260068752613024611a53868660408f2054169c6103838888169e8f1115614aad565b815491846130348582861661478d565b166001600160801b03198094161790558a526006865260408a209261305d84549382851661478d565b16911617905584875283835233906040882054614ef5565b33907fb3a981a51a138d30ed018f025a13f99d6eac339dcc88dec2adeb4c191eadb1ed5f80a360015f8051602061540f83398151915255005b34610a9d575f366003190112610a9d5760206040516103e88152f35b34610a9d576020366003190112610a9d576004355f52601660205260e060405f206001600160401b0381549160018060a01b03906003826001830154169260028301541691015491604051948552602085015260408401526001600160801b038116606084015260ff8160801c16608084015260ff8160881c16151560a084015260901c1660c0820152f35b34610a9d57602080600319360112610a9d576004355f81815260028352604090206001015461318f906001600160a01b0316151561461c565b805f5260028252600460405f20019182546131bb60ff8260901c16600581149081156133c25750614b35565b825f526005825260405f209360028501546001600160401b03808260881c1642111561338957600387019160ff835460401c166133505760ff600391161061331757867f0eec3220d7d0587998474d45a1647927fdd5d83c8a8d0f5b45154fb195408282969754946001600160801b038087169160019760801c83811161330a575b5060081c60ff166003811015806132f9575b6132e7575b6004111592836132d3575b5050506132ca575b815460ff60481b1916604885901b60ff60481b16178255680100000000000000009082549061329781421661491b565b68ffffffffffffffffff19909216911617179055805460ff60901b1916600360911b17905560405160ff919091168152a2005b60049350613267565b6001015460801c911610905088808061325f565b60018401546003985082169250613254565b50816001850154168284161061324f565b60029850925060ff61323d565b60405162461bcd60e51b81526004810186905260116024820152704e6f7420656e6f75676820766f7465727360781b6044820152606490fd5b60405162461bcd60e51b8152600481018790526011602482015270105b1c9958591e48199a5b985b1a5e9959607a1b6044820152606490fd5b60405162461bcd60e51b8152600481018690526011602482015270159bdd1a5b99c81b9bdd0818db1bdcd959607a1b6044820152606490fd5b60079150148661204b565b6040366003190112610a9d576004356133e4614559565b815f526020906002825261340860018060a01b03600160405f20015416151561461c565b825f5260028252600460405f200180549161342b600660ff8560901c161461465b565b845f526005845260405f2090600382019081546001600160401b03918282164211613610579061346c60ff8093169760018910159081613600575b506149bc565b60481c1685146135cc5760028301936001600160801b03600381875460081c16029080821691820361093c57341690811061359857937fd8a95b382b85b954ed8355497403c1e4b82061ec736bdcfb48a875aae997e14797959361356461353c5f9560019560409b998e895260088c528c8920906001600160801b031982541617905560098b528b8820336001600160601b0360a01b825416179055600a8b528b88208a60ff19825416179055600760901b60ff60901b1982541617905560ff60401b198454168455421661491b565b865467ffffffffffffffff60881b191660889190911b67ffffffffffffffff60881b16178655565b805460ff60481b191690558281550155805470ffffffffffffffffffffffffffffffffff19169055825133815291820152a2005b60405162461bcd60e51b815260048101899052600c60248201526b426f6e6420746f6f206c6f7760a01b6044820152606490fd5b60405162461bcd60e51b815260048101879052600c60248201526b53616d65206f7574636f6d6560a01b6044820152606490fd5b84915060081c168811158b613466565b60405162461bcd60e51b815260048101899052600d60248201526c15da5b991bddc818db1bdcd959609a1b6044820152606490fd5b34610a9d57602080600319360112610a9d5760043590600360018060a01b038060135416331480156137a4575b8015613797575b61368290614695565b835f526016835261369e60405f209160018301541615156146d7565b016136b060ff825460881c161561470f565b6040518281018481523360601b6001600160601b0319166020820152906136da8160348401610f3c565b519020805f526017835260ff60405f20541661375f577f2ff0cda1d4b877c99bc53902ce7b326e79084be3e3c28139b9e724e97236a18c9291613756915f526017835260405f20600160ff1982541617905561373c60ff825460801c16614b24565b815460ff60801b191660809190911b60ff60801b16179055565b604051338152a2005b60405162461bcd60e51b815260048101849052601060248201526f105b1c9958591e48185c1c1c9bdd995960821b6044820152606490fd5b5060155481163314613679565b5080601454163314613672565b60c0366003190112610a9d576137c5614559565b6044359060ff82168203610a9d57606435916001600160401b0383168303610a9d576084356001600160401b0381168103610a9d5760a435906001600160a01b0382168203610a9d57600260ff8416101580613d7b575b15613d475761382f612710341015614ae8565b426001600160401b0386161115613d0d576001600160401b0385166001600160401b0382161115613cc857604051933360601b602086015260043560348601526001600160401b0360c01b808760c01b1660548701528260c01b16605c860152426064860152606485528460a08101106001600160401b0360a087011117610bfa5760a085016040528451602086012094855f52600260205260018060a01b03600160405f20015416613c91575060ff90604051936138ed856147a6565b86855233602086015260018060a01b03166040850152600435606085015216608083015260a082019060ff8416825260c08301906001600160401b03871682526001600160401b0360e0850191168152610100840190600182526101208501926001600160401b0342168452875f52600260205260ff6080600460405f20895181556001810160018060a01b0360208c015116906001600160601b0360a01b9182825416179055600282019060018060a01b0360408d0151169082541617905560608a01516003820155019701511669ffffffffffffffff000061ff008854975160081b16925160101b16926001600160401b0360501b905160501b169360ff60901b905160901b16946001600160401b0360981b905160981b169564ffffffffff60d81b161717171717179055613a3160ff82166001600160801b033416614a95565b600360ff831610613c83576001600160801b03815b600460ff851610613c7b578183915b8160405195613a63876147c2565b81811687521660208601521660408401521660608201526001600160801b03341660808201526001600160801b03341660a08201525f60c0820152825f5260036020526001600160801b0360c0600360405f20838551168419825416178155613ae78460208701511682906001600160801b0382549181199060801b169116179055565b613b1d60018201856040880151168619825416178155856060880151166001600160801b0382549181199060801b169116179055565b613b53600282018560808801511686198254161781558560a0880151166001600160801b0382549181199060801b169116179055565b01920151166001600160801b031982541617905560405160408101908082106001600160401b03831117610bfa5760409182525f808252602080830182815286835260049091529290209051915160801b6001600160801b0319166001600160801b0392909216919091179055600660205260405f2080546001600160801b031916346001600160801b0316179055613bec338361503d565b805f526011602052613c0c336001600160801b03341660405f205461506a565b905f52601160205260405f20556001545f19811461093c5760209360016001600160401b03920160015560ff6040519360043585521685840152166040820152817f496672ee0fba5b2363cb91dfafa003bc43723be84cc68714fdbb7e0628aa3ac260603393a3604051908152f35b815f91613a55565b6001600160801b035f613a46565b60a060649162461bcd60e51b82820152602060a4820152600d60c48201526c4d61726b65742065786973747360981b60e482015201fd5b60405162461bcd60e51b815260206004820152601960248201527f5265736f6c7574696f6e20616674657220646561646c696e65000000000000006044820152606490fd5b60405162461bcd60e51b8152602060048201526012602482015271446561646c696e6520696e2066757475726560701b6044820152606490fd5b60405162461bcd60e51b815260206004820152600c60248201526b322d34206f7574636f6d657360a01b6044820152606490fd5b50600460ff8416111561381c565b34610a9d5760106130755f808080613da03661457f565b90978298613dac614e5d565b838552611f3d611f2a60209260028452613dd660018060a01b03600160408b20015416151561461c565b86885260028452613e11600460408a200154613dfa600460ff8360901c1614614980565b60ff831660018110159182613e5e575b50506149bc565b6001600160801b03613e2681881615156149f2565b878952600385526040892090613e3f611e81848b614e8c565b91898b52600687528160408c20541699611eda8385169b8c1115614aad565b60081c60ff16101590508f80613e0a565b34610a9d576020366003190112610a9d575f805f915f6004355f52600360205260405f2091600260205260405f208354906001600160801b0394858316801580155f146140a957614059576ec097ce7bc90715b34b9f100000000004925b60801c80158061409c5761405957600460ff916ec097ce7bc90715b34b9f100000000004935b015460081c1660038110159182809361408d575b1561408457876001820154168015614059576004906ec097ce7bc90715b34b9f100000000004925b1015908180614074575b1561406d576001015460801c8015614059576ec097ce7bc90715b34b9f1000000000045b613f6f81611cca85611cca898b614960565b9283613f9c575b5060808a8a8a818f818d8160405197168752166020860152166040840152166060820152f35b9397509398509398509350670de0b6b3a764000097888102908082048a149015171561093c57613fcd858892614956565b1696888102908082048a149015171561093c57613feb858892614956565b169415614052578781029080820489149015171561093c5761400e848792614956565b165b91156140435786810296818804149015171561093c5783806140358194608099614956565b165b93928297898080613f76565b5060809550838092505f614037565b505f614010565b634e487b7160e01b5f52601260045260245ffd5b505f613f5d565b50600181015460801c1515613f39565b60045f92613f2f565b50876001820154161515613f07565b505060ff60045f93613ef3565b50505f92613ecd565b34610a9d57602080600319360112610a9d5760043590815f52600281526140e960018060a01b03600160405f20015416151561461c565b815f5260028152600460405f20019081549161410d600160ff8560901c16146148e2565b6001600160401b0392838160101c164211156142915760ff60901b1916600560901b17905561413d42831661491b565b916040519061414b826147a6565b5f808352838301818152604080850183815260608601848152608080880186815260a089018781529a881660c08a0190815260e08a018881526101008b018981526101208c018a81528f8b526005909d5296909820995196516001600160801b039788166001600160801b031991851b8216178b559451935190921b90931691851691909117600188015593979195939092859260028601945160ff1660ff1986541617855551166141fd9084614934565b51825467ffffffffffffffff60881b1916911660881b67ffffffffffffffff60881b1617905560030193511683549151151560401b60ff60401b169168ffffffffffffffffff1916171782555160ff1661426b919060ff60481b82549160481b169060ff60481b1916179055565b7f685acf17bc506d0cfe7016cdc38205cbb6f983cc284d783ec999a280bb5825195f80a2005b60405162461bcd60e51b81526004810184905260116024820152704e6f74207061737420646561646c696e6560781b6044820152606490fd5b34610a9d576020366003190112610a9d57601354600435906001600160a01b0390811633148015614452575b8015614445575b61430690614695565b815f52601660205260405f20906143248160018401541615156146d7565b600382019081549061433c60ff8360881c161561470f565b60ff60155460a01c1660ff8360801c16106144095760027fff1129099b647fda11e043d9f7ef9f0f595b4cf9018c239df7406f6a6f75ef94946001600160801b03938481169061439286600e541683111561474e565b60ff60881b1916600160881b178655600e549085906143b39083831661478d565b16906001600160801b03191617600e55016143de5f80808086865416888a5416905af161111a614862565b54925460408051929094166001600160a01b03168252919091166001600160801b03166020820152a2005b60405162461bcd60e51b81526020600482015260146024820152734e6f7420656e6f75676820617070726f76616c7360601b6044820152606490fd5b50601554811633146142fd565b50806014541633146142f6565b34610a9d57602080600319360112610a9d5760043590815f526002815261449660018060a01b03600160405f20015416151561461c565b815f5260028152600460405f20018054906144b9600660ff8460901c161461465b565b835f5260058352600360405f2001916001600160401b0383541642111561451e5760ff60901b1916600360901b1790555460405160489190911c60ff1681527f792b55102c78d70a54105158e6e4807fb2dc4c0f6076c5d2bc6fe70fd1c066749190a2005b60405162461bcd60e51b81526004810185905260136024820152722234b9b83aba32903bb4b73237bb9037b832b760691b6044820152606490fd5b6024359060ff82168203610a9d57565b602435906001600160801b0382168203610a9d57565b6060906003190112610a9d576004359060243560ff81168103610a9d57906044356001600160801b0381168103610a9d5790565b600435906001600160a01b0382168203610a9d57565b34610a9d575f366003190112610a9d57602060405161a8c08152f35b34610a9d575f366003190112610a9d5760206040516127108152f35b34610a9d575f366003190112610a9d57602060405160328152f35b1561462357565b60405162461bcd60e51b815260206004820152601060248201526f13585c9ad95d081b9bdd08199bdd5b9960821b6044820152606490fd5b1561466257565b60405162461bcd60e51b815260206004820152600b60248201526a4e6f742070656e64696e6760a81b6044820152606490fd5b1561469c57565b60405162461bcd60e51b81526020600482015260136024820152722737ba1036bab63a34b9b4b39039b4b3b732b960691b6044820152606490fd5b156146de57565b60405162461bcd60e51b8152602060048201526009602482015268139bdd08199bdd5b9960ba1b6044820152606490fd5b1561471657565b60405162461bcd60e51b815260206004820152601060248201526f105b1c9958591e48195e1958dd5d195960821b6044820152606490fd5b1561475557565b60405162461bcd60e51b815260206004820152601060248201526f4578636565647320747265617375727960801b6044820152606490fd5b6001600160801b03918216908216039190821161093c57565b61014081019081106001600160401b03821117610bfa57604052565b60e081019081106001600160401b03821117610bfa57604052565b6001600160401b038111610bfa57604052565b608081019081106001600160401b03821117610bfa57604052565b606081019081106001600160401b03821117610bfa57604052565b602081019081106001600160401b03821117610bfa57604052565b90601f801991011681019081106001600160401b03821117610bfa57604052565b3d1561489b573d906001600160401b038211610bfa5760405191614890601f8201601f191660200184614841565b82523d5f602084013e565b606090565b156148a757565b60405162461bcd60e51b8152602060048201526013602482015272115512081d1c985b9cd9995c8819985a5b1959606a1b6044820152606490fd5b156148e957565b60405162461bcd60e51b815260206004820152600a6024820152694e6f742061637469766560b01b6044820152606490fd5b9061a8c06001600160401b038093160191821161093c57565b90610100600160881b0382549160081b1690610100600160881b031916179055565b8115614059570490565b9190820180921161093c57565b8181029291811591840414171561093c57565b1561498757565b60405162461bcd60e51b815260206004820152600d60248201526c139bdd0818d85b98d95b1b1959609a1b6044820152606490fd5b156149c357565b60405162461bcd60e51b8152602060048201526007602482015266125b9d985b1a5960ca1b6044820152606490fd5b156149f957565b606460405162461bcd60e51b81526020600482015260046024820152635a65726f60e01b6044820152fd5b15614a2b57565b60405162461bcd60e51b81526020600482015260096024820152684e6f2073686172657360b81b6044820152606490fd5b9060326001600160801b038093160291821691820361093c57565b9190916001600160801b038080941691160291821691820361093c57565b906001600160801b0380911691821561405957160490565b15614ab457565b60405162461bcd60e51b815260206004820152600c60248201526b125b9cdd59999a58da595b9d60a21b6044820152606490fd5b15614aef57565b60405162461bcd60e51b815260206004820152600d60248201526c4d696e206c697175696469747960981b6044820152606490fd5b60ff1660ff811461093c5760010190565b15614b3c57565b60405162461bcd60e51b815260206004820152600d60248201526c4e6f7420696e20766f74696e6760981b6044820152606490fd5b15614b7857565b60405162461bcd60e51b815260206004820152600f60248201526e105b1c9958591e4818db185a5b5959608a1b6044820152606490fd5b15614bb657565b60405162461bcd60e51b815260206004820152600d60248201526c139bdd08199a5b985b1a5e9959609a1b6044820152606490fd5b15614bf257565b60405162461bcd60e51b8152602060048201526007602482015266139bc8189bdb9960ca1b6044820152606490fd5b15614c2857565b60405162461bcd60e51b815260206004820152600c60248201526b139bdd081c995cdbdb1d995960a21b6044820152606490fd5b15614c6357565b60405162461bcd60e51b815260206004820152600b60248201526a5a65726f2073686172657360a81b6044820152606490fd5b15614c9d57565b60405162461bcd60e51b815260206004820152600b60248201526a16995c9bc81c185e5bdd5d60aa1b6044820152606490fd5b15614cd757565b60405162461bcd60e51b8152602060048201526012602482015271496e73756666696369656e742066756e647360701b6044820152606490fd5b9190916001600160801b038080941691160191821161093c57565b15614d3357565b60405162461bcd60e51b8152602060048201526007602482015266115e1c1a5c995960ca1b6044820152606490fd5b60405190614d6f826147a6565b5f610120838281528260208201528260408201528260608201528260808201528260a08201528260c08201528260e0820152826101008201520152565b15614db357565b60405162461bcd60e51b815260206004820152600f60248201526e496e76616c6964206f7574636f6d6560881b6044820152606490fd5b15614df157565b60405162461bcd60e51b815260206004820152600d60248201526c27b7363c903232b83637bcb2b960991b6044820152606490fd5b15614e2d57565b60405162461bcd60e51b8152602060048201526008602482015267536c69707061676560c01b6044820152606490fd5b5f8051602061540f8339815191526002815414614e7a5760029055565b604051633ee5aeb560e01b8152600490fd5b90604051906020820192835260ff60f81b9060f81b16604082015260218152614eb48161480b565b51902090565b9160405191602083019384526001600160601b03199060601b16604083015260ff60f81b9060f81b16605482015260358152614eb48161480b565b91906001600160801b03614f0991166152ec565b821561502d575b801561501f575b60405192614f248461480b565b600284526040366020860137614f39846153e1565b52614f43836153ee565b526020614f8d60405193614f5685614826565b5f8552614f9f6040519586938493631888debd60e01b85526006600486015260076024860152608060448601526084850190615286565b83810360031901606485015290615286565b03815f73ea30c4b8b44078bbf8a6ef5b9f1ec1626c7848d95af1918215615014575f92614fde575b50614fdb90614fd5836151d6565b82615235565b90565b9091506020813d60201161500c575b81614ffa60209383614841565b81010312610a9d575190614fdb614fc7565b3d9150614fed565b6040513d5f823e3d90fd5b506150286153af565b614f17565b91506150376153af565b91614f10565b604080516020810192835260609390931b6001600160601b0319169083015290614eb48160548101610f3c565b91906001600160801b0361507e91166152ec565b821592908361512957809193615119575b1561510b575b604051926150a28461480b565b6002845260403660208601376150b7846153e1565b526150c1836153ee565b526020614f8d604051936150d485614826565b5f8552614f9f6040519586938493631888debd60e01b85526006600486015260086024860152608060448601526084850190615286565b506151146153af565b615095565b92506151236153af565b9261508f565b925050614fdb90614fd5836151d6565b9060ff1660018114615184576002811461517c576003811461516b5760041461516157505f90565b6001015460801c90565b50600101546001600160801b031690565b505460801c90565b50546001600160801b031690565b9060048110156151a35760051b0190565b634e487b7160e01b5f52603260045260245ffd5b60ff5f199116019060ff821161093c57565b9190820391821161093c57565b73ea30c4b8b44078bbf8a6ef5b9f1ec1626c7848d9803b15610a9d57604051631974142760e21b815260048101929092523060248301525f908290818381604481015b03925af180156150145761522a5750565b615233906147dd565b565b73ea30c4b8b44078bbf8a6ef5b9f1ec1626c7848d991823b15610a9d57604051631974142760e21b815260048101929092526001600160a01b03166024820152905f90829081838160448101615219565b9081518082526020808093019301915f5b8281106152a5575050505090565b835185529381019392810192600101615297565b90916152de614fdb9360068452601a6020850152608060408501526080840190615286565b916060818403910152615286565b6020615355916040516152fe81614826565b5f81526040519161530e836147f0565b6003835260603685850137615322836153e1565b52600661532e836153ee565b525f615339836153fe565b52604051631888debd60e01b81529384928392600484016152b9565b03815f73ea30c4b8b44078bbf8a6ef5b9f1ec1626c7848d95af1908115615014575f91615380575090565b90506020813d6020116153a7575b8161539b60209383614841565b81010312610a9d575190565b3d915061538e565b61535560206040516153c081614826565b5f8152604051906153d0826147f0565b60038252606036848401375f615322835b8051156151a35760200190565b8051600110156151a35760400190565b8051600210156151a3576060019056fe9b779b17422d0df92223018b32b4d1fa46e071723d6817e2486d003becc55f00a264697066735822122014fb531edd3677ca798758b2acd35b809e1749dd4a43d3ae295ab4bcc982762964736f6c63430008190033",
  "linkReferences": {},
  "deployedLinkReferences": {}
}