{
  "_format": "hh-sol-artifact-1",
  "contractName": "FhenixGovernance",
  "sourceName": "contracts/FhenixGovernance.sol",
  "abi": [
    {
      "inputs": [],
      "stateMutability": "nonpayable",
      "type": "constructor"
    },
    {
      "inputs": [
        {
          "internalType": "int32",
          "name": "value",
          "type": "int32"
        }
      ],
      "name": "SecurityZoneOutOfBounds",
      "type": "error"
    },
    {
      "anonymous": false,
      "inputs": [
        {
          "indexed": true,
          "internalType": "address",
          "name": "delegator",
          "type": "address"
        },
        {
          "indexed": true,
          "internalType": "address",
          "name": "delegate",
          "type": "address"
        },
        {
          "indexed": false,
          "internalType": "uint128",
          "name": "amount",
          "type": "uint128"
        }
      ],
      "name": "DelegationCreated",
      "type": "event"
    },
    {
      "anonymous": false,
      "inputs": [
        {
          "indexed": true,
          "internalType": "address",
          "name": "delegator",
          "type": "address"
        },
        {
          "indexed": true,
          "internalType": "address",
          "name": "delegate",
          "type": "address"
        },
        {
          "indexed": false,
          "internalType": "uint128",
          "name": "amount",
          "type": "uint128"
        }
      ],
      "name": "DelegationRemoved",
      "type": "event"
    },
    {
      "anonymous": false,
      "inputs": [
        {
          "indexed": true,
          "internalType": "bytes32",
          "name": "marketId",
          "type": "bytes32"
        },
        {
          "indexed": false,
          "internalType": "uint64",
          "name": "communityDeadline",
          "type": "uint64"
        }
      ],
      "name": "EscalatedToCommunity",
      "type": "event"
    },
    {
      "anonymous": false,
      "inputs": [
        {
          "indexed": true,
          "internalType": "bytes32",
          "name": "marketId",
          "type": "bytes32"
        },
        {
          "indexed": false,
          "internalType": "address",
          "name": "initiator",
          "type": "address"
        },
        {
          "indexed": false,
          "internalType": "uint8",
          "name": "proposedOutcome",
          "type": "uint8"
        },
        {
          "indexed": false,
          "internalType": "uint128",
          "name": "bond",
          "type": "uint128"
        }
      ],
      "name": "EscalationInitiated",
      "type": "event"
    },
    {
      "anonymous": false,
      "inputs": [
        {
          "indexed": true,
          "internalType": "bytes32",
          "name": "marketId",
          "type": "bytes32"
        },
        {
          "indexed": false,
          "internalType": "uint8",
          "name": "outcome",
          "type": "uint8"
        }
      ],
      "name": "EscalationResolved",
      "type": "event"
    },
    {
      "anonymous": false,
      "inputs": [
        {
          "indexed": true,
          "internalType": "bytes32",
          "name": "marketId",
          "type": "bytes32"
        },
        {
          "indexed": false,
          "internalType": "address",
          "name": "voter",
          "type": "address"
        },
        {
          "indexed": false,
          "internalType": "bool",
          "name": "support",
          "type": "bool"
        },
        {
          "indexed": false,
          "internalType": "uint128",
          "name": "amount",
          "type": "uint128"
        }
      ],
      "name": "EscalationVoteCast",
      "type": "event"
    },
    {
      "anonymous": false,
      "inputs": [
        {
          "indexed": false,
          "internalType": "address",
          "name": "guardian1",
          "type": "address"
        },
        {
          "indexed": false,
          "internalType": "address",
          "name": "guardian2",
          "type": "address"
        },
        {
          "indexed": false,
          "internalType": "address",
          "name": "guardian3",
          "type": "address"
        }
      ],
      "name": "GovernanceInitialized",
      "type": "event"
    },
    {
      "anonymous": false,
      "inputs": [
        {
          "indexed": true,
          "internalType": "bytes32",
          "name": "marketId",
          "type": "bytes32"
        },
        {
          "indexed": false,
          "internalType": "address",
          "name": "r1",
          "type": "address"
        },
        {
          "indexed": false,
          "internalType": "address",
          "name": "r2",
          "type": "address"
        },
        {
          "indexed": false,
          "internalType": "address",
          "name": "r3",
          "type": "address"
        }
      ],
      "name": "PanelAssigned",
      "type": "event"
    },
    {
      "anonymous": false,
      "inputs": [
        {
          "indexed": true,
          "internalType": "bytes32",
          "name": "marketId",
          "type": "bytes32"
        },
        {
          "indexed": false,
          "internalType": "uint8",
          "name": "winningOutcome",
          "type": "uint8"
        }
      ],
      "name": "PanelFinalized",
      "type": "event"
    },
    {
      "anonymous": false,
      "inputs": [
        {
          "indexed": true,
          "internalType": "bytes32",
          "name": "marketId",
          "type": "bytes32"
        },
        {
          "indexed": false,
          "internalType": "address",
          "name": "resolver",
          "type": "address"
        },
        {
          "indexed": false,
          "internalType": "uint8",
          "name": "outcome",
          "type": "uint8"
        }
      ],
      "name": "PanelVoteSubmitted",
      "type": "event"
    },
    {
      "anonymous": false,
      "inputs": [
        {
          "indexed": true,
          "internalType": "bytes32",
          "name": "proposalId",
          "type": "bytes32"
        },
        {
          "indexed": false,
          "internalType": "address",
          "name": "proposer",
          "type": "address"
        },
        {
          "indexed": false,
          "internalType": "uint8",
          "name": "proposalType",
          "type": "uint8"
        }
      ],
      "name": "ProposalCreated",
      "type": "event"
    },
    {
      "anonymous": false,
      "inputs": [
        {
          "indexed": true,
          "internalType": "bytes32",
          "name": "proposalId",
          "type": "bytes32"
        }
      ],
      "name": "ProposalExecuted",
      "type": "event"
    },
    {
      "anonymous": false,
      "inputs": [
        {
          "indexed": true,
          "internalType": "bytes32",
          "name": "proposalId",
          "type": "bytes32"
        }
      ],
      "name": "ProposalVetoed",
      "type": "event"
    },
    {
      "anonymous": false,
      "inputs": [
        {
          "indexed": true,
          "internalType": "address",
          "name": "resolver",
          "type": "address"
        }
      ],
      "name": "ResolverBlacklisted",
      "type": "event"
    },
    {
      "anonymous": false,
      "inputs": [
        {
          "indexed": true,
          "internalType": "address",
          "name": "resolver",
          "type": "address"
        },
        {
          "indexed": false,
          "internalType": "uint128",
          "name": "stakeAmount",
          "type": "uint128"
        },
        {
          "indexed": false,
          "internalType": "uint8",
          "name": "tier",
          "type": "uint8"
        }
      ],
      "name": "ResolverRegistered",
      "type": "event"
    },
    {
      "anonymous": false,
      "inputs": [
        {
          "indexed": true,
          "internalType": "address",
          "name": "resolver",
          "type": "address"
        },
        {
          "indexed": false,
          "internalType": "uint128",
          "name": "slashAmount",
          "type": "uint128"
        },
        {
          "indexed": false,
          "internalType": "uint8",
          "name": "strikes",
          "type": "uint8"
        }
      ],
      "name": "ResolverSlashed",
      "type": "event"
    },
    {
      "anonymous": false,
      "inputs": [
        {
          "indexed": true,
          "internalType": "address",
          "name": "resolver",
          "type": "address"
        },
        {
          "indexed": false,
          "internalType": "uint8",
          "name": "newTier",
          "type": "uint8"
        }
      ],
      "name": "ResolverTierUpgraded",
      "type": "event"
    },
    {
      "anonymous": false,
      "inputs": [
        {
          "indexed": true,
          "internalType": "address",
          "name": "resolver",
          "type": "address"
        }
      ],
      "name": "ResolverUnstaked",
      "type": "event"
    },
    {
      "anonymous": false,
      "inputs": [
        {
          "indexed": true,
          "internalType": "address",
          "name": "user",
          "type": "address"
        },
        {
          "indexed": false,
          "internalType": "uint128",
          "name": "amount",
          "type": "uint128"
        }
      ],
      "name": "RewardClaimed",
      "type": "event"
    },
    {
      "anonymous": false,
      "inputs": [
        {
          "indexed": false,
          "internalType": "uint64",
          "name": "epochId",
          "type": "uint64"
        },
        {
          "indexed": false,
          "internalType": "uint128",
          "name": "lpReward",
          "type": "uint128"
        },
        {
          "indexed": false,
          "internalType": "uint128",
          "name": "traderReward",
          "type": "uint128"
        }
      ],
      "name": "RewardEpochFunded",
      "type": "event"
    },
    {
      "anonymous": false,
      "inputs": [
        {
          "indexed": true,
          "internalType": "bytes32",
          "name": "proposalId",
          "type": "bytes32"
        },
        {
          "indexed": true,
          "internalType": "address",
          "name": "voter",
          "type": "address"
        },
        {
          "indexed": false,
          "internalType": "bool",
          "name": "support",
          "type": "bool"
        }
      ],
      "name": "VoteCast",
      "type": "event"
    },
    {
      "anonymous": false,
      "inputs": [
        {
          "indexed": true,
          "internalType": "bytes32",
          "name": "proposalId",
          "type": "bytes32"
        },
        {
          "indexed": false,
          "internalType": "uint8",
          "name": "status",
          "type": "uint8"
        }
      ],
      "name": "VoteFinalized",
      "type": "event"
    },
    {
      "inputs": [],
      "name": "ESCALATION_BOND",
      "outputs": [
        {
          "internalType": "uint128",
          "name": "",
          "type": "uint128"
        }
      ],
      "stateMutability": "view",
      "type": "function"
    },
    {
      "inputs": [],
      "name": "ESCALATION_COMMUNITY",
      "outputs": [
        {
          "internalType": "uint8",
          "name": "",
          "type": "uint8"
        }
      ],
      "stateMutability": "view",
      "type": "function"
    },
    {
      "inputs": [],
      "name": "ESCALATION_INITIATED",
      "outputs": [
        {
          "internalType": "uint8",
          "name": "",
          "type": "uint8"
        }
      ],
      "stateMutability": "view",
      "type": "function"
    },
    {
      "inputs": [],
      "name": "ESCALATION_NONE",
      "outputs": [
        {
          "internalType": "uint8",
          "name": "",
          "type": "uint8"
        }
      ],
      "stateMutability": "view",
      "type": "function"
    },
    {
      "inputs": [],
      "name": "ESCALATION_RESOLVED",
      "outputs": [
        {
          "internalType": "uint8",
          "name": "",
          "type": "uint8"
        }
      ],
      "stateMutability": "view",
      "type": "function"
    },
    {
      "inputs": [],
      "name": "ESCALATION_WINDOW",
      "outputs": [
        {
          "internalType": "uint64",
          "name": "",
          "type": "uint64"
        }
      ],
      "stateMutability": "view",
      "type": "function"
    },
    {
      "inputs": [],
      "name": "GOLD_MARKETS_REQUIRED",
      "outputs": [
        {
          "internalType": "uint64",
          "name": "",
          "type": "uint64"
        }
      ],
      "stateMutability": "view",
      "type": "function"
    },
    {
      "inputs": [],
      "name": "GOLD_REPUTATION_MIN",
      "outputs": [
        {
          "internalType": "uint128",
          "name": "",
          "type": "uint128"
        }
      ],
      "stateMutability": "view",
      "type": "function"
    },
    {
      "inputs": [],
      "name": "MAX_STRIKES",
      "outputs": [
        {
          "internalType": "uint8",
          "name": "",
          "type": "uint8"
        }
      ],
      "stateMutability": "view",
      "type": "function"
    },
    {
      "inputs": [],
      "name": "MIN_PROPOSAL_STAKE",
      "outputs": [
        {
          "internalType": "uint128",
          "name": "",
          "type": "uint128"
        }
      ],
      "stateMutability": "view",
      "type": "function"
    },
    {
      "inputs": [],
      "name": "MIN_VOTE_AMOUNT",
      "outputs": [
        {
          "internalType": "uint128",
          "name": "",
          "type": "uint128"
        }
      ],
      "stateMutability": "view",
      "type": "function"
    },
    {
      "inputs": [],
      "name": "PANEL_MAJORITY",
      "outputs": [
        {
          "internalType": "uint8",
          "name": "",
          "type": "uint8"
        }
      ],
      "stateMutability": "view",
      "type": "function"
    },
    {
      "inputs": [],
      "name": "PANEL_SIZE",
      "outputs": [
        {
          "internalType": "uint8",
          "name": "",
          "type": "uint8"
        }
      ],
      "stateMutability": "view",
      "type": "function"
    },
    {
      "inputs": [],
      "name": "PROPOSAL_EMERGENCY_PAUSE",
      "outputs": [
        {
          "internalType": "uint8",
          "name": "",
          "type": "uint8"
        }
      ],
      "stateMutability": "view",
      "type": "function"
    },
    {
      "inputs": [],
      "name": "PROPOSAL_FEE_CHANGE",
      "outputs": [
        {
          "internalType": "uint8",
          "name": "",
          "type": "uint8"
        }
      ],
      "stateMutability": "view",
      "type": "function"
    },
    {
      "inputs": [],
      "name": "PROPOSAL_PARAMETER",
      "outputs": [
        {
          "internalType": "uint8",
          "name": "",
          "type": "uint8"
        }
      ],
      "stateMutability": "view",
      "type": "function"
    },
    {
      "inputs": [],
      "name": "PROPOSAL_RESOLVER_ELECTION",
      "outputs": [
        {
          "internalType": "uint8",
          "name": "",
          "type": "uint8"
        }
      ],
      "stateMutability": "view",
      "type": "function"
    },
    {
      "inputs": [],
      "name": "PROPOSAL_RESOLVE_DISPUTE",
      "outputs": [
        {
          "internalType": "uint8",
          "name": "",
          "type": "uint8"
        }
      ],
      "stateMutability": "view",
      "type": "function"
    },
    {
      "inputs": [],
      "name": "PROPOSAL_TREASURY",
      "outputs": [
        {
          "internalType": "uint8",
          "name": "",
          "type": "uint8"
        }
      ],
      "stateMutability": "view",
      "type": "function"
    },
    {
      "inputs": [],
      "name": "QUORUM_EMERGENCY",
      "outputs": [
        {
          "internalType": "uint128",
          "name": "",
          "type": "uint128"
        }
      ],
      "stateMutability": "view",
      "type": "function"
    },
    {
      "inputs": [],
      "name": "QUORUM_FEE",
      "outputs": [
        {
          "internalType": "uint128",
          "name": "",
          "type": "uint128"
        }
      ],
      "stateMutability": "view",
      "type": "function"
    },
    {
      "inputs": [],
      "name": "QUORUM_PARAMETER",
      "outputs": [
        {
          "internalType": "uint128",
          "name": "",
          "type": "uint128"
        }
      ],
      "stateMutability": "view",
      "type": "function"
    },
    {
      "inputs": [],
      "name": "QUORUM_RESOLVE",
      "outputs": [
        {
          "internalType": "uint128",
          "name": "",
          "type": "uint128"
        }
      ],
      "stateMutability": "view",
      "type": "function"
    },
    {
      "inputs": [],
      "name": "QUORUM_RESOLVER",
      "outputs": [
        {
          "internalType": "uint128",
          "name": "",
          "type": "uint128"
        }
      ],
      "stateMutability": "view",
      "type": "function"
    },
    {
      "inputs": [],
      "name": "QUORUM_TREASURY",
      "outputs": [
        {
          "internalType": "uint128",
          "name": "",
          "type": "uint128"
        }
      ],
      "stateMutability": "view",
      "type": "function"
    },
    {
      "inputs": [],
      "name": "RESOLVER_STAKE_BRONZE",
      "outputs": [
        {
          "internalType": "uint128",
          "name": "",
          "type": "uint128"
        }
      ],
      "stateMutability": "view",
      "type": "function"
    },
    {
      "inputs": [],
      "name": "SILVER_MARKETS_REQUIRED",
      "outputs": [
        {
          "internalType": "uint64",
          "name": "",
          "type": "uint64"
        }
      ],
      "stateMutability": "view",
      "type": "function"
    },
    {
      "inputs": [],
      "name": "SILVER_REPUTATION_MIN",
      "outputs": [
        {
          "internalType": "uint128",
          "name": "",
          "type": "uint128"
        }
      ],
      "stateMutability": "view",
      "type": "function"
    },
    {
      "inputs": [],
      "name": "SLASH_PERCENT_MAJOR",
      "outputs": [
        {
          "internalType": "uint128",
          "name": "",
          "type": "uint128"
        }
      ],
      "stateMutability": "view",
      "type": "function"
    },
    {
      "inputs": [],
      "name": "SLASH_PERCENT_MINOR",
      "outputs": [
        {
          "internalType": "uint128",
          "name": "",
          "type": "uint128"
        }
      ],
      "stateMutability": "view",
      "type": "function"
    },
    {
      "inputs": [],
      "name": "STATUS_ACTIVE",
      "outputs": [
        {
          "internalType": "uint8",
          "name": "",
          "type": "uint8"
        }
      ],
      "stateMutability": "view",
      "type": "function"
    },
    {
      "inputs": [],
      "name": "STATUS_EXECUTED",
      "outputs": [
        {
          "internalType": "uint8",
          "name": "",
          "type": "uint8"
        }
      ],
      "stateMutability": "view",
      "type": "function"
    },
    {
      "inputs": [],
      "name": "STATUS_PASSED",
      "outputs": [
        {
          "internalType": "uint8",
          "name": "",
          "type": "uint8"
        }
      ],
      "stateMutability": "view",
      "type": "function"
    },
    {
      "inputs": [],
      "name": "STATUS_REJECTED",
      "outputs": [
        {
          "internalType": "uint8",
          "name": "",
          "type": "uint8"
        }
      ],
      "stateMutability": "view",
      "type": "function"
    },
    {
      "inputs": [],
      "name": "STATUS_VETOED",
      "outputs": [
        {
          "internalType": "uint8",
          "name": "",
          "type": "uint8"
        }
      ],
      "stateMutability": "view",
      "type": "function"
    },
    {
      "inputs": [],
      "name": "TIER_BRONZE",
      "outputs": [
        {
          "internalType": "uint8",
          "name": "",
          "type": "uint8"
        }
      ],
      "stateMutability": "view",
      "type": "function"
    },
    {
      "inputs": [],
      "name": "TIER_COMMITTEE",
      "outputs": [
        {
          "internalType": "uint8",
          "name": "",
          "type": "uint8"
        }
      ],
      "stateMutability": "view",
      "type": "function"
    },
    {
      "inputs": [],
      "name": "TIER_GOLD",
      "outputs": [
        {
          "internalType": "uint8",
          "name": "",
          "type": "uint8"
        }
      ],
      "stateMutability": "view",
      "type": "function"
    },
    {
      "inputs": [],
      "name": "TIER_SILVER",
      "outputs": [
        {
          "internalType": "uint8",
          "name": "",
          "type": "uint8"
        }
      ],
      "stateMutability": "view",
      "type": "function"
    },
    {
      "inputs": [],
      "name": "TIMELOCK_LONG",
      "outputs": [
        {
          "internalType": "uint64",
          "name": "",
          "type": "uint64"
        }
      ],
      "stateMutability": "view",
      "type": "function"
    },
    {
      "inputs": [],
      "name": "TIMELOCK_STANDARD",
      "outputs": [
        {
          "internalType": "uint64",
          "name": "",
          "type": "uint64"
        }
      ],
      "stateMutability": "view",
      "type": "function"
    },
    {
      "inputs": [],
      "name": "VOTING_PERIOD",
      "outputs": [
        {
          "internalType": "uint64",
          "name": "",
          "type": "uint64"
        }
      ],
      "stateMutability": "view",
      "type": "function"
    },
    {
      "inputs": [
        {
          "internalType": "bytes32",
          "name": "",
          "type": "bytes32"
        }
      ],
      "name": "approvedResolvers",
      "outputs": [
        {
          "internalType": "bool",
          "name": "",
          "type": "bool"
        }
      ],
      "stateMutability": "view",
      "type": "function"
    },
    {
      "inputs": [
        {
          "internalType": "bytes32",
          "name": "marketId",
          "type": "bytes32"
        },
        {
          "internalType": "address",
          "name": "r1",
          "type": "address"
        },
        {
          "internalType": "address",
          "name": "r2",
          "type": "address"
        },
        {
          "internalType": "address",
          "name": "r3",
          "type": "address"
        }
      ],
      "name": "assignResolverPanel",
      "outputs": [],
      "stateMutability": "nonpayable",
      "type": "function"
    },
    {
      "inputs": [
        {
          "internalType": "address",
          "name": "resolver",
          "type": "address"
        }
      ],
      "name": "blacklistResolver",
      "outputs": [],
      "stateMutability": "nonpayable",
      "type": "function"
    },
    {
      "inputs": [
        {
          "internalType": "address",
          "name": "",
          "type": "address"
        }
      ],
      "name": "blacklistedResolvers",
      "outputs": [
        {
          "internalType": "bool",
          "name": "",
          "type": "bool"
        }
      ],
      "stateMutability": "view",
      "type": "function"
    },
    {
      "inputs": [
        {
          "internalType": "uint64",
          "name": "epochId",
          "type": "uint64"
        }
      ],
      "name": "claimReward",
      "outputs": [],
      "stateMutability": "nonpayable",
      "type": "function"
    },
    {
      "inputs": [
        {
          "internalType": "bytes32",
          "name": "",
          "type": "bytes32"
        }
      ],
      "name": "committeeDecision",
      "outputs": [
        {
          "internalType": "uint8",
          "name": "",
          "type": "uint8"
        }
      ],
      "stateMutability": "view",
      "type": "function"
    },
    {
      "inputs": [
        {
          "internalType": "bytes32",
          "name": "",
          "type": "bytes32"
        }
      ],
      "name": "committeeFinalized",
      "outputs": [
        {
          "internalType": "bool",
          "name": "",
          "type": "bool"
        }
      ],
      "stateMutability": "view",
      "type": "function"
    },
    {
      "inputs": [
        {
          "internalType": "uint256",
          "name": "",
          "type": "uint256"
        }
      ],
      "name": "committeeMembers",
      "outputs": [
        {
          "internalType": "address",
          "name": "",
          "type": "address"
        }
      ],
      "stateMutability": "view",
      "type": "function"
    },
    {
      "inputs": [
        {
          "internalType": "bytes32",
          "name": "",
          "type": "bytes32"
        }
      ],
      "name": "committeeOutcomeVotes",
      "outputs": [
        {
          "internalType": "uint8",
          "name": "",
          "type": "uint8"
        }
      ],
      "stateMutability": "view",
      "type": "function"
    },
    {
      "inputs": [],
      "name": "committeeSize",
      "outputs": [
        {
          "internalType": "uint8",
          "name": "",
          "type": "uint8"
        }
      ],
      "stateMutability": "view",
      "type": "function"
    },
    {
      "inputs": [
        {
          "internalType": "bytes32",
          "name": "marketId",
          "type": "bytes32"
        },
        {
          "internalType": "uint8",
          "name": "outcome",
          "type": "uint8"
        }
      ],
      "name": "committeeVoteResolve",
      "outputs": [],
      "stateMutability": "nonpayable",
      "type": "function"
    },
    {
      "inputs": [
        {
          "internalType": "bytes32",
          "name": "",
          "type": "bytes32"
        }
      ],
      "name": "committeeVoted",
      "outputs": [
        {
          "internalType": "bool",
          "name": "",
          "type": "bool"
        }
      ],
      "stateMutability": "view",
      "type": "function"
    },
    {
      "inputs": [
        {
          "internalType": "uint8",
          "name": "proposalType",
          "type": "uint8"
        },
        {
          "internalType": "bytes32",
          "name": "target",
          "type": "bytes32"
        },
        {
          "internalType": "uint128",
          "name": "payload1",
          "type": "uint128"
        },
        {
          "internalType": "bytes32",
          "name": "payload2",
          "type": "bytes32"
        }
      ],
      "name": "createProposal",
      "outputs": [
        {
          "internalType": "bytes32",
          "name": "",
          "type": "bytes32"
        }
      ],
      "stateMutability": "payable",
      "type": "function"
    },
    {
      "inputs": [],
      "name": "currentEpochId",
      "outputs": [
        {
          "internalType": "uint64",
          "name": "",
          "type": "uint64"
        }
      ],
      "stateMutability": "view",
      "type": "function"
    },
    {
      "inputs": [
        {
          "internalType": "address",
          "name": "delegate",
          "type": "address"
        }
      ],
      "name": "delegateVotes",
      "outputs": [],
      "stateMutability": "payable",
      "type": "function"
    },
    {
      "inputs": [
        {
          "internalType": "address",
          "name": "",
          "type": "address"
        }
      ],
      "name": "delegatedPower",
      "outputs": [
        {
          "internalType": "uint128",
          "name": "",
          "type": "uint128"
        }
      ],
      "stateMutability": "view",
      "type": "function"
    },
    {
      "inputs": [
        {
          "internalType": "bytes32",
          "name": "",
          "type": "bytes32"
        }
      ],
      "name": "delegationAmounts",
      "outputs": [
        {
          "internalType": "uint128",
          "name": "",
          "type": "uint128"
        }
      ],
      "stateMutability": "view",
      "type": "function"
    },
    {
      "inputs": [],
      "name": "deployer",
      "outputs": [
        {
          "internalType": "address",
          "name": "",
          "type": "address"
        }
      ],
      "stateMutability": "view",
      "type": "function"
    },
    {
      "inputs": [],
      "name": "depositProtocolFees",
      "outputs": [],
      "stateMutability": "payable",
      "type": "function"
    },
    {
      "inputs": [
        {
          "internalType": "bytes32",
          "name": "marketId",
          "type": "bytes32"
        }
      ],
      "name": "escalateToCommunity",
      "outputs": [],
      "stateMutability": "nonpayable",
      "type": "function"
    },
    {
      "inputs": [
        {
          "internalType": "bytes32",
          "name": "",
          "type": "bytes32"
        }
      ],
      "name": "escalationBonds",
      "outputs": [
        {
          "internalType": "uint128",
          "name": "",
          "type": "uint128"
        }
      ],
      "stateMutability": "view",
      "type": "function"
    },
    {
      "inputs": [
        {
          "internalType": "bytes32",
          "name": "",
          "type": "bytes32"
        }
      ],
      "name": "escalationVoted",
      "outputs": [
        {
          "internalType": "bool",
          "name": "",
          "type": "bool"
        }
      ],
      "stateMutability": "view",
      "type": "function"
    },
    {
      "inputs": [
        {
          "internalType": "bytes32",
          "name": "",
          "type": "bytes32"
        }
      ],
      "name": "escalations",
      "outputs": [
        {
          "internalType": "bytes32",
          "name": "marketId",
          "type": "bytes32"
        },
        {
          "internalType": "address",
          "name": "initiator",
          "type": "address"
        },
        {
          "internalType": "uint8",
          "name": "proposedOutcome",
          "type": "uint8"
        },
        {
          "internalType": "uint8",
          "name": "status",
          "type": "uint8"
        },
        {
          "internalType": "uint64",
          "name": "initiatedAt",
          "type": "uint64"
        },
        {
          "internalType": "uint128",
          "name": "bondAmount",
          "type": "uint128"
        },
        {
          "internalType": "uint128",
          "name": "votesFor",
          "type": "uint128"
        },
        {
          "internalType": "uint128",
          "name": "votesAgainst",
          "type": "uint128"
        },
        {
          "internalType": "uint64",
          "name": "communityDeadline",
          "type": "uint64"
        }
      ],
      "stateMutability": "view",
      "type": "function"
    },
    {
      "inputs": [
        {
          "internalType": "bytes32",
          "name": "proposalId",
          "type": "bytes32"
        }
      ],
      "name": "executeGovernance",
      "outputs": [],
      "stateMutability": "nonpayable",
      "type": "function"
    },
    {
      "inputs": [
        {
          "internalType": "bytes32",
          "name": "marketId",
          "type": "bytes32"
        }
      ],
      "name": "finalizeCommitteeVote",
      "outputs": [],
      "stateMutability": "nonpayable",
      "type": "function"
    },
    {
      "inputs": [
        {
          "internalType": "bytes32",
          "name": "marketId",
          "type": "bytes32"
        }
      ],
      "name": "finalizeEscalation",
      "outputs": [],
      "stateMutability": "nonpayable",
      "type": "function"
    },
    {
      "inputs": [
        {
          "internalType": "bytes32",
          "name": "proposalId",
          "type": "bytes32"
        }
      ],
      "name": "finalizeVote",
      "outputs": [],
      "stateMutability": "nonpayable",
      "type": "function"
    },
    {
      "inputs": [
        {
          "internalType": "uint128",
          "name": "lpReward",
          "type": "uint128"
        },
        {
          "internalType": "uint128",
          "name": "traderReward",
          "type": "uint128"
        }
      ],
      "name": "fundRewardEpoch",
      "outputs": [],
      "stateMutability": "payable",
      "type": "function"
    },
    {
      "inputs": [
        {
          "internalType": "bytes32",
          "name": "marketId",
          "type": "bytes32"
        }
      ],
      "name": "getPanel",
      "outputs": [
        {
          "components": [
            {
              "internalType": "bytes32",
              "name": "marketId",
              "type": "bytes32"
            },
            {
              "internalType": "address",
              "name": "resolver1",
              "type": "address"
            },
            {
              "internalType": "address",
              "name": "resolver2",
              "type": "address"
            },
            {
              "internalType": "address",
              "name": "resolver3",
              "type": "address"
            },
            {
              "internalType": "uint8",
              "name": "votesSubmitted",
              "type": "uint8"
            },
            {
              "internalType": "uint8[5]",
              "name": "outcomeVotes",
              "type": "uint8[5]"
            },
            {
              "internalType": "bool",
              "name": "finalized",
              "type": "bool"
            },
            {
              "internalType": "uint8",
              "name": "winningOutcome",
              "type": "uint8"
            },
            {
              "internalType": "uint64",
              "name": "assignedAt",
              "type": "uint64"
            }
          ],
          "internalType": "struct FhenixGovernance.MultiResolverPanel",
          "name": "",
          "type": "tuple"
        }
      ],
      "stateMutability": "view",
      "type": "function"
    },
    {
      "inputs": [
        {
          "internalType": "bytes32",
          "name": "proposalId",
          "type": "bytes32"
        }
      ],
      "name": "getProposal",
      "outputs": [
        {
          "components": [
            {
              "internalType": "bytes32",
              "name": "id",
              "type": "bytes32"
            },
            {
              "internalType": "address",
              "name": "proposer",
              "type": "address"
            },
            {
              "internalType": "uint8",
              "name": "proposalType",
              "type": "uint8"
            },
            {
              "internalType": "bytes32",
              "name": "target",
              "type": "bytes32"
            },
            {
              "internalType": "uint128",
              "name": "payload1",
              "type": "uint128"
            },
            {
              "internalType": "bytes32",
              "name": "payload2",
              "type": "bytes32"
            },
            {
              "internalType": "uint128",
              "name": "votesFor",
              "type": "uint128"
            },
            {
              "internalType": "uint128",
              "name": "votesAgainst",
              "type": "uint128"
            },
            {
              "internalType": "uint128",
              "name": "quorumRequired",
              "type": "uint128"
            },
            {
              "internalType": "uint64",
              "name": "createdAt",
              "type": "uint64"
            },
            {
              "internalType": "uint64",
              "name": "votingDeadline",
              "type": "uint64"
            },
            {
              "internalType": "uint64",
              "name": "timelockUntil",
              "type": "uint64"
            },
            {
              "internalType": "uint8",
              "name": "status",
              "type": "uint8"
            }
          ],
          "internalType": "struct FhenixGovernance.Proposal",
          "name": "",
          "type": "tuple"
        }
      ],
      "stateMutability": "view",
      "type": "function"
    },
    {
      "inputs": [
        {
          "internalType": "address",
          "name": "resolver",
          "type": "address"
        }
      ],
      "name": "getResolverProfile",
      "outputs": [
        {
          "components": [
            {
              "internalType": "address",
              "name": "resolver",
              "type": "address"
            },
            {
              "internalType": "uint128",
              "name": "stakeAmount",
              "type": "uint128"
            },
            {
              "internalType": "uint8",
              "name": "tier",
              "type": "uint8"
            },
            {
              "internalType": "uint64",
              "name": "marketsResolved",
              "type": "uint64"
            },
            {
              "internalType": "uint64",
              "name": "disputesReceived",
              "type": "uint64"
            },
            {
              "internalType": "uint64",
              "name": "disputesLost",
              "type": "uint64"
            },
            {
              "internalType": "uint8",
              "name": "strikes",
              "type": "uint8"
            },
            {
              "internalType": "uint128",
              "name": "reputationScore",
              "type": "uint128"
            },
            {
              "internalType": "uint64",
              "name": "registeredAt",
              "type": "uint64"
            },
            {
              "internalType": "uint64",
              "name": "lastActiveAt",
              "type": "uint64"
            },
            {
              "internalType": "bool",
              "name": "isActive",
              "type": "bool"
            }
          ],
          "internalType": "struct FhenixGovernance.ResolverProfile",
          "name": "",
          "type": "tuple"
        }
      ],
      "stateMutability": "view",
      "type": "function"
    },
    {
      "inputs": [
        {
          "internalType": "bytes32",
          "name": "",
          "type": "bytes32"
        }
      ],
      "name": "governanceParams",
      "outputs": [
        {
          "internalType": "uint128",
          "name": "",
          "type": "uint128"
        }
      ],
      "stateMutability": "view",
      "type": "function"
    },
    {
      "inputs": [],
      "name": "governancePaused",
      "outputs": [
        {
          "internalType": "bool",
          "name": "",
          "type": "bool"
        }
      ],
      "stateMutability": "view",
      "type": "function"
    },
    {
      "inputs": [
        {
          "internalType": "bytes32",
          "name": "marketId",
          "type": "bytes32"
        },
        {
          "internalType": "uint8",
          "name": "winningOutcome",
          "type": "uint8"
        }
      ],
      "name": "governanceResolve",
      "outputs": [],
      "stateMutability": "nonpayable",
      "type": "function"
    },
    {
      "inputs": [
        {
          "internalType": "bytes32",
          "name": "",
          "type": "bytes32"
        }
      ],
      "name": "governanceResolvedOutcomes",
      "outputs": [
        {
          "internalType": "uint8",
          "name": "",
          "type": "uint8"
        }
      ],
      "stateMutability": "view",
      "type": "function"
    },
    {
      "inputs": [],
      "name": "guardians",
      "outputs": [
        {
          "internalType": "address",
          "name": "guardian1",
          "type": "address"
        },
        {
          "internalType": "address",
          "name": "guardian2",
          "type": "address"
        },
        {
          "internalType": "address",
          "name": "guardian3",
          "type": "address"
        },
        {
          "internalType": "uint8",
          "name": "threshold",
          "type": "uint8"
        }
      ],
      "stateMutability": "view",
      "type": "function"
    },
    {
      "inputs": [
        {
          "internalType": "bytes32",
          "name": "",
          "type": "bytes32"
        }
      ],
      "name": "hasVoted",
      "outputs": [
        {
          "internalType": "bool",
          "name": "",
          "type": "bool"
        }
      ],
      "stateMutability": "view",
      "type": "function"
    },
    {
      "inputs": [
        {
          "internalType": "address",
          "name": "guardian1",
          "type": "address"
        },
        {
          "internalType": "address",
          "name": "guardian2",
          "type": "address"
        },
        {
          "internalType": "address",
          "name": "guardian3",
          "type": "address"
        },
        {
          "internalType": "address",
          "name": "_marketsContract",
          "type": "address"
        }
      ],
      "name": "initGovernance",
      "outputs": [],
      "stateMutability": "nonpayable",
      "type": "function"
    },
    {
      "inputs": [],
      "name": "initialized",
      "outputs": [
        {
          "internalType": "bool",
          "name": "",
          "type": "bool"
        }
      ],
      "stateMutability": "view",
      "type": "function"
    },
    {
      "inputs": [
        {
          "internalType": "bytes32",
          "name": "marketId",
          "type": "bytes32"
        },
        {
          "internalType": "uint8",
          "name": "proposedOutcome",
          "type": "uint8"
        }
      ],
      "name": "initiateEscalation",
      "outputs": [],
      "stateMutability": "payable",
      "type": "function"
    },
    {
      "inputs": [],
      "name": "marketsContract",
      "outputs": [
        {
          "internalType": "contract IFhenixMarkets",
          "name": "",
          "type": "address"
        }
      ],
      "stateMutability": "view",
      "type": "function"
    },
    {
      "inputs": [
        {
          "internalType": "bytes32",
          "name": "marketId",
          "type": "bytes32"
        },
        {
          "internalType": "uint8",
          "name": "outcome",
          "type": "uint8"
        }
      ],
      "name": "panelVote",
      "outputs": [],
      "stateMutability": "nonpayable",
      "type": "function"
    },
    {
      "inputs": [
        {
          "internalType": "bytes32",
          "name": "",
          "type": "bytes32"
        }
      ],
      "name": "panelVoted",
      "outputs": [
        {
          "internalType": "bool",
          "name": "",
          "type": "bool"
        }
      ],
      "stateMutability": "view",
      "type": "function"
    },
    {
      "inputs": [],
      "name": "proposalCount",
      "outputs": [
        {
          "internalType": "uint256",
          "name": "",
          "type": "uint256"
        }
      ],
      "stateMutability": "view",
      "type": "function"
    },
    {
      "inputs": [
        {
          "internalType": "bytes32",
          "name": "",
          "type": "bytes32"
        }
      ],
      "name": "proposalLocks",
      "outputs": [
        {
          "internalType": "uint128",
          "name": "",
          "type": "uint128"
        }
      ],
      "stateMutability": "view",
      "type": "function"
    },
    {
      "inputs": [
        {
          "internalType": "bytes32",
          "name": "",
          "type": "bytes32"
        }
      ],
      "name": "proposals",
      "outputs": [
        {
          "internalType": "bytes32",
          "name": "id",
          "type": "bytes32"
        },
        {
          "internalType": "address",
          "name": "proposer",
          "type": "address"
        },
        {
          "internalType": "uint8",
          "name": "proposalType",
          "type": "uint8"
        },
        {
          "internalType": "bytes32",
          "name": "target",
          "type": "bytes32"
        },
        {
          "internalType": "uint128",
          "name": "payload1",
          "type": "uint128"
        },
        {
          "internalType": "bytes32",
          "name": "payload2",
          "type": "bytes32"
        },
        {
          "internalType": "uint128",
          "name": "votesFor",
          "type": "uint128"
        },
        {
          "internalType": "uint128",
          "name": "votesAgainst",
          "type": "uint128"
        },
        {
          "internalType": "uint128",
          "name": "quorumRequired",
          "type": "uint128"
        },
        {
          "internalType": "uint64",
          "name": "createdAt",
          "type": "uint64"
        },
        {
          "internalType": "uint64",
          "name": "votingDeadline",
          "type": "uint64"
        },
        {
          "internalType": "uint64",
          "name": "timelockUntil",
          "type": "uint64"
        },
        {
          "internalType": "uint8",
          "name": "status",
          "type": "uint8"
        }
      ],
      "stateMutability": "view",
      "type": "function"
    },
    {
      "inputs": [
        {
          "internalType": "address",
          "name": "user",
          "type": "address"
        },
        {
          "internalType": "uint64",
          "name": "epochId",
          "type": "uint64"
        },
        {
          "internalType": "uint128",
          "name": "lpContribution",
          "type": "uint128"
        },
        {
          "internalType": "uint128",
          "name": "tradeVolume",
          "type": "uint128"
        }
      ],
      "name": "recordContribution",
      "outputs": [],
      "stateMutability": "nonpayable",
      "type": "function"
    },
    {
      "inputs": [],
      "name": "registerResolver",
      "outputs": [],
      "stateMutability": "payable",
      "type": "function"
    },
    {
      "inputs": [
        {
          "internalType": "bytes32",
          "name": "",
          "type": "bytes32"
        }
      ],
      "name": "resolverPanels",
      "outputs": [
        {
          "internalType": "bytes32",
          "name": "marketId",
          "type": "bytes32"
        },
        {
          "internalType": "address",
          "name": "resolver1",
          "type": "address"
        },
        {
          "internalType": "address",
          "name": "resolver2",
          "type": "address"
        },
        {
          "internalType": "address",
          "name": "resolver3",
          "type": "address"
        },
        {
          "internalType": "uint8",
          "name": "votesSubmitted",
          "type": "uint8"
        },
        {
          "internalType": "bool",
          "name": "finalized",
          "type": "bool"
        },
        {
          "internalType": "uint8",
          "name": "winningOutcome",
          "type": "uint8"
        },
        {
          "internalType": "uint64",
          "name": "assignedAt",
          "type": "uint64"
        }
      ],
      "stateMutability": "view",
      "type": "function"
    },
    {
      "inputs": [
        {
          "internalType": "address",
          "name": "",
          "type": "address"
        }
      ],
      "name": "resolverRegistry",
      "outputs": [
        {
          "internalType": "address",
          "name": "resolver",
          "type": "address"
        },
        {
          "internalType": "uint128",
          "name": "stakeAmount",
          "type": "uint128"
        },
        {
          "internalType": "uint8",
          "name": "tier",
          "type": "uint8"
        },
        {
          "internalType": "uint64",
          "name": "marketsResolved",
          "type": "uint64"
        },
        {
          "internalType": "uint64",
          "name": "disputesReceived",
          "type": "uint64"
        },
        {
          "internalType": "uint64",
          "name": "disputesLost",
          "type": "uint64"
        },
        {
          "internalType": "uint8",
          "name": "strikes",
          "type": "uint8"
        },
        {
          "internalType": "uint128",
          "name": "reputationScore",
          "type": "uint128"
        },
        {
          "internalType": "uint64",
          "name": "registeredAt",
          "type": "uint64"
        },
        {
          "internalType": "uint64",
          "name": "lastActiveAt",
          "type": "uint64"
        },
        {
          "internalType": "bool",
          "name": "isActive",
          "type": "bool"
        }
      ],
      "stateMutability": "view",
      "type": "function"
    },
    {
      "inputs": [
        {
          "internalType": "bytes32",
          "name": "",
          "type": "bytes32"
        }
      ],
      "name": "rewardClaimed",
      "outputs": [
        {
          "internalType": "bool",
          "name": "",
          "type": "bool"
        }
      ],
      "stateMutability": "view",
      "type": "function"
    },
    {
      "inputs": [
        {
          "internalType": "uint64",
          "name": "",
          "type": "uint64"
        }
      ],
      "name": "rewardEpochs",
      "outputs": [
        {
          "internalType": "uint64",
          "name": "epochId",
          "type": "uint64"
        },
        {
          "internalType": "uint128",
          "name": "totalLPReward",
          "type": "uint128"
        },
        {
          "internalType": "uint128",
          "name": "totalTraderReward",
          "type": "uint128"
        },
        {
          "internalType": "uint128",
          "name": "totalLPContributions",
          "type": "uint128"
        },
        {
          "internalType": "uint128",
          "name": "totalTradeVolume",
          "type": "uint128"
        },
        {
          "internalType": "uint64",
          "name": "startedAt",
          "type": "uint64"
        },
        {
          "internalType": "bool",
          "name": "distributed",
          "type": "bool"
        }
      ],
      "stateMutability": "view",
      "type": "function"
    },
    {
      "inputs": [
        {
          "internalType": "address[5]",
          "name": "members",
          "type": "address[5]"
        },
        {
          "internalType": "uint8",
          "name": "size",
          "type": "uint8"
        }
      ],
      "name": "setCommitteeMembers",
      "outputs": [],
      "stateMutability": "nonpayable",
      "type": "function"
    },
    {
      "inputs": [
        {
          "internalType": "address",
          "name": "resolver",
          "type": "address"
        }
      ],
      "name": "slashResolver",
      "outputs": [],
      "stateMutability": "nonpayable",
      "type": "function"
    },
    {
      "inputs": [],
      "name": "treasuryBalance",
      "outputs": [
        {
          "internalType": "uint128",
          "name": "",
          "type": "uint128"
        }
      ],
      "stateMutability": "view",
      "type": "function"
    },
    {
      "inputs": [
        {
          "internalType": "address",
          "name": "delegate",
          "type": "address"
        }
      ],
      "name": "undelegateVotes",
      "outputs": [],
      "stateMutability": "nonpayable",
      "type": "function"
    },
    {
      "inputs": [
        {
          "internalType": "bytes32",
          "name": "proposalId",
          "type": "bytes32"
        }
      ],
      "name": "unlockAfterVote",
      "outputs": [],
      "stateMutability": "nonpayable",
      "type": "function"
    },
    {
      "inputs": [],
      "name": "unstakeResolver",
      "outputs": [],
      "stateMutability": "nonpayable",
      "type": "function"
    },
    {
      "inputs": [
        {
          "internalType": "address",
          "name": "resolver",
          "type": "address"
        },
        {
          "internalType": "bool",
          "name": "resolved",
          "type": "bool"
        },
        {
          "internalType": "bool",
          "name": "disputed",
          "type": "bool"
        },
        {
          "internalType": "bool",
          "name": "disputeLost",
          "type": "bool"
        }
      ],
      "name": "updateResolverStats",
      "outputs": [],
      "stateMutability": "nonpayable",
      "type": "function"
    },
    {
      "inputs": [
        {
          "internalType": "address",
          "name": "resolver",
          "type": "address"
        }
      ],
      "name": "upgradeResolverTier",
      "outputs": [],
      "stateMutability": "nonpayable",
      "type": "function"
    },
    {
      "inputs": [
        {
          "internalType": "bytes32",
          "name": "",
          "type": "bytes32"
        }
      ],
      "name": "userLPContributions",
      "outputs": [
        {
          "internalType": "uint128",
          "name": "",
          "type": "uint128"
        }
      ],
      "stateMutability": "view",
      "type": "function"
    },
    {
      "inputs": [
        {
          "internalType": "bytes32",
          "name": "",
          "type": "bytes32"
        }
      ],
      "name": "userTradeVolume",
      "outputs": [
        {
          "internalType": "uint128",
          "name": "",
          "type": "uint128"
        }
      ],
      "stateMutability": "view",
      "type": "function"
    },
    {
      "inputs": [
        {
          "internalType": "bytes32",
          "name": "proposalId",
          "type": "bytes32"
        }
      ],
      "name": "vetoProposal",
      "outputs": [],
      "stateMutability": "nonpayable",
      "type": "function"
    },
    {
      "inputs": [
        {
          "internalType": "bytes32",
          "name": "proposalId",
          "type": "bytes32"
        }
      ],
      "name": "voteAgainst",
      "outputs": [],
      "stateMutability": "payable",
      "type": "function"
    },
    {
      "inputs": [
        {
          "internalType": "bytes32",
          "name": "marketId",
          "type": "bytes32"
        },
        {
          "internalType": "bool",
          "name": "support",
          "type": "bool"
        }
      ],
      "name": "voteEscalation",
      "outputs": [],
      "stateMutability": "payable",
      "type": "function"
    },
    {
      "inputs": [
        {
          "internalType": "bytes32",
          "name": "proposalId",
          "type": "bytes32"
        }
      ],
      "name": "voteFor",
      "outputs": [],
      "stateMutability": "payable",
      "type": "function"
    },
    {
      "inputs": [
        {
          "internalType": "address",
          "name": "",
          "type": "address"
        }
      ],
      "name": "voteLocks",
      "outputs": [
        {
          "internalType": "uint128",
          "name": "",
          "type": "uint128"
        }
      ],
      "stateMutability": "view",
      "type": "function"
    },
    {
      "inputs": [
        {
          "internalType": "bytes32",
          "name": "marketId",
          "type": "bytes32"
        }
      ],
      "name": "withdrawEscalationBond",
      "outputs": [],
      "stateMutability": "nonpayable",
      "type": "function"
    },
    {
      "inputs": [
        {
          "internalType": "uint128",
          "name": "amount",
          "type": "uint128"
        },
        {
          "internalType": "address",
          "name": "recipient",
          "type": "address"
        }
      ],
      "name": "withdrawTreasury",
      "outputs": [],
      "stateMutability": "nonpayable",
      "type": "function"
    },
    {
      "stateMutability": "payable",
      "type": "receive"
    }
  ],
  "bytecode": "0x608080604052346026575f80546001600160a01b031916331790556157ec908161002b8239f35b5f80fdfe608080604052600436101561001c575b50361561001a575f80fd5b005b5f3560e01c908163038a353814614bc8575080630f5c4969146148b9578063123302ba14614898578063143f66c714614865578063158ef93e14614841578063169df06414614800578063193bad5d146144d95780631b4613cb146144aa5780631b53df8614610a9f578063206c4b661461443f57806321e91f8e14611156578063248bd4711461441d578063250948e214614402578063286c379b14614299578063313dab2014614273578063318dfff11461414757806332ed5b12146140795780633338519d146111715780633515498614613e7f57806337d31acc14613c115780633a6c6604146112e05780633c0847f514611176578063403eab2b14613ac0578063406ee60f146138dc57806340e535961461361457806342a7c614146135f2578063430694cf146133e05780634389cc22146118645780634ad86ffc146131a05780634cf3ad6a146131015780634d2521f2146130d25780634f23b358146111765780635394c87914610b0757806353dd268714610a9f5780635542fa80146112e05780635614e1f114610a9f5780635a81d4ba1461308a5780635cb06d451461117657806360d3d0d81461306e578063665207b614612f43578063673a033714612f165780636759647a14612cda57806367fed20e14612b8a5780636984a46d14612b5b5780636b7b8c6314612b235780636e6a626314610b0257806373b9c8671461292657806374105d821461050e578063748d22f214612861578063761edb48146127d8578063797af2bd1461279b5780637a4bc51a146127655780637b7e52f81461255a5780637ceb6efd146112db5780637e406a38146123fc578063815fdf4714611fe357806384060a2914611f5f578063843ff9a514611f3d57806388ea26e814611d555780638b75d75a14611ac65780638b952a3614611a275780638be615a7146112e05780638c5fcdda146118e35780638c72aa13146118b6578063941ff2e5146118895780639a46e412146112e05780639cf4364b146118695780639d142a0b14611864578063a138d18a1461172a578063a42bd5581461153c578063a574511c14611326578063ab4f440f146112e5578063abbf52dc146112e0578063acb34f70146112db578063adf758f6146112bf578063b1610d7e146112a2578063b5785f9c1461117b578063b8f07dea14610a9f578063baab957414611176578063bb43207414611171578063bb601d0014611156578063bc89d958146110c3578063c4e9ff4a146110a8578063c593a10814610ffa578063c699c38414610e48578063c98327d614610e20578063cc75dc4714610ded578063ce2830ad14610dbe578063d028b71014610bd1578063d373d36914610bb6578063d5f3948814610b8f578063d957dff71461050e578063d993849614610b5c578063da35c66414610b3f578063dcb6375514610b0c578063ddc6739e14610b07578063de4b680314610a9f578063de65e34114610b02578063e066016714610ad3578063e37a7efd14610aa4578063e3d3f84314610a9f578063e635057214610a6c578063e6cee0ae1461094f578063e8ea4c761461067a578063eacdc5ff14610654578063f51ceca014610590578063fb4cf6061461055d578063fbf49bfd14610542578063fc12300414610513578063ff808c291461050e5763ffa12de4146104ed575f61000f565b3461050a575f36600319011261050a5760206040516202a3008152f35b5f80fd5b614d6a565b3461050a57602036600319011261050a576004355f52601e602052602060ff60405f2054166040519015158152f35b3461050a575f36600319011261050a57602060405160198152f35b3461050a57602036600319011261050a576004355f52602360205260206001600160801b0360405f205416604051908152f35b3461050a57604036600319011261050a576105a9614d33565b6105b1614bfd565b5f5490916001600160a01b03916105cb9083163314614ef6565b602654916001600160801b0391828416918382169083821161061d5761001a965f9687966105fc8897968897615076565b16906001600160801b03191617602655165af161061761508f565b506150cd565b60405162461bcd60e51b815260206004820152600f60248201526e457863656564732062616c616e636560881b6044820152606490fd5b3461050a575f36600319011261050a5760206001600160401b0360225416604051908152f35b3461050a5760208060031936011261050a57600435906106a060ff5f5460a01c16614da7565b815f5260029081815260405f2091600783018054600160ff8260401c160361091d576001600160401b03811642106108eb5760ff60401b191668030000000000000000179055600183015460a01c60ff1681810361074c575090601f916001600160801b036003850154169301545f525260405f20906001600160801b03198254161790555b7f7b1bcf1ccf901a11589afff5504d59fd0a53780eed2a952adade0348985139e05f80a2005b60048103610786575090601f916001600160801b036003850154169301545f525260405f20906001600160801b0319825416179055610726565b600581036107b25750509060036001600160801b0391015416151560ff80198354169116179055610726565b600681036107d75750601e9201545f525260405f20600160ff19825416179055610726565b60018103610805575090601d9160ff6003850154169301545f525260405f209060ff19825416179055610726565b6003915014610816575b5050610726565b6001600160801b0360048160038501541693015490602654908082168086116108b3578561084391615076565b6001600160801b03199092169116176026556001600160a01b031690811561088057505f80806108799481945af161061761508f565b818061080f565b6064906040519062461bcd60e51b82526004820152600c60248201526b5a65726f206164647265737360a01b6044820152fd5b60405162461bcd60e51b815260048101869052601060248201526f4578636565647320747265617375727960801b6044820152606490fd5b60405162461bcd60e51b815260048101859052600a602482015269151a5b595b1bd8dad95960b21b6044820152606490fd5b60405162461bcd60e51b815260048101859052600a602482015269139bdd081c185cdcd95960b21b6044820152606490fd5b3461050a5760208060031936011261050a5760043561097460ff5f5460a01c16614da7565b805f526027825260405f2091600183019283549361099a600260ff8760a81c1614614f68565b60038201546001600160401b038160801c16421115610a385760ff60a81b19909516600360a81b17808255600283015494957f23b0d447aaa849dcc30b914fb6fc45a24dd1453ae79888453895652ba62dd5c39560801c6001600160801b039091161015610a2c5760ff92545f52601d84528260405f209160a01c1683198254161790555460a01c16604051908152a2005b5050506040515f8152a2005b60405162461bcd60e51b815260048101859052600c60248201526b5374696c6c20766f74696e6760a01b6044820152606490fd5b3461050a57602036600319011261050a576004355f52600d60205260206001600160801b0360405f205416604051908152f35b614c3f565b3461050a57602036600319011261050a576004355f52601a602052602060ff60405f2054166040519015158152f35b3461050a57602036600319011261050a576004355f526017602052602060ff60405f2054166040519015158152f35b614d49565b614ce6565b3461050a57602036600319011261050a576004355f52601f60205260206001600160801b0360405f205416604051908152f35b3461050a575f36600319011261050a576020600354604051908152f35b3461050a57602036600319011261050a576004355f52600960205260206001600160801b0360405f205416604051908152f35b3461050a575f36600319011261050a575f546040516001600160a01b039091168152602090f35b3461050a575f36600319011261050a57602060405160058152f35b3461050a57608036600319011261050a57610bea614be7565b610bf2614c6a565b604435801515810361050a5760643592831515840361050a575f546001600160a01b039190610c249083163314614ef6565b165f52600f60205260405f2091610c4160ff600485015416615283565b610d4a575b610cbe575b61001a91610c75575b60030180546001600160c01b03164260c01b6001600160c01b031916179055565b610cb960028201610c926001600160401b03825460401c166152bc565b67ffffffffffffffff60401b82549160401b169067ffffffffffffffff60401b1916179055565b610c54565b6002810180546001600160401b03610cd78183166152bc565b16906001600160401b03191617905560038101918254926001600160801b039384811660c881115f14610d3f5760c7190194808611610d2b5761001a955b16906001600160801b0319161790559150610c4b565b634e487b7160e01b5f52601160045260245ffd5b5061001a945f610d15565b610d8f60018301610d676001600160401b03825460881c166152bc565b815467ffffffffffffffff60881b191660889190911b67ffffffffffffffff60881b16179055565b6003820180546001600160801b03606481831601818111610d2b5716906001600160801b031916179055610c46565b3461050a57602036600319011261050a576004355f526025602052602060ff60405f2054166040519015158152f35b3461050a57602036600319011261050a576004355f52602960205260206001600160801b0360405f205416604051908152f35b3461050a575f36600319011261050a576001546040516001600160a01b039091168152602090f35b3461050a57604036600319011261050a57600435610e64614c5a565b90610e6e336154c4565b15610fc55760ff9081831691600183101580610fba575b610e8e90614f32565b815f52602090601a8252610ea88160405f2054161561517e565b6040518281018481523360601b6001600160601b0319166020820152818103601481018352601f19979290610ee09060340182614ed5565b519020805f5260178452610efa8360405f2054161561501f565b5f526017835260405f209560ff1996600188825416179055610f496040519182610f3d8782019589879091602192825260ff60f81b9060f81b1660208201520190565b03908101835282614ed5565b519020805f526018835260405f2080548784610f668184166151be565b1691161790555f5260188252607f610f888260405f20541692601654166152ee565b60011c161115610f9457005b6019915f52601a815260405f206001858254161790555260405f20918254161790555f80f35b506004831115610e85565b60405162461bcd60e51b815260206004820152600d60248201526c4e6f7420636f6d6d697474656560981b6044820152606490fd5b3461050a5760c036600319011261050a573660a41161050a5760a43560ff811680910361050a575f546001600160a01b03906110399082163314614ef6565b600580831161107b575f9160045b82841061105c576016805460ff191686179055005b803593828516850361050a576020600192019481601101550192611047565b60405162461bcd60e51b81526020600482015260056024820152644d6178203560d81b6044820152606490fd5b3461050a575f36600319011261050a57602060405160328152f35b3461050a57602036600319011261050a576004355f52601b60205261010060405f206001600160401b0381549160ff60018060a01b03918260018201541692806002830154166005600384015493015494604051978852602088015260408701528116606086015260a01c16608084015260ff8116151560a084015260ff8160081c1660c084015260101c1660e0820152f35b3461050a575f36600319011261050a576020604051600a8152f35b614c79565b614cb1565b3461050a5760208060031936011261050a5760043590815f52601a815260ff6111aa8160405f2054161561517e565b5f925f60015b60048482161115611236575082607f6111cc82601654166152ee565b60011c16911610611203575f52601a8252601960405f209260ff19936001858254161790555260405f209216908254161790555f80f35b60405162461bcd60e51b815260048101849052600b60248201526a4e6f206d616a6f7269747960a81b6044820152606490fd5b60405185810184815260f883901b6001600160f81b03191660208201529061126b81602184015b03601f198101835282614ed5565b5190205f52601885528360405f2054168483168111611294575b5061128f906151be565b6111b0565b9150945061128f8590611285565b3461050a575f36600319011261050a57602060405162093a808152f35b3461050a575f36600319011261050a576020604051612ee08152f35b614d85565b614c96565b3461050a57602036600319011261050a576001600160a01b03611306614be7565b165f52600860205260206001600160801b0360405f205416604051908152f35b3461050a5760208060031936011261050a57611340614be7565b61135060ff5f5460a01c16614da7565b60018060a01b031690815f52600f815260405f2061137460ff600483015416615283565b600181019081549060ff8260801c16600181145f1461145557509050815490600a6001600160401b038360881c161015908161143a575b50156113f55760ff60801b1916600160811b1781557f54dd2317a6e32c1f79afc545cf4f4daff78f09889e50c9627af83c526cd2ae16919060ff905b5460801c16604051908152a2005b60405162461bcd60e51b815260048101849052601760248201527f4e6f7420656c696769626c6520666f722053696c7665720000000000000000006044820152606490fd5b612ee0915060036001600160801b03910154161015856113ab565b60020361150c5760326001600160401b038360881c16101590816114f1575b50156114b45760ff60801b1916600360801b1781557f54dd2317a6e32c1f79afc545cf4f4daff78f09889e50c9627af83c526cd2ae16919060ff906113e7565b60405162461bcd60e51b8152600481018490526015602482015274139bdd08195b1a59da589b1948199bdc8811dbdb19605a1b6044820152606490fd5b613a98915060036001600160801b0391015416101585611474565b60405162461bcd60e51b815260048101859052600860248201526726b0bc103a34b2b960c11b6044820152606490fd5b3461050a57608036600319011261050a57611555614be7565b61155d614bfd565b611565614c13565b9161156e614c29565b5f546001600160a01b0394906115873387831614614ef6565b60ff8160a01c166116ef57858416801515806116e4575b806116d9575b156116a4576040519660808801948886106001600160401b03871117611690577f4a6ddf93c527399b46fddcb30aee5fa9e0ebdff88835732f27b9acf755b012c59861168b96604052838152828916806020830152600260608589169384604082015201526001600160601b0360a01b9485600a541617600a5584600b541617600b55600160a11b906affffffffffffffffffffff60a81b600c54161717600c5516906001541617600155600160a01b9060ff60a01b1916175f5560405193849384916040919493606084019560018060a01b039283809216865216602085015216910152565b0390a1005b634e487b7160e01b5f52604160045260245ffd5b60405162461bcd60e51b815260206004820152600d60248201526c2d32b9379033bab0b93234b0b760991b6044820152606490fd5b5086831615156115a4565b50868616151561159e565b60405162461bcd60e51b8152602060048201526013602482015272105b1c9958591e481a5b9a5d1a585b1a5e9959606a1b6044820152606490fd5b3461050a57602036600319011261050a576004355f5461174f60ff8260a01c16614da7565b815f52602760205260405f20906001820191825492600160ff8560a81c160361182f577f760772a8026913bc37999aaef64e09c070b59f97f99dbd8130d586fb0882f2b3936020936117bd90336001600160a01b039182161490811561181e575b8115611812575b50615246565b60ff60a81b1916600160a91b1790556001600160401b03906113e760036117e54285166152d4565b9201805467ffffffffffffffff60801b191660809390931b67ffffffffffffffff60801b16929092178255565b905082163314886117b7565b905061182933615300565b906117b0565b60405162461bcd60e51b815260206004820152600d60248201526c139bdd081a5b9a5d1a585d1959609a1b6044820152606490fd5b614ccc565b3461050a575f36600319011261050a57602060ff60165416604051908152f35b3461050a57602036600319011261050a576004355f526018602052602060ff60405f205416604051908152f35b3461050a57602036600319011261050a576004355f52601d602052602060ff60405f205416604051908152f35b60208060031936011261050a576118f8614be7565b61190860ff5f5460a01c16614da7565b6001600160a01b0381169182151580611a1d575b156119e6577f3a9add63448b8ba7a6a8cf2c006e9d12bcd09bb2ee7eddae38ba4a292aeb7bb99061194e341515614fe8565b6001600160801b038034169360405161198c8161125d868201943386906028926001600160601b0319809260601b16835260601b1660148201520190565b5190205f52600d825260405f2090815491816119aa8782861661505b565b166001600160801b0319809416179055855f52600e835260405f20918254916119d58782851661505b565b1691161790556040519283523392a3005b6064906040519062461bcd60e51b82526004820152601060248201526f496e76616c69642064656c656761746560801b6044820152fd5b503383141561191c565b3461050a57602036600319011261050a57611a40614be7565b5f546001600160a01b039190821633148015611ab2575b611a6090615246565b16805f52600f602052600460405f200160ff19908181541690556010602052600160405f20918254161790557f8d755620a3983e6fcaff02384351c3cf493670d9a6f00169bf4bc2d09f7475be5f80a2005b50611a60611abf33615300565b9050611a57565b3461050a5760208060031936011261050a5760043590611aec60ff5f5460a01c16614da7565b815f526002815260405f20906007820191611b0e60ff845460401c1615615283565b60068101805460c01c421115611d2257845f5260068352611b3260405f2054615424565b91865f5260078552611b4760405f2054615424565b84919491611d1a575b5015611cc9576001600160801b038281166001600160801b0319608086901b16811760058701559290919082908190611b8a90879061505b565b925416911610159283611cbd575b5050505f14611c9057825460ff600168010000000000000000938460ff60401b198516178755015460a01c16600581145f14611c0a5750505060ff5f80516020615797833981519152926001600160401b0342166001600160401b03198254161781555b5460401c16604051908152a2005b600303611c4c57505060ff5f80516020615797833981519152926001600160401b03611c378142166152d4565b166001600160401b0319825416178155611bfc565b90926001600160401b03936202a3008542160192858411610d2b575f805160206157978339815191529560ff94169068ffffffffffffffffff191617178155611bfc565b5060ff5f80516020615797833981519152926802000000000000000060ff60401b19825416178155611bfc565b16109050858080611b98565b60405162461bcd60e51b815260048101869052602360248201527f44656372797074696f6e2070656e64696e672c2074727920616761696e206c616044820152623a32b960e91b6064820152608490fd5b905088611b50565b60405162461bcd60e51b815260048101849052600b60248201526a2b37ba34b7339037b832b760a91b6044820152606490fd5b3461050a57602036600319011261050a57610160611d71614be7565b5f610140604051611d8181614e1d565b8281528260208201528260408201528260608201528260808201528260a08201528260c08201528260e08201528261010082015282610120820152015260018060a01b038091165f52600f60205261014060405f209160ff600460405192611de884614e1d565b855416948584526001600160401b0360018201546001600160801b0381166020870152848160801c16604087015260881c1660608501528260028201546001600160401b03811660808701526001600160401b038160401c1660a087015260801c1660c085015260038101546001600160801b03811660e08601526001600160401b038160801c1661010086015260c01c6101208501520154161515828201526040519283526001600160801b03602082015116602084015260ff60408201511660408401526001600160401b0360608201511660608401526001600160401b0360808201511660808401526001600160401b0360a08201511660a084015260ff60c08201511660c08401526001600160801b0360e08201511660e08401526001600160401b03610100820151166101008401526001600160401b036101208201511661012084015201511515610140820152f35b3461050a575f36600319011261050a57602060405167016345785d8a00008152f35b3461050a575f36600319011261050a57335f52600f602052611fbc5f8080806001600160801b0360408220600481016001815492611f9f60ff8516615283565b019081549260ff1916905582198216905516335af161061761508f565b337f4db43c6bd5697f90f162476577384e8e775d3c164c8cfaca155e43969f44187b5f80a2005b608036600319011261050a5760043560ff811680820361050a5760243590612009614d1d565b61201960ff5f5460a01c16614da7565b61202860ff602054161561510b565b6001821015806123f1575b156123bd5761204b662386f26fc10000341015614de5565b60405160208101903360601b825260ff60f81b8660f81b1660348201528460358201526001600160801b03198360801b1660558201524260658201526065815261209481614e84565b5190205f818152600260205260409020600101549093906001600160a01b031661238f576120c18561533e565b906001600160401b0362093a808142160111610d2b576001600160801b03928391604051956120ef87614e55565b8787523360208801526040870152606086015216608084015260643560a08401525f60c08401525f60e0840152166101008201526001600160401b0342166101208201526001600160401b0362093a8081421601166101408201525f6101608201525f610180820152815f526002602052600760405f20825181556121b16001820160018060a01b036020860151166001600160601b0360a01b82541617815560ff60408601511681549060ff60a01b9060a01b169060ff60a01b1916179055565b606083015160028201556080808401516003830180546001600160801b039283166001600160801b03199182161790915560a0860151600485015560c08087015160e088015190841690851b90921691909117600585015561010086015161012087015161014088015190921b6001600160c01b0319169216921b67ffffffffffffffff60801b169190911717600682015501906001600160401b036101608201511660ff60401b610180845493015160401b169168ffffffffffffffffff19161717905561227e6156a3565b612287816153c8565b815f52600660205260405f205561229c6156a3565b6122a5816153c8565b815f52600760205260405f20556001600160801b033416335f52600860205260405f2080546001600160801b036122de8482841661505b565b6001600160801b0319909216911617905560408051602081018481523360601b6001600160601b0319169282019290925261231c816054810161125d565b5190205f52600960205260405f20906001600160801b03198254161790556003545f198114610d2b576001016003556040805133815260ff939093166020808501919091529282917fc4b64ebdae706e07f37a5858b10df15949d7d4ca87db72ef3459de00499926c191a2604051908152f35b60405162461bcd60e51b815260206004820152600660248201526545786973747360d01b6044820152606490fd5b60405162461bcd60e51b815260206004820152600c60248201526b496e76616c6964207479706560a01b6044820152606490fd5b506006821115612033565b3461050a5760208060031936011261050a576040516004358183018181523360601b6001600160601b031916602082015290929161243d816034840161125d565b51902091825f52602982526001600160801b03908160405f205416905f526027835260405f20600181015460018060a01b03811633148061254b575b6124e3575b5050169182156124b4575f8061001a94602982958395845252604082206001600160801b03198154169055335af161061761508f565b60405162461bcd60e51b8152600481018390526007602482015266139bc8189bdb9960ca1b6044820152606490fd5b60ff60039160a81c1603612517576002016125038154928484169061505b565b916001600160801b0319169055848061247e565b60405162461bcd60e51b815260048101859052600c60248201526b139bdd081c995cdbdb1d995960a21b6044820152606490fd5b50836002830154161515612479565b604036600319011261050a5761256e614d33565b6024356001600160801b038082169182810361050a576125a3829161259d60018060a01b035f54163314614ef6565b8561505b565b16341061273157602254916001600160401b03806125c28186166152bc565b1680946001600160401b031916176022556040519260e084019484861083871117611690576126fc837f340f26c5810744b65ccd43f88fa545d905f89be76dfc5f54b8b28d81be6a808b986060986040528388528460208901911697888252604081019588875260028b8301925f84526126c660808201995f8b5260a0830196884216885260c084019a5f8c525f5260216020528860405f2094511677ffffffffffffffffffffffffffffffff00000000000000008554925160401b16916001600160401b0360c01b1617178355848060018501925116966001600160801b0319978884541617835551166001600160801b0382549181199060801b169116179055565b975197018054935167ffffffffffffffff60801b1993909416919097161716911660801b67ffffffffffffffff60801b16178355565b51815460ff60c01b191690151560c01b60ff60c01b1617905560225460408051929091168252602082019390935291820152a1005b60405162461bcd60e51b815260206004820152600c60248201526b125b9cdd59999a58da595b9d60a21b6044820152606490fd5b3461050a57602036600319011261050a57600435600581101561050a57601101546040516001600160a01b039091168152602090f35b3461050a57602036600319011261050a576001600160a01b036127bc614be7565b165f526010602052602060ff60405f2054166040519015158152f35b3461050a57602036600319011261050a5760e06001600160401b03806127fc614d07565b165f52602160205260ff60405f208054926001600160801b0360026001840154930154928160405196848116885260401c166020870152818116604087015260801c6060860152821660808501528160801c1660a084015260c01c16151560c0820152f35b3461050a57602036600319011261050a576101606001600160a01b0380612886614be7565b165f52600f60205260405f2090815416906001810154906001600160801b036001600160401b039060ff6002840154838260046003880154970154169660405198895284811660208a0152838160801c1660408a015260881c1660608801528381166080880152838160401c1660a088015260801c1660c0860152821660e08501528160801c1661010084015260c01c6101208301521515610140820152f35b3461050a57602036600319011261050a5761293f614be7565b5f546001600160a01b039190821633148015612b0f575b61295f90615246565b16805f52600f60205260405f20600481019061297e60ff835416615283565b60028101916129b061299660ff855460801c166151be565b845460ff60801b191660809190911b60ff60801b16178455565b825460801c60ff169260028410612b07576019915b600184019160038354956001600160801b0394856129f56064826129ec818d169b8c6151fc565b16048099615076565b166001600160801b031980991617905501948554928484166103e881115f14612ad4576103e71901858111610d2b577fe0bc1a43e847a7a2f2c6b22a8d7fb98ec7510d7f6acb4efafae7e00b53d5b2299860409860ff9685896003955b1691161790551015612a8c575b506026549084612a718782851661505b565b169116176026555460801c16908351921682526020820152a2005b831990818154169055885f5260106020526001875f2091825416179055877f8d755620a3983e6fcaff02384351c3cf493670d9a6f00169bf4bc2d09f7475be5f80a288612a5f565b5060037fe0bc1a43e847a7a2f2c6b22a8d7fb98ec7510d7f6acb4efafae7e00b53d5b2299860409860ff9685895f612a52565b600a916129c5565b5061295f612b1c33615300565b9050612956565b5f36600319011261050a576026546001600160801b03612b4734821683831661505b565b6001600160801b0319909216911617602655005b3461050a57602036600319011261050a576004355f52601c602052602060ff60405f2054166040519015158152f35b3461050a57608036600319011261050a57612ba3614be7565b6024356001600160401b03811680820361050a57612bbf614d1d565b91606435926001600160801b0394858516850361050a5761125d612c2d600294612bf360018060a01b035f54163314614ef6565b60405160609490941b6001600160601b0319166020850190815260c09190911b6001600160c01b031916603485015292918290603c820190565b51902092835f52602360205260405f209384549487612c4e8582891661505b565b166001600160801b03198097161790555f52602460205260405f2080548588612c798982851661505b565b1691161790555f526021602052612cc060405f2091612ca06001840191825460801c61505b565b81546001600160801b031660809190911b6001600160801b031916179055565b0192612cd084549382851661505b565b1691161790555f80f35b3461050a5760208060031936011261050a57612cf4614d07565b6040513360601b6001600160601b03191681840190815260c083901b6001600160c01b031916601482015291929190612d3081601c840161125d565b51902091825f526025825260ff60405f205416612edf576001600160401b038091165f526021825260405f20805491821615612eaf57612dcc90845f52602384526001600160801b03928360405f205416602486528460405f2054165f92600185015492878460801c9283151580612ea6575b612e86575b509150508060025f960154169283151580612e7d575b612e5b575b5050505061505b565b16918215612e2a57907fb8db46dbfc50be2ba9133722b4b4a81bd9c137374a52afdcbbee314c4951d0df915f526025815260405f20600160ff19825416179055612e1f5f80808087335af161061761508f565b6040519283523392a2005b60405162461bcd60e51b8152600481018390526009602482015268139bc81c995dd85c9960ba1b6044820152606490fd5b612e7394955090612e6e929116906151fc565b61521a565b9086808581612dc3565b50821515612dbe565b612e9c94965090612e6e929160401c16906151fc565b9188808781612da8565b50821515612da3565b60405162461bcd60e51b815260048101849052600860248201526709cde40cae0dec6d60c31b6044820152606490fd5b60405162461bcd60e51b815260048101839052600f60248201526e105b1c9958591e4818db185a5b5959608a1b6044820152606490fd5b3461050a57602036600319011261050a576004355f526019602052602060ff60405f205416604051908152f35b3461050a57602036600319011261050a57600a5460043590336001600160a01b039182161490811561305f575b8115613051575b501561301d57805f526002602052600760405f2001805460ff8160401c168015908115613012575b5015612fdf5760ff60401b1916680400000000000000001790557f0c8bf601915d1f39ef591226bc69b3becc23fcb3616673c419062aa44beb42da5f80a2005b60405162461bcd60e51b815260206004820152600b60248201526a43616e6e6f74207665746f60a81b6044820152606490fd5b600191501484612f9f565b60405162461bcd60e51b815260206004820152600c60248201526b2737ba1033bab0b93234b0b760a11b6044820152606490fd5b9050600c5416331482612f77565b809150600b5416331490612f70565b3461050a575f36600319011261050a576020604051613a988152f35b3461050a575f36600319011261050a57608060018060a01b0360ff81600a54169180600b541690600c549160405194855260208501528116604084015260a01c166060820152f35b3461050a57602036600319011261050a576004355f526028602052602060ff60405f2054166040519015158152f35b3461050a57602036600319011261050a576004355f52602760205261012060405f2080549060018101546001600160401b039160028101548360036001600160801b039301549360405196875260018060a01b038116602088015260ff8160a01c16604088015260ff8160a81c16606088015260b01c16608086015281811660a086015260801c60c0850152811660e084015260801c16610100820152f35b3461050a57604036600319011261050a576004356131bc614c5a565b815f526020601b815260405f2091600583019260ff916131df838654161561517e565b6001820154336001600160a01b03918216149081156133cf575b81156133bf575b501561338b57600283821693600185101580613380575b61322090615140565b6040518681018981523360601b6001600160601b03191660208201529061324a816034840161125d565b519020805f52601c87526132648260405f2054161561501f565b5f52601c865261332883600460405f209660ff19976001898254161790556132b26003820161329887825460a01c166151be565b815460ff60a01b191660a09190911b60ff60a01b16179055565b016132ec6132c083836151cf565b8192915490876132d681848460031b1c166151be565b16919060ff809160031b9316831b921b19161790565b90556040805133815260ff841660208201528c917f891dce8a58d29b9921fcd24bcf7a39091664e542d7aeda99e0111ce0d30a588d91a26151cf565b90549060031b1c16101561333857005b845461ff001992166001179190911660089190911b61ff0016179092557f0a8dbaaca8b088988580b71f1375831a2605193b51287e1de1831a29167b5d0a91604051908152a2005b506004851115613217565b60405162461bcd60e51b815260048101859052600c60248201526b139bdd081bdb881c185b995b60a21b6044820152606490fd5b9050600383015416331487613200565b8091506002840154163314906131f9565b3461050a57602036600319011261050a575f61018060405161340181614e55565b8281528260208201528260408201528260608201528260808201528260a08201528260c08201528260e08201528261010082015282610120820152826101408201528261016082015201526004355f5260026020526101a060405f2060ff61018060405161346e81614e55565b82600785549586845282600182015460018060a01b038116602087015260a01c166040850152600281015460608501526001600160801b036003820154166080850152600481015460a085015260058101546001600160801b03811660c086015260801c60e085015260068101546001600160801b0381166101008601526001600160401b038160801c1661012086015260c01c61014085015201546001600160401b03811661016084015260401c168282015260405193845260018060a01b036020820151166020850152826040820151166040850152606081015160608501526001600160801b03608082015116608085015260a081015160a08501526001600160801b0360c08201511660c08501526001600160801b0360e08201511660e08501526001600160801b03610100820151166101008501526001600160401b03610120820151166101208501526001600160401b03610140820151166101408501526001600160401b0361016082015116610160850152015116610180820152f35b3461050a575f36600319011261050a576020604051670de0b6b3a76400008152f35b60208060031936011261050a5760043561363460ff5f5460a01c16614da7565b61364260ff8354161561510b565b5f818152600283526040812060018101549192916001600160a01b0316156138ab5760068161367e60ff600761368b95015460401c1615615283565b015460c01c421115614fac565b66038d7ea4c68000341061387b576040518381018281523360601b6001600160601b0319166020820152906136c3816034840161125d565b51902092835f52600481526136df60ff60405f2054161561501f565b835f526004815260405f20600160ff198254161790556137466001600160801b0380341690335f526008845260405f2080549161371e8482851661505b565b166001600160801b0319809316179055865f52600984528160405f2091825416179055615737565b61374f816153c8565b73ea30c4b8b44078bbf8a6ef5b9f1ec1626c7848d9803b1561050a57604051631974142760e21b815260048101839052336024820152905f908290604490829084905af180156138705761383b575b5083947f8b40665146691327ee30f5bf56e9b2d6f445d2830d3b09b56385cd30f630ecfb93945260058252806040862055845f1461380c576137eb90848652600683526040862054615514565b6137f4816153c8565b8385526006825260408520555b6040519384523393a3005b61382190845f526007835260405f2054615514565b61382a816153c8565b835f526007825260405f2055613801565b7f8b40665146691327ee30f5bf56e9b2d6f445d2830d3b09b56385cd30f630ecfb93945061386890614e71565b5f939261379e565b6040513d5f823e3d90fd5b60405162461bcd60e51b81526004810184905260086024820152674d696e20766f746560c01b6044820152606490fd5b60405162461bcd60e51b8152600481018590526009602482015268139bdd08199bdd5b9960ba1b6044820152606490fd5b3461050a57602036600319011261050a575f6101006040516138fd81614e39565b82815282602082015282604082015282606082015282608082015260405161392481614e84565b60a036823760a08201528260c08201528260e082015201526004355f52601b60205260405f206040519061395782614e39565b805482526001600160401b03600560019260018060a01b03600182015416602086015260018060a01b03600282015416604086015260ff600382015460018060a01b038116606088015260a01c16608086015260405160ff60048301548181168352818160081c166020840152818160101c166040840152818160181c16606084015260201c1660808201526139ec81614e84565b60a0860152015460ff8116151560c085015260ff8160081c1660e085015260101c16610100830152604051908251825260018060a01b03602084015116602083015260018060a01b03604084015116604083015260018060a01b03606084015116606083015260ff608084015116608083015260a083015160a083015f905b60058210613aa9576101a0856001600160401b036101008960c0810151151561014085015260ff60e082015116610160850152015116610180820152f35b825160ff1681526020928301929184019101613a6b565b3461050a5760208060031936011261050a57600435805f526002825260405f2060ff600782015460401c161590811591613c00575b5015613bcc576040518281019182523360601b6001600160601b0319166020830152613b24816034840161125d565b51902090815f52600981526001600160801b038060405f205416928315613b96575f61001a94819482948394845260098252600860408520926001600160801b031993848154169055338652526040842091825491613b8585828516615076565b169116179055335af161061761508f565b60405162461bcd60e51b815260048101849052600e60248201526d139bdd1a1a5b99c81b1bd8dad95960921b6044820152606490fd5b60405162461bcd60e51b815260048101839052600c60248201526b5374696c6c2061637469766560a01b6044820152606490fd5b60069150015460c01c421183613af5565b604036600319011261050a57600435613c28614c5a565b613c3860ff5f5460a01c16614da7565b662386f26fc100003410613e4f5760ff16600181101580613e44575b613c5d90615140565b815f52602760205260ff600160405f20015460a81c16613e0b576001600160401b036001600160801b038034169160405191613c9883614e39565b8583526020830133815260408401918683526060850194600186526080810192854216845260a082019088825260c08301945f865260e08401985f8a526101008501975f89528d5f52602760205260405f20955186556001860193600160a01b600190039051166001600160601b0360a01b8554161784555160ff16613d3490849081549060ff60a01b9060a01b169060ff60a01b1916179055565b518254915168ffffffffffffffffff60a81b1990921660a89190911b60ff60a81b161760b09190911b67ffffffffffffffff60b01b161790555192516001600160801b039383169390931692821660801b6001600160801b0319908116939093176002820155945160039095018054935167ffffffffffffffff60801b951660801b94909416941691161767ffffffffffffffff60801b1916919091179055604051913383526020830152604082015260607f7279ba7e8f3110b0ce615073d1bc4214851c9d7f9cc348edb7b6b639f022ebc891a2005b60405162461bcd60e51b8152602060048201526011602482015270105b1c9958591e48195cd8d85b185d1959607a1b6044820152606490fd5b506004811115613c54565b60405162461bcd60e51b8152602060048201526008602482015267135a5b88189bdb9960c21b6044820152606490fd5b60208060031936011261050a57600435613e9f60ff5f5460a01c16614da7565b613ead60ff8354161561510b565b5f818152600283526040812060018101546001600160a01b0316156138ab5760068161367e60ff6007613ee695015460401c1615615283565b66038d7ea4c68000341061387b576040518381018381523360601b6001600160601b031916602082015290613f1e816034840161125d565b519020805f5260048452613f3960ff60405f2054161561501f565b805f526004845260405f20600160ff19825416179055613fa06001600160801b0380341690335f526008875260405f20805491613f788482851661505b565b166001600160801b0319809316179055835f52600987528160405f2091825416179055615737565b90613faa826153c8565b73ea30c4b8b44078bbf8a6ef5b9f1ec1626c7848d9803b1561050a57604051631974142760e21b815260048101849052336024820152905f908290604490829084905af180156138705761405d575b5060409161401c9184526005865280838520558484526006865282842054615514565b91614026836153c8565b8381526006855220557f8b40665146691327ee30f5bf56e9b2d6f445d2830d3b09b56385cd30f630ecfb60405192600184523393a3005b61401c9193509161406f604093614e71565b5f93915091613ff9565b3461050a57602036600319011261050a576004355f5260026020526101a060405f2060ff81549160018101549060028101546001600160801b038060038401541660048401546005850154916006860154948860076001600160401b03980154986040519b8c5260018060a01b03811660208d015260a01c1660408b015260608a0152608089015260a088015281811660c088015260801c60e08701528116610100860152818160801c1661012086015260c01c610140850152811661016084015260401c16610180820152f35b3461050a5760208060031936011261050a57614161614be7565b90604051818101906141958161125d863386906028926001600160601b0319809260601b16835260601b1660148201520190565b51902090815f52600d81526001600160801b03928360405f20541692831561423e57907fc858d79c16f112c9d520c2efef79772624b441c3df0cddbb5d45839f97e13d5b92915f52600d825260405f20906001600160801b03199182815416905560018060a01b031694855f52600e835260405f209182549161421a87828516615076565b1691161790556142335f80808087335af161061761508f565b6040519283523392a3005b60405162461bcd60e51b815260048101849052600d60248201526c2737903232b632b3b0ba34b7b760991b6044820152606490fd5b3461050a575f36600319011261050a5760206001600160801b0360265416604051908152f35b604036600319011261050a576004357f3333621255a758f148b6f338090b0784e2b9e9963833572aabf9043b5ef1832260606142d3614c6a565b6142e360ff5f5460a01c16614da7565b835f5260206027815260405f2090614307600260ff600185015460a81c1614614f68565b60038201916143256001600160401b03845460801c16421115614fac565b614330341515614fe8565b6040518281018881523360601b6001600160601b03191660208201529061435a816034840161125d565b519020805f526028835261437560ff60405f2054161561501f565b5f526028825260405f20600160ff198254161790556001600160801b0392833416936029845260405f206001600160801b0319908682825416179055865f146143e55750505060026143d09101612ca084825460801c61505b565b604051923384521515908301526040820152a2005b8254929350906143f78684831661505b565b1691161790556143d0565b3461050a575f36600319011261050a57602060405160068152f35b3461050a575f36600319011261050a5760206040516703782dace9d900008152f35b3461050a57604036600319011261050a5760ff61445a614c5a565b61446e60018060a01b035f54163314614ef6565b1660018110158061449f575b61448390614f32565b6004355f52601d60205260405f209060ff198254161790555f80f35b50600481111561447a565b3461050a57602036600319011261050a576004355f526004602052602060ff60405f2054166040519015158152f35b3461050a57608036600319011261050a576004356144f5614bfd565b906144fe614c13565b614506614c29565b9260018060a01b0361451c815f54163314614ef6565b80821690815f52602091600f835260ff9081600460405f20015416156147cb5782861690815f52600f855282600460405f20015416156147965783891694855f52600f815283600460405f2001541615614762576040519260a08401936001600160401b039681861088871117611690575f9887614666928e986040528b85528b878601528b60408601528b60608601528b6080860152604051976145c089614e39565b898952878901908152604089019687526060890193845260808901918d835260a08a0196875260c08a019d8e5260e08a019a5f8c526101008b01809e421690525f52601b895260405f2099518a556001978160018c01935116926001600160601b0360a01b93848254161790558160028c019151168382541617905560038a0194511690845416178355511681549060ff60a01b9060a01b169060ff60a01b1916179055565b51905f925f905b600582106147345750505050927f68f5410bd0396239ffbe050c2e66e68fe8d30c767bd700218e051a70ec3fc4fc989994926146c960058461472f999760046146df9701550195511515869060ff801983541691151516179055565b51845461ff001916911660081b61ff0016178355565b51815469ffffffffffffffff0000191660109190911b69ffffffffffffffff000016179055604080516001600160a01b039485168152948416602086015292169183019190915281906060820190565b0390a2005b9091816147578596858b85985116919060ff809160031b9316831b921b19161790565b95019392019061466d565b6064906040519062461bcd60e51b82526004820152600d60248201526c5233206e6f742061637469766560981b6044820152fd5b60405162461bcd60e51b815260048101869052600d60248201526c5232206e6f742061637469766560981b6044820152606490fd5b60405162461bcd60e51b815260048101859052600d60248201526c5231206e6f742061637469766560981b6044820152606490fd5b3461050a57602036600319011261050a576001600160a01b03614821614be7565b165f52600e60205260206001600160801b0360405f205416604051908152f35b3461050a575f36600319011261050a57602060ff5f5460a01c166040519015158152f35b3461050a57602036600319011261050a576004355f52602460205260206001600160801b0360405f205416604051908152f35b3461050a575f36600319011261050a57602060ff8154166040519015158152f35b5f36600319011261050a576148d460ff5f5460a01c16614da7565b6148e766b1a2bc2ec50000341015614de5565b335f52601060205260ff60405f205416614b9557335f52600f60205260ff600460405f20015416614b5b576001600160801b033416614b266001600160401b0342166040519061493682614e1d565b338252836020830152600160408301525f60608301525f60808301525f60a08301525f60c083015261271060e0830152806101008301526101208201526001610140820152335f52600f602052600461014060405f209260018060a01b038151166001600160601b0360a01b855416178455614b0f60018501614a266001600160801b03602085015116916001600160801b031992838254161781556149f960ff604087015116829081549060ff60801b9060801b169060ff60801b1916179055565b6060850151815467ffffffffffffffff60881b191660889190911b67ffffffffffffffff60881b16179055565b614aa3600287016001600160401b036080860151166001600160401b0319825416178155614a846001600160401b0360a087015116829067ffffffffffffffff60401b82549160401b169067ffffffffffffffff60401b1916179055565b60c0850151815460ff60801b191660809190911b60ff60801b16179055565b60e083015160038701805461010086015167ffffffffffffffff60801b60809190911b166001600160801b03909316931667ffffffffffffffff60801b19169290921717815561012083015181546001600160c01b031660c09190911b6001600160c01b031916179055565b0151151591019060ff801983541691151516179055565b604051908152600160208201527f29c8e895376835a4350addb31a943ee597d8bc37d01cad78d5b781b505681d6360403392a2005b60405162461bcd60e51b8152602060048201526012602482015271105b1c9958591e481c9959da5cdd195c995960721b6044820152606490fd5b60405162461bcd60e51b815260206004820152600b60248201526a109b1858dadb1a5cdd195960aa1b6044820152606490fd5b3461050a575f36600319011261050a578066038d7ea4c6800060209252f35b600435906001600160a01b038216820361050a57565b602435906001600160a01b038216820361050a57565b604435906001600160a01b038216820361050a57565b606435906001600160a01b038216820361050a57565b3461050a575f36600319011261050a57602060405160038152f35b6024359060ff8216820361050a57565b60243590811515820361050a57565b3461050a575f36600319011261050a5760206040516203f4808152f35b3461050a575f36600319011261050a57602060405160028152f35b3461050a575f36600319011261050a57602060405160018152f35b3461050a575f36600319011261050a5760206040515f8152f35b3461050a575f36600319011261050a57602060405166b1a2bc2ec500008152f35b600435906001600160401b038216820361050a57565b604435906001600160801b038216820361050a57565b600435906001600160801b038216820361050a57565b3461050a575f36600319011261050a576020604051662386f26fc100008152f35b3461050a575f36600319011261050a57602060405160048152f35b3461050a575f36600319011261050a5760206040516706f05b59d3b200008152f35b15614dae57565b60405162461bcd60e51b815260206004820152600f60248201526e139bdd081a5b9a5d1a585b1a5e9959608a1b6044820152606490fd5b15614dec57565b60405162461bcd60e51b81526020600482015260096024820152684d696e207374616b6560b81b6044820152606490fd5b61016081019081106001600160401b0382111761169057604052565b61012081019081106001600160401b0382111761169057604052565b6101a081019081106001600160401b0382111761169057604052565b6001600160401b03811161169057604052565b60a081019081106001600160401b0382111761169057604052565b602081019081106001600160401b0382111761169057604052565b608081019081106001600160401b0382111761169057604052565b90601f801991011681019081106001600160401b0382111761169057604052565b15614efd57565b60405162461bcd60e51b815260206004820152600d60248201526c27b7363c903232b83637bcb2b960991b6044820152606490fd5b15614f3957565b60405162461bcd60e51b8152602060048201526007602482015266125b9d985b1a5960ca1b6044820152606490fd5b15614f6f57565b60405162461bcd60e51b81526020600482015260156024820152744e6f7420696e20636f6d6d756e69747920766f746560581b6044820152606490fd5b15614fb357565b60405162461bcd60e51b815260206004820152600d60248201526c159bdd1a5b99c818db1bdcd959609a1b6044820152606490fd5b15614fef57565b60405162461bcd60e51b81526020600482015260086024820152674e6f2076616c756560c01b6044820152606490fd5b1561502657565b60405162461bcd60e51b815260206004820152600d60248201526c105b1c9958591e481d9bdd1959609a1b6044820152606490fd5b9190916001600160801b0380809416911601918211610d2b57565b6001600160801b039182169082160391908211610d2b57565b3d156150c8573d906001600160401b03821161169057604051916150bd601f8201601f191660200184614ed5565b82523d5f602084013e565b606090565b156150d457565b60405162461bcd60e51b815260206004820152600f60248201526e151c985b9cd9995c8819985a5b1959608a1b6044820152606490fd5b1561511257565b60405162461bcd60e51b815260206004820152600660248201526514185d5cd95960d21b6044820152606490fd5b1561514757565b60405162461bcd60e51b815260206004820152600f60248201526e496e76616c6964206f7574636f6d6560881b6044820152606490fd5b1561518557565b60405162461bcd60e51b8152602060048201526011602482015270105b1c9958591e48199a5b985b1a5e9959607a1b6044820152606490fd5b60ff1660ff8114610d2b5760010190565b91909160058310156151e857601f908360051c01921690565b634e487b7160e01b5f52603260045260245ffd5b9190916001600160801b0380809416911602918216918203610d2b57565b906001600160801b0380911691821561523257160490565b634e487b7160e01b5f52601260045260245ffd5b1561524d57565b60405162461bcd60e51b815260206004820152600e60248201526d139bdd08185d5d1a1bdc9a5e995960921b6044820152606490fd5b1561528a57565b60405162461bcd60e51b815260206004820152600a6024820152694e6f742061637469766560b01b6044820152606490fd5b6001600160401b03809116908114610d2b5760010190565b906203f4806001600160401b0380931601918211610d2b57565b60ff60019116019060ff8211610d2b57565b600a546001600160a01b039182169082168114918215615330575b821561532657505090565b600c541614919050565b600b5481168214925061531b565b60ff16600181146153bb57600281146153ae57600381146153a1576004811461539457600581146153885760061461537c57670de0b6b3a764000090565b6706f05b59d3b2000090565b5066b1a2bc2ec5000090565b506703782dace9d9000090565b50670de0b6b3a764000090565b506706f05b59d3b2000090565b5067016345785d8a000090565b73ea30c4b8b44078bbf8a6ef5b9f1ec1626c7848d9803b1561050a57604051631974142760e21b815260048101929092523060248301525f908290604490829084905af18015613870576154195750565b61542290614e71565b565b90604080519263458693c960e01b84526004840152808360248173ea30c4b8b44078bbf8a6ef5b9f1ec1626c7848d95afa9283156154ba575f915f94615474575b50506001600160801b03169190565b8194508092503d83116154b3575b61548c8183614ed5565b8101031261050a576020825192015191821515830361050a576001600160801b035f615465565b503d615482565b50513d5f823e3d90fd5b5f60ff9160ff60165416915b82848216106154e157505050505f90565b60058110156151e85760118101546001600160a01b0383811691161461550b5760010183166154d0565b50505050600190565b801561562c575b811561561c575b604091825191606083018381106001600160401b03821117611690578452600283528336602085013761555483615769565b5261555e82615776565b5260206155a683519261557084614e9f565b5f84526155b885519485938493631888debd60e01b8552600660048601526008602486015260806044860152608485019061563a565b8381036003190160648501529061563a565b03815f73ea30c4b8b44078bbf8a6ef5b9f1ec1626c7848d95af191821561561357505f916155e4575090565b90506020813d60201161560b575b816155ff60209383614ed5565b8101031261050a575190565b3d91506155f2565b513d5f823e3d90fd5b90506156266156a3565b90615522565b506156356156a3565b61551b565b9081518082526020808093019301915f5b828110615659575050505090565b83518552938101939281019260010161564b565b90916156926156a09360068452601a602085015260806040850152608084019061563a565b91606081840391015261563a565b90565b61570c60206040516156b481614e9f565b5f8152604051906156c482614eba565b60038252606036848401375f6156d983615769565b5260066156e583615776565b525f6156f083615786565b52604051631888debd60e01b815293849283926004840161566d565b03815f73ea30c4b8b44078bbf8a6ef5b9f1ec1626c7848d95af1908115613870575f916155e4575090565b602061570c9160405161574981614e9f565b5f81526040519161575983614eba565b60038352606036858501376156d9835b8051156151e85760200190565b8051600110156151e85760400190565b8051600210156151e8576060019056fe879e083a73f2b483a12d85d717cb83bb77cd04c1b94908ffc732d72fa87996e5a2646970667358221220ac3c15404822cf919877b8732f073589f5bcdca359cb7013a1538398794e3d6464736f6c63430008190033",
  "linkReferences": {},
  "deployedLinkReferences": {}
}