{
  "_format": "hh-sol-artifact-1",
  "contractName": "FhenixGovernance",
  "sourceName": "contracts/FhenixGovernance.sol",
  "abi": [
    {
      "inputs": [],
      "stateMutability": "nonpayable",
      "type": "constructor"
    },
    {
      "inputs": [
        {
          "internalType": "int32",
          "name": "value",
          "type": "int32"
        }
      ],
      "name": "SecurityZoneOutOfBounds",
      "type": "error"
    },
    {
      "anonymous": false,
      "inputs": [
        {
          "indexed": true,
          "internalType": "address",
          "name": "delegator",
          "type": "address"
        },
        {
          "indexed": true,
          "internalType": "address",
          "name": "delegate",
          "type": "address"
        }
      ],
      "name": "DelegationCreated",
      "type": "event"
    },
    {
      "anonymous": false,
      "inputs": [
        {
          "indexed": true,
          "internalType": "address",
          "name": "delegator",
          "type": "address"
        },
        {
          "indexed": true,
          "internalType": "address",
          "name": "delegate",
          "type": "address"
        }
      ],
      "name": "DelegationRemoved",
      "type": "event"
    },
    {
      "anonymous": false,
      "inputs": [
        {
          "indexed": true,
          "internalType": "bytes32",
          "name": "marketId",
          "type": "bytes32"
        }
      ],
      "name": "EscalatedToCommunity",
      "type": "event"
    },
    {
      "anonymous": false,
      "inputs": [
        {
          "indexed": true,
          "internalType": "bytes32",
          "name": "marketId",
          "type": "bytes32"
        },
        {
          "indexed": true,
          "internalType": "address",
          "name": "initiator",
          "type": "address"
        }
      ],
      "name": "EscalationInitiated",
      "type": "event"
    },
    {
      "anonymous": false,
      "inputs": [
        {
          "indexed": true,
          "internalType": "bytes32",
          "name": "marketId",
          "type": "bytes32"
        }
      ],
      "name": "EscalationResolved",
      "type": "event"
    },
    {
      "anonymous": false,
      "inputs": [
        {
          "indexed": true,
          "internalType": "bytes32",
          "name": "marketId",
          "type": "bytes32"
        },
        {
          "indexed": true,
          "internalType": "address",
          "name": "voter",
          "type": "address"
        }
      ],
      "name": "EscalationVoteCast",
      "type": "event"
    },
    {
      "anonymous": false,
      "inputs": [
        {
          "indexed": false,
          "internalType": "address",
          "name": "guardian1",
          "type": "address"
        },
        {
          "indexed": false,
          "internalType": "address",
          "name": "guardian2",
          "type": "address"
        },
        {
          "indexed": false,
          "internalType": "address",
          "name": "guardian3",
          "type": "address"
        }
      ],
      "name": "GovernanceInitialized",
      "type": "event"
    },
    {
      "anonymous": false,
      "inputs": [
        {
          "indexed": true,
          "internalType": "bytes32",
          "name": "marketId",
          "type": "bytes32"
        }
      ],
      "name": "PanelAssigned",
      "type": "event"
    },
    {
      "anonymous": false,
      "inputs": [
        {
          "indexed": true,
          "internalType": "bytes32",
          "name": "marketId",
          "type": "bytes32"
        }
      ],
      "name": "PanelFinalized",
      "type": "event"
    },
    {
      "anonymous": false,
      "inputs": [
        {
          "indexed": true,
          "internalType": "bytes32",
          "name": "marketId",
          "type": "bytes32"
        },
        {
          "indexed": true,
          "internalType": "address",
          "name": "resolver",
          "type": "address"
        }
      ],
      "name": "PanelVoteSubmitted",
      "type": "event"
    },
    {
      "anonymous": false,
      "inputs": [
        {
          "indexed": true,
          "internalType": "bytes32",
          "name": "proposalId",
          "type": "bytes32"
        },
        {
          "indexed": false,
          "internalType": "address",
          "name": "proposer",
          "type": "address"
        },
        {
          "indexed": false,
          "internalType": "uint8",
          "name": "proposalType",
          "type": "uint8"
        }
      ],
      "name": "ProposalCreated",
      "type": "event"
    },
    {
      "anonymous": false,
      "inputs": [
        {
          "indexed": true,
          "internalType": "bytes32",
          "name": "proposalId",
          "type": "bytes32"
        }
      ],
      "name": "ProposalExecuted",
      "type": "event"
    },
    {
      "anonymous": false,
      "inputs": [
        {
          "indexed": true,
          "internalType": "bytes32",
          "name": "proposalId",
          "type": "bytes32"
        }
      ],
      "name": "ProposalVetoed",
      "type": "event"
    },
    {
      "anonymous": false,
      "inputs": [
        {
          "indexed": true,
          "internalType": "address",
          "name": "resolver",
          "type": "address"
        }
      ],
      "name": "ResolverBlacklisted",
      "type": "event"
    },
    {
      "anonymous": false,
      "inputs": [
        {
          "indexed": true,
          "internalType": "address",
          "name": "resolver",
          "type": "address"
        }
      ],
      "name": "ResolverRegistered",
      "type": "event"
    },
    {
      "anonymous": false,
      "inputs": [
        {
          "indexed": true,
          "internalType": "address",
          "name": "resolver",
          "type": "address"
        }
      ],
      "name": "ResolverSlashed",
      "type": "event"
    },
    {
      "anonymous": false,
      "inputs": [
        {
          "indexed": true,
          "internalType": "address",
          "name": "resolver",
          "type": "address"
        },
        {
          "indexed": false,
          "internalType": "uint8",
          "name": "newTier",
          "type": "uint8"
        }
      ],
      "name": "ResolverTierUpgraded",
      "type": "event"
    },
    {
      "anonymous": false,
      "inputs": [
        {
          "indexed": true,
          "internalType": "address",
          "name": "resolver",
          "type": "address"
        }
      ],
      "name": "ResolverUnstaked",
      "type": "event"
    },
    {
      "anonymous": false,
      "inputs": [
        {
          "indexed": true,
          "internalType": "address",
          "name": "user",
          "type": "address"
        }
      ],
      "name": "RewardClaimed",
      "type": "event"
    },
    {
      "anonymous": false,
      "inputs": [
        {
          "indexed": false,
          "internalType": "uint64",
          "name": "epochId",
          "type": "uint64"
        }
      ],
      "name": "RewardEpochFunded",
      "type": "event"
    },
    {
      "anonymous": false,
      "inputs": [
        {
          "indexed": true,
          "internalType": "bytes32",
          "name": "proposalId",
          "type": "bytes32"
        },
        {
          "indexed": true,
          "internalType": "address",
          "name": "voter",
          "type": "address"
        }
      ],
      "name": "VoteCast",
      "type": "event"
    },
    {
      "anonymous": false,
      "inputs": [
        {
          "indexed": true,
          "internalType": "bytes32",
          "name": "proposalId",
          "type": "bytes32"
        },
        {
          "indexed": false,
          "internalType": "uint8",
          "name": "status",
          "type": "uint8"
        }
      ],
      "name": "VoteFinalized",
      "type": "event"
    },
    {
      "inputs": [],
      "name": "ESCALATION_BOND",
      "outputs": [
        {
          "internalType": "uint128",
          "name": "",
          "type": "uint128"
        }
      ],
      "stateMutability": "view",
      "type": "function"
    },
    {
      "inputs": [],
      "name": "ESCALATION_COMMUNITY",
      "outputs": [
        {
          "internalType": "uint8",
          "name": "",
          "type": "uint8"
        }
      ],
      "stateMutability": "view",
      "type": "function"
    },
    {
      "inputs": [],
      "name": "ESCALATION_INITIATED",
      "outputs": [
        {
          "internalType": "uint8",
          "name": "",
          "type": "uint8"
        }
      ],
      "stateMutability": "view",
      "type": "function"
    },
    {
      "inputs": [],
      "name": "ESCALATION_NONE",
      "outputs": [
        {
          "internalType": "uint8",
          "name": "",
          "type": "uint8"
        }
      ],
      "stateMutability": "view",
      "type": "function"
    },
    {
      "inputs": [],
      "name": "ESCALATION_RESOLVED",
      "outputs": [
        {
          "internalType": "uint8",
          "name": "",
          "type": "uint8"
        }
      ],
      "stateMutability": "view",
      "type": "function"
    },
    {
      "inputs": [],
      "name": "ESCALATION_WINDOW",
      "outputs": [
        {
          "internalType": "uint64",
          "name": "",
          "type": "uint64"
        }
      ],
      "stateMutability": "view",
      "type": "function"
    },
    {
      "inputs": [],
      "name": "GOLD_MARKETS_REQUIRED",
      "outputs": [
        {
          "internalType": "uint64",
          "name": "",
          "type": "uint64"
        }
      ],
      "stateMutability": "view",
      "type": "function"
    },
    {
      "inputs": [],
      "name": "GOLD_REPUTATION_MIN",
      "outputs": [
        {
          "internalType": "uint128",
          "name": "",
          "type": "uint128"
        }
      ],
      "stateMutability": "view",
      "type": "function"
    },
    {
      "inputs": [],
      "name": "MAX_STRIKES",
      "outputs": [
        {
          "internalType": "uint8",
          "name": "",
          "type": "uint8"
        }
      ],
      "stateMutability": "view",
      "type": "function"
    },
    {
      "inputs": [],
      "name": "MIN_PROPOSAL_STAKE",
      "outputs": [
        {
          "internalType": "uint128",
          "name": "",
          "type": "uint128"
        }
      ],
      "stateMutability": "view",
      "type": "function"
    },
    {
      "inputs": [],
      "name": "MIN_VOTE_AMOUNT",
      "outputs": [
        {
          "internalType": "uint128",
          "name": "",
          "type": "uint128"
        }
      ],
      "stateMutability": "view",
      "type": "function"
    },
    {
      "inputs": [],
      "name": "PANEL_MAJORITY",
      "outputs": [
        {
          "internalType": "uint8",
          "name": "",
          "type": "uint8"
        }
      ],
      "stateMutability": "view",
      "type": "function"
    },
    {
      "inputs": [],
      "name": "PANEL_SIZE",
      "outputs": [
        {
          "internalType": "uint8",
          "name": "",
          "type": "uint8"
        }
      ],
      "stateMutability": "view",
      "type": "function"
    },
    {
      "inputs": [],
      "name": "PROPOSAL_EMERGENCY_PAUSE",
      "outputs": [
        {
          "internalType": "uint8",
          "name": "",
          "type": "uint8"
        }
      ],
      "stateMutability": "view",
      "type": "function"
    },
    {
      "inputs": [],
      "name": "PROPOSAL_FEE_CHANGE",
      "outputs": [
        {
          "internalType": "uint8",
          "name": "",
          "type": "uint8"
        }
      ],
      "stateMutability": "view",
      "type": "function"
    },
    {
      "inputs": [],
      "name": "PROPOSAL_PARAMETER",
      "outputs": [
        {
          "internalType": "uint8",
          "name": "",
          "type": "uint8"
        }
      ],
      "stateMutability": "view",
      "type": "function"
    },
    {
      "inputs": [],
      "name": "PROPOSAL_RESOLVER_ELECTION",
      "outputs": [
        {
          "internalType": "uint8",
          "name": "",
          "type": "uint8"
        }
      ],
      "stateMutability": "view",
      "type": "function"
    },
    {
      "inputs": [],
      "name": "PROPOSAL_RESOLVE_DISPUTE",
      "outputs": [
        {
          "internalType": "uint8",
          "name": "",
          "type": "uint8"
        }
      ],
      "stateMutability": "view",
      "type": "function"
    },
    {
      "inputs": [],
      "name": "PROPOSAL_TREASURY",
      "outputs": [
        {
          "internalType": "uint8",
          "name": "",
          "type": "uint8"
        }
      ],
      "stateMutability": "view",
      "type": "function"
    },
    {
      "inputs": [],
      "name": "QUORUM_EMERGENCY",
      "outputs": [
        {
          "internalType": "uint128",
          "name": "",
          "type": "uint128"
        }
      ],
      "stateMutability": "view",
      "type": "function"
    },
    {
      "inputs": [],
      "name": "QUORUM_FEE",
      "outputs": [
        {
          "internalType": "uint128",
          "name": "",
          "type": "uint128"
        }
      ],
      "stateMutability": "view",
      "type": "function"
    },
    {
      "inputs": [],
      "name": "QUORUM_PARAMETER",
      "outputs": [
        {
          "internalType": "uint128",
          "name": "",
          "type": "uint128"
        }
      ],
      "stateMutability": "view",
      "type": "function"
    },
    {
      "inputs": [],
      "name": "QUORUM_RESOLVE",
      "outputs": [
        {
          "internalType": "uint128",
          "name": "",
          "type": "uint128"
        }
      ],
      "stateMutability": "view",
      "type": "function"
    },
    {
      "inputs": [],
      "name": "QUORUM_RESOLVER",
      "outputs": [
        {
          "internalType": "uint128",
          "name": "",
          "type": "uint128"
        }
      ],
      "stateMutability": "view",
      "type": "function"
    },
    {
      "inputs": [],
      "name": "QUORUM_TREASURY",
      "outputs": [
        {
          "internalType": "uint128",
          "name": "",
          "type": "uint128"
        }
      ],
      "stateMutability": "view",
      "type": "function"
    },
    {
      "inputs": [],
      "name": "RESOLVER_STAKE_BRONZE",
      "outputs": [
        {
          "internalType": "uint128",
          "name": "",
          "type": "uint128"
        }
      ],
      "stateMutability": "view",
      "type": "function"
    },
    {
      "inputs": [],
      "name": "SILVER_MARKETS_REQUIRED",
      "outputs": [
        {
          "internalType": "uint64",
          "name": "",
          "type": "uint64"
        }
      ],
      "stateMutability": "view",
      "type": "function"
    },
    {
      "inputs": [],
      "name": "SILVER_REPUTATION_MIN",
      "outputs": [
        {
          "internalType": "uint128",
          "name": "",
          "type": "uint128"
        }
      ],
      "stateMutability": "view",
      "type": "function"
    },
    {
      "inputs": [],
      "name": "SLASH_PERCENT_MAJOR",
      "outputs": [
        {
          "internalType": "uint128",
          "name": "",
          "type": "uint128"
        }
      ],
      "stateMutability": "view",
      "type": "function"
    },
    {
      "inputs": [],
      "name": "SLASH_PERCENT_MINOR",
      "outputs": [
        {
          "internalType": "uint128",
          "name": "",
          "type": "uint128"
        }
      ],
      "stateMutability": "view",
      "type": "function"
    },
    {
      "inputs": [],
      "name": "STATUS_ACTIVE",
      "outputs": [
        {
          "internalType": "uint8",
          "name": "",
          "type": "uint8"
        }
      ],
      "stateMutability": "view",
      "type": "function"
    },
    {
      "inputs": [],
      "name": "STATUS_EXECUTED",
      "outputs": [
        {
          "internalType": "uint8",
          "name": "",
          "type": "uint8"
        }
      ],
      "stateMutability": "view",
      "type": "function"
    },
    {
      "inputs": [],
      "name": "STATUS_PASSED",
      "outputs": [
        {
          "internalType": "uint8",
          "name": "",
          "type": "uint8"
        }
      ],
      "stateMutability": "view",
      "type": "function"
    },
    {
      "inputs": [],
      "name": "STATUS_REJECTED",
      "outputs": [
        {
          "internalType": "uint8",
          "name": "",
          "type": "uint8"
        }
      ],
      "stateMutability": "view",
      "type": "function"
    },
    {
      "inputs": [],
      "name": "STATUS_VETOED",
      "outputs": [
        {
          "internalType": "uint8",
          "name": "",
          "type": "uint8"
        }
      ],
      "stateMutability": "view",
      "type": "function"
    },
    {
      "inputs": [],
      "name": "TIER_BRONZE",
      "outputs": [
        {
          "internalType": "uint8",
          "name": "",
          "type": "uint8"
        }
      ],
      "stateMutability": "view",
      "type": "function"
    },
    {
      "inputs": [],
      "name": "TIER_COMMITTEE",
      "outputs": [
        {
          "internalType": "uint8",
          "name": "",
          "type": "uint8"
        }
      ],
      "stateMutability": "view",
      "type": "function"
    },
    {
      "inputs": [],
      "name": "TIER_GOLD",
      "outputs": [
        {
          "internalType": "uint8",
          "name": "",
          "type": "uint8"
        }
      ],
      "stateMutability": "view",
      "type": "function"
    },
    {
      "inputs": [],
      "name": "TIER_SILVER",
      "outputs": [
        {
          "internalType": "uint8",
          "name": "",
          "type": "uint8"
        }
      ],
      "stateMutability": "view",
      "type": "function"
    },
    {
      "inputs": [],
      "name": "TIMELOCK_LONG",
      "outputs": [
        {
          "internalType": "uint64",
          "name": "",
          "type": "uint64"
        }
      ],
      "stateMutability": "view",
      "type": "function"
    },
    {
      "inputs": [],
      "name": "TIMELOCK_STANDARD",
      "outputs": [
        {
          "internalType": "uint64",
          "name": "",
          "type": "uint64"
        }
      ],
      "stateMutability": "view",
      "type": "function"
    },
    {
      "inputs": [],
      "name": "VOTING_PERIOD",
      "outputs": [
        {
          "internalType": "uint64",
          "name": "",
          "type": "uint64"
        }
      ],
      "stateMutability": "view",
      "type": "function"
    },
    {
      "inputs": [
        {
          "internalType": "bytes32",
          "name": "",
          "type": "bytes32"
        }
      ],
      "name": "approvedResolvers",
      "outputs": [
        {
          "internalType": "bool",
          "name": "",
          "type": "bool"
        }
      ],
      "stateMutability": "view",
      "type": "function"
    },
    {
      "inputs": [
        {
          "internalType": "bytes32",
          "name": "marketId",
          "type": "bytes32"
        },
        {
          "internalType": "address",
          "name": "r1",
          "type": "address"
        },
        {
          "internalType": "address",
          "name": "r2",
          "type": "address"
        },
        {
          "internalType": "address",
          "name": "r3",
          "type": "address"
        }
      ],
      "name": "assignResolverPanel",
      "outputs": [],
      "stateMutability": "nonpayable",
      "type": "function"
    },
    {
      "inputs": [
        {
          "internalType": "address",
          "name": "resolver",
          "type": "address"
        }
      ],
      "name": "blacklistResolver",
      "outputs": [],
      "stateMutability": "nonpayable",
      "type": "function"
    },
    {
      "inputs": [
        {
          "internalType": "address",
          "name": "",
          "type": "address"
        }
      ],
      "name": "blacklistedResolvers",
      "outputs": [
        {
          "internalType": "bool",
          "name": "",
          "type": "bool"
        }
      ],
      "stateMutability": "view",
      "type": "function"
    },
    {
      "inputs": [
        {
          "internalType": "uint64",
          "name": "epochId",
          "type": "uint64"
        }
      ],
      "name": "claimReward",
      "outputs": [],
      "stateMutability": "nonpayable",
      "type": "function"
    },
    {
      "inputs": [
        {
          "internalType": "bytes32",
          "name": "",
          "type": "bytes32"
        }
      ],
      "name": "committeeDecision",
      "outputs": [
        {
          "internalType": "uint8",
          "name": "",
          "type": "uint8"
        }
      ],
      "stateMutability": "view",
      "type": "function"
    },
    {
      "inputs": [
        {
          "internalType": "bytes32",
          "name": "",
          "type": "bytes32"
        }
      ],
      "name": "committeeFinalized",
      "outputs": [
        {
          "internalType": "bool",
          "name": "",
          "type": "bool"
        }
      ],
      "stateMutability": "view",
      "type": "function"
    },
    {
      "inputs": [
        {
          "internalType": "uint256",
          "name": "",
          "type": "uint256"
        }
      ],
      "name": "committeeMembers",
      "outputs": [
        {
          "internalType": "address",
          "name": "",
          "type": "address"
        }
      ],
      "stateMutability": "view",
      "type": "function"
    },
    {
      "inputs": [
        {
          "internalType": "bytes32",
          "name": "",
          "type": "bytes32"
        }
      ],
      "name": "committeeOutcomeVotes",
      "outputs": [
        {
          "internalType": "uint8",
          "name": "",
          "type": "uint8"
        }
      ],
      "stateMutability": "view",
      "type": "function"
    },
    {
      "inputs": [],
      "name": "committeeSize",
      "outputs": [
        {
          "internalType": "uint8",
          "name": "",
          "type": "uint8"
        }
      ],
      "stateMutability": "view",
      "type": "function"
    },
    {
      "inputs": [
        {
          "internalType": "bytes32",
          "name": "marketId",
          "type": "bytes32"
        },
        {
          "internalType": "uint8",
          "name": "outcome",
          "type": "uint8"
        }
      ],
      "name": "committeeVoteResolve",
      "outputs": [],
      "stateMutability": "nonpayable",
      "type": "function"
    },
    {
      "inputs": [
        {
          "internalType": "bytes32",
          "name": "",
          "type": "bytes32"
        }
      ],
      "name": "committeeVoted",
      "outputs": [
        {
          "internalType": "bool",
          "name": "",
          "type": "bool"
        }
      ],
      "stateMutability": "view",
      "type": "function"
    },
    {
      "inputs": [
        {
          "internalType": "uint8",
          "name": "proposalType",
          "type": "uint8"
        },
        {
          "internalType": "bytes32",
          "name": "target",
          "type": "bytes32"
        },
        {
          "internalType": "uint128",
          "name": "payload1",
          "type": "uint128"
        },
        {
          "internalType": "bytes32",
          "name": "payload2",
          "type": "bytes32"
        }
      ],
      "name": "createProposal",
      "outputs": [
        {
          "internalType": "bytes32",
          "name": "",
          "type": "bytes32"
        }
      ],
      "stateMutability": "payable",
      "type": "function"
    },
    {
      "inputs": [],
      "name": "currentEpochId",
      "outputs": [
        {
          "internalType": "uint64",
          "name": "",
          "type": "uint64"
        }
      ],
      "stateMutability": "view",
      "type": "function"
    },
    {
      "inputs": [
        {
          "internalType": "address",
          "name": "delegate",
          "type": "address"
        }
      ],
      "name": "delegateVotes",
      "outputs": [],
      "stateMutability": "payable",
      "type": "function"
    },
    {
      "inputs": [],
      "name": "deployer",
      "outputs": [
        {
          "internalType": "address",
          "name": "",
          "type": "address"
        }
      ],
      "stateMutability": "view",
      "type": "function"
    },
    {
      "inputs": [],
      "name": "depositProtocolFees",
      "outputs": [],
      "stateMutability": "payable",
      "type": "function"
    },
    {
      "inputs": [
        {
          "internalType": "bytes32",
          "name": "marketId",
          "type": "bytes32"
        }
      ],
      "name": "escalateToCommunity",
      "outputs": [],
      "stateMutability": "nonpayable",
      "type": "function"
    },
    {
      "inputs": [
        {
          "internalType": "bytes32",
          "name": "",
          "type": "bytes32"
        }
      ],
      "name": "escalations",
      "outputs": [
        {
          "internalType": "bytes32",
          "name": "marketId",
          "type": "bytes32"
        },
        {
          "internalType": "address",
          "name": "initiator",
          "type": "address"
        },
        {
          "internalType": "uint8",
          "name": "proposedOutcome",
          "type": "uint8"
        },
        {
          "internalType": "uint8",
          "name": "status",
          "type": "uint8"
        },
        {
          "internalType": "uint64",
          "name": "initiatedAt",
          "type": "uint64"
        },
        {
          "internalType": "uint128",
          "name": "bondAmount",
          "type": "uint128"
        },
        {
          "internalType": "uint128",
          "name": "votesFor",
          "type": "uint128"
        },
        {
          "internalType": "uint128",
          "name": "votesAgainst",
          "type": "uint128"
        },
        {
          "internalType": "uint64",
          "name": "communityDeadline",
          "type": "uint64"
        }
      ],
      "stateMutability": "view",
      "type": "function"
    },
    {
      "inputs": [
        {
          "internalType": "bytes32",
          "name": "proposalId",
          "type": "bytes32"
        }
      ],
      "name": "executeGovernance",
      "outputs": [],
      "stateMutability": "nonpayable",
      "type": "function"
    },
    {
      "inputs": [
        {
          "internalType": "bytes32",
          "name": "marketId",
          "type": "bytes32"
        }
      ],
      "name": "finalizeCommitteeVote",
      "outputs": [],
      "stateMutability": "nonpayable",
      "type": "function"
    },
    {
      "inputs": [
        {
          "internalType": "bytes32",
          "name": "marketId",
          "type": "bytes32"
        }
      ],
      "name": "finalizeEscalation",
      "outputs": [],
      "stateMutability": "nonpayable",
      "type": "function"
    },
    {
      "inputs": [
        {
          "internalType": "bytes32",
          "name": "proposalId",
          "type": "bytes32"
        }
      ],
      "name": "finalizeVote",
      "outputs": [],
      "stateMutability": "nonpayable",
      "type": "function"
    },
    {
      "inputs": [
        {
          "internalType": "uint128",
          "name": "lpReward",
          "type": "uint128"
        },
        {
          "internalType": "uint128",
          "name": "traderReward",
          "type": "uint128"
        }
      ],
      "name": "fundRewardEpoch",
      "outputs": [],
      "stateMutability": "payable",
      "type": "function"
    },
    {
      "inputs": [
        {
          "internalType": "bytes32",
          "name": "marketId",
          "type": "bytes32"
        }
      ],
      "name": "getPanel",
      "outputs": [
        {
          "components": [
            {
              "internalType": "bytes32",
              "name": "marketId",
              "type": "bytes32"
            },
            {
              "internalType": "address",
              "name": "resolver1",
              "type": "address"
            },
            {
              "internalType": "address",
              "name": "resolver2",
              "type": "address"
            },
            {
              "internalType": "address",
              "name": "resolver3",
              "type": "address"
            },
            {
              "internalType": "uint8",
              "name": "votesSubmitted",
              "type": "uint8"
            },
            {
              "internalType": "uint8[5]",
              "name": "outcomeVotes",
              "type": "uint8[5]"
            },
            {
              "internalType": "bool",
              "name": "finalized",
              "type": "bool"
            },
            {
              "internalType": "uint8",
              "name": "winningOutcome",
              "type": "uint8"
            },
            {
              "internalType": "uint64",
              "name": "assignedAt",
              "type": "uint64"
            }
          ],
          "internalType": "struct FhenixGovernance.MultiResolverPanel",
          "name": "",
          "type": "tuple"
        }
      ],
      "stateMutability": "view",
      "type": "function"
    },
    {
      "inputs": [
        {
          "internalType": "bytes32",
          "name": "proposalId",
          "type": "bytes32"
        }
      ],
      "name": "getProposal",
      "outputs": [
        {
          "components": [
            {
              "internalType": "bytes32",
              "name": "id",
              "type": "bytes32"
            },
            {
              "internalType": "address",
              "name": "proposer",
              "type": "address"
            },
            {
              "internalType": "uint8",
              "name": "proposalType",
              "type": "uint8"
            },
            {
              "internalType": "bytes32",
              "name": "target",
              "type": "bytes32"
            },
            {
              "internalType": "uint128",
              "name": "payload1",
              "type": "uint128"
            },
            {
              "internalType": "bytes32",
              "name": "payload2",
              "type": "bytes32"
            },
            {
              "internalType": "uint128",
              "name": "votesFor",
              "type": "uint128"
            },
            {
              "internalType": "uint128",
              "name": "votesAgainst",
              "type": "uint128"
            },
            {
              "internalType": "uint128",
              "name": "quorumRequired",
              "type": "uint128"
            },
            {
              "internalType": "uint64",
              "name": "createdAt",
              "type": "uint64"
            },
            {
              "internalType": "uint64",
              "name": "votingDeadline",
              "type": "uint64"
            },
            {
              "internalType": "uint64",
              "name": "timelockUntil",
              "type": "uint64"
            },
            {
              "internalType": "uint8",
              "name": "status",
              "type": "uint8"
            }
          ],
          "internalType": "struct FhenixGovernance.Proposal",
          "name": "",
          "type": "tuple"
        }
      ],
      "stateMutability": "view",
      "type": "function"
    },
    {
      "inputs": [
        {
          "internalType": "address",
          "name": "resolver",
          "type": "address"
        }
      ],
      "name": "getResolverProfile",
      "outputs": [
        {
          "components": [
            {
              "internalType": "address",
              "name": "resolver",
              "type": "address"
            },
            {
              "internalType": "uint128",
              "name": "stakeAmount",
              "type": "uint128"
            },
            {
              "internalType": "uint8",
              "name": "tier",
              "type": "uint8"
            },
            {
              "internalType": "uint64",
              "name": "marketsResolved",
              "type": "uint64"
            },
            {
              "internalType": "uint64",
              "name": "disputesReceived",
              "type": "uint64"
            },
            {
              "internalType": "uint64",
              "name": "disputesLost",
              "type": "uint64"
            },
            {
              "internalType": "uint8",
              "name": "strikes",
              "type": "uint8"
            },
            {
              "internalType": "uint128",
              "name": "reputationScore",
              "type": "uint128"
            },
            {
              "internalType": "uint64",
              "name": "registeredAt",
              "type": "uint64"
            },
            {
              "internalType": "uint64",
              "name": "lastActiveAt",
              "type": "uint64"
            },
            {
              "internalType": "bool",
              "name": "isActive",
              "type": "bool"
            }
          ],
          "internalType": "struct FhenixGovernance.ResolverProfile",
          "name": "",
          "type": "tuple"
        }
      ],
      "stateMutability": "view",
      "type": "function"
    },
    {
      "inputs": [
        {
          "internalType": "bytes32",
          "name": "",
          "type": "bytes32"
        }
      ],
      "name": "governanceParams",
      "outputs": [
        {
          "internalType": "uint128",
          "name": "",
          "type": "uint128"
        }
      ],
      "stateMutability": "view",
      "type": "function"
    },
    {
      "inputs": [],
      "name": "governancePaused",
      "outputs": [
        {
          "internalType": "bool",
          "name": "",
          "type": "bool"
        }
      ],
      "stateMutability": "view",
      "type": "function"
    },
    {
      "inputs": [
        {
          "internalType": "bytes32",
          "name": "marketId",
          "type": "bytes32"
        },
        {
          "internalType": "uint8",
          "name": "winningOutcome",
          "type": "uint8"
        }
      ],
      "name": "governanceResolve",
      "outputs": [],
      "stateMutability": "nonpayable",
      "type": "function"
    },
    {
      "inputs": [
        {
          "internalType": "bytes32",
          "name": "",
          "type": "bytes32"
        }
      ],
      "name": "governanceResolvedOutcomes",
      "outputs": [
        {
          "internalType": "uint8",
          "name": "",
          "type": "uint8"
        }
      ],
      "stateMutability": "view",
      "type": "function"
    },
    {
      "inputs": [],
      "name": "guardians",
      "outputs": [
        {
          "internalType": "address",
          "name": "guardian1",
          "type": "address"
        },
        {
          "internalType": "address",
          "name": "guardian2",
          "type": "address"
        },
        {
          "internalType": "address",
          "name": "guardian3",
          "type": "address"
        },
        {
          "internalType": "uint8",
          "name": "threshold",
          "type": "uint8"
        }
      ],
      "stateMutability": "view",
      "type": "function"
    },
    {
      "inputs": [
        {
          "internalType": "address",
          "name": "guardian1",
          "type": "address"
        },
        {
          "internalType": "address",
          "name": "guardian2",
          "type": "address"
        },
        {
          "internalType": "address",
          "name": "guardian3",
          "type": "address"
        },
        {
          "internalType": "address",
          "name": "_marketsContract",
          "type": "address"
        }
      ],
      "name": "initGovernance",
      "outputs": [],
      "stateMutability": "nonpayable",
      "type": "function"
    },
    {
      "inputs": [],
      "name": "initialized",
      "outputs": [
        {
          "internalType": "bool",
          "name": "",
          "type": "bool"
        }
      ],
      "stateMutability": "view",
      "type": "function"
    },
    {
      "inputs": [
        {
          "internalType": "bytes32",
          "name": "marketId",
          "type": "bytes32"
        },
        {
          "internalType": "uint8",
          "name": "proposedOutcome",
          "type": "uint8"
        }
      ],
      "name": "initiateEscalation",
      "outputs": [],
      "stateMutability": "payable",
      "type": "function"
    },
    {
      "inputs": [],
      "name": "marketsContract",
      "outputs": [
        {
          "internalType": "contract IFhenixMarkets",
          "name": "",
          "type": "address"
        }
      ],
      "stateMutability": "view",
      "type": "function"
    },
    {
      "inputs": [
        {
          "internalType": "bytes32",
          "name": "marketId",
          "type": "bytes32"
        },
        {
          "internalType": "uint8",
          "name": "outcome",
          "type": "uint8"
        }
      ],
      "name": "panelVote",
      "outputs": [],
      "stateMutability": "nonpayable",
      "type": "function"
    },
    {
      "inputs": [
        {
          "internalType": "bytes32",
          "name": "",
          "type": "bytes32"
        }
      ],
      "name": "panelVoted",
      "outputs": [
        {
          "internalType": "bool",
          "name": "",
          "type": "bool"
        }
      ],
      "stateMutability": "view",
      "type": "function"
    },
    {
      "inputs": [],
      "name": "proposalCount",
      "outputs": [
        {
          "internalType": "uint256",
          "name": "",
          "type": "uint256"
        }
      ],
      "stateMutability": "view",
      "type": "function"
    },
    {
      "inputs": [
        {
          "internalType": "bytes32",
          "name": "",
          "type": "bytes32"
        }
      ],
      "name": "proposals",
      "outputs": [
        {
          "internalType": "bytes32",
          "name": "id",
          "type": "bytes32"
        },
        {
          "internalType": "address",
          "name": "proposer",
          "type": "address"
        },
        {
          "internalType": "uint8",
          "name": "proposalType",
          "type": "uint8"
        },
        {
          "internalType": "bytes32",
          "name": "target",
          "type": "bytes32"
        },
        {
          "internalType": "uint128",
          "name": "payload1",
          "type": "uint128"
        },
        {
          "internalType": "bytes32",
          "name": "payload2",
          "type": "bytes32"
        },
        {
          "internalType": "uint128",
          "name": "votesFor",
          "type": "uint128"
        },
        {
          "internalType": "uint128",
          "name": "votesAgainst",
          "type": "uint128"
        },
        {
          "internalType": "uint128",
          "name": "quorumRequired",
          "type": "uint128"
        },
        {
          "internalType": "uint64",
          "name": "createdAt",
          "type": "uint64"
        },
        {
          "internalType": "uint64",
          "name": "votingDeadline",
          "type": "uint64"
        },
        {
          "internalType": "uint64",
          "name": "timelockUntil",
          "type": "uint64"
        },
        {
          "internalType": "uint8",
          "name": "status",
          "type": "uint8"
        }
      ],
      "stateMutability": "view",
      "type": "function"
    },
    {
      "inputs": [
        {
          "internalType": "address",
          "name": "user",
          "type": "address"
        },
        {
          "internalType": "uint64",
          "name": "epochId",
          "type": "uint64"
        },
        {
          "internalType": "uint128",
          "name": "lpContribution",
          "type": "uint128"
        },
        {
          "internalType": "uint128",
          "name": "tradeVolume",
          "type": "uint128"
        }
      ],
      "name": "recordContribution",
      "outputs": [],
      "stateMutability": "nonpayable",
      "type": "function"
    },
    {
      "inputs": [],
      "name": "registerResolver",
      "outputs": [],
      "stateMutability": "payable",
      "type": "function"
    },
    {
      "inputs": [
        {
          "internalType": "bytes32",
          "name": "",
          "type": "bytes32"
        }
      ],
      "name": "resolverPanels",
      "outputs": [
        {
          "internalType": "bytes32",
          "name": "marketId",
          "type": "bytes32"
        },
        {
          "internalType": "address",
          "name": "resolver1",
          "type": "address"
        },
        {
          "internalType": "address",
          "name": "resolver2",
          "type": "address"
        },
        {
          "internalType": "address",
          "name": "resolver3",
          "type": "address"
        },
        {
          "internalType": "uint8",
          "name": "votesSubmitted",
          "type": "uint8"
        },
        {
          "internalType": "bool",
          "name": "finalized",
          "type": "bool"
        },
        {
          "internalType": "uint8",
          "name": "winningOutcome",
          "type": "uint8"
        },
        {
          "internalType": "uint64",
          "name": "assignedAt",
          "type": "uint64"
        }
      ],
      "stateMutability": "view",
      "type": "function"
    },
    {
      "inputs": [
        {
          "internalType": "address",
          "name": "",
          "type": "address"
        }
      ],
      "name": "resolverRegistry",
      "outputs": [
        {
          "internalType": "address",
          "name": "resolver",
          "type": "address"
        },
        {
          "internalType": "uint128",
          "name": "stakeAmount",
          "type": "uint128"
        },
        {
          "internalType": "uint8",
          "name": "tier",
          "type": "uint8"
        },
        {
          "internalType": "uint64",
          "name": "marketsResolved",
          "type": "uint64"
        },
        {
          "internalType": "uint64",
          "name": "disputesReceived",
          "type": "uint64"
        },
        {
          "internalType": "uint64",
          "name": "disputesLost",
          "type": "uint64"
        },
        {
          "internalType": "uint8",
          "name": "strikes",
          "type": "uint8"
        },
        {
          "internalType": "uint128",
          "name": "reputationScore",
          "type": "uint128"
        },
        {
          "internalType": "uint64",
          "name": "registeredAt",
          "type": "uint64"
        },
        {
          "internalType": "uint64",
          "name": "lastActiveAt",
          "type": "uint64"
        },
        {
          "internalType": "bool",
          "name": "isActive",
          "type": "bool"
        }
      ],
      "stateMutability": "view",
      "type": "function"
    },
    {
      "inputs": [
        {
          "internalType": "uint64",
          "name": "",
          "type": "uint64"
        }
      ],
      "name": "rewardEpochs",
      "outputs": [
        {
          "internalType": "uint64",
          "name": "epochId",
          "type": "uint64"
        },
        {
          "internalType": "uint128",
          "name": "totalLPReward",
          "type": "uint128"
        },
        {
          "internalType": "uint128",
          "name": "totalTraderReward",
          "type": "uint128"
        },
        {
          "internalType": "uint128",
          "name": "totalLPContributions",
          "type": "uint128"
        },
        {
          "internalType": "uint128",
          "name": "totalTradeVolume",
          "type": "uint128"
        },
        {
          "internalType": "uint64",
          "name": "startedAt",
          "type": "uint64"
        },
        {
          "internalType": "bool",
          "name": "distributed",
          "type": "bool"
        }
      ],
      "stateMutability": "view",
      "type": "function"
    },
    {
      "inputs": [
        {
          "internalType": "address[5]",
          "name": "members",
          "type": "address[5]"
        },
        {
          "internalType": "uint8",
          "name": "size",
          "type": "uint8"
        }
      ],
      "name": "setCommitteeMembers",
      "outputs": [],
      "stateMutability": "nonpayable",
      "type": "function"
    },
    {
      "inputs": [
        {
          "internalType": "address",
          "name": "resolver",
          "type": "address"
        }
      ],
      "name": "slashResolver",
      "outputs": [],
      "stateMutability": "nonpayable",
      "type": "function"
    },
    {
      "inputs": [],
      "name": "treasuryBalance",
      "outputs": [
        {
          "internalType": "uint128",
          "name": "",
          "type": "uint128"
        }
      ],
      "stateMutability": "view",
      "type": "function"
    },
    {
      "inputs": [
        {
          "internalType": "address",
          "name": "delegate",
          "type": "address"
        }
      ],
      "name": "undelegateVotes",
      "outputs": [],
      "stateMutability": "nonpayable",
      "type": "function"
    },
    {
      "inputs": [
        {
          "internalType": "bytes32",
          "name": "proposalId",
          "type": "bytes32"
        }
      ],
      "name": "unlockAfterVote",
      "outputs": [],
      "stateMutability": "nonpayable",
      "type": "function"
    },
    {
      "inputs": [],
      "name": "unstakeResolver",
      "outputs": [],
      "stateMutability": "nonpayable",
      "type": "function"
    },
    {
      "inputs": [
        {
          "internalType": "address",
          "name": "resolver",
          "type": "address"
        },
        {
          "internalType": "bool",
          "name": "resolved",
          "type": "bool"
        },
        {
          "internalType": "bool",
          "name": "disputed",
          "type": "bool"
        },
        {
          "internalType": "bool",
          "name": "disputeLost",
          "type": "bool"
        }
      ],
      "name": "updateResolverStats",
      "outputs": [],
      "stateMutability": "nonpayable",
      "type": "function"
    },
    {
      "inputs": [
        {
          "internalType": "address",
          "name": "resolver",
          "type": "address"
        }
      ],
      "name": "upgradeResolverTier",
      "outputs": [],
      "stateMutability": "nonpayable",
      "type": "function"
    },
    {
      "inputs": [
        {
          "internalType": "bytes32",
          "name": "proposalId",
          "type": "bytes32"
        }
      ],
      "name": "vetoProposal",
      "outputs": [],
      "stateMutability": "nonpayable",
      "type": "function"
    },
    {
      "inputs": [
        {
          "internalType": "bytes32",
          "name": "proposalId",
          "type": "bytes32"
        }
      ],
      "name": "voteAgainst",
      "outputs": [],
      "stateMutability": "payable",
      "type": "function"
    },
    {
      "inputs": [
        {
          "internalType": "bytes32",
          "name": "marketId",
          "type": "bytes32"
        },
        {
          "internalType": "bool",
          "name": "support",
          "type": "bool"
        }
      ],
      "name": "voteEscalation",
      "outputs": [],
      "stateMutability": "payable",
      "type": "function"
    },
    {
      "inputs": [
        {
          "internalType": "bytes32",
          "name": "proposalId",
          "type": "bytes32"
        }
      ],
      "name": "voteFor",
      "outputs": [],
      "stateMutability": "payable",
      "type": "function"
    },
    {
      "inputs": [
        {
          "internalType": "bytes32",
          "name": "marketId",
          "type": "bytes32"
        }
      ],
      "name": "withdrawEscalationBond",
      "outputs": [],
      "stateMutability": "nonpayable",
      "type": "function"
    },
    {
      "inputs": [
        {
          "internalType": "uint128",
          "name": "amount",
          "type": "uint128"
        },
        {
          "internalType": "address",
          "name": "recipient",
          "type": "address"
        }
      ],
      "name": "withdrawTreasury",
      "outputs": [],
      "stateMutability": "nonpayable",
      "type": "function"
    },
    {
      "stateMutability": "payable",
      "type": "receive"
    }
  ],
  "bytecode": "0x608080604052346026575f80546001600160a01b031916331790556153df908161002b8239f35b5f80fdfe608080604052600436101561001c575b50361561001a575f80fd5b005b5f3560e01c908163038a3538146147bb575080630f5c4969146144bb578063123302ba1461449a578063158ef93e14614476578063193bad5d146141815780631b53df86146109da578063206c4b661461411657806321e91f8e14610ffc578063248bd471146140f4578063250948e2146140d9578063286c379b14613f7c578063313dab2014613f56578063318dfff114613e4357806332ed5b1214613d755780633338519d146110175780633515498614613be057806337d31acc146139835780633a6c6604146111865780633c0847f51461101c578063403eab2b14613832578063406ee60f1461364e57806340e53596146133b357806342a7c61414613391578063430694cf1461317f5780634389cc22146116a95780634ad86ffc14612f505780634cf3ad6a14612eb15780634f23b3581461101c5780635394c87914610a4257806353dd2687146109da5780635542fa80146111865780635614e1f1146109da5780635a81d4ba14612e695780635cb06d451461101c57806360d3d0d814612e4d578063665207b614612d22578063673a033714612cf55780636759647a14612abf57806367fed20e1461296f5780636984a46d146129405780636b7b8c63146129085780636e6a626314610a3d57806373b9c8671461274c57806374105d82146104a0578063748d22f214612687578063761edb48146125fe578063797af2bd146125c15780637a4bc51a1461258b5780637b7e52f8146123915780637ceb6efd146111815780637e406a3814612233578063815fdf4714611e2457806384060a2914611da0578063843ff9a514611d7e57806388ea26e814611b965780638b75d75a146119075780638b952a36146118685780638be615a7146111865780638c5fcdda146117285780638c72aa13146116fb578063941ff2e5146116ce5780639a46e412146111865780639cf4364b146116ae5780639d142a0b146116a9578063a138d18a14611572578063a42bd558146113a1578063a574511c1461118b578063abbf52dc14611186578063acb34f7014611181578063adf758f614611165578063b1610d7e14611148578063b5785f9c14611021578063b8f07dea146109da578063baab95741461101c578063bb43207414611017578063bb601d0014610ffc578063bc89d95814610f69578063c4e9ff4a14610f4e578063c593a10814610ea0578063c699c38414610cee578063c98327d614610cc6578063d028b71014610ad9578063d373d36914610abe578063d5f3948814610a97578063d957dff7146104a0578063da35c66414610a7a578063dcb6375514610a47578063ddc6739e14610a42578063de4b6803146109da578063de65e34114610a3d578063e066016714610a0e578063e37a7efd146109df578063e3d3f843146109da578063e6cee0ae146108ae578063e8ea4c76146105d9578063eacdc5ff146105b3578063f51ceca0146104ef578063fbf49bfd146104d4578063fc123004146104a5578063ff808c29146104a05763ffa12de41461047f575f61000f565b3461049c575f36600319011261049c5760206040516202a3008152f35b5f80fd5b61495d565b3461049c57602036600319011261049c576004355f52601e602052602060ff60405f2054166040519015158152f35b3461049c575f36600319011261049c57602060405160198152f35b3461049c57604036600319011261049c57610508614926565b6105106147da565b5f5490916001600160a01b039161052a9083163314614ae9565b602654916001600160801b0391828416918382169083821161057c5761001a965f96879661055b8897968897614c69565b16906001600160801b03191617602655165af1610576614c82565b50614cc0565b60405162461bcd60e51b815260206004820152600f60248201526e457863656564732062616c616e636560881b6044820152606490fd5b3461049c575f36600319011261049c5760206001600160401b0360225416604051908152f35b3461049c5760208060031936011261049c57600435906105ff60ff5f5460a01c1661499a565b815f5260029081815260405f2091600783018054600160ff8260401c160361087c576001600160401b038116421061084a5760ff60401b191668030000000000000000179055600183015460a01c60ff168181036106ab575090601f916001600160801b036003850154169301545f525260405f20906001600160801b03198254161790555b7f7b1bcf1ccf901a11589afff5504d59fd0a53780eed2a952adade0348985139e05f80a2005b600481036106e5575090601f916001600160801b036003850154169301545f525260405f20906001600160801b0319825416179055610685565b600581036107115750509060036001600160801b0391015416151560ff80198354169116179055610685565b600681036107365750601e9201545f525260405f20600160ff19825416179055610685565b60018103610764575090601d9160ff6003850154169301545f525260405f209060ff19825416179055610685565b6003915014610775575b5050610685565b6001600160801b03600481600385015416930154906026549080821680861161081257856107a291614c69565b6001600160801b03199092169116176026556001600160a01b03169081156107df57505f80806107d89481945af1610576614c82565b818061076e565b6064906040519062461bcd60e51b82526004820152600c60248201526b5a65726f206164647265737360a01b6044820152fd5b60405162461bcd60e51b815260048101869052601060248201526f4578636565647320747265617375727960801b6044820152606490fd5b60405162461bcd60e51b815260048101859052600a602482015269151a5b595b1bd8dad95960b21b6044820152606490fd5b60405162461bcd60e51b815260048101859052600a602482015269139bdd081c185cdcd95960b21b6044820152606490fd5b3461049c57602036600319011261049c576004356108d260ff5f5460a01c1661499a565b805f52602760205260405f20600181019081546108f7600260ff8360a81c1614614b5b565b6003820154906001600160401b038260801c164211156109a65760ff60a81b1916600360a81b1792839055600282015460801c6001600160801b0391909116101561097e57545f52601d60205260ff60405f209160a01c1660ff198254161790557fd5c0d4e027576e5ed8df7edbb928604bc839767a154929d2ef30bac370810aba5f80a2005b50507fd5c0d4e027576e5ed8df7edbb928604bc839767a154929d2ef30bac370810aba5f80a2005b60405162461bcd60e51b815260206004820152600c60248201526b5374696c6c20766f74696e6760a01b6044820152606490fd5b614832565b3461049c57602036600319011261049c576004355f52601a602052602060ff60405f2054166040519015158152f35b3461049c57602036600319011261049c576004355f526017602052602060ff60405f2054166040519015158152f35b61493c565b6148d9565b3461049c57602036600319011261049c576004355f52601f60205260206001600160801b0360405f205416604051908152f35b3461049c575f36600319011261049c576020600354604051908152f35b3461049c575f36600319011261049c575f546040516001600160a01b039091168152602090f35b3461049c575f36600319011261049c57602060405160058152f35b3461049c57608036600319011261049c57610af261481c565b610afa61485d565b604435801515810361049c5760643592831515840361049c575f546001600160a01b039190610b2c9083163314614ae9565b165f52600f60205260405f2091610b4960ff600485015416614e76565b610c52575b610bc6575b61001a91610b7d575b60030180546001600160c01b03164260c01b6001600160c01b031916179055565b610bc160028201610b9a6001600160401b03825460401c16614eaf565b67ffffffffffffffff60401b82549160401b169067ffffffffffffffff60401b1916179055565b610b5c565b6002810180546001600160401b03610bdf818316614eaf565b16906001600160401b03191617905560038101918254926001600160801b039384811660c881115f14610c475760c7190194808611610c335761001a955b16906001600160801b0319161790559150610b53565b634e487b7160e01b5f52601160045260245ffd5b5061001a945f610c1d565b610c9760018301610c6f6001600160401b03825460881c16614eaf565b815467ffffffffffffffff60881b191660889190911b67ffffffffffffffff60881b16179055565b6003820180546001600160801b03606481831601818111610c335716906001600160801b031916179055610b4e565b3461049c575f36600319011261049c576001546040516001600160a01b039091168152602090f35b3461049c57604036600319011261049c57600435610d0a61484d565b90610d14336150b7565b15610e6b5760ff9081831691600183101580610e60575b610d3490614b25565b815f52602090601a8252610d4e8160405f20541615614d71565b6040518281018481523360601b6001600160601b0319166020820152818103601481018352601f19979290610d869060340182614ac8565b519020805f5260178452610da08360405f20541615614c12565b5f526017835260405f209560ff1996600188825416179055610def6040519182610de38782019589879091602192825260ff60f81b9060f81b1660208201520190565b03908101835282614ac8565b519020805f526018835260405f2080548784610e0c818416614db1565b1691161790555f5260188252607f610e2e8260405f2054169260165416614ee1565b60011c161115610e3a57005b6019915f52601a815260405f206001858254161790555260405f20918254161790555f80f35b506004831115610d2b565b60405162461bcd60e51b815260206004820152600d60248201526c4e6f7420636f6d6d697474656560981b6044820152606490fd5b3461049c5760c036600319011261049c573660a41161049c5760a43560ff811680910361049c575f546001600160a01b0390610edf9082163314614ae9565b6005808311610f21575f9160045b828410610f02576016805460ff191686179055005b803593828516850361049c576020600192019481601101550192610eed565b60405162461bcd60e51b81526020600482015260056024820152644d6178203560d81b6044820152606490fd5b3461049c575f36600319011261049c57602060405160328152f35b3461049c57602036600319011261049c576004355f52601b60205261010060405f206001600160401b0381549160ff60018060a01b03918260018201541692806002830154166005600384015493015494604051978852602088015260408701528116606086015260a01c16608084015260ff8116151560a084015260ff8160081c1660c084015260101c1660e0820152f35b3461049c575f36600319011261049c576020604051600a8152f35b61486c565b6148a4565b3461049c5760208060031936011261049c5760043590815f52601a815260ff6110508160405f20541615614d71565b5f925f60015b600484821611156110dc575082607f6110728260165416614ee1565b60011c169116106110a9575f52601a8252601960405f209260ff19936001858254161790555260405f209216908254161790555f80f35b60405162461bcd60e51b815260048101849052600b60248201526a4e6f206d616a6f7269747960a81b6044820152606490fd5b60405185810184815260f883901b6001600160f81b03191660208201529061111181602184015b03601f198101835282614ac8565b5190205f52601885528360405f205416848316811161113a575b5061113590614db1565b611056565b91509450611135859061112b565b3461049c575f36600319011261049c57602060405162093a808152f35b3461049c575f36600319011261049c576020604051612ee08152f35b614978565b614889565b3461049c5760208060031936011261049c576111a561481c565b6111b560ff5f5460a01c1661499a565b60018060a01b031690815f52600f815260405f206111d960ff600483015416614e76565b600181019081549060ff8260801c16600181145f146112ba57509050815490600a6001600160401b038360881c161015908161129f575b501561125a5760ff60801b1916600160811b1781557f54dd2317a6e32c1f79afc545cf4f4daff78f09889e50c9627af83c526cd2ae16919060ff905b5460801c16604051908152a2005b60405162461bcd60e51b815260048101849052601760248201527f4e6f7420656c696769626c6520666f722053696c7665720000000000000000006044820152606490fd5b612ee0915060036001600160801b0391015416101585611210565b6002036113715760326001600160401b038360881c1610159081611356575b50156113195760ff60801b1916600360801b1781557f54dd2317a6e32c1f79afc545cf4f4daff78f09889e50c9627af83c526cd2ae16919060ff9061124c565b60405162461bcd60e51b8152600481018490526015602482015274139bdd08195b1a59da589b1948199bdc8811dbdb19605a1b6044820152606490fd5b613a98915060036001600160801b03910154161015856112d9565b60405162461bcd60e51b815260048101859052600860248201526726b0bc103a34b2b960c11b6044820152606490fd5b3461049c57608036600319011261049c576113ba61481c565b6113c26147da565b906113cb6147f0565b6113d3614806565b5f546001600160a01b03939092906113ee3386861614614ae9565b60ff8460a01c16611537578416928315158061152c575b80611521575b156114ec576040519260808401958487106001600160401b038811176114d8576002606082807f4a6ddf93c527399b46fddcb30aee5fa9e0ebdff88835732f27b9acf755b012c59b839b6040528a8a5216968760208a0152169687604082015201526001600160601b0360a01b918683600a541617600a558483600b541617600b55600160a11b866affffffffffffffffffffff60a81b600c54161717600c5516906001541617600155600160a01b9060ff60a01b1916175f5560405192835260208301526040820152a1005b634e487b7160e01b5f52604160045260245ffd5b60405162461bcd60e51b815260206004820152600d60248201526c2d32b9379033bab0b93234b0b760991b6044820152606490fd5b50848216151561140b565b508486161515611405565b60405162461bcd60e51b8152602060048201526013602482015272105b1c9958591e481a5b9a5d1a585b1a5e9959606a1b6044820152606490fd5b3461049c57602036600319011261049c576004355f5461159760ff8260a01c1661499a565b815f52602760205260405f20600181018054600160ff8260a81c160361167457611631936115e190336001600160a01b0391821614908115611663575b8115611657575b50614e39565b60ff60a81b1916600160a91b1790556003611604426001600160401b0316614ec7565b9101805467ffffffffffffffff60801b191660809290921b67ffffffffffffffff60801b16919091179055565b7fe0d9c289d3dfc546543e395b5019f15adb316000bfba80b7cdb64dbc85b3a59c5f80a2005b905082163314876115db565b905061166e33614ef3565b906115d4565b60405162461bcd60e51b815260206004820152600d60248201526c139bdd081a5b9a5d1a585d1959609a1b6044820152606490fd5b6148bf565b3461049c575f36600319011261049c57602060ff60165416604051908152f35b3461049c57602036600319011261049c576004355f526018602052602060ff60405f205416604051908152f35b3461049c57602036600319011261049c576004355f52601d602052602060ff60405f205416604051908152f35b602036600319011261049c5761173c61481c565b61174c60ff5f5460a01c1661499a565b6001600160a01b038116908115158061185e575b1561182657611770341515614bdb565b6001600160801b0390813416906040516117b08161110360208201943386906028926001600160601b0319809260601b16835260601b1660148201520190565b5190205f52600d60205260405f20805490836117ce84828516614c4e565b166001600160801b0319809316179055835f52600e60205260405f20926117f9845493828516614c4e565b169116179055337ffaf6077d874fc7f1716637c6f4ac4914ce0cfbf27767bb442ed23dd08dad40445f80a3005b60405162461bcd60e51b815260206004820152601060248201526f496e76616c69642064656c656761746560801b6044820152606490fd5b5033821415611760565b3461049c57602036600319011261049c5761188161481c565b5f546001600160a01b0391908216331480156118f3575b6118a190614e39565b16805f52600f602052600460405f200160ff19908181541690556010602052600160405f20918254161790557f8d755620a3983e6fcaff02384351c3cf493670d9a6f00169bf4bc2d09f7475be5f80a2005b506118a161190033614ef3565b9050611898565b3461049c5760208060031936011261049c576004359061192d60ff5f5460a01c1661499a565b815f526002815260405f2090600782019161194f60ff845460401c1615614e76565b60068101805460c01c421115611b6357845f526006835261197360405f2054615017565b91865f526007855261198860405f2054615017565b84919491611b5b575b5015611b0a576001600160801b038281166001600160801b0319608086901b168117600587015592909190829081906119cb908790614c4e565b925416911610159283611afe575b5050505f14611ad157825460ff600168010000000000000000938460ff60401b198516178755015460a01c16600581145f14611a4b5750505060ff5f8051602061538a833981519152926001600160401b0342166001600160401b03198254161781555b5460401c16604051908152a2005b600303611a8d57505060ff5f8051602061538a833981519152926001600160401b03611a78814216614ec7565b166001600160401b0319825416178155611a3d565b90926001600160401b03936202a3008542160192858411610c33575f8051602061538a8339815191529560ff94169068ffffffffffffffffff191617178155611a3d565b5060ff5f8051602061538a833981519152926802000000000000000060ff60401b19825416178155611a3d565b161090508580806119d9565b60405162461bcd60e51b815260048101869052602360248201527f44656372797074696f6e2070656e64696e672c2074727920616761696e206c616044820152623a32b960e91b6064820152608490fd5b905088611991565b60405162461bcd60e51b815260048101849052600b60248201526a2b37ba34b7339037b832b760a91b6044820152606490fd5b3461049c57602036600319011261049c57610160611bb261481c565b5f610140604051611bc281614a10565b8281528260208201528260408201528260608201528260808201528260a08201528260c08201528260e08201528261010082015282610120820152015260018060a01b038091165f52600f60205261014060405f209160ff600460405192611c2984614a10565b855416948584526001600160401b0360018201546001600160801b0381166020870152848160801c16604087015260881c1660608501528260028201546001600160401b03811660808701526001600160401b038160401c1660a087015260801c1660c085015260038101546001600160801b03811660e08601526001600160401b038160801c1661010086015260c01c6101208501520154161515828201526040519283526001600160801b03602082015116602084015260ff60408201511660408401526001600160401b0360608201511660608401526001600160401b0360808201511660808401526001600160401b0360a08201511660a084015260ff60c08201511660c08401526001600160801b0360e08201511660e08401526001600160401b03610100820151166101008401526001600160401b036101208201511661012084015201511515610140820152f35b3461049c575f36600319011261049c57602060405167016345785d8a00008152f35b3461049c575f36600319011261049c57335f52600f602052611dfd5f8080806001600160801b0360408220600481016001815492611de060ff8516614e76565b019081549260ff1916905582198216905516335af1610576614c82565b337f4db43c6bd5697f90f162476577384e8e775d3c164c8cfaca155e43969f44187b5f80a2005b608036600319011261049c5760043560ff81169081810361049c57602435611e4a614910565b611e5a60ff5f5460a01c1661499a565b611e6960ff6020541615614cfe565b600184101580612228575b156121f457611e8c662386f26fc100003410156149d8565b60405160208101903360601b825260ff60f81b8560f81b1660348201528360358201526001600160801b03198360801b16605582015242606582015260658152611ed581614a77565b5190205f818152600260205260409020600101549093906001600160a01b03166121c657611f0290614f31565b6001600160401b0362093a808142160111610c33576001600160801b03809260405194611f2e86614a48565b868652336020870152876040870152606086015216608084015260643560a08401525f60c08401525f60e0840152166101008201526001600160401b0342166101208201526001600160401b0362093a8081421601166101408201525f6101608201525f610180820152815f526002602052600760405f2082518155611ff16001820160018060a01b036020860151166001600160601b0360a01b82541617815560ff60408601511681549060ff60a01b9060a01b169060ff60a01b1916179055565b606083015160028201556080808401516003830180546001600160801b039283166001600160801b03199182161790915560a0860151600485015560c08087015160e088015190841690851b90921691909117600585015561010086015161012087015161014088015190921b6001600160c01b0319169216921b67ffffffffffffffff60801b169190911717600682015501906001600160401b036101608201511660ff60401b610180845493015160401b169168ffffffffffffffffff1916171790556120be615296565b6120c781614fbb565b815f52600660205260405f20556120dc615296565b6120e581614fbb565b815f52600760205260405f20556001600160801b033416335f52600860205260405f2080546001600160801b0361211e84828416614c4e565b6001600160801b0319909216911617905560408051602081018481523360601b6001600160601b0319169282019290925261215c8160548101611103565b5190205f52600960205260405f20906001600160801b03198254161790556003545f198114610c33577fc4b64ebdae706e07f37a5858b10df15949d7d4ca87db72ef3459de00499926c16040602094600185940160035581519033825286820152a2604051908152f35b60405162461bcd60e51b815260206004820152600660248201526545786973747360d01b6044820152606490fd5b60405162461bcd60e51b815260206004820152600c60248201526b496e76616c6964207479706560a01b6044820152606490fd5b506006841115611e74565b3461049c5760208060031936011261049c576040516004358183018181523360601b6001600160601b03191660208201529092916122748160348401611103565b51902091825f52602982526001600160801b03908160405f205416905f526027835260405f20600181015460018060a01b038116331480612382575b61231a575b5050169182156122eb575f8061001a94602982958395845252604082206001600160801b03198154169055335af1610576614c82565b60405162461bcd60e51b8152600481018390526007602482015266139bc8189bdb9960ca1b6044820152606490fd5b60ff60039160a81c160361234e5760020161233a81549284841690614c4e565b916001600160801b031916905584806122b5565b60405162461bcd60e51b815260048101859052600c60248201526b139bdd081c995cdbdb1d995960a21b6044820152606490fd5b508360028301541615156122b0565b604036600319011261049c576123a5614926565b6001600160801b036024358181169081810361049c576123da83916123d460018060a01b035f54163314614ae9565b85614c4e565b16341061255757602254906001600160401b0391826123fa818316614eaf565b1680916001600160401b031916176022556040519360e08501858110858211176114d8577fb00e9a0f78c6d14cd765a1117e8dc25aa671fcd00e523df2124f52d7a080a06996602096612531938793604052858252808983019316835260408201968752600260608301925f84526124fb60808201995f8b5260a0830196884216885260c084019a5f8c525f5260218e528860405f2094511677ffffffffffffffffffffffffffffffff00000000000000008554925160401b16916001600160401b0360c01b1617178355848060018501925116966001600160801b0319978884541617835551166001600160801b0382549181199060801b169116179055565b975197018054935167ffffffffffffffff60801b1993909416919097161716911660801b67ffffffffffffffff60801b16178355565b51815460ff60c01b191690151560c01b60ff60c01b1617905560225460405191168152a1005b60405162461bcd60e51b815260206004820152600c60248201526b125b9cdd59999a58da595b9d60a21b6044820152606490fd5b3461049c57602036600319011261049c57600435600581101561049c57601101546040516001600160a01b039091168152602090f35b3461049c57602036600319011261049c576001600160a01b036125e261481c565b165f526010602052602060ff60405f2054166040519015158152f35b3461049c57602036600319011261049c5760e06001600160401b03806126226148fa565b165f52602160205260ff60405f208054926001600160801b0360026001840154930154928160405196848116885260401c166020870152818116604087015260801c6060860152821660808501528160801c1660a084015260c01c16151560c0820152f35b3461049c57602036600319011261049c576101606001600160a01b03806126ac61481c565b165f52600f60205260405f2090815416906001810154906001600160801b036001600160401b039060ff6002840154838260046003880154970154169660405198895284811660208a0152838160801c1660408a015260881c1660608801528381166080880152838160401c1660a088015260801c1660c0860152821660e08501528160801c1661010084015260c01c6101208301521515610140820152f35b3461049c57602036600319011261049c5761276561481c565b5f546001600160a01b0391908216331480156128f4575b61278590614e39565b16805f52600f60205260405f2060048101906127a460ff835416614e76565b60ff600282016127d66127bc83835460801c16614db1565b825460ff60801b191660809190911b60ff60801b16178255565b5460801c16600281106128ec576019925b600183019160038354946001600160801b03948561281760648261280e818c169c8d614def565b1604809a614c69565b166001600160801b031997881617905501805491908483166103e88111156128e0576103e7190192858411610c335786866003955b1691161790551015612896575b5061286960265493828516614c4e565b169116176026557f5470b8ece6d890d8e43d24f952e3f09db58f48c15c5f2039537b8b1f322d23cd5f80a2005b60ff1990818154169055845f526010602052600160405f2091825416179055837f8d755620a3983e6fcaff02384351c3cf493670d9a6f00169bf4bc2d09f7475be5f80a284612859565b5060039286865f61284c565b600a926127e7565b5061278561290133614ef3565b905061277c565b5f36600319011261049c576026546001600160801b0361292c348216838316614c4e565b6001600160801b0319909216911617602655005b3461049c57602036600319011261049c576004355f52601c602052602060ff60405f2054166040519015158152f35b3461049c57608036600319011261049c5761298861481c565b6024356001600160401b03811680820361049c576129a4614910565b91606435926001600160801b0394858516850361049c57611103612a126002946129d860018060a01b035f54163314614ae9565b60405160609490941b6001600160601b0319166020850190815260c09190911b6001600160c01b031916603485015292918290603c820190565b51902092835f52602360205260405f209384549487612a3385828916614c4e565b166001600160801b03198097161790555f52602460205260405f2080548588612a5e89828516614c4e565b1691161790555f526021602052612aa560405f2091612a856001840191825460801c614c4e565b81546001600160801b031660809190911b6001600160801b031916179055565b0192612ab5845493828516614c4e565b1691161790555f80f35b3461049c5760208060031936011261049c57612ad96148fa565b6040513360601b6001600160601b03191681840190815260c083901b6001600160c01b031916601482015291929190612b1581601c8401611103565b51902091825f526025825260ff60405f205416612cbe576001600160401b038091165f526021825260405f20805491821615612c8e57612bb190845f52602384526001600160801b03928360405f205416602486528460405f2054165f92600185015492878460801c9283151580612c85575b612c65575b509150508060025f960154169283151580612c5c575b612c3a575b50505050614c4e565b16918215612c09575f80612be29460258295839584525260408220600160ff19825416179055335af1610576614c82565b337fea61a2a22523394f29506de20cc9db2e881f096477982d51012058ec9032714a5f80a2005b60405162461bcd60e51b8152600481018390526009602482015268139bc81c995dd85c9960ba1b6044820152606490fd5b612c5294955090612c4d92911690614def565b614e0d565b9086808581612ba8565b50821515612ba3565b612c7b94965090612c4d929160401c1690614def565b9188808781612b8d565b50821515612b88565b60405162461bcd60e51b815260048101849052600860248201526709cde40cae0dec6d60c31b6044820152606490fd5b60405162461bcd60e51b815260048101839052600f60248201526e105b1c9958591e4818db185a5b5959608a1b6044820152606490fd5b3461049c57602036600319011261049c576004355f526019602052602060ff60405f205416604051908152f35b3461049c57602036600319011261049c57600a5460043590336001600160a01b0391821614908115612e3e575b8115612e30575b5015612dfc57805f526002602052600760405f2001805460ff8160401c168015908115612df1575b5015612dbe5760ff60401b1916680400000000000000001790557f0c8bf601915d1f39ef591226bc69b3becc23fcb3616673c419062aa44beb42da5f80a2005b60405162461bcd60e51b815260206004820152600b60248201526a43616e6e6f74207665746f60a81b6044820152606490fd5b600191501484612d7e565b60405162461bcd60e51b815260206004820152600c60248201526b2737ba1033bab0b93234b0b760a11b6044820152606490fd5b9050600c5416331482612d56565b809150600b5416331490612d4f565b3461049c575f36600319011261049c576020604051613a988152f35b3461049c575f36600319011261049c57608060018060a01b0360ff81600a54169180600b541690600c549160405194855260208501528116604084015260a01c166060820152f35b3461049c57602036600319011261049c576004355f52602760205261012060405f2080549060018101546001600160401b039160028101548360036001600160801b039301549360405196875260018060a01b038116602088015260ff8160a01c16604088015260ff8160a81c16606088015260b01c16608086015281811660a086015260801c60c0850152811660e084015260801c16610100820152f35b3461049c57604036600319011261049c57600435612f6c61484d565b815f52601b60205260405f20906005820160ff612f8c8183541615614d71565b6001840154336001600160a01b039182161490811561316e575b811561315e575b501561312a5780612fce60029285166001811015908161311e575b50614d33565b60408051602081018881523360601b6001600160601b03191692820192909252612ffb8160548101611103565b519020805f52601c6020526130168260405f20541615614c12565b5f52601c6020526130cc84600460405f209760ff199860018a8254161790556130656003820161304b87825460a01c16614db1565b815460ff60a01b191660a09190911b60ff60a01b16179055565b0161309f6130738383614dc2565b81929154908761308981848460031b1c16614db1565b16919060ff809160031b9316831b921b19161790565b905533897fc1a68409b147b9ff15e83543c7963d151c009b8065d5e84b69728ce3389acb035f80a3614dc2565b90549060031b1c1610156130dc57005b805461ff001993166001179290921660089190911b61ff00161790557f013aa7c30259518765cad3f3d03676a3c0b543b5dd889be5c75f1ef81171b2475f80a2005b60049150111588612fc8565b60405162461bcd60e51b815260206004820152600c60248201526b139bdd081bdb881c185b995b60a21b6044820152606490fd5b9050600385015416331486612fad565b809150600286015416331490612fa6565b3461049c57602036600319011261049c575f6101806040516131a081614a48565b8281528260208201528260408201528260608201528260808201528260a08201528260c08201528260e08201528261010082015282610120820152826101408201528261016082015201526004355f5260026020526101a060405f2060ff61018060405161320d81614a48565b82600785549586845282600182015460018060a01b038116602087015260a01c166040850152600281015460608501526001600160801b036003820154166080850152600481015460a085015260058101546001600160801b03811660c086015260801c60e085015260068101546001600160801b0381166101008601526001600160401b038160801c1661012086015260c01c61014085015201546001600160401b03811661016084015260401c168282015260405193845260018060a01b036020820151166020850152826040820151166040850152606081015160608501526001600160801b03608082015116608085015260a081015160a08501526001600160801b0360c08201511660c08501526001600160801b0360e08201511660e08501526001600160801b03610100820151166101008501526001600160401b03610120820151166101208501526001600160401b03610140820151166101408501526001600160401b0361016082015116610160850152015116610180820152f35b3461049c575f36600319011261049c576020604051670de0b6b3a76400008152f35b60208060031936011261049c576004356133d360ff5f5460a01c1661499a565b6133e160ff83541615614cfe565b5f818152600283526040812060018101549193916001600160a01b03161561361d5760068161341d60ff600761342a95015460401c1615614e76565b015460c01c421115614b9f565b66038d7ea4c6800034106135ee576040518181018381523360601b6001600160601b0319166020820152906134628160348401611103565b519020805f526004825261347d60ff60405f20541615614c12565b805f526004825260405f20600160ff198254161790556134e46001600160801b0380341690335f526008855260405f208054916134bc84828516614c4e565b166001600160801b0319809316179055835f52600985528160405f209182541617905561532a565b906134ee82614fbb565b73ea30c4b8b44078bbf8a6ef5b9f1ec1626c7848d9803b1561049c57604051631974142760e21b815260048101849052336024820152905f908290604490829084905af180156135e3576135d0575b50845260058252806040852055835f146135a2576135676006918486528284526040862054615107565b9161357183614fbb565b8385525260408320555b7faa1c368ec955231333de5b5e0f09d0b2c72d83a2361a709edd03fb3636bd69d7339280a3005b6135b8600791845f5282845260405f2054615107565b916135c283614fbb565b835f525260405f205561357b565b6135db919550614a64565b5f938561353d565b6040513d5f823e3d90fd5b6064906040519062461bcd60e51b8252600482015260086024820152674d696e20766f746560c01b6044820152fd5b60405162461bcd60e51b8152600481018390526009602482015268139bdd08199bdd5b9960ba1b6044820152606490fd5b3461049c57602036600319011261049c575f61010060405161366f81614a2c565b82815282602082015282604082015282606082015282608082015260405161369681614a77565b60a036823760a08201528260c08201528260e082015201526004355f52601b60205260405f20604051906136c982614a2c565b805482526001600160401b03600560019260018060a01b03600182015416602086015260018060a01b03600282015416604086015260ff600382015460018060a01b038116606088015260a01c16608086015260405160ff60048301548181168352818160081c166020840152818160101c166040840152818160181c16606084015260201c16608082015261375e81614a77565b60a0860152015460ff8116151560c085015260ff8160081c1660e085015260101c16610100830152604051908251825260018060a01b03602084015116602083015260018060a01b03604084015116604083015260018060a01b03606084015116606083015260ff608084015116608083015260a083015160a083015f905b6005821061381b576101a0856001600160401b036101008960c0810151151561014085015260ff60e082015116610160850152015116610180820152f35b825160ff16815260209283019291840191016137dd565b3461049c5760208060031936011261049c57600435805f526002825260405f2060ff600782015460401c161590811591613972575b501561393e576040518281019182523360601b6001600160601b03191660208301526138968160348401611103565b51902090815f52600981526001600160801b038060405f205416928315613908575f61001a94819482948394845260098252600860408520926001600160801b0319938481541690553386525260408420918254916138f785828516614c69565b169116179055335af1610576614c82565b60405162461bcd60e51b815260048101849052600e60248201526d139bdd1a1a5b99c81b1bd8dad95960921b6044820152606490fd5b60405162461bcd60e51b815260048101839052600c60248201526b5374696c6c2061637469766560a01b6044820152606490fd5b60069150015460c01c421183613867565b604036600319011261049c5760043561399a61484d565b6139aa60ff5f5460a01c1661499a565b662386f26fc100003410613bb05760ff16600181101580613ba5575b6139cf90614d33565b815f52602760205260ff600160405f20015460a81c16613b6c576001600160401b036001600160801b039160405192613a0784614a2c565b8484526020840190338252604085019283526060850194600186526080810192854216845260a0820190833416825260c08301945f865260e08401985f8a526101008501975f89528b5f52602760205260405f20955186556001860193600160a01b600190039051166001600160601b0360a01b8554161784555160ff16613aa590849081549060ff60a01b9060a01b169060ff60a01b1916179055565b518254915168ffffffffffffffffff60a81b1990921660a89190911b60ff60a81b161760b09190911b67ffffffffffffffff60b01b161790555192516001600160801b039383169390931692821660801b6001600160801b0319908116939093176002820155945160039095018054935167ffffffffffffffff60801b951660801b94909416941691161767ffffffffffffffff60801b191691909117905533907f7404806e336c5d4c6550cd2195bb0429b2ca22dad17554554704a37e8a2d73475f80a3005b60405162461bcd60e51b8152602060048201526011602482015270105b1c9958591e48195cd8d85b185d1959607a1b6044820152606490fd5b5060048111156139c6565b60405162461bcd60e51b8152602060048201526008602482015267135a5b88189bdb9960c21b6044820152606490fd5b60208060031936011261049c57600435613c0060ff5f5460a01c1661499a565b613c0e60ff83541615614cfe565b5f818152600283526040812060018101549193916001600160a01b03161561361d5760068161341d60ff6007613c4a95015460401c1615614e76565b66038d7ea4c6800034106135ee576040518181018381523360601b6001600160601b031916602082015290613c828160348401611103565b519020805f5260048252613c9d60ff60405f20541615614c12565b805f526004825260405f20600160ff19825416179055613cdc6001600160801b0380341690335f526008855260405f208054916134bc84828516614c4e565b90613ce682614fbb565b73ea30c4b8b44078bbf8a6ef5b9f1ec1626c7848d9803b1561049c57604051631974142760e21b815260048101849052336024820152905f908290604490829084905af180156135e357613d59575b50600691613567918652600584528060408720558486528284526040862054615107565b61356791955091613d6b600693614a64565b5f95915091613d35565b3461049c57602036600319011261049c576004355f5260026020526101a060405f2060ff81549160018101549060028101546001600160801b038060038401541660048401546005850154916006860154948860076001600160401b03980154986040519b8c5260018060a01b03811660208d015260a01c1660408b015260608a0152608089015260a088015281811660c088015260801c60e08701528116610100860152818160801c1661012086015260c01c610140850152811661016084015260401c16610180820152f35b3461049c5760208060031936011261049c57613e5d61481c565b60405182810190613e9081611103853386906028926001600160601b0319809260601b16835260601b1660148201520190565b51902090815f52600d83526001600160801b038060405f205416928315613f21575f613efa948194829483948452600d8952600e60408520926001600160801b03199384815416905560018060a01b0316998a86525260408420918254916138f785828516614c69565b337fd34d27e61da1c0024d36fb461da2b2cc55f26de3975c87a55e96d835f66746295f80a3005b60405162461bcd60e51b815260048101869052600d60248201526c2737903232b632b3b0ba34b7b760991b6044820152606490fd5b3461049c575f36600319011261049c5760206001600160801b0360265416604051908152f35b604036600319011261049c57600435613f9361485d565b613fa360ff5f5460a01c1661499a565b815f52602760205260405f2090613fc6600260ff600185015460a81c1614614b5b565b60038201613fe36001600160401b03825460801c16421115614b9f565b613fee341515614bdb565b60408051602081018681523360601b6001600160601b0319169282019290925261401b8160548101611103565b519020805f52602860205261403760ff60405f20541615614c12565b5f52602860205260405f20600160ff198254161790556001600160801b039182341692602960205260405f20916001600160801b03199285848254161790555f146140bc57505050612a856002614094930191825460801c614c4e565b33907f22a5a5d460cd4ce1243126db20b92ed4dcc3af7df8ebe099103571036e0986625f80a3005b909193506140ce845493828516614c4e565b169116179055614094565b3461049c575f36600319011261049c57602060405160068152f35b3461049c575f36600319011261049c5760206040516703782dace9d900008152f35b3461049c57604036600319011261049c5760ff61413161484d565b61414560018060a01b035f54163314614ae9565b16600181101580614176575b61415a90614b25565b6004355f52601d60205260405f209060ff198254161790555f80f35b506004811115614151565b3461049c57608036600319011261049c5760043561419d6147da565b906141a66147f0565b6141ae614806565b5f546001600160a01b039485916141c89083163314614ae9565b1691825f52602094600f865260ff9182600460405f200154161561444157811692835f52600f875282600460405f200154161561440c57811695865f52600f815282600460405f20015416156143d8576040516001600160401b03949060a08101868111828210176114d8576040525f81528281015f9052604081015f9052606081015f9052608081015f9052604051986142628a614a2c565b888a52838a0197885260408a0192835260608a019081528560808b015f815260a08c0193845260c08c01995f8b5260e08d01978d5f8a52610100019a42168b528c5f52601b885260405f20809e5190558d6001978260018301945116936001600160601b0360a01b948582541617905582600283019151168482541617905560030194511690845416178355511661430f919081549060ff60a01b9060a01b169060ff60a01b1916179055565b51905f925f905b600582106143aa57505050509061434a600588614360959460048201550195511515869060ff801983541691151516179055565b51845461ff001916911660081b61ff0016178355565b5169ffffffffffffffff000082549160101b169069ffffffffffffffff000019161790557f317c20f4fd3ae996fa6263bc4cea1a7f7fd8c56d78322f8b5d9ffe999cd88d2e5f80a2005b9091816143cd8596858a85985116919060ff809160031b9316831b921b19161790565b950193920190614316565b6064906040519062461bcd60e51b82526004820152600d60248201526c5233206e6f742061637469766560981b6044820152fd5b60405162461bcd60e51b815260048101889052600d60248201526c5232206e6f742061637469766560981b6044820152606490fd5b60405162461bcd60e51b815260048101889052600d60248201526c5231206e6f742061637469766560981b6044820152606490fd5b3461049c575f36600319011261049c57602060ff5f5460a01c166040519015158152f35b3461049c575f36600319011261049c57602060ff8154166040519015158152f35b5f36600319011261049c576144d660ff5f5460a01c1661499a565b6144e966b1a2bc2ec500003410156149d8565b335f52601060205260ff60405f20541661478857335f52600f60205260ff600460405f2001541661474e576147276001600160401b0342166040519061452e82614a10565b3382526001600160801b0334166020830152600160408301525f60608301525f60808301525f60a08301525f60c083015261271060e0830152806101008301526101208201526001610140820152335f52600f602052600461014060405f209260018060a01b038151166001600160601b0360a01b855416178455614710600185016146276001600160801b03602085015116916001600160801b031992838254161781556145fa60ff604087015116829081549060ff60801b9060801b169060ff60801b1916179055565b6060850151815467ffffffffffffffff60881b191660889190911b67ffffffffffffffff60881b16179055565b6146a4600287016001600160401b036080860151166001600160401b03198254161781556146856001600160401b0360a087015116829067ffffffffffffffff60401b82549160401b169067ffffffffffffffff60401b1916179055565b60c0850151815460ff60801b191660809190911b60ff60801b16179055565b60e083015160038701805461010086015167ffffffffffffffff60801b60809190911b166001600160801b03909316931667ffffffffffffffff60801b19169290921717815561012083015181546001600160c01b031660c09190911b6001600160c01b031916179055565b0151151591019060ff801983541691151516179055565b337f98001b7b95ed55614b92b5d7d45b27a8501ff2f5e45752f656d1a6725adeba455f80a2005b60405162461bcd60e51b8152602060048201526012602482015271105b1c9958591e481c9959da5cdd195c995960721b6044820152606490fd5b60405162461bcd60e51b815260206004820152600b60248201526a109b1858dadb1a5cdd195960aa1b6044820152606490fd5b3461049c575f36600319011261049c578066038d7ea4c6800060209252f35b602435906001600160a01b038216820361049c57565b604435906001600160a01b038216820361049c57565b606435906001600160a01b038216820361049c57565b600435906001600160a01b038216820361049c57565b3461049c575f36600319011261049c57602060405160038152f35b6024359060ff8216820361049c57565b60243590811515820361049c57565b3461049c575f36600319011261049c5760206040516203f4808152f35b3461049c575f36600319011261049c57602060405160028152f35b3461049c575f36600319011261049c57602060405160018152f35b3461049c575f36600319011261049c5760206040515f8152f35b3461049c575f36600319011261049c57602060405166b1a2bc2ec500008152f35b600435906001600160401b038216820361049c57565b604435906001600160801b038216820361049c57565b600435906001600160801b038216820361049c57565b3461049c575f36600319011261049c576020604051662386f26fc100008152f35b3461049c575f36600319011261049c57602060405160048152f35b3461049c575f36600319011261049c5760206040516706f05b59d3b200008152f35b156149a157565b60405162461bcd60e51b815260206004820152600f60248201526e139bdd081a5b9a5d1a585b1a5e9959608a1b6044820152606490fd5b156149df57565b60405162461bcd60e51b81526020600482015260096024820152684d696e207374616b6560b81b6044820152606490fd5b61016081019081106001600160401b038211176114d857604052565b61012081019081106001600160401b038211176114d857604052565b6101a081019081106001600160401b038211176114d857604052565b6001600160401b0381116114d857604052565b60a081019081106001600160401b038211176114d857604052565b602081019081106001600160401b038211176114d857604052565b608081019081106001600160401b038211176114d857604052565b90601f801991011681019081106001600160401b038211176114d857604052565b15614af057565b60405162461bcd60e51b815260206004820152600d60248201526c27b7363c903232b83637bcb2b960991b6044820152606490fd5b15614b2c57565b60405162461bcd60e51b8152602060048201526007602482015266125b9d985b1a5960ca1b6044820152606490fd5b15614b6257565b60405162461bcd60e51b81526020600482015260156024820152744e6f7420696e20636f6d6d756e69747920766f746560581b6044820152606490fd5b15614ba657565b60405162461bcd60e51b815260206004820152600d60248201526c159bdd1a5b99c818db1bdcd959609a1b6044820152606490fd5b15614be257565b60405162461bcd60e51b81526020600482015260086024820152674e6f2076616c756560c01b6044820152606490fd5b15614c1957565b60405162461bcd60e51b815260206004820152600d60248201526c105b1c9958591e481d9bdd1959609a1b6044820152606490fd5b9190916001600160801b0380809416911601918211610c3357565b6001600160801b039182169082160391908211610c3357565b3d15614cbb573d906001600160401b0382116114d85760405191614cb0601f8201601f191660200184614ac8565b82523d5f602084013e565b606090565b15614cc757565b60405162461bcd60e51b815260206004820152600f60248201526e151c985b9cd9995c8819985a5b1959608a1b6044820152606490fd5b15614d0557565b60405162461bcd60e51b815260206004820152600660248201526514185d5cd95960d21b6044820152606490fd5b15614d3a57565b60405162461bcd60e51b815260206004820152600f60248201526e496e76616c6964206f7574636f6d6560881b6044820152606490fd5b15614d7857565b60405162461bcd60e51b8152602060048201526011602482015270105b1c9958591e48199a5b985b1a5e9959607a1b6044820152606490fd5b60ff1660ff8114610c335760010190565b9190916005831015614ddb57601f908360051c01921690565b634e487b7160e01b5f52603260045260245ffd5b9190916001600160801b0380809416911602918216918203610c3357565b906001600160801b03809116918215614e2557160490565b634e487b7160e01b5f52601260045260245ffd5b15614e4057565b60405162461bcd60e51b815260206004820152600e60248201526d139bdd08185d5d1a1bdc9a5e995960921b6044820152606490fd5b15614e7d57565b60405162461bcd60e51b815260206004820152600a6024820152694e6f742061637469766560b01b6044820152606490fd5b6001600160401b03809116908114610c335760010190565b906203f4806001600160401b0380931601918211610c3357565b60ff60019116019060ff8211610c3357565b600a546001600160a01b039182169082168114918215614f23575b8215614f1957505090565b600c541614919050565b600b54811682149250614f0e565b60ff1660018114614fae5760028114614fa15760038114614f945760048114614f875760058114614f7b57600614614f6f57670de0b6b3a764000090565b6706f05b59d3b2000090565b5066b1a2bc2ec5000090565b506703782dace9d9000090565b50670de0b6b3a764000090565b506706f05b59d3b2000090565b5067016345785d8a000090565b73ea30c4b8b44078bbf8a6ef5b9f1ec1626c7848d9803b1561049c57604051631974142760e21b815260048101929092523060248301525f908290604490829084905af180156135e35761500c5750565b61501590614a64565b565b90604080519263458693c960e01b84526004840152808360248173ea30c4b8b44078bbf8a6ef5b9f1ec1626c7848d95afa9283156150ad575f915f94615067575b50506001600160801b03169190565b8194508092503d83116150a6575b61507f8183614ac8565b8101031261049c576020825192015191821515830361049c576001600160801b035f615058565b503d615075565b50513d5f823e3d90fd5b5f60ff9160ff60165416915b82848216106150d457505050505f90565b6005811015614ddb5760118101546001600160a01b038381169116146150fe5760010183166150c3565b50505050600190565b801561521f575b811561520f575b604091825191606083018381106001600160401b038211176114d857845260028352833660208501376151478361535c565b5261515182615369565b52602061519983519261516384614a92565b5f84526151ab85519485938493631888debd60e01b8552600660048601526008602486015260806044860152608485019061522d565b8381036003190160648501529061522d565b03815f73ea30c4b8b44078bbf8a6ef5b9f1ec1626c7848d95af191821561520657505f916151d7575090565b90506020813d6020116151fe575b816151f260209383614ac8565b8101031261049c575190565b3d91506151e5565b513d5f823e3d90fd5b9050615219615296565b90615115565b50615228615296565b61510e565b9081518082526020808093019301915f5b82811061524c575050505090565b83518552938101939281019260010161523e565b90916152856152939360068452601a602085015260806040850152608084019061522d565b91606081840391015261522d565b90565b6152ff60206040516152a781614a92565b5f8152604051906152b782614aad565b60038252606036848401375f6152cc8361535c565b5260066152d883615369565b525f6152e383615379565b52604051631888debd60e01b8152938492839260048401615260565b03815f73ea30c4b8b44078bbf8a6ef5b9f1ec1626c7848d95af19081156135e3575f916151d7575090565b60206152ff9160405161533c81614a92565b5f81526040519161534c83614aad565b60038352606036858501376152cc835b805115614ddb5760200190565b805160011015614ddb5760400190565b805160021015614ddb576060019056fe879e083a73f2b483a12d85d717cb83bb77cd04c1b94908ffc732d72fa87996e5a26469706673582212203c9490ae73392e6f4c9e9a68eb4b63780304b01308f8979ab35d5ef03ef51b8464736f6c63430008190033",
  "linkReferences": {},
  "deployedLinkReferences": {}
}