{
  "_format": "hh-sol-artifact-1",
  "contractName": "MockTaskManager",
  "sourceName": "contracts/mocks/MockTaskManager.sol",
  "abi": [
    {
      "inputs": [
        {
          "internalType": "uint256",
          "name": "",
          "type": "uint256"
        },
        {
          "internalType": "address",
          "name": "",
          "type": "address"
        }
      ],
      "name": "acl",
      "outputs": [
        {
          "internalType": "bool",
          "name": "",
          "type": "bool"
        }
      ],
      "stateMutability": "view",
      "type": "function"
    },
    {
      "inputs": [
        {
          "internalType": "uint256",
          "name": "ctHash",
          "type": "uint256"
        },
        {
          "internalType": "address",
          "name": "account",
          "type": "address"
        }
      ],
      "name": "allow",
      "outputs": [],
      "stateMutability": "nonpayable",
      "type": "function"
    },
    {
      "inputs": [
        {
          "internalType": "uint256",
          "name": "",
          "type": "uint256"
        }
      ],
      "name": "allowGlobal",
      "outputs": [],
      "stateMutability": "nonpayable",
      "type": "function"
    },
    {
      "inputs": [
        {
          "internalType": "uint256",
          "name": "ctHash",
          "type": "uint256"
        },
        {
          "internalType": "address",
          "name": "account",
          "type": "address"
        }
      ],
      "name": "allowTransient",
      "outputs": [],
      "stateMutability": "nonpayable",
      "type": "function"
    },
    {
      "inputs": [
        {
          "internalType": "uint256",
          "name": "",
          "type": "uint256"
        },
        {
          "internalType": "address",
          "name": "",
          "type": "address"
        }
      ],
      "name": "createDecryptTask",
      "outputs": [],
      "stateMutability": "nonpayable",
      "type": "function"
    },
    {
      "inputs": [
        {
          "internalType": "uint8",
          "name": "",
          "type": "uint8"
        },
        {
          "internalType": "uint256",
          "name": "seed",
          "type": "uint256"
        },
        {
          "internalType": "int32",
          "name": "",
          "type": "int32"
        }
      ],
      "name": "createRandomTask",
      "outputs": [
        {
          "internalType": "uint256",
          "name": "",
          "type": "uint256"
        }
      ],
      "stateMutability": "nonpayable",
      "type": "function"
    },
    {
      "inputs": [
        {
          "internalType": "uint8",
          "name": "",
          "type": "uint8"
        },
        {
          "internalType": "enum FunctionId",
          "name": "funcId",
          "type": "uint8"
        },
        {
          "internalType": "uint256[]",
          "name": "encryptedInputs",
          "type": "uint256[]"
        },
        {
          "internalType": "uint256[]",
          "name": "extraInputs",
          "type": "uint256[]"
        }
      ],
      "name": "createTask",
      "outputs": [
        {
          "internalType": "uint256",
          "name": "",
          "type": "uint256"
        }
      ],
      "stateMutability": "nonpayable",
      "type": "function"
    },
    {
      "inputs": [
        {
          "internalType": "uint256",
          "name": "ctHash",
          "type": "uint256"
        }
      ],
      "name": "getDecryptResult",
      "outputs": [
        {
          "internalType": "uint256",
          "name": "",
          "type": "uint256"
        }
      ],
      "stateMutability": "view",
      "type": "function"
    },
    {
      "inputs": [
        {
          "internalType": "uint256",
          "name": "ctHash",
          "type": "uint256"
        }
      ],
      "name": "getDecryptResultSafe",
      "outputs": [
        {
          "internalType": "uint256",
          "name": "",
          "type": "uint256"
        },
        {
          "internalType": "bool",
          "name": "",
          "type": "bool"
        }
      ],
      "stateMutability": "view",
      "type": "function"
    },
    {
      "inputs": [
        {
          "internalType": "uint256",
          "name": "ctHash",
          "type": "uint256"
        },
        {
          "internalType": "address",
          "name": "account",
          "type": "address"
        }
      ],
      "name": "isAllowed",
      "outputs": [
        {
          "internalType": "bool",
          "name": "",
          "type": "bool"
        }
      ],
      "stateMutability": "nonpayable",
      "type": "function"
    },
    {
      "inputs": [
        {
          "internalType": "uint256",
          "name": "",
          "type": "uint256"
        }
      ],
      "name": "isPubliclyAllowed",
      "outputs": [
        {
          "internalType": "bool",
          "name": "",
          "type": "bool"
        }
      ],
      "stateMutability": "pure",
      "type": "function"
    },
    {
      "inputs": [
        {
          "internalType": "uint256",
          "name": "",
          "type": "uint256"
        }
      ],
      "name": "plaintexts",
      "outputs": [
        {
          "internalType": "uint256",
          "name": "",
          "type": "uint256"
        }
      ],
      "stateMutability": "view",
      "type": "function"
    },
    {
      "inputs": [
        {
          "internalType": "uint256",
          "name": "ctHash",
          "type": "uint256"
        },
        {
          "internalType": "uint256",
          "name": "result",
          "type": "uint256"
        },
        {
          "internalType": "bytes",
          "name": "",
          "type": "bytes"
        }
      ],
      "name": "publishDecryptResult",
      "outputs": [],
      "stateMutability": "nonpayable",
      "type": "function"
    },
    {
      "inputs": [
        {
          "internalType": "uint256[]",
          "name": "ctHashes",
          "type": "uint256[]"
        },
        {
          "internalType": "uint256[]",
          "name": "results",
          "type": "uint256[]"
        },
        {
          "internalType": "bytes[]",
          "name": "",
          "type": "bytes[]"
        }
      ],
      "name": "publishDecryptResultBatch",
      "outputs": [],
      "stateMutability": "nonpayable",
      "type": "function"
    },
    {
      "inputs": [
        {
          "internalType": "uint256",
          "name": "",
          "type": "uint256"
        },
        {
          "internalType": "uint256",
          "name": "",
          "type": "uint256"
        },
        {
          "internalType": "bytes",
          "name": "",
          "type": "bytes"
        }
      ],
      "name": "verifyDecryptResult",
      "outputs": [
        {
          "internalType": "bool",
          "name": "",
          "type": "bool"
        }
      ],
      "stateMutability": "pure",
      "type": "function"
    },
    {
      "inputs": [
        {
          "internalType": "uint256[]",
          "name": "",
          "type": "uint256[]"
        },
        {
          "internalType": "uint256[]",
          "name": "",
          "type": "uint256[]"
        },
        {
          "internalType": "bytes[]",
          "name": "",
          "type": "bytes[]"
        }
      ],
      "name": "verifyDecryptResultBatch",
      "outputs": [
        {
          "internalType": "bool",
          "name": "",
          "type": "bool"
        }
      ],
      "stateMutability": "pure",
      "type": "function"
    },
    {
      "inputs": [
        {
          "internalType": "uint256[]",
          "name": "ctHashes",
          "type": "uint256[]"
        },
        {
          "internalType": "uint256[]",
          "name": "",
          "type": "uint256[]"
        },
        {
          "internalType": "bytes[]",
          "name": "",
          "type": "bytes[]"
        }
      ],
      "name": "verifyDecryptResultBatchSafe",
      "outputs": [
        {
          "internalType": "bool[]",
          "name": "",
          "type": "bool[]"
        }
      ],
      "stateMutability": "pure",
      "type": "function"
    },
    {
      "inputs": [
        {
          "internalType": "uint256",
          "name": "",
          "type": "uint256"
        },
        {
          "internalType": "uint256",
          "name": "",
          "type": "uint256"
        },
        {
          "internalType": "bytes",
          "name": "",
          "type": "bytes"
        }
      ],
      "name": "verifyDecryptResultSafe",
      "outputs": [
        {
          "internalType": "bool",
          "name": "",
          "type": "bool"
        }
      ],
      "stateMutability": "pure",
      "type": "function"
    },
    {
      "inputs": [
        {
          "components": [
            {
              "internalType": "uint256",
              "name": "ctHash",
              "type": "uint256"
            },
            {
              "internalType": "uint8",
              "name": "securityZone",
              "type": "uint8"
            },
            {
              "internalType": "uint8",
              "name": "utype",
              "type": "uint8"
            },
            {
              "internalType": "bytes",
              "name": "signature",
              "type": "bytes"
            }
          ],
          "internalType": "struct EncryptedInput",
          "name": "input",
          "type": "tuple"
        },
        {
          "internalType": "address",
          "name": "",
          "type": "address"
        }
      ],
      "name": "verifyInput",
      "outputs": [
        {
          "internalType": "uint256",
          "name": "",
          "type": "uint256"
        }
      ],
      "stateMutability": "nonpayable",
      "type": "function"
    }
  ],
  "bytecode": "0x6080806040523460195760015f55610e88908161001e8239f35b5f80fdfe60406080815260049081361015610014575f80fd5b5f3560e01c80630828982714610b925780631868370114610b725780631888debd146104c757806327f9c762146103a857806334ef1e5a14610395578063458693c9146103685780634d7cb0c0146102695780635faa299a1461013e57806365d0509c1461028a578063733016511461031c57806380d55b691461028f5780638d9c9c921461028a5780638eef9ae71461026e578063a33b4b0a14610269578063cae71e37146101a1578063e64a0ded14610182578063e914f7241461013e578063ef3a6874146101175763f6bc7f3f146100ed575f80fd5b3461011357602036600319011261011357602091355f5260018252805f20549051908152f35b5f80fd5b503461011357602036600319011261011357602091355f5260018252805f20549051908152f35b503461011357806003193601126101135760209161015a610bac565b90355f5260028352815f209060018060a01b03165f52825260ff815f20541690519015158152f35b50346101135760209061019436610d77565b5050505050505160018152f35b50903461011357906101b236610d77565b5050505090506101c181610c69565b926101ce83519485610c32565b8184526101da82610c69565b9160209182860193601f19013685375f5b8281106102335750505082519384938285019183865251809252840192915f5b82811061021a57505050500390f35b835115158552869550938101939281019260010161020b565b86949596518110156102565780600185819360051b8801015201959493956101eb565b603282634e487b7160e01b5f525260245ffd5b610ce0565b5034610113576020366003190112610113576020905160018152f35b610cfd565b5034610113576060366003190112610113576102a9610c14565b506044358060030b03610113575f546102c181610e34565b5f558151602435602082019081528184018390528382526060820193916001600160401b03851181861017610309576020955084835251902090825f52600185525f20558152f35b604186634e487b7160e01b5f525260245ffd5b50346101135761032b36610d77565b50505f94919392945b85811061033d57005b8061034b6001928488610e42565b35610357828988610e42565b355f5282602052845f205501610334565b50903461011357602036600319011261011357355f526001602052805f2054815190815260016020820152f35b3461011357602036600319011261011357005b503461011357600319908082360112610113578235926001600160401b03928385116101135760809085360301126101135781519260808401848110828211176104b457835284820135845261040060248601610c24565b946020958686015261041460448201610c24565b848601526064810135908282116101135701913660238401121561011357808301359182116104a15750825191610454601f8301601f1916870184610c32565b818352366024838301011161011357815f92602488930183860137830101526060830152610480610bac565b505f549161048d83610e34565b5f5551825f5260018452815f205551908152f35b604190634e487b7160e01b5f525260245ffd5b604183634e487b7160e01b5f525260245ffd5b5034610113576080366003190112610113576104e1610c14565b50602491823560209384821015610113576001600160401b0392604435848111610113576105129036908301610c80565b936064359081116101135761052a9036908301610c80565b92601a8103610562575050506105409150610ddc565b51905b5f549161054f83610e34565b5f55825f5260018452815f205551908152f35b91925090600881036105b9575061057883610ddc565b515f526001855261058c845f205493610dfd565b515f5260018552835f205483018093116105a857505090610543565b601190634e487b7160e01b5f52525ffd5b6007810361064057506105cb83610ddc565b515f52600185526105df845f205493610dfd565b515f5260018552835f20548084106106025783039283116105a857505090610543565b50601a6064928686519362461bcd60e51b8552840152820152794d6f636b5461736b4d616e616765723a20756e646572666c6f7760301b6044820152fd5b919291600f8103610686575050610680915061065b81610ddc565b515f526001845261066f835f205491610dfd565b515f5260018452825f205490610e0d565b90610543565b600d8103610708575061069882610dfd565b515f5260018552835f20549283156106c75750506106b590610ddc565b515f5260018352815f20540490610543565b845162461bcd60e51b8152918201869052601c908201527b4d6f636b5461736b4d616e616765723a20646976206279207a65726f60201b6044820152606490fd5b909290600e810361075d575061071d82610ddc565b515f5260018552610731845f205492610dfd565b515f5260018552835f205492831561074c5750500690610543565b601290634e487b7160e01b5f52525ffd5b91929091601581036107af5750505061077581610ddc565b515f5260018352610789825f205491610dfd565b515f5260018352815f2054105f146107a75760ff60015b1690610543565b60ff5f6107a0565b601281036107f1575050506107c381610ddc565b515f52600183526107d7825f205491610dfd565b515f9081526001845282902054116107a757600190610543565b601481036108335750505061080581610ddc565b515f5260018352610819825f205491610dfd565b515f5260018352815f2054115f146107a757600190610543565b601381036108755750505061084781610ddc565b515f526001835261085b825f205491610dfd565b515f9081526001845282902054106107a757600190610543565b601881036108b75750505061088981610ddc565b515f526001835261089d825f205491610dfd565b515f5260018352815f2054145f146107a757600190610543565b601981036108f9575050506108cb81610ddc565b515f52600183526108df825f205491610dfd565b515f9081526001845282902054146107a757600190610543565b601681036109435750505061090d81610ddc565b515f5260018352610921825f205491610dfd565b515f5260018352815f20548082105f1461093c575090610543565b9050610680565b601781036109865750505061095781610ddc565b515f526001835261096b825f205491610dfd565b515f5260018352815f20548082115f1461093c575090610543565b8082036109f5575061099783610ddc565b515f9081526001865284902054156109c55750506109b490610dfd565b515f5260018252805f205490610543565b8251600210156109e4575050606001515f5260018252805f2054610680565b603290634e487b7160e01b5f52525ffd5b915050600c8103610a1c5750610a0a90610ddc565b515f5260018252805f20541990610543565b600a8103610a545750610a2e81610ddc565b515f5260018352610a42825f205491610dfd565b515f5260018352815f20541690610543565b600b8103610a8c5750610a6681610ddc565b515f5260018352610a7a825f205491610dfd565b515f5260018352815f20541790610543565b60098103610ac45750610a9e81610ddc565b515f5260018352610ab2825f205491610dfd565b515f5260018352815f20541890610543565b60108103610afc5750610ad681610ddc565b515f5260018352610aea825f205491610dfd565b515f5260018352815f20541b90610543565b60118103610b345750610b0e81610ddc565b515f5260018352610b22825f205491610dfd565b515f5260018352815f20541c90610543565b60028103610b4657506109b490610ddc565b601e03610b6a57610b5690610ddc565b515f5260018252610680815f205480610e0d565b505f90610543565b503461011357610b8136610bc2565b50505f918252600160205291902055005b50346101135736600319011261011357610baa610bac565b005b602435906001600160a01b038216820361011357565b9060606003198301126101135760043591602435916001600160401b03916044359083821161011357806023830112156101135781600401359384116101135760248483010111610113576024019190565b6004359060ff8216820361011357565b359060ff8216820361011357565b601f909101601f19168101906001600160401b03821190821017610c5557604052565b634e487b7160e01b5f52604160045260245ffd5b6001600160401b038111610c555760051b60200190565b9080601f83011215610113576020908235610c9a81610c69565b93610ca86040519586610c32565b81855260208086019260051b82010192831161011357602001905b828210610cd1575050505090565b81358152908301908301610cc3565b3461011357610cee36610bc2565b50505050602060405160018152f35b3461011357604036600319011261011357610d16610bac565b6004355f9081526002602090815260408083206001600160a01b03909416835292905220805460ff19166001179055005b9181601f84011215610113578235916001600160401b038311610113576020808501948460051b01011161011357565b906060600319830112610113576001600160401b036004358181116101135783610da391600401610d47565b939093926024358381116101135782610dbe91600401610d47565b9390939260443591821161011357610dd891600401610d47565b9091565b805115610de95760200190565b634e487b7160e01b5f52603260045260245ffd5b805160011015610de95760400190565b81810292918115918404141715610e2057565b634e487b7160e01b5f52601160045260245ffd5b5f198114610e205760010190565b9190811015610de95760051b019056fea2646970667358221220282e2cc8b825e75caa0716ec240590d52a66f9f143ec3142ae377fa6461a1dae64736f6c63430008190033",
  "linkReferences": {},
  "deployedLinkReferences": {}
}