{
  "_format": "hh-sol-artifact-1",
  "contractName": "MockTaskManager",
  "sourceName": "contracts/mocks/MockTaskManager.sol",
  "abi": [
    {
      "inputs": [
        {
          "internalType": "uint256",
          "name": "",
          "type": "uint256"
        },
        {
          "internalType": "address",
          "name": "",
          "type": "address"
        }
      ],
      "name": "acl",
      "outputs": [
        {
          "internalType": "bool",
          "name": "",
          "type": "bool"
        }
      ],
      "stateMutability": "view",
      "type": "function"
    },
    {
      "inputs": [
        {
          "internalType": "uint256",
          "name": "ctHash",
          "type": "uint256"
        },
        {
          "internalType": "address",
          "name": "account",
          "type": "address"
        }
      ],
      "name": "allow",
      "outputs": [],
      "stateMutability": "nonpayable",
      "type": "function"
    },
    {
      "inputs": [
        {
          "internalType": "uint256",
          "name": "",
          "type": "uint256"
        }
      ],
      "name": "allowGlobal",
      "outputs": [],
      "stateMutability": "nonpayable",
      "type": "function"
    },
    {
      "inputs": [
        {
          "internalType": "uint256",
          "name": "ctHash",
          "type": "uint256"
        },
        {
          "internalType": "address",
          "name": "account",
          "type": "address"
        }
      ],
      "name": "allowTransient",
      "outputs": [],
      "stateMutability": "nonpayable",
      "type": "function"
    },
    {
      "inputs": [
        {
          "internalType": "uint256",
          "name": "",
          "type": "uint256"
        },
        {
          "internalType": "address",
          "name": "",
          "type": "address"
        }
      ],
      "name": "createDecryptTask",
      "outputs": [],
      "stateMutability": "nonpayable",
      "type": "function"
    },
    {
      "inputs": [
        {
          "internalType": "uint8",
          "name": "",
          "type": "uint8"
        },
        {
          "internalType": "uint256",
          "name": "seed",
          "type": "uint256"
        },
        {
          "internalType": "int32",
          "name": "",
          "type": "int32"
        }
      ],
      "name": "createRandomTask",
      "outputs": [
        {
          "internalType": "uint256",
          "name": "",
          "type": "uint256"
        }
      ],
      "stateMutability": "nonpayable",
      "type": "function"
    },
    {
      "inputs": [
        {
          "internalType": "uint8",
          "name": "",
          "type": "uint8"
        },
        {
          "internalType": "enum FunctionId",
          "name": "funcId",
          "type": "uint8"
        },
        {
          "internalType": "uint256[]",
          "name": "encryptedInputs",
          "type": "uint256[]"
        },
        {
          "internalType": "uint256[]",
          "name": "extraInputs",
          "type": "uint256[]"
        }
      ],
      "name": "createTask",
      "outputs": [
        {
          "internalType": "uint256",
          "name": "",
          "type": "uint256"
        }
      ],
      "stateMutability": "nonpayable",
      "type": "function"
    },
    {
      "inputs": [
        {
          "internalType": "uint256",
          "name": "ctHash",
          "type": "uint256"
        }
      ],
      "name": "getDecryptResult",
      "outputs": [
        {
          "internalType": "uint256",
          "name": "",
          "type": "uint256"
        }
      ],
      "stateMutability": "view",
      "type": "function"
    },
    {
      "inputs": [
        {
          "internalType": "uint256",
          "name": "ctHash",
          "type": "uint256"
        }
      ],
      "name": "getDecryptResultSafe",
      "outputs": [
        {
          "internalType": "uint256",
          "name": "",
          "type": "uint256"
        },
        {
          "internalType": "bool",
          "name": "",
          "type": "bool"
        }
      ],
      "stateMutability": "view",
      "type": "function"
    },
    {
      "inputs": [
        {
          "internalType": "uint256",
          "name": "ctHash",
          "type": "uint256"
        },
        {
          "internalType": "address",
          "name": "account",
          "type": "address"
        }
      ],
      "name": "isAllowed",
      "outputs": [
        {
          "internalType": "bool",
          "name": "",
          "type": "bool"
        }
      ],
      "stateMutability": "nonpayable",
      "type": "function"
    },
    {
      "inputs": [
        {
          "internalType": "uint256",
          "name": "",
          "type": "uint256"
        }
      ],
      "name": "isPubliclyAllowed",
      "outputs": [
        {
          "internalType": "bool",
          "name": "",
          "type": "bool"
        }
      ],
      "stateMutability": "pure",
      "type": "function"
    },
    {
      "inputs": [
        {
          "internalType": "uint256",
          "name": "",
          "type": "uint256"
        }
      ],
      "name": "plaintexts",
      "outputs": [
        {
          "internalType": "uint256",
          "name": "",
          "type": "uint256"
        }
      ],
      "stateMutability": "view",
      "type": "function"
    },
    {
      "inputs": [
        {
          "internalType": "uint256",
          "name": "ctHash",
          "type": "uint256"
        },
        {
          "internalType": "uint256",
          "name": "result",
          "type": "uint256"
        },
        {
          "internalType": "bytes",
          "name": "",
          "type": "bytes"
        }
      ],
      "name": "publishDecryptResult",
      "outputs": [],
      "stateMutability": "nonpayable",
      "type": "function"
    },
    {
      "inputs": [
        {
          "internalType": "uint256[]",
          "name": "ctHashes",
          "type": "uint256[]"
        },
        {
          "internalType": "uint256[]",
          "name": "results",
          "type": "uint256[]"
        },
        {
          "internalType": "bytes[]",
          "name": "",
          "type": "bytes[]"
        }
      ],
      "name": "publishDecryptResultBatch",
      "outputs": [],
      "stateMutability": "nonpayable",
      "type": "function"
    },
    {
      "inputs": [
        {
          "internalType": "uint256",
          "name": "",
          "type": "uint256"
        },
        {
          "internalType": "uint256",
          "name": "",
          "type": "uint256"
        },
        {
          "internalType": "bytes",
          "name": "",
          "type": "bytes"
        }
      ],
      "name": "verifyDecryptResult",
      "outputs": [
        {
          "internalType": "bool",
          "name": "",
          "type": "bool"
        }
      ],
      "stateMutability": "pure",
      "type": "function"
    },
    {
      "inputs": [
        {
          "internalType": "uint256[]",
          "name": "",
          "type": "uint256[]"
        },
        {
          "internalType": "uint256[]",
          "name": "",
          "type": "uint256[]"
        },
        {
          "internalType": "bytes[]",
          "name": "",
          "type": "bytes[]"
        }
      ],
      "name": "verifyDecryptResultBatch",
      "outputs": [
        {
          "internalType": "bool",
          "name": "",
          "type": "bool"
        }
      ],
      "stateMutability": "pure",
      "type": "function"
    },
    {
      "inputs": [
        {
          "internalType": "uint256[]",
          "name": "ctHashes",
          "type": "uint256[]"
        },
        {
          "internalType": "uint256[]",
          "name": "",
          "type": "uint256[]"
        },
        {
          "internalType": "bytes[]",
          "name": "",
          "type": "bytes[]"
        }
      ],
      "name": "verifyDecryptResultBatchSafe",
      "outputs": [
        {
          "internalType": "bool[]",
          "name": "",
          "type": "bool[]"
        }
      ],
      "stateMutability": "pure",
      "type": "function"
    },
    {
      "inputs": [
        {
          "internalType": "uint256",
          "name": "",
          "type": "uint256"
        },
        {
          "internalType": "uint256",
          "name": "",
          "type": "uint256"
        },
        {
          "internalType": "bytes",
          "name": "",
          "type": "bytes"
        }
      ],
      "name": "verifyDecryptResultSafe",
      "outputs": [
        {
          "internalType": "bool",
          "name": "",
          "type": "bool"
        }
      ],
      "stateMutability": "pure",
      "type": "function"
    },
    {
      "inputs": [
        {
          "components": [
            {
              "internalType": "uint256",
              "name": "ctHash",
              "type": "uint256"
            },
            {
              "internalType": "uint8",
              "name": "securityZone",
              "type": "uint8"
            },
            {
              "internalType": "uint8",
              "name": "utype",
              "type": "uint8"
            },
            {
              "internalType": "bytes",
              "name": "signature",
              "type": "bytes"
            }
          ],
          "internalType": "struct EncryptedInput",
          "name": "input",
          "type": "tuple"
        },
        {
          "internalType": "address",
          "name": "",
          "type": "address"
        }
      ],
      "name": "verifyInput",
      "outputs": [
        {
          "internalType": "uint256",
          "name": "",
          "type": "uint256"
        }
      ],
      "stateMutability": "nonpayable",
      "type": "function"
    }
  ],
  "bytecode": "0x6080806040523460195760015f55610e8f908161001e8239f35b5f80fdfe60406080815260049081361015610014575f80fd5b5f3560e01c80630828982714610b975780631868370114610b775780631888debd146104c757806327f9c762146103a757806334ef1e5a14610394578063458693c9146103675780634d7cb0c0146102695780635faa299a1461013e57806365d0509c1461028a578063733016511461031b57806380d55b691461028f5780638d9c9c921461028a5780638eef9ae71461026e578063a33b4b0a14610269578063cae71e37146101a1578063e64a0ded14610182578063e914f7241461013e578063ef3a6874146101175763f6bc7f3f146100ed575f80fd5b3461011357602036600319011261011357602091355f5260018252805f20549051908152f35b5f80fd5b503461011357602036600319011261011357602091355f5260018252805f20549051908152f35b503461011357806003193601126101135760209161015a610bb1565b90355f5260028352815f209060018060a01b03165f52825260ff815f20541690519015158152f35b50346101135760209061019436610d7d565b5050505050505160018152f35b50903461011357906101b236610d7d565b5050505090506101c181610c6d565b926101ce83519485610c37565b8184526101da82610c6d565b9160209182860193601f19013685375f5b8281106102335750505082519384938285019183865251809252840192915f5b82811061021a57505050500390f35b835115158552869550938101939281019260010161020b565b86949596518110156102565780600185819360051b8801015201959493956101eb565b603282634e487b7160e01b5f525260245ffd5b610ce5565b5034610113576020366003190112610113576020905160018152f35b610d02565b5034610113576060366003190112610113576102a9610c19565b506044358060030b03610113575f546102c181610e3b565b5f558151916020830160243581528282850152818452606084019380851067ffffffffffffffff861117610308576020955084835251902090825f52600185525f20558152f35b604186634e487b7160e01b5f525260245ffd5b50346101135761032a36610d7d565b50505f94919392945b85811061033c57005b8061034a6001928488610e49565b35610356828988610e49565b355f5282602052845f205501610333565b50903461011357602036600319011261011357355f526001602052805f2054815190815260016020820152f35b3461011357602036600319011261011357005b5034610113576003199080823601126101135782359267ffffffffffffffff928385116101135760809085360301126101135781519260808401848110828211176104b457835284820135845261040060248601610c29565b946020958686015261041460448201610c29565b848601526064810135908282116101135701913660238401121561011357808301359182116104a15750825191610454601f8301601f1916870184610c37565b818352366024838301011161011357815f92602488930183860137830101526060830152610480610bb1565b505f549161048d83610e3b565b5f5551825f5260018452815f205551908152f35b604190634e487b7160e01b5f525260245ffd5b604183634e487b7160e01b5f525260245ffd5b5034610113576080366003190112610113576104e1610c19565b506024918235602093848210156101135767ffffffffffffffff92604435848111610113576105139036908301610c85565b936064359081116101135761052b9036908301610c85565b92601a8103610563575050506105419150610de3565b51905b5f549161055083610e3b565b5f55825f5260018452815f205551908152f35b91925090600881036105ba575061057983610de3565b515f526001855261058d845f205493610e04565b515f5260018552835f205483018093116105a957505090610544565b601190634e487b7160e01b5f52525ffd5b6007810361064457506105cc83610de3565b515f52600185526105e0845f205493610e04565b515f5260018552835f20548084106106035783039283116105a957505090610544565b50601a6064928686519362461bcd60e51b85528401528201527f4d6f636b5461736b4d616e616765723a20756e646572666c6f770000000000006044820152fd5b919291600f810361068a575050610684915061065f81610de3565b515f5260018452610673835f205491610e04565b515f5260018452825f205490610e14565b90610544565b600d810361070d575061069c82610e04565b515f5260018552835f20549283156106cb5750506106b990610de3565b515f5260018352815f20540490610544565b845162461bcd60e51b8152918201869052601c908201527f4d6f636b5461736b4d616e616765723a20646976206279207a65726f000000006044820152606490fd5b909290600e8103610762575061072282610de3565b515f5260018552610736845f205492610e04565b515f5260018552835f20549283156107515750500690610544565b601290634e487b7160e01b5f52525ffd5b91929091601581036107b45750505061077a81610de3565b515f526001835261078e825f205491610e04565b515f5260018352815f2054105f146107ac5760ff60015b1690610544565b60ff5f6107a5565b601281036107f6575050506107c881610de3565b515f52600183526107dc825f205491610e04565b515f9081526001845282902054116107ac57600190610544565b601481036108385750505061080a81610de3565b515f526001835261081e825f205491610e04565b515f5260018352815f2054115f146107ac57600190610544565b6013810361087a5750505061084c81610de3565b515f5260018352610860825f205491610e04565b515f9081526001845282902054106107ac57600190610544565b601881036108bc5750505061088e81610de3565b515f52600183526108a2825f205491610e04565b515f5260018352815f2054145f146107ac57600190610544565b601981036108fe575050506108d081610de3565b515f52600183526108e4825f205491610e04565b515f9081526001845282902054146107ac57600190610544565b601681036109485750505061091281610de3565b515f5260018352610926825f205491610e04565b515f5260018352815f20548082105f14610941575090610544565b9050610684565b6017810361098b5750505061095c81610de3565b515f5260018352610970825f205491610e04565b515f5260018352815f20548082115f14610941575090610544565b8082036109fa575061099c83610de3565b515f9081526001865284902054156109ca5750506109b990610e04565b515f5260018252805f205490610544565b8251600210156109e9575050606001515f5260018252805f2054610684565b603290634e487b7160e01b5f52525ffd5b915050600c8103610a215750610a0f90610de3565b515f5260018252805f20541990610544565b600a8103610a595750610a3381610de3565b515f5260018352610a47825f205491610e04565b515f5260018352815f20541690610544565b600b8103610a915750610a6b81610de3565b515f5260018352610a7f825f205491610e04565b515f5260018352815f20541790610544565b60098103610ac95750610aa381610de3565b515f5260018352610ab7825f205491610e04565b515f5260018352815f20541890610544565b60108103610b015750610adb81610de3565b515f5260018352610aef825f205491610e04565b515f5260018352815f20541b90610544565b60118103610b395750610b1381610de3565b515f5260018352610b27825f205491610e04565b515f5260018352815f20541c90610544565b60028103610b4b57506109b990610de3565b601e03610b6f57610b5b90610de3565b515f5260018252610684815f205480610e14565b505f90610544565b503461011357610b8636610bc7565b50505f918252600160205291902055005b50346101135736600319011261011357610baf610bb1565b005b602435906001600160a01b038216820361011357565b90606060031983011261011357600435916024359160443567ffffffffffffffff9283821161011357806023830112156101135781600401359384116101135760248483010111610113576024019190565b6004359060ff8216820361011357565b359060ff8216820361011357565b90601f8019910116810190811067ffffffffffffffff821117610c5957604052565b634e487b7160e01b5f52604160045260245ffd5b67ffffffffffffffff8111610c595760051b60200190565b9080601f83011215610113576020908235610c9f81610c6d565b93610cad6040519586610c37565b81855260208086019260051b82010192831161011357602001905b828210610cd6575050505090565b81358152908301908301610cc8565b3461011357610cf336610bc7565b50505050602060405160018152f35b3461011357604036600319011261011357610d1b610bb1565b6004355f9081526002602090815260408083206001600160a01b03909416835292905220805460ff19166001179055005b9181601f840112156101135782359167ffffffffffffffff8311610113576020808501948460051b01011161011357565b9060606003198301126101135767ffffffffffffffff6004358181116101135783610daa91600401610d4c565b939093926024358381116101135782610dc591600401610d4c565b9390939260443591821161011357610ddf91600401610d4c565b9091565b805115610df05760200190565b634e487b7160e01b5f52603260045260245ffd5b805160011015610df05760400190565b81810292918115918404141715610e2757565b634e487b7160e01b5f52601160045260245ffd5b5f198114610e275760010190565b9190811015610df05760051b019056fea26469706673582212208dd0291d0196545d8a446e1412311ec74ade7e7c9ff8e7c904f408bae6e76f2d64736f6c63430008190033",
  "linkReferences": {},
  "deployedLinkReferences": {}
}